:020000040800F2
:1000000010050020450100087D0800086D08000863
:100010007908000861070008890B0008000000004B
:10002000000000000000000000000000850800083B
:10003000690800080000000081080008890800081D
:100040005F0100085F0100085F0100085F01000810
:100050005F0100085F0100085F0100085F01000800
:100060005F0100085F0100085F010008F507000854
:100070005F0100085F0100085F0100085F010008E0
:100080005F0100085F0100085F0100085F010008D0
:100090005F0100085F0100085F0100085F010008C0
:1000A000710A00085F0100085F0100085F01000895
:1000B0005F0100085F0100089D0A00085F01000859
:1000C0005F0100085F0100085F0100085F01000890
:1000D0005F0100085F0100085F0100085F01000880
:1000E0005F0100085F0100085F0100085F01000870
:1000F0005F0100085F0100085F0100085F01000860
:100100005F0100085F0100085F0100085F0100084F
:100110005F0100085F010008D50A00082D0B0008E8
:100120005F0100085F0100085F0100085F0100082F
:10013000DFF80CD000F002FB00480047B937000898
:10014000100500200648804706480047FEE7FEE706
:10015000FEE7FEE7FEE7FEE7FEE7FEE7FEE7FEE777
:100160000D0A0008310100082DE9F05F0546002066
:1001700092469B4688460646814640241BE0284618
:1001800041464746224600F02AFA53465A46C01ACC
:10019000914110D311461846224600F011FA2D1A4B
:1001A00067EB01084F4622460120002100F008FAC3
:1001B00017EB00094E41201EA4F10104DFDC484684
:1001C00031462A464346BDE8F09F40EA01039B07BB
:1001D00003D009E008C9121F08C0042AFAD203E0BC
:1001E00011F8013B00F8013B521EF9D27047D2B220
:1001F00001E000F8012B491EFBD270470022F6E710
:1002000010B513460A4604461946FFF7F0FF20468C
:1002100010BD2DE9FE4F804681EA0300C00F0C4659
:10022000009021F0004123F00045B8EB0200A94105
:1002300005D24046214690461C460B46024623F016
:100240000040104347D0270DC7F30A00C3F30A51FB
:100250000290401A019040286BDAC3F3130040F477
:10026000801B0098924620B10023D2EB030A63EB77
:100270000B0B01985946C0F14002504600F0A0F91E
:1002800006460D4650465946019A00F0B8F910EB63
:1002900008006141002487EA115284EAE7731A4397
:1002A00040D0009A62B3019A012A4FEA075215DC46
:1002B000001B61EB02014FF0004202EA0752CDE958
:1002C0000042001C41F5801132462B4600F0B8F97F
:1002D00003B0BDE8F08F40462146F9E7001B61EB13
:1002E0000201001C41F5801300185B412018A2F5A3
:1002F000001747EB030140EAD570B6196D4111E0D4
:100300006D084FEA360645EAC0754FEA0752001BF2
:1003100061EB0201001C41F5801149084FEA3000F1
:100320000019514132462B4603B0BDE8F04F00F0B2
:1003300078B90098012240000023D0EB020263EB61
:10034000E073009821464FEAE074B8EB000061EBDF
:100350000401E9E783F000435BE781F0004158E7DF
:100360002DE9FE4F81EA030404F0004421F000412E
:1003700000944FF0000B23F0004350EA01045ED0DC
:1003800052EA03045BD0C3F30A54C1F30A552C4468
:10039000A4F2F3340194A0FB0254C1F3130141F41D
:1003A0008011C3F3130343F4801301FB024400FBE9
:1003B000034E840A970A44EA815447EA8357A4FB10
:1003C000076802958D0A05FB07854FEA932C04FB0D
:1003D0000C542705029D4FEA065847EA1637B5EB3D
:1003E00008056EEB070C870E920E47EA811742EA6A
:1003F0008312A7FB0201B6EB0B0164EB00042B0D8B
:1004000043EA0C335E1844EB1C50DA465146E7FBD6
:100410000201C5F313044FEA0B3343EA14534FEAC6
:100420000432019C43EA0603A4F10C040294009CEC
:10043000CDE900B400F004F903B0BDE8F08F00206E
:100440000146F9E72DE9F04D81EA030404F0004B81
:1004500021F0004514464FF0000A23F0004150EA15
:10046000050220D054EA01021DD0C5F30A57024606
:10047000C5F31303C1F31300C1F30A5640F480150A
:1004800043F48013A7EB0608101BD64608F2FD388C
:1004900073EB050002D308F1010801E092185B41FB
:1004A000B8F1000F03DA00200146BDE8F08D00200E
:1004B0004FF48011064684460EE0171B73EB0507C8
:1004C00005D3121B63EB050306434CEA010C4908F4
:1004D0004FEA300092185B4150EA0107EDD152EA31
:1004E000030012D082EA040083EA0501084305D024
:1004F000101BAB4106D20122002306E000224FF080
:10050000004302E06FF0010253101AEB06004CEBBF
:10051000085110EB0A0041EB0B01BDE8F04D00F073
:1005200080B80EB540F2334102910021CDE90011AF
:100530000A460B4600F084F803B000BDC1F30A522E
:1005400010B5C1F3130140F2FF3341F480119A4218
:1005500001DA002010BD40F233439A42A2F2334246
:1005600003DC524200F03BF810BD904010BD00F09B
:10057000004230F000400AD0C10D01F56071C0F3B7
:10058000160042EA0151C20840071143704700209B
:100590000146704730B50B46014600202022012459
:1005A00009E021FA02F59D4205D303FA02F5491B41
:1005B00004FA02F52844151EA2F10102F1DC30BD57
:1005C000202A04DB203A00FA02F100207047914013
:1005D000C2F1200320FA03F3194390407047202A08
:1005E00004DB203A21FA02F00021704721FA02F3DD
:1005F000D040C2F120029140084319467047202A9A
:1006000006DBCB17203A41FA02F043EAE07306E03A
:1006100041FA02F3D040C2F120029140084319464A
:10062000704710B5141E73F1000408DA401C41F144
:10063000000192185B411A4301D120F0010010BD66
:100640002DE9F04D92469B4611B1B1FA81F202E0DC
:10065000B0FA80F220329046FFF7B2FF04460F4610
:1006600040EA0A0041EA0B0153465A46084313D0B8
:10067000114653EA010019D0C8F140025046FFF775
:10068000AEFF05460E46504659464246FFF798FFD4
:10069000084305D0012004E020463946BDE8F08D2E
:1006A0000020054346EAE0762C4337430A98630569
:1006B000E40AA0EB08000022FD0A44EA47540A308D
:1006C00002D500200146E9E7010510196941DDE97D
:1006D000084500196941BDE8F04DA2E7C1F30A528F
:1006E000C1F3130140F2FF3341F480119A4202DA60
:1006F00000200146704740F233439A42A2F233424F
:1007000002DC5242FFF76BBFFFF75ABF30B5041E41
:1007100071F1000404DB4FF00044404264EB01013E
:10072000141E73F1000405DB1C464FF000435242D7
:1007300063EB0403994208BF904230BD064C074D5D
:1007400006E0E06840F0010394E8070098471034A1
:10075000AC42F6D3FFF7F0FC406A0008606A00087C
:10076000FFE7FEE780B584B004F04AF94FF0100EC1
:100770007046CDF808E004F0A5F9029804F0BAF943
:100780008DF80F009DF80F00012830D1FFE70220FF
:1007900001F0E4FF0020019003F0F8FF019804F05D
:1007A0001DF84FF4806004F005F8019804F058FB40
:1007B000019804F06DFB4FF480304FF4501104F0B9
:1007C00029FB182004F07EF9FFE7192004F056F900
:1007D000002801D1FFE7F8E7022004F07BFBFFE7E8
:1007E00004F08CFB002801D1FFE7F9E7FFE704B034
:1007F00080BD000080B50020C4F202000021042268
:1008000001F076FD00280ED0FFE70020C4F20200C0
:100810000021042201F052FD40F22400C2F2000047
:1008200000F01CFEFFE70020C4F2020000210222BB
:1008300001F05EFD00280FD0FFE70020C4F20200A7
:100840000021022201F03AFD40F22400C2F2000031
:10085000043000F003FEFFE70020C4F20200002194
:10086000012201F02BFD80BD70470000FFE7FEE78D
:1008700080B5FFF777FF80BDFFE7FEE77047000018
:10088000704700007047000040F21800C2F20000FC
:1008900001680131016040F23800C2F200000168D5
:1008A000013101607047000087B041F20400C4F2DA
:1008B00002000068C0F381000690069800280090AE
:1008C00008D0FFE7009801280ED0FFE70098022823
:1008D00014D08EE040F20400C2F2000041F2002188
:1008E000C0F27A0101608EE040F20400C2F2000022
:1008F00041F20021C0F27A01016084E041F204007B
:10090000C4F20200006800F4803005900598B0F54C
:10091000803F2CD1FFE741F22C00C4F202000068B6
:1009200000F0804004900498002806D1FFE741F2CF
:100930000020C0F27A00019005E046F60040C0F2C7
:10094000DC200190FFE741F20400C4F202000068DD
:1009500000F4003003900398B0F5003F06D1FFE7A4
:1009600040F60010C0F23D000190FFE705E040F6C0
:100970000010C0F23D000190FFE741F20400C4F214
:1009800002000168C1F383410291006810F0006F1A
:1009900005D0FFE7029840F010000290FFE741F217
:1009A0000400C4F20200006810F0804F05D0FFE799
:1009B000029840F020000290FFE702980F2804D32D
:1009C000FFE702980130029003E0029802300290A3
:1009D000FFE702983E2803D3FFE73F200290FFE79E
:1009E00001980299484340F20401C2F200010860F4
:1009F00009E040F20400C2F2000041F20021C0F21E
:100A00007A010160FFE707B07047000080B54EF63D
:100A10008850CEF20000016841F47001016041F29B
:100A20000000C4F20200016841F00101016041F2DE
:100A30000401C4F2020100220A6041F22C01C4F256
:100A400002010A6001684FF6FF72CFF6F6621140AC
:100A5000016041F20801C4F202014FF41F020A6072
:100A6000016821F48021016004F03AFB80BD0000A0
:100A700080B542F60040C4F20100802104F018FF66
:100A800000280AD0FFE703F0DFFD42F60040C4F281
:100A90000100802104F0FCFEFFE780BD80B540F638
:100AA0000000C4F20000012104F002FF01280FD170
:100AB000FFE740F60000C4F20000012104F0E8FE68
:100AC00040F22000C2F20000016801310160FFE73E
:100AD00080BD000080B541F20000C4F20000012199
:100AE00004F0E6FE012808D1FFE741F20000C4F25D
:100AF0000000012104F0CCFEFFE740F20800C2F242
:100B00000000018801310180008814280DDBFFE717
:100B100040F20800C2F200000021018040F23F00D4
:100B2000C2F2000001210170FFE780BD80B541F2F3
:100B30000040C4F20000012104F0BAFE012808D1EF
:100B4000FFE741F20040C4F20000012104F0A0FEE2
:100B5000FFE740F20A00C2F2000001880131018083
:100B6000B0F90000B0F57A7F0DDBFFE740F20A0034
:100B7000C2F200000021018040F23E00C2F20000FB
:100B800001210170FFE780BDFFE7FEE784B00A4660
:100B900003468DF80F0002919DF90F000028019285
:100BA00000930ADBFFE7029800019DF90F104EF257
:100BB0000042CEF2000288540BE0029800019DF83A
:100BC0000F1001F00F014EF61452CEF200028854BD
:100BD000FFE704B07047000080B540F2026004F007
:100BE000D1F840F60000C4F2010000210322602386
:100BF00001F0E0FD80BD00002DE9F04190B04FF420
:100C0000A06004F0BFF800200F900E900D900C90A3
:100C10000B900A90099040F2000EC4F2020E089068
:100C200070460899CDF81CE001F016FA42F24C40EB
:100C3000C4F20100099008988DF83C0040F22401AC
:100C4000C2F200010B9101218DF83D104FF4807E1E
:100C5000CDF828E04FF4806ECDF830E04FF0040E70
:100C6000CDF834E04FF400520E928DF83E000A9B0E
:100C7000099ADDF82CC00C9C0D9D0E9E0F9FE84636
:100C8000C8F81070C8F80C60C8F80850C8F80440DC
:100C9000C8F800C00798DDF820C006916146CDF87D
:100CA00014E001F025FA0798089901F0B5F902223D
:100CB0000798089901F0DCFA07980899059A01F05D
:100CC000D7FA07980899069A01F0F8FA10B0BDE82B
:100CD000F081000080B586B00146059040F20C001E
:100CE000C2F2000000780028049101D0FFE760E024
:100CF000FFF772FFFFF780FF0B204FF0010E00217E
:100D000003917146039ACDF808E002F0F3FD40F23A
:100D1000096004F037F80220019003F0D9FC42F298
:100D20000040C4F20100009000F05AFA039800F06D
:100D300053FB4FF480710098029A00F077FC009802
:100D40000199039A00F072FC0098039900F02EFAC2
:100D500000980299019A00F0E9F90522042300980D
:100D6000039900F08BFB062200980299029B00F089
:100D700085FB059A0098029900F0D4FA0098029930
:100D8000029A00F087FA009800F072FA009800F0DA
:100D9000ADF9009800F060FA0020C4F20200039957
:100DA00001F01AF940F20C00C2F200000299017041
:100DB000FFE706B080BD000040F20C00C2F2000068
:100DC0000078002801D1FFE7FFE7704780B582B0C7
:100DD00040F2026003F0D6FF40F2046003F0D2FF5D
:100DE00041F20000C4F201004FF0000E0321302355
:100DF00001917146019ACDF800E001F0DBFC40F66C
:100E00000000C4F201000A230099019A01F0D2FC0B
:100E100002B080BD80B588B040F20D00C2F2000083
:100E20000078002801D0FFE797E0FFF7CFFF40F2FE
:100E30000A6003F0A7FF0220059003F049FC42F688
:100E40000000C4F20100049000F0CAF900200390F1
:100E500000F0C2FA0498039900F0A8F94FF48071E9
:100E60000498039A00F0E2FB04980599039A00F0B5
:100E7000DDFB01200499029008460299029A00F0D5
:100E800055F94FF460220498029900F04BFA049847
:100E90000299029A00F0FEF9049800F0E9F94FF483
:100EA0007A700790FFE742F60800C4F2010000687C
:100EB000002110F0010F019106D1FFE707980028EB
:100EC00018BF01200190FFE70198C007002804D057
:100ED000FFE7079801380790E5E70798002801D158
:100EE000FFE73AE0012001F057F842F60000C4F2B3
:100EF000010000F0FBF84CF250300690FFE742F69C
:100F00000800C4F201000068002110F0080F0091F1
:100F100006D0FFE70698002818BF01200090FFE7E1
:100F20000098C007002804D0FFE706980138069013
:100F3000E5E70698002809D1FFE742F60800C4F269
:100F40000100016821F008010160FFE740F20D0097
:100F5000C2F2000001210170FFE708B080BD00006F
:100F600080B58EB00A4603468DF835000C9140F2EC
:100F70000D00C2F20000007800280692059305D10A
:100F8000FFE74FF6FF70ADF8360085E042F604004B
:100F9000C4F2010000680B9042F60800C4F20100A0
:100FA00000680A9042F60000C4F20100016809914D
:100FB0000C9B9DF835200021049000F05FFA022080
:100FC000049903900846039900F0DEF90498039908
:100FD00000F0EAF9002808D0FFE742F60000C4F26A
:100FE0000100022100F0D0F9FFE742F60000C4F250
:100FF0000100012100F0F8FA9DF82A0040060028BF
:101000000ED4FFE742F60000C4F20100012100F017
:10101000EBFA42F60800C4F2010000680A90FFE70C
:1010200048F2A060C0F201000890FFE742F600001D
:10103000C4F20100022100F0B7F90021002802915A
:1010400006D1FFE70898002818BF01200290FFE7AB
:101050000298C007002804D0FFE7089801380890DC
:10106000E4E70898002805D1FFE74FF6FF70ADF8D8
:10107000360011E042F60000C4F20100019000F0D9
:10108000A9FAADF81E000221019800F07DF9BDF823
:101090001E00ADF83600FFE7BDF836000EB080BD8B
:1010A00080B582B040F20D00C2F200000078002846
:1010B00001D1FFE717E00E2005210091FFF750FF57
:1010C000ADF806000F200099FFF74AFFADF80400C5
:1010D000BDF8060040F24001C2F200018880BDF870
:1010E0000400C880FFE702B080BD000082B0014666
:1010F00001900198826842F0080282600091FFE747
:101100000198806810F0080F01D0FFE7F8E7019818
:10111000816841F004018160FFE70198806810F068
:10112000040F01D0FFE7F8E702B0704780B587B041
:1011300013468C46864606908DF8171004929DF84B
:101140001700014601280393CDF808C0CDF804E04C
:10115000009104D0FFE70098022812D023E00698FF
:10116000C16A21F47001C16204980021CFF6F071C8
:1011700001EB00503FFA80F00699CA6A1043C8623A
:1011800012E00698816B21F44011816304980021DC
:10119000CFF6F07101EB005000F4401006998A6B15
:1011A0001043886300E0FFE707B080BD84B00A46C3
:1011B000034603900291029800280192009306D002
:1011C000FFE70398816841F40061816005E00398BE
:1011D000816821F400618160FFE704B0704700007E
:1011E00080B586B001460590059842F20042C4F2EF
:1011F000010290420491039010D0FFE742F60000F4
:10120000C4F201000399814211D0FFE743F6004088
:10121000C4F201000399814212D01AE040F2093071
:10122000029003F0DFFD029803F0C4FD12E040F2EB
:101230000A30019003F0D6FD019803F0BBFD09E0F0
:1012400040F20F30009003F0CDFD009803F0B2FDA6
:1012500000E0FFE706B080BD82B001460190019832
:10126000826842F480728260009102B07047000090
:1012700082B0014601900198806810F0010F009142
:1012800006D1FFE70198816841F001018160FFE725
:1012900002B0704780B585B013468C4686460490F0
:1012A0008DF80F108DF80E209DF80E000028029387
:1012B000CDF804C0CDF800E019D0FFE79DF80F008D
:1012C000C007002806D0FFE70498816841F4801128
:1012D0008160FFE79DF80F008007002806D5FFE733
:1012E0000498816841F400418160FFE718E09DF8AF
:1012F0000F00C007002806D0FFE70498816821F49A
:1013000080118160FFE79DF80F008007002806D557
:10131000FFE70498816821F400418160FFE7FFE75F
:1013200005B080BD80B587B013468C4686460690D2
:101330008DF8171004929DF81700014601280393B9
:10134000CDF808C0CDF804E0009104D0FFE7009884
:1013500002280BD015E00698816821F46021816095
:10136000049806998A68104388600BE006988168A3
:1013700021F4E0418160049806998A6810438860EE
:1013800000E0FFE707B080BD84B00A460346039043
:10139000029102980399D1F800C02CEA000008607D
:1013A0000192009304B0704785B00A46034604904A
:1013B000039100208DF80B000498006803990842FF
:1013C0000192009304D0FFE701208DF80B00FFE7A6
:1013D0009DF80B0005B0704782B00146019042F2C3
:1013E0000440C4F20100026822F470220260019AF3
:1013F00003681A430260009102B0704782B040F265
:101400004000C2F200000188ADF800104188ADF83C
:1014100002108188ADF80410C088ADF8060040F2D3
:101420000E00C2F20000009901600199416002B013
:101430007047000080B582B001460190019800918C
:10144000FFF748FC02B080BD80B5FFF729FE80BDE4
:1014500080B5FFF7B1FCFFF7DDFC80BD82B001462F
:1014600001900198028840F24003C2F200031A8002
:1014700040885880009102B070470000B0B589B034
:101480009C4696460C46054608908DF81F108DF830
:101490001E2006939DF81F000528CDF80CC0CDF83E
:1014A00008E00194009518D8FFE70898406B059074
:1014B0009DF81F0000EB80001F218140059A22EA61
:1014C000010105919DF81E1001FA00F005990843ED
:1014D00005900598089948633EE09DF81F000B2889
:1014E00019D8FFE70898006B05909DF81F0000EBE6
:1014F00080001E381F218140059A22EA01010591D2
:101500009DF81E1001FA00F0059908430590059812
:10151000089908631FE09DF81F000F2819D8FFE7FE
:101520000898C06A05909DF81F0000EB80003C38C9
:101530001F218140059A22EA010105919DF81E10A4
:1015400001FA00F005990843059005980899C862CA
:1015500000E0FFE7FFE7FFE79DF81E00092817D826
:10156000FFE70898006904909DF81E0000EB40001A
:1015700007218140049A22EA01010491069901FAA7
:1015800000F00499084304900498089908611EE04B
:101590009DF81E00112818D8FFE70898C06804902D
:1015A0009DF81E0000EB40001E3807218140049A80
:1015B00022EA01010491069901FA00F00499084316
:1015C000049004980899C86000E0FFE7FFE709B0BD
:1015D000B0BD000082B0014601900198C06C80B29D
:1015E000009102B07047000084B00A4603460390A1
:1015F0008DF80B109DF80B00C00700280192009396
:1016000006D0FFE70398816841F480018160FFE71D
:101610009DF80B008007002806D5FFE70398816836
:1016200041F400118160FFE704B0704780B586B0D7
:1016300013468C468646059004918DF80F209DF840
:101640000F0000280293CDF804C0CDF800E022D0AE
:10165000FFE70498C005002806D5FFE70598416814
:1016600041F480714160FFE704984005002806D5E9
:10167000FFE70598416841F480614160FFE7049805
:101680008007002806D5FFE70598816841F0020130
:101690008160FFE721E00498C005002806D5FFE738
:1016A0000598416821F480714160FFE70498400586
:1016B000002806D5FFE70598416821F48061416064
:1016C000FFE704988007002806D5FFE705988168A2
:1016D00021F002018160FFE7FFE706B080BD000056
:1016E00080B592B00CA800211091ADF83E10ADF875
:1016F0003C100A90FFE7BDF83C00072822D8FFE71E
:101700000E200521FFF72CFCADF83A00BDF83A0099
:101710004FF6FF7188420BD0FFE7BDF83A001099F1
:1017200008441090BDF83E000130ADF83E00FFE7E0
:10173000022000F031FCFFE7BDF83C000130ADF8BD
:101740003C00D8E7BDF83E0000280CD1FFE746F684
:101750008F10C0F6000000F011FB4FF0000E8DF866
:1017600047E00990AAE00A9890ED040AB8EE400A12
:10177000BDF83E1001EE101AB8EE411A80EE010AD3
:1017800080ED010A90ED010AB6EE001A30EE010A72
:10179000BDEEC00A10EE101A9FED4D0ADFED4D0AA6
:1017A000084600F0BDFA0A9880ED000A0D98FEF791
:1017B000DEFE41EC120B0C988DED062BFEF7D7FEEA
:1017C00041EC120B684680ED002B9DED062B53EC8F
:1017D000122B46F66810C0F6000000F0CFFA0A9906
:1017E00091ED000A9FED3C1AB4EEC10AF1EE10FA39
:1017F00005900BDBFFE70A9890ED000A9FED371A82
:10180000B4EEC10AF1EE10FA18DDFFE768464CF6B7
:10181000CC41C4F20C0141604FF0404101609FEDAA
:101820002A0B53EC102B46F6D400C0F6000000F053
:10183000A5FA00218DF8471004903FE000208DF8B4
:101840002F00FFE79DF82F0002280ED8FFE7FFF7D3
:10185000FBFDFFF7D3FD012000F09EFBFFE79DF8A5
:101860002F0001308DF82F00ECE740F20E00C2F29D
:10187000000000884FF6FF7188420AD0FFE740F26F
:101880000E00C2F2000040884FF6FF71884211D16D
:10189000FFE740F20E00C2F200000188428846F6DF
:1018A0003010C0F6000000F069FA00218DF84710F2
:1018B000039003E001208DF84700FFE79DF8470003
:1018C00012B080BD00BF00BF000000606666064029
:1018D00000609F4500401C463333334066666640D7
:1018E00085B0B0EE401A0146ADF812008DED030A46
:1018F000BDF8120000EE100AB8EEC00A9FED0A2AE9
:1019000020EE020A9FED092A80EE020A8DED020AFE
:101910009DED020A9DED032A20EE020A8DED011ACB
:10192000009105B0704700BF3333534000F07F454E
:1019300080B594B00A460346129011911198002880
:101940000992089304D1FFE700208DF84F00E5E0ED
:101950001198FEF7E6FD41EC100B9FED731B51EC67
:10196000110B53EC102BFEF76DFD41EC100B8DEDC0
:101970000E0B1298FEF7D5FD41EC100B9DED0E1BE2
:1019800051EC100B53EC112BFEF75CFD41EC100BEE
:1019900051EC100B9FED660B53EC102BFEF739FC4E
:1019A00041EC100B51EC100BFEF7C8FD0D900D989B
:1019B0007F2804D8FFE70D988DF84F00AEE012980D
:1019C000FEF7AFFD41EC100B9DED0E1B51EC110B22
:1019D00007900691079A069B8DED040BFEF719FC04
:1019E00041EC100B9DED041B51EC110B53EC102B33
:1019F000FEF728FD41EC100B51EC100B9FED4C0B4A
:101A000053EC102BFEF705FC41EC100B51EC100BC6
:101A1000FEF794FD0C900C98402809D3FFE70C9832
:101A20007F2805D8FFE70C9840308DF84F0075E00F
:101A30001298FEF776FD41EC100B9DED0E1B51EC5C
:101A4000110B9FED3D1B53EC112B8DED020BFEF79F
:101A500087FC41EC100B53EC102B9DED020B51EC6D
:101A6000100BFEF7EFFC41EC100B51EC100B9FED4F
:101A7000300B53EC102BFEF7CCFB41EC100B51EC70
:101A8000100BFEF75BFD0B900B98202809D3FFE7A6
:101A90000B983F2805D8FFE70B98A0308DF84F0032
:101AA0003CE01298FEF73DFD41EC100B9DED0E1B46
:101AB00051EC110B9FED221B53EC112B8DED000B04
:101AC000FEF74EFC41EC100B53EC102B9DED000B80
:101AD00051EC100BFEF7B6FC41EC100B51EC100B67
:101AE0009FED130B53EC102BFEF793FB41EC100B07
:101AF00051EC100BFEF722FD0A900A98202809D31A
:101B0000FFE70A983F2805D8FFE70A98C0308DF80C
:101B10004F0003E000208DF84F00FFE79DF84F00D5
:101B200014B080BD00BF00BF0000000065CDCD41F6
:101B3000000000000000E03F000000000000204026
:101B4000000000000000304088B0B0EE412AB0EE46
:101B5000603AB0EE404A8DED070ACDED060A8DEDF4
:101B6000051A9DED070A9DED061AB4EEC10AF1EEC5
:101B700010FA8DED042A8DED033A8DED024A05DA57
:101B8000FFE79DED060A8DED010A18E09DED070ABD
:101B90009DED051AB4EEC10AF1EE10FA05DDFFE77E
:101BA0009DED050A8DED000A04E09DED070A8DED1F
:101BB000000AFFE79DED000A8DED010AFFE79DEDAC
:101BC000010A08B07047000088B0B0EE412AB0EEBC
:101BD000603AB0EE404A8DED070ACDED060A8DED74
:101BE000051A9DED070A9DED061AB4EEC10AF1EE45
:101BF00010FA8DED042A8DED033A8DED024A05DAD7
:101C0000FFE79DED060A8DED010A18E09DED070A3C
:101C10009DED051AB4EEC10AF1EE10FA05DDFFE7FD
:101C20009DED050A8DED000A04E09DED070A8DED9E
:101C3000000AFFE79DED000A8DED010AFFE79DED2B
:101C4000010A08B07047000080B5FFF7FDFBFFF701
:101C5000D5FB02F02DFA00F0E3FE80BD84B0014612
:101C6000ADF80E00BDF80E0000EE100AB8EEC00A86
:101C70009FED0D1A20EE010A9FED0C1A80EE010A6D
:101C80008DED020A9DED020A9FED091A30EE010A60
:101C90008DED010A9DED010A9FED061A80EE010A05
:101CA000009104B0704700BF3333534000F07F45CC
:101CB0007B142EBE39B4C83D87B0B0EE601AB0EECA
:101CC000402A0146ADF81A008DED050ACDED040A53
:101CD000BDF81A0000EE100AB8EEC00ADFED0E0AD9
:101CE00020EE200ADFED0D0A80EE200A8DED030ABA
:101CF0009DED030ADDED050A9DED043A70EE830AC1
:101D000020EE200A80EE030A8DED021A8DED012AE5
:101D1000009107B0704700BF3333534000F07F4558
:101D200087B0B0EE601AB0EE402A0146ADF81A0056
:101D30008DED050ACDED040ABDF81A0000EE100A7B
:101D4000B8EE400ADFED0B0A20EE200ADFED0A0AAA
:101D500080EE200A8DED030A9DED030AF7EE080AD6
:101D600020EE200A8DED021A8DED012A009107B0B8
:101D7000704700BF3333534000F07F4583B080B5D8
:101D800085B00993089207910146049007A8039033
:101D90000498039A0191114600F09CF80290029871
:101DA00005B0BDE8804003B07047000080B588B042
:101DB0000146079007980028069104D1FFE74FF4E9
:101DC00061300790FFE740F2036002F0DBFF4FF461
:101DD000C06002F0D7FF40F2127002F0D3FF40F66D
:101DE0000040C4F2010018214FF0030E4FF480634D
:101DF00005907246CDF810E000F0DCFC04204FF4B2
:101E000000630599039008460399049A00F0D2FCF8
:101E100044F60000C4F20000029003F015FE07999A
:101E2000029803F099FD002002990190084601995B
:101E300003F02CFF0298019903F0F8FE0298019933
:101E400003F0C4FE0298019903F0A6FE02980199DE
:101E500003F088FE0298039903F0CEFE0821029851
:101E600003F0FAFE029803F04DFE08B080BD0000BA
:101E700080B582B001468DF807009DF807000A285A
:101E8000009104D1FFE70D2000F008F8FFE79DF86E
:101E9000070000F003F802B080BD000080B582B0FA
:101EA00001468DF807000091FFE744F60000C4F2F8
:101EB0000000072103F032FE002801D1FFE7F4E71C
:101EC0009DF8071044F60000C4F2000003F0AEFDD8
:101ED00002B080BD80B5AAB00A460346289127907B
:101EE000279828990DF11C0C4FF0800E0490604645
:101EF00003917146DDF810C002926246DDF80CE0F5
:101F00000193734603F0D8FE06900698B0F1FF3FA8
:101F100003DCFFE7069829901EE006987F2803DC83
:101F2000FFE70698009002E07F200090FFE700980E
:101F30000590059907A800F013F80698802808DB9B
:101F4000FFE746F6D000C0F60000032100F008F8D5
:101F5000FFE706982990FFE729982AB080BD000086
:101F600080B586B00A460346059004910020039090
:101F700002920193FFE70398049988420AD2FFE78F
:101F800005980399405CFFF773FFFFE70398013062
:101F90000390F0E706B080BD83B00146029002983E
:101FA0000028009101D1FFE713E040F21800C2F2CF
:101FB000000000680190FFE740F21800C2F2000044
:101FC00000680199401A0299884202D2FFE700BFD7
:101FD000F2E703B07047000080B584B00A460346BC
:101FE00003908DF80B1003989DF80B10019200934D
:101FF00000F0ECF9002802D1FFE7FFE7FEE70398C5
:102000009DF80B1001EB810100EB8100816841F02C
:102010000101816004B080BD80B584B00A460346EA
:1020200003908DF80B1003989DF80B10019200930C
:1020300000F0CCF9002802D1FFE7FFE7FEE70398A4
:102040009DF80B1001EB810100EB8100816841F0EC
:102050002001816004B080BD80B584B00A4603468B
:1020600003908DF80B1003989DF80B1001920093CC
:1020700000F0ACF9002802D1FFE7FFE7FEE7039884
:102080009DF80B1001EB810100EB8100816821F0CC
:102090000101816003989DF80B1001EB810100EBB9
:1020A00081000021816003989DF80B2002EB8202E1
:1020B00000EB8200C16003989DF80B2002EB8202C6
:1020C00000EB8200016103989DF80B2002EB820275
:1020D00000EB820041619DF80B0080000F2101FAA6
:1020E00000F003994A681043486004B080BD0000C6
:1020F0002DE9F0478EB0DDF868C0DDF864E0189C8B
:10210000179D169E1F46904689468246CDF834C0DC
:10211000CDF830E00B940A95099608930792069043
:102120008DF8171006989DF817100397CDF80880C2
:10213000CDF804A0CDF8009000F048F9002802D1B5
:10214000FFE7FFE7FEE7079806999DF8172002EBE7
:10215000820201EB82010861099806999DF8172017
:1021600002EB820201EB82014861BDF82C00069966
:102170009DF8172002EB820201EB8201C8600698ED
:102180009DF8171001EB810100EB8100806804903D
:10219000049820F47C50049008980A990C9A0843FB
:1021A0001043049908430490049806999DF8172059
:1021B00002EB820201EB820188609DF83400012865
:1021C0000CD1FFE706989DF8171001EB810100EB99
:1021D0008100816841F0400181600BE006989DF824
:1021E000171001EB810100EB8100816821F04001B3
:1021F0008160FFE79DF8350001280CD1FFE70698C4
:102200009DF8171001EB810100EB8100816841F01E
:10221000800181600BE006989DF8171001EB8101A9
:1022200000EB8100816821F080018160FFE79DF86B
:10223000360000280CD1FFE706989DF8171001EB37
:10224000810100EB8100816821F0100181600BE0C9
:1022500006989DF8171001EB810100EB8100816861
:1022600041F010018160FFE70EB0BDE8F08700008B
:1022700080B586B013468C46864605908DF81310BF
:10228000039205989DF813100293CDF804C0CDF881
:1022900000E000F09BF8002802D1FFE7FFE7FEE72F
:1022A000039805999DF8132002EB820201EB82014D
:1022B0008A681043886006B080BD000080B586B093
:1022C00013468C46864605908DF8131003920398AA
:1022D0009DF813108900884005994A6810434860AA
:1022E0000293CDF804C0CDF800E006B080BD000038
:1022F00080B58AB013468C46864608908DF81F102C
:102300000692002005900490069802280393CDF8C9
:1023100008C0CDF804E0009008D0FFE7009804283A
:1023200017D0FFE70098082826D038E00898006802
:1023300006999DF81F209300994008400490089842
:1023400002EB820100EB8100806800F00200059042
:1023500027E00898006806999DF81F20930099408F
:1023600008400490089802EB820100EB810080682D
:1023700000F00400059014E00898006806999DF8A4
:102380001F209300994008400490089802EB8201B6
:1023900000EB8100806800F00800059001E0FFE795
:1023A000FEE70498002808D0FFE70598002804D02D
:1023B000FFE701208DF8270003E000208DF82700BB
:1023C000FFE79DF827000AB080BD000084B00A46F0
:1023D000034603908DF80B1001208DF80A00039836
:1023E00040F20041C4F202018842019200930AD1F6
:1023F000FFE79DF80B00052804DBFFE700208DF8C0
:102400000A00FFE7FFE79DF80A0004B070470000EC
:1024100080B588B0B0EE401A8DED060A9DED060A33
:10242000DFED280A9FED282A8DED011AB0EE421A41
:10243000FFF78AFB8DED050A42F62C4EC4F2010E21
:10244000DEF800E0CDF810E0DDF810E0BEF1000F9E
:102450000CD1FFE79DED050A0020B5EEC00AF1EEB4
:1024600010FAC8BF0120ADF81E0027E00498013023
:1024700003909DED050A039801EE100AB8EE411A8B
:10248000B6EE002A00EE012ABCEEC20A10EE101AC7
:1024900002910299814204D3FFE703980138029028
:1024A000FFE70298B0F5803F04D3FFE74FF6FF70D7
:1024B0000290FFE70298ADF81E00FFE7BDF81E008E
:1024C00008B080BD00000000A4707D3F80B584B0DE
:1024D000B0EE401A8DED020A9DED020AB5EEC00A7B
:1024E000F1EE10FA8DED011A03DCFFE700200390F6
:1024F00020E09DED020AB7EE001AB4EEC10AF1EE3B
:1025000010FA04DBFFE74FF07E50039012E09DEDE0
:10251000020A9FED0A1A20EE010A03F0EBFBB7EE68
:10252000001A31EE400AB6EE001A20EE010A8DEDD7
:10253000030AFFE79DED030A04B080BDC3F54840E0
:1025400080B586B00A46034604900391039800289C
:102550000292019304D1FFE701208DF8170013E0E8
:102560000498002804D1FFE700208DF817000BE045
:10257000049800F035F8DDF80CE00021704528BF24
:1025800001218DF81710FFE79DF8170006B080BDF8
:1025900080B586B00A46034604900391039800284C
:1025A0000292019304D1FFE701208DF8170013E098
:1025B0000498002804D1FFE700208DF817000BE0F5
:1025C000049800F025F8DDF80CE00021704528BFE4
:1025D00001218DF81710FFE79DF8170006B080BDA8
:1025E00083B00146029002980028019103D1FFE7D1
:1025F0000020009008E040F21800C2F200000068DD
:102600000299401A0090FFE7009803B0704700005D
:1026100083B00146029002980028019103D1FFE7A0
:102620000020009008E040F21800C2F200000068AC
:102630000299401A0090FFE7009803B0704700002D
:1026400088B0B0EE412AB0EE603AB0EE404A8DED6F
:10265000070ACDED060A8DED051A9DED070A9DEDE1
:10266000061AB4EEC10AF1EE10FA8DED042A8DEDD2
:10267000033A8DED024A05DAFFE79DED060A8DED7E
:10268000010A18E09DED070A9DED051AB4EEC10A96
:10269000F1EE10FA05DDFFE79DED050A8DED000A6C
:1026A00004E09DED070A8DED000AFFE79DED000AAD
:1026B0008DED010AFFE79DED010A08B070470000AB
:1026C00088B0B0EE412AB0EE603AB0EE404A8DEDEF
:1026D000070ACDED060A8DED051A9DED070A9DED61
:1026E000061AB4EEC10AF1EE10FA8DED042A8DED52
:1026F000033A8DED024A05DAFFE79DED060A8DEDFE
:10270000010A18E09DED070A9DED051AB4EEC10A15
:10271000F1EE10FA05DDFFE79DED050A8DED000AEB
:1027200004E09DED070A8DED000AFFE79DED000A2C
:102730008DED010AFFE79DED010A08B0704700002A
:1027400080B582B0B0EE401A8DED010A9DED010A10
:102750008DED001A03F0C6FA02B080BD83B00146C9
:10276000029042F20000C4F2020002680192019A53
:1027700022F007020192019A029B1A430260009123
:1027800003B0704784B00A46034603900291029852
:10279000039948610192009304B0704784B00A46DF
:1027A00003460390029102980399086101920093F5
:1027B00004B07047B0B58BB09C4696460C460546B3
:1027C0000A900991089207930020059004900998B7
:1027D00000F00F01059110F0100FCDF80CC0CDF8EE
:1027E00008E00194009514D0FFE7089804280AD166
:1027F000FFE7059840F00300059007980A99CA6B17
:102800001043C86304E00898059908430590FFE762
:10281000FFE70020ADF81A00FFE7BDF81A0007280F
:1028200037D8FFE7BDF81A00012101FA00F0079937
:10283000084227D0FFE70A9800680490BDF81A0004
:1028400080000F218140049A22EA01010491059938
:1028500001FA00F00499084304900998282804D14B
:10286000FFE707980A99486108E00998482804D1C9
:10287000FFE707980A990861FFE7FFE704980A99BC
:102880000860FFE7FFE7BDF81A000130ADF81A0055
:10289000C3E70820ADF81A00FFE7BDF81A000F28BB
:1028A0003AD8FFE7BDF81A00012101FA00F00799B4
:1028B00008422AD0FFE70A9840680490BDF81A0041
:1028C0006FF01F0101EB80000F218140049A22EA82
:1028D00001010491059901FA00F00499084304905C
:1028E0000998282804D1FFE707980A99486108E069
:1028F0000998482804D1FFE707980A990861FFE77B
:10290000FFE704980A994860FFE7FFE7BDF81A005F
:102910000130ADF81A00C0E70BB0B0BD85B00A4673
:10292000034603900291039880680299084201923D
:10293000009304D0FFE701208DF8130003E000208E
:102940008DF81300FFE79DF8130005B070470000F5
:1029500083B00A4603468DF80B008DF80A109DF8E7
:102960000B009DF80A1001F0030141EA8000C0B29B
:102970000192009303B070472DE9F0418AB000F056
:10298000F7FC40F2000EC4F2C83ECDF804E04FF070
:10299000000ECDF808E04DF20A70C3F62340039014
:1029A00041F26F20C3F603200490CDF814E04AF200
:1029B0000000C4F28C70069047F60040C4F6120086
:1029C00007904BF60040C4F2B17008900020C4F2AA
:1029D000FA30099007980899019A029BDDF80CC01B
:1029E000049C059D069E099F40F24808C2F200081B
:1029F000C8F82070C8F81460C8F81050C8F80C4027
:102A0000C8F808C0C8F80430C8F80020C8F81C107E
:102A1000C8F81800704600F0ADFD0AB0BDE8F081BE
:102A200080B586B000F096FE01F0F4F98DF817003D
:102A300040F26C00C2F20000007886460628CDF80D
:102A400008E000F2EB800299DFE801F004142A4B61
:102A500058B9D0009DF81700C007002809D0FFE73B
:102A600000F0F8F9002804D0FFE7012000F082FD13
:102A7000FFE7D4E09DF81700C007002803D1FFE767
:102A800000F034F9CBE000F0E5F9002804D1FFE7CD
:102A9000052000F06FFDC2E0022000F06BFDBEE0FB
:102AA00000F058FD9DF817E04FEACE7EBEF1000F12
:102AB00005D0FFE700F0CEF9002804D1FFE705209C
:102AC00000F058FDABE040F26C00C2F20000806AFA
:102AD0004FF49671FFF75CFD002801D0FFE7FFE798
:102AE0009DE09DF81700C007002804D1FFE70520EE
:102AF00000F040FD93E000F0FFF890E09DF8170033
:102B0000C00700280ED0FFE740F26C00C2F20000C0
:102B100090ED020A9FED431AB4EEC10AF1EE10FAED
:102B200004DAFFE7052000F025FDFFE740F26C0026
:102B3000C2F2000090ED030A9FED3B1A30EE010A4D
:102B40008DED040A9DED040AFFF7FAFDB7EE001AB9
:102B5000B4EEC10AF1EE10FA30DDFFE740F26C008E
:102B6000C2F20000006B0A21FFF712FD002825D0F9
:102B7000FFE79DED040A2DA0011DB5EEC00AF1EEA0
:102B800010FAB8BF084690ED000A8DED030A40F236
:102B90004800C2F2000090ED070A9DED031A30EEE6
:102BA000010A00F03BFB40F21800C2F2000000688E
:102BB00040F26C01C2F200010863FFE72FE040F22F
:102BC0006C00C2F20000C06A2821FFF7E1FC002877
:102BD0000BD0FFE70020019000F030FA019800F0E0
:102BE00029F8019800F0C6FCFFE718E000F0D6FBDA
:102BF0004FF0000E7046CDF800E000F01FFA00988C
:102C000000F018F840F24800C2F2000090ED060A09
:102C100000F004FB009801F071F8FFE7FFE706B051
:102C200080BD00BF0080AC43000030C200004843BC
:102C3000000048C380B584B001468DF80F0040F213
:102C40001C00C2F200000078C007002802911DD1CC
:102C5000FFE740F2046002F095F841F20000C4F290
:102C60000100102103224FF4006E01907346CDF84D
:102C700000E0FFF79FFD01980099FFF783FD40F208
:102C80001C00C2F2000001210170FFE740F21D00AC
:102C9000C2F20000007800F001009DF80F1001F072
:102CA0000101884201D1FFE71DE09DF80F0000F00F
:102CB000010040F21D01C2F200010870002809D095
:102CC000FFE741F20000C4F201004FF40061FFF79A
:102CD00065FD08E041F20000C4F201004FF400611C
:102CE000FFF750FDFFE704B080BD000080B506206F
:102CF00000F040FC80BD000080B586B040F26C0062
:102D0000C2F20000016A02900846FFF781FC0590BC
:102D10000298006A4FF44871FFF73AFC002804D08B
:102D2000FFE7052000F026FC8BE040F26C00C2F2C9
:102D3000000090ED030A9FED441A30EE010A019065
:102D4000FFF7FEFC8DED040A9DED040A019890ED5D
:102D5000061AB4EEC10AF1EE10FA0FDAFFE79DEDA4
:102D6000040A40F26C00C2F2000080ED060A40F254
:102D70004801C2F20001C9694161FFE79DED040A03
:102D8000B7EE001AB4EEC10AF1EE10FA10DCFFE75C
:102D900040F26C00C2F20000017F0131CAB201773B
:102DA000052A04D3FFE7042000F0E4FB49E006E035
:102DB00040F26C00C2F2000000210177FFE740F210
:102DC0006C00C2F20000406AFFF722FC052838D3ED
:102DD000FFE740F24800C2F2000090ED070A9FEDC5
:102DE0001B1A30EE010A8DED030A9DED030A9FEDDB
:102DF000181AB4EEC10AF1EE10FA04DAFFE7052062
:102E000000F0B8FB1DE09DED030A40F24800C2F25D
:102E10000000D0ED050A90ED061AFFF751FC8DED8C
:102E2000030A9DED030A00F0F9F940F21800C2F21E
:102E30000000006840F26C0EC2F2000ECEF82400D2
:102E4000FFE706B080BD00BF000030C20000C8C36D
:102E500000409C4740F26C00C2F2000090ED020A74
:102E60009FED041A0020B4EEC10AF1EE10FAA8BFDB
:102E7000012070470000B44380B588B001468DF84A
:102E80001F0042F60040C4F20100002206900591A6
:102E90001146049202F044FD06980499049A02F047
:102EA00099FB9DF81F00202110F0010F18BF102181
:102EB0000698049A03911146039A02F03BFB4FF0E7
:102EC0000100069902900846029902F021FC06983A
:102ED000029902F00BFCFFE742F60040C4F2010049
:102EE000012102F025FC002801D1FFE7F4E742F6BA
:102EF0000040C4F2010001210190009102F008FCA1
:102F000042F62440C4F201000021016001980099BA
:102F100002F006FD08B080BD80B594B00146139064
:102F2000139802684368806840F22C0CC2F2000CCF
:102F3000CCF80020CCF80430CCF808000491CDF88F
:102F40000CC001F0DBFA40F20B6001F01BFF02F055
:102F500035F90E900E9803990A68B0FBF2F001382B
:102F600040F2BC02C2F2000210600020ADF83C004A
:102F7000ADF83E00ADF8400012681192ADF848007F
:102F80008DF84A0042F60042C4F201020FA90290F5
:102F90001046019202F0E6FB01200A900420ADF8F1
:102FA0002C000298ADF82E00ADF83000ADF83200DC
:102FB000ADF834000AAA0198029902F049F960209C
:102FC0000199009008460299009A02F0B3FA01981C
:102FD0000299029A02F0FEFA08220198029902F080
:102FE00025FB4FF40060ADF814004FF480600690AC
:102FF0000298ADF82200039948680E99FEF798FCF4
:10300000ADF81C004FF48050ADF824000298ADF8E4
:103010001E00ADF8200005A9019802F0F5F801980E
:10302000009902F067FC019802F0E2F8019802F0C2
:1030300051FB029800F002F814B080BD80B584B056
:1030400001468DF80F009DF80F00C007002802917F
:1030500006D0FFE70120FFF70FFF00F013F80EE0A6
:1030600042F60040C4F2010000210190009102F0FC
:1030700057FC01980099009A02F0ACFAFFE704B0FF
:1030800080BD000080B586B042F60040C4F2010069
:1030900000210490039102F043FC602204980399FC
:1030A00002F048FA40F22C00C2F2000090ED020A51
:1030B000FFF7AEF9ADF81600BDF816200498039995
:1030C00002F088FA0120049902900846029902F061
:1030D0001FFB0498029902F009FBFFE742F600404B
:1030E000C4F20100012102F023FB002801D1FFE717
:1030F000F4E742F60040C4F2010001210190009182
:1031000002F006FB42F62440C4F2010000210160F7
:103110000198009902F004FC06B080BD80B586B02D
:1031200004A8B0EE401A80ED010A90ED010ADFED2F
:10313000120A9FED122A8DED021AB0EE421A01908A
:10314000FEF702FD019880ED000A90ED000A40F2C2
:103150002C0EC2F2000E8EED020AFFF759F9ADF8FF
:103160000E00BDF80E2042F60040C4F2010000211E
:1031700002F030FA06B080BD00000000A4707D3F70
:1031800080B586B00146059005980028019101D1CF
:10319000FFE741E002F012F804900498002801D102
:1031A000FFE739E004980599B0FBF1F0039003982C
:1031B000012803D8FFE702200390FFE70398B0F14E
:1031C000011F04D3FFE74FF480300390FFE703981B
:1031D000411E40F2BC02C2F2000211600499B1FB30
:1031E000F0F040F22C01C2F200010860106842F6D3
:1031F0002C42C4F20102106091ED020AFFF708F9B7
:10320000ADF80A00BDF80A2042F60040C4F2010001
:10321000002102F0DFF9FFE706B080BD80B584B081
:10322000B0EE401A8DED030A9DED030A40F248000E
:10323000C2F20000D0ED050A90ED062A8DED011ACC
:10324000B0EE421A0090FFF73BFA8DED020A9DEDB9
:10325000020A009880ED070ABCEEC00A10EE10EAE0
:103260007046FFF78DFF04B080BD000080B582B0CE
:1032700040F2A000C2F20000002141708170416064
:10328000DFED060A9FED060A8DED010A9DED011A9C
:10329000FFF7D6F901F03AFE02B080BD00A08C47DE
:1032A000007C124880B588B0B0EE401A8DED070A58
:1032B00040F2A000C2F200004FF49671C1609FED91
:1032C0002A0A9FED2A2A8DED040AB0EE420ADDEDAE
:1032D000040A8DED031AB0EE421A8DED022A019018
:1032E000FFF7AEF98DED060A9DED070ADDED040A44
:1032F0009DED021AFFF7A4F98DED050A0020019952
:10330000887048609DED060A81ED040A05984861C1
:10331000C86800280AD0FFE79DED060A9DED051A52
:10332000B4EE410AF1EE10FA0BD1FFE740F2A00033
:10333000C2F20000002141709DED050A01F0E6FD9A
:1033400010E040F2A000C2F200000121417040F202
:103350001801C2F20001096881609DED060A01F0C2
:10336000D5FDFFE708B080BD00A08C47007C124867
:1033700080B540F2A000C2F200000078C00700282B
:103380000AD1FFE700F01AF840F2A00EC2F2000ED8
:1033900001208EF80000FFE780BD000080B540F2FC
:1033A000A000C2F200000078C007002801D1FFE7AA
:1033B00002E0FFF75BFFFFE780BD000080B584B04F
:1033C00040F2A000C2F20000002141708170416013
:1033D00081604FF49671C1609FED110A9FED111A43
:1033E0008DED030AB0EE410ADDED030A8DED021A00
:1033F0000190FFF725F9019880ED040A9FED0A0A74
:10340000DDED030A9DED021AFFF71AF9019880ED30
:10341000050A90ED040A01F079FD04B080BD00BFFB
:1034200000A08C47007C124800BCB14780B582B038
:10343000B0EE401A8DED010A40F2A000C2F2000089
:103440000078C00700288DED001A03D1FFE7FFF7D1
:103450008FFFFFE79DED010AFFF724FF02B080BD5B
:1034600080B586B040F2A000C2F200004078C007EC
:10347000002801D1FFE76AE040F2A000C2F200009C
:103480008078C007002809D0FFE740F2A000C2F210
:10349000000090ED060A01F039FD58E040F21800F6
:1034A000C2F20000006840F2A001C2F200018A6886
:1034B000C968801A0590059888420BD3FFE740F24F
:1034C000A000C2F200000021417090ED050A01F059
:1034D0001DFD3CE040F2A000C2F20000C0680028E0
:1034E00011D0FFE79DED050AB8EE400A40F2A000BA
:1034F000C2F2000090ED031AB8EE411A80EE010A04
:103500008DED010A04E0B7EE000A8DED010AFFE738
:103510009DED010A8DED040A9DED040AFEF7D6FF2C
:103520008DED030A40F2A00EC2F2000E9EED040AD9
:103530009EED051A31EE401A9DED032A01EE020AB6
:103540008DED020A9DED020A01F0E0FCFFE706B0F6
:1035500080BD000080B540F2A000C2F200000078FB
:10356000C007002803D1FFE7FFF702FFFFE7FFF7DF
:1035700077FF80BD80B588B001468DF81F0040F20E
:103580006C00C2F2000000789DF81F209042069166
:1035900001D1FFE7D7E09DF81F0040F26C01C2F2B5
:1035A0000001087040F21802C2F2000212684A607C
:1035B00001460628059100F2AE800599DFE801F08A
:1035C000043342587E94AA00FFF7E8FE4FF0000E45
:1035D0007046CDF810E0FFF731FD0498FFF72AFBA5
:1035E00040F24800C2F2000090ED060A80ED070AA2
:1035F00040F26C00C2F200004FF6FF7EC7F67F7EFD
:10360000C0F818E04CF6000EC4F2AF7EC0F814E02B
:10361000DDF810E080F81CE0C0F828E0C0F82CE0ED
:10362000C0F830E08FE00120FFF704FB0020FFF737
:1036300005FD40F24800C2F20000D0F818E0C0F8E2
:103640001CE080E040F21800C2F20000006840F286
:103650006C01C2F20001886201200390FFF7EAFAD0
:103660000398FFF7EBFC9FED3A0AFFF7DFFE6AE0F5
:103670000120FFF7DFFA40F26C00C2F200004FF6C3
:10368000FF7EC7F67F7EC0F818E04CF6000EC4F24D
:10369000AF7EC0F814E04FF0000E80F81CE040F25E
:1036A000180EC2F2000EDEF800100162DEF8001003
:1036B00041629FED260AFFF7B1FD44E00120FFF7CC
:1036C000B9FA40F26C00C2F2000090ED050A0290D7
:1036D000FFF7A4FD40F21800C2F200000068DDF818
:1036E00008E0CEF830002EE040F21800C2F20000F0
:1036F000006840F26C01C2F20001C8620120FFF7CD
:1037000099FA40F24800C2F2000090ED060AFFF775
:1037100085FD18E017E0FFF741FE4FF0000E704600
:10372000CDF804E000F0EAFA0198FFF787FC019871
:10373000FFF780FA40F24800C2F2000090ED060A5E
:10374000FFF76CFDFFE708B080BD00BF00C8AF47C2
:1037500000BCB14780B582B040F20E00C2F200005A
:1037600001889FED130ADFED130A01900846FEF76A
:10377000A3FA40F26C00C2F2000080ED030A019946
:10378000B1F802E000907046FEF768FA009880ED0C
:10379000040A00F089FA009880ED020AC16840F23C
:1037A000480EC2F2000ECEF8041002B080BD00BF79
:1037B0000050434800401C4680B58AB00020099064
:1037C000FDF756F84FF4A06000F030F94FF4613087
:1037D0000390FEF7EBFA46F6E210C0F600000399FC
:1037E000FEF7CCFA029001F07FFC46F6C400C0F66A
:1037F00000000168D0F804E080680890CDF81CE073
:10380000069106A8FFF788FBB6EE000A00F084F9DF
:103810004FF40020FDF70EFEFDF71AFEFDF7FAFA51
:1038200000F0C4FE00F0F8FE002808D1FFE700F029
:1038300001FF002803D0FFE700F0ACFEFFE700F037
:1038400019FF8DF81700FDF74BFF8DF816009DF856
:103850001700C007002806D0FFE79DF81600C00734
:1038600000280AD1FFE746F6B110C0F60000FEF7C7
:1038700085FA0190FFE700BFFDE700F09FFAFFF730
:103880007BF84FF47A70FEF787FB00F011FAFFE740
:103890000020049072B640F23800C2F200000068C6
:1038A000002809D0FFE740F23800C2F200000168AA
:1038B000049100210160FFE762B6FFE70498411E12
:1038C0000491002815D0FFE7FEF7BEF9DDF810E0FF
:1038D000BEF1060F0CD3FFE7049840F20811C2F2C4
:1038E00000010A6810440538086005200490FFE7CD
:1038F000E4E7CDE780B587B013468C4686468DF861
:103900001B008DF81A108DF81920002005900490E6
:1039100003904EF60C50CEF20000006800F4E06018
:10392000B0F5E06F0293CDF804C0CDF800E005D10A
:10393000FFE7002004900420039043E04EF60C5073
:10394000CEF20000006800F4E060B0F5C06F05D171
:10395000FFE7012004900320039032E04EF60C5064
:10396000CEF20000006800F4E060B0F5A06F04D172
:10397000FFE702200490039022E04EF60C50CEF2B6
:103980000000006800F4E060B0F5806F05D1FFE74B
:10399000032004900120039011E04EF60C50CEF26B
:1039A0000000006800F4E060B0F5407F05D1FFE75B
:1039B000042004900020039000E0FFE7FFE7FFE70A
:1039C000FFE7FFE79DF81A000499C1F10401884060
:1039D00005909DF819000399C1F104010F2222FA04
:1039E00001F10840059908430590059800010590EC
:1039F00005989DF81B104EF20042CEF2000288544A
:103A00009DF81B0000F01F01012202FA01F14EF2A5
:103A10000012CEF2000242EAD0004EF21C12CEF2A8
:103A200000021040016007B080BD000082B0014676
:103A3000019001980022C0F2FA5210434EF60C5247
:103A4000CEF200021060009102B0704780B590B0D5
:103A500001460F900F980028059101D1FFE759E02A
:103A600040F2036001F08EF940F60040C4F201001C
:103A7000182103224FF0010E7346CDF810E0FEF737
:103A800099FE40F2017001F07DF901F01FFE0A90ED
:103A90000A980F99B0FBF1F0013840F2C001C2F270
:103AA000000108600020ADF82C00ADF82E00ADF844
:103AB000300009680D91ADF838008DF83A0040F2F9
:103AC0000041C4F200010BAA03900846029111467E
:103AD00001F048FE049806900399ADF81E10ADF869
:103AE0002210022206AB0298114601921A4601F0FA
:103AF000AFFB60220298019901F01CFD0298019928
:103B0000039A01F067FD029801F072FB029801F040
:103B1000E1FDFFE710B080BD80B582B0B0EE401A85
:103B20008DED010A9DED010ADFED120A9FED122ACB
:103B30008DED001AB0EE421AFEF746F88DED010A3F
:103B40009DED010A40F2C00EC2F2000E9EED001A79
:103B5000B8EE411A20EE010ABDEEC00A10EE10EADE
:103B600040F20040C4F200000221724601F032FD32
:103B700002B080BD00000000A4707D3F80B582B01F
:103B800000F032F8002809D0FFE740F2C400C2F28A
:103B90000000002101628DF8071020E040F2C4000F
:103BA000C2F20000006A00280ED1FFE740F21800C0
:103BB000C2F20000006840F2C401C2F200010862D3
:103BC00000208DF807000AE040F2C400C2F20000B5
:103BD000006AC821FEF7B4FC8DF80700FFE79DF8E6
:103BE000070002B080BD000082B040F2C400C2F203
:103BF0000000406B01909DED010A00209FED0D1A21
:103C0000B4EEC10AF1EE10FA00900DDBFFE79DED76
:103C1000010A9FED091A0020B4EEC10AF1EE10FA74
:103C2000D8BF01200090FFE7009800F0010002B02B
:103C3000704700BF0000AA420080854380B582B073
:103C4000FFF7D2FF002809D1FFE740F2C400C2F21B
:103C500000000021C1618DF8071020E040F2C4008F
:103C6000C2F20000C06900280ED1FFE740F2180040
:103C7000C2F20000006840F2C401C2F20001C86153
:103C800000208DF807000AE040F2C400C2F20000F4
:103C9000C069C821FEF754FC8DF80700FFE79DF8C6
:103CA000070002B080BD000080B500F013F880BDB1
:103CB00040F2C400C2F20000012101720078002825
:103CC00007D1FFE740F2C400C2F200000021C1604A
:103CD000FFE7704740F2C400C2F2000090ED0F0A07
:103CE0007047000080B582B001460190009100F05D
:103CF0009BF8032000F076F902B080BD80B582B059
:103D000001468DF8070040F21E00C2F20000007864
:103D1000012222EA00008DF806009DF80600C00787
:103D20000028009115D0FFE740F2046001F02AF866
:103D300041F20000C4F20100102103224FF480631D
:103D4000FEF738FD40F21E00C2F2000001210170B2
:103D5000FFE79DF80600C00700280FD1FFE740F2FB
:103D60001F00C2F20000007800F001009DF807106B
:103D700001F00101884201D1FFE71DE09DF8070035
:103D800000F0010040F21F01C2F20001087000289B
:103D900009D0FFE741F20000C4F201004FF4806156
:103DA000FEF7FCFC08E041F20000C4F201004FF411
:103DB0008061FEF7E7FCFFE702B080BD80B596B0FA
:103DC00005A8442104900391FCF718FA00208DF80F
:103DD000140040F2C401C2F2000102900846DDF86E
:103DE00010E001917146039AFCF7EFF944F6206068
:103DF000FFF72CFE9FED060AFFF78EFEFDF70AF88F
:103E000002980199087000F00FF816B080BD00BF4D
:103E10000000000040F2C400C2F200000078023846
:103E2000B0FA80F04009704780B582B09FED0B0A70
:103E300000F016F84FF0000E7046CDF804E0FFF7E2
:103E40005DFF40F2C400C2F20000DDF804E080F83B
:103E500031E0C0F810E002B080BD00BF00000000FB
:103E600080B582B0B0EE401A8DED010A9DED010AD9
:103E7000B5EEC00AF1EE10FA8DED001A03DCFFE793
:103E800000200190FFE79DED010AFFF745FE02B01B
:103E900080BD000040F2C400C2F200000021C160F9
:103EA000416101617047000080B588B003200621A0
:103EB0000291FDF755F840F2C401C2F20001A1F8E9
:103EC00042000120DDF808E001917146FDF748F855
:103ED0000199A1F84000B1F840009FED3D0AFDF7BF
:103EE000FFFC9FED3C1A30EE010A8DED070A0198A8
:103EF000B0F842009FED380AFDF7F2FC8DED060A9E
:103F00009DED070A019880ED0D0A0699C163002115
:103F10008DF81710416B04919DED040AB2EE041A5E
:103F2000B4EEC10AF1EE10FA1ADDFFE79DED040AC6
:103F30009FED2A1A20EE010A9FED291A20EE010AB0
:103F40008DED030A9DED060A9DED031A0020B4EEE7
:103F5000C10AF1EE10FAA8BF01208DF81700FFE7A3
:103F60009DF81700C007002827D0FFE740F2C400E3
:103F7000C2F20000406A00280BD1FFE740F21800AF
:103F8000C2F20000006840F2C401C2F200014862BF
:103F9000FFE740F2C400C2F20000406A3221FEF79F
:103FA000CFFA002808D0FFE740F2C400C2F20000B8
:103FB000012180F82810FFE708E040F2C400C2F2B7
:103FC00000000021416280F82810FFE708B080BDA2
:103FD00071FDB84366664E415C0F2F43F4FDB43F5C
:103FE0003333733F80B582B001468DF8070040F24D
:103FF000C400C2F2000000789DF8072090420091B2
:1040000001D1FFE752E09DF8070040F2C401C2F27F
:104010000001087040F21802C2F2000212684A6001
:1040200000280ED1FFE740F2C400C2F200000021D8
:10403000C16041618161016280F83010FFF7F4FED8
:1040400034E09DF80700012809D1FFE740F2C400E1
:10405000C2F20000002141618161016225E09DF80A
:104060000700022808D1FFE740F2C400C2F20000B6
:1040700000218161016217E09DF80700032812D139
:10408000FFE740F21800C2F20000006840F2C401ED
:10409000C2F20001C86201204872002081F830009D
:1040A000FFF7C2FEFFE7FFE7FFE7FFE702B080BDD3
:1040B00080B58AB009A80790FFF7F6FE40F2C40069
:1040C000C2F20000C06B0990079890ED000A9FEDC6
:1040D000D41AB4EEC10AF1EE10FA07DBFFE746F698
:1040E0003720C0F60000FFF7FDFDFCE140F2C40000
:1040F000C2F20000007801460328069100F2ED812B
:104100000699DFE811F0040082002D01A20140F2BF
:10411000C400C2F20000007AC00700280ED1FFE7F9
:10412000FFF782FE40F2C40EC2F2000E0020CEF86D
:104130000C00CEF81400CEF81C00D4E1FFF77EFD91
:10414000002805D1FFE7FFF76FFEFFF7A3FECAE1E6
:1041500040F2C400C2F2000090F83100C00700280D
:104160000FD1FFE740F2C400C2F2000090F828002F
:10417000C007002805D1FFE7FFF756FEFFF78AFECC
:10418000B1E140F2C400C2F20000C06800280BD1C7
:10419000FFE740F21800C2F20000006840F2C401DC
:1041A000C2F20001C860FFE740F2C400C2F20000A2
:1041B00090F83100C007002826D1FFE740F2C40084
:1041C000C2F20000C0684FF47A71FEF7B9F9002816
:1041D0001AD0FFE701200590FFF790FD40F2C400E0
:1041E000C2F20000DDF814E080F831E040F218017E
:1041F000C2F20001096801619FEDBC0AFFF730FEC1
:104200000598FFF7EFFEFFE76DE140F2C400C2F250
:104210000000007AC007002804D1FFE70020FFF764
:10422000E1FE60E1FFF7AAFC002804D0FFE70020D0
:10423000FFF7D8FE57E140F2C400C2F2000090F848
:104240003100C007002813D1FFE701200490FFF7D9
:1042500055FD40F2C400C2F20000DDF810E080F825
:1042600031E040F21801C2F2000109680161FFE784
:104270009FED9E0AFFF7F4FD40F2C40EC2F2000E5D
:10428000DEF810006421FEF75BF9002807D1FFE794
:1042900040F2C400C2F200000021416123E107980E
:1042A00090ED000A00219FED931AB4EEC10AF1EEE1
:1042B00010FA03910EDBFFE7079890ED000A9FEDDF
:1042C0008E1A0021B4EEC10AF1EE10FAD8BF012116
:1042D0000391FFE7039800F001008DF823009DF89B
:1042E0002300C007002824D0FFE740F2C400C2F238
:1042F0000000406900280BD1FFE740F21800C2F22D
:104300000000006840F2C401C2F2000148610FE001
:1043100040F2C400C2F2000040695021FEF710F9DB
:10432000002804D0FFE70220FFF75CFEFFE7FFE76D
:1043300015E040F2C400C2F20000002141610069B2
:104340004FF44871FEF7FCF8002807D0FFE746F667
:104350002D20C0F60000FFF7C5FCFFE7FFE7C2E035
:1043600040F2C400C2F20000007AC007002804D165
:10437000FFE70020FFF736FEB5E0FFF7FFFB002860
:1043800004D0FFE70020FFF72DFEACE040F2C400B0
:10439000C2F2000090F83100C007002816D1FFE7F4
:1043A00001200290FFF7AAFC40F2C400C2F2000014
:1043B000DDF808E080F831E040F21801C2F20001B7
:1043C00009680161002141618161FFE79FED470AB2
:1043D000FFF746FDDDF81CE09EED000A9FED441A54
:1043E000B4EEC10AF1EE10FA07DBFFE740F2C400B9
:1043F000C2F200000021816126E040F2C400C2F256
:104400000000806900280DD1FFE740F21800C2F2D9
:104410000000006840F2C401C2F20001886112E0AD
:104420000000E14340F2C400C2F2000080694FF492
:104430009671FEF785F8002804D0FFE70020FFF70B
:10444000D1FD50E0FFE7FFE74DE0FFF7EDFC00F0A6
:10445000E3F8002801D0FFE745E040F2C400C2F2D3
:104460000000007AC00700280DD1FFE7002001906E
:10447000FFF7B8FD40F2C400C2F20000DDF804E02E
:1044800080F830E02FE040F2C400C2F20000C06AC1
:104490004FF4FA61FEF754F800281DD0FFE700F052
:1044A000C9F8002803D0FFE700F074F8FFE740F2F6
:1044B000C400C2F2000090F83000002808D1FFE7E5
:1044C00040F2C400C2F20000012180F83010FFE782
:1044D0000020FFF787FDFFE705E0FFF7A5FC0320BD
:1044E000FFF780FDFFE70AB080BD00BF00000000BD
:1044F0000080C0430000C8430000DC4380B588B0A2
:1045000040F2026000F03EFC40F2036000F03AFC32
:1045100040F60000C4F201004FF0100E03214FF4EA
:104520008072079006917146069B05921A46059B7C
:10453000CDF810E0FEF73EF907980599FEF722F94D
:1045400040F60040C4F201004FF400510390049A79
:1045500002911146069A029BFEF72CF903980299E4
:10456000FEF710F918200799019008460199069A5C
:10457000059BFEF71FF903980199069A029BFEF727
:1045800019F948214FF480530398069AFEF712F95F
:1045900008B080BD40F23C00C2F200000021017072
:1045A00040F23D00C2F200000170704780B584B057
:1045B00040F2046000F0E6FB40F2036000F0E2FB32
:1045C0004FF4C06000F0DEFB40F60040C4F2010092
:1045D000042103224FF48053FEF7ECF842F600402A
:1045E000C4F2010080210390029101F051F91820DA
:1045F00000210191019AFFF77DF90398029901F0DA
:1046000037F900F009F8002803D0FFE700F01CF8A4
:10461000FFE704B080BD000080B540F60040C4F262
:1046200001004FF48051FEF779F9B0FA80F04009AB
:1046300080BD000040F23C00C2F20000007800287B
:1046400018BF01207047000080B540F23C00C2F264
:10465000000001210170FFF7DFFF002818BF0120D3
:1046600040F23D01C2F2000108704FF00000FEF779
:10467000E5FC80BD80B584B0FFF7CEFF00280CD0EC
:10468000FFE746F6FF00C0F60000FDF777FB4FF0AE
:10469000000E8DF80FE0029016E0FFF7CBFF002828
:1046A0000AD0FFE746F60720C0F60000FDF766FBDC
:1046B0000190FFF76FFFFFE7FFF7AEFFB0FA80F062
:1046C00040098DF80F00FFE79DF80F0004B080BD92
:1046D00085B00146049041F20400C4F20200006873
:1046E0000390039843F6FF72CEF6FF7210400390DA
:1046F00041F22C00C4F2020000680290029820F0FF
:104700000050029004980428019100900ED3FFE716
:104710000098052810D0FFE7009807280CD0FFE785
:104720000098A0F10801042912D31FE0049803990E
:1047300041EA803003901AE0049820F004000490CD
:104740000498039941EA803040F0805003900EE0D5
:10475000049820F00C0004900498039941EA8030FA
:104760000390029840F00050029000E0FFE70398A9
:1047700041F20401C4F202010860029841F22C01E6
:10478000C4F20201086005B07047000083B0014622
:10479000029041F20400C4F2020002680192019A00
:1047A00022F0F0020192019A029B1A4302600091EA
:1047B00003B0704783B00146029041F20400C4F296
:1047C000020002680192019A22F4E0620192019AC9
:1047D000029B1A430260009103B0704783B0014608
:1047E000029041F20400C4F2020002680192019AB0
:1047F00022F460520192019A029B1A4302600091D6
:1048000003B0704799B001468DF863000020169000
:1048100040F20672C0F608120A9240F20122C0F27B
:104820000342099208900790069205900492039023
:1048300041F20400C4F202000068C0F38100179046
:10484000179800280291019008D0FFE701980128ED
:104850000AD0FFE7019802280CD087E041F200203F
:10486000C0F27A00159087E041F20020C0F27A0091
:10487000159081E041F20400C4F20200006800F4E7
:10488000803011901198B0F5803F2CD1FFE741F2B4
:104890002C00C4F20200006800F0804010901098D4
:1048A000002806D1FFE741F20020C0F27A000D9007
:1048B00005E046F60040C0F2DC200D90FFE741F233
:1048C0000400C4F20200006800F400300F900F985A
:1048D000B0F5003F06D1FFE740F60010C0F23D0002
:1048E0000D90FFE705E040F60010C0F23D000D908E
:1048F000FFE741F20400C4F202000168C1F3834102
:104900000E91006810F0006F05D0FFE70E9840F0A0
:1049100010000E90FFE741F20400C4F202000068AC
:1049200010F0804F05D0FFE70E9840F020000E9069
:10493000FFE70E980E2804D8FFE70E9802300E907D
:104940000FE00E980F2808D3FFE70E983E2804D8F2
:10495000FFE70E9801300E9002E03F200E90FFE737
:10496000FFE70D980E994843159005E041F20020AD
:10497000C0F27A001590FFE741F20400C4F2020091
:104980000168C1F303110C910C9907AA515C0B91BA
:1049900015990B9AD14014910168C1F302210C9131
:1049A0000C9905AA515C0B9114990B9AD140139163
:1049B0000068C0F3C2200C900C9803A9085C0B900F
:1049C00014980B99C84012909DF863000146032883
:1049D000009110D80099DFE801F00205080B159846
:1049E000169009E01498169006E01398169003E0CC
:1049F0001298169000E0FFE7169819B07047000073
:104A000080B582B041F20000C4F20200016841F0BA
:104A10000101016000210190084600F06BF841F2AD
:104A20000401C4F20201D1F800E00C22C2F200023B
:104A300002EA0E020A6001990A684FF6FF7ECFF67D
:104A4000F66E02EA0E020A600A6822F480220A6008
:104A500041F20802C4F202024FF41F0EC2F800E055
:104A600041F22C02C4F20202D2F800E02EF0C04E55
:104A7000C2F800E0009002B080BD000082B00146A4
:104A8000ADF80400BDF80400800941F20002C4F250
:104A900002028058BDF8042002F01F02012303FA2D
:104AA00002F21042009104D0FFE701208DF80700C8
:104AB00003E000208DF80700FFE79DF8070002B033
:104AC0007047000082B00146ADF80600BDF8060050
:104AD00000F01F02012303FA02F2800941F20003F1
:104AE000C4F2020350F803C042EA0C02C250009123
:104AF00002B0704780B58CB00146ADF82E000020A2
:104B00000A908DF827008DF82600BDF82E00024689
:104B100000280891079274D0FFE70798102817D053
:104B2000FFE70798182800F0F880FFE70798B0F52E
:104B3000006F37D0FFE70798B0F5106F00F0BC802A
:104B4000FFE743F210000799814200F0848013E1EF
:104B5000FFE79DF8260000210028069109D1FFE714
:104B60000A98A0F50061B0F5006F18BF0121069109
:104B7000FFE70698C007002809D0FFE71120FFF7DC
:104B80007DFF8DF826000A9801300A90E1E7112098
:104B9000FFF774FF002804D0FFE701208DF82700FD
:104BA000FFE7EAE0FFE79DF82600002100280591D5
:104BB0000CD1FFE70A980121CFF6004101446FF0C4
:104BC0007C42904218BF01210591FFE70598C0077C
:104BD00000280AD0FFE740F60100FFF74FFF8DF8ED
:104BE00026000A9801300A90DDE740F60100FFF741
:104BF00045FF002804D0FFE701208DF82700FFE7DC
:104C0000BBE0FFE79DF8260000210028049109D1B0
:104C1000FFE70A98A0F5A061B0F5A06F18BF0121C9
:104C20000491FFE70498C007002809D0FFE701209E
:104C3000FFF724FF8DF826000A9801300A90E1E77B
:104C40000120FFF71BFF002804D0FFE701208DF8AB
:104C50002700FFE791E0FFE79DF8260000210028EC
:104C600003910ED1FFE70A980121CFF6F0710144BC
:104C70004FF6FF72C0F20F02904218BF012103915C
:104C8000FFE70398C00700280AD0FFE743F21100AE
:104C9000FFF7F4FE8DF826000A9801300A90DBE752
:104CA00043F21100FFF7EAFE002804D0FFE70120DD
:104CB0008DF82700FFE760E0FFE79DF82600002160
:104CC000002802910ED1FFE70A980121CFF6F0717A
:104CD00001444FF6FF72C0F20F02904218BF01214B
:104CE0000291FFE70298C00700280AD0FFE740F6CC
:104CF0000110FFF7C3FE8DF826000A9801300A90D4
:104D0000DBE740F60110FFF7B9FE002804D0FFE70B
:104D100001208DF82700FFE72FE0FFE79DF8260030
:104D20000021002801910ED1FFE70A980121CFF65A
:104D3000F07101444FF6FF72C0F20F02904218BFAB
:104D400001210191FFE70198C007002809D0FFE782
:104D50001920FFF793FE8DF826000A9801300A907B
:104D6000DCE71920FFF78AFE002804D0FFE70120C6
:104D70008DF82700FFE700E0FFE79DF827000CB063
:104D800080BD000082B00146ADF80600BDF8060007
:104D900000F01F02012303FA02F2800941F200032E
:104DA000C4F2020350F803C042EA0C02C250009160
:104DB00002B0704782B00146ADF80600BDF80600AB
:104DC00000F01F02012303FA02F2800941F20003FE
:104DD000C4F2020350F803C02CEA0202C250009150
:104DE00002B0704782B00146ADF80600BDF806007B
:104DF00000F01F02012303FA02F2800941F20003CE
:104E0000C4F2020350F803C042EA0C02C2500091FF
:104E100002B0704785B00A46034604900391002013
:104E2000029041F20400C4F202000168029102996A
:104E30004FF6FF7CCBF2C27C01EA0C01029104998F
:104E4000DDF80CC041EA0C01DDF808C041EA0C01B4
:104E50000291029901600192009305B07047000031
:104E600083B0014602900020019041F22C00C4F270
:104E7000020002680192019A22F080420192029A95
:104E8000019B1A430192019A0260009103B070479E
:104E900083B0014602900020019041F20400C4F268
:104EA000020000680190019820F4003001900298FF
:104EB0000128009105D1FFE7019840F400300190EE
:104EC000FFE7019841F20401C4F20201086003B057
:104ED0007047000083B00146029041F20400C4F222
:104EE000020002680192019A22F003020192019AE3
:104EF000029B1A430260009103B0704741F2040024
:104F0000C4F20200006800F00C00704780B584B065
:104F1000B0EE401A8DED030A9DED030ADFED100A95
:104F20009FED102A8DED011AB0EE421AFDF788FBB5
:104F30008DED020A9DED020A40F2A00EC2F2000EB3
:104F40008EED060ABCEEC00A10EE10EA7046FEF7BF
:104F500017F9B6EE000AFEF7E1F804B080BD00BF15
:104F600000A08C47007C124883B000200290019082
:104F700041F20000C4F20200016841F48031016096
:104F8000FFE702980130029041F20000C4F20200F3
:104F9000006800F400300190FFE70198002100282C
:104FA000009109D1FFE70298A0F50061B0F5006F0C
:104FB00018BF01210091FFE70098C0070028E0D149
:104FC000FFE741F20000C4F20200006810F4003F65
:104FD00002D1FFE7FFE7FEE741F21C00C4F2020046
:104FE000016841F08051016047F20000C4F2000006
:104FF000016841F44041016041F20400C4F2020042
:105000000168016001680160016841F4806101602C
:10501000016821F440310160016841F440310160D0
:1050200001684FF6FF72CBF2C37211400160016854
:105030000022C0F634021143016041F20000C4F2C4
:105040000200016841F080710160FFE741F2000059
:10505000C4F20200006810F0007F01D1FFE7F5E71D
:1050600047F20000C4F20000016841F480310160A1
:10507000FFE747F20400C4F20000006810F4803F2C
:1050800001D1FFE7F5E747F20000C4F20000016834
:1050900041F400310160FFE747F20400C4F2000070
:1050A000006810F4003F01D1FFE7F5E741F204008A
:1050B000C4F20200016821F003010160016841F0BF
:1050C00002010160FFE741F20400C4F2020000683F
:1050D00010F0080F01D1FFE7F5E703B070470000BB
:1050E00080B5FFF741FF80BD80B584B0FBF7DCFBE6
:1050F00040F2040EC2F2000EDEF800E044F6D35097
:10510000C1F26200AEFB000E4FEA9E1ECDF80CE02D
:10511000DDF80CE0BEF1000F029005D0FFE7039828
:10512000B0F1807F01D3FFE7FFE7039801380390D8
:105130000398B0F1807F04D3FFE76FF07F400390C6
:10514000FFE74EF21000CEF2000000210160039A4A
:105150004EF21403CEF200031A604EF21802CEF2A1
:1051600000021160022201901046FDF7F1FB4FF0A2
:10517000FF31009008460099FBF708FD07200199D0
:10518000086004B080BD000080B582B00220FFF747
:1051900039FB019041F20400C4F20200006810F4EF
:1051A000E06F04D0FFE701984000009002E0019812
:1051B0000090FFE7009802B080BD000080B582B08B
:1051C0000320FFF71FFB019041F20400C4F202002C
:1051D000006810F4605F04D0FFE701984000009081
:1051E00002E001980090FFE7009802B080BD000047
:1051F00082B0014601900198026842F0800202608C
:10520000009102B07047000084B00A460346039044
:10521000029102980188D0F804C041EA0C01B0F86C
:1052200008C041EA0C01B0F80AC041EA0C01B0F82C
:105230000CC041EA0C01B0F80EC041EA0C01008A32
:105240000843039948640192009304B0704700003A
:1052500080B587B013468C4686460690ADF816108A
:105260000492BDF81600014603280393CDF808C048
:10527000CDF804E0009100F259810099DFE811F0C7
:1052800004005D00BC001B010698016A21F00101C9
:1052900001620498006806990A6A10430862069839
:1052A000016A21F0020101620498C08806990A6A25
:1052B00010430862069842F60041C4F20101884298
:1052C00008D0FFE7069843F20041C4F2010188428A
:1052D0002DD1FFE70698016A21F0040101620498CC
:1052E000808806990A6A104308620698016A21F0CC
:1052F000080101620498008906990A6A104308624D
:105300000698416821F480714160049840890699AB
:105310004A68104348600698416821F40071416072
:105320000498808906994A6810434860FFE7069808
:10533000816921F003018161F9E00698016A21F099
:10534000100101620498006806990A6A42EA001096
:1053500008620698016A21F0200101620498C08861
:1053600006990A6A42EA00100862069842F600416D
:10537000C4F20101884208D0FFE7069843F20041D9
:10538000C4F20101884231D1FFE70698016A21F099
:10539000400101620498808806990A6A42EA001076
:1053A00008620698016A21F0800101620498008970
:1053B00006990A6A42EA001008620698416821F4D8
:1053C000806141600498408906994A6842EA8000F9
:1053D00048600698416821F4006141600498808922
:1053E00006994A6842EA80004860FFE706988169AA
:1053F00021F4407181619AE00698016A21F480717C
:1054000001620498006806990A6A42EA002008626C
:105410000698016A21F4007101620498C088069917
:105420000A6A42EA00200862069842F60041C4F285
:105430000101884208D0FFE7069843F20041C4F218
:105440000101884231D1FFE70698016A21F48061A9
:1054500001620498808806990A6A42EA002008627C
:105460000698016A21F40061016204980089069996
:105470000A6A42EA002008620698416821F48051D5
:1054800041600498408906994A6842EA00104860E1
:105490000698416821F4005141600498808906997A
:1054A0004A6842EA00104860FFE70698C16921F0A7
:1054B0000301C1613BE00698016A21F48051016259
:1054C0000498006806990A6A42EA00300862069861
:1054D000016A21F4005101620498C08806990A6AA1
:1054E00042EA00300862069842F60041C4F2010127
:1054F000884208D0FFE7069843F20041C4F2010158
:1055000088420DD1FFE70698416821F4804141604F
:105510000498408906994A6842EA80104860FFE78B
:105520000698C16921F44071C16100E0FFE707B04E
:1055300080BD000080B586B013468C468646059037
:10554000ADF81210ADF81020BDF812000146032886
:105550000393CDF808C0CDF804E0009136D8009947
:10556000DFE801F0020E1B270598816921F0700128
:105570008161BDF8100005998A691043886126E0B1
:105580000598816921F4E0418161BDF81000059919
:105590008A6942EA0020886119E00598C16921F012
:1055A0007001C161BDF810000599CA691043C86156
:1055B0000DE00598C16921F4E041C161BDF810001A
:1055C0000599CA6942EA0020C86100E0FFE706B019
:1055D00080BD000080B587B013468C468646069095
:1055E000ADF816100492BDF8160001460328039387
:1055F000CDF808C0CDF804E0009114D80099DFE898
:1056000001F002060A0E0498069948630CE004981B
:105610000699886308E004980699C86304E0049832
:105620000699086400E0FFE707B080BD80B586B04A
:1056300013468C4686460590ADF81210ADF8102042
:10564000BDF81200014603280393CDF808C0CDF839
:1056500004E0009136D80099DFE801F0020E1B2724
:105660000598816921F008018161BDF81000059954
:105670008A691043886126E00598816921F40061F8
:105680008161BDF8100005998A6942EA00208861AD
:1056900019E00598C16921F00801C161BDF8100049
:1056A0000599CA691043C8610DE00598C16921F4E4
:1056B0000061C161BDF810000599CA6942EA002085
:1056C000C86100E0FFE706B080BD000080B5FFF7CD
:1056D0005BFD80BD82B0014601900198026842F0F6
:1056E00001020260009102B07047000084B00A46D7
:1056F00003460390ADF80A10BDF80A000399D1F8EB
:1057000014C040EA0C0048610192009304B0704755
:1057100084B00A4603460390029102980399D1F897
:1057200010C02CEA000008610192009304B0704799
:1057300085B00A46034603900291039800690299D6
:1057400008420192009304D0FFE701208DF8130076
:1057500003E000208DF81300FFE79DF8130005B06B
:105760007047000084B00A460346039002910298F5
:10577000008803998862039842F60041C4F201014F
:1057800088420192009325D0FFE70398B0F1804F43
:1057900020D0FFE7039840F20041C4F200018842A4
:1057A00018D0FFE7039840F60001C4F200018842D8
:1057B00010D0FFE7039840F60041C4F20001884290
:1057C00008D0FFE7039843F20041C4F20101884288
:1057D00012D1FFE70398016821F07001016002987F
:1057E000408803990A6810430860029880880399EA
:1057F0000A6810430860FFE7029880680399C8624E
:10580000039841F20001C4F20001884214D0FFE77E
:10581000039841F20041C4F2000188420CD0FFE736
:105820000398016821F4407101600298808903990E
:105830000A6810430860FFE7039842F60041C4F28B
:105840000101884208D0FFE7039843F20041C4F207
:105850000101884205D1FFE70298807B0399086324
:10586000FFE70398416941F00101416104B07047CD
:1058700084B00A4603460390029102980399D1F836
:105880000CC040EA0C00C8600192009304B070475D
:1058900084B00A4603460390029102980399D1F816
:1058A00010C02CEA000008610192009304B0704718
:1058B00086B00A460346049003910498C068039991
:1058C00008400290049800690399084201920093ED
:1058D00008D0FFE70298002804D0FFE701208DF8E8
:1058E000170003E000208DF81700FFE79DF8170070
:1058F00006B0704784B00A460346039002910398AD
:10590000416821F07001416002980399D1F804C008
:1059100040EA0C0048600192009304B07047000018
:1059200084B00A46034603908DF80B109DF80B00D7
:1059300001280192009306D1FFE70398416C41F4DE
:105940000041416405E00398416C21F40041416449
:10595000FFE704B07047000080B58AB00A460346EE
:1059600009900891002007900690059004900998EE
:1059700044F20041C4F20001884203920293019074
:1059800025D0FFE744F60000C4F2000001998142EF
:1059900022D0FFE744F60040C4F2000001998142A2
:1059A0001FD0FFE745F20000C4F2000001998142D8
:1059B0001CD0FFE743F60000C4F2010001998142C8
:1059C00019D1FFE70320FEF71DFF079014E0022026
:1059D000FEF718FF07900FE00220FEF713FF079075
:1059E0000AE00220FEF70EFF079005E00220FEF716
:1059F00009FF079000E0FFE70798089900EB5100C6
:105A0000B0FBF1F0049004984FF6F071014006915C
:105A100000F00F00059006980599084380B2099997
:105A20008A68104388600AB080BD000084B00A46CE
:105A300003460390029102986FF35F200399486038
:105A40000192009304B0704780B588B0014607907A
:105A5000079844F20042C4F2000290420691059079
:105A600029D0FFE744F60000C4F200000599814206
:105A70002AD0FFE744F60040C4F2000005998142B5
:105A80002BD0FFE745F20000C4F2000005998142E7
:105A90002CD0FFE743F60000C4F2010005998142D3
:105AA0002DD1FFE740F20E300490FFF79BF90498E8
:105AB000FFF780F924E040F211400390FFF792F9DC
:105AC0000398FFF777F91BE040F212400290FFF7CE
:105AD00089F90298FFF76EF912E040F21340019045
