:020000040800F2
:1000000008050020450100080D0800089F070008AA
:100010000B0800083D070008450A00080000000022
:1000200000000000000000000000000011080008AF
:100030009D070008000000000F08000815080008D0
:100040005F0100085F0100085F0100085F01000810
:100050005F0100085F0100085F0100085F01000800
:100060005F0100085F0100085F0100084107000808
:100070005F0100085F0100085F0100085F010008E0
:100080005F0100085F0100085F0100085F010008D0
:100090005F0100085F0100085F0100085F010008C0
:1000A000B10900085F0100085F0100085F01000856
:1000B0005F0100085F0100085F0100085F010008A0
:1000C0005F0100085F0100085F0100085F01000890
:1000D0005F0100085F0100085F0100085F01000880
:1000E0005F0100085F0100085F0100085F01000870
:1000F0005F0100085F0100085F0100085F01000860
:100100005F0100085F0100085F0100085F0100084F
:100110005F0100085F010008D1090008090A000812
:100120005F0100085F0100085F0100085F0100082F
:10013000DFF80CD000F0F0FA00480047A11D0008DD
:10014000080500200648804706480047FEE7FEE70E
:10015000FEE7FEE7FEE7FEE7FEE7FEE7FEE7FEE777
:10016000AD080008310100082DE9F05F05460020C8
:1001700092469B4688460646814640241BE0284618
:1001800041464746224600F018FA53465A46C01ADE
:10019000914110D311461846224600F0FFF92D1A5E
:1001A00067EB01084F4622460120002100F0F6F9D6
:1001B00017EB00094E41201EA4F10104DFDC484684
:1001C00031462A464346BDE8F09FD2B201E000F82E
:1001D000012B491EFBD270470022F6E710B51346EB
:1001E0000A4604461946FFF7F0FF204610BD2DE9E8
:1001F000FE4F804681EA0300C00F0C46009021F0BC
:10020000004123F00045B8EB0200A94105D2404669
:10021000214690461C460B46024623F00040104300
:1002200047D0270DC7F30A00C3F30A510290401AC2
:10023000019040286BDAC3F3130040F4801B009850
:10024000924620B10023D2EB030A63EB0B0B01981B
:100250005946C0F14002504600F0A0F906460D464E
:1002600050465946019A00F0B8F910EB0800614178
:10027000002487EA115284EAE7731A4340D0009AB7
:1002800062B3019A012A4FEA075215DC001B61EBA9
:1002900002014FF0004202EA0752CDE90042001C81
:1002A00041F5801132462B4600F0B8F903B0BDE8A5
:1002B000F08F40462146F9E7001B61EB0201001C6C
:1002C00041F5801300185B412018A2F5001747EB99
:1002D000030140EAD570B6196D4111E06D084FEA8F
:1002E000360645EAC0754FEA0752001B61EB020172
:1002F000001C41F5801149084FEA300000195141B6
:1003000032462B4603B0BDE8F04F00F078B90098B4
:10031000012240000023D0EB020263EBE07300985F
:1003200021464FEAE074B8EB000061EB0401E9E715
:1003300083F000435BE781F0004158E72DE9FE4F71
:1003400081EA030404F0004421F0004100944FF0DE
:10035000000B23F0004350EA01045ED052EA03048C
:100360005BD0C3F30A54C1F30A552C44A4F2F3340E
:100370000194A0FB0254C1F3130141F48011C3F3B3
:10038000130343F4801301FB024400FB034E840A71
:10039000970A44EA815447EA8357A4FB0768029509
:1003A0008D0A05FB07854FEA932C04FB0C542705A7
:1003B000029D4FEA065847EA1637B5EB08056EEB83
:1003C000070C870E920E47EA811742EA8312A7FBB9
:1003D0000201B6EB0B0164EB00042B0D43EA0C3376
:1003E0005E1844EB1C50DA465146E7FB0201C5F3A8
:1003F00013044FEA0B3343EA14534FEA0432019CCF
:1004000043EA0603A4F10C040294009CCDE900B475
:1004100000F004F903B0BDE8F08F00200146F9E7D1
:100420002DE9F04D81EA030404F0004B21F0004572
:1004300014464FF0000A23F0004150EA050220D094
:1004400054EA01021DD0C5F30A570246C5F313034F
:10045000C1F31300C1F30A5640F4801543F480132E
:10046000A7EB0608101BD64608F2FD3873EB050013
:1004700002D308F1010801E092185B41B8F1000FC6
:1004800003DA00200146BDE8F08D00204FF4801112
:10049000064684460EE0171B73EB050705D3121BB7
:1004A00063EB050306434CEA010C49084FEA3000B0
:1004B00092185B4150EA0107EDD152EA030012D0D5
:1004C00082EA040083EA0501084305D0101BAB4112
:1004D00006D20122002306E000224FF0004302E092
:1004E0006FF0010253101AEB06004CEB085110EBB1
:1004F0000A0041EB0B01BDE8F04D00F080B80EB5ED
:1005000040F2334102910021CDE900110A460B4629
:1005100000F084F803B000BDC1F30A5210B5C1F376
:10052000130140F2FF3341F480119A4201DA0020B6
:1005300010BD40F233439A42A2F2334203DC5242EE
:1005400000F03BF810BD904010BD00F0004230F0CC
:1005500000400AD0C10D01F56071C0F3160042EAF7
:100560000151C208400711437047002001467047FF
:1005700030B50B46014600202022012409E021FA73
:1005800002F59D4205D303FA02F5491B04FA02F570
:100590002844151EA2F10102F1DC30BD202A04DB43
:1005A000203A00FA02F1002070479140C2F1200386
:1005B00020FA03F3194390407047202A04DB203AC5
:1005C00021FA02F00021704721FA02F3D040C2F173
:1005D00020029140084319467047202A06DBCB17BA
:1005E000203A41FA02F043EAE07306E041FA02F3EE
:1005F000D040C2F12002914008431946704710B51F
:10060000141E73F1000408DA401C41F10001921835
:100610005B411A4301D120F0010010BD2DE9F04DDE
:1006200092469B4611B1B1FA81F202E0B0FA80F233
:1006300020329046FFF7B2FF04460F4640EA0A0018
:1006400041EA0B0153465A46084313D0114653EA78
:10065000010019D0C8F140025046FFF7AEFF054631
:100660000E46504659464246FFF798FF084305D0CC
:10067000012004E020463946BDE8F08D0020054306
:1006800046EAE0762C4337430A986305E40AA0EB78
:1006900008000022FD0A44EA47540A3002D500202F
:1006A0000146E9E7010510196941DDE9084500192E
:1006B0006941BDE8F04DA2E7C1F30A52C1F313014D
:1006C00040F2FF3341F480119A4202DA00200146E1
:1006D000704740F233439A42A2F2334202DC524264
:1006E000FFF76BBFFFF75ABF30B5041E71F100046E
:1006F00004DB4FF00044404264EB0101141E73F12F
:10070000000405DB1C464FF00043524263EB040338
:10071000994208BF904230BD064C074D06E0E068A4
:1007200040F0010394E8070098471034AC42F6D338
:10073000FFF702FD3C3B00085C3B0008FEE70000C1
:1007400010B5144C00210422204600F018FE48B1D8
:1007500020460021042200F00BFE0F484189418011
:100760008189818020460021022200F008FE48B1E4
:1007700020460021022200F0FBFD0748C18941808C
:10078000018A8180204600210122BDE8104000F04E
:10079000EFBD00BF00000240200000207047FEE7D0
:1007A00080B502F07DF8102002F0A8F8102002F0C9
:1007B000B1F8012818BF80BD022000F037FE0020EC
:1007C00001F0F4FF002002F001F84FF4806001F026
:1007D000F5FF002002F03EF9002002F045F94FF449
:1007E00080304FF4501102F02BF9182002F086F8F7
:1007F000192002F077F80028FAD0022002F03EF922
:1008000002F044F90028FBD080BDFEE77047704736
:100810007047000004480168013101600348016825
:1008200001310160704700BF9400002010000020DB
:100830005B491A4A086800F00C0008282AD110B554
:100840000B68174813F4803F0AD08B6A154C13F0DD
:10085000804F08BF14460A6812F4003F08BF2046C4
:100860000A680B681024C2F3834204EAD353096870
:100870001A4311F0804FBDE8104003D10E2A03D86F
:10088000911C05E042F02002511C3D2988BF3F2108
:1008900001FB00F204480260704700BF00127A00BA
:1008A00000093D00006CDC020000002010B53A4851
:1008B0004FF4D0323A4C3B4B016841F47001016077
:1008C0003649885840F00100885000202060A0621E
:1008D0008858184040F2FF7388504FF41F00606042
:1008E000885820F480208850885840F48030885000
:1008F000885823B110F40030A3F10103F8D04FF46D
:10090000D032885810F4003F00D1FEE7A069264B92
:1009100040F08050A061086840F4404008602068C2
:10092000206020682060206840F48060206020689B
:1009300020F440302060206840F44030206020687F
:1009400018401A4B2060206818432060885840F0F7
:1009500080708850885810F0007FFBD0086840F401
:1009600080300860486810F4803FFBD0086840F48D
:1009700000300860486810F4003FFBD0206820F089
:1009800003002060206840F002002060206810F022
:10099000080FFBD010BD00BF88ED00E000700040E4
:1009A00004100240FFFFF6FEFFFFC3B7000034084B
:1009B00010B5784C8021204602F0A3FA38B101F03E
:1009C000B3FE20468021BDE8104002F095BA10BD6C
:1009D00010B50C4C0121204602F093FA012803D1F6
:1009E0002046012102F088FA1548418801314180F2
:1009F00089B2142938BF10BD012101700021418046
:100A000010BD00BF0010004010B50C4C0121204665
:100A100002F077FA012803D12046012102F06CFA96
:100A2000074881880131818009B2B1F57A7FB8BF6A
:100A300010BD012141700021818010BD00140040D3
:100A400018000020FEE700002DE9F04385B0DFF834
:100A50004091044699F80000002840F08A80834FB6
:100A600040F20260B847824E0021032260233046E4
:100A700000F0EAFC4FF4A060B84706F57845002185
:100A8000284600F00BFC4FF4807004213A4A4FF4E2
:100A9000807304904FF400500291002103904FF4B2
:100AA000806001909E480A300090284600F012FCB9
:100AB0002846002100F0E2FB28460021022200F037
:100AC00047FC28460021042200F042FC2846002171
:100AD00001224FF0010800F04BFC0B200121002205
:100AE00001F0C4FA40F20960B847022001F02EFE7E
:100AF00006F5E056304600F04FF9002000F0C4F94A
:100B000030464FF48071012200F044FA3046022151
:100B1000002200F03FFA3046002100F033F9304661
:100B20000121022200F010F93046002105220423A1
:100B300000F0E3F9304601210622012300F0DDF93F
:100B400030460121224600F081F930460121012280
:100B500000F060F9304600F054F9304600F0E2F859
:100B6000304600F049F92846002100F077FB89F86B
:100B7000008005B0BDE8F0834C24014004480078B3
:100B8000012818BF70470348082102F05CB900BF74
:100B900088000020002C014070B5D04D2878002836
:100BA00062D1324E40F20260B04740F20460B0477A
:100BB0002F4C00210322302304F5006000F044FC98
:100BC0002046002103220A2300F03EFC40F20A6086
:100BD000B047022001F0BAFD04F50054204600F0B1
:100BE000DBF8002000F050F92046002100F0CAF8A0
:100BF00020464FF48071002200F0CCF920460221FB
:100C0000002200F0C7F920460121012200F09CF8E3
:100C1000204601214FF4602200F018F920460121FE
:100C2000012200F0F7F8204600F0EBF8114E40F2F8
:100C3000E9303168013802D011F00101F9D098B1E2
:100C4000012000F0FFFA204600F06CF80A483168F5
:100C5000013018BF11F00801F9D118B9306820F03F
:100C6000080030600120287070BD00BFF129000825
:100C70000008014008280140AF3CFFFFB0B5024624
:100C800096480B460078012833D1594C0021606802
:100C9000A5682068204600F030F92046022100F0C7
:100CA000E9F82046022100F0EAF818B120460221B6
:100CB00000F0E0F82046012100F05EF9680204D45B
:100CC0002046012100F058F9A0680B4D2046022172
:100CD00000F0D5F8013501D00028F7D04DB12046FD
:100CE00000F047F905462046022100F0C3F82846E7
:100CF000B0BD4FF6FF70B0BD5F79FEFFB0B5774D68
:100D00002878012818BFB0BD0E200521FFF7B6FFD7
:100D100004460F200521FFF7B1FFEC802881B0BD0C
:100D200020000020816841F008018160816811F095
:100D3000080FFBD1816841F004018160816811F0E6
:100D4000040FFBD170470000B0B5022907D001297C
:100D500018BFB0BD0A4D4FF470012C2303E0074DBE
:100D60004FF4401138231C5801EB0252114025402A
:100D70001D501D5829431950B0BD00BFFFFFCFFFC4
:100D8000FFFF0FFF8268002942F4006308BF22F4CE
:100D9000006383607047000080B51449884210D01A
:100DA0001349884217D01349884218BF80BD40F2CA
:100DB000093001F037FE40F20930BDE8804001F013
:100DC00023BE40F20F3001F02DFE40F20F30BDE89F
:100DD000804001F019BE40F20A3001F023FE40F2DB
:100DE0000A30BDE8804001F00FBE00BF003C01406A
:100DF0000028014000240140816841F48071816035
:100E00007047816811F0010F02BF816841F0010154
:100E10008160704701F0010352B11BB1826842F456
:100E20008012826089070FD5816841F400410AE091
:100E30001BB1826822F480128260890758BF704714
:100E4000816821F40041816070470000022904D0CC
:100E5000012918BF7047064900E00449836819401A
:100E60008160816811438160704700BFFF8FFFFF81
:100E7000FFFFF1FF026822EA01010160704700688C
:100E8000084018BF0120704704490A6822F4702204
:100E90000A600A6810430860704700BF04240140DC
:100EA00082B00E480E4B4188ADF806108188C2888A
:100EB000B0F808C0BDF806001880ADF80410BDF801
:100EC00004005880ADF80220BDF802009880ADF80B
:100ED00000C0BDF80000D88002B07047200000209C
:100EE0008A000020FFF7B0BDFFF708BF80B5FFF70D
:100EF00045FEBDE88040FFF74FBEB0B5052904D8D8
:100F000001EB810E00F1340C10E00B2906D801EB47
:100F1000810100F1300CA1F11E0E07E0102910D262
:100F200001EB810100F12C0CA1F13C0E1F24DCF837
:100F3000001002FA0EF504FA0EF4A1432943CCF88E
:100F40000010092A03D802EB4201103006E0112AF2
:100F500088BFB0BD02EB42010C301E3903FA01F22A
:100F6000072303FA01F1036823EA01011143016039
:100F7000B0BDC06C80B2704711F0010F1EBF826817
:100F800042F480028260890742BF816841F4001107
:100F90008160704701F4807382B11BB1426842F4F2
:100FA000807242604A0542BF426842F480624260F9
:100FB000890715D5816841F0020110E01BB1426834
:100FC00022F4807242604A0542BF426822F4806285
:100FD0004260890758BF7047816821F00201816033
:100FE00070470000000000002DE9F8430D4604465C
:100FF0002846FFF784FA9FED3A0B02460B4651EC68
:10100000100BFFF70DFA06460F46002D60D0204664
:10101000FFF775FA32463B4680468946FFF700FAED
:101020009FED310B54EC105B2A462346FFF7DFF8A7
:10103000FFF772FA7F284CD93046394632463B4694
:10104000FFF7D5F802460B4640464946FFF7E8F958
:101050002A462346FFF7CBF8FFF75EFA20F03F0160
:10106000402901D1403034E09FED210B3046394614
:1010700053EC102BFFF762F902460B4640464946F7
:10108000FFF7CEF92A462346FFF7B1F8FFF744FAF7
:1010900020F01F01202901D1A0301AE09FED160B8E
:1010A0003046394653EC102BFFF748F902460B4601
:1010B00040464946FFF7B4F92A462346FFF797F81A
:1010C000FFF72AFA20F01F01202901D1C03000E0EB
:1010D0000020C0B201B0BDE8F08300BF00BF00BF78
:1010E0000000000065CDCD41000000000000E03FA1
:1010F0000000000000002040000000000000304020
:1011000083B0C0B50DF10C0CACE80E0003A9009142
:1011100000F06EF8BDE8884003B0704770B5244C0D
:10112000054640F20360A0474FF4C060A04740F27C
:101130001270A0472D4C182103224FF4806304F550
:101140004446304600F080F93046042103224FF433
:10115000006300F079F9204601F036FF002D2046AB
:1011600008BF4FF46135294601F008FF20460021F1
:1011700001F0B0FF2046002101F09EFF2046002133
:1011800001F08CFF2046002101F082FF2046002163
:1011900001F078FF2046042101F088FF2046082155
:1011A00001F092FF2046BDE8704001F05BBF00BF38
:1011B000F129000810B504460A2C02D10D2000F0D8
:1011C00005F82046BDE81040AFF30080B0B5074DEC
:1011D00004462846072101F04AFF0028F9D0284696
:1011E0002146BDE8B04001F0EBBE00BF0048004022
:1011F00010B5A0B00B4602466846802101F072FF90
:101200000446002C0CDB7F2C21466846A8BF7F21BA
:1012100000F00CF8802C03DB0348032100F006F8F3
:10122000204620B010BD00BF0C3A0008B0B50C46F7
:10123000054604E015F8010BFFF7BCFF013C002C4C
:10124000F8D1B0BD38B104490A6800E000BF0B68AE
:101250009B1A8342FAD3704794000020434A90427D
:1012600002D1052900D3FEE701EB810100EB8100EB
:10127000816841F001018160704700BF3B4A9042A4
:1012800002D1052900D3FEE701EB810100EB8100CB
:10129000816841F020018160704700BF334A90426D
:1012A00002D1052900D3FEE701EB8102890000EBA2
:1012B0008202936823F00103936000239360D3605C
:1012C000136153610F2202FA01F142681143416038
:1012D000704700BF70B5254CA04202D1052900D34C
:1012E000FEE7DDE9064E01EB8101DDE90465DDF88D
:1012F00020C000EB8100A1B202614661C16043EAF7
:1013000005015FFA8CF3826841EA0E01012B0CF4AF
:101310007F4322F47C5241EA02018160816821F01E
:10132000400208BF41F04002B3F5807F82608168CF
:1013300021F0800208BF41F080021CF47F0F826020
:10134000816841F0100208BF21F01002826070BD78
:10135000064B984202D1052900D3FEE701EB81013B
:1013600000EB8100816811438160704700040240F6
:10137000890002FA01F14268114341607047022A74
:10138000944607D0042A03D0082A944602D0FEE7E8
:101390004FF0040C8B0001EB81019A40036800EBD5
:1013A00081001A4018BF0122806810EA0C0018BFA3
:1013B00001201040704700009FED192A19489FED49
:1013C0001A1AB4EEC20AF1EE10FAC8BFB0EE420A21
:1013D0000068B5EEC00AF1EE10FAA8BFB0EE401AF0
:1013E000A8B1411CB6EE000A02EE101AB8EE422A6D
:1013F00001EE020ABCEEC00A10EE102A91424FF62E
:10140000FF7188BF1046884228BF084606E0B5EE47
:10141000C01A0020F1EE10FAC8BF012080B2704758
:10142000A4707D3F2C2C01400000000003490A6895
:1014300022F0070210430860704700BF00200240FE
:10144000416170470161704701F00F0C11F0100FFE
:1014500009D0042A05D1C26B4CF0030C1A43C263B5
:1014600001E04CEA020C2DE9F04100224FF0010EA0
:101470004FF00F08002517E00EFA05F61E4211D0B6
:10148000046808FA02F70CFA02F6482924EA07046D
:1014900046EA040603D0282903D1142700E01027C8
:1014A0003B50066004320135082DE5D108224FF08B
:1014B000000E01244FF00F08102A08BFBDE8F0818C
:1014C00004FA02F61E4211D0456808FA0EF70CFA2B
:1014D0000EF6482925EA070546EA050603D028291D
:1014E00003D1142700E010273B5046600EF1040E94
:1014F0000132E1E78068084018BF01207047000012
:1015000080B500F0C3FA6A480549064A064BC0E9AF
:101510000121C3600020BDE8804000F0BDBB00BFDA
:1015200000E8FD4700A08C4700BCB147B0B540487B
:101530009FED400A9FED403A9FED404A9FED415A92
:101540009FED416A414D0188408801EE101A02EE7C
:10155000100AB8EE411AB8EE422A21EE001A22EE25
:10156000000A9FED372A81EE031A80EE030A21EE6E
:10157000041A30EE020A81EE051A80EE060A85EDA5
:101580000C1A85ED0D0A00F043FE85ED0B0A01F003
:10159000B9F858BB01F0C2F840BB00F093FE28BB7D
:1015A00000F098FE10BB95ED0C0A9FED291AB4EEE1
:1015B000C10AF1EE10FA19DC95ED0D0AB2EE0E1A21
:1015C000B4EEC10AF1EE10FA10DC95ED0B0A9FEDB6
:1015D000211AB4EEC10AF1EE10FA07DB00F07EFE2C
:1015E00020B301F08FF830B101240AE00620BDE8F5
:1015F000B04000F051BB01F091F80446002C18BF38
:10160000012400F05FFE88B900F064FE9FED120A2D
:1016100095ED0B1AB4EEC01AF1EE10FA06DB20437A
:1016200004D10120BDE8B04000F036BBB0BD00BF22
:101630008A0000203333534000F07F4500144D48AA
:101640007B142EBE00401C4639B4C83D500000201B
:10165000000040420080AC430000B44370B5144E1B
:101660000546144C307888B940F2046001F0C0F9A6
:101670002046102103224FF40063FFF7E5FE2046C9
:101680004FF40061FFF7DCFE012030707078A84253
:1016900008BF70BD20464FF40061002D757003D067
:1016A000BDE87040FFF7CEBEBDE87040FFF7C8BE92
:1016B0005000002000100140DB488068704700BFE8
:1016C00010B501F073FA02460C480024002A0068A5
:1016D00011D00B4901300023A0FB0101FEF744FDAE
:1016E000B0F1FF3271F1000138BF0124002C08BFB6
:1016F0004FF0FF300446204610BD00BF2C2C0140A7
:1017000000CA9A3B2DE9F04391B0D0E900128068FD
:10171000DFF814935B4FC9E90112C9F80C0040F2DD
:101720000260B84740F20360B847574C574E10214B
:1017300003224FF480732046B04720464FF4807157
:10174000FFF77EFE04F58065102103224FF400535D
:101750002846B04728464FF40051FFF771FE204657
:10176000182103224FF48073B04728461821032222
:101770004FF40053B0472846482103224FF48053CA
:101780004FF48058B04740F20B60B84701F00EFAB2
:101790000546D9F80400002704F510540DA90D974B
:1017A000ADF83870ADF840708DF84270B5FBF0F0D0
:1017B0000138C9F800000F90204601F053FB0420C7
:1017C000CDF82E70CDF82A70012609AA0021ADF8B7
:1017D00028002046099601F00BFA204600216022DD
:1017E00001F0EEFA20460021002201F005FB204620
:1017F0000021082201F006FB0AAA07CACDE905600C
:10180000CDE9071205AA20460221ADF8187001F0B3
:10181000EFF920460221602201F0D2FA204602218F
:10182000002201F0E9FA20460221082201F0EAFA3A
:101830004FF48060294601904FF40060ADF800003D
:10184000D9F80800ADF80E70FFF7CEFBADF8080030
:1018500069462046ADF81080CDF80A7001F0B9F95C
:101860002046602101F057FB204601F0ADF92046EB
:1018700001F0E4FA01F060FB002000F009F811B07B
:10188000BDE8F083F1290008000801404914000870
:10189000F8B5664C05460021204601F044FB204681
:1018A0000021002201F0A8FA20460021102201F0B8
:1018B00087FA2046012101F0CAFA2046012101F0F1
:1018C000C2FA2046012101F0C7FA0028F9D02046CB
:1018D000012101F0BCFA002001216062204601F0E4
:1018E00022FB2046002101F01EFB20460021602241
:1018F00001F066FA4C4E96ED030AFFF75DFD0246D5
:101900002046002101F078FA2046012101F09FFADB
:101910002046012101F097FA2046012101F09CFAAE
:101920000028F9D02046012101F091FA0027204635
:101930000121676201F0F7FA2046002101F0F3FA75
:1019400020460021002201F057FA7DB120460121F6
:10195000676201F0E8FA96ED030AFFF72DFD0246F3
:1019600020460021BDE8F84001F046BAF8BD00BFAE
:1019700080B59FED112A9FED111A2B48B4EEC20AD3
:10198000F1EE10FAC8BFB0EE420AB5EEC00AF1EEB1
:1019900010FAA8BFB0EE401AB0EE410A80ED031A6B
:1019A000FFF70AFD02462148002101F025FABDE8B3
:1019B000804001F0C1BA00BFA4707D3F000000006C
:1019C000B0B5044674B301F0F1F8014651B3B1FB70
:1019D000F4F0154D154C022898BF0220B0F5803F59
:1019E00028BF4FF48030421EB1FBF0F02A60E26263
:1019F0006860A868FFF7F8FA616C21F0FF010843FE
:101A0000606495ED030AFFF7D7FC024620460021EB
:101A100001F0F2F901F090FA20460121BDE8B04052
:101A200001F011BAB0BD00BF34000020002C01400D
:101A3000D74890ED022A90ED011AB4EEC02AF1EEDB
:101A400010FAB4EEC01AB8BFB0EE420AF1EE10FAC6
:101A5000C8BFB0EE410ABCEEC01A80ED030A11EE19
:101A6000100AFFF7ADBF00BF80B5064800214160F6
:101A7000A0F8011001F02AF89FED030ABDE88040AC
:101A800001F00CB89C000020000000002DE9F04F90
:101A900089B0704C207800284FD10020284A4FF49C
:101AA00096714FF07C53A4F80100C4E9010004F1E1
:101AB0000C000EC001F00AF894ED040A94ED061A29
:101AC000B4EEC10AF1EE10FA06DB94ED071AB4EE9B
:101AD000C10AF1EE10FA03DDB0EE410A84ED041AFA
:101AE00000F0DCFFD4E903B0D4E905672062FEF71B
:101AF0002CFD804630468946FEF727FD8246384653
:101B00000E46FEF722FD0746E0690D46FEF71DFD75
:101B100041EC100B0B4845EC117B46EC12AB4246F6
:101B20004B46CDF808B08DED041B8DED060B8DED09
:101B3000002BFFF7E5FA0120207009B0BDE8F08F17
:101B4000CDCCCC3DED3A000842480078002818BFC3
:101B5000FFF78ABF704700BFB0B52DED048B3D4C39
:101B6000B0EE409A207808B9FFF790FF9FED3A0A4F
:101B70009FED3A8A3A4D00204FF49671B4EEC09A28
:101B8000F1EE10FAC8BFB0EE409AB5EEC09AF1EE91
:101B900010FAA8BFB0EE498AA0706060C4E90315CE
:101BA00084ED058A00F092FF94ED060A94ED041A84
:101BB00010EE100AB4EEC01AF1EE10FA014608DB7E
:101BC00094ED072AB4EEC21AF1EE10FA02DD12EE1D
:101BD000101A216194ED051AB4EEC01AF1EE10FA54
:101BE00008DB94ED070AB4EEC01AF1EE10FA02DD3C
:101BF00010EE100A60619FED1A0AB4EEC08AF1EE91
:101C000010FA0EDDE06860B101209FED150A6070EA
:101C100014480068A06000F041FF2562BDEC048B11
:101C2000B0BD0020B0EE480A607084ED048A84EDF7
:101C3000058A00F033FF18EE100AFEF786FC024614
:101C400084ED088A08A00B46BDEC048BBDE8B040CB
:101C5000FFF756BA9C000020A4707D3F00000000F2
:101C6000CDCCCC3D940000205B4C4C432D53535DB8
:101C700020736B69707065643A20666978656420CA
:101C8000647574793D252E336620286E6F2072614D
:101C90006D70290A00000000B0B53C4C0528216891
:101CA0001DD8DFE800F0032E38475C67FFF74CFFD4
:101CB0000020002400F0C2FA0020FFF7E9FD002018
:101CC000FFF7CCFC354B32483349324A1C70C0E92F
:101CD000084484628368C0E903324161B0BDFFF704
:101CE00033FF002000F0AAFA0020FFF7D1FD00200A
:101CF000FFF7B4FC264890ED020ABDE8B040FFF7BC
:101D000097BE0120FFF7AAFC0020FFF7C1FD204885
:101D10008168C160B0BD20681D4908620120FFF7DD
:101D20009DFC0120FFF7B4FDB6EE000ABDE8B0400F
:101D3000FFF712BF0120FFF791FC184B0021144858
:101D4000144D154A9FED130A197021682368C0E9E4
:101D50000452C0E90613BDE8B040FFF769BE012098
:101D6000FFF77CFC0A4D95ED040AFFF761FE206841
:101D7000A862B0BD2068064C60620120FFF76EFCCF
:101D800094ED020ABDE8B040FFF752BE9400002077
:101D90005000002000D8D647FFFF7F7F980000202A
:101DA0002DE9F8432DED085BFEF7FAFC4FF4A06037
:101DB00000F0AAF94FF46130FFF7B0F97AA04FF4C0
:101DC0006131FFF79DF900F0CFFE8148D0E90012A4
:101DD0008068059003A8CDE90312FFF793FCB6EEE7
:101DE000008AB0EE480A00F0E9F94FF48020FFF7CE
:101DF00079F8FFF77BF800F049FC00F083FC28B18C
:101E000074A0FFF77DF94FF001080FE000F086FCA9
:101E100020B17DA0FFF774F900F032FC00F072FCF5
:101E20008046B8F1000F18BF4FF001088A4C00251A
:101E30004FF6FF79002600270FE00E200521FEF760
:101E40001DFF48451CBF07440136206800E000BF65
:101E50002168091A0129FAD90135A8B20828ECD35A
:101E600030045ED0B0B200EE107A9FED712A9FED83
:101E7000713A9FED714A01EE100AB8EE400AB8EED1
:101E8000411A80EE010A30EE081A10EE100ABDEE7B
:101E9000C11AB8EE411A21EE021A9FED682A81EEAE
:101EA000031A21EE041A81EE028AFEF74EFB054664
:101EB00018EE100A0E46FEF748FB41EC100B604886
:101EC0002A4633468DED000BFFF71AF99FED5D0AA8
:101ED000B4EEC08AF1EE10FA27DB9FED5B0AB4EE98
:101EE000C08AF1EE10FA20DC00250AE0FEF7FCFFC4
:101EF000FEF7D6FF206800E000BF21688142FBD0DA
:101F00000135E8B20328F1D350480188494502D091
:101F1000418849451AD1018842884E48FFF7F0F8B8
:101F20000FE05048FFF7ECF80BE04FF040409FED1A
:101F30001C0B0090494853EC102B01904848FFF7C8
:101F4000DFF84948FFF7DCF800BFFDE7B8F1000F04
:101F5000F7D100F09DF9FFF7D3FA00F05DF93C4CA2
:101F6000002572B6206800281ABF26682560002662
:101F700062B60EE0FEF7B8FFFEF792FF00F0F0F950
:101F8000FFF7D4FA062E04D36068052638440638D5
:101F9000606037467E1E002FECD1E2E700BF00BF35
:101FA0000000006066660640446562756720636FE6
:101FB0006E736F6C6520696E697469616C697A65AE
:101FC000642040256C7520626175640A0000000081
:101FD000F83900085B535441525455505D20486114
:101FE000726477617265206661756C7420616374D8
:101FF0006976652028424B494E206173736572747F
:102000006564290A000000005B5354415254555046
:102010005D20436C656172696E67207374616C65E5
:10202000206661756C74206C617463680A0000003E
:102030003333534000F07F4500F06B4600609F450E
:10204000733A000833333340666666408A000020E6
:10205000100000203B3A000894000020CCCC0C403B
:10206000103A00089A3A0008BC3A000810B52A4C09
:10207000236803F4E063B3F5E06F03D14FF0000C85
:10208000042328E0236803F4E063B3F5C06F03D1B1
:102090004FF0010C03231EE0236803F4E063B3F563
:1020A000A06F03D102234FF0020C14E0236803F465
:1020B000E063B3F5806F03D14FF0030C01230AE016
:1020C00023684FF0040C03F4E063B3F5407F4FF056
:1020D000040308BF002399400F2323FA0CF31A408E
:1020E0001143084A090140EA020383F800131C2146
:1020F000012301EAD00100F01F0003FA00F088502C
:1021000010BD00BF00E100E0024908430249086039
:10211000704700BF0000FA050CED00E070B588B014
:102120000546002D46D040F2036000F061FC374CBC
:10213000182103220123012604F58430FFF784F9D6
:1021400040F2017000F054FC022000F047FB1A49F5
:10215000096811F4E06118BF012188402849B0FBEB
:10216000F5F0002501380495ADF81450ADF81C5079
:102170008DF81E500860069004A9204600F072FEFB
:102180006A4620460221ADF806500096ADF80A5086
:1021900000F02EFD20460221602200F011FE2046B4
:1021A0000221002200F028FE204600F00DFD20460E
:1021B00000F044FE08B070BD041002409FED111AFB
:1021C0000F489FED112A0221B4EEC10A0068F1EE1A
:1021D00010FAC8BFB0EE410AB5EEC00AF1EE10FA2F
:1021E000A8BFB0EE402A00EE100A0848B8EE400A38
:1021F00022EE000ABDEEC00A10EE102A00F0FCBD6F
:10220000C0000020A4707D3F0000000000040040DA
:10221000524890ED0E0A7047504801210172017832
:1022200001B170470021C160704700BF80B500F068
:102230005DF80220BDE8804000F06AB870B5124E2B
:102240000546124C307820B17078A84208BF70BDA6
:102250000CE040F2046000F0CBFB2046102103228A
:102260004FF48063FFF7F0F80120307020464FF400
:102270008061002D757003D0BDE87040FFF7E2B8B3
:10228000BDE87040FFF7DCB84800002000100140B6
:1022900010B50A4C40212046FDF79EFF44F6206011
:1022A000FFF73CFF9FED060AFFF788FFFEF774FC7F
:1022B00000202070BDE8104000F018B8C4000020D5
:1022C00000000000DD4800780238B0FA80F04009D4
:1022D000704700BFD948407A704700BFD7480078A0
:1022E0000138B0FA80F04009704700BF10B500F027
:1022F00009F800200024FFF7A1FFD04880F82D4006
:1023000010BD00BF9FED010AFFF758BF000000009D
:10231000CA490A7882421FD0D04A0870022813683E
:102320004B600DD0012814D0002818BF7047002042
:10233000C1E903004861C86181F82C00FFF7D6BFEE
:1023400001204872002081F82C0010688862FFF795
:10235000CDBF0020C8614861704700BFC4000020A5
:1023600070B52DED028B03200621FEF787FCB34CE0
:102370000621E0870120FEF781FC00EE100A9FEDA8
:10238000B01A9FEDB02A9FEDB03A9FEDB06AB8EE5B
:10239000400AE18F20EE010A04EE101A80EE025A84
:1023A00094ED0D0AB8EE444A25EE033A9FEDA85A83
:1023B000A08724EE011A33EE404A84ED0C3A81EEF8
:1023C000021A04EE060A84ED0D0A21EE058AB2EE29
:1023D000041AB4EEC10A84ED0E8AF1EE10FA0CDD97
:1023E0009FED9C1A9FED9C2A20EE010A20EE020A26
:1023F000B4EEC08AF1EE10FA6DDA0020206284F8A3
:1024000024009FED970AB4EEC08AF1EE10FA5CDC6E
:1024100000F078F9002858D100F080F9002854D154
:102420009FED901A94ED0D0AB4EEC10AF1EE10FA88
:102430004BDC9FED8D1AB4EEC18AF1EE10FA44DA4E
:102440002078022856D0012877D0002840F08780D5
:10245000207A002800F08C809FED841AB4EEC10A27
:10246000F1EE10FAC0F293809FED811AB4EEC10A2A
:10247000F1EE10FA00F38B80784D2868A1690029ED
:1024800000F08680401AC828C0F0838094F82400A9
:1024900094F82D10084300067BD0E06808B928683E
:1024A000E060002900F0AC809FED730AB4EEC08AB2
:1024B000F1EE10FA80F2B8809FED700AB4EEC08A97
:1024C000F1EE10FA80F29280ACE0BDEC028BBDE838
:1024D0007040FFF7ABBE206A20B960480068002852
:1024E00020628ED05D490968081A31287FF689AFCD
:1024F000012084E7FFF7FAFE00F004F9002875D107
:1025000000F00CF9002871D1207A002871D0A06A5F
:1025100000286BD051490968081AB0F5FA6F65D3E5
:1025200000F0FCF808B100F0ABF894F82C0000289B
:1025300058D1012084F82C0054E0207AF8B19FEDA6
:102540004B1AB4EEC10AF1EE10FA28DB9FED481ADF
:10255000B4EEC10AF1EE10FA21DC002027E0FFF70B
:10256000C5FE0220BDEC028BBDE87040FFF7D0BE77
:10257000FFF7BCFE0020C4E90300A06136E00020A4
:102580000025FFF7C5FEC4E90455E5612EE00020F3
:10259000A061BDEC028BBDE87040FFF7A7BE2F48DD
:1025A0000068E16919B1401AC82801D31AE0E06156
:1025B00094F82D0028B901200125FFF73FFE84F88B
:1025C0002D50FFF79FFE9FED2B0AB4EEC08AF1EE6F
:1025D00010FA09DA21480068616931B1401AB0F592
:1025E000967F03D30020BDE700206061BDEC028B25
:1025F00070BD00200025FFF78BFE84F82C50F5E716
:1026000080B12968081AC8280CD301200126FFF7D9
:1026100015FE84F82D60FFF775FE94F82D00002854
:102620007FF442AF002007E02868216921B1401AF9
:102630005028DBD3012095E72061D7E7C4000020B4
:102640003333534000F07F4548616943CDCC4C3D66
:10265000AE581043F4FDB43F9A99593F94000020BE
:102660000000FA43000087430000D7430000AA425D
:10267000008085430000AA430080BB430080B6432E
:102680003148002101704170704700BFB0B51C4C4B
:1026900040F20460A04740F20360A0474FF4C060DE
:1026A000A0471D4C042103224FF480532046FEF71F
:1026B000CBFE04F500558021284600F01DFC1820B3
:1026C00000210022FFF7D2FC2846802100F010FCF8
:1026D00004F58064102103224FF400632046FEF7C6
:1026E000B3FE20464FF40061FEF7AAFE00F00AF8A0
:1026F000002814BFBDE8B040B0BD00F015B800BF61
:10270000F129000880B504484FF48051FEF7F2FE2D
:10271000B0FA80F0400980BD000C01400A48007802
:10272000002818BF0120704710B5074C0120207009
:10273000FFF7E8FF002818BF012060700020BDE807
:102740001040FFF7A5B800BF4400002070B5D24E7E
:10275000134A0B28316802EA0102B16A21F00053E2
:102760001BD801248440250709D114F4706F09D0C7
:102770000C4B03EA803041F0005302430DE042EA83
:1027800080320AE00121814011F0A00F1FBF0649ED
:1027900001EA8030104340F080523260B36270BD75
:1027A000FF3FFFEF00C0FCFF00C0FEEFBA490A6820
:1027B00022F0F00210430860704700BFB6490A6873
:1027C00022F4E06210430860704700BFB2490A6813
:1027D00022F4605210430860704700BFB0B5274A2A
:1027E0001168C1F381032649022B27D11368254CB8
:1027F00013F4803F0AD0936A234D13F0804F08BF33
:102800000D46116811F4003F08BF2C46116813688B
:10281000102505EAD353C1F383411943136813F01C
:10282000804F03D10E2903D88B1C05E041F0200115
:102830003F233F2938BF4B1C03FB04F11368156885
:102840000328C5F3022CC3F3031312680AD810A59A
:102850000E4CEB5C21FA03F3DFE800F00E020609F0
:10286000194609E0002107E014F80C0002E0C2F369
:10287000C220205C23FA00F10846B0BD04100240DB
:1028800000127A0000093D00006CDC02043A0008E6
:102890000000000000000000010203040607080910
:1028A00010B5664C206840F001002060002000F068
:1028B00031F86068094908400949606020680840AB
:1028C0002060206820F4802020604FF41F00A0606A
:1028D000E06A20F0C040E06210BD00BF0C000020A4
:1028E000FFFFF6FE554A810900F01F0089580122BA
:1028F00002FA00F0084018BF0120704710B54F4C95
:10290000810900F01F00012202FA00F00B59184360
:10291000085110BDF0B110282BD043F210018842AD
:1029200036D0B0F5006F42D0B0F5106F4DD01828FA
:102930001CBF002070472C49404B0022186800291A
:10294000C0F3406008BF70471206A1F101010246C2
:10295000F4D047E0394B00224FF4A06118680029F9
:10296000C0F340003ED01206A1F101010246F5D0AD
:1029700038E0324B00224FF4006118680029C0F3A0
:1029800040402FD01206A1F101010246F5D029E006
:1029900015492A4B0022D3F8C0000029C0F340405B
:1029A00020D01206A1F101010246F4D01AE00F492D
:1029B000224B0022186A0029C0F3400012D01206F0
:1029C000A1F101010246F5D00CE007491B4B0022A2
:1029D000586A0029C0F3400004D01206A1F1010199
:1029E0000246F5D0704700BFFFFF0F00FFFFFF0357
:1029F00010B5124C810900F01F00012202FA00F00C
:102A00000B591843085110BD10B50C4C810900F04A
:102A10001F00012202FA00F00B5923EA00000851BE
:102A200010BD00BF10B5054C810900F01F00012248
:102A300002FA00F00B591843085110BD0010024073
:102A400008436049024B0A681A4010430860704707
:102A5000FFFFC2B703490A6822F0804210430860B2
:102A6000704700BF2C100240564901280A6822F422
:102A7000003308BF42F400330B60704751490A68C5
:102A800022F0030210430860704700BF4D48006801
:102A900000F00C00704700BF04100240314890ED78
:102AA000072A90ED061AB4EEC02AF1EE10FAB4EE41
:102AB000C01AB8BFB0EE420AF1EE10FAC8BFB0EECD
:102AC000410A80ED080AFEF753BF00BF10B52DED97
:102AD000028BFEF7F5FD9FED1F8A0446FEF7ECFD25
:102AE0008CB100280FDB00EE100A02EE104A9FEDB9
:102AF000191AB8EE400AB8EE422A30EE000A80EE0B
:102B0000020A30EE018AB7EE001A9FED130A9FED1C
:102B1000132A9FED133A134831EE481AB4EEC01A47
:102B2000F1EE10FAB4EEC28AC8BFB0EE401AF1EE70
:102B300010FAB4EEC31AC8BFB0EE428AF1EE10FA32
:102B4000A8BFB0EE413A80ED068A80ED073ABDECB1
:102B5000028B10BD0AD7A33CA4707D3F48E1FA3E2A
:102B60005C8F023F9C00002080B5FDF761FE0B48A2
:102B70004FF47A730A49002200680A60B0FBF3F050
:102B8000084B0138984238BF034607484B608A60BB
:102B9000802202700720086080BD00BF0000002076
:102BA00010E000E0FFFFFF0023ED00E080B5032010
:102BB000FFF714FE0349096811F4605118BF0121A1
:102BC000884080BD04100240016841F0800101602E
:102BD00070470A884B681A430B891A434B891A437A
:102BE0008B891A43CB89098A1A4311434164704780
:102BF000032988BF7047DFE801F0023C7ABA016A16
:102C000021F0010101621168036A19430162016A3E
:102C100021F002010162D188036A19430162B249BD
:102C2000884202D0D44988421FD1016A21F00401B0
:102C300001629188036A19430162016A21F0080167
:102C400001621189036A19430162416821F48071AC
:102C500041605189436819434160416821F4007122
:102C6000416091894268114341606FF0030218216D
:102C7000A0E0016A21F0100101621168036A43EAD1
:102C800001110162016A21F020010162D188036A09
:102C900043EA011101629449884202D0B649884250
:102CA00023D1016A21F0400101629188036A43EA5D
:102CB00001110162016A21F0800101621189036A38
:102CC00043EA01110162416821F480614160518948
:102CD000436843EA81014160416821F40061416039
:102CE0009189426842EA81014160182161E0016AEC
:102CF00021F4807101621168036A43EA01210162D3
:102D0000016A21F400710162D188036A43EA01215A
:102D100001627549884202D09749884223D1016AED
:102D200021F4806101629188036A43EA0121016212
:102D3000016A21F4006101621189036A43EA0121F9
:102D40000162416821F4805141605189436843EA3E
:102D500001114160416821F400514160918942684C
:102D600042EA011141606FF003021C2122E0016A76
:102D700021F4805101621168036A43EA0131016262
:102D8000016A21F400510162D188036A43EA0131EA
:102D900001625549884202D07749884208D141688A
:102DA00021F4804141605189426842EA81114160C9
:102DB0001C21024A0B581A400A507047FFFCFFFFC3
:102DC000032988BF7047DFE801F0020D050A50F8BB
:102DD000181F01E050F81C1F21F0700107E050F8A7
:102DE0001C1F01E050F8181F21F4E041120201609D
:102DF000016811430160704703299CBF00EB81000B
:102E000042637047032988BF7047DFE801F0020D75
:102E1000050A50F8181F01E050F81C1F21F00801A6
:102E200007E050F81C1F01E050F8181F21F4006162
:102E3000120201600168114301607047016841F0AE
:102E400001010160704742691143416170470269A5
:102E500022EA0101016170470069084018BF0120A2
:102E6000704700000A88B0F1804F82620ED01B4A82
:102E700090420BD01A4A904208D01A4A904205D08C
:102E8000194A904202D03C4A90420BD1026822F08B
:102E9000700202604A8803681A4302608A880368E5
:102EA0001A4302608A68114BC26240F480629A42FF
:102EB00007D0026822F4407202608A8903681A43CC
:102EC0000260094A904202D02B4A904201D1897B8C
:102ED0000163416941F00101416170470004004014
:102EE00000080040000C0040003401400014004085
:102EF000C2681143C1607047026922EA01010161A1
:102F00007047C2680A4018BF01220069084018BF14
:102F1000012010407047426822F07002426042680F
:102F2000114341607047426C012922F4004308BFFD
:102F300042F40043436470470F48C16AC1B14A1C60
:102F4000B6EE000A01EE102A4FF6FF72B8EE411AF3
:102F500001EE000ABCEEC00A10EE103A002B08BFCA
:102F600001238B4228BF8B1802219AB2FFF744BF7E
:102F700002210022FFF740BF002C0140B0B50D46F2
:102F80003349044602208C420CD032498C4209D08D
:102F900031498C4206D031498C4203D030488442BA
:102FA0000CD10320C0B2FFF719FC00EB5500A1685B
:102FB000B0FBF5F080B20843A060B0BD0020F4E79C
:102FC0006FF35F214160704780B52149884216D078
:102FD000204988421DD02049884224D01F49884278
:102FE0002BD01F49884218BF80BD40F20E30FFF73A
:102FF00019FD40F20E30BDE88040FFF705BD40F2FC
:103000001140FFF70FFD40F21140BDE88040FFF78F
:10301000FBBC40F21240FFF705FD40F21240BDE854
:103020008040FFF7F1BC40F21340FFF7FBFC40F299
:103030001340BDE88040FFF7E7BC40F21440FFF7C3
:10304000F1FC40F21440BDE88040FFF7DDBC00BF5A
:103050000044004000480040004C00400050004048
:1030600000380140C16841F40051C16070478A09CD
:1030700001F01F011058012202FA01F1084018BFA7
:1030800001207047426922F4007211434161704788
:10309000426922F48072114341617047C26822F490
:1030A000C062C260C2681143C1607047C26822F04A
:1030B00004021143C1607047026922F44052026168
:1030C0000269114301617047C26822F0080211438E
:1030D000C1607047C26822F48052C260C268114366
:1030E000C16070477CB5044600201D461646002985
:1030F0000BD0491ECDE90041044B6A4629463046B3
:1031000000F0D8F8009A002111707CBDE339000866
:1031100002E008C8121F08C1002AFAD170477047A0
:10312000002001E001C1121F002AFBD170470000FE
:103130002DE9FF5F82B00021DDE90430020DDDF8EA
:1031400040B0034318D044F61050A2F2FF3242437D
:103150001514119801281FD0A5EB0B00401C5FEA45
:10316000000A4FF000064E4FDFF83891B046504647
:1031700015D5CAF1000413E0119801244AA30128CF
:1031800001D16FEA0B010298119AC0E90031C0E940
:10319000024206B0BDE8F09FCBF10000DFE7044635
:1031A0000021404A491842EB0450CDE9001012E0DA
:1031B000E00707D032463B4640464946FDF7BEF899
:1031C0008046894632463B4610461946FDF7B6F81A
:1031D00006460F466410002CEAD1DDE90401DDE962
:1031E0000023BAF1000F06DAFDF7A8F842464B4675
:1031F000FDF7A4F805E0FDF713F942464B46FDF74D
:103200000FF904460E460022284BFDF76DFA03D84D
:103210004FF0FF30014607E00022254B20463146A3
:10322000FCF7E5FFFDF748FA102409E0002C0ADB63
:103230000A220023FCF798FF039B30321A55641EC4
:1032400050EA0102F2D1641C039AC4F11103144440
:10325000119A012A03D0012208430DD10AE0084344
:1032600004D000204FF0110B119072E7A3EB0B0577
:103270006D1E0DE05B4504DD4FF0000205F1010518
:1032800004E003DA4FF00002A5F10105002AECD0BA
:1032900002981199C0E90231C0E9004579E70000C0
:1032A000000014400000F03F300000000000F04338
:1032B0000000E03F2DE9FF4F95B09B46894606464A
:1032C00000250FE2252877D100242746F84A01215E
:1032D000059400E0044316F8013F203B01FA03F097
:1032E0001042F7D130782A2811D06FF02F033078B0
:1032F000A0F13002092A16D8059A44F0020402EB24
:10330000820203EB42021044761C0590EFE759F865
:10331000042B0592002A03DA504244F4005405902D
:1033200044F00204761C30782E2816D116F8010FCE
:1033300044F004042A280DD06FF02F023078A0F159
:103340003003092B09D807EB870302EB4303C718A7
:10335000761CF3E759F8047B761C30786C280FD084
:1033600006DC4C2817D068280DD06A2814D104E058
:10337000742810D07A280FD10DE044F400140AE02C
:1033800044F4801401E044F440147278824202D183
:1033900004F58014761C761C307866280BD013DC7C
:1033A000582877D009DC002875D04528F6D0462863
:1033B000F4D047281AD19DE118E0632835D064285D
:1033C00079D0652812D195E1702873D008DC672880
:1033D000F1D069286FD06E280DD06F2806D1B5E0E6
:1033E00073282CD0752875D0782874D05A46179930
:1033F00090476D1C75E1C4F30250022809D00328E0
:103400000DD0D9F8001004280DD00D6009F1040981
:1034100067E1D9F80010EA17C1E90052F6E7D9F8D8
:1034200000100D80F2E70D70F0E719F8041B8DF81D
:10343000001000208DF80100EA46012003E059F851
:1034400004AB4FF0FF3061074FF0000102D40DE0F4
:1034500008F101018846B9420FDA8045F8DB1AF815
:1034600008100029F4D108E008F1010188468142E2
:10347000FADB1AF808100029F6D105985B46A0EB94
:10348000080721463846179A00F094FA284400EBC2
:10349000080507E04DE029E10DE01AF8010B5A4656
:1034A00017999047B8F10108F7D25B462146384694
:1034B000179A13E142E00A220092C4F302524FF03D
:1034C000000A022A08D059F804CB032A4FEAEC710B
:1034D0000AD00DE029E02AE009F1070121F00702F6
:1034E000F2E802C1914609E00FFA8CFC4FEAEC7158
:1034F000042A03D14FFA8CFC4FEAEC71002907DA59
:103500000A460021DCF1000C61EB02012D2202E0F1
:10351000220504D52B228DF80420012203E0E207C6
:1035200001D02022F7E7904659E00A2102E010225C
:103530000DE010214FF0000A00910BE010224FF037
:10354000000A44F004040827009203E008224FF028
:10355000000A0092C4F30252022A05D059F804CBA3
:103560000021032A08D009E009F1070121F0070230
:10357000F2E802C1914605E01FFA8CFC042A01D151
:103580000CF0FF0C4FF00008220728D5702806D059
:10359000009B83F0100353EA0A0305D00EE040229B
:1035A0008DF80420012208E05CEA010206D03022F6
:1035B0008DF804208DF8050002229046009B83F0D0
:1035C000080353EA0A030AD15CEA010201D1620747
:1035D00005D530228DF804204FF001087F1E5828B1
:1035E00004D034A003900EA802900DE036A0F9E7B5
:1035F00053466046009AFCF7B7FD84460398825C08
:103600000298401E029002705CEA0100F0D102981C
:1036100006A9081A00F1200A600702D524F48034B4
:1036200000E00127574502DDA7EB0A0000E000207B
:1036300000EB0A01009005984144401A0590E00310
:1036400006D45B462146179A059800F0B3F9054465
:10365000002706E001A85A46C05D179990476D1CE7
:103660007F1C4745F6DBE0030CD55B462146179AE5
:10367000059800F09FF9054404E030205A46179958
:1036800090476D1C0099481E00900029F5DC08E069
:10369000029802995A460078491C0291179990475E
:1036A0006D1CBAF10001AAF1010AF1DC65E100002C
:1036B0000928010030313233343536373839616208
:1036C00063646566000000003031323334353637CC
:1036D00038394142434445460000000000F058F9A3
:1036E0000544761C307800287FF4ECAD19B02846EC
:1036F000BDE8F08F620700D4062709F1070222F027
:10370000070CFCE80223E14603F000485FEA080CDE
:1037100002D00FF2702C0DE05FEA045C02D50FF2CC
:10372000682C07E05FEAC47C02D00FF2602C01E055
:10373000AFF2700C4FF0FF3823F00043CDF850C0CB
:1037400065280CD006DC452809D046281DD047281E
:103750003DD13DE0662818D067287ED138E00021B1
:10376000112F01DB112000E0781CCDE9000106A932
:103770000EA8FFF7DDFCDDE90F010E9A0391002191
:10378000009207F1010A04914DE04FF000400097CC
:10379000CDE9011006A90EA8FFF7CAFCDDE90F026A
:1037A00003920E9B11990022DDF80CA00093049265
:1037B00011B9791C00EB010AB7EB0A0004D4C0F17F
:1037C000FF3007F1010A0490AAEB0700019044E0E2
:1037D000012F00DA01270021112F01DD112000E067
:1037E0003846CDE9000106A90EA8FFF7A1FCDDE9E6
:1037F0000F010E9A0391002104910092BA4621070D
:103800000CD40399514500DA8A46BAF1010F05DD5F
:10381000009AAAF10101515C302908D0B84202DABD
:1038200010F1040F06DA0121CDE9011015E0AAF12B
:103830000101E9E7002805DC049901440491AAEBA1
:10384000000102E0411C514500DD8A460499401AFE
:10385000401C01904FF000400290200704D40198D2
:10386000504501DBCDF8048000208DF84F00029810
:103870000DF14F07B0F1004F25D02B200E9002988C
:103880004FF0020800280CDA404202902D200E90E2
:1038900007E00A210298FCF76BFE3031029007F82E
:1038A000011DB8F10001A8F10108F2DC029800281E
:1038B000EFD1791E0E980870307800F0200040F0AB
:1038C000450007F8020D12A8C01B00F10708149864
:1038D000007800B1012000EB0A01019801EBE071D2
:1038E00005984144401A401E0590E00306D45B460B
:1038F0002146179A059800F05DF805441498007861
:1039000018B15A46179990476D1CE00324D55B46C1
:103910002146179A059800F04DF805441CE00498DC
:10392000002807DBDDE90301884203DD0098405CE5
:10393000179901E0179930205A469047049805F1ED
:103940000105401C04900198401E019004D12E20D6
:103950005A46179990476D1CBAF10001AAF1010A65
:10396000DDDC05E017F8010B5A46179990476D1CEE
:10397000B8F10001A8F10108F4DC5B462146179A72
:103980000598ABE62D0000002B0000002000000091
:103990002DE9F041044600251E461746880404D44C
:1039A00005E039462020B0476D1C641EF9D5284635
:1039B000BDE8F0812DE9F041044600251E46904601
:1039C000C80301D5302700E02027880404D505E08E
:1039D00041463846B0476D1C641EF9D52846BDE8FF
:1039E000F0814A68002A06D00A68531C0B601070E8
:1039F0004868401E4860704730560100F4010000DE
:103A00000000003F00000000010203042E2E2E00E3
:103A10005B535441525455505D20335633206F75DB
:103A200074206F662072616E67652028252E3266CD
:103A30002E2E252E32662056290A005B5354415201
:103A40005455505D204144433020444D4120736122
:103A50006D706C6520696E76616C69642028766F84
:103A600075743D25752C206973656E73653D2575EC
:103A7000290A005B535441525455505D2041444340
:103A80003120335633207261773D252E3166202D4B
:103A90003E20252E336620560A005B535441525473
:103AA00055505D2041444331203356332073616DBE
:103AB000706C65206661696C65640A005B535441F3
:103AC000525455505D20507265666C696768742069
:103AD000636865636B73206661696C65642C205054
:103AE00046432F4C4C4320686F6C640A005B4C4C7F
:103AF000432D4F70656E4C6F6F702D53535D207268
:103B0000657365743A2073746172743D252E336653
:103B1000207461726765743D252E3366206475726A
:103B20003D256C75206D7320736166655B252E33B2
:103B3000662C20252E33665D0A000000603B0008DD
:103B4000000000201000000010310008703B000849
:103B500010000020F80400002031000800000000E0
:103B6000000E270700000000000000000000000019
:0400000508000131BD
:00000001FF
