:020000040800F2
:1000000030050020450100080D0800089F07000882
:100010000B0800083D070008CD0A0008000000009A
:1000200000000000000000000000000011080008AF
:100030009D070008000000000F08000815080008D0
:100040005F0100085F0100085F0100085F01000810
:100050005F0100085F0100085F0100085F01000800
:100060005F0100085F0100085F0100084107000808
:100070005F0100085F0100085F0100085F010008E0
:100080005F0100085F0100085F0100085F010008D0
:100090005F0100085F0100085F0100085F010008C0
:1000A000B10900085F0100085F0100085F01000856
:1000B000D50900085F0100085F0100085F01000822
:1000C0005F0100085F0100085F0100085F01000890
:1000D0005F0100085F0100085F0100085F01000880
:1000E0005F0100085F0100085F0100085F01000870
:1000F0005F0100085F0100085F0100085F01000860
:100100005F0100085F0100085F0100085F0100084F
:100110005F0100085F010008590A0008910A000801
:100120005F0100085F0100085F0100085F0100082F
:10013000DFF80CD000F0F0FA00480047B11A0008D0
:10014000300500200648804706480047FEE7FEE7E6
:10015000FEE7FEE7FEE7FEE7FEE7FEE7FEE7FEE777
:10016000AD080008310100082DE9F05F05460020C8
:1001700092469B4688460646814640241BE0284618
:1001800041464746224600F018FA53465A46C01ADE
:10019000914110D311461846224600F0FFF92D1A5E
:1001A00067EB01084F4622460120002100F0F6F9D6
:1001B00017EB00094E41201EA4F10104DFDC484684
:1001C00031462A464346BDE8F09FD2B201E000F82E
:1001D000012B491EFBD270470022F6E710B51346EB
:1001E0000A4604461946FFF7F0FF204610BD2DE9E8
:1001F000FE4F804681EA0300C00F0C46009021F0BC
:10020000004123F00045B8EB0200A94105D2404669
:10021000214690461C460B46024623F00040104300
:1002200047D0270DC7F30A00C3F30A510290401AC2
:10023000019040286BDAC3F3130040F4801B009850
:10024000924620B10023D2EB030A63EB0B0B01981B
:100250005946C0F14002504600F0A0F906460D464E
:1002600050465946019A00F0B8F910EB0800614178
:10027000002487EA115284EAE7731A4340D0009AB7
:1002800062B3019A012A4FEA075215DC001B61EBA9
:1002900002014FF0004202EA0752CDE90042001C81
:1002A00041F5801132462B4600F0B8F903B0BDE8A5
:1002B000F08F40462146F9E7001B61EB0201001C6C
:1002C00041F5801300185B412018A2F5001747EB99
:1002D000030140EAD570B6196D4111E06D084FEA8F
:1002E000360645EAC0754FEA0752001B61EB020172
:1002F000001C41F5801149084FEA300000195141B6
:1003000032462B4603B0BDE8F04F00F078B90098B4
:10031000012240000023D0EB020263EBE07300985F
:1003200021464FEAE074B8EB000061EB0401E9E715
:1003300083F000435BE781F0004158E72DE9FE4F71
:1003400081EA030404F0004421F0004100944FF0DE
:10035000000B23F0004350EA01045ED052EA03048C
:100360005BD0C3F30A54C1F30A552C44A4F2F3340E
:100370000194A0FB0254C1F3130141F48011C3F3B3
:10038000130343F4801301FB024400FB034E840A71
:10039000970A44EA815447EA8357A4FB0768029509
:1003A0008D0A05FB07854FEA932C04FB0C542705A7
:1003B000029D4FEA065847EA1637B5EB08056EEB83
:1003C000070C870E920E47EA811742EA8312A7FBB9
:1003D0000201B6EB0B0164EB00042B0D43EA0C3376
:1003E0005E1844EB1C50DA465146E7FB0201C5F3A8
:1003F00013044FEA0B3343EA14534FEA0432019CCF
:1004000043EA0603A4F10C040294009CCDE900B475
:1004100000F004F903B0BDE8F08F00200146F9E7D1
:100420002DE9F04D81EA030404F0004B21F0004572
:1004300014464FF0000A23F0004150EA050220D094
:1004400054EA01021DD0C5F30A570246C5F313034F
:10045000C1F31300C1F30A5640F4801543F480132E
:10046000A7EB0608101BD64608F2FD3873EB050013
:1004700002D308F1010801E092185B41B8F1000FC6
:1004800003DA00200146BDE8F08D00204FF4801112
:10049000064684460EE0171B73EB050705D3121BB7
:1004A00063EB050306434CEA010C49084FEA3000B0
:1004B00092185B4150EA0107EDD152EA030012D0D5
:1004C00082EA040083EA0501084305D0101BAB4112
:1004D00006D20122002306E000224FF0004302E092
:1004E0006FF0010253101AEB06004CEB085110EBB1
:1004F0000A0041EB0B01BDE8F04D00F080B80EB5ED
:1005000040F2334102910021CDE900110A460B4629
:1005100000F084F803B000BDC1F30A5210B5C1F376
:10052000130140F2FF3341F480119A4201DA0020B6
:1005300010BD40F233439A42A2F2334203DC5242EE
:1005400000F03BF810BD904010BD00F0004230F0CC
:1005500000400AD0C10D01F56071C0F3160042EAF7
:100560000151C208400711437047002001467047FF
:1005700030B50B46014600202022012409E021FA73
:1005800002F59D4205D303FA02F5491B04FA02F570
:100590002844151EA2F10102F1DC30BD202A04DB43
:1005A000203A00FA02F1002070479140C2F1200386
:1005B00020FA03F3194390407047202A04DB203AC5
:1005C00021FA02F00021704721FA02F3D040C2F173
:1005D00020029140084319467047202A06DBCB17BA
:1005E000203A41FA02F043EAE07306E041FA02F3EE
:1005F000D040C2F12002914008431946704710B51F
:10060000141E73F1000408DA401C41F10001921835
:100610005B411A4301D120F0010010BD2DE9F04DDE
:1006200092469B4611B1B1FA81F202E0B0FA80F233
:1006300020329046FFF7B2FF04460F4640EA0A0018
:1006400041EA0B0153465A46084313D0114653EA78
:10065000010019D0C8F140025046FFF7AEFF054631
:100660000E46504659464246FFF798FF084305D0CC
:10067000012004E020463946BDE8F08D0020054306
:1006800046EAE0762C4337430A986305E40AA0EB78
:1006900008000022FD0A44EA47540A3002D500202F
:1006A0000146E9E7010510196941DDE9084500192E
:1006B0006941BDE8F04DA2E7C1F30A52C1F313014D
:1006C00040F2FF3341F480119A4202DA00200146E1
:1006D000704740F233439A42A2F2334202DC524264
:1006E000FFF76BBFFFF75ABF30B5041E71F100046E
:1006F00004DB4FF00044404264EB0101141E73F12F
:10070000000405DB1C464FF00043524263EB040338
:10071000994208BF904230BD064C074D06E0E068A4
:1007200040F0010394E8070098471034AC42F6D338
:10073000FFF702FD1035000830350008FEE7000025
:1007400010B5144C00210422204600F0D4FC48B11E
:1007500020460021042200F0C7FC0F484188418157
:100760008188818120460021022200F0C4FC48B12A
:1007700020460021022200F0B7FC0748C1884181D1
:1007800001898181204600210122BDE8104000F04E
:10079000ABBC00BF00000240200000207047FEE715
:1007A00080B501F059FC102001F084FC102001F00C
:1007B0008DFC012818BF80BD022000F0F3FC002052
:1007C00001F0CEFB002001F0DBFB4FF4806001F074
:1007D000CFFB002001F01AFD002001F021FD4FF4B5
:1007E00080304FF4501101F007FD182001F062FC39
:1007F000192001F053FC0028FAD0022001F01AFD64
:1008000001F020FD0028FBD080BDFEE77047704757
:100810007047000004480168013101600348016825
:1008200001310160704700BFA800002010000020C7
:100830005B491A4A086800F00C0008282AD110B554
:100840000B68174813F4803F0AD08B6A154C13F0DD
:10085000804F08BF14460A6812F4003F08BF2046C4
:100860000A680B681024C2F3834204EAD353096870
:100870001A4311F0804FBDE8104003D10E2A03D86F
:10088000911C05E042F02002511C3D2988BF3F2108
:1008900001FB00F204480260704700BF00127A00BA
:1008A00000093D00006CDC020400002010B53A484D
:1008B0004FF4D0323A4C3B4B016841F47001016077
:1008C0003649885840F00100885000202060A0621E
:1008D0008858184040F2FF7388504FF41F00606042
:1008E000885820F480208850885840F48030885000
:1008F000885823B110F40030A3F10103F8D04FF46D
:10090000D032885810F4003F00D1FEE7A069264B92
:1009100040F08050A061086840F4404008602068C2
:10092000206020682060206840F48060206020689B
:1009300020F440302060206840F44030206020687F
:1009400018401A4B2060206818432060885840F0F7
:1009500080708850885810F0007FFBD0086840F401
:1009600080300860486810F4803FFBD0086840F48D
:1009700000300860486810F4003FFBD0206820F089
:1009800003002060206840F002002060206810F022
:10099000080FFBD010BD00BF88ED00E000700040E4
:1009A00004100240FFFFF6FEFFFFC3B7000034084B
:1009B00010B5074C8021204601F087FE38B101F0C8
:1009C00089FA20468021BDE8104001F079BE10BDB3
:1009D000002C0140B0B54FF08040012101F075FEC0
:1009E000012816D14FF08040012101F069FE18481E
:1009F000184A01680446013144F8281B02C81268ED
:100A000042EA0145294600F0B1FA2046294600F0A5
:100A1000ADFA0F4C6068E16801F057FE012806D17D
:100A2000201D00F02DFA6068E16801F049FEA06A1F
:100A3000216B01F04AFE012818BFB0BD04F1280067
:100A400000F01EFAA06A216BBDE8B04001F038BE8C
:100A5000500000202400004010B50C4C012120461D
:100A600001F033FE012803D12046012101F028FEC8
:100A7000154841880131418089B2142938BF10BD21
:100A8000012101700021418010BD00BF0010004015
:100A900010B50C4C0121204601F017FE012803D1AE
:100AA0002046012101F00CFE074881880131818038
:100AB00009B2B1F57A7FB8BF10BD012141700021A4
:100AC000818010BD0014004018000020FEE70000E7
:100AD00070B5344D2878002862D1334E40F2026060
:100AE000B04740F20460B047304C0021032230236D
:100AF00004F5006000F064FB2046002103228A23F5
:100B000000F05EFB40F20A60B047022001F0F8F905
:100B100004F50054204600F089F8002000F0EEF8BB
:100B20002046002100F078F820464FF48071002222
:100B300000F0F0F820460221002200F0EBF82046F9
:100B40000121012200F04AF8204601214FF46022E1
:100B500000F0C0F820460121012200F0A0F8204654
:100B600000F094F8124E40F2E9303168013802D0BA
:100B700011F00101F9D098B1012000F0ABFA204644
:100B800000F01AF80B483168013018BF11F0080165
:100B9000F9D118B9306820F00800306001202870C1
:100BA00070BD00BF20000020A921000800080140FE
:100BB00008280140AF3CFFFF816841F008018160D7
:100BC000816811F0080FFBD1816841F00401816058
:100BD000816811F0040FFBD170470000B0B5022905
:100BE00007D0012918BFB0BD0A4D4FF470012C2366
:100BF00003E0074D4FF4401138231C5801EB02521B
:100C0000114025401D501D5829431950B0BD00BF4B
:100C1000FFFFCFFFFFFF0FFF8268002942F4006350
:100C200008BF22F4006383607047000080B5144958
:100C3000884210D01349884217D01349884218BF00
:100C400080BD40F2093001F0C9FA40F20930BDE838
:100C5000804001F0B5BA40F20F3001F0BFFA40F227
:100C60000F30BDE8804001F0ABBA40F20A3001F02D
:100C7000B5FA40F20A30BDE8804001F0A1BA00BFE9
:100C8000003C01400028014000240140816811F02F
:100C9000010F02BF816841F001018160704701F0DE
:100CA000010352B11BB1826842F48012826089074D
:100CB0000FD5816841F400410AE01BB1826822F43B
:100CC00080128260890758BF7047816821F4004113
:100CD00081607047022904D0012918BF7047064976
:100CE00000E0044983681940816081681143816094
:100CF000704700BFFF8FFFFFFFFFF1FF04490A6845
:100D000022F470220A600A6810430860704700BF2E
:100D10000424014001F4807382B11BB1426842F4A3
:100D2000807242604A0542BF426842F4806242607B
:100D3000890715D5816841F0020110E01BB14268B6
:100D400022F4807242604A0542BF426822F4806207
:100D50004260890758BF7047816821F002018160B5
:100D600070470000000000002DE9F8430D460446DE
:100D70002846FFF7C4FB9FED3A0B02460B4651ECA9
:100D8000100BFFF74DFB06460F46002D60D02046A6
:100D9000FFF7B5FB32463B4680468946FFF740FBEE
:100DA0009FED310B54EC105B2A462346FFF71FFAE8
:100DB000FFF7B2FB7F284CD93046394632463B46D6
:100DC000FFF715FA02460B4640464946FFF728FB57
:100DD0002A462346FFF70BFAFFF79EFB20F03F0160
:100DE000402901D1403034E09FED210B3046394697
:100DF00053EC102BFFF7A2FA02460B464046494639
:100E0000FFF70EFB2A462346FFF7F1F9FFF784FBB5
:100E100020F01F01202901D1A0301AE09FED160B10
:100E20003046394653EC102BFFF788FA02460B4642
:100E300040464946FFF7F4FA2A462346FFF7D7F91A
:100E4000FFF76AFB20F01F01202901D1C03000E02C
:100E50000020C0B201B0BDE8F08300BF00BF00BFFA
:100E60000000000065CDCD41000000000000E03F23
:100E700000000000000020400000000000003040A2
:100E800010B504462068A18801F08EFA216880B26E
:100E9000B1F1804F11BF002132490968090441EACC
:100EA000000C94F8201011B3002184F82010216860
:100EB000E2681AB10B6A23EA02020A6221696269D6
:100EC00052B3ACEB010194ED050A01EE101AB8EE35
:100ED000411AB8EE400A81EE000AB7EE001AB4EEED
:100EE000C10AF1EE10FAC8BFB0EE410A16E094F85C
:100EF000211019B12169ACEB010161610121C4F834
:100F000010C084F8211084F820102168E26852B1E2
:100F10000B6A1A430A6206E09FED130A012184ED71
:100F2000070A84F8221062699100002A0CBF4FF46E
:100F30008021920FB1F5803372F1000302D24FF499
:100F400080310BE0B1F1FF304FF0000372F100008F
:100F500038BF0123002B08BF4FF0FF3101EB0C001D
:100F6000A06110BD500000200000000090F821207A
:100F70006AB18269891A002909DB002180F82110F1
:100F800080F820104161C161012180F82210704772
:100F900083B0C0B50DF10C0CACE80E0003A90091B4
:100FA00000F06EF8BDE8884003B0704770B5244C7F
:100FB000054640F20360A0474FF4C060A04740F2EE
:100FC0001270A0472D4C182103224FF4806304F5C2
:100FD0004446304600F0F4F83046042103224FF432
:100FE000006300F0EDF8204601F0D2FB002D204612
:100FF00008BF4FF46135294601F0A4FB20460021CB
:1010000001F04CFC2046002101F03AFC2046002172
:1010100001F028FC2046002101F01EFC20460021A2
:1010200001F014FC2046042101F024FC2046082194
:1010300001F02EFC2046BDE8704001F0F7BB00BF78
:10104000A921000810B504460A2C02D10D2000F099
:1010500005F82046BDE81040AFF30080B0B5074D5D
:1010600004462846072101F0E6FB0028F9D028466F
:101070002146BDE8B04001F087BB00BF00480040FA
:1010800010B5A0B00B4602466846802101F00EFC68
:101090000446002C0CDB7F2C21466846A8BF7F212C
:1010A00000F00CF8802C03DB0348032100F006F865
:1010B000204620B010BD00BFBC340008B0B50C46BF
:1010C000054604E015F8010BFFF7BCFF013C002CBE
:1010D000F8D1B0BD38B19C490A6800E000BF0B6888
:1010E0009B1A8342FAD37047890002FA01F14268E1
:1010F000114341607047022A944607D0042A03D066
:10110000082A944602D0FEE74FF0040C8B0001EB56
:1011100081019A40036800EB81001A4018BF012248
:10112000806810EA0C0018BF0120104070470000D2
:101130009FED192A19489FED1A1AB4EEC20AF1EE72
:1011400010FAC8BFB0EE420A0068B5EEC00AF1EE70
:1011500010FAA8BFB0EE401AA8B1411CB6EE000AC2
:1011600002EE101AB8EE422A01EE020ABCEEC00AE4
:1011700010EE102A91424FF6FF7188BF1046884248
:1011800028BF084606E0B5EEC01A0020F1EE10FABE
:10119000C8BF012080B27047A4707D3F2C2C014055
:1011A0000000000003490A6822F0070210430860AB
:1011B000704700BF002002404161704701617047E5
:1011C00001F00F0C11F0100F09D0042A05D1C26BE9
:1011D0004CF0030C1A43C26301E04CEA020C2DE907
:1011E000F04100224FF0010E4FF00F08002517E0EC
:1011F0000EFA05F61E4211D0046808FA02F70CFA3E
:1012000002F6482924EA070446EA040603D02829FE
:1012100003D1142700E010273B500660043201354B
:10122000082DE5D108224FF0000E01244FF00F08E1
:10123000102A08BFBDE8F08104FA02F61E4211D060
:10124000456808FA0EF70CFA0EF6482925EA070554
:1012500046EA050603D0282903D1142700E0102709
:101260003B5046600EF1040E0132E1E78068084011
:1012700018BF0120704780B500F036FA0220BDE8A3
:10128000804000F0DBBB0000B0B500F01DFE30B9BF
:1012900000F00EFE18B900F0CFFD062809D128484D
:1012A0000078042800D1B0BD0420BDE8B04000F0B3
:1012B000C5BB23480078032813D22249486820B9C7
:1012C0002148006800284860EDD01F490968081AC5
:1012D00042F210718842E6D30320BDE8B04000F02E
:1012E000ADBB0CD100F006FB164890ED020ABCEE37
:1012F000C00A10EE100ABDE8B04000F0ABB900F033
:10130000D7FD0028CFD10F4C60680028CBD00E4904
:101310000968081AB0F57A7FC5D300F0D5FD08B189
:1013200000F090FD607808B9012060700020002571
:1013300000F030FD002000F081FB6570B0BD00BF03
:10134000B00000209C000020A8000020DB4880683E
:10135000704700BF10B501F005F802460C480024A4
:10136000002A006811D00B4901300023A0FB0101C5
:10137000FEF7FAFEB0F1FF3271F1000138BF01242F
:10138000002C08BF4FF0FF300446204610BD00BFC0
:101390002C2C014000CA9A3B2DE9F04391B0D0E9D2
:1013A00000128068DFF814935B4FC9E90112C9F895
:1013B0000C0040F20260B84740F20360B847574C57
:1013C000574E102103224FF480732046B047204629
:1013D0004FF48071FFF7F0FE04F5806510210322C1
:1013E0004FF400532846B04728464FF40051FFF70A
:1013F000E3FE2046182103224FF48073B0472846AD
:10140000182103224FF40053B047284648210322F5
:101410004FF480534FF48058B04740F20B60B84708
:1014200000F0A0FF0546D9F80400002704F5105489
:101430000DA90D97ADF83870ADF840708DF8427079
:10144000B5FBF0F00138C9F800000F90204601F01C
:10145000EDF80420CDF82E70CDF82A70012609AAE7
:101460000021ADF828002046099600F0A5FF20468F
:101470000021602201F088F820460021002201F0BE
:101480009FF820460021082201F0A0F80AAA07CA06
:10149000CDE90560CDE9071205AA20460221ADF885
:1014A000187000F089FF20460221602201F06CF8DC
:1014B00020460221002201F083F820460221082262
:1014C00001F084F84FF48060294601904FF40060E9
:1014D000ADF80000D9F80800ADF80E70FFF744FC35
:1014E000ADF8080069462046ADF81080CDF80A70C6
:1014F00000F04BFF2046602101F0F1F8204600F09B
:101500003FFF204601F07EF801F0FAF8002000F0DD
:1015100009F811B0BDE8F083A921000800080140D6
:10152000C1110008F8B5664C05460021204601F0BF
:10153000DEF820460021002201F042F8204600217A
:10154000102201F021F82046012101F064F8204624
:10155000012101F05CF82046012101F061F800282A
:10156000F9D02046012101F056F8002001216062E7
:10157000204601F0BCF82046002101F0B8F82046D2
:101580000021602201F000F84C4E96ED030AFFF7AF
:10159000CFFD02462046002101F012F8204601212D
:1015A00001F039F82046012101F031F820460121EF
:1015B00001F036F80028F9D02046012101F02BF87F
:1015C000002720460121676201F091F820460021A2
:1015D00001F08DF820460021002200F0F1FF7DB1DE
:1015E00020460121676201F082F896ED030AFFF7B9
:1015F0009FFD024620460021BDE8F84000F0E0BF14
:10160000F8BD00BF80B59FED112A9FED111A2B4840
:10161000B4EEC20AF1EE10FAC8BFB0EE420AB5EE5F
:10162000C00AF1EE10FAA8BFB0EE401AB0EE410ABF
:1016300080ED031AFFF77CFD02462148002100F0EF
:10164000BFFFBDE8804001F05BB800BFA4707D3FE4
:1016500000000000B0B5044674B300F083FE0146FC
:1016600051B3B1FBF4F0154D154C022898BF022080
:10167000B0F5803F28BF4FF48030421EB1FBF0F040
:101680002A60E2626860A868FFF76EFB616C21F077
:10169000FF010843606495ED030AFFF749FD024628
:1016A0002046002100F08CFF01F02AF8204601219D
:1016B000BDE8B04000F0ABBFB0BD00BF38000020B7
:1016C000002C014080B5064800214160A0F80110BF
:1016D00000F0D8FD9FED030ABDE8804000F0BABDE0
:1016E000B4000020000000002DE9F04F89B0C54C87
:1016F000207800284FD10020284A4FF496714FF0EF
:101700007C53A4F80100C4E9010004F10C000EC0F0
:1017100000F0B8FD94ED040A94ED061AB4EEC10A87
:10172000F1EE10FA06DB94ED071AB4EEC10AF1EE01
:1017300010FA03DDB0EE410A84ED041A00F08AFDD0
:10174000D4E903B0D4E905672062FEF7FEFE8046C7
:1017500030468946FEF7F9FE824638460E46FEF7C9
:10176000F4FE0746E0690D46FEF7EFFE41EC100B74
:101770000B4845EC117B46EC12AB42464B46CDF88C
:1017800008B08DED041B8DED060B8DED002BFFF7E2
:10179000FFFB0120207009B0BDE8F08FCDCCCC3D1F
:1017A000C034000897480078002818BFFFF78ABFA8
:1017B000704700BFB0B52DED048B3D4CB0EE409AA4
:1017C000207808B9FFF790FF9FED3A0A9FED3A8A1B
:1017D0003A4D00204FF49671B4EEC09AF1EE10FA33
:1017E000C8BFB0EE409AB5EEC09AF1EE10FAA8BFAD
:1017F000B0EE498AA0706060C4E9031584ED058AE3
:1018000000F040FD94ED060A94ED041A10EE100A63
:10181000B4EEC01AF1EE10FA014608DB94ED072A87
:10182000B4EEC21AF1EE10FA02DD12EE101A2161C6
:1018300094ED051AB4EEC01AF1EE10FA08DB94ED3F
:10184000070AB4EEC01AF1EE10FA02DD10EE100A2B
:1018500060619FED1A0AB4EEC08AF1EE10FA0EDD57
:10186000E06860B101209FED150A607014480068BF
:10187000A06000F0EFFC2562BDEC048BB0BD002041
:10188000B0EE480A607084ED048A84ED058A00F0A9
:10189000E1FC18EE100AFEF758FE024684ED088AB5
:1018A00008A00B46BDEC048BBDE8B040FFF770BB51
:1018B000B4000020A4707D3F00000000CDCCCC3DE2
:1018C000A80000205B4C4C432D53535D20736B6983
:1018D000707065643A20666978656420647574790F
:1018E0003D252E336620286E6F2072616D70290AA7
:1018F00000000000B0B52DED047B424C207808B903
:10190000FFF7F2FE6078002878D000F0DDFA10B919
:1019100000F0CEFA28B1BDEC047BBDE8B040FFF783
:10192000D1BE00F0AFFCA07838B194ED080ABDEC50
:10193000047BBDE8B04000F08DBC334AD4E902100E
:101940001268551A854224D200EE100A01EE105A90
:10195000B8EE400AB8EE411A81EE001AB5EEC01A90
:10196000F1EE10FA26DDB7EE000AB4EEC01AF1EE81
:1019700010FA21DA9FED300A21EE000A00F0ACFFE8
:10198000B7EE001AB6EE002A31EE400A20EE020A47
:1019900012E00020607094ED050A00F05BFC6069C5
:1019A0002062FEF7D2FD024618A00B460095FFF715
:1019B000EFFA23E09FED1F0A94ED041A94ED052A37
:1019C00094ED074A94ED063A32EE412A00EE021AEF
:1019D000B4EEC41AB0EE418AF1EE10FAB4EEC31AB6
:1019E000C8BFB0EE448AF1EE10FAB8BFB0EE438A39
:1019F000B0EE480A00F02EFC84ED088ABDEC047BB2
:101A0000B0BD00BFB4000020A80000205B4C4C43D8
:101A10002D53535D20646F6E653A20647574793D73
:101A2000252E336620616674657220256C75206DE5
:101A3000730A000000000000DB0F4940B0B51A49EE
:101A40001A4C03280870D249096861600FD8DFE892
:101A500000F0020E1320FFF7A5FE00F087F900202A
:101A60000025FFF75FFD002000F094F90FE0FFF77D
:101A700099FE00F07BF903E0FFF794FE00F07CF99B
:101A80000020002500F086F90020FFF74BFDA5603F
:101A9000B0BD0020B6EE000AA060FFF78BFE01206B
:101AA000BDE8B040FFF73EBDB00000209C00002024
:101AB000FEB5FEF775FE4FF4A06000F0A7F84FF4F6
:101AC0006130FFF773FA1EA04FF46131FFF760FA3F
:101AD00000F026FC2448D0E9001280680290684695
:101AE000CDE90012FFF758FC00F0B0F900F0E0F982
:101AF00038B900F0E9F920B100F0A4F90A2000F0AB
:101B0000F1F900F069F9FFF7B6FB00F02FF9174C77
:101B1000002572B6206800281ABF266825600026B6
:101B200062B608E0FFF7B0FB062E04D36068052616
:101B300038440638606037467E1E002FF2D1E8E751
:101B4000446562756720636F6E736F6C6520696EA4
:101B5000697469616C697A65642040256C752062DE
:101B60006175640A00000000A8340008100000201D
:101B700010B52A4C236803F4E063B3F5E06F03D19A
:101B80004FF0000C042328E0236803F4E063B3F56E
:101B9000C06F03D14FF0010C03231EE0236803F450
:101BA000E063B3F5A06F03D102234FF0020C14E001
:101BB000236803F4E063B3F5806F03D14FF0030CA7
:101BC00001230AE023684FF0040C03F4E063B3F54B
:101BD000407F4FF0040308BF002399400F2323FAEE
:101BE0000CF31A401143084A090140EA020383F842
:101BF00000131C21012301EAD00100F01F0003FAA9
:101C000000F0885010BD00BF00E100E00249084329
:101C100002490860704700BF0000FA050CED00E0C3
:101C200070B588B00546002D46D040F2036000F044
:101C3000BBFA364C182103220123012604F5843017
:101C4000FFF7BEFA40F2017000F0AEFA022000F099
:101C5000A1F9CF49096811F4E06118BF012188405A
:101C60002749B0FBF5F0002501380495ADF8145074
:101C7000ADF81C508DF81E500860069004A920464F
:101C800000F0D4FC6A4620460221ADF806500096CA
:101C9000ADF80A5000F090FB20460221602200F0CF
:101CA00073FC20460221002200F08AFC204600F04E
:101CB00067FB204600F0A6FC08B070BD9FED111A2E
:101CC0000F489FED112A0221B4EEC10A0068F1EE1F
:101CD00010FAC8BFB0EE410AB5EEC00AF1EE10FA34
:101CE000A8BFB0EE402A00EE100A0848B8EE400A3D
:101CF00022EE000ABDEEC00A10EE102A00F060BC11
:101D0000D8000020A4707D3F0000000000040040C7
:101D100080B52DED028BB5EEC00AF1EE10FA12DDA2
:101D20009FED108AB4EEC80AF1EE10FA0DDB9FEDBC
:101D30000E1AB4EEC10AF1EE10FAC8BFB0EE410AB5
:101D4000B0EE408A01E09FED068AB0EE480AFFF748
:101D5000B5FF3B4880ED098ABDEC028B80BD00BF1A
:101D600000000000CDCC4C3D3333733F344800219C
:101D700080F82810704700BF3148012180F82810F2
:101D8000027802B1704701705C4909684160704790
:101D9000A8000020B0B504460E480178A14208BF53
:101DA000B0BD047040F2046000F0FEF9524D102105
:101DB00003224FF480632846FFF702FA28464FF4C7
:101DC00080611CB1BDE8B040FFF7F8B9BDE8B04094
:101DD000FFF7F2B9AC00002010B50C4C50212046A2
:101DE000FEF7FAF90A490020C4E90610207044F60B
:101DF0002060FFF715FF9FED070AFFF75FFFFEF773
:101E000067FEBDE8104000F007B800BFDC0000200E
:101E10000000C8430000000080B59FED060AFFF7F0
:101E200077FF0748002101620020BDE88040FFF7EE
:101E3000B1BF00BF0000000001480078704700BF3C
:101E4000DC0000202648002101707047B0B5174C17
:101E500040F20460A04740F20360A0474FF4C06026
:101E6000A047254C802104F5E055284600F028FCC9
:101E70002846802100F020FC182000210022FFF7D6
:101E800077FE2046102103224FF40063FFF798F9F4
:101E900020464FF40061FFF78FF900F009F80028A1
:101EA00014BFBDE8B040B0BD00F014B8A9210008CF
:101EB00080B504484FF48051FFF7D8F9B0FA80F0AC
:101EC000400980BD000C014005480078002818BF7B
:101ED000012070470248012101700020FFF722BB5A
:101EE000AD00002080B504484FF40061FFF766F9AB
:101EF0000248006880BD00BF00100140A80000201B
:101F000070B5D34E134A0B28316802EA0102B16A58
:101F100021F000531BD801248440250709D114F473
:101F2000706F09D00C4B03EA803041F0005302433C
:101F30000DE042EA80320AE00121814011F0A00F59
:101F40001FBF064901EA8030104340F080523260E2
:101F5000B36270BDFF3FFFEF00C0FCFF00C0FEEFAB
:101F6000BB490A6822F0F00210430860704700BFC6
:101F7000B7490A6822F4E06210430860704700BF66
:101F8000B3490A6822F4605210430860704700BFEA
:101F900004100240B0B5274A1168C1F381032649F5
:101FA000022B27D11368254C13F4803F0AD0936A83
:101FB000234D13F0804F08BF0D46116811F4003F08
:101FC00008BF2C4611681368102505EAD353C1F3E6
:101FD00083411943136813F0804F03D10E2903D8AE
:101FE0008B1C05E041F020013F233F2938BF4B1CEB
:101FF00003FB04F1136815680328C5F3022CC3F32F
:10200000031312680AD810A50E4CEB5C21FA03F3F7
:10201000DFE800F00E020609194609E0002107E09A
:1020200014F80C0002E0C2F3C220205C23FA00F195
:102030000846B0BD0410024000127A0000093D00BD
:10204000006CDC02B4340008000000000000000056
:10205000010203040607080910B5664C206840F029
:1020600001002060002000F031F860680949084054
:1020700009496060206808402060206820F48020C2
:1020800020604FF41F00A060E06A20F0C040E062D2
:1020900010BD00BF0C000020FFFFF6FE554A81096D
:1020A00000F01F008958012202FA00F0084018BF12
:1020B0000120704710B54F4C810900F01F0001222C
:1020C00002FA00F00B591843085110BDF0B1102866
:1020D0002BD043F21001884236D0B0F5006F42D0C9
:1020E000B0F5106F4DD018281CBF002070472C4948
:1020F000404B002218680029C0F3406008BF7047B9
:102100001206A1F101010246F4D047E0394B00224A
:102110004FF4A06118680029C0F340003ED01206B9
:10212000A1F101010246F5D038E0324B00224FF414
:10213000006118680029C0F340402FD01206A1F1B9
:1021400001010246F5D029E015492A4B0022D3F8B7
:10215000C0000029C0F3404020D01206A1F10101C7
:102160000246F4D01AE00F49224B0022186A0029D7
:10217000C0F3400012D01206A1F101010246F5D0D1
:102180000CE007491B4B0022586A0029C0F34000AD
:1021900004D01206A1F101010246F5D0704700BF3C
:1021A000FFFF0F00FFFFFF0310B5124C810900F085
:1021B0001F00012202FA00F00B591843085110BD0C
:1021C00010B50C4C810900F01F00012202FA00F04A
:1021D0000B5923EA0000085110BD00BF10B5054C93
:1021E000810900F01F00012202FA00F00B59184388
:1021F000085110BD0010024008436049024B0A68B4
:102200001A40104308607047FFFFC2B703490A68CD
:1022100022F0804210430860704700BF2C1002403B
:10222000564901280A6822F4003308BF42F40033FB
:102230000B60704751490A6822F00302104308609E
:10224000704700BF4D48006800F00C00704700BFA9
:1022500004100240314890ED072A90ED061AB4EEC2
:10226000C02AF1EE10FAB4EEC01AB8BFB0EE420ABE
:10227000F1EE10FAC8BFB0EE410A80ED080AFFF790
:10228000C1B900BF10B52DED028BFFF763F89FEDCC
:102290001F8A0446FFF75AF88CB100280FDB00EEC6
:1022A000100A02EE104A9FED191AB8EE400AB8EE75
:1022B000422A30EE000A80EE020A30EE018AB7EEC2
:1022C000001A9FED130A9FED132A9FED133A13484E
:1022D00031EE481AB4EEC01AF1EE10FAB4EEC28A2A
:1022E000C8BFB0EE401AF1EE10FAB4EEC31AC8BF80
:1022F000B0EE428AF1EE10FAA8BFB0EE413A80ED9E
:10230000068A80ED073ABDEC028B10BD0AD7A33CCC
:10231000A4707D3F48E1FA3E5C8F023FB40000208C
:1023200080B5FEF785FA0B484FF47A730A4900220C
:1023300000680A60B0FBF3F0084B0138984238BFE0
:10234000034607484B608A608022027007200860BD
:1023500080BD00BF0400002010E000E0FFFFFF0090
:1023600023ED00E080B50320FFF714FE0349096860
:1023700011F4605118BF0121884080BD0410024053
:10238000016841F08001016070470A884B681A4378
:102390000B891A434B891A438B891A43CB89098AC3
:1023A0001A4311434164704703298EBF002000EB9C
:1023B0008100406B70470000032988BF7047DFE849
:1023C00001F0023C7ABA016A21F001010162116850
:1023D000036A19430162016A21F002010162D18896
:1023E000036A19430162B249884202D0D449884243
:1023F0001FD1016A21F0040101629188036A194327
:102400000162016A21F0080101621189036A19431E
:102410000162416821F48071416051894368194328
:102420004160416821F40071416091894268114323
:1024300041606FF003021821A0E0016A21F0100151
:1024400001621168036A43EA01110162016A21F025
:1024500020010162D188036A43EA011101629449B3
:10246000884202D0B649884223D1016A21F0400156
:1024700001629188036A43EA01110162016A21F055
:10248000800101621189036A43EA01110162416816
:1024900021F4806141605189436843EA81014160D0
:1024A000416821F4006141609189426842EA8101FA
:1024B0004160182161E0016A21F4807101621168B4
:1024C000036A43EA01210162016A21F40071016299
:1024D000D188036A43EA012101627549884202D02A
:1024E0009749884223D1016A21F480610162918871
:1024F000036A43EA01210162016A21F40061016279
:102500001189036A43EA01210162416821F4805183
:1025100041605189436843EA01114160416821F4F7
:10252000005141609189426842EA011141606FF0B7
:1025300003021C2122E0016A21F48051016211682A
:10254000036A43EA01310162016A21F40051016228
:10255000D188036A43EA013101625549884202D0B9
:102560007749884208D1416821F48041416051890E
:10257000426842EA811141601C21024A0B581A400C
:102580000A507047FFFCFFFF032988BF7047DFE850
:1025900001F0020D050A50F8181F01E050F81C1F49
:1025A00021F0700107E050F81C1F01E050F8181FDF
:1025B00021F4E0411202016001681143016070479B
:1025C00003299CBF00EB810042637047032988BF49
:1025D0007047DFE801F0020D050A50F8181F01E00E
:1025E00050F81C1F21F0080107E050F81C1F01E003
:1025F00050F8181F21F400611202016001681143B4
:1026000001607047016841F0010101607047426953
:10261000114341617047026922EA0101016170477B
:102620000069084018BF0120704700000A88B0F117
:10263000804F82620ED01B4A90420BD01A4A9042C1
:1026400008D01A4A904205D0194A904202D03C4A1A
:1026500090420BD1026822F0700202604A8803683F
:102660001A4302608A8803681A4302608A68114B21
:10267000C26240F480629A4207D0026822F440723B
:1026800002608A8903681A430260094A904202D0B4
:102690002B4A904201D1897B0163416941F00101DC
:1026A000416170470004004000080040000C0040F9
:1026B0000034014000140040C2681143C1607047FB
:1026C000026922EA010101617047C2680A4018BF2D
:1026D00001220069084018BF01201040704742687D
:1026E00022F0700242604268114341607047426CC0
:1026F000012922F4004308BF42F4004343647047B9
:102700000F48C16AC1B14A1CB6EE000A01EE102A98
:102710004FF6FF72B8EE411A01EE000ABCEEC00A95
:1027200010EE103A002B08BF01238B4228BF8B18F4
:1027300002219AB2FFF744BF02210022FFF740BFF7
:10274000002C0140B0B50D463349044602208C42AE
:102750000CD032498C4209D031498C4206D03149E3
:102760008C4203D0304884420CD10320C0B2FFF722
:1027700011FC00EB5500A168B0FBF5F080B20843F6
:10278000A060B0BD0020F4E76FF35F2141607047A7
:1027900080B52149884216D0204988421DD0204961
:1027A000884224D01F4988422BD01F49884218BF35
:1027B00080BD40F20E30FFF711FD40F20E30BDE853
:1027C0008040FFF7FDBC40F21140FFF707FD40F2EB
:1027D0001140BDE88040FFF7F3BC40F21240FFF724
:1027E000FDFC40F21240BDE88040FFF7E9BC40F23A
:1027F0001340FFF7F3FC40F21340BDE88040FFF7C1
:10280000DFBC40F21440FFF7E9FC40F21440BDE8A1
:102810008040FFF7D5BC00BF0044004000480040A6
:10282000004C00400050004000380140C16841F4B5
:102830000051C16070478A0901F01F011058012240
:1028400002FA01F1084018BF01207047426922F4E2
:102850000072114341617047426922F48072114352
:1028600041617047C26822F4C062C260C26811430D
:10287000C1607047C26822F004021143C160704712
:10288000026922F4405202610269114301617047FA
:10289000C26822F008021143C1607047C26822F486
:1028A0008052C260C2681143C16070477CB5044663
:1028B00000201D46164600290BD0491ECDE90041D7
:1028C000044B6A462946304600F03CFA009A002143
:1028D00011707CBD7334000810EE101A08B5444A1C
:1028E0006846B2EB410F28D94FF0E640B0EB410FFC
:1028F00094BF00204FF0FF3000900098002861DB6B
:1029000060EE000A10F0010F45D010F0020FDFED6D
:10291000391A9FED391A00EEA11ADFED381A40EE90
:10292000811A21EEA01AF0EE400A40EE010A08BF1B
:10293000F1EE600AB0EE600A08BD314B21F00042B2
:1029400093423CD911F0004FDFED2E0A20EE201A01
:10295000DFED2D0A19BF31EE601A71EE200A31EE5B
:10296000201A71EE600ABDEEE01A11EE100A9FED1A
:10297000271A00F0030000EEC10A9FED251A00900F
:1029800000EEC10A9FED231A00EEC10A9FED221A44
:1029900000EEC10AB1E79FED211A9FED210A10F068
:1029A000020F00EE810A9FED1F1A00EE801AB7EEAB
:1029B000000A00EE810A18BFB1EE400A08BD00F01F
:1029C0003FF89AE710EE100A4000B0F17F4F3CBF8D
:1029D000B7EE000A08BD07D14FF0010000F0EAF899
:1029E000BDE8084000F024B8BDE8084000F01CB87D
:1029F000B61F927E336D4CB9DA82083CA0AA2ABE7B
:102A0000490E494683F9223F0000004B0000C93FB0
:102A100000A0FD390020A2331A61342CB93AB2BAB1
:102A2000CA9F2A3DDDFFFFBE30EE000A704700005E
:102A3000DFED020A80EEA00A7047000000000000EF
:102A40002DE9F0014FF07F42B2EB410F9FBF4FF0F5
:102A5000FF310160BDE8F00170474FF0004242EAEB
:102A60000123C1F3C752783A551112F01F0C434CA1
:102A7000CCF120067C44C1F3C752A2F178024FEAA0
:102A8000621204EB820254F8254008BFD2E90156D5
:102A900012D0556804FA0CF425FA06F73C439768FF
:102AA00005FA0CF527FA06F8D26807FA0CFCF24092
:102AB00045EA08054CEA0206A4FB034CA5FB0352B9
:102AC000A6FB03631D449D4234BF01260026131953
:102AD000334416B1934202D903E0934201D201225A
:102AE00000E00022624402F1200C9206DC0C42EA73
:102AF000443200EE102A5B03DFED210AF8EEC01A23
:102B000000EE103A4FEA9C1C11F0004FB8EE400A5C
:102B1000C0F800C020EE201A00EE105ADFED190AAE
:102B2000B8EE400A20EE200A71EE810A70EE800AAB
:102B300010EE902A02F500626FF30B0200EE902A6D
:102B400070EEE11A31EEC11ADFED101A30EE411AC3
:102B50009FED0D0A20EE800A01EE210A9FED0C1A6E
:102B600000EE810A04BFBDE8F0017047CCF180514E
:102B70000160BDE8F001B1EE400A7047100A0000A4
:102B8000000000360000802C22AAFD29DB0FC92F8F
:102B90000000C92F02E008C8121F08C1002AFAD19C
:102BA00070477047002001E001C1121F002AFBD1CD
:102BB00070470000014908607047000000000020D5
:102BC0002DE9FF5F82B00021DDE90430020DDDF860
:102BD00040B0034318D044F61050A2F2FF324243F3
:102BE0001514119801281FD0A5EB0B00401C5FEABB
:102BF000000A4FF000064E4FDFF83891B0465046BD
:102C000015D5CAF1000413E0119801244AA3012844
:102C100001D16FEA0B010298119AC0E90031C0E9B5
:102C2000024206B0BDE8F09FCBF10000DFE70446AA
:102C30000021404A491842EB0450CDE9001012E04F
:102C4000E00707D032463B4640464946FDF776FB53
:102C50008046894632463B4610461946FDF76EFBD4
:102C600006460F466410002CEAD1DDE90401DDE9D7
:102C70000023BAF1000F06DAFDF760FB42464B462F
:102C8000FDF75CFB05E0FDF7CBFB42464B46FDF74D
:102C9000C7FB04460E460022284BFDF725FD03D84E
:102CA0004FF0FF30014607E00022254B2046314619
:102CB000FDF79DFAFDF700FD102409E0002C0ADB6A
:102CC0000A220023FDF750FA039B30321A55641E86
:102CD00050EA0102F2D1641C039AC4F111031444B6
:102CE000119A012A03D0012208430DD10AE00843BA
:102CF00004D000204FF0110B119072E7A3EB0B05ED
:102D00006D1E0DE05B4504DD4FF0000205F101058D
:102D100004E003DA4FF00002A5F10105002AECD02F
:102D200002981199C0E90231C0E9004579E7000035
:102D3000000014400000F03F300000000000F043AD
:102D40000000E03F2DE9FF4F95B09B4689460646BF
:102D500000250FE2252877D100242746F84A0121D3
:102D6000059400E0044316F8013F203B01FA03F00C
:102D70001042F7D130782A2811D06FF02F03307825
:102D8000A0F13002092A16D8059A44F0020402EB99
:102D9000820203EB42021044761C0590EFE759F8DB
:102DA000042B0592002A03DA504244F400540590A3
:102DB00044F00204761C30782E2816D116F8010F44
:102DC00044F004042A280DD06FF02F023078A0F1CF
:102DD0003003092B09D807EB870302EB4303C7181D
:102DE000761CF3E759F8047B761C30786C280FD0FA
:102DF00006DC4C2817D068280DD06A2814D104E0CE
:102E0000742810D07A280FD10DE044F400140AE0A1
:102E100044F4801401E044F440147278824202D1F8
:102E200004F58014761C761C307866280BD013DCF1
:102E3000582877D009DC002875D04528F6D04628D8
:102E4000F4D047281AD19DE118E0632835D06428D2
:102E500079D0652812D195E1702873D008DC6728F5
:102E6000F1D069286FD06E280DD06F2806D1B5E05B
:102E700073282CD0752875D0782874D05A461799A5
:102E800090476D1C75E1C4F30250022809D0032855
:102E90000DD0D9F8001004280DD00D6009F10409F7
:102EA00067E1D9F80010EA17C1E90052F6E7D9F84E
:102EB00000100D80F2E70D70F0E719F8041B8DF893
:102EC000001000208DF80100EA46012003E059F8C7
:102ED00004AB4FF0FF3061074FF0000102D40DE06A
:102EE00008F101018846B9420FDA8045F8DB1AF88B
:102EF00008100029F4D108E008F101018846814258
:102F0000FADB1AF808100029F6D105985B46A0EB09
:102F1000080721463846179A00F094FA284400EB37
:102F2000080507E04DE029E10DE01AF8010B5A46CB
:102F300017999047B8F10108F7D25B462146384609
:102F4000179A13E142E00A220092C4F302524FF0B2
:102F5000000A022A08D059F804CB032A4FEAEC7180
:102F60000AD00DE029E02AE009F1070121F007026B
:102F7000F2E802C1914609E00FFA8CFC4FEAEC71CD
:102F8000042A03D14FFA8CFC4FEAEC71002907DACE
:102F90000A460021DCF1000C61EB02012D2202E067
:102FA000220504D52B228DF80420012203E0E2073C
:102FB00001D02022F7E7904659E00A2102E01022D2
:102FC0000DE010214FF0000A00910BE010224FF0AD
:102FD000000A44F004040827009203E008224FF09E
:102FE000000A0092C4F30252022A05D059F804CB19
:102FF0000021032A08D009E009F1070121F00702A6
:10300000F2E802C1914605E01FFA8CFC042A01D1C6
:103010000CF0FF0C4FF00008220728D5702806D0CE
:10302000009B83F0100353EA0A0305D00EE0402210
:103030008DF80420012208E05CEA010206D030226B
:103040008DF804208DF8050002229046009B83F045
:10305000080353EA0A030AD15CEA010201D16207BC
:1030600005D530228DF804204FF001087F1E582826
:1030700004D034A003900EA802900DE036A0F9E72A
:1030800053466046009AFDF76FF884460398825CC9
:103090000298401E029002705CEA0100F0D1029892
:1030A00006A9081A00F1200A600702D524F480342A
:1030B00000E00127574502DDA7EB0A0000E00020F1
:1030C00000EB0A01009005984144401A0590E00386
:1030D00006D45B462146179A059800F0B3F90544DB
:1030E000002706E001A85A46C05D179990476D1C5D
:1030F0007F1C4745F6DBE0030CD55B462146179A5B
:10310000059800F09FF9054404E030205A461799CD
:1031100090476D1C0099481E00900029F5DC08E0DE
:10312000029802995A460078491C029117999047D3
:103130006D1CBAF10001AAF1010AF1DC65E10000A1
:10314000092801003031323334353637383961627D
:103150006364656600000000303132333435363741
:1031600038394142434445460000000000F058F918
:103170000544761C307800287FF4ECAD19B0284661
:10318000BDE8F08F620700D4062709F1070222F09C
:10319000070CFCE80223E14603F000485FEA080C54
:1031A00002D00FF2702C0DE05FEA045C02D50FF242
:1031B000682C07E05FEAC47C02D00FF2602C01E0CB
:1031C000AFF2700C4FF0FF3823F00043CDF850C041
:1031D00065280CD006DC452809D046281DD0472894
:1031E0003DD13DE0662818D067287ED138E0002127
:1031F000112F01DB112000E0781CCDE9000106A9A8
:103200000EA8FFF7DDFCDDE90F010E9A0391002106
:10321000009207F1010A04914DE04FF00040009741
:10322000CDE9011006A90EA8FFF7CAFCDDE90F02DF
:1032300003920E9B11990022DDF80CA000930492DA
:1032400011B9791C00EB010AB7EB0A0004D4C0F1F4
:10325000FF3007F1010A0490AAEB0700019044E057
:10326000012F00DA01270021112F01DD112000E0DC
:103270003846CDE9000106A90EA8FFF7A1FCDDE95B
:103280000F010E9A0391002104910092BA46210782
:103290000CD40399514500DA8A46BAF1010F05DDD5
:1032A000009AAAF10101515C302908D0B84202DA33
:1032B00010F1040F06DA0121CDE9011015E0AAF1A1
:1032C0000101E9E7002805DC049901440491AAEB17
:1032D000000102E0411C514500DD8A460499401A74
:1032E000401C01904FF000400290200704D4019848
:1032F000504501DBCDF8048000208DF84F00029886
:103300000DF14F07B0F1004F25D02B200E90029801
:103310004FF0020800280CDA404202902D200E9057
:1033200007E00A210298FDF723F93031029007F8EF
:10333000011DB8F10001A8F10108F2DC0298002893
:10334000EFD1791E0E980870307800F0200040F020
:10335000450007F8020D12A8C01B00F107081498D9
:10336000007800B1012000EB0A01019801EBE07147
:1033700005984144401A401E0590E00306D45B4680
:103380002146179A059800F05DF8054414980078D6
:1033900018B15A46179990476D1CE00324D55B4637
:1033A0002146179A059800F04DF805441CE0049852
:1033B000002807DBDDE90301884203DD0098405C5B
:1033C000179901E0179930205A469047049805F163
:1033D0000105401C04900198401E019004D12E204C
:1033E0005A46179990476D1CBAF10001AAF1010ADB
:1033F000DDDC05E017F8010B5A46179990476D1C64
:10340000B8F10001A8F10108F4DC5B462146179AE7
:103410000598ABE62D0000002B0000002000000006
:103420002DE9F041044600251E461746880404D4C1
:1034300005E039462020B0476D1C641EF9D52846AA
:10344000BDE8F0812DE9F041044600251E46904676
:10345000C80301D5302700E02027880404D505E003
:1034600041463846B0476D1C641EF9D52846BDE874
:10347000F0814A68002A06D00A68531C0B6010705D
:103480004868401E48607047000000006E83F9A243
:103490002915444ED15727FCC0DD34F5999562DBE0
:1034A0004190433CAB6351FE30560100F4010000F3
:1034B0000000003F00000000010203042E2E2E0039
:1034C0005B4C4C432D4F70656E4C6F6F702D53539A
:1034D0005D2072657365743A2073746172743D2562
:1034E0002E3366207461726765743D252E33662025
:1034F0006475723D256C75206D7320736166655B24
:10350000252E33662C20252E33665D0A0000000030
:10351000303500080000002010000000942B000847
:10352000403500081000002020050000A42B0008F2
:1035300000000000000E270700000000000000004F
:0400000508000131BD
:00000001FF
