:020000040800F2
:10000000C0080020450100086D0900085D090008CE
:1000100069090008E9070008790C000800000000E1
:10002000000000000000000000000000750900084A
:10003000590900080000000071090008790900084A
:100040005F0100085F0100085F0100085F01000810
:100050005F0100085F0100085F0100085F01000800
:100060005F0100085F0100085F0100087D080008CB
:10007000F10800085F0100085F0100085F01000847
:100080005F0100085F0100085F0100085F010008D0
:100090005F0100085F0100085F0100085F010008C0
:1000A000610B00085F0100085F0100085F010008A4
:1000B0005F0100085F0100088D0B00085F01000868
:1000C0005F0100085F0100085F0100085F01000890
:1000D0005F0100085F0100085F0100085F01000880
:1000E0005F0100085F0100085F0100085F01000870
:1000F0005F0100085F0100085F0100085F01000860
:100100005F0100085F0100085F0100085F0100084F
:100110005F0100085F010008C50B00081D0C000806
:100120005F0100085F0100085F0100085F0100082F
:10013000DFF80CD000F00EFB004800472D550008FA
:10014000C00800200648804706480047FEE7FEE753
:10015000FEE7FEE7FEE7FEE7FEE7FEE7FEE7FEE777
:10016000FD0A0008310100082DE9F05F0546002076
:1001700092469B4688460646814640241BE0284618
:1001800041464746224600F017FA53465A46C01ADF
:10019000914110D311461846224600F0FEF92D1A5F
:1001A00067EB01084F4622460120002100F0F5F9D7
:1001B00017EB00094E41201EA4F10104DFDC484684
:1001C00031462A464346BDE8F09F40EA01039B07BB
:1001D00003D009E008C9121F08C0042AFAD203E0BC
:1001E00011F8013B00F8013B521EF9D27047D2B220
:1001F00001E000F8012B491EFBD270470022F6E710
:1002000010B513460A4604461946FFF7F0FF20468C
:1002100010BD2DE9FE4F804681EA0300C00F0C4659
:10022000009021F0004123F00045B8EB0200A94105
:1002300005D24046214690461C460B46024623F016
:100240000040104347D0270DC7F30A00C3F30A51FB
:100250000290401A019040286BDAC3F3130040F477
:10026000801B0098924620B10023D2EB030A63EB77
:100270000B0B01985946C0F14002504600F08DF931
:1002800006460D4650465946019A00F0A5F910EB76
:1002900008006141002487EA115284EAE7731A4397
:1002A00040D0009A62B3019A012A4FEA075215DC46
:1002B000001B61EB02014FF0004202EA0752CDE958
:1002C0000042001C41F5801132462B4600F0C3F974
:1002D00003B0BDE8F08F40462146F9E7001B61EB13
:1002E0000201001C41F5801300185B412018A2F5A3
:1002F000001747EB030140EAD570B6196D4111E0D4
:100300006D084FEA360645EAC0754FEA0752001BF2
:1003100061EB0201001C41F5801149084FEA3000F1
:100320000019514132462B4603B0BDE8F04F00F0B2
:1003300083B90098012240000023D0EB020263EB56
:10034000E073009821464FEAE074B8EB000061EBDF
:100350000401E9E783F000435BE781F0004158E7DF
:100360002DE9FE4F81EA030404F0004421F000412E
:1003700000944FF0000B23F0004350EA01045ED0DC
:1003800052EA03045BD0C3F30A54C1F30A552C4468
:10039000A4F2F3340194A0FB0254C1F3130141F41D
:1003A0008011C3F3130343F4801301FB024400FBE9
:1003B000034E840A970A44EA815447EA8357A4FB10
:1003C000076802958D0A05FB07854FEA932C04FB0D
:1003D0000C542705029D4FEA065847EA1637B5EB3D
:1003E00008056EEB070C870E920E47EA811742EA6A
:1003F0008312A7FB0201B6EB0B0164EB00042B0D8B
:1004000043EA0C335E1844EB1C50DA465146E7FBD6
:100410000201C5F313044FEA0B3343EA14534FEAC6
:100420000432019C43EA0603A4F10C040294009CEC
:10043000CDE900B400F00FF903B0BDE8F08F002063
:100440000146F9E72DE9F04D81EA030404F0004B81
:1004500021F0004514464FF0000A23F0004150EA15
:10046000050220D054EA01021DD0C5F30A57024606
:10047000C5F31303C1F31300C1F30A5640F480150A
:1004800043F48013A7EB0608101BD64608F2FD388C
:1004900073EB050002D308F1010801E092185B41FB
:1004A000B8F1000F03DA00200146BDE8F08D00200E
:1004B0004FF48011064684460EE0171B73EB0507C8
:1004C00005D3121B63EB050306434CEA010C4908F4
:1004D0004FEA300092185B4150EA0107EDD152EA31
:1004E000030012D082EA040083EA0501084305D024
:1004F000101BAB4106D20122002306E000224FF080
:10050000004302E06FF0010253101AEB06004CEBBF
:10051000085110EB0A0041EB0B01BDE8F04D00F073
:100520008BB80EB540F2334102910021CDE90011A4
:100530000A460B4600F08FF803B000BDC1F30A5223
:1005400010B5C1F3130140F2FF3341F480119A4218
:1005500001DA002010BD40F233439A42A2F2334246
:1005600003DC524200F028F810BD904010BD30B5B9
:100570000B46014600202022012409E021FA02F561
:100580009D4205D303FA02F5491B04FA02F52844FB
:10059000151EA2F10102F1DC30BD202A04DB203A55
:1005A00000FA02F1002070479140C2F1200320FAC6
:1005B00003F3194390407047202A04DB203A21FAC4
:1005C00002F00021704721FA02F3D040C2F120026C
:1005D0009140084319467047202A06DBCB17203A82
:1005E00041FA02F043EAE07306E041FA02F3D04038
:1005F000C2F12002914008431946704710B54100EE
:100600000CD0C0F3C751962908DC7E2909DC06DB33
:10061000410204D000F0004040F07E5010BD0020A8
:1006200010BDC1F19604C4F1200100FA01F1E040CF
:1006300000F0A2F8A04010BD10B5141E73F1000424
:1006400008DA401C41F1000192185B411A4301D1C4
:1006500020F0010010BD2DE9F04D92469B4611B1EE
:10066000B1FA81F202E0B0FA80F220329046FFF750
:1006700094FF04460F4640EA0A0041EA0B01534644
:100680005A46084313D0114653EA010019D0C8F165
:1006900040025046FFF790FF05460E465046594629
:1006A0004246FFF77AFF084305D0012004E02046C8
:1006B0003946BDE8F08D0020054346EAE0762C433C
:1006C00037430A986305E40AA0EB08000022FD0AFC
:1006D00044EA47540A3002D500200146E9E7010503
:1006E00010196941DDE9084500196941BDE8F04D7F
:1006F000A2E7C1F30A52C1F3130140F2FF3341F400
:1007000080119A4202DA00200146704740F23343DA
:100710009A42A2F2334202DC5242FFF74DBFFFF78A
:100720003CBF000030B5041E71F1000404DB4FF043
:100730000044404264EB0101141E73F1000405DB28
:100740001C464FF00043524263EB0403994208BF3A
:10075000904230BD064C074D06E0E06840F00103D2
:1007600094E8070098471034AC42F6D3FFF7E4FC56
:10077000F8880008188900080029A8BF7047401CA5
:10078000490008BF20F00100704710B4B0FA80FCA7
:1007900000FA0CF050EA010404BF10BC704749B1E4
:1007A000CCF1200421FA04F411FA0CF118BF012154
:1007B00021430843A3EB0C01CB1D4FEA00614FEA34
:1007C000102042BF002010BC704700EBC350104403
:1007D0000029A4BF10BC7047401C490008BF20F08E
:1007E000010010BC70470000FFE7FEE780B584B051
:1007F00005F09AFF4FF0100E7046CDF808E005F0B6
:10080000F5FF029806F00AF88DF80F009DF80F002A
:10081000012830D1FFE7022002F014FD00200190F2
:1008200005F048FE019805F06DFE4FF4806005F07C
:1008300055FE019806F0A8F9019806F0BDF94FF4AD
:1008400080304FF4501106F079F9182005F0CEFFF2
:10085000FFE7192005F0A6FF002801D1FFE7F8E720
:10086000022006F0CBF9FFE706F0DCF9002801D101
:10087000FFE7F9E7FFE704B080BD000080B5002086
:10088000C4F202000021042202F038FA00280ED03F
:10089000FFE70020C4F202000021042202F014FA53
:1008A00040F2F420C2F2000000F0E6FEFFE7002074
:1008B000C4F202000021022202F020FA00280FD028
:1008C000FFE70020C4F202000021022202F0FCF93E
:1008D00040F2F420C2F20000043000F0CDFEFFE749
:1008E0000020C4F202000021012202F0EDF980BDD7
:1008F00080B50020C4F202000121082202F0FEF9B6
:1009000000280FD0FFE70020C4F2020001210822D6
:1009100002F0DAF940F25400C2F20000002180F83F
:100920008012FFE70020C4F202000121022202F03F
:10093000E5F900280FD0FFE70020C4F202000121F2
:10094000022202F0C1F940F25400C2F2000000217C
:1009500080F88012FFE780BD70470000FFE7FEE7E8
:1009600080B5FFF743FF80BDFFE7FEE7704700005B
:10097000704700007047000040F2DC20C2F2000027
:1009800001680131016040F22430C2F200000168C8
:10099000013101607047000087B041F20400C4F2E9
:1009A00002000068C0F381000690069800280090BD
:1009B00008D0FFE7009801280ED0FFE70098022832
:1009C00014D08EE040F20400C2F2000041F2002197
:1009D000C0F27A0101608EE040F20400C2F2000031
:1009E00041F20021C0F27A01016084E041F204008A
:1009F000C4F20200006800F4803005900598B0F55C
:100A0000803F2CD1FFE741F22C00C4F202000068C5
:100A100000F0804004900498002806D1FFE741F2DE
:100A20000020C0F27A00019005E046F60040C0F2D6
:100A3000DC200190FFE741F20400C4F202000068EC
:100A400000F4003003900398B0F5003F06D1FFE7B3
:100A500040F60010C0F23D000190FFE705E040F6CF
:100A60000010C0F23D000190FFE741F20400C4F223
:100A700002000168C1F383410291006810F0006F29
:100A800005D0FFE7029840F010000290FFE741F226
:100A90000400C4F20200006810F0804F05D0FFE7A8
:100AA000029840F020000290FFE702980F2804D33C
:100AB000FFE702980130029003E0029802300290B2
:100AC000FFE702983E2803D3FFE73F200290FFE7AD
:100AD00001980299484340F20401C2F20001086003
:100AE00009E040F20400C2F2000041F20021C0F22D
:100AF0007A010160FFE707B07047000080B54EF64D
:100B00008850CEF20000016841F47001016041F2AA
:100B10000000C4F20200016841F00101016041F2ED
:100B20000401C4F2020100220A6041F22C01C4F265
:100B300002010A6001684FF6FF72CFF6F6621140BB
:100B4000016041F20801C4F202014FF41F020A6081
:100B5000016821F48021016006F0C4F980BD000025
:100B600080B542F60040C4F20100802106F046FE46
:100B700000280AD0FFE705F009FC42F60040C4F265
:100B80000100802106F02AFEFFE780BD80B540F617
:100B90000000C4F20000012106F030FE01280FD150
:100BA000FFE740F60000C4F20000012106F016FE47
:100BB00040F2F020C2F20000016801310160FFE75D
:100BC00080BD000080B541F20000C4F200000121A8
:100BD00006F014FE012808D1FFE741F20000C4F23C
:100BE0000000012106F0FAFDFFE740F24000C2F2EA
:100BF0000000018801310180008814280DDBFFE727
:100C000040F24000C2F200000021018040F22B308F
:100C1000C2F2000001210170FFE780BD80B541F202
:100C20000040C4F20000012106F0E8FD012808D1CF
:100C3000FFE741F20040C4F20000012106F0CEFDC2
:100C4000FFE740F24200C2F200000188013101805A
:100C5000B0F90000B0F57A7F0DDBFFE740F242000B
:100C6000C2F200000021018040F22A30C2F20000EE
:100C700001210170FFE780BDFFE7FEE784B00A466F
:100C800003468DF80F0002919DF90F000028019294
:100C900000930ADBFFE7029800019DF90F104EF266
:100CA0000042CEF2000288540BE0029800019DF849
:100CB0000F1001F00F014EF61452CEF200028854CC
:100CC000FFE704B07047000080B540F2026005F015
:100CD000EDFE40F60000C4F2010000210322602373
:100CE00002F0DCFA80BD00002DE9F04190B04FF435
:100CF000A06005F0DBFE00200F900E900D900C9090
:100D00000B900A90099040F2000EC4F2020E089077
:100D100070460899CDF81CE001F0A4FE42F24C4068
:100D2000C4F20100099008988DF83C0040F2F421CB
:100D3000C2F200010B9101218DF83D104FF4807E2D
:100D4000CDF828E04FF4806ECDF830E04FF0040E7F
:100D5000CDF834E04FF400520E928DF83E000A9B1D
:100D6000099ADDF82CC00C9C0D9D0E9E0F9FE84645
:100D7000C8F81070C8F80C60C8F80850C8F80440EB
:100D8000C8F800C00798DDF820C006916146CDF88C
:100D900014E001F0B3FE0798089901F043FE022227
:100DA0000798089901F06AFF07980899059A01F0D9
:100DB00065FF07980899069A01F086FF10B0BDE814
:100DC000F081000080B586B00146059040F24400F5
:100DD000C2F2000000780028049101D0FFE761E032
:100DE000FFF772FFFFF780FF0B204FF0010E00218D
:100DF00003917146039ACDF808E004F063FC40F2D9
:100E0000096005F053FE0220019005F0F5FA42F268
:100E10000040C4F20100009000F07AFA039800F05C
:100E2000E5FB4FF480710098029A00F021FD0098D4
:100E30000199039A00F01CFD0098039900F04EFA06
:100E400000980299019A00F009FA052204230098FB
:100E5000039900F035FC062200980299029B00F0ED
:100E60002FFC4FF460220098029900F0F3FA0098EA
:100E70000299029A00F0A6FA009800F091FA009800
:100E800000F0CCF9009800F07FFA0020C4F20200D4
:100E9000039901F087FD40F24400C2F2000002997C
:100EA0000170FFE706B080BD40F24400C2F20000CE
:100EB0000078002801D1FFE7FFE7704780B582B0D6
:100EC00040F2026005F0F2FD40F2036005F0EEFD35
:100ED00040F2046005F0EAFD41F20000C4F20100B6
:100EE0004FF0000E0321302301917146019ACDF895
:100EF00000E002F0D3F940F60000C4F201008A23BA
:100F00000099019A02F0CAF940F60040C4F20100CB
:100F100002230099019A02F0C1F902B080BD0000DD
:100F200080B588B040F24500C2F200000078002889
:100F300001D0FFE797E0FFF7C1FF40F20A6005F03C
:100F4000B5FD0220059005F057FA42F60000C4F204
:100F50000100049000F0DCF90020039000F046FB53
:100F60000498039900F0BAF94FF480710498039A39
:100F700000F07EFC04980599039A00F079FC0120AA
:100F80000499029008460299029A00F067F94FF41A
:100F900060220498029900F05DFA04980299029A7E
:100FA00000F010FA049800F0FBF94FF47A70079003
:100FB000FFE742F60800C4F201000068002110F0CB
:100FC000010F019106D1FFE70798002818BF012003
:100FD0000190FFE70198C007002804D0FFE70798B9
:100FE00001380790E5E70798002801D1FFE73AE0CC
:100FF000012001F0B7FC42F60000C4F2010000F04D
:101000000DF94CF250300690FFE742F60800C4F2AA
:1010100001000068002110F0080F009106D0FFE7E2
:101020000698002818BF01200090FFE70098C0072D
:10103000002804D0FFE7069801380690E5E70698F7
:10104000002809D1FFE742F60800C4F20100016858
:1010500021F008010160FFE740F24500C2F2000004
:1010600001210170FFE708B080BD000080B58EB09F
:101070000A4603468DF835000C9140F24500C2F255
:101080000000007800280692059305D1FFE74FF68F
:10109000FF70ADF8360085E042F60400C4F20100AE
:1010A00000680B9042F60800C4F2010000680A9044
:1010B00042F60000C4F20100016809910C9B9DF802
:1010C00035200021049000F0FBFA022004990390DF
:1010D0000846039900F062FA0498039900F06EFA4A
:1010E000002808D0FFE742F60000C4F20100022108
:1010F00000F054FAFFE742F60000C4F201000121BB
:1011000000F094FB9DF82A00400600280ED4FFE76B
:1011100042F60000C4F20100012100F087FB42F614
:101120000800C4F2010000680A90FFE748F2A060DE
:10113000C0F201000890FFE742F60000C4F201008F
:10114000022100F03BFA00210028029106D1FFE7BE
:101150000898002818BF01200290FFE70298C007F6
:10116000002804D0FFE7089801380890E4E70898C1
:10117000002805D1FFE74FF6FF70ADF8360011E00B
:1011800042F60000C4F20100019000F045FBADF80A
:101190001E000221019800F001FABDF81E00ADF812
:1011A0003600FFE7BDF836000EB080BD80B584B0D4
:1011B00040F24500C2F200000078002801D1FFE7AC
:1011C00029E00E2005210191FFF750FFADF80E0038
:1011D0000F200199FFF74AFFADF80C000720019995
:1011E000FFF744FFADF80A0009200199FFF73EFF21
:1011F000ADF80800BDF80E0040F22C31C2F200013B
:10120000C880BDF80C000881BDF80A008880BDF8D0
:1012100008004881FFE704B080BD000082B00146AD
:1012200001900198826842F0080282600091FFE715
:101230000198806810F0080F01D0FFE7F8E70198E7
:10124000816841F004018160FFE70198806810F037
:10125000040F01D0FFE7F8E702B0704780B587B010
:1012600013468C46864606908DF8171004929DF81A
:101270001700014601280393CDF808C0CDF804E01B
:10128000009104D0FFE70098022812D023E00698CE
:10129000C16A21F47001C16204980021CFF6F07197
:1012A00001EB00503FFA80F00699CA6A1043C86209
:1012B00012E00698816B21F44011816304980021AB
:1012C000CFF6F07101EB005000F4401006998A6BE4
:1012D0001043886300E0FFE707B080BD84B00A4692
:1012E000034603900291029800280192009306D0D1
:1012F000FFE70398816841F40061816005E003988D
:10130000816821F400618160FFE704B0704700004C
:1013100080B586B001460590059842F20042C4F2BD
:10132000010290420491039010D0FFE742F60000C2
:10133000C4F201000399814211D0FFE743F6004057
:10134000C4F201000399814212D01AE040F2093040
:10135000029005F0DBFB029805F0C0FB12E040F2C2
:101360000A30019005F0D2FB019805F0B7FB09E0C7
:1013700040F20F30009005F0C9FB009805F0AEFB7D
:1013800000E0FFE706B080BD82B001460190019801
:10139000826842F480728260009102B0704700005F
:1013A00082B0014601900198806810F0010F009111
:1013B00006D1FFE70198816841F001018160FFE7F4
:1013C00002B0704780B585B013468C4686460490BF
:1013D0008DF80F108DF80E209DF80E000028029356
:1013E000CDF804C0CDF800E019D0FFE79DF80F005C
:1013F000C007002806D0FFE70498816841F48011F7
:101400008160FFE79DF80F008007002806D5FFE701
:101410000498816841F400418160FFE718E09DF87D
:101420000F00C007002806D0FFE70498816821F468
:1014300080118160FFE79DF80F008007002806D526
:10144000FFE70498816821F400418160FFE7FFE72E
:1014500005B080BD80B587B013468C4686460690A1
:101460008DF8171004929DF8170001460128039388
:10147000CDF808C0CDF804E0009104D0FFE7009853
:1014800002280BD015E00698816821F46021816064
:10149000049806998A68104388600BE00698816872
:1014A00021F4E0418160049806998A6810438860BD
:1014B00000E0FFE707B080BD80B582B0022005F0F4
:1014C00035F8019041F20400C4F20200006810F403
:1014D000E06F04D0FFE701984000009002E001981F
:1014E0000090FFE7009802B080BD000080B58CB08E
:1014F00040F2027005F0DAFA40F60000C4F2000093
:1015000006F000F8FFF7D8FF0B900B9841F2597ED8
:10151000CDF2B71EA0FB0E0E4FEA5E3ECDF828E0DE
:10152000DDF828E0BEF1000F059003D1FFE70120B0
:101530000A90FFE70A98002804D0FFE70A980138CC
:101540000A90FFE706A8049006F0ACF90020ADF879
:101550001800ADF81C00DDF828E0CDF820E0ADF86B
:10156000240040F6000EC4F2000E03907046049969
:10157000CDF808E006F09CF8012002990190084699
:10158000019906F01BF91E200199039A04F09AF8BC
:10159000029806F045F80CB080BD000084B00A4601
:1015A00003460390029102980399D1F800C02CEAF7
:1015B000000008600192009304B0704785B00A46AD
:1015C00003460490039100208DF80B0004980068F6
:1015D000039908420192009304D0FFE701208DF89F
:1015E0000B00FFE79DF80B0005B0704782B0014685
:1015F000019042F20440C4F20100026822F4702219
:101600000260019A03681A430260009102B07047B9
:1016100083B072B640F22C30C2F200000188ADF8FF
:1016200000104188ADF80210C188ADF8061000899D
:10163000ADF8080062B640F24800C2F2000000991E
:10164000019A029B83604260016003B07047000012
:1016500080B582B00146019001980091FFF7B2FB7E
:1016600002B080BD80B5FFF7A1FD80BD80B5FFF75A
:101670001BFCFFF755FC80BD82B00146019001982C
:10168000028840F22C33C2F200031A80408858804E
:10169000009102B07047000080B540F24400C2F2F1
:1016A00000000078002801D1FFE707E042F2004087
:1016B000C4F20100012100F0B9F8FFE780BD00008D
:1016C000B0B589B09C4696460C46054608908DF804
:1016D0001F108DF81E2006939DF81F000528CDF8D9
:1016E0000CC0CDF808E00194009518D8FFE70898E1
:1016F000406B05909DF81F0000EB80001F2181408A
:10170000059A22EA010105919DF81E1001FA00F0E8
:101710000599084305900598089948633EE09DF8AF
:101720001F000B2819D8FFE70898006B05909DF85B
:101730001F0000EB80001E381F218140059A22EA1D
:10174000010105919DF81E1001FA00F0059908436A
:1017500005900598089908631FE09DF81F000F2861
:1017600019D8FFE70898C06A05909DF81F0000EBA4
:1017700080003C381F218140059A22EA0101059131
:101780009DF81E1001FA00F0059908430590059890
:101790000899C86200E0FFE7FFE7FFE79DF81E0039
:1017A000092817D8FFE70898006904909DF81E00E3
:1017B00000EB400007218140049A22EA01010491D4
:1017C000069901FA00F004990843049004980899D6
:1017D00008611EE09DF81E00112818D8FFE7089840
:1017E000C06804909DF81E0000EB40001E380721E1
:1017F0008140049A22EA01010491069901FA00F05D
:1018000004990843049004980899C86000E0FFE731
:10181000FFE709B0B0BD000082B001460190019819
:10182000C06C80B2009102B07047000084B00A46DC
:10183000034603908DF80B109DF80B00C00700289D
:101840000192009306D0FFE70398816841F480017C
:101850008160FFE79DF80B008007002806D5FFE7B1
:101860000398816841F400118160FFE704B070477C
:1018700080B586B013468C468646059004918DF857
:101880000F209DF80F0000280293CDF804C0CDF87A
:1018900000E022D0FFE70498C005002806D5FFE746
:1018A0000598416841F480714160FFE70498400564
:1018B000002806D5FFE70598416841F48061416042
:1018C000FFE704988007002806D5FFE705988168A0
:1018D00041F002018160FFE721E00498C005002883
:1018E00006D5FFE70598416821F480714160FFE764
:1018F00004984005002806D5FFE70598416821F4C3
:1019000080614160FFE704988007002806D5FFE763
:101910000598816821F002018160FFE7FFE706B0CA
:1019200080BD000080B588B002A800210691ADF806
:101930001610ADF814100090FFE7BDF8140007284A
:1019400022D8FFE70E200521FFF790FBADF812002B
:10195000BDF812004FF6FF7188420BD0FFE7BDF8CB
:101960001200069908440690BDF816000130ADF843
:101970001600FFE7022000F0F5FFFFE7BDF81400B6
:101980000130ADF81400D8E7BDF81600002804D1E6
:10199000FFE700208DF81F006EE0009890ED040A2C
:1019A000B8EE400ABDF8161001EE101AB8EE411A52
:1019B00080EE010A80ED010A90ED010AB6EE001AF0
:1019C00030EE010ABDEEC00A10EE101A9FED2C0A8F
:1019D000DFED2C0A084600F07BFD009880ED000A40
:1019E00090ED000A9FED281AB4EEC10AF1EE10FA4C
:1019F0000BDBFFE7009890ED000A9FED241AB4EE90
:101A0000C10AF1EE10FA04DDFFE700208DF81F0097
:101A100032E000208DF80700FFE79DF8070002285C
:101A20000ED8FFE7FFF71EFEFFF7F2FD012000F0E2
:101A300099FFFFE79DF8070001308DF80700ECE7FC
:101A400040F24800C2F2000000884FF6FF71884261
:101A50000AD0FFE740F24800C2F2000040884FF68B
:101A6000FF71884204D1FFE700208DF81F0003E0DA
:101A700001208DF81F00FFE79DF81F0008B080BD12
:101A800000609F4500401C46333333406666664025
:101A900085B0B0EE401A0146ADF812008DED030A94
:101AA000BDF8120000EE100AB8EEC00A9FED0A2A37
:101AB00020EE020A9FED092A80EE020A8DED020A4D
:101AC0009DED020A9DED032A20EE020A8DED011A1A
:101AD000009105B0704700BF3333534000F07F459D
:101AE00080B594B00A4603461290119111980028CF
:101AF0000992089304D1FFE700208DF84F00E5E03C
:101B00001198FEF70EFD41EC100B9FED731B51EC8D
:101B1000110B53EC102BFEF795FC41EC100B8DEDE7
:101B20000E0B1298FEF7FDFC41EC100B9DED0E1B09
:101B300051EC100B53EC112BFEF784FC41EC100B15
:101B400051EC100B9FED660B53EC102BFEF761FB75
:101B500041EC100B51EC100BFEF7F0FC0D900D98C2
:101B60007F2804D8FFE70D988DF84F00AEE012985B
:101B7000FEF7D7FC41EC100B9DED0E1B51EC110B49
:101B800007900691079A069B8DED040BFEF741FB2B
:101B900041EC100B9DED041B51EC110B53EC102B81
:101BA000FEF750FC41EC100B51EC100B9FED4C0B71
:101BB00053EC102BFEF72DFB41EC100B51EC100BEE
:101BC000FEF7BCFC0C900C98402809D3FFE70C985A
:101BD0007F2805D8FFE70C9840308DF84F0075E05E
:101BE0001298FEF79EFC41EC100B9DED0E1B51EC84
:101BF000110B9FED3D1B53EC112B8DED020BFEF7EE
:101C0000AFFB41EC100B53EC102B9DED020B51EC94
:101C1000100BFEF717FC41EC100B51EC100B9FED75
:101C2000300B53EC102BFEF7F4FA41EC100B51EC97
:101C3000100BFEF783FC0B900B98202809D3FFE7CD
:101C40000B983F2805D8FFE70B98A0308DF84F0080
:101C50003CE01298FEF765FC41EC100B9DED0E1B6D
:101C600051EC110B9FED221B53EC112B8DED000B52
:101C7000FEF776FB41EC100B53EC102B9DED000BA7
:101C800051EC100BFEF7DEFB41EC100B51EC100B8E
:101C90009FED130B53EC102BFEF7BBFA41EC100B2E
:101CA00051EC100BFEF74AFC0A900A98202809D341
:101CB000FFE70A983F2805D8FFE70A98C0308DF85B
:101CC0004F0003E000208DF84F00FFE79DF84F0024
:101CD00014B080BD00BF00BF0000000065CDCD4145
:101CE000000000000000E03F000000000000204075
:101CF000000000000000304080B503F08FFD80BD83
:101D000080B588B0B0EE601AB0EE402A0A460346AD
:101D10008DF81F008DF81E108DED060ACDED050A19
:101D20009DED060A8DED041A8DED032A02920193B2
:101D300002F00AFF9DED050A02F0B6FE9DF81F00B5
:101D400000F0010002F0F0FE9DF81E0000F001001E
:101D500000F0A2FA08B080BD87B0B0EE601AB0EE15
:101D6000402A0146ADF81A008DED050ACDED040AB2
:101D7000BDF81A0000EE100AB8EE400ADFED0E0AB8
:101D800020EE200ADFED0D0A80EE200A8DED030A19
:101D90009DED030ADDED050A9DED043A70EE830A20
:101DA00080EE833A20EE030A8DED021A8DED012AB2
:101DB000009107B0704700BF3333534000F07F45B8
:101DC00080B582B040F20830C2F2000000210170FC
:101DD00041608160C160016141618161084601919A
:101DE00000F05AFA019802F09FFE40F20800C2F299
:101DF000000090ED000A009002F0A6FE009890ED21
:101E0000020A02F051FE02B080BD000080B58CB025
:101E100000F088FA02F0BCFB002811D0FFE740F286
:101E20000800C2F2000090ED000AD0ED020A002086
:101E300009900999FFF764FF062000F017FA12E2F3
:101E400040F20830C2F200000078014606280891EE
:101E500009D80899DFE811F008005C00FB005F0179
:101E60008401D801F901FFE740F20800C2F2000046
:101E700090ED000AD0ED020A002107900846FFF716
:101E80003FFF40F20830C2F2000090ED040A0798CC
:101E9000D0ED050AB4EEE00AF1EE10FA30DBFFE710
:101EA00040F20830C2F20000806800280BD1FFE742
:101EB00040F2DC20C2F20000006840F20831C2F2B9
:101EC000000188601BE040F20830C2F20000806828
:101ED00040F20801C2F20001496A01F057F80028F7
:101EE0000CD0FFE7012000F0C1F940F20830C2F247
:101EF00000004FF0000EC0F808E0FFE7FFE706E043
:101F000040F20830C2F2000000218160FFE7AAE140
:101F100040F20830C2F2000090ED040A40F20800DE
:101F2000C2F2000090ED001A90ED032A30EE020A92
:101F30008DED0B0A9DED0B0AB4EEC10AF1EE10FA1D
:101F400007DDFFE740F20800C2F2000000680B90D6
:101F5000FFE79DED0B0A40F20800C2F20000D0ED51
:101F6000020A01200021FFF7CBFE01F019FB042833
:101F700007D0FFE740F20830C2F200000021C16044
:101F800071E140F20830C2F2000090ED040A40F224
:101F90000800C2F2000090ED061AB4EEC10AF1EE9C
:101FA00010FA04DAFFE7002000F060F95BE140F28C
:101FB0000830C2F2000090ED040A90ED051A31EEEF
:101FC000400A01F023F940F20800C2F2000090ED4F
:101FD000041AB4EEC10AF1EE10FA30DCFFE740F269
:101FE0000830C2F20000C06800280BD1FFE740F2C1
:101FF000DC20C2F20000006840F20831C2F20001A9
:10200000C8601BE040F20830C2F20000C06840F235
:102010000801C2F20001896A00F0B8FF00280CD064
:10202000FFE7022000F022F940F20830C2F200007F
:102030004FF0000EC0F80CE0FFE7FFE706E040F2CB
:102040000830C2F200000021C160FFE70BE140F25E
:102050000830C2F20000C06800281DD1FFE740F23E
:102060000830C2F200000121C16004F0E3FD002845
:1020700011D1FFE740F20800C2F2000090ED000A23
:10208000D0ED020A002006900699FFF739FE0620DF
:1020900000F0ECF8E7E0FFE740F20830C2F20000A1
:1020A00090ED040A40F20800C2F2000090ED001A20
:1020B00090ED032A30EE020A8DED0A0A9DED0A0A20
:1020C000B4EEC10AF1EE10FA07DDFFE740F20800B6
:1020D000C2F2000000680A90FFE79DED0A0A40F294
:1020E0000800C2F20000D0ED020A01210590084666
:1020F000FFF706FE40F20830C2F200004068059982
:10210000C96A00F043FF002804D0FFE7032000F075
:10211000ADF8FFE7A7E040F20800C2F2000090ED42
:10212000000AD0ED010A012104900846FFF7E8FDFE
:1021300040F20830C2F2000090ED040A0498D0ED9D
:10214000000A90ED071A30EEC11AB4EEC10AF1EEA2
:1021500010FA04DBFFE7042000F088F8FFE782E0D4
:1021600040F20800C2F2000090ED000AD0ED010A32
:10217000012103900846FFF7C3FD40F20830C2F288
:10218000000090ED060A0398D0ED080AB4EEE00ACC
:10219000F1EE10FA30DCFFE740F20830C2F2000046
:1021A000C06800280BD1FFE740F2DC20C2F200003B
:1021B000006840F20831C2F20001C8601BE040F242
:1021C0000830C2F20000C06840F20801C2F200010B
:1021D000096B00F0DBFE00280CD0FFE7052000F0C3
:1021E00045F840F20830C2F200004FF0000EC0F88F
:1021F0000CE0FFE7FFE706E040F20830C2F2000023
:102200000021C160FFE72EE040F20800C2F20000AA
:1022100090ED000AD0ED020A002102900846FFF777
:102220006FFD40F20830C2F2000090ED040A0298FF
:10223000D0ED060AB4EEE00AF1EE10FA04DAFFE798
:10224000002000F013F8FFE70DE040F20800C2F2B2
:10225000000090ED000AD0ED020A002001900199E3
:10226000FFF74EFDFFE70CB080BD000082B00146D5
:102270008DF807009DF8070040F20832C2F2000214
:10228000107040F2DC20C2F20000006850600020B4
:10229000D060009102B0704780B584B001468DF8DF
:1022A0000F0040F24600C2F200000078C00700288C
:1022B00002911DD1FFE740F2036004F0F7FB40F606
:1022C0000040C4F20100102103224FF4804E01901F
:1022D0007346CDF800E000F0E1FF0198009900F0AE
:1022E000C5FF40F24600C2F2000001210170FFE785
:1022F0009DF80F00C007002809D0FFE740F6004016
:10230000C4F201004FF4804100F0BCFF08E040F649
:102310000040C4F201004FF4804100F0A7FFFFE746
:1023200004B080BD80B584B000200390029001907D
:102330000090684602F00AF940F24800C2F200003C
:1023400000899FED0B0ADFED0B0AFFF705FD40F258
:102350000830C2F2000080ED040A9DED000A80ED15
:10236000050ADDF804E0C0F818E004B080BD00BF45
:102370000050434800401C4688B0B0EE412AB0EE01
:10238000603AB0EE404A8DED070ACDED060A8DEDBC
:10239000051A9DED070A9DED061AB4EEC10AF1EE8D
:1023A00010FA8DED042A8DED033A8DED024A05DA1F
:1023B000FFE79DED060A8DED010A18E09DED070A85
:1023C0009DED051AB4EEC10AF1EE10FA05DDFFE746
:1023D0009DED050A8DED000A04E09DED070A8DEDE7
:1023E000000AFFE79DED000A8DED010AFFE79DED74
:1023F000010A08B07047000080B5FFF733F903F019
:10240000F9FCFFF703FD01F0BDF980BD84B0014682
:10241000ADF80E00BDF80E0000EE100AB8EEC00ACE
:102420009FED0D1A20EE010A9FED0C1A80EE010AB5
:102430008DED020A9DED020A9FED091A30EE010AA8
:102440008DED010A9DED010A9FED061A80EE010A4D
:10245000009104B0704700BF3333534000F07F4514
:102460008B6CA7BEF92A873D87B0B0EE601AB0EE3C
:10247000402A0146ADF81A008DED050ACDED040A9B
:10248000BDF81A0000EE100AB8EEC00ADFED0E0A21
:1024900020EE200ADFED0D0A80EE200A8DED030A02
:1024A0009DED030ADDED050A9DED043A70EE830A09
:1024B00020EE200A80EE030A8DED021A8DED012A2E
:1024C000009107B0704700BF3333534000F07F45A1
:1024D00087B0B0EE601AB0EE402A0146ADF81A009F
:1024E0008DED050ACDED040ABDF81A0000EE100AC4
:1024F000B8EE400ADFED0B0A20EE200ADFED0A0AF3
:1025000080EE200A8DED030A9DED030AF7EE080A1E
:1025100020EE200A8DED021A8DED012A009107B000
:10252000704700BF3333534000F07F4584B00A4604
:102530000346ADF80C00ADF80A10BDF80C00BDF86C
:102540000A108842019200930BDBFFE7BDF80C00F4
:10255000BDF80A10401A40F2FF11081AADF80E003B
:1025600008E0BDF80A00BDF80C10401A0138ADF8BB
:102570000E00FFE7BDF80E0004B0704780B58CB0C8
:1025800013468C4686460A900991089209980028BD
:102590000393CDF808C0CDF804E007D0FFE70A9810
:1025A000002803D1FFE700200B9074E00A980999F6
:1025B000089A00F0D3F807900798002805D0FFE7A5
:1025C0000798B0F5007F03D3FFE700200B9062E08F
:1025D00072B640F25400C2F20000B0F88112ADF8B9
:1025E0001A10B0F88302ADF81800BDF81A00BDF853
:1025F0001810FFF79BFFADF816000798BDF81610EE
:10260000884204D9FFE762B600200B9043E0002027
:102610000490FFE704980999884230D2FFE70898B0
:10262000002816D0FFE70A980499405C0A2810D1C8
:10263000FFE7BDF81A0040F25401C2F200010D227A
:102640000A54BDF81A0001306FF35F20ADF81A008C
:10265000FFE70A980499405CBDF81A1040F2540252
:10266000C2F200025054BDF81A0001306FF35F202F
:10267000ADF81A00FFE7049801300490CAE7BDF8EE
:102680001A0040F25401C2F20001A1F8810262B6C0
:1026900001200B90FFE70B980CB080BDF0B58FB018
:1026A0004FF4A06004F002FA0020C4F202004FF0E0
:1026B000010E07907146CDF818E000F0D3F944F60A
:1026C0000400C4F200000890002009908DF8380042
:1026D0000A900B9006998DF839100C908DF83A10ED
:1026E0004FF4405ECDF834E0099B089ADDF828E00D
:1026F000DDF82CC00C9C0D9D0E9E6F463E61FD606A
:10270000BC60C7F804C0C7F800E0DDF81CC0059045
:10271000604600F0F3F90798069900F063F907980E
:10272000069900F059FB44F60000C4F20000802135
:1027300005F096F90C200221059A02F0C3FF0A2247
:102740000798069900F09AFA40F25400C2F200008D
:10275000059980F880120FB0F0BD000080B588B0F8
:1027600013468C468646079006910592069804907B
:10277000059800280293CDF804C0CDF800E01CD0E5
:10278000FFE70798002818D0FFE700200390FFE735
:102790000398069988420FD2FFE707980399405C97
:1027A0000A2804D1FFE7049801300490FFE7FFE70F
:1027B000039801300390EBE7FFE7049808B080BD71
:1027C00083B080B585B009930892079101460490C3
:1027D00007A803900498039A0191114600F066F847
:1027E0000290029805B0BDE8804003B07047000039
:1027F00080B584B00146039003980028029104D16B
:10280000FFE74FF461300390FFE740F25400C2F25B
:1028100000000021A0F88112A0F8831280F8801235
:1028200040F20360019104F041F94FF4C06004F0FC
:102830003DF940F2127004F039F940F60040C4F25C
:102840000100182103224FF4806300F027FD44F6B5
:102850000000C4F20000009005F0A4F8039900986D
:1028600005F036F80098019905F0B4F9009801993F
:1028700005F080F90098019905F04CF9009801994C
:1028800005F02EF90098019905F010F900980199CA
:1028900005F056F90821009805F082F9009805F036
:1028A000F9F8FFF7FBFE04B080BD000080B5AAB0C8
:1028B0000A46034628912790279828990DF11C0C69
:1028C0004FF0800E0490604603917146DDF810C011
:1028D00002926246DDF80CE00193734605F090F930
:1028E00006900698B0F1FF3F03DCFFE706982990B9
:1028F00023E006987F2803DCFFE70698009002E0BB
:102900007F200090FFE7009805900598002805D0EB
:10291000FFE7059907A800F013F8FFE7069880285D
:1029200008DBFFE748F6B000C0F60000032100F026
:1029300007F8FFE706982990FFE729982AB080BD9D
:1029400080B586B00A46034605900491059804991F
:102950004FF0010C039262460293FFF70FFE0190C5
:1029600006B080BD83B00146029002980028009115
:1029700001D1FFE713E040F2DC20C2F20000006862
:102980000190FFE740F2DC20C2F2000000680199EC
:10299000401A0299884202D2FFE700BFF2E703B073
:1029A0007047000080B584B00A46034603908DF856
:1029B0000B1003989DF80B100192009300F02CFA75
:1029C000002802D1FFE7FFE7FEE703989DF80B1010
:1029D00001EB810100EB8100816841F00101816020
:1029E00004B080BD80B584B00A46034603908DF8DC
:1029F0000B1003989DF80B100192009300F00CFA55
:102A0000002802D1FFE7FFE7FEE703989DF80B10CF
:102A100001EB810100EB8100816821F020018160E0
:102A200004B080BD80B584B00A46034603908DF89B
:102A30000B1003989DF80B100192009300F0ECF935
:102A4000002802D1FFE7FFE7FEE703989DF80B108F
:102A500001EB810100EB8100816841F02001816080
:102A600004B080BD80B584B00A46034603908DF85B
:102A70000B1003989DF80B100192009300F0CCF915
:102A8000002802D1FFE7FFE7FEE703989DF80B104F
:102A900001EB810100EB8100816821F0010181607F
:102AA00003989DF80B1001EB810100EB81000021E0
:102AB000816003989DF80B2002EB820200EB8200FC
:102AC000C16003989DF80B2002EB820200EB8200AC
:102AD000016103989DF80B2002EB820200EB82005B
:102AE00041619DF80B0080000F2101FA00F003996D
:102AF0004A681043486004B080BD00002DE9F047EB
:102B00008EB0DDF868C0DDF864E0189C179D169E55
:102B10001F46904689468246CDF834C0CDF830E055
:102B20000B940A9509960893079206908DF8171052
:102B300006989DF817100397CDF80880CDF804A0EB
:102B4000CDF8009000F068F9002802D1FFE7FFE718
:102B5000FEE7079806999DF8172002EB820201EB29
:102B600082010861099806999DF8172002EB8202FC
:102B700001EB82014861BDF82C0006999DF81720F1
:102B800002EB820201EB8201C86006989DF81710E3
:102B900001EB810100EB810080680490049820F42F
:102BA0007C50049008980A990C9A084310430499A1
:102BB00008430490049806999DF8172002EB8202BE
:102BC00001EB820188609DF8340001280CD1FFE7F9
:102BD00006989DF8171001EB810100EB81008168D8
:102BE00041F0400181600BE006989DF8171001EB61
:102BF000810100EB8100816821F040018160FFE7E5
:102C00009DF8350001280CD1FFE706989DF81710B4
:102C100001EB810100EB8100816841F0800181605E
:102C20000BE006989DF8171001EB810100EB810085
:102C3000816821F080018160FFE79DF8360000285F
:102C40000CD1FFE706989DF8171001EB810100EB0E
:102C50008100816821F0100181600BE006989DF8E9
:102C6000171001EB810100EB8100816841F0100138
:102C70008160FFE70EB0BDE8F087000080B586B048
:102C800013468C46864605908DF8131003920598DE
:102C90009DF813100293CDF804C0CDF800E000F0C9
:102CA000BBF8002802D1FFE7FFE7FEE7039805998C
:102CB0009DF8132002EB820201EB82018A68104327
:102CC000886006B080BD000080B586B013468C4693
:102CD000864605908DF81310039203989DF8131003
:102CE0008900884005994A68104348600293CDF8EE
:102CF00004C0CDF800E006B080BD000080B58AB009
:102D000013468C46864608908DF81F1006920020C8
:102D100005900490069802280393CDF808C0CDF8DA
:102D200004E0009008D0FFE70098042817D0FFE7E0
:102D30000098082826D038E00898006806999DF881
:102D40001F209300994008400490089802EB8201EC
:102D500000EB8100806800F00200059027E00898F1
:102D6000006806999DF81F20930099400840049040
:102D7000089802EB820100EB8100806800F00400FB
:102D8000059014E00898006806999DF81F209300AC
:102D9000994008400490089802EB820100EB810002
:102DA000806800F00800059001E0FFE7FEE7049866
:102DB000002808D0FFE70598002804D0FFE701208D
:102DC0008DF8270003E000208DF82700FFE79DF82D
:102DD00027000AB080BD000080B584B00A460346D3
:102DE00003908DF80B1003989DF80B10019200933F
:102DF00000F012F8002802D1FFE7FFE7FEE7039892
:102E00009DF80B1001EB810100EB8100816821F43A
:102E10008041816004B080BD84B00A4603460390BF
:102E20008DF80B1001208DF80A00039840F2004144
:102E3000C4F202018842019200930AD1FFE79DF893
:102E40000B00052804DBFFE700208DF80A00FFE7F0
:102E5000FFE79DF80A0004B07047000080B588B015
:102E6000B0EE401A8DED060A9DED060ADFED280A48
:102E70009FED282A8DED011AB0EE421AFFF77CFA79
:102E80008DED050A42F62C4EC4F2010EDEF800E08C
:102E9000CDF810E0DDF810E0BEF1000F0CD1FFE737
:102EA0009DED050A0020B5EEC00AF1EE10FAC8BF8C
:102EB0000120ADF81E0027E00498013003909DED3D
:102EC000050A039801EE100AB8EE411AB6EE002A80
:102ED00000EE012ABCEEC20A10EE101A029102990D
:102EE000814204D3FFE7039801380290FFE702987C
:102EF000B0F5803F04D3FFE74FF6FF700290FFE785
:102F00000298ADF81E00FFE7BDF81E0008B080BDB6
:102F100000000000A4707D3F80B584B0B0EE401A80
:102F20008DED020A9DED020AB5EEC00AF1EE10FA2F
:102F30008DED011A03DCFFE70020039020E09DEDFA
:102F4000020AB7EE001AB4EEC10AF1EE10FA04DB81
:102F5000FFE74FF07E50039012E09DED020A9FEDD7
:102F60000A1A20EE010A04F069FEB7EE001A31EEEB
:102F7000400AB6EE001A20EE010A8DED030AFFE7C3
:102F80009DED030A04B080BDC3F5484080B586B00E
:102F90000A46034604900391039800280292019385
:102FA00004D1FFE701208DF8170013E004980028F2
:102FB00004D1FFE700208DF817000BE0049800F023
:102FC0005DF8DDF80CE00021704528BF01218DF887
:102FD0001710FFE79DF8170006B080BD80B586B0DA
:102FE0000A46034604900391039800280292019335
:102FF00004D1FFE701208DF8170013E004980028A2
:1030000004D1FFE700208DF817000BE0049800F0D2
:103010004DF8DDF80CE00021704528BF01218DF846
:103020001710FFE79DF8170006B080BD80B586B089
:103030000A460346049003910398002802920193E4
:1030400004D1FFE701208DF8170013E00498002851
:1030500004D1FFE700208DF817000BE0049800F082
:103060003DF8DDF80CE00021704528BF01218DF806
:103070001710FFE79DF8170006B080BD83B001462A
:10308000029002980028019103D1FFE700200090F0
:1030900008E040F2DC20C2F2000000680299401A09
:1030A0000090FFE7009803B07047000083B001462E
:1030B000029002980028019103D1FFE700200090C0
:1030C00008E040F2DC20C2F2000000680299401AD9
:1030D0000090FFE7009803B07047000083B00146FE
:1030E000029002980028019103D1FFE70020009090
:1030F00008E040F2DC20C2F2000000680299401AA9
:103100000090FFE7009803B07047000088B0B0EE71
:10311000412AB0EE603AB0EE404A8DED070ACDED9F
:10312000060A8DED051A9DED070A9DED061AB4EE0F
:10313000C10AF1EE10FA8DED042A8DED033A8DED02
:10314000024A05DAFFE79DED060A8DED010A18E057
:103150009DED070A9DED051AB4EEC10AF1EE10FAD5
:1031600005DDFFE79DED050A8DED000A04E09DED0C
:10317000070A8DED000AFFE79DED000A8DED010ABB
:10318000FFE79DED010A08B07047000088B0B0EE7F
:10319000412AB0EE603AB0EE404A8DED070ACDED1F
:1031A000060A8DED051A9DED070A9DED061AB4EE8F
:1031B000C10AF1EE10FA8DED042A8DED033A8DED82
:1031C000024A05DAFFE79DED060A8DED010A18E0D7
:1031D0009DED070A9DED051AB4EEC10AF1EE10FA55
:1031E00005DDFFE79DED050A8DED000A04E09DED8C
:1031F000070A8DED000AFFE79DED000A8DED010A3B
:10320000FFE79DED010A08B07047000080B582B06D
:10321000B0EE401A8DED010A9DED010A8DED001A08
:1032200004F004FD02B080BD80B582B0B0EE401A5B
:103230008DED010A9DED010A8DED001A04F0F6FCFA
:1032400002B080BD83B00146029042F20000C4F299
:10325000020002680192019A22F007020192019A8B
:10326000029B1A430260009103B0704784B00A4683
:1032700003460390029102980399486101920093DA
:1032800004B0704784B00A46034603900291029846
:10329000039908610192009304B07047B0B58BB0F8
:1032A0009C4696460C4605460A900991089207935B
:1032B000002005900490099800F00F01059110F08E
:1032C000100FCDF80CC0CDF808E00194009514D093
:1032D000FFE7089804280AD1FFE7059840F00300AB
:1032E000059007980A99CA6B1043C86304E00898D0
:1032F000059908430590FFE7FFE70020ADF81A00A5
:10330000FFE7BDF81A00072837D8FFE7BDF81A0015
:10331000012101FA00F00799084227D0FFE70A9837
:1033200000680490BDF81A0080000F218140049AC3
:1033300022EA01010491059901FA00F00499084379
:1033400004900998282804D1FFE707980A99486152
:1033500008E00998482804D1FFE707980A9908610E
:10336000FFE7FFE704980A990860FFE7FFE7BDF869
:103370001A000130ADF81A00C3E70820ADF81A00B2
:10338000FFE7BDF81A000F283AD8FFE7BDF81A008A
:10339000012101FA00F0079908422AD0FFE70A98B4
:1033A00040680490BDF81A006FF01F0101EB800027
:1033B0000F218140049A22EA01010491059901FA42
:1033C00000F00499084304900998282804D1FFE7E5
:1033D00007980A99486108E00998482804D1FFE74E
:1033E00007980A990861FFE7FFE704980A9948607F
:1033F000FFE7FFE7BDF81A000130ADF81A00C0E79B
:103400000BB0B0BD85B00A46034603900291039805
:103410008068029908420192009304D0FFE70120DE
:103420008DF8130003E000208DF81300FFE79DF8EE
:10343000130005B07047000083B00A4603468DF8BC
:103440000B008DF80A109DF80B009DF80A1001F092
:10345000030141EA8000C0B20192009303B07047BB
:1034600010B5ACB001F010FC40F2000EC4F25C2EBE
:10347000CDF858E04FF0000ECDF85CE048F20000C7
:10348000C4F2ED4018900020C4F290101990CDF8CD
:1034900068E0CDF86CE0CDF870E0CDF874E0CDF8E0
:1034A00078E0CDF87CE0CDF880E0CDF884E04EF611
:1034B0000000C4F27D70229042F20041C4F6740113
:1034C000239147F60042C4F292722492259248F268
:1034D0000003C4F23B532693CDF89CE0CDF8A0E066
:1034E000CDF8A4E0CDF8A8E08DF8ACE040F2383398
:1034F000C2F200030DF1580C5824049018460391B1
:10350000614602922246CDF804E0FCF75EFE002000
:10351000C4F2202005900690019807900021C4F283
:10352000A00108910021C4F2C831099149F69A110D
:10353000C3F619710A910B9004990C91039A0D929C
:10354000029B0E9340F2010CC4F2FA3CCDF83CC051
:10355000109040F2000CC4F2222CCDF844C040F28E
:10356000000CC4F21C2CCDF848C0139014908DF8B8
:10357000540040F29030C2F2000005A94422FCF74A
:1035800024FE00F023FE40F2D430C2F20000019984
:1035900080F838104163084601F00EFE2CB010BDD3
:1035A00040F2D430C2F200000078704780B58EB08F
:1035B00040F2D430C2F20000007804280CD0FFE7BB
:1035C00040F2E020C2F200000021017040F2E12050
:1035D000C2F200000170CAE040F24800C2F20000EE
:1035E00001889FED640ADFED640A04900846FEF747
:1035F0003BFF8DED0D0A04984088FEF707FF8DED27
:103600000C0A40F2E120C2F20000007800280FD13D
:10361000FFE79DED0D0A40F2E420C2F2000080EDCC
:10362000000A40F2E120C2F2000001210170FFE730
:1036300040F2E420C2F2000090ED000A9FED4F1A24
:10364000B4EEC10AF1EE10FA07DAFFE70D9840F286
:10365000E421C2F200010860FFE79DED0D0A40F28F
:10366000E420C2F2000090ED001A30EE410A9FED16
:10367000442A00EE021A80ED001A006840F2383148
:10368000C2F20001486091ED010A91ED001A91ED3E
:103690000E2A31EE400A8DED0B0A8DED0A2A40F21A
:1036A000E020C2F2000001780131CAB20170052A9F
:1036B0005DD3FFE740F2E020C2F20000002101707C
:1036C0009DED0C0A03918DED020A01F0C9FE9DEDFE
:1036D000020A00F0E1FD9DED0C0A0120019000F0CE
:1036E00003FC8DED090A40F23830C2F2000090ED83
:1036F0000C0A9DED091A30EE010A8DED080AB7EEAD
:10370000000AB4EEC01AF1EE10FA0398C8BF012007
:103710008DF81F009DED0B0A9DF81F00DDED0A0AD4
:103720009DED081A00F00101019800F0E5F98DED1A
:10373000060A9DED080A9DED061AB4EEC10AF1EEE7
:1037400010FA05DDFFE79DED080A8DED000A04E0A3
:103750009DED060A8DED000AFFE79DED000A8DED57
:10376000050A9DED050A002001F06EF9FFE70EB095
:1037700080BD00BF0038C74700609F456F12833A85
:103780000AD7A33D80B586B001F08EFE4FF0000E43
:10379000CDF80CE002F0E0F900280398029007D081
:1037A000FFE740F21040C2F2000000780290FFE70D
:1037B000029800F001008DF817009DF8170000F046
:1037C000010000F013FF8DF8160040F2D430C2F271
:1037D00000000078002811D0FFE740F2D430C2F298
:1037E00000000078072809D0FFE700F073FE0028EA
:1037F00003D0FFE700F068FE2EE1FFE740F2D4308F
:10380000C2F20000007801460728019100F22381EE
:103810000199DFE811F0080018003B006900D000B2
:103820000A01E9001F019DF81600C007002809D011
:10383000FFE700F013FF002804D0FFE7012001F0AC
:10384000BBFCFFE708E19DF81700C007002804D182
:10385000FFE7052001F0B0FCFEE000F0FFFE0028CD
:1038600004D1FFE7052001F0A7FCF5E040F2D430D9
:10387000C2F2000040686421FFF7D8FB002801D1A4
:10388000FFE7E9E0022001F097FCE5E001F02AFB08
:103890009DF817E04FEACE7EBEF1000F05D0FFE79E
:1038A00000F0DCFE002804D1FFE7052001F084FCD5
:1038B000D2E040F2D430C2F20000006A4FF4AF719F
:1038C000FFF7B4FB00280ED0FFE701F07DFA01F00E
:1038D000F1F940F2383EC2F2000E8EED0E0A0320DE
:1038E00001F06AFCB8E0B7E09DF81700C0070028B7
:1038F00005D0FFE700F0B2FE002804D1FFE7052065
:1039000001F05AFCA8E040F2D430C2F2000090ED81
:10391000030A9FED531A30EE010A8DED040A9DED66
:10392000040AFFF781FCB1EE081AB4EEC10AF1EE09
:1039300010FA11DCFFE740F2D430C2F20000006B55
:10394000012808D8FFE740F2D430C2F20000016B32
:1039500001310163FFE706E040F2D430C2F200001B
:1039600000210163FFE740F2D430C2F20000C06AD8
:103970001421FFF75BFB00280CD0FFE740F2D430A6
:10398000C2F20000006B022804D3FFE7042001F01C
:1039900013FC61E040F2D430C2F20000C06A4FF480
:1039A000C871FFF743FB002804D0FFE7052001F0B2
:1039B00003FC51E050E09DF81700C00700280ED02E
:1039C000FFE740F2D430C2F2000090ED020A9FED12
:1039D000231AB4EEC10AF1EE10FA04DAFFE705206B
:1039E00001F0EAFB38E037E001F0D6FB01F0AAFA7B
:1039F000002819D0FFE7002000F024FF01F0BEFAF4
:103A000040F2D430C2F20000406A4FF42F71FFF749
:103A10000DFB002807D0FFE7002000F0F9FC012093
:103A200001F0CAFBFFE7FFE716E001F0B5FB01F08C
:103A300089FA00280DD0FFE70020009000F002FF77
:103A4000009800F0E5FC01F099FA009801F0B4FB51
:103A5000FFE701E000E0FFE706B080BD0080A24381
:103A600000005CC280B590B0B0EE623AB0EE424A5F
:103A7000B0EE615AB0EE416AB0EE607AF0EE403AD4
:103A80008DED0F0ACDED0E0A8DED0D1ACDED0C1A50
:103A90008DED0B2ACDED0A2A9DED0C0A9DED0F1A36
:103AA00030EE410A8DED090A9DED090A9DED0D1AD2
:103AB0009DED0E2A01EE420A8DED080A9DED0A0ADF
:103AC0009DED0B1A30EE410A8DED070A9DED080AB7
:103AD0009DED071AF1EE410A8DED063A8DED054A8E
:103AE0008DED045A8DED036A8DED027ACDED013A2C
:103AF000FFF74CFB10B080BD80B59EB0B0EE412A00
:103B0000B0EE603A0A460346B0EE404A8DED1C0A1C
:103B10008DF86F008DF86E10CDED1A0A8DED191A23
:103B200040F23830C2F2000090ED020A90ED0C1A1B
:103B3000D0ED100A8DED180AC16817918DED161A97
:103B4000416B1591CDED140AC16B139190ED110AE3
:103B50008DED120A806C11909DED160AB5EEC00A2B
:103B6000F1EE10FA8DED082A8DED073A06920593D5
:103B70008DED044A0ADDFFE79DED160A9DED151A4D
:103B8000B4EEC10AF1EE10FA0BDBFFE74EF60000CF
:103B9000C4F27D70169042F20040C4F67400159095
:103BA000FFE79DED140AB5EEC00AF1EE10FA06DC4F
:103BB000FFE748F20000C4F23B501490FFE79DED90
:103BC000180AB5EEC00AF1EE10FA05DCFFE7002096
:103BD000C4F220101890FFE79DED170AB5EEC00A59
:103BE000F1EE10FA03DAFFE700201790FFE79DEDF2
:103BF000130AB5EEC00AF1EE10FA0DDCFFE79DEDF9
:103C0000160A9DED151A30EE010AB6EE001A20EEE6
:103C1000010A8DED130AFFE79DED110AB5EEC00A0A
:103C2000F1EE10FA03DAFFE700201190FFE79DF8AC
:103C30006F00C00700280DD1FFE740F23830C2F214
:103C40000000002101611A9A826380F85410806B91
:103C50001D9041E19DED120AB5EEC00AF1EE10FA99
:103C600003DAFFE700201290FFE79DED1C0AFFF743
:103C7000DBFA9DED121AB4EEC10AF1EE10FA05DA84
:103C8000FFE79FED970A8DED030A04E09DED1C0A06
:103C90008DED030AFFE79DED030A8DED100A40F25A
:103CA0003830C2F2000090F85400C00700281DD13F
:103CB000FFE79DED1A0A40F23830C2F2000080EDB5
:103CC0000E0ADDED100A9DED181ADDED131A9DEDBB
:103CD000162ADDED152A0290FFF7C4FE029880ED4A
:103CE000040A4FF0010E80F854E0FFE740F238304C
:103CF000C2F2000090ED0E0A8DED0F0A0F980E90A3
:103D00009DF86E00C007002821D0FFE79DED190A3D
:103D1000DDED160A9DED151AFFF738FA8DED0D0A47
:103D20009DED130A9DED0D1A30EE410A9DED181A16
:103D3000DDED100A01EE600A40F2383EC2F2000EDC
:103D40008EED040ADDF834E0CDF838E052E040F2C0
:103D50003830C2F2000090ED040A9DED171A9DED77
:103D6000102A01EE020A8DED0C0A9DED180A9DED58
:103D70000C1A00EE021A8DED0B1A9DED130A9DED43
:103D80000B1A30EE410A8DED0A0A9DED0A0ADDEDAF
:103D9000160A9DED151AFFF7F9F98DED0E0A9DED46
:103DA0000A0A9DED0E1A30EE410AFFF73DFA9FED2B
:103DB0004D1AB4EEC10AF1EE10FA13DDFFE79DEDE6
:103DC000130A9DED0E1A30EE410A9DED181A9DED75
:103DD000102A01EE420A40F23830C2F2000080EDB3
:103DE000040A06E00C9840F23831C2F20001086182
:103DF000FFE7FFE79DED0E0A9DED0F1A30EE410A39
:103E00008DED090A9DED090A9DED141AB4EEC10A63
:103E1000F1EE10FA0DDDFFE79DED0F0A9DED141A8E
:103E200030EE010A40F23830C2F2000080ED0E0A96
:103E300020E09DED090A9DED141AB1EE411AB4EE91
:103E4000C10AF1EE10FA0DDAFFE79DED0F0A9DEDC4
:103E5000141A30EE410A40F23830C2F2000080ED10
:103E60000E0A06E00E9840F23831C2F20001886373
:103E7000FFE7FFE79DED110AB5EEC00AF1EE10FA7B
:103E800015DDFFE740F23830C2F2000090ED0E0A77
:103E90009DED111A80EE010A019003F077FF9DED70
:103EA000111A20EE010A019880ED0E0AFFE740F298
:103EB0003830C2F2000090ED0E0ADDED160A9DEDDD
:103EC000151A0090FFF762F9009880ED0E0AD0F8FD
:103ED00038E0CDF874E0FFE79DED1D0A1EB080BD0F
:103EE00000000000BD37863580B592B00146B0EEC7
:103EF000401A8DED100A8DF83F0040F29030C2F26A
:103F0000000090ED010A90ED042A90ED093A8DED44
:103F10000E0AC2680D928DED0C2A42690B928DED4E
:103F20000A3A806A09909DF83F00C0070028029174
:103F30008DED011A0BD1FFE740F29030C2F2000084
:103F400000218161C16280F84010119135E1109823
:103F500040F29031C2F20001886091F84000C00741
:103F6000002817D1FFE79DED100A40F29030C2F211
:103F7000000090ED0C1AB4EEC10AF1EE10FA08DB65
:103F8000FFE740F29030C2F20000012180F84010BB
:103F9000FFE716E09DED100A40F29030C2F20000FB
:103FA00090ED0D1AB4EEC10AF1EE10FA08DCFFE74D
:103FB00040F29030C2F20000002180F84010FFE78C
:103FC000FFE70020089040F29030C2F2000090F825
:103FD0004000C007002808D1FFE740F29030C2F24D
:103FE000000000218161089191E09DED100A9DED96
:103FF0000E1A30EE410A8DED070A9DED070A9DED80
:104000000D1AB4EEC10AF1EE10FA03DDFFE70D98C8
:10401000079013E09DED070A9DED0D1AB1EE411AD0
:10402000B4EEC10AF1EE10FA07DAFFE79DED0D0AD2
:10403000B1EE400A8DED070AFFE7FFE740F290304E
:10404000C2F2000090ED060A9DED0B1A9DED072AC5
:1040500001EE020A8DED060A9DED0C0A9DED061A91
:1040600000EE021A8DED051A9DED050A9DED0A1A66
:10407000B4EEC10AF1EE10FA03DDFFE70A980890EA
:104080000EE09DED050AB5EEC00AF1EE10FA03DA76
:10409000FFE70020089002E005980890FFE7FFE79F
:1040A0009DED050A9DED081A30EE410AFFF7BCF8B8
:1040B0009FED441AB4EEC10AF1EE10FA0FDDFFE7EE
:1040C0009DED080A9DED0C1A9DED072A01EE420AAE
:1040D00040F29030C2F2000080ED060A06E0069839
:1040E00040F29031C2F200018861FFE740F2903067
:1040F000C2F2000090ED060A9DED0A1AF1EE410AA7
:104100000090FFF743F8009880ED060AFFE79DED69
:10411000080A40F29030C2F2000090ED0B1A30EE27
:10412000410A8DED040A089803909DED040A9DED67
:10413000091AB4EEC10AF1EE10FA0DDDFFE740F204
:104140009030C2F2000090ED0B0A9DED091A30EE9E
:10415000010A8DED030A19E09DED040A9DED091A8F
:10416000B1EE411AB4EEC10AF1EE10FA0DDAFFE732
:1041700040F29030C2F2000090ED0B0A9DED091A5A
:1041800030EE410A8DED030AFFE7FFE79DED030ADC
:104190009DED0A1ADFED0C0AFEF7F8FF8DED030A1C
:1041A0009DED030A40F2903EC2F2000E8EED0B0A26
:1041B000DDF80CE0CDF844E0FFE79DED110A12B008
:1041C00080BD00BFBD3786350000000082B040F2E0
:1041D0009030C2F2000090ED010AB6EE001A30EE07
:1041E000011A8DED011ABFEE001A30EE010A8DEDB5
:1041F000000A9DED010AB5EEC00AF1EE10FA03DAED
:10420000FFE700200190FFE79DED000AB5EEC00A30
:10421000F1EE10FA03DAFFE700200090FFE79DEDD2
:10422000000A9DED011AB4EEC10AF1EE10FA14DB9A
:10423000FFE79DED010A9FED0F1A30EE010A8DEDAB
:10424000000A9DED000AB5EEC00AF1EE10FA03DA9D
:10425000FFE700200090FFE7FFE79DED010A40F235
:104260009030C2F2000080ED0C0A0099416302B068
:10427000704700BFCDCCCCBD80B540F29030C2F2CB
:10428000000090ED000A80ED010A00218163C16306
:10429000FFF79CFF80BD000080B586B005A90246EF
:1042A000B0EE401A81ED000A8DF813009DF813005E
:1042B000C0070028039102928DED011A03D1FFE798
:1042C000FFF7DAFFA1E040F29030C2F20000806B0D
:1042D00000280BD1FFE740F2DC20C2F200000068AA
:1042E00040F29031C2F200018863FFE740F2903063
:1042F000C2F20000C06B00280BD1FFE740F2DC20C7
:10430000C2F20000006840F29031C2F20001C863BE
:10431000FFE700208DF81200039890ED000A40F2AC
:104320009031C2F2000191ED0C1AB4EEC10AF1EE27
:1043300010FA21DBFFE740F29030C2F20000806B00
:104340006421FEF773FE002816D0FFE740F290309C
:10435000C2F2000090ED010ABEEE001A30EE010A32
:1043600080ED010A40F2DC21C2F20001096881639C
:1043700001208DF81200FFE7039890ED000A40F24B
:104380009031C2F2000191ED0D1AB4EEC10AF1EEC6
:1043900010FA21DCFFE740F29030C2F20000C06B5F
:1043A000C821FEF743FE002816D0FFE740F2903008
:1043B000C2F2000090ED010AB6EE001A30EE010ADA
:1043C00080ED010A40F2DC21C2F200010968C163FC
:1043D00001208DF81200FFE79DF81200C0070028A9
:1043E00013D0FFE740F29030C2F2000090ED001AC7
:1043F00090ED010AF2EE040A0090FEF7C7FE009865
:1044000080ED010AFFF7E2FEFFE706B080BD000085
:1044100080B584B001468DF80F0040F2E820C2F26A
:1044200000000078C007002802911DD1FFE740F28C
:10443000046002F03BFB41F20000C4F201001021D5
:1044400003224FF4006E01907346CDF800E0FEF7B2
:1044500025FF01980099FEF709FF40F2E820C2F21B
:10446000000001210170FFE740F2E920C2F20000E4
:10447000007800F001009DF80F1001F00101884262
:1044800001D1FFE71DE09DF80F0000F0010040F2B0
:10449000E921C2F200010870002809D0FFE741F2CB
:1044A0000000C4F201004FF40061FEF7EBFE08E0EB
:1044B00041F20000C4F201004FF40061FEF7D6FEA5
:1044C000FFE704B080BD000080B5072000F074FE57
:1044D00080BD000080B582B040F2D430C2F200004E
:1044E00090ED030A9FED171AB4EEC10AF1EE10FA2F
:1044F00004DDFFE701208DF807001EE040F2D43014
:10450000C2F2000090ED040A9FED0F1AB4EEC10A4A
:10451000F1EE10FA04DDFFE701208DF807000CE052
:1045200000F040F8002804D0FFE701208DF80700D4
:1045300003E000208DF80700FFE79DF8070002B0B8
:1045400080BD00BF0000684200002C4282B00146DE
:10455000019001980028009101D1FFE716E040F298
:10456000D430C2F2000090ED030A019981ED000AF7
:1045700090ED040A019981ED010A90ED020A01997A
:1045800081ED020A007801990873FFE702B07047D5
:1045900040F2D430C2F2000000780738B0FA80F060
:1045A0004009704781B040F2D430C2F20000007E72
:1045B0000021C0070028009111D0FFE740F2D4305D
:1045C000C2F2000090ED050A9FED071A0020B4EE3C
:1045D000C10AF1EE10FAA8BF01200090FFE7009891
:1045E00000F0010001B070470000D24280B582B0F7
:1045F00001468DF806009DF80600C00700280091CE
:1046000009D1FFE740F2D430C2F200000021C161BD
:104610008DF807101DE040F2D430C2F20000C069EE
:1046200000280BD1FFE740F2DC20C2F20000006856
:1046300040F2D431C2F20001C861FFE740F2D43049
:10464000C2F20000C0693221FEF7F0FC8DF80700CD
:10465000FFE79DF8070002B080BD000040F2D430B3
:10466000C2F2000090ED020A9FED041A0020B4EEA1
:10467000C10AF1EE10FAA8BF012070470000AA435A
:1046800080B588B001468DF81F0042F60040C4F2A4
:1046900001000022069005911146049203F0E6F80D
:1046A00006980499049A02F0B1FE9DF81F0020219B
:1046B00010F0010F18BF10210698049A03911146BB
:1046C000039A02F053FE4FF001000699029008464B
:1046D000029902F0C3FF0698029902F0ADFFFFE7CE
:1046E00042F60040C4F20100012102F0C7FF002899
:1046F00001D1FFE7F4E742F60040C4F201000121D6
:104700000190009102F0AAFF42F62440C4F2010099
:10471000002101600198009903F0A8F808B080BD5D
:1047200080B594B00146139013980268436880687E
:1047300040F2FC2CC2F2000CCCF80020CCF8043083
:10474000CCF808000491CDF80CC001F079FD40F2DE
:104750000B6002F0ABF902F04DFC0E900E9803993D
:104760000A68B0FBF2F0013840F26442C2F2000283
:1047700010600020ADF83C00ADF83E00ADF8400000
:1047800012681192ADF848008DF84A0042F60042D6
:10479000C4F201020FA902901046019202F088FFB4
:1047A00001200A900420ADF82C000298ADF82E00EC
:1047B000ADF83000ADF83200ADF834000AAA019827
:1047C000029902F061FC602001990090084602996C
:1047D000009A02F0CBFD01980299029A02F016FEAF
:1047E00008220198029902F03DFE4FF40060ADF8F6
:1047F00014004FF4806006900298ADF822000399EF
:1048000048680E99FDF76CF9ADF81C004FF4805024
:10481000ADF824000298ADF81E00ADF8200005A9FF
:10482000019802F00DFC0198009903F009F8019835
:1048300002F0FAFB019802F0F3FE029800F002F891
:1048400014B080BD80B584B001468DF80F009DF88E
:104850000F00C0070028029106D0FFE70120FFF7F4
:104860000FFF00F013F80EE042F60040C4F2010022
:1048700000210190009102F0F9FF01980099009A3F
:1048800002F0C4FDFFE704B080BD000080B586B033
:1048900042F60040C4F2010000210490039102F0AE
:1048A000E5FF60220498039902F060FD40F2FC20CD
:1048B000C2F2000090ED020AFEF7D0FAADF8160041
:1048C000BDF816200498039902F0A0FD0120049978
:1048D00002900846029902F0C1FE0498029902F083
:1048E000ABFEFFE742F60040C4F20100012102F0F6
:1048F000C5FE002801D1FFE7F4E742F60040C4F20C
:10490000010001210190009102F0A8FE42F624402E
:10491000C4F20100002101600198009902F0A6FF95
:1049200006B080BD80B586B004A8B0EE401A80ED18
:10493000010A90ED010ADFED120A9FED122A8DEDBA
:10494000021AB0EE421A0190FDF716FD019880EDB3
:10495000000A90ED000A40F2FC2EC2F2000E8EED2D
:10496000020AFEF77BFAADF80E00BDF80E2042F603
:104970000040C4F20100002102F048FD06B080BDF5
:1049800000000000A4707D3F80B588B00A46034651
:1049900007908DF81B10079800280292019301D10F
:1049A000FFE74EE002F026FB05900598002801D1B4
:1049B000FFE746E005980799B0FBF1F004900498F2
:1049C000012803D8FFE702200490FFE70498B0F124
:1049D000011F04D3FFE74FF480300490FFE70498F1
:1049E000411E40F26442C2F2000211600599B1FB1F
:1049F000F0F040F2FC21C2F200010860106842F6BB
:104A00002C42C4F20102106091ED020AFEF726FA70
:104A1000ADF80E00BDF80E2042F60040C4F20100D1
:104A2000002102F0F3FC9DF81B00C007002808D00D
:104A3000FFE742F60040C4F20100012102F0FCFD54
:104A4000FFE708B080BD000080B586B00146B0EE3B
:104A5000401A8DED050A8DF813009DED050A40F210
:104A60003830C2F20000D0ED0C0A90ED0D2A8DED29
:104A7000021AB0EE421A01910090FEF787FB8DED0D
:104A8000030A9DED030A009880ED0E0ABCEEC00AF1
:104A900010EE101A9DF813E00EF0010E0846714654
:104AA000FFF772FF06B080BD80B584B0B0EE401A4B
:104AB0008DED030A9DED030ADFED190A9FED192A1A
:104AC0008DED011AB0EE421AFEF760FB8DED020A81
:104AD0009DED020A40F2903EC2F2000E8EED000AF9
:104AE0009EED011AB4EEC01AF1EE10FA0CDCFFE7ED
:104AF00040F29030C2F2000090ED010AB5EEC00A1B
:104B0000F1EE10FA07DCFFE7029840F29031C2F2B2
:104B100000014860FFE7FFF759FB04B080BD00BF0C
:104B2000000000000000204282B001468DF807001E
:104B30009DF8070000F0010040F21042C2F20002AE
:104B40001070009102B0704780B582B0B0EE401A8C
:104B50008DED010A9DED010ADFED080A9FED082A9F
:104B60008DED001AB0EE421AFEF710FB40F2383E0F
:104B7000C2F2000E8EED000A02B080BD00000000FF
:104B80000000664280B582B040F21440C2F20000DC
:104B90000021417081704160DFED060A9FED060A39
:104BA0008DED010A9DED011AFEF7B0FA02F0B0F8A2
:104BB00002B080BD00E87D470024744880B588B00D
:104BC000B0EE401A8DED070A40F21440C2F2000028
:104BD0004FF49671C1609FED2A0A9FED2A2A8DED50
:104BE000040AB0EE420ADDED040A8DED031AB0EEC0
:104BF000421A8DED022A0190FEF788FA8DED060A21
:104C00009DED070ADDED040A9DED021AFEF77EFA1E
:104C10008DED050A00200199887048609DED060A17
:104C200081ED040A05984861C86800280AD0FFE7AA
:104C30009DED060A9DED051AB4EE410AF1EE10FA5B
:104C40000BD1FFE740F21440C2F200000021417096
:104C50009DED050A02F05CF810E040F21440C2F24B
:104C600000000121417040F2DC21C2F2000109681C
:104C700081609DED060A02F04BF8FFE708B080BDA9
:104C800000E87D470024744880B540F21440C2F229
:104C900000000078C00700280AD1FFE700F042F8C2
:104CA00040F2144EC2F2000E01208EF80000FFE721
:104CB00080BD000080B582B040F21440C2F2000016
:104CC0000078C00700280BD1FFE79FED0B0ADFED4E
:104CD0000B0A9FED0B1AFEF719FA8DED010A06E09B
:104CE00040F21440C2F2000080690190FFE79DEDA0
:104CF000010A02B080BD00BF007C924700E87D47FA
:104D00000024744880B540F21440C2F200000078DC
:104D1000C007002801D1FFE702E0FFF733FFFFE7FC
:104D200080BD000080B584B040F21440C2F20000A3
:104D3000002141708170416081604FF49671C160C3
:104D40009FED110A9FED111A8DED030AB0EE410A95
:104D5000DDED030A8DED021A0190FEF7D7F90198F7
:104D600080ED040A9FED0A0ADDED030A9DED021AAB
:104D7000FEF7CCF9019880ED050A90ED040A01F0E8
:104D8000C7FF04B080BD00BF00E87D470024744821
:104D9000007C924780B582B0B0EE401A8DED010ADA
:104DA00040F21440C2F200000078C00700288DEDE8
:104DB000001A03D1FFE7FFF767FFFFE79DED010A48
:104DC000FFF7FCFE02B080BD40F21440C2F20000CA
:104DD0000078C007002801D1FFE708E040F2144046
:104DE000C2F200000021417081704160FFE770470E
:104DF00080B586B040F21440C2F200004078C0078F
:104E0000002801D1FFE76AE040F21440C2F200003E
:104E10008078C007002809D0FFE740F21440C2F2B2
:104E2000000090ED060A01F073FF58E040F2DC202C
:104E3000C2F20000006840F21441C2F200018A6828
:104E4000C968801A0590059888420BD3FFE740F2A5
:104E50001440C2F200000021417090ED050A01F0FB
:104E600057FF3CE040F21440C2F20000C068002846
:104E700011D0FFE79DED050AB8EE400A40F214405C
:104E8000C2F2000090ED031AB8EE411A80EE010A5A
:104E90008DED010A04E0B7EE000A8DED010AFFE78F
:104EA0009DED010A8DED040A9DED040AFEF734F82C
:104EB0008DED030A40F2144EC2F2000E9EED040A7C
:104EC0009EED051A31EE401A9DED032A01EE020A0D
:104ED0008DED020A9DED020A01F01AFFFFE706B010
:104EE00080BD000080B540F21440C2F2000000789E
:104EF000C007002803D1FFE7FFF7C6FEFFE7FFF773
:104F000077FF80BD40F23040C2F200000078C00759
:104F1000002816D1FFE740F23040C2F20000002125
:104F20004170817041608160C822C26042F20042DB
:104F3000C4F674020261426182610177012101704D
:104F4000FFE7704781B040F23040C2F200000078C5
:104F5000C007002804D1FFE701208DF8030009E015
:104F600040F23040C2F20000007F00F001008DF8F6
:104F70000300FFE79DF8030001B0704740F23040A6
:104F8000C2F20000002141708170416081600177B0
:104F900042F20041C4F674018161704780B588B067
:104FA000B0EE401A8DED070A40F23040C2F2000028
:104FB0000078C00700288DED041A03D1FFE7FFF742
:104FC000A1FFFFE740F23040C2F200004078C00786
:104FD000002801D0FFE75DE040F23040C2F200005F
:104FE000C821C1609DED070A9FED2B1A9FED2B2A6A
:104FF000F0EE410A8DED031AB0EE421A02908DEDEB
:10500000012AFEF783F88DED060A9DED010ADDED1C
:10501000030A9DED011AFEF779F88DED050A0020CF
:105020000299887048609DED060A81ED040A9DEDA5
:10503000050A81ED050A0877C86800280AD0FFE74D
:105040009DED060A9DED051AB4EEC10AF1EE10FAC7
:105050000FDBFFE740F23040C2F200000021417058
:1050600001210177059981619DED050A01F050FE4E
:1050700010E040F23040C2F200000121417040F2E5
:10508000DC21C2F20001096881609DED060A01F091
:105090003FFEFFE708B080BD00E87D47002474486C
:1050A00080B586B040F23040C2F200004078C007C0
:1050B000002801D1FFE76CE040F23040C2F200006E
:1050C0008078C007002809D0FFE740F23040C2F2E4
:1050D000000090ED060A01F01BFE5AE040F2DC20D1
:1050E000C2F20000006840F23041C2F200018A685A
:1050F000C968801A0590059888420DD3FFE740F2F1
:105100003040C2F20000002141700121017790ED92
:10511000050A01F0FDFD3CE040F23040C2F2000023
:10512000C068002811D0FFE79DED050AB8EE400ADF
:1051300040F23040C2F2000090ED031AB8EE411A7E
:1051400080EE010A8DED010A04E0B7EE000A8DED54
:10515000010AFFE79DED010A8DED040A9DED040AA9
:10516000FDF7DAFE8DED030A40F2304EC2F2000E7A
:105170009EED040A9EED051A31EE401A9DED032ABC
:1051800001EE020A8DED020A9DED020A01F0C0FD5A
:10519000FFE706B080BD000080B540F23040C2F2AB
:1051A00000000078C007002803D1FFE7FFF7AAFE40
:1051B000FFE7FFF775FF80BD80B590B001468DF821
:1051C0003F0040F2D430C2F2000000789DF83F204A
:1051D00090420E9101D1FFE73CE19DF83F0040F283
:1051E000D431C2F20001087040F2DC22C2F20002A7
:1051F00012684A60042827D0FFE740F23830C2F234
:10520000000090ED0E0A9FED941A00208DED0D0A1E
:10521000B0EE410A0C900C99DDED0D0A9DED0D2AC2
:105220008DED0B1AB0EE421AFEF766FC9DED0B1ADF
:105230008DED0A0AB0EE410A0C98FEF755FE8DED91
:10524000090AFFF719F8FFE79DF83F000146072814
:10525000089100F2E6800899DFE801F00430415738
:10526000779FB5CBFFF74EFDFFF788FE4FF0000E9E
:105270007046CDF81CE0FFF7E5FA0798FFF7C8F88D
:1052800040F23830C2F2000090ED0D0A0120FFF725
:10529000DBFB40F2D430C2F20000DDF81CE0C0F8C5
:1052A00020E0C0F824E0C0F828E0C0F81CE0C0F816
:1052B0002CE0C0F830E0C0F834E0CBE001200690EC
:1052C000FFF7A6F80020FFF7BDFA40F23830C2F22F
:1052D000000090ED0D0A0698FFF7B6FBBAE040F229
:1052E000DC20C2F20000006840F2D431C2F20001BA
:1052F000086201200590FFF78BF80598FFF7A2FAE6
:105300009FED560AFFF746FDA4E001200490FFF749
:105310007FF840F2DC20C2F20000006840F2D43E88
:10532000C2F2000ECEF82C000020CEF83000FFF7BD
:10533000C1FC40F23830C2F2000080ED0E0A90ED60
:105340000E0A0498FFF780FB84E00120FFF760F865
:1053500040F2DC20C2F20000006840F2D43EC2F20B
:10536000000ECEF8280040F23830C2F20000D0ED36
:105370000C0A90ED0D1A90ED0E0A0390FDF706FF52
:10538000039880ED0F0A40F2903EC2F2000E002119
:10539000CEF82C108EF840105CE040F2DC20C2F217
:1053A0000000006840F2D431C2F2000148620120DE
:1053B000FFF72EF840F23830C2F2000090ED0E0AEE
:1053C000FFF7ECFD46E040F2DC20C2F2000000688E
:1053D00040F2D431C2F2000148620120FFF718F810
:1053E00040F23830C2F2000090ED0E0AFFF7D6FD11
:1053F00030E0FFF787FCFFF7C1FD4FF0000E70466D
:10540000CDF808E0FFF71EFA0298FFF701F840F226
:105410003830C2F2000090ED0D0A0120FFF714FBB6
:1054200018E0FFF76FFC4FF0000E7046CDF804E077
:1054300000F00EFB0198FFF705FA0198FEF7E8FF70
:1054400040F23830C2F2000090ED0D0A0120FFF763
:10545000FBFAFFE710B080BD00000000007C92471F
:1054600081B040F2D430C2F20000007E0021C007BB
:105470000028009111D0FFE740F2D430C2F20000C2
:1054800090ED050A9FED071A0020B4EEC10AF1EE77
:1054900010FAA8BF01200090FFE7009800F001007B
:1054A00001B070470000BE4280B586B00020059074
:1054B00004900390029002A801F068FD9DF814008A
:1054C00000F0010040F2D43EC2F2000E8EF8180047
:1054D0000498CEF8140040F24800C2F2000001889F
:1054E0009FED100ADFED100A01900846CDF800E0AC
:1054F000FCF7BAFF009880ED030A01994888FCF791
:1055000085FF009880ED040A00F078FA009880ED9D
:10551000020AC16840F2383EC2F2000ECEF8041012
:1055200006B080BD0038C74700609F4580B588B091
:1055300000200790FBF714FA4FF4A06000F05EF92A
:105540004FF46130FDF754F901F0D0FC48F6A400A7
:10555000C0F60000D0F800E0416880680690059130
:10556000CDF810E004A8FFF7DBF84FF46020FCF75B
:105570006FF8FCF77BF8FCF78FF8FBF7B7FFFBF74A
:10558000CFFC01F01DFD00F0B3FE00F0E7FE0028A7
:1055900008D1FFE700F0F0FE002803D0FFE700F09D
:1055A0009BFEFFE700F008FF8DF80F00FCF7BAF94B
:1055B0008DF80E009DF80F00C007002806D0FFE709
:1055C0009DF80E00C00700280AD1FFE748F6B40096
:1055D000C0F60000FDF7F4F80090FFE700BFFDE71C
:1055E00000F096FAFDF73CFFFCF7EAFB4FF47A7007
:1055F000FDF7B8F900F006FAFFE7002002900190ED
:1056000072B640F22430C2F200000068002809D0CF
:10561000FFE740F22430C2F200000168029100214D
:105620000160FFE740F2F020C2F2000000680028AD
:1056300009D0FFE740F2F020C2F2000001680191BA
:1056400000210160FFE762B6FFE70198411E01916A
:10565000002819D0FFE7FBF7DBFFFDF7A7FFFCF7FA
:105660001BF8DDF804E0BEF1150F0CD3FFE701983D
:1056700040F2EC21C2F200010A68104414380860BC
:1056800014200190FFE7E0E7FFE70298411E029136
:10569000002815D0FFE7FCF7AFFEDDF808E0BEF10B
:1056A000060F0CD3FFE7029840F2BC41C2F20001A2
:1056B0000A6810440538086005200290FFE7E4E717
:1056C0009BE7000080B587B013468C4686468DF870
:1056D0001B008DF81A108DF81920002005900490F9
:1056E00003904EF60C50CEF20000006800F4E0602B
:1056F000B0F5E06F0293CDF804C0CDF800E005D11D
:10570000FFE7002004900420039043E04EF60C5085
:10571000CEF20000006800F4E060B0F5C06F05D183
:10572000FFE7012004900320039032E04EF60C5076
:10573000CEF20000006800F4E060B0F5A06F04D184
:10574000FFE702200490039022E04EF60C50CEF2C8
:105750000000006800F4E060B0F5806F05D1FFE75D
:10576000032004900120039011E04EF60C50CEF27D
:105770000000006800F4E060B0F5407F05D1FFE76D
:10578000042004900020039000E0FFE7FFE7FFE71C
:10579000FFE7FFE79DF81A000499C1F10401884072
:1057A00005909DF819000399C1F104010F2222FA16
:1057B00001F10840059908430590059800010590FE
:1057C00005989DF81B104EF20042CEF2000288545C
:1057D0009DF81B0000F01F01012202FA01F14EF2B8
:1057E0000012CEF2000242EAD0004EF21C12CEF2BB
:1057F00000021040016007B080BD000082B0014689
:10580000019001980022C0F2FA5210434EF60C5259
:10581000CEF200021060009102B0704780B582B0F5
:1058200000F024F840F23C0EC2F2000E9EF800E0B8
:10583000BEF1010F0FD0FFE740F60040C4F20100B7
:1058400001210191FDF71EFD40F23C00C2F2000073
:105850000199017007E040F60040C4F20100012107
:10586000FDF710FDFFE702B080BD000080B582B0FB
:1058700040F26040C2F200000078C007002818D152
:10588000FFE740F2036001F011F940F60040C4F276
:105890000100102103224FF0010E7346CDF804E001
:1058A000FDF7FCFC40F26040C2F20000019901707B
:1058B000FFE702B080BD000080B582B0B0EE401AB4
:1058C0008DED010A8DED001AFFF7A8FF02B080BD33
:1058D00080B582B000F032F8002809D0FFE740F22E
:1058E0006840C2F20000002101628DF8071020E03C
:1058F00040F26840C2F20000006A00280ED1FFE7C3
:1059000040F2DC20C2F20000006840F26841C2F2BE
:105910000001086200208DF807000AE040F26840AC
:10592000C2F20000006AC821FDF758FB8DF807009D
:10593000FFE79DF8070002B080BD000082B040F292
:105940006840C2F20000406B01909DED010A00200A
:105950009FED0D1AB4EEC10AF1EE10FA00900DDBC6
:10596000FFE79DED010A9FED091A0020B4EEC10A80
:10597000F1EE10FAD8BF01200090FFE7009800F088
:10598000010002B0704700BF0000AA4200808543BA
:1059900080B582B0FFF7D2FF002809D1FFE740F2BF
:1059A0006840C2F200000021C1618DF8071020E0BC
:1059B00040F26840C2F20000C06900280ED1FFE743
:1059C00040F2DC20C2F20000006840F26841C2F2FE
:1059D0000001C86100208DF807000AE040F268402D
:1059E000C2F20000C069C821FDF7F8FA8DF807007F
:1059F000FFE79DF8070002B080BD000080B500F011
:105A000013F880BD40F26840C2F20000012101722B
:105A10000078002807D1FFE740F26840C2F200009A
:105A20000021C160FFE7704740F26840C2F2000009
:105A300090ED0F0A7047000080B582B001460190DA
:105A4000009100F093F8032000F06EF902B080BDE1
:105A500080B582B001468DF8070040F2EA20C2F21C
:105A600000000078012222EA00008DF806009DF86F
:105A70000600C0070028009115D0FFE740F204603F
:105A800001F014F841F20000C4F2010010210322D9
:105A90004FF48063FDF702FC40F2EA20C2F20000FE
:105AA00001210170FFE79DF80600C00700280FD113
:105AB000FFE740F2EB20C2F20000007800F00100A6
:105AC0009DF8071001F00101884201D1FFE71DE0B8
:105AD0009DF8070000F0010040F2EB21C2F2000146
