:020000040800F2
:1000000070050020450100081508000805080008D3
:1000100011080008F9060008250B00080000000080
:100020000000000000000000000000001D080008A3
:100030000108000800000000190800082108000855
:100040005F0100085F0100085F0100085F01000810
:100050005F0100085F0100085F0100085F01000800
:100060005F0100085F0100085F0100088D070008BC
:100070005F0100085F0100085F0100085F010008E0
:100080005F0100085F0100085F0100085F010008D0
:100090005F0100085F0100085F0100085F010008C0
:1000A000090A00085F0100085F0100085F010008FD
:1000B0005F0100085F010008350A00085F010008C1
:1000C0005F0100085F0100085F0100085F01000890
:1000D0005F0100085F0100085F0100085F01000880
:1000E0005F0100085F0100085F0100085F01000870
:1000F0005F0100085F0100085F0100085F01000860
:100100005F0100085F0100085F0100085F0100084F
:100110005F0100085F010008710A0008C90A0008B1
:100120005F0100085F0100085F0100085F0100082F
:10013000DFF80CD000F096FA00480047793F00083D
:10014000700500200648804706480047FEE7FEE7A6
:10015000FEE7FEE7FEE7FEE7FEE7FEE7FEE7FEE777
:10016000A50900083101000840EA01039B0703D0FC
:1001700009E008C9121F08C0042AFAD203E011F8E6
:10018000013B00F8013B521EF9D27047D2B201E0A8
:1001900000F8012B491EFBD270470022F6E710B58C
:1001A00013460A4604461946FFF7F0FF204610BDE5
:1001B0002DE9FE4F804681EA0300C00F0C460090F7
:1001C00021F0004123F00045B8EB0200A94105D21F
:1001D0004046214690461C460B46024623F000400E
:1001E000104347D0270DC7F30A00C3F30A5102900A
:1001F000401A019040286BDAC3F3130040F4801BCF
:100200000098924620B10023D2EB030A63EB0B0B5C
:1002100001985946C0F14002504600F077F9064671
:100220000D4650465946019A00F08FF910EB080030
:100230006141002487EA115284EAE7731A4340D0EF
:10024000009A62B3019A012A4FEA075215DC001B9B
:1002500061EB02014FF0004202EA0752CDE9004291
:10026000001C41F5801132462B4600F0ADF903B079
:10027000BDE8F08F40462146F9E7001B61EB020123
:10028000001C41F5801300185B412018A2F50017EF
:1002900047EB030140EAD570B6196D4111E06D08D6
:1002A0004FEA360645EAC0754FEA0752001B61EB7C
:1002B0000201001C41F5801149084FEA3000001985
:1002C000514132462B4603B0BDE8F04F00F06DB906
:1002D0000098012240000023D0EB020263EBE073A0
:1002E000009821464FEAE074B8EB000061EB04018E
:1002F000E9E783F000435BE781F0004158E72DE92F
:10030000FE4F81EA030404F0004421F00041009410
:100310004FF0000B23F0004350EA01045ED052EA94
:1003200003045BD0C3F30A54C1F30A552C44A4F26E
:10033000F3340194A0FB0254C1F3130141F4801182
:10034000C3F3130343F4801301FB024400FB034E89
:10035000840A970A44EA815447EA8357A4FB076852
:1003600002958D0A05FB07854FEA932C04FB0C547C
:100370002705029D4FEA065847EA1637B5EB0805F0
:100380006EEB070C870E920E47EA811742EA831242
:10039000A7FB0201B6EB0B0164EB00042B0D43EA53
:1003A0000C335E1844EB1C50DA465146E7FB020161
:1003B000C5F313044FEA0B3343EA14534FEA0432F4
:1003C000019C43EA0603A4F10C040294009CCDE9CD
:1003D00000B400F0F9F803B0BDE8F08F002001464A
:1003E000F9E72DE9F04D81EA030404F0004B21F018
:1003F000004514464FF0000A23F0004150EA050280
:1004000020D054EA01021DD0C5F30A570246C5F3B5
:100410001303C1F31300C1F30A5640F4801543F4EB
:100420008013A7EB0608101BD64608F2FD3873EBC5
:10043000050002D308F1010801E092185B41B8F110
:10044000000F03DA00200146BDE8F08D00204FF4D4
:100450008011064684460EE0171B73EB050705D393
:10046000121B63EB050306434CEA010C49084FEAF3
:10047000300092185B4150EA0107EDD152EA0300C7
:1004800012D082EA040083EA0501084305D0101B5C
:10049000AB4106D20122002306E000224FF00043C8
:1004A00002E06FF0010253101AEB06004CEB08510A
:1004B00010EB0A0041EB0B01BDE8F04D00F075B800
:1004C0000EB540F2334102910021CDE900110A46F8
:1004D0000B4600F079F803B000BDC1F30A5210B525
:1004E000C1F3130140F2FF3341F480119A4201DA63
:1004F000002010BD40F233439A42A2F2334203DCA3
:10050000524200F012F810BD904010BD202A04DBCA
:10051000203A00FA02F1002070479140C2F1200316
:1005200020FA03F3194390407047202A04DB203A55
:1005300021FA02F00021704721FA02F3D040C2F103
:1005400020029140084319467047202A06DBCB174A
:10055000203A41FA02F043EAE07306E041FA02F37E
:10056000D040C2F12002914008431946704710B5AF
:1005700041000CD0C0F3C751962908DC7E2909DC64
:1005800006DB410204D000F0004040F07E5010BD78
:10059000002010BDC1F19604C4F1200100FA01F160
:1005A000E04000F071F8A04010BD10B5141E73F1CA
:1005B000000408DA401C41F1000192185B411A4323
:1005C00001D120F0010010BD2DE9F04D92469B466F
:1005D00011B1B1FA81F202E0B0FA80F22032904615
:1005E000FFF794FF04460F4640EA0A0041EA0B0178
:1005F00053465A46084313D0114653EA010019D016
:10060000C8F140025046FFF790FF05460E4650469F
:1006100059464246FFF77AFF084305D0012004E01F
:1006200020463946BDE8F08D0020054346EAE076D5
:100630002C4337430A986305E40AA0EB0800002224
:10064000FD0A44EA47540A3002D500200146E9E792
:10065000010510196941DDE9084500196941BDE846
:10066000F04DA2E7064C074D06E0E06840F00103BC
:1006700094E8070098471034AC42F6D3FFF75CFDCE
:100680004C6900086C6900080029A8BF7047401C2D
:10069000490008BF20F00100704710B4B0FA80FC98
:1006A00000FA0CF050EA010404BF10BC704749B1D5
:1006B000CCF1200421FA04F411FA0CF118BF012145
:1006C00021430843A3EB0C01CB1D4FEA00614FEA25
:1006D000102042BF002010BC704700EBC3501044F4
:1006E0000029A4BF10BC7047401C490008BF20F07F
:1006F000010010BC70470000FFE7FEE780B584B042
:1007000004F070FD4FF0100E7046CDF808E004F0D4
:10071000CBFD029804F0E0FD8DF80F009DF80F006E
:10072000012830D1FFE7022001F078FF002001907E
:1007300004F01EFC019804F043FC4FF4806004F0C8
:100740002BFC019804F07EFF019804F093FF4FF416
:1007500080304FF4501104F04FFF182004F0A4FD36
:10076000FFE7192004F07CFD002801D1FFE7F8E73E
:10077000022004F0A1FFFFE704F0B2FF002801D13E
:10078000FFE7F9E7FFE704B080BD000080B5002077
:10079000C4F202000021042201F00AFD00280ED05C
:1007A000FFE70020C4F202000021042201F0E6FC71
:1007B00040F22200C2F2000000F094FEFFE70020A9
:1007C000C4F202000021022201F0F2FC00280FD046
:1007D000FFE70020C4F202000021022201F0CEFC5B
:1007E00040F22200C2F20000043000F07BFEFFE77E
:1007F0000020C4F202000021012201F0BFFC80BDF4
:1008000070470000FFE7FEE780B5FFF777FF80BD88
:10081000FFE7FEE7704700007047000070470000E8
:1008200040F21800C2F2000001680131016040F29C
:100830003800C2F200000168013101607047000019
:1008400087B041F20400C4F202000068C0F38100E6
:10085000069006980028009008D0FFE7009801282D
:100860000ED0FFE70098022814D08EE040F204007A
:10087000C2F2000041F20021C0F27A0101608EE074
:1008800040F20400C2F2000041F20021C0F27A01FD
:10089000016084E041F20400C4F20200006800F448
:1008A000803005900598B0F5803F2CD1FFE741F2EC
:1008B0002C00C4F20200006800F08040049004980C
:1008C000002806D1FFE741F20020C0F27A00019033
:1008D00005E046F60040C0F2DC200190FFE741F25F
:1008E0000400C4F20200006800F400300390039892
:1008F000B0F5003F06D1FFE740F60010C0F23D0022
:100900000190FFE705E040F60010C0F23D000190C5
:10091000FFE741F20400C4F202000168C1F3834121
:100920000291006810F0006F05D0FFE7029840F0D8
:1009300010000290FFE741F20400C4F202000068D8
:1009400010F0804F05D0FFE7029840F020000290A1
:10095000FFE702980F2804D3FFE7029801300290C6
:1009600003E0029802300290FFE702983E2803D38A
:10097000FFE73F200290FFE701980299484340F2C9
:100980000401C2F20001086009E040F20400C2F272
:10099000000041F20021C0F27A010160FFE707B0D8
:1009A0007047000080B54EF68850CEF20000016816
:1009B00041F47001016041F20000C4F202000168DC
:1009C00041F00101016041F20401C4F20201002280
:1009D0000A6041F22C01C4F202010A6001684FF67C
:1009E000FF72CFF6F6621140016041F20801C4F2D5
:1009F00002014FF41F020A60016821F480210160A6
:100A000004F060FF80BD000080B542F60040C4F2F3
:100A10000100802105F0CCFB00280AD0FFE704F09C
:100A200013FA42F60040C4F20100802105F0B0FB49
:100A3000FFE780BD80B540F60000C4F20000012150
:100A400005F0B6FB012811D1FFE740F60000C4F223
:100A50000000012105F09CFB00F064FC40F23C002A
:100A6000C2F20000016801310160FFE780BD0000B3
:100A700080B541F20000C4F20000012105F098FBAE
:100A8000012808D1FFE741F20000C4F20000012173
:100A900005F07EFBFFE740F20800C2F2000001888B
:100AA00001310180008814280DDBFFE740F20800C7
:100AB000C2F200000021018040F24700C2F20000B3
:100AC00001210170FFE780BD80B541F20040C4F212
:100AD0000000012105F06CFB012808D1FFE741F27D
:100AE0000040C4F20000012105F052FBFFE740F294
:100AF0000A00C2F20000018801310180B0F9000053
:100B0000B0F57A7F0DDBFFE740F20A00C2F2000089
:100B10000021018040F24600C2F200000121017074
:100B2000FFE780BDFFE7FEE784B00A4603468DF885
:100B30000F0002919DF90F000028019200930ADB3B
:100B4000FFE7029800019DF90F104EF20042CEF22D
:100B5000000288540BE0029800019DF80F1001F08C
:100B60000F014EF61452CEF200028854FFE704B093
:100B70007047000080B540F2026004F0F5FC40F6DA
:100B80000000C4F2010000210322602301F072FD85
:100B900080BD00002DE9F04190B04FF4A06004F05A
:100BA000E3FC00200F900E900D900C900B900A909B
:100BB000099040F2000EC4F2020E089070460899A7
:100BC000CDF81CE001F0A8F942F24C40C4F201005B
:100BD000099008988DF83C0040F22201C2F2000111
:100BE0000B9101218DF83D104FF4807ECDF828E067
:100BF0004FF4806ECDF830E04FF0040ECDF834E0C5
:100C00004FF400520E928DF83E000A9B099ADDF8CF
:100C10002CC00C9C0D9D0E9E0F9FE846C8F81070CE
:100C2000C8F80C60C8F80850C8F80440C8F800C0FC
:100C30000798DDF820C006916146CDF814E001F078
:100C4000B7F90798089901F047F90222079808991F
:100C500001F06EFA07980899059A01F069FA079869
:100C60000899069A01F08AFA10B0BDE8F0810000F8
:100C700080B586B00146059040F20C00C2F200003B
:100C800000780028049101D0FFE761E0FFF772FFD0
:100C9000FFF780FF0B204FF0010E002103917146FA
:100CA000039ACDF808E003F025FA40F2096004F059
:100CB0005BFC0220019004F0FDF842F20040C4F217
:100CC0000100009000F05AFA039800F0C9FB4FF4BD
:100CD00080710098029A00F001FD00980199039A32
:100CE00000F0FCFC0098039900F02EFA009802999D
:100CF000019A00F0E9F9052204230098039900F015
:100D000015FC062200980299029B00F00FFC4FF49C
:100D100060220098029900F0D3FA00980299029A92
:100D200000F086FA009800F071FA009800F0ACF933
:100D3000009800F05FFA0020C4F20200039901F06D
:100D4000ABF840F20C00C2F2000002990170FFE71C
:100D500006B080BD40F20C00C2F20000007800280E
:100D600001D1FFE7FFE7704780B582B040F2026033
:100D700004F0FAFB40F2046004F0F6FB41F20000DC
:100D8000C4F201004FF0000E03213023019171469F
:100D9000019ACDF800E001F06DFC40F60000C4F2CD
:100DA00001000A230099019A01F064FC02B080BDA1
:100DB00080B588B040F20D00C2F200000078002833
:100DC00001D0FFE797E0FFF7CFFF40F20A6004F0A1
:100DD000CBFB0220059004F06DF842F60000C4F24F
:100DE0000100049000F0CAF90020039000F038FBE5
:100DF0000498039900F0A8F94FF480710498039ABD
:100E000000F06CFC04980599039A00F067FC01203F
:100E10000499029008460299029A00F055F94FF49D
:100E200060220498029900F04BFA04980299029A01
:100E300000F0FEF9049800F0E9F94FF47A70079099
:100E4000FFE742F60800C4F201000068002110F03C
:100E5000010F019106D1FFE70798002818BF012074
:100E60000190FFE70198C007002804D0FFE707982A
:100E700001380790E5E70798002801D1FFE73AE03D
:100E8000012000F0E9FF42F60000C4F2010000F08A
:100E9000FBF84CF250300690FFE742F60800C4F22F
:100EA00001000068002110F0080F009106D0FFE754
:100EB0000698002818BF01200090FFE70098C0079F
:100EC000002804D0FFE7069801380690E5E7069869
:100ED000002809D1FFE742F60800C4F201000168CA
:100EE00021F008010160FFE740F20D00C2F20000AE
:100EF00001210170FFE708B080BD000080B58EB011
:100F00000A4603468DF835000C9140F20D00C2F2FE
:100F10000000007800280692059305D1FFE74FF600
:100F2000FF70ADF8360085E042F60400C4F201001F
:100F300000680B9042F60800C4F2010000680A90B5
:100F400042F60000C4F20100016809910C9B9DF873
:100F500035200021049000F0E9FA02200499039062
:100F60000846039900F054FA0498039900F060FAD7
:100F7000002808D0FFE742F60000C4F20100022179
:100F800000F046FAFFE742F60000C4F2010001213A
:100F900000F082FB9DF82A00400600280ED4FFE7EF
:100FA00042F60000C4F20100012100F075FB42F698
:100FB0000800C4F2010000680A90FFE748F2A06050
:100FC000C0F201000890FFE742F60000C4F2010001
:100FD000022100F02DFA00210028029106D1FFE73E
:100FE0000898002818BF01200290FFE70298C00768
:100FF000002804D0FFE7089801380890E4E7089833
:10100000002805D1FFE74FF6FF70ADF8360011E07C
:1010100042F60000C4F20100019000F033FBADF88D
:101020001E000221019800F0F3F9BDF81E00ADF892
:101030003600FFE7BDF836000EB080BD80B582B047
:1010400040F20D00C2F200000078002801D1FFE755
:1010500017E00E2005210091FFF750FFADF80600C4
:101060000F200099FFF74AFFADF80400BDF8060015
:1010700040F24801C2F200018880BDF80400C88037
:10108000FFE702B080BD000082B0014601900198E8
:10109000826842F0080282600091FFE70198806850
:1010A00010F0080F01D0FFE7F8E70198816841F0E0
:1010B00004018160FFE70198806810F0040F01D0FF
:1010C000FFE7F8E702B0704780B587B013468C465B
:1010D000864606908DF8171004929DF81700014679
:1010E00001280393CDF808C0CDF804E0009104D0A6
:1010F000FFE70098022812D023E00698C16A21F485
:101100007001C16204980021CFF6F07101EB00502C
:101110003FFA80F00699CA6A1043C86212E0069846
:10112000816B21F44011816304980021CFF6F071A6
:1011300001EB005000F4401006998A6B104388635D
:1011400000E0FFE707B080BD84B00A460346039085
:101150000291029800280192009306D0FFE70398BD
:10116000816841F40061816005E00398816821F4A1
:1011700000618160FFE704B07047000080B586B071
:1011800001460590059842F20042C4F201029042E5
:101190000491039010D0FFE742F60000C4F2010072
:1011A0000399814211D0FFE743F60040C4F20100E9
:1011B0000399814212D01AE040F20930029004F003
:1011C00003FA029804F0E8F912E040F20A300190C4
:1011D00004F0FAF9019804F0DFF909E040F20F3069
:1011E000009004F0F1F9009804F0D6F900E0FFE770
:1011F00006B080BD82B0014601900198826842F439
:1012000080728260009102B07047000082B0014697
:1012100001900198806810F0010F009106D1FFE75E
:101220000198816841F001018160FFE702B07047D9
:1012300080B585B013468C46864604908DF80F1015
:101240008DF80E209DF80E0000280293CDF804C002
:10125000CDF800E019D0FFE79DF80F00C007002887
:1012600006D0FFE70498816841F480118160FFE7B0
:101270009DF80F008007002806D5FFE704988168D5
:1012800041F400418160FFE718E09DF80F00C007BE
:10129000002806D0FFE70498816821F4801181605E
:1012A000FFE79DF80F008007002806D5FFE70498A8
:1012B000816821F400418160FFE7FFE705B080BD50
:1012C00080B587B013468C46864606908DF8171079
:1012D00004929DF81700014601280393CDF808C039
:1012E000CDF804E0009104D0FFE7009802280BD06D
:1012F00015E00698816821F46021816004980699C0
:101300008A68104388600BE00698816821F4E04108
:101310008160049806998A681043886000E0FFE7BE
:1013200007B080BD80B500F0EDF880BD80B582B01B
:10133000022003F059FE019041F20400C4F20200C1
:10134000006810F4E06F04D0FFE7019840000090BF
:1013500002E001980090FFE7009802B080BD000015
:1013600080B58CB040F2027004F0FEF840F6000048
:10137000C4F2000004F0A0FDFFF7D8FF0B900B981B
:1013800041F2597ECDF2B71EA0FB0E0E4FEA5E3E33
:10139000CDF828E0DDF828E0BEF1000F059003D17C
:1013A000FFE701200A90FFE70A98002804D0FFE732
:1013B0000A9801380A90FFE706A8049004F04CFF51
:1013C0000020ADF81800ADF81C00DDF828E0CDF8DD
:1013D00020E0ADF8240040F6000EC4F2000E0390A9
:1013E00070460499CDF808E004F03CFE0120029913
:1013F00001900846019904F0BBFE1E200199039A52
:1014000002F078FE029804F0E5FD0CB080BD00000B
:1014100084B00A4603460390029102980399D1F8DA
:1014200000C02CEA000008600192009304B07047ED
:1014300085B00A4603460490039100208DF80B0006
:1014400004980068039908420192009304D0FFE7D2
:1014500001208DF80B00FFE79DF80B0005B07047E9
:1014600082B00146019042F20440C4F201000268D9
:1014700022F470220260019A03681A43026000910C
:1014800002B0704782B040F24800C2F2000001880A
:10149000ADF800104188ADF802108188ADF8041055
:1014A000C088ADF8060040F20E00C2F200000099BC
:1014B00001600199416002B07047000080B582B0C0
:1014C0000146019001980091FFF7D2FB02B080BD68
:1014D00080B5FFF7B3FD80BD80B5FFF73BFCFFF79C
:1014E00067FC80BD82B0014601900198028840F2FD
:1014F0004803C2F200031A8040885880009102B06D
:101500007047000080B540F20C00C2F20000007885
:10151000002801D1FFE707E042F20040C4F20100D9
:10152000012100F0B9F8FFE780BD0000B0B589B037
:101530009C4696460C46054608908DF81F108DF87F
:101540001E2006939DF81F000528CDF80CC0CDF88D
:1015500008E00194009518D8FFE70898406B0590C3
:101560009DF81F0000EB80001F218140059A22EAB0
:10157000010105919DF81E1001FA00F0059908433C
:1015800005900598089948633EE09DF81F000B28D8
:1015900019D8FFE70898006B05909DF81F0000EB35
:1015A00080001E381F218140059A22EA0101059121
:1015B0009DF81E1001FA00F0059908430590059862
:1015C000089908631FE09DF81F000F2819D8FFE74E
:1015D0000898C06A05909DF81F0000EB80003C3819
:1015E0001F218140059A22EA010105919DF81E10F4
:1015F00001FA00F005990843059005980899C8621A
:1016000000E0FFE7FFE7FFE79DF81E00092817D875
:10161000FFE70898006904909DF81E0000EB400069
:1016200007218140049A22EA01010491069901FAF6
:1016300000F00499084304900498089908611EE09A
:101640009DF81E00112818D8FFE70898C06804907C
:101650009DF81E0000EB40001E3807218140049ACF
:1016600022EA01010491069901FA00F00499084365
:10167000049004980899C86000E0FFE7FFE709B00C
:10168000B0BD000082B0014601900198C06C80B2EC
:10169000009102B07047000084B00A4603460390F0
:1016A0008DF80B109DF80B00C007002801920093E5
:1016B00006D0FFE70398816841F480018160FFE76D
:1016C0009DF80B008007002806D5FFE70398816886
:1016D00041F400118160FFE704B0704780B586B027
:1016E00013468C468646059004918DF80F209DF890
:1016F0000F0000280293CDF804C0CDF800E022D0FE
:10170000FFE70498C005002806D5FFE70598416863
:1017100041F480714160FFE704984005002806D538
:10172000FFE70598416841F480614160FFE7049854
:101730008007002806D5FFE70598816841F002017F
:101740008160FFE721E00498C005002806D5FFE787
:101750000598416821F480714160FFE704984005D5
:10176000002806D5FFE70598416821F480614160B3
:10177000FFE704988007002806D5FFE705988168F1
:1017800021F002018160FFE7FFE706B080BD0000A5
:1017900080B588B002A800210691ADF81610ADF80A
:1017A00014100090FFE7BDF81400072822D8FFE7C7
:1017B0000E200521FFF7A2FBADF81200BDF81200C4
:1017C0004FF6FF7188420BD0FFE7BDF81200069973
:1017D00008440690BDF816000130ADF81600FFE78A
:1017E000022000F039FBFFE7BDF814000130ADF82E
:1017F0001400D8E7BDF81600002804D1FFE7002048
:101800008DF81F006EE0009890ED040AB8EE400AD3
:10181000BDF8161001EE101AB8EE411A80EE010A5A
:1018200080ED010A90ED010AB6EE001A30EE010AD1
:10183000BDEEC00A10EE101A9FED2C0ADFED2C0A47
:10184000084600F079FA009880ED000A90ED000A51
:101850009FED281AB4EEC10AF1EE10FA0BDBFFE798
:10186000009890ED000A9FED241AB4EEC10AF1EE43
:1018700010FA04DDFFE700208DF81F0032E00020A1
:101880008DF80700FFE79DF8070002280ED8FFE754
:10189000FFF71EFEFFF7F6FD012000F0DDFAFFE77F
:1018A0009DF8070001308DF80700ECE740F20E00CC
:1018B000C2F2000000884FF6FF7188420AD0FFE7AD
:1018C00040F20E00C2F2000040884FF6FF718842DD
:1018D00004D1FFE700208DF81F0003E001208DF800
:1018E0001F00FFE79DF81F0008B080BD00609F4506
:1018F00000401C46333333406666664085B0B0EE28
:10190000401A0146ADF812008DED030ABDF8120031
:1019100000EE100AB8EEC00A9FED0A2A20EE020A75
:101920009FED092A80EE020A8DED020A9DED020A62
:101930009DED032A20EE020A8DED011A009105B0FB
:10194000704700BF3333534000F07F450000000074
:1019500080B594B00A460346129011911198002860
:101960000992089304D1FFE700208DF84F00E5E0CD
:101970001198FEF7A5FD41EC100B9FED731B51EC88
:10198000110B53EC102BFEF72CFD41EC100B8DEDE1
:101990000E0B1298FEF794FD41EC100B9DED0E1B03
:1019A00051EC100B53EC112BFEF71BFD41EC100B0F
:1019B00051EC100B9FED660B53EC102BFEF7F8FB70
:1019C00041EC100B51EC100BFEF787FD0D900D98BC
:1019D0007F2804D8FFE70D988DF84F00AEE01298ED
:1019E000FEF76EFD41EC100B9DED0E1B51EC110B43
:1019F00007900691079A069B8DED040BFEF7D8FB26
:101A000041EC100B9DED041B51EC110B53EC102B12
:101A1000FEF7E7FC41EC100B51EC100B9FED4C0B6B
:101A200053EC102BFEF7C4FB41EC100B51EC100BE8
:101A3000FEF753FD0C900C98402809D3FFE70C9853
:101A40007F2805D8FFE70C9840308DF84F0075E0EF
:101A50001298FEF735FD41EC100B9DED0E1B51EC7D
:101A6000110B9FED3D1B53EC112B8DED020BFEF77F
:101A700046FC41EC100B53EC102B9DED020B51EC8E
:101A8000100BFEF7AEFC41EC100B51EC100B9FED70
:101A9000300B53EC102BFEF78BFB41EC100B51EC91
:101AA000100BFEF71AFD0B900B98202809D3FFE7C7
:101AB0000B983F2805D8FFE70B98A0308DF84F0012
:101AC0003CE01298FEF7FCFC41EC100B9DED0E1B68
:101AD00051EC110B9FED221B53EC112B8DED000BE4
:101AE000FEF70DFC41EC100B53EC102B9DED000BA1
:101AF00051EC100BFEF775FC41EC100B51EC100B88
:101B00009FED130B53EC102BFEF752FB41EC100B27
:101B100051EC100BFEF7E1FC0A900A98202809D33B
:101B2000FFE70A983F2805D8FFE70A98C0308DF8EC
:101B30004F0003E000208DF84F00FFE79DF84F00B5
:101B400014B080BD00BF00BF0000000065CDCD41D6
:101B5000000000000000E03F000000000000204006
:101B6000000000000000304088B0B0EE412AB0EE26
:101B7000603AB0EE404A8DED070ACDED060A8DEDD4
:101B8000051A9DED070A9DED061AB4EEC10AF1EEA5
:101B900010FA8DED042A8DED033A8DED024A05DA37
:101BA000FFE79DED060A8DED010A18E09DED070A9D
:101BB0009DED051AB4EEC10AF1EE10FA05DDFFE75E
:101BC0009DED050A8DED000A04E09DED070A8DEDFF
:101BD000000AFFE79DED000A8DED010AFFE79DED8C
:101BE000010A08B07047000088B0B0EE412AB0EE9C
:101BF000603AB0EE404A8DED070ACDED060A8DED54
:101C0000051A9DED070A9DED061AB4EEC10AF1EE24
:101C100010FA8DED042A8DED033A8DED024A05DAB6
:101C2000FFE79DED060A8DED010A18E09DED070A1C
:101C30009DED051AB4EEC10AF1EE10FA05DDFFE7DD
:101C40009DED050A8DED000A04E09DED070A8DED7E
:101C5000000AFFE79DED000A8DED010AFFE79DED0B
:101C6000010A08B07047000080B5FFF731FC02F0B0
:101C70001FFE80BD84B00146ADF80E00BDF80E0019
:101C800000EE100AB8EEC00A9FED0D1A20EE010A10
:101C90009FED0C1A80EE010A8DED020A9DED020AFD
:101CA0009FED091A30EE010A8DED010A9DED010A42
:101CB0009FED061A80EE010A009104B0704700BF44
:101CC0003333534000F07F458B6CA7BEF92A873D24
:101CD00087B0B0EE601AB0EE402A0146ADF81A00A7
:101CE0008DED050ACDED040ABDF81A0000EE100ACC
:101CF000B8EEC00ADFED0E0A20EE200ADFED0D0A75
:101D000080EE200A8DED030A9DED030ADDED050A44
:101D10009DED043A70EE830A20EE200A80EE030A5D
:101D20008DED021A8DED012A009107B0704700BFBA
:101D30003333534000F07F4587B0B0EE601AB0EE09
:101D4000402A0146ADF81A008DED050ACDED040AD2
:101D5000BDF81A0000EE100AB8EE400ADFED0B0ADB
:101D600020EE200ADFED0A0A80EE200A8DED030A3C
:101D70009DED030AF7EE080A20EE200A8DED021A07
:101D80008DED012A009107B0704700BF33335340F7
:101D900000F07F4580B588B001460790079800287D
:101DA000069104D1FFE74FF461300790FFE740F25E
:101DB000036003F0D9FB4FF4C06003F0D5FB40F2A1
:101DC000127003F0D1FB40F60040C4F2010018216C
:101DD0004FF0030E4FF4806305907246CDF810E08B
:101DE00000F048FC04204FF4006305990390084676
:101DF0000399049A00F03EFC44F60000C4F200008F
:101E0000029004F0A9FA0799029804F03BFA002026
:101E1000029901900846019904F09CFB02980199EF
:101E200004F068FB0298019904F034FB02980199D0
:101E300004F016FB0298019904F0F8FA029803994D
:101E400004F03EFB0821029804F06AFB029804F0BB
:101E5000E1FA08B080BD000083B00146029002980C
:101E60000028009101D1FFE713E040F21800C2F210
:101E7000000000680190FFE740F21800C2F2000085
:101E800000680199401A0299884202D2FFE700BF18
:101E9000F2E703B07047000080B584B00A460346FD
:101EA00003908DF80B1003989DF80B10019200938E
:101EB00000F0ECF9002802D1FFE7FFE7FEE7039806
:101EC0009DF80B1001EB810100EB8100816841F06E
:101ED0000101816004B080BD80B584B00A4603462C
:101EE00003908DF80B1003989DF80B10019200934E
:101EF00000F0CCF9002802D1FFE7FFE7FEE70398E6
:101F00009DF80B1001EB810100EB8100816841F02D
:101F10002001816004B080BD80B584B00A460346CC
:101F200003908DF80B1003989DF80B10019200930D
:101F300000F0ACF9002802D1FFE7FFE7FEE70398C5
:101F40009DF80B1001EB810100EB8100816821F00D
:101F50000101816003989DF80B1001EB810100EBFA
:101F600081000021816003989DF80B2002EB820222
:101F700000EB8200C16003989DF80B2002EB820207
:101F800000EB8200016103989DF80B2002EB8202B6
:101F900000EB820041619DF80B0080000F2101FAE7
:101FA00000F003994A681043486004B080BD000007
:101FB0002DE9F0478EB0DDF868C0DDF864E0189CCC
:101FC000179D169E1F46904689468246CDF834C01E
:101FD000CDF830E00B940A95099608930792069085
:101FE0008DF8171006989DF817100397CDF8088004
:101FF000CDF804A0CDF8009000F048F9002802D1F7
:10200000FFE7FFE7FEE7079806999DF8172002EB28
:10201000820201EB82010861099806999DF8172058
:1020200002EB820201EB82014861BDF82C000699A7
:102030009DF8172002EB820201EB8201C86006982E
:102040009DF8171001EB810100EB8100806804907E
:10205000049820F47C50049008980A990C9A08433C
:102060001043049908430490049806999DF817209A
:1020700002EB820201EB820188609DF834000128A6
:102080000CD1FFE706989DF8171001EB810100EBDA
:102090008100816841F0400181600BE006989DF865
:1020A000171001EB810100EB8100816821F04001F4
:1020B0008160FFE79DF8350001280CD1FFE7069805
:1020C0009DF8171001EB810100EB8100816841F060
:1020D000800181600BE006989DF8171001EB8101EB
:1020E00000EB8100816821F080018160FFE79DF8AD
:1020F000360000280CD1FFE706989DF8171001EB79
:10210000810100EB8100816821F0100181600BE00A
:1021100006989DF8171001EB810100EB81008168A2
:1021200041F010018160FFE70EB0BDE8F0870000CC
:1021300080B586B013468C46864605908DF8131000
:10214000039205989DF813100293CDF804C0CDF8C2
:1021500000E000F09BF8002802D1FFE7FFE7FEE770
:10216000039805999DF8132002EB820201EB82018E
:102170008A681043886006B080BD000080B586B0D4
:1021800013468C46864605908DF8131003920398EB
:102190009DF813108900884005994A6810434860EB
:1021A0000293CDF804C0CDF800E006B080BD000079
:1021B00080B58AB013468C46864608908DF81F106D
:1021C0000692002005900490069802280393CDF80B
:1021D00008C0CDF804E0009008D0FFE7009804287C
:1021E00017D0FFE70098082826D038E00898006844
:1021F00006999DF81F209300994008400490089884
:1022000002EB820100EB8100806800F00200059083
:1022100027E00898006806999DF81F2093009940D0
:1022200008400490089802EB820100EB810080686E
:1022300000F00400059014E00898006806999DF8E5
:102240001F209300994008400490089802EB8201F7
:1022500000EB8100806800F00800059001E0FFE7D6
:10226000FEE70498002808D0FFE70598002804D06E
:10227000FFE701208DF8270003E000208DF82700FC
:10228000FFE79DF827000AB080BD000084B00A4631
:10229000034603908DF80B1001208DF80A00039877
:1022A00040F20041C4F202018842019200930AD137
:1022B000FFE79DF80B00052804DBFFE700208DF801
:1022C0000A00FFE7FFE79DF80A0004B0704700002E
:1022D00080B588B0B0EE401A8DED060A9DED060A75
:1022E000DFED280A9FED282A8DED011AB0EE421A83
:1022F000FFF73AFC8DED050A42F62C4EC4F2010EB2
:10230000DEF800E0CDF810E0DDF810E0BEF1000FDF
:102310000CD1FFE79DED050A0020B5EEC00AF1EEF5
:1023200010FAC8BF0120ADF81E0027E00498013064
:1023300003909DED050A039801EE100AB8EE411ACC
:10234000B6EE002A00EE012ABCEEC20A10EE101A08
:1023500002910299814204D3FFE703980138029069
:10236000FFE70298B0F5803F04D3FFE74FF6FF7018
:102370000290FFE70298ADF81E00FFE7BDF81E00CF
:1023800008B080BD00000000A4707D3F80B584B01F
:10239000B0EE401A8DED020A9DED020AB5EEC00ABC
:1023A000F1EE10FA8DED011A03DCFFE70020039037
:1023B00020E09DED020AB7EE001AB4EEC10AF1EE7C
:1023C00010FA04DBFFE74FF07E50039012E09DED22
:1023D000020A9FED0A1A20EE010A04F0D7F8B7EEC0
:1023E000001A31EE400AB6EE001A20EE010A8DED19
:1023F000030AFFE79DED030A04B080BDC3F5484022
:1024000080B586B00A4603460490039103980028DD
:102410000292019304D1FFE701208DF8170013E029
:102420000498002804D1FFE700208DF817000BE086
:10243000049800F035F8DDF80CE00021704528BF65
:1024400001218DF81710FFE79DF8170006B080BD39
:1024500080B586B00A46034604900391039800288D
:102460000292019304D1FFE701208DF8170013E0D9
:102470000498002804D1FFE700208DF817000BE036
:10248000049800F025F8DDF80CE00021704528BF25
:1024900001218DF81710FFE79DF8170006B080BDE9
:1024A00083B00146029002980028019103D1FFE712
:1024B0000020009008E040F21800C2F2000000681E
:1024C0000299401A0090FFE7009803B0704700009F
:1024D00083B00146029002980028019103D1FFE7E2
:1024E0000020009008E040F21800C2F200000068EE
:1024F0000299401A0090FFE7009803B0704700006F
:1025000088B0B0EE412AB0EE603AB0EE404A8DEDB0
:10251000070ACDED060A8DED051A9DED070A9DED22
:10252000061AB4EEC10AF1EE10FA8DED042A8DED13
:10253000033A8DED024A05DAFFE79DED060A8DEDBF
:10254000010A18E09DED070A9DED051AB4EEC10AD7
:10255000F1EE10FA05DDFFE79DED050A8DED000AAD
:1025600004E09DED070A8DED000AFFE79DED000AEE
:102570008DED010AFFE79DED010A08B070470000EC
:1025800088B0B0EE412AB0EE603AB0EE404A8DED30
:10259000070ACDED060A8DED051A9DED070A9DEDA2
:1025A000061AB4EEC10AF1EE10FA8DED042A8DED93
:1025B000033A8DED024A05DAFFE79DED060A8DED3F
:1025C000010A18E09DED070A9DED051AB4EEC10A57
:1025D000F1EE10FA05DDFFE79DED050A8DED000A2D
:1025E00004E09DED070A8DED000AFFE79DED000A6E
:1025F0008DED010AFFE79DED010A08B0704700006C
:1026000080B582B0B0EE401A8DED010A9DED010A51
:102610008DED001A03F0B3FF02B080BD83B0014618
:10262000029042F20000C4F2020002680192019A94
:1026300022F007020192019A029B1A430260009164
:1026400003B0704784B00A46034603900291029893
:10265000039948610192009304B0704784B00A4620
:102660000346039002910298039908610192009336
:1026700004B07047B0B58BB09C4696460C460546F4
:102680000A900991089207930020059004900998F8
:1026900000F00F01059110F0100FCDF80CC0CDF82F
:1026A00008E00194009514D0FFE7089804280AD1A7
:1026B000FFE7059840F00300059007980A99CA6B58
:1026C0001043C86304E00898059908430590FFE7A4
:1026D000FFE70020ADF81A00FFE7BDF81A00072851
:1026E00037D8FFE7BDF81A00012101FA00F0079979
:1026F000084227D0FFE70A9800680490BDF81A0046
:1027000080000F218140049A22EA01010491059979
:1027100001FA00F00499084304900998282804D18C
:10272000FFE707980A99486108E00998482804D10A
:10273000FFE707980A990861FFE7FFE704980A99FD
:102740000860FFE7FFE7BDF81A000130ADF81A0096
:10275000C3E70820ADF81A00FFE7BDF81A000F28FC
:102760003AD8FFE7BDF81A00012101FA00F00799F5
:1027700008422AD0FFE70A9840680490BDF81A0082
:102780006FF01F0101EB80000F218140049A22EAC3
:1027900001010491059901FA00F00499084304909D
:1027A0000998282804D1FFE707980A99486108E0AA
:1027B0000998482804D1FFE707980A990861FFE7BC
:1027C000FFE704980A994860FFE7FFE7BDF81A00A1
:1027D0000130ADF81A00C0E70BB0B0BD85B00A46B5
:1027E000034603900291039880680299084201927F
:1027F000009304D0FFE701208DF8130003E00020D0
:102800008DF81300FFE79DF8130005B07047000036
:1028100083B00A4603468DF80B008DF80A109DF828
:102820000B009DF80A1001F0030141EA8000C0B2DC
:102830000192009303B070472DE9F041A6B001F07A
:102840000BF940F2000EC4F2382ECDF84CE04FF0F8
:10285000000ECDF850E00020C4F2AF4015900020EB
:10286000C4F220101690CDF85CE0CDF860E0CDF811
:1028700064E0CDF868E0CDF86CE0CDF870E047F6A4
:102880000040C4F292701D9045F20001C4F643016D
:102890001E9145F20002C4F2C3721F920023C4F2DB
:1028A0007A432093219249F69A12C3F61962229232
:1028B0000022C4F2C8222392CDF890E0CDF894E033
:1028C00040F25003C2F200030DF14C0C4C24049072
:1028D00018460391614602922246CDF804E0FDF7C6
:1028E00043FC0020C4F2A01005900198069000213E
:1028F000C4F2A00107910021C4F2C83108914CF242
:102900008F21C3F6F55109910A9004990B91039A0E
:102910000C920D91029B0E930F9040F2000CC4F2AA
:10292000A41CCDF840C040F2000CC4F2981CCDF8B5
:1029300044C08DF84800DDF814C0DDF818E0079CAD
:10294000089D099E0A9F40F29C08C2F20008C8F840
:102950001470C8F81060C8F80C50C8F80840C8F8DF
:1029600004E0C8F800C0DDF82CC0DDF830E00D9CB4
:102970000E9D0F9E109FC8F82C70C8F82860C8F8EC
:102980002450C8F82040C8F81CE0C8F818C0DDF88A
:1029900044C0DDF848E0C8F834E0C8F830C001F0C1
:1029A00099F926B0BDE8F08180B58EB001F0B2FA99
:1029B00001F030FE8DF837009DF8370000F001007F
:1029C00000F084FD8DF8360040F2D400C2F2000021
:1029D000007886460628CDF810E000F25F81049961
:1029E000DFE811F0070017003A006800CF0044014B
:1029F0005B019DF83600C007002809D0FFE700F012
:102A00009DFD002804D0FFE7012001F063F9FFE7F6
:102A100045E19DF83700C007002804D1FFE70520F5
:102A200001F058F93BE100F089FD002804D1FFE7EF
:102A3000052001F04FF932E140F2D400C2F200006B
:102A400040686421FFF704FD002801D1FFE726E17B
:102A5000022001F03FF922E101F02CF99DF837E066
:102A60004FEACE7EBEF1000F05D0FFE700F066FD15
:102A7000002804D1FFE7052001F02CF90FE140F216
:102A8000D400C2F2000080694FF4AF71FFF7E0FCA0
:102A900000280ED0FFE701F07FF800F0F3FF40F2CE
:102AA000500EC2F2000E8EED0C0A032001F012F956
:102AB000F5E0F4E09DF83700C007002805D0FFE7F7
:102AC00000F03CFD002804D1FFE7052001F002F9E9
:102AD000E5E040F2D400C2F2000090ED030A9FED61
:102AE000721A30EE010A8DED0C0A9DED0C0AFFF70B
:102AF00087FDB1EE041AB4EEC10AF1EE10FA11DC52
:102B0000FFE740F2D400C2F20000806A132808D820
:102B1000FFE740F2D400C2F20000816A0131816215
:102B2000FFE706E040F2D400C2F20000002181621B
:102B3000FFE740F2D400C2F20000406A1421FFF720
:102B400087FC00280CD0FFE740F2D400C2F200005E
:102B5000806A142804D3FFE7042001F0BBF89EE04C
:102B600040F2D400C2F20000406A4FF4C871FFF78F
:102B70006FFC002804D0FFE7052001F0ABF88EE0E1
:102B80008DE09DF83700C00700280ED0FFE740F227
:102B9000D400C2F2000090ED020A9FED421AB4EE9A
:102BA000C10AF1EE10FA04DAFFE7052001F092F80D
:102BB00075E040F2D400C2F20000C16840F2500259
:102BC000C2F20002516092ED000A92ED011A30EE5D
:102BD000410A8DED0B0A116B0A9190ED040A012058
:102BE0000390029200F0A4FA8DED090A029890ED8C
:102BF0000A0A9DED091A30EE010A8DED080AB7EEBA
:102C0000000A0021B4EEC01AF1EE10FAC8BF01218B
:102C10008DF81F109DED0B0A9DF81F10DDED0A0ABF
:102C20009DED081A01F00101039800F08FF88DED79
:102C3000060A9DED080A9DED061AB4EEC10AF1EEF2
:102C400010FA05DDFFE79DED080A8DED010A04E0AD
:102C50009DED060A8DED010AFFE79DED010A8DED60
:102C6000050A9DED050A00F04DFE18E040F2D40083
:102C7000C2F20000C0692821FFF7EAFB00280BD050
:102C8000FFE70020009000F04DFD009800F0C2FB2F
:102C9000009801F01FF8FFE701E000E0FFE70EB049
:102CA00080BD00BF0080AC43000038C280B590B04A
:102CB000B0EE623AB0EE424AB0EE615AB0EE416A0E
:102CC000B0EE607AF0EE403A8DED0F0ACDED0E0ACF
:102CD0008DED0D1ACDED0C1A8DED0B2ACDED0A2AD6
:102CE0009DED0C0A9DED0F1A30EE410A8DED090A9B
:102CF0009DED090A9DED0D1A9DED0E2A01EE420A89
:102D00008DED080A9DED0A0A9DED0B1A30EE410A81
:102D10008DED070A9DED080A9DED071AF1EE410AB7
:102D20008DED063A8DED054A8DED045A8DED036A61
:102D30008DED027ACDED013AFFF722FC10B080BD97
:102D400080B5FEF79FFBFFF72FFE80BD80B59EB0DC
:102D5000B0EE412AB0EE603A0A460346B0EE404A71
:102D60008DED1C0A8DF86F008DF86E10CDED1A0AEE
:102D70008DED191A40F25000C2F2000090ED020AE7
:102D800090ED0A1A8DED180AC16817918DED161A8B
:102D9000C16A159190ED0D0A8DED140A816B1391A6
:102DA00090ED0F0A8DED120A006C11909DED160A40
:102DB000B5EEC00AF1EE10FA8DED082A8DED073A56
:102DC000069205938DED044A0ADDFFE79DED160A94
:102DD0009DED151AB4EEC10AF1EE10FA0BDBFFE718
:102DE00047F60040C4F29270169047F60040C4F6D1
:102DF00012001590FFE79DED140AB5EEC00AF1EE42
:102E000010FA05DCFFE70020C4F27A401490FFE7D7
:102E10009DED180AB5EEC00AF1EE10FA05DCFFE7E9
:102E20000020C4F220101890FFE79DED170AB5EEC0
:102E3000C00AF1EE10FA03DAFFE700201790FFE76F
:102E40009DED130AB5EEC00AF1EE10FA0DDCFFE7B6
:102E50009DED160A9DED151A30EE010AB6EE001A28
:102E600020EE010A8DED130AFFE79DED110AB5EE84
:102E7000C00AF1EE10FA03DAFFE700201190FFE735
:102E80009DF86F00C007002810D1FFE740F2500006
:102E9000C2F20000002101611A9A026340F21C0292
:102EA000C2F200021170006B1D9038E19DED1C0A0A
:102EB000FFF7A6FB9DED121AB4EEC10AF1EE10FA6F
:102EC00005DAFFE79FED980A8DED030A04E09DED1A
:102ED0001C0A8DED030AFFE79DED030A8DED100A34
:102EE00040F21C00C2F200000078C007002820D188
:102EF000FFE79DED1A0A40F25000C2F2000080ED9B
:102F00000C0ADDED100A9DED181ADDED131A9DED8A
:102F1000162ADDED152A0290FFF7C8FE029880ED13
:102F2000040A40F21C0EC2F2000E01218EF80010BD
:102F3000FFE740F25000C2F2000090ED0C0A8DED68
:102F40000F0A0F980E909DF86E00C007002821D040
:102F5000FFE79DED190ADDED160A9DED151AFFF745
:102F60000FFB8DED0D0A9DED130A9DED0D1A30EE50
:102F7000410A9DED181ADDED100A01EE600A40F2DB
:102F8000500EC2F2000E8EED040ADDF834E0CDF8EA
:102F900038E052E040F25000C2F2000090ED040A26
:102FA0009DED171A9DED102A01EE020A8DED0C0A17
:102FB0009DED180A9DED0C1A00EE021A8DED0B1A0C
:102FC0009DED130A9DED0B1A30EE410A8DED0A0AB4
:102FD0009DED0A0ADDED160A9DED151AFFF7D0FAF0
:102FE0008DED0E0A9DED0A0A9DED0E1A30EE410A96
:102FF000FFF706FB9FED4D1AB4EEC10AF1EE10FA91
:1030000013DDFFE79DED130A9DED0E1A30EE410A28
:103010009DED181A9DED102A01EE420A40F2500073
:10302000C2F2000080ED040A06E00C9840F2500164
:10303000C2F200010861FFE7FFE79DED0E0A9DED7A
:103040000F1A30EE410A8DED090A9DED090A9DED3A
:10305000141AB4EEC10AF1EE10FA0DDDFFE79DED92
:103060000F0A9DED141A30EE010A40F25000C2F230
:10307000000080ED0C0A20E09DED090A9DED141A78
:10308000B1EE411AB4EEC10AF1EE10FA0DDAFFE723
:103090009DED0F0A9DED141A30EE410A40F25000EA
:1030A000C2F2000080ED0C0A06E00E9840F25001DA
:1030B000C2F200010863FFE7FFE79DED110AB5EEDC
:1030C000C00AF1EE10FA15DDFFE740F25000C2F23F
:1030D000000090ED0C0A9DED111A80EE010A01909E
:1030E00003F0FCFA9DED111A20EE010A019880ED23
:1030F0000C0AFFE740F25000C2F2000090ED0C0A0B
:10310000DDED160A9DED151A0090FFF739FA0098CB
:1031100080ED0C0AD0F830E0CDF874E0FFE79DEDCB
:103120001D0A1EB080BD00BF00000000BD378635FF
:1031300080B592B00146B0EE401A8DED100A8DF8C0
:103140003F0040F29C00C2F2000090ED000A90EDBA
:10315000032A90ED083A8DED0E0A82680D928DEDEE
:103160000C2A02690B928DED0A3A406A09909DF88B
:103170003F00C007002802918DED011A0BD1FFE737
:1031800040F29C00C2F2000000214161816280F89F
:103190003410119135E1109840F29C01C2F2000107
:1031A000486091F83400C007002817D1FFE79DED73
:1031B000100A40F29C00C2F2000090ED0B1AB4EE2F
:1031C000C10AF1EE10FA08DBFFE740F29C00C2F200
:1031D0000000012180F83410FFE716E09DED100A91
:1031E00040F29C00C2F2000090ED0C1AB4EEC10A4D
:1031F000F1EE10FA08DCFFE740F29C00C2F200009A
:10320000002180F83410FFE7FFE70020089040F22B
:103210009C00C2F2000090F83400C007002808D1DA
:10322000FFE740F29C00C2F20000002141610891DA
:1032300091E09DED100A9DED0E1A30EE410A8DEDE4
:10324000070A9DED070A9DED0D1AB4EEC10AF1EED5
:1032500010FA03DDFFE70D98079013E09DED070AD4
:103260009DED0D1AB1EE411AB4EEC10AF1EE10FA5D
:1032700007DAFFE79DED0D0AB1EE400A8DED070A72
:10328000FFE7FFE740F29C00C2F2000090ED050A64
:103290009DED0B1A9DED072A01EE020A8DED060A3F
:1032A0009DED0C0A9DED061A00EE021A8DED051A31
:1032B0009DED050A9DED0A1AB4EEC10AF1EE10FA71
:1032C00003DDFFE70A9808900EE09DED050AB5EED4
:1032D000C00AF1EE10FA03DAFFE70020089002E0DE
:1032E00005980890FFE7FFE79DED050A9DED081A98
:1032F00030EE410AFFF784F99FED441AB4EEC10A9B
:10330000F1EE10FA0FDDFFE79DED080A9DED0C1AB6
:103310009DED072A01EE420A40F29C00C2F2000035
:1033200080ED050A06E0069840F29C01C2F2000119
:103330004861FFE740F29C00C2F2000090ED050AF0
:103340009DED0A1AF1EE410A0090FFF719F9009875
:1033500080ED050AFFE79DED080A40F29C00C2F2ED
:10336000000090ED0A1A30EE410A8DED040A08982B
:1033700003909DED040A9DED091AB4EEC10AF1EE29
:1033800010FA0DDDFFE740F29C00C2F2000090ED64
:103390000A0A9DED091A30EE010A8DED030A19E0C3
:1033A0009DED040A9DED091AB1EE411AB4EEC10A71
:1033B000F1EE10FA0DDAFFE740F29C00C2F20000D5
:1033C00090ED0A0A9DED091A30EE410A8DED030ACF
:1033D000FFE7FFE79DED030A9DED0A1ADFED0C0AFA
:1033E000FFF7CEF88DED030A9DED030A40F29C0E27
:1033F000C2F2000E8EED0A0ADDF80CE0CDF844E0D2
:10340000FFE79DED110A12B080BD00BFBD378635C4
:103410000000000080B584B001468DF80F0040F236
:103420001D00C2F200000078C007002802911DD1E3
:10343000FFE740F2046002F097F841F20000C4F2A6
:103440000100102103224FF4006E01907346CDF865
:1034500000E0FFF70FF901980099FFF7F3F840F249
:103460001D00C2F2000001210170FFE740F21E00C2
:10347000C2F20000007800F001009DF80F1001F08A
:103480000101884201D1FFE71DE09DF80F0000F027
:10349000010040F21E01C2F200010870002809D0AC
:1034A000FFE741F20000C4F201004FF40061FFF7B2
:1034B000D5F808E041F20000C4F201004FF40061C9
:1034C000FFF7C0F8FFE704B080BD000080B582B010
:1034D00001468DF806009DF80600C00700280091FF
:1034E00009D1FFE740F2D400C2F20000002141619F
:1034F0008DF807101DE040F2D400C2F200004069D0
:1035000000280BD1FFE740F21800C2F2000000686B
:1035100040F2D401C2F200014861FFE740F2D4005A
:10352000C2F2000040693221FEF792FF8DF80700D9
:10353000FFE79DF8070002B080BD000040F2D40014
:10354000C2F2000090ED020A9FED041A0020B4EED2
:10355000C10AF1EE10FAA8BF012070470000B44381
:1035600080B588B001468DF81F0042F60040C4F2D5
:1035700001000022069005911146049202F050FECF
:1035800006980499049A02F017FC9DF81F00202168
:1035900010F0010F18BF10210698049A03911146EC
:1035A000039A02F0B9FB4FF0010006990290084619
:1035B000029902F02DFD0698029902F017FDFFE72F
:1035C00042F60040C4F20100012102F031FD002862
:1035D00001D1FFE7F4E742F60040C4F20100012107
:1035E0000190009102F014FD42F62440C4F2010063
:1035F000002101600198009902F012FE08B080BD20
:1036000080B594B0014613901398026843688068AF
:1036100040F22C0CC2F2000CCCF80020CCF80430A4
:10362000CCF808000491CDF80CC001F067FB40F223
:103630000B6001F099FF02F0B3F90E900E98039918
:103640000A68B0FBF2F0013840F21C12C2F200022C
:1036500010600020ADF83C00ADF83E00ADF8400031
:1036600012681192ADF848008DF84A0042F6004207
:10367000C4F201020FA902901046019202F0F2FC7E
:1036800001200A900420ADF82C000298ADF82E001D
:10369000ADF83000ADF83200ADF834000AAA019858
:1036A000029902F0C7F9602001990090084602993A
:1036B000009A02F031FB01980299029A02F07CFB19
:1036C00008220198029902F0A3FB4FF40060ADF8C4
:1036D00014004FF4806006900298ADF82200039920
:1036E00048680E99FEF734F9ADF81C004FF480508D
:1036F000ADF824000298ADF81E00ADF8200005A931
:10370000019802F073F90198009902F073FD019895
:1037100002F060F9019802F05DFC029800F002F8F6
:1037200014B080BD80B584B001468DF80F009DF8BF
:103730000F00C0070028029106D0FFE70120FFF725
:103740000FFF00F013F80EE042F60040C4F2010053
:1037500000210190009102F063FD01980099009A08
:1037600002F02AFBFFE704B080BD000080B586B000
:1037700042F60040C4F2010000210490039102F0DF
:103780004FFD60220498039902F0C6FA40F22C0023
:10379000C2F2000090ED020AFEF79AFDADF81600A5
:1037A000BDF816200498039902F006FB0120049945
:1037B00002900846029902F02BFC0498029902F04C
:1037C00015FCFFE742F60040C4F20100012102F0BF
:1037D0002FFC002801D1FFE7F4E742F60040C4F2D5
:1037E000010001210190009102F012FC42F62440F8
:1037F000C4F20100002101600198009902F010FD5F
:1038000006B080BD80B586B004A8B0EE401A80ED49
:10381000010A90ED010ADFED120A9FED122A8DEDEB
:10382000021AB0EE421A0190FEF79EF9019880ED5F
:10383000000A90ED000A40F22C0EC2F2000E8EED4E
:10384000020AFEF745FDADF80E00BDF80E2042F667
:103850000040C4F20100002102F0AEFA06B080BDC3
:1038600000000000A4707D3F80B586B00146059041
:1038700005980028019101D1FFE741E002F090F89E
:1038800004900498002801D1FFE739E004980599D5
:10389000B0FBF1F003900398012803D8FFE7022062
:1038A0000390FFE70398B0F1011F04D3FFE74FF443
:1038B00080300390FFE70398411E40F21C12C2F2D1
:1038C000000211600499B1FBF0F040F22C01C2F249
:1038D00000010860106842F62C42C4F20102106038
:1038E00091ED020AFEF7F4FCADF80A00BDF80A20DB
:1038F00042F60040C4F20100002102F05DFAFFE749
:1039000006B080BD80B584B0B0EE401A8DED030ADC
:103910009DED030A40F25000C2F20000D0ED0A0A09
:1039200090ED0B2A8DED011AB0EE421A0090FEF7D1
:1039300027FE8DED020A9DED020A009880ED0C0A2B
:10394000BCEEC00A10EE10EA7046FFF78DFF04B01F
:1039500080BD000080B582B040F20010C2F20000CD
:103960000021417081704160DFED060A9FED060A7B
:103970008DED010A9DED011AFEF7C2FD01F0B8FEC2
:1039800002B080BD007C92470050434880B588B0AB
:10399000B0EE401A8DED070A40F20010C2F20000AE
:1039A0004FF49671C1609FED2A0A9FED2A2A8DED92
:1039B000040AB0EE420ADDED040A8DED031AB0EE02
:1039C000421A8DED022A0190FEF79AFD8DED060A4E
:1039D0009DED070ADDED040A9DED021AFEF790FD4C
:1039E0008DED050A00200199887048609DED060A5A
:1039F00081ED040A05984861C86800280AD0FFE7ED
:103A00009DED060A9DED051AB4EE410AF1EE10FA9D
:103A10000BD1FFE740F20010C2F20000002141701C
:103A20009DED050A01F064FE10E040F20010C2F2C4
:103A300000000121417040F21801C2F20001096842
:103A400081609DED060A01F053FEFFE708B080BDDE
:103A5000007C92470050434880B540F20010C2F20B
:103A600000000078C00700280AD1FFE700F042F804
:103A700040F2001EC2F2000E01208EF80000FFE7A7
:103A800080BD000080B582B040F20010C2F200009C
:103A90000078C00700280BD1FFE79FED0B0ADFED90
:103AA0000B0A9FED0B1AFEF72BFD8DED010A06E0C8
:103AB00040F20010C2F2000080690190FFE79DED26
:103AC000010A02B080BD00BF0050C347007C92478E
:103AD0000050434880B540F20010C2F20000007868
:103AE000C007002801D1FFE702E0FFF733FFFFE73F
:103AF00080BD000080B584B040F20010C2F200002A
:103B0000002141708170416081604FF49671C16005
:103B10009FED110A9FED111A8DED030AB0EE410AD7
:103B2000DDED030A8DED021A0190FEF7E9FC019824
:103B300080ED040A9FED0A0ADDED030A9DED021AED
:103B4000FEF7DEFC019880ED050A90ED040A01F015
:103B5000CFFD04B080BD00BF007C924700504348B9
:103B60000050C34780B582B0B0EE401A8DED010A17
:103B700040F20010C2F200000078C00700288DED6E
:103B8000001A03D1FFE7FFF767FFFFE79DED010A8A
:103B9000FFF7FCFE02B080BD40F20010C2F2000050
:103BA0000078C007002801D1FFE708E040F20010CC
:103BB000C2F200000021417081704160FFE7704750
:103BC00080B586B040F20010C2F200004078C00715
:103BD000002801D1FFE76AE040F20010C2F20000C5
:103BE0008078C007002809D0FFE740F20010C2F239
:103BF000000090ED060A01F07BFD58E040F218004D
:103C0000C2F20000006840F20011C2F200018A68AE
:103C1000C968801A0590059888420BD3FFE740F2E7
:103C20000010C2F200000021417090ED050A01F081
:103C30005FFD3CE040F20010C2F20000C0680028C6
:103C400011D0FFE79DED050AB8EE400A40F20010E2
:103C5000C2F2000090ED031AB8EE411A80EE010A9C
:103C60008DED010A04E0B7EE000A8DED010AFFE7D1
:103C70009DED010A8DED040A9DED040AFEF786FB19
:103C80008DED030A40F2001EC2F2000E9EED040A02
:103C90009EED051A31EE401A9DED032A01EE020A4F
:103CA0008DED020A9DED020A01F022FDFFE706B04C
:103CB00080BD000080B540F20010C2F20000007824
:103CC000C007002803D1FFE7FFF7C6FEFFE7FFF7B5
:103CD00077FF80BD80B58CB001468DF82F0040F293
:103CE000D400C2F2000000789DF82F2090420A9183
:103CF00001D1FFE708E19DF82F0040F2D401C2F2A4
:103D00000001087040F21802C2F2000212684A6014
:103D1000042825D0FFE740F25000C2F2000090EDE9
:103D20000C0A9FED7A1A00208DED090AB0EE410AC7
:103D300008900899DDED090A9DED092A8DED071A15
:103D4000B0EE421AFFF702F89DED071A8DED060A54
:103D5000B0EE410A0898FFF7EBF98DED050AFFE791
:103D60009DF82F0001460628049100F2B5800499C1
:103D7000DFE801F0042B3A506E879D00FFF7AAFEA2
:103D80004FF0000E7046CDF80CE0FFF7CBFC039827
:103D9000FFF740FB40F25000C2F2000090ED0B0A2A
:103DA000FFF7B0FD40F2D400C2F20000DDF80CE0F5
:103DB000C0F818E0C0F81CE0C0F820E0C0F814E03B
:103DC000C0F824E0C0F828E09EE00120FFF722FBC5
:103DD0000020FFF7A7FC40F25000C2F2000090ED77
:103DE0000B0AFFF78FFD8FE040F21800C2F20000CF
:103DF000006840F2D401C2F2000188610120029003
:103E0000FFF708FB9FED420AFFF7ACFE0298FFF7B1
:103E100089FC79E00120FFF7FDFA40F21800C2F2B8
:103E20000000006840F2D40EC2F2000ECEF824006A
:103E30000020CEF82800FFF725FE40F25000C2F225
:103E4000000080ED0C0A90ED0C0AFFF75BFD5BE0D3
:103E50000120FFF7DFFA40F21800C2F2000000680C
:103E600040F2D40EC2F2000ECEF8200040F29C00C8
:103E7000C2F200004FF0000EC0F828E080F834E0F5
:103E800042E040F21800C2F20000006840F2D401A3
:103E9000C2F20001C8610120FFF7BCFA40F25000F5
:103EA000C2F2000090ED0B0AFFF72CFD2CE0FFF7AB
:103EB00011FE4FF0000E7046CDF804E0FFF732FC23
:103EC0000198FFF7A7FA40F25000C2F2000090ED0F
:103ED0000B0AFFF717FD17E0FFF7FCFD4FF0000E90
:103EE0007046CDF800E000F009FB0098FFF71AFCDF
:103EF0000098FFF78FFA40F25000C2F2000090EDF8
:103F00000B0AFFF7FFFCFFE70CB080BD00000000CC
:103F10000050C34780B582B040F20E00C2F20000EC
:103F200001889FED130ADFED130A01900846FDF7A3
:103F3000CFFE40F2D400C2F2000080ED030A0199E6
:103F4000B1F802E000907046FDF794FE009880ED15
:103F5000040A00F0A9FA009880ED020AC16840F254
:103F6000500EC2F2000ECEF8041002B080BD00BFA9
:103F70000038C74700609F4580B588B00020079093
:103F8000FCF742FC4FF4A06000F050F94FF46130B0
:103F9000FDF700FF01F09AFC46F62C10C0F6000079
:103FA000D0F800E04168806806900591CDF810E0F7
:103FB00004A8FFF725FBB6EE000A00F0ADF94FF4B8
:103FC0006020FDF77BFAFDF787FAFDF7C9F9FCF7EA
:103FD000EFFE00F0EBFE00F01FFF002808D1FFE726
:103FE00000F028FF002803D0FFE700F0D3FEFFE732
:103FF00000F040FF8DF80F00FDF7CAFB8DF80E00B2
:104000009DF80F00C007002806D0FFE79DF80E00BE
:10401000C007002803D1FFE7FFE700BFFDE700F07E
:10402000CDFAFEF709FC4FF47A70FDF715FF00F0AA
:104030003FFAFFE700200290019072B640F238008C
:10404000C2F200000068002809D0FFE740F2380003
:10405000C2F200000168029100210160FFE740F216
:104060003C00C2F200000068002809D0FFE740F2DF
:104070003C00C2F200000168019100210160FFE7ED
:1040800062B6FFE70298411E0291002815D0FFE7B3
:10409000FDF7EAFDDDF808E0BEF1060F0CD3FFE7FF
:1040A000029840F26811C2F200010A681044053813
:1040B000086005200290FFE7E4E7FFE70198411E52
:1040C0000191002815D0FFE7FEF73AFEDDF804E085
:1040D000BEF1150F0CD3FFE7019840F24001C2F288
:1040E00000010A6810441438086014200190FFE7AA
:1040F000E4E79FE780B587B013468C4686468DF887
:104100001B008DF81A108DF81920002005900490DE
:1041100003904EF60C50CEF20000006800F4E06010
:10412000B0F5E06F0293CDF804C0CDF800E005D102
:10413000FFE7002004900420039043E04EF60C506B
:10414000CEF20000006800F4E060B0F5C06F05D169
:10415000FFE7012004900320039032E04EF60C505C
:10416000CEF20000006800F4E060B0F5A06F04D16A
:10417000FFE702200490039022E04EF60C50CEF2AE
:104180000000006800F4E060B0F5806F05D1FFE743
:10419000032004900120039011E04EF60C50CEF263
:1041A0000000006800F4E060B0F5407F05D1FFE753
:1041B000042004900020039000E0FFE7FFE7FFE702
:1041C000FFE7FFE79DF81A000499C1F10401884058
:1041D00005909DF819000399C1F104010F2222FAFC
:1041E00001F10840059908430590059800010590E4
:1041F00005989DF81B104EF20042CEF20002885442
:104200009DF81B0000F01F01012202FA01F14EF29D
:104210000012CEF2000242EAD0004EF21C12CEF2A0
:1042200000021040016007B080BD000082B001466E
:10423000019001980022C0F2FA5210434EF60C523F
:10424000CEF200021060009102B0704780B590B0CD
:1042500001460F900F980028059101D1FFE759E022
:1042600040F2036001F080F940F60040C4F2010022
:10427000182103224FF0010E7346CDF810E0FEF72F
:10428000F9F940F2017001F06FF901F011FE0A90A6
:104290000A980F99B0FBF1F0013840F22011C2F2F8
:1042A000000108600020ADF82C00ADF82E00ADF83C
:1042B000300009680D91ADF838008DF83A0040F2F1
:1042C0000041C4F200010BAA039008460291114676
:1042D00001F0C8FE049806900399ADF81E10ADF8E1
:1042E0002210022206AB0298114601921A4601F0F2
:1042F000A1FB60220298019901F00EFD029801993C
:10430000039A01F059FD029801F064FB029801F054
:1043100061FEFFE710B080BD80B582B0B0EE401AFC
:104320008DED010A9DED010ADFED120A9FED122AC3
:104330008DED001AB0EE421AFDF756FC8DED010A24
:104340009DED010A40F2201EC2F2000E9EED001A01
:10435000B8EE411A20EE010ABDEEC00A10EE10EAD6
:1043600040F20040C4F200000221724601F024FD38
:1043700002B080BD00000000A4707D3F80B582B017
:1043800000F032F8002809D0FFE740F22410C2F212
:104390000000002101628DF8071020E040F2241097
:1043A000C2F20000006A00280ED1FFE740F21800B8
:1043B000C2F20000006840F22411C2F2000108625B
:1043C00000208DF807000AE040F22410C2F200003D
:1043D000006AC821FEF714F88DF80700FFE79DF882
:1043E000070002B080BD000082B040F22410C2F28B
:1043F0000000406B01909DED010A00209FED0D1A19
:10440000B4EEC10AF1EE10FA00900DDBFFE79DED6E
:10441000010A9FED091A0020B4EEC10AF1EE10FA6C
:10442000D8BF01200090FFE7009800F0010002B023
:10443000704700BF0000AA420080854380B582B06B
:10444000FFF7D2FF002809D1FFE740F22410C2F2A3
:1044500000000021C1618DF8071020E040F2241017
:10446000C2F20000C06900280ED1FFE740F2180038
:10447000C2F20000006840F22411C2F20001C861DB
:1044800000208DF807000AE040F22410C2F200007C
:10449000C069C821FDF7B4FF8DF80700FFE79DF85C
:1044A000070002B080BD000080B500F013F880BDA9
:1044B00040F22410C2F200000121017200780028AD
:1044C00007D1FFE740F22410C2F200000021C160D2
:1044D000FFE7704740F22410C2F2000090ED0F0A8F
:1044E0007047000080B582B001460190009100F055
:1044F0009BF8032000F076F902B080BD80B582B051
:1045000001468DF8070040F21F00C2F2000000785B
:10451000012222EA00008DF806009DF80600C0077F
:104520000028009115D0FFE740F2046001F01CF86C
:1045300041F20000C4F20100102103224FF4806315
:10454000FEF798F840F21F00C2F20000012101704E
:10455000FFE79DF80600C00700280FD1FFE740F2F3
:104560002000C2F20000007800F001009DF8071062
:1045700001F00101884201D1FFE71DE09DF807002D
:1045800000F0010040F22001C2F200010870002892
:1045900009D0FFE741F20000C4F201004FF480614E
:1045A000FEF75CF808E041F20000C4F201004FF4AD
:1045B0008061FEF747F8FFE702B080BD80B596B096
:1045C00005A8442104900391FBF7E7FD00208DF836
:1045D000140040F22411C2F2000102900846DDF8F6
:1045E00010E001917146039AFBF7BEFD44F620608E
:1045F000FFF72CFE9FED060AFFF78EFEFCF7D8FBB7
:1046000002980199087000F00FF816B080BD00BF45
:104610000000000040F22410C2F2000000780238CE
:10462000B0FA80F04009704780B582B09FED0B0A68
:1046300000F016F84FF0000E7046CDF804E0FFF7DA
:104640005DFF40F22410C2F20000DDF804E080F8C3
:1046500031E0C0F810E002B080BD00BF00000000F3
:1046600080B582B0B0EE401A8DED010A9DED010AD1
:10467000B5EEC00AF1EE10FA8DED001A03DCFFE78B
:1046800000200190FFE79DED010AFFF745FE02B013
:1046900080BD000040F22410C2F200000021C16081
:1046A000416101617047000080B588B00320062198
:1046B0000291FCF723FC40F22411C2F20001A1F8A0
:1046C00042000120DDF808E001917146FCF716FC7C
:1046D0000199A1F84000B1F840009FED3D0AFDF7B7
:1046E0000DF99FED3C1A30EE010A8DED070A019895
:1046F000B0F842009FED380AFDF700F98DED060A8B
:104700009DED070A019880ED0D0A0699C16300210D
:104710008DF81710416B04919DED040AB2EE041A56
:10472000B4EEC10AF1EE10FA1ADDFFE79DED040ABE
:104730009FED2A1A20EE010A9FED291A20EE010AA8
:104740008DED030A9DED060A9DED031A0020B4EEDF
:10475000C10AF1EE10FAA8BF01208DF81700FFE79B
:104760009DF81700C007002827D0FFE740F224106B
:10477000C2F20000406A00280BD1FFE740F21800A7
:10478000C2F20000006840F22411C2F20001486247
:10479000FFE740F22410C2F20000406A3221FDF728
:1047A0002FFE002808D0FFE740F22410C2F20000DC
:1047B000012180F82810FFE708E040F22410C2F23F
:1047C00000000021416280F82810FFE708B080BD9A
:1047D00071FDB84366664E415C0F2F43F4FDB43F54
:1047E0003333733F80B582B001468DF8070040F245
:1047F0002410C2F2000000789DF80720904200913A
:1048000001D1FFE752E09DF8070040F22411C2F207
:104810000001087040F21802C2F2000212684A60F9
:1048200000280ED1FFE740F22410C2F20000002160
:10483000C16041618161016280F83010FFF7F4FED0
:1048400034E09DF80700012809D1FFE740F2241069
:10485000C2F20000002141618161016225E09DF802
:104860000700022808D1FFE740F22410C2F200003E
:1048700000218161016217E09DF80700032812D131
:10488000FFE740F21800C2F20000006840F2241175
:10489000C2F20001C86201204872002081F8300095
:1048A000FFF7C2FEFFE7FFE7FFE7FFE702B080BDCB
:1048B00080B58AB009A80790FFF7F6FE40F22410F1
:1048C000C2F20000C06B0990079890ED000A9FEDBE
:1048D000D41AB4EEC10AF1EE10FA07DBFFE746F690
:1048E0004210C0F60000FFF7FDFDFCE140F224108D
:1048F000C2F20000007801460328069100F2ED8123
:104900000699DFE811F0040082002D01A20140F2B7
:104910002410C2F20000007AC00700280ED1FFE781
:10492000FFF782FE40F2241EC2F2000E0020CEF8F5
:104930000C00CEF81400CEF81C00D4E1FFF77EFD89
:10494000002805D1FFE7FFF76FFEFFF7A3FECAE1DE
:1049500040F22410C2F2000090F83100C007002895
:104960000FD1FFE740F22410C2F2000090F82800B7
:10497000C007002805D1FFE7FFF756FEFFF78AFEC4
:10498000B1E140F22410C2F20000C06800280BD14F
:10499000FFE740F21800C2F20000006840F2241164
:1049A000C2F20001C860FFE740F22410C2F200002A
:1049B00090F83100C007002826D1FFE740F224100C
:1049C000C2F20000C0684FF47A71FDF719FD0028AB
:1049D0001AD0FFE701200590FFF790FD40F2241068
:1049E000C2F20000DDF814E080F831E040F2180176
:1049F000C2F20001096801619FEDBC0AFFF730FEB9
:104A00000598FFF7EFFEFFE76DE140F22410C2F2D8
:104A10000000007AC007002804D1FFE70020FFF75C
:104A2000E1FE60E1FFF7AAFC002804D0FFE70020C8
:104A3000FFF7D8FE57E140F22410C2F2000090F8D0
:104A40003100C007002813D1FFE701200490FFF7D1
:104A500055FD40F22410C2F20000DDF810E080F8AD
:104A600031E040F21801C2F2000109680161FFE77C
:104A70009FED9E0AFFF7F4FD40F2241EC2F2000EE5
:104A8000DEF810006421FDF7BBFC002807D1FFE72A
:104A900040F22410C2F200000021416123E1079896
:104AA00090ED000A00219FED931AB4EEC10AF1EED9
:104AB00010FA03910EDBFFE7079890ED000A9FEDD7
:104AC0008E1A0021B4EEC10AF1EE10FAD8BF01210E
:104AD0000391FFE7039800F001008DF823009DF893
:104AE0002300C007002824D0FFE740F22410C2F2C0
:104AF0000000406900280BD1FFE740F21800C2F225
:104B00000000006840F22411C2F2000148610FE089
:104B100040F22410C2F2000040695021FDF770FC01
:104B2000002804D0FFE70220FFF75CFEFFE7FFE765
:104B300015E040F22410C2F200000021416100693A
:104B40004FF44871FDF75CFC002807D0FFE746F6FC
:104B50003810C0F60000FFF7C5FCFFE7FFE7C2E032
:104B600040F22410C2F20000007AC007002804D1ED
:104B7000FFE70020FFF736FEB5E0FFF7FFFB002858
:104B800004D0FFE70020FFF72DFEACE040F2241038
:104B9000C2F2000090F83100C007002816D1FFE7EC
:104BA00001200290FFF7AAFC40F22410C2F200009C
:104BB000DDF808E080F831E040F21801C2F20001AF
:104BC00009680161002141618161FFE79FED470AAA
:104BD000FFF746FDDDF81CE09EED000A9FED441A4C
:104BE000B4EEC10AF1EE10FA07DBFFE740F2241041
:104BF000C2F200000021816126E040F22410C2F2DE
:104C00000000806900280DD1FFE740F21800C2F2D1
:104C10000000006840F22411C2F20001886112E035
:104C20000000E14340F22410C2F2000080694FF41A
:104C30009671FDF7E5FB002804D0FFE70020FFF7A1
:104C4000D1FD50E0FFE7FFE74DE0FFF7EDFC00F09E
:104C5000E3F8002801D0FFE745E040F22410C2F25B
:104C60000000007AC00700280DD1FFE70020019066
:104C7000FFF7B8FD40F22410C2F20000DDF804E0B6
:104C800080F830E02FE040F22410C2F20000C06A49
:104C90004FF47A71FDF7B4FB00281DD0FFE700F058
:104CA000C9F8002803D0FFE700F074F8FFE740F2EE
:104CB0002410C2F2000090F83000002808D1FFE76D
:104CC00040F22410C2F20000012180F83010FFE70A
:104CD0000020FFF787FDFFE705E0FFF7A5FC0320B5
:104CE000FFF780FDFFE70AB080BD00BF00000000B5
:104CF0000080B6430000C8430000DC4380B588B0A4
:104D000040F2026000F030FC40F2036000F02CFC46
:104D100040F60000C4F201004FF0100E03214FF4E2
:104D20008072079006917146069B05921A46059B74
:104D3000CDF810E0FDF79EFC07980599FDF782FC81
:104D400040F60040C4F201004FF400510390049A71
:104D500002911146069A029BFDF78CFC039802997A
:104D6000FDF770FC18200799019008460199069AF2
:104D7000059BFDF77FFC03980199069A029BFDF7BE
:104D800079FC48214FF480530398069AFDF772FC92
:104D900008B080BD40F24400C2F200000021017062
:104DA00040F24500C2F200000170704780B584B047
:104DB00040F2046000F0D8FB40F2036000F0D4FB46
:104DC0004FF4C06000F0D0FB40F60040C4F2010098
:104DD000042103224FF48053FDF74CFC42F60040BF
:104DE000C4F2010080210390029101F0D1F9182052
:104DF00000210191019AFFF77DF90398029901F0D2
:104E0000B7F900F009F8002803D0FFE700F01CF81C
:104E1000FFE704B080BD000080B540F60040C4F25A
:104E200001004FF48051FDF7D9FCB0FA80F0400941
:104E300080BD000040F24400C2F20000007800286B
:104E400018BF01207047000080B540F24400C2F254
:104E5000000001210170FFF7DFFF002818BF0120CB
:104E600040F24501C2F2000108704FF00000FEF769
:104E700059FC80BD80B582B0FFF7CEFF002804D07A
:104E8000FFE700208DF807000FE0FFF7D3FF0028B1
:104E900003D0FFE7FFF77EFFFFE7FFF7BDFFB0FAA4
:104EA00080F040098DF80700FFE79DF8070002B089
:104EB00080BD000085B00146049041F20400C4F2B8
:104EC000020000680390039843F6FF72CEF6FF726B
:104ED0001040039041F22C00C4F2020000680290DE
:104EE000029820F00050029004980428019100904C
:104EF0000ED3FFE70098052810D0FFE70098072899
:104F00000CD0FFE70098A0F10801042912D31FE09C
:104F10000498039941EA803003901AE0049820F045
:104F2000040004900498039941EA803040F08050D6
:104F300003900EE0049820F00C000490049803996C
:104F400041EA80300390029840F00050029000E067
:104F5000FFE7039841F20401C4F2020108600298DD
:104F600041F22C01C4F20201086005B07047000054
:104F700083B00146029041F20400C4F202000268CC
:104F80000192019A22F0F0020192019A029B1A43C7
:104F90000260009103B0704783B00146029041F275
:104FA0000400C4F2020002680192019A22F4E06255
:104FB0000192019A029B1A430260009103B070476C
:104FC00083B00146029041F20400C4F2020002687C
:104FD0000192019A22F460520192019A029B1A43B3
:104FE0000260009103B0704799B001468DF86300EC
:104FF0000020169040F20672C0F608120A9240F2A3
:105000000122C0F20342099208900790069205908F
:105010000492039041F20400C4F202000068C0F35D
:1050200081001790179800280291019008D0FFE79F
:10503000019801280AD0FFE7019802280CD087E0E8
:1050400041F20020C0F27A00159087E041F2002082
:10505000C0F27A00159081E041F20400C4F202002F
:10506000006800F4803011901198B0F5803F2CD189
:10507000FFE741F22C00C4F20200006800F080401B
:1050800010901098002806D1FFE741F20020C0F2EE
:105090007A000D9005E046F60040C0F2DC200D904D
:1050A000FFE741F20400C4F20200006800F400309F
:1050B0000F900F98B0F5003F06D1FFE740F60010C3
:1050C000C0F23D000D90FFE705E040F60010C0F291
:1050D0003D000D90FFE741F20400C4F202000168B8
:1050E000C1F383410E91006810F0006F05D0FFE717
:1050F0000E9840F010000E90FFE741F20400C4F259
:105100000200006810F0804F05D0FFE70E9840F0D5
:1051100020000E90FFE70E980E2804D8FFE70E98A7
:1051200002300E900FE00E980F2808D3FFE70E987C
:105130003E2804D8FFE70E9801300E9002E03F2091
:105140000E90FFE7FFE70D980E994843159005E094
:1051500041F20020C0F27A001590FFE741F204000E
:10516000C4F202000168C1F303110C910C9907AA63
:10517000515C0B9115990B9AD14014910168C1F3C0
:1051800002210C910C9905AA515C0B9114990B9A70
:10519000D14013910068C0F3C2200C900C9803A971
:1051A000085C0B9014980B99C84012909DF863000E
:1051B00001460328009110D80099DFE801F00205AC
:1051C000080B1598169009E01498169006E01398AD
:1051D000169003E01298169000E0FFE7169819B0B9
:1051E0007047000080B582B041F20000C4F20200B6
:1051F000016841F00101016000210190084600F0C2
:105200006BF841F20401C4F20201D1F800E00C2273
:10521000C2F2000202EA0E020A6001990A684FF621
:10522000FF7ECFF6F66E02EA0E020A600A6822F4EA
:1052300080220A6041F20802C4F202024FF41F0EFB
:10524000C2F800E041F22C02C4F20202D2F800E0FF
:105250002EF0C04EC2F800E0009002B080BD000009
:1052600082B00146ADF80400BDF80400800941F2A7
:105270000002C4F202028058BDF8042002F01F02AE
:10528000012303FA02F21042009104D0FFE701204B
:105290008DF8070003E000208DF80700FFE79DF878
:1052A000070002B07047000082B00146ADF806006A
:1052B000BDF8060000F01F02012303FA02F2800984
:1052C00041F20003C4F2020350F803C042EA0C02A8
:1052D000C250009102B0704780B58CB00146ADF865
:1052E0002E0000200A908DF827008DF82600BDF8CA
:1052F0002E00024600280891079274D0FFE7079815
:10530000102817D0FFE70798182800F0F880FFE76B
:105310000798B0F5006F37D0FFE70798B0F5106F2A
:1053200000F0BC80FFE743F210000799814200F0D3
:10533000848013E1FFE79DF82600002100280691F4
:1053400009D1FFE70A98A0F50061B0F5006F18BF1A
:1053500001210691FFE70698C007002809D0FFE762
:105360001120FFF77DFF8DF826000A9801300A9082
:10537000E1E71120FFF774FF002804D0FFE70120C8
:105380008DF82700FFE7EAE0FFE79DF826000021FF
:10539000002805910CD1FFE70A980121CFF60041C2
:1053A00001446FF07C42904218BF01210591FFE754
:1053B0000598C00700280AD0FFE740F60100FFF774
:1053C0004FFF8DF826000A9801300A90DDE740F67D
:1053D0000100FFF745FF002804D0FFE701208DF80A
:1053E0002700FFE7BBE0FFE79DF82600002100282B
:1053F000049109D1FFE70A98A0F5A061B0F5A06F6C
:1054000018BF01210491FFE70498C007002809D0C4
:10541000FFE70120FFF724FF8DF826000A980130EE
:105420000A90E1E70120FFF71BFF002804D0FFE707
:1054300001208DF82700FFE791E0FFE79DF82600A7
:105440000021002803910ED1FFE70A980121CFF631
:10545000F07101444FF6FF72C0F20F02904218BF84
:1054600001210391FFE70398C00700280AD0FFE756
:1054700043F21100FFF7F4FE8DF826000A98013080
:105480000A90DBE743F21100FFF7EAFE002804D0A0
:10549000FFE701208DF82700FFE760E0FFE79DF8B8
:1054A00026000021002802910ED1FFE70A98012171
:1054B000CFF6F07101444FF6FF72C0F20F02904236
:1054C00018BF01210291FFE70298C00700280AD007
:1054D000FFE740F60110FFF7C3FE8DF826000A989B
:1054E00001300A90DBE740F60110FFF7B9FE002813
:1054F00004D0FFE701208DF82700FFE72FE0FFE74A
:105500009DF826000021002801910ED1FFE70A989E
:105510000121CFF6F07101444FF6FF72C0F20F0285
:10552000904218BF01210191FFE70198C0070028B0
:1055300009D0FFE71920FFF793FE8DF826000A989F
:1055400001300A90DCE71920FFF78AFE002804D01A
:10555000FFE701208DF82700FFE700E0FFE79DF857
:1055600027000CB080BD000082B00146ADF80600F7
:10557000BDF8060000F01F02012303FA02F28009C1
:1055800041F20003C4F2020350F803C042EA0C02E5
:10559000C250009102B0704782B00146ADF80600DB
:1055A000BDF8060000F01F02012303FA02F2800991
:1055B00041F20003C4F2020350F803C02CEA0202D5
:1055C000C250009102B0704782B00146ADF80600AB
:1055D000BDF8060000F01F02012303FA02F2800961
:1055E00041F20003C4F2020350F803C042EA0C0285
:1055F000C250009102B0704785B00A46034604903D
:1056000003910020029041F20400C4F202000168FC
:10561000029102994FF6FF7CCBF2C27C01EA0C01A9
:1056200002910499DDF80CC041EA0C01DDF808C0D4
:1056300041EA0C010291029901600192009305B0C8
:105640007047000083B0014602900020019041F2B3
:105650002C00C4F2020002680192019A22F08042FA
:105660000192029A019B1A430192019A02600091F1
:1056700003B0704783B0014602900020019041F2D0
:105680000400C4F2020000680190019820F4003088
:10569000019002980128009105D1FFE7019840F49C
:1056A00000300190FFE7019841F20401C4F20201C9
:1056B000086003B07047000083B00146029041F2D9
:1056C0000400C4F2020002680192019A22F003026F
:1056D0000192019A029B1A430260009103B0704745
:1056E00041F20400C4F20200006800F00C007047B0
:1056F00080B584B0B0EE401A8DED030A9DED030A2B
:10570000DFED100A9FED102A8DED011AB0EE421A5E
:10571000FCF7F6FE8DED020A9DED020A40F2001E36
:10572000C2F2000E8EED060ABCEEC00A10EE10EAC0
:105730007046FEF799F8B6EE000AFEF763F804B07B
:1057400080BD00BF007C92470050434883B00020DA
:105750000290019041F20000C4F20200016841F49D
:1057600080310160FFE702980130029041F20000B1
:10577000C4F20200006800F400300190FFE70198D5
:1057800000210028009109D1FFE70298A0F50061EF
:10579000B0F5006F18BF01210091FFE70098C00726
:1057A0000028E0D1FFE741F20000C4F202000068E7
:1057B00010F4003F02D1FFE7FFE7FEE741F21C00D3
:1057C000C4F20200016841F08051016047F200001C
:1057D000C4F20000016841F44041016041F204005C
:1057E000C4F202000168016001680160016841F4CF
:1057F00080610160016821F440310160016841F479
:105800004031016001684FF6FF72CBF2C372114064
:10581000016001680022C0F634021143016041F2C8
:105820000000C4F20200016841F080710160FFE7EE
:1058300041F20000C4F20200006810F0007F01D1C4
:10584000FFE7F5E747F20000C4F20000016841F409
:1058500080310160FFE747F20400C4F200000068F5
:1058600010F4803F01D1FFE7F5E747F20000C4F2F2
:105870000000016841F400310160FFE747F20400D5
:10588000C4F20000006810F4003F01D1FFE7F5E723
:1058900041F20400C4F20200016821F0030101603A
:1058A000016841F002010160FFE741F20400C4F227
:1058B0000200006810F0080F01D1FFE7F5E703B020
:1058C0007047000080B5FFF741FF80BD80B584B010
:1058D000FAF7B6FF40F2040EC2F2000EDEF800E066
:1058E00044F6D350C1F26200AEFB000E4FEA9E1E9A
:1058F000CDF80CE0DDF80CE0BEF1000F029005D011
:10590000FFE70398B0F1807F01D3FFE7FFE703983B
:10591000013803900398B0F1807F04D3FFE76FF064
:105920007F400390FFE74EF21000CEF2000000210E
:105930000160039A4EF21403CEF200031A604EF295
:105940001802CEF200021160022201901046FCF70C
:105950005FFF4FF0FF31009008460099FBF7E4F835
:1059600007200199086004B080BD000080B582B0B6
:105970000220FFF739FB019041F20400C4F202005B
:10598000006810F4E06F04D0FFE701984000009039
:1059900002E001980090FFE7009802B080BD00008F
:1059A00080B582B00320FFF71FFB019041F2040095
:1059B000C4F20200006810F4605F04D0FFE70198B1
:1059C0004000009002E001980090FFE7009802B0CC
:1059D00080BD000082B0014601900198026842F04B
:1059E00080020260009102B07047000084B00A4655
:1059F00003460390029102980188D0F804C041EA5E
:105A00000C01B0F808C041EA0C01B0F80AC041EA44
:105A10000C01B0F80CC041EA0C01B0F80EC041EA2C
:105A20000C01008A0843039948640192009304B072
:105A30007047000080B587B013468C4686460690B6
:105A4000ADF816100492BDF8160001460328039322
:105A5000CDF808C0CDF804E0009100F2598100991A
:105A6000DFE811F004005D00BC001B010698016A2C
:105A700021F0010101620498006806990A6A104346
:105A800008620698016A21F0020101620498C08848
:105A900006990A6A10430862069842F60041C4F269
:105AA0000101884208D0FFE7069843F20041C4F2A2
:105AB000010188422DD1FFE70698016A21F0040117
:105AC00001620498808806990A6A10430862069861
:105AD000016A21F0080101620498008906990A6AA6
