:020000040800F2
:1000000080110020450100088508000875080008D7
:100010008108000861070008910B0008000000003B
:100020000000000000000000000000008D08000833
:100030007108000800000000890800089108000805
:100040005F0100085F0100085F0100085F01000810
:100050005F0100085F0100085F0100085F01000800
:100060005F0100085F0100085F010008F507000854
:10007000690800085F0100085F0100085F010008CF
:100080005F0100085F0100085F0100085F010008D0
:100090005F0100085F0100085F0100085F010008C0
:1000A000790A00085F0100085F0100085F0100088D
:1000B0005F0100085F010008A50A00085F01000851
:1000C0005F0100085F0100085F0100085F01000890
:1000D0005F0100085F0100085F0100085F01000880
:1000E0005F0100085F0100085F0100085F01000870
:1000F0005F0100085F0100085F0100085F01000860
:100100005F0100085F0100085F0100085F0100084F
:100110005F0100085F010008DD0A0008350B0008D8
:100120005F0100085F0100085F0100085F0100082F
:10013000DFF80CD000F002FB004800472551000812
:10014000801100200648804706480047FEE7FEE78A
:10015000FEE7FEE7FEE7FEE7FEE7FEE7FEE7FEE777
:10016000150A0008310100082DE9F05F054600205E
:1001700092469B4688460646814640241BE0284618
:1001800041464746224600F02AFA53465A46C01ACC
:10019000914110D311461846224600F011FA2D1A4B
:1001A00067EB01084F4622460120002100F008FAC3
:1001B00017EB00094E41201EA4F10104DFDC484684
:1001C00031462A464346BDE8F09F40EA01039B07BB
:1001D00003D009E008C9121F08C0042AFAD203E0BC
:1001E00011F8013B00F8013B521EF9D27047D2B220
:1001F00001E000F8012B491EFBD270470022F6E710
:1002000010B513460A4604461946FFF7F0FF20468C
:1002100010BD2DE9FE4F804681EA0300C00F0C4659
:10022000009021F0004123F00045B8EB0200A94105
:1002300005D24046214690461C460B46024623F016
:100240000040104347D0270DC7F30A00C3F30A51FB
:100250000290401A019040286BDAC3F3130040F477
:10026000801B0098924620B10023D2EB030A63EB77
:100270000B0B01985946C0F14002504600F0A0F91E
:1002800006460D4650465946019A00F0B8F910EB63
:1002900008006141002487EA115284EAE7731A4397
:1002A00040D0009A62B3019A012A4FEA075215DC46
:1002B000001B61EB02014FF0004202EA0752CDE958
:1002C0000042001C41F5801132462B4600F0B8F97F
:1002D00003B0BDE8F08F40462146F9E7001B61EB13
:1002E0000201001C41F5801300185B412018A2F5A3
:1002F000001747EB030140EAD570B6196D4111E0D4
:100300006D084FEA360645EAC0754FEA0752001BF2
:1003100061EB0201001C41F5801149084FEA3000F1
:100320000019514132462B4603B0BDE8F04F00F0B2
:1003300078B90098012240000023D0EB020263EB61
:10034000E073009821464FEAE074B8EB000061EBDF
:100350000401E9E783F000435BE781F0004158E7DF
:100360002DE9FE4F81EA030404F0004421F000412E
:1003700000944FF0000B23F0004350EA01045ED0DC
:1003800052EA03045BD0C3F30A54C1F30A552C4468
:10039000A4F2F3340194A0FB0254C1F3130141F41D
:1003A0008011C3F3130343F4801301FB024400FBE9
:1003B000034E840A970A44EA815447EA8357A4FB10
:1003C000076802958D0A05FB07854FEA932C04FB0D
:1003D0000C542705029D4FEA065847EA1637B5EB3D
:1003E00008056EEB070C870E920E47EA811742EA6A
:1003F0008312A7FB0201B6EB0B0164EB00042B0D8B
:1004000043EA0C335E1844EB1C50DA465146E7FBD6
:100410000201C5F313044FEA0B3343EA14534FEAC6
:100420000432019C43EA0603A4F10C040294009CEC
:10043000CDE900B400F004F903B0BDE8F08F00206E
:100440000146F9E72DE9F04D81EA030404F0004B81
:1004500021F0004514464FF0000A23F0004150EA15
:10046000050220D054EA01021DD0C5F30A57024606
:10047000C5F31303C1F31300C1F30A5640F480150A
:1004800043F48013A7EB0608101BD64608F2FD388C
:1004900073EB050002D308F1010801E092185B41FB
:1004A000B8F1000F03DA00200146BDE8F08D00200E
:1004B0004FF48011064684460EE0171B73EB0507C8
:1004C00005D3121B63EB050306434CEA010C4908F4
:1004D0004FEA300092185B4150EA0107EDD152EA31
:1004E000030012D082EA040083EA0501084305D024
:1004F000101BAB4106D20122002306E000224FF080
:10050000004302E06FF0010253101AEB06004CEBBF
:10051000085110EB0A0041EB0B01BDE8F04D00F073
:1005200080B80EB540F2334102910021CDE90011AF
:100530000A460B4600F084F803B000BDC1F30A522E
:1005400010B5C1F3130140F2FF3341F480119A4218
:1005500001DA002010BD40F233439A42A2F2334246
:1005600003DC524200F03BF810BD904010BD00F09B
:10057000004230F000400AD0C10D01F56071C0F3B7
:10058000160042EA0151C20840071143704700209B
:100590000146704730B50B46014600202022012459
:1005A00009E021FA02F59D4205D303FA02F5491B41
:1005B00004FA02F52844151EA2F10102F1DC30BD57
:1005C000202A04DB203A00FA02F100207047914013
:1005D000C2F1200320FA03F3194390407047202A08
:1005E00004DB203A21FA02F00021704721FA02F3DD
:1005F000D040C2F120029140084319467047202A9A
:1006000006DBCB17203A41FA02F043EAE07306E03A
:1006100041FA02F3D040C2F120029140084319464A
:10062000704710B5141E73F1000408DA401C41F144
:10063000000192185B411A4301D120F0010010BD66
:100640002DE9F04D92469B4611B1B1FA81F202E0DC
:10065000B0FA80F220329046FFF7B2FF04460F4610
:1006600040EA0A0041EA0B0153465A46084313D0B8
:10067000114653EA010019D0C8F140025046FFF775
:10068000AEFF05460E46504659464246FFF798FFD4
:10069000084305D0012004E020463946BDE8F08D2E
:1006A0000020054346EAE0762C4337430A98630569
:1006B000E40AA0EB08000022FD0A44EA47540A308D
:1006C00002D500200146E9E7010510196941DDE97D
:1006D000084500196941BDE8F04DA2E7C1F30A528F
:1006E000C1F3130140F2FF3341F480119A4202DA60
:1006F00000200146704740F233439A42A2F233424F
:1007000002DC5242FFF76BBFFFF75ABF30B5041E41
:1007100071F1000404DB4FF00044404264EB01013E
:10072000141E73F1000405DB1C464FF000435242D7
:1007300063EB0403994208BF904230BD064C074D5D
:1007400006E0E06840F0010394E8070098471034A1
:10075000AC42F6D3FFF7F0FCF084000810850008E7
:10076000FFE7FEE780B584B005F022FE4FF0100EE3
:100770007046CDF808E005F07DFE029805F092FE87
:100780008DF80F009DF80F00012830D1FFE70220FF
:1007900002F05CFB0020019005F0D0FC019805F010
:1007A000F5FC4FF4806005F0DDFC019806F030F8B0
:1007B000019806F045F84FF480304FF4501106F0E0
:1007C00001F8182005F056FEFFE7192005F02EFE6F
:1007D000002801D1FFE7F8E7022006F053F8FFE711
:1007E00006F064F8002801D1FFE7F9E7FFE704B05D
:1007F00080BD000080B50020C4F202000021042268
:1008000001F0A6FF00280ED0FFE70020C4F202008E
:100810000021042201F082FF40F23C00C2F20000FD
:1008200000F092FEFFE70020C4F202000021022245
:1008300001F08EFF00280FD0FFE70020C4F2020075
:100840000021022201F06AFF40F23C00C2F20000E7
:10085000043000F079FEFFE70020C4F2020000211E
:10086000012201F05BFF80BD80B501F0C5FA80BDBB
:1008700070470000FFE7FEE780B5FFF773FF80BD1C
:10088000FFE7FEE770470000704700007047000078
:1008900040F21800C2F2000001680131016040F22C
:1008A0005000C2F200000168013101607047000091
:1008B00087B041F20400C4F202000068C0F3810076
:1008C000069006980028009008D0FFE700980128BD
:1008D0000ED0FFE70098022814D08EE040F204000A
:1008E000C2F2000041F20021C0F27A0101608EE004
:1008F00040F20400C2F2000041F20021C0F27A018D
:10090000016084E041F20400C4F20200006800F4D7
:10091000803005900598B0F5803F2CD1FFE741F27B
:100920002C00C4F20200006800F08040049004989B
:10093000002806D1FFE741F20020C0F27A000190C2
:1009400005E046F60040C0F2DC200190FFE741F2EE
:100950000400C4F20200006800F400300390039821
:10096000B0F5003F06D1FFE740F60010C0F23D00B1
:100970000190FFE705E040F60010C0F23D00019055
:10098000FFE741F20400C4F202000168C1F38341B1
:100990000291006810F0006F05D0FFE7029840F068
:1009A00010000290FFE741F20400C4F20200006868
:1009B00010F0804F05D0FFE7029840F02000029031
:1009C000FFE702980F2804D3FFE702980130029056
:1009D00003E0029802300290FFE702983E2803D31A
:1009E000FFE73F200290FFE701980299484340F259
:1009F0000401C2F20001086009E040F20400C2F202
:100A0000000041F20021C0F27A010160FFE707B067
:100A10007047000080B54EF68850CEF200000168A5
:100A200041F47001016041F20000C4F2020001686B
:100A300041F00101016041F20401C4F2020100220F
:100A40000A6041F22C01C4F202010A6001684FF60B
:100A5000FF72CFF6F6621140016041F20801C4F264
:100A600002014FF41F020A60016821F48021016035
:100A700006F00EF880BD000080B542F60040C4F2DA
:100A80000100802106F07AFC00280AD0FFE705F07B
:100A9000C1FA42F60040C4F20100802106F05EFC7B
:100AA000FFE780BD80B540F60000C4F200000121E0
:100AB00006F064FC01280FD1FFE740F60000C4F205
:100AC0000000012106F04AFC40F23800C2F20000AA
:100AD000016801310160FFE780BD000080B541F28F
:100AE0000000C4F20000012106F048FC012808D1F2
:100AF000FFE741F20000C4F20000012106F02EFCE5
:100B0000FFE740F20800C2F20000018801310180D5
:100B1000008814280DDBFFE740F20800C2F2000055
:100B20000021018040F25B00C2F20000012101704F
:100B3000FFE780BD80B541F20040C4F20000012112
:100B400006F01CFC012808D1FFE741F20040C4F286
:100B50000000012106F002FCFFE740F20A00C2F2A9
:100B60000000018801310180B0F90000B0F57A7F02
:100B70000DDBFFE740F20A00C2F200000021018015
:100B800040F25A00C2F2000001210170FFE780BD6F
:100B9000FFE7FEE784B00A4603468DF80F00029196
:100BA0009DF90F000028019200930ADBFFE70298ED
:100BB00000019DF90F104EF20042CEF2000288545F
:100BC0000BE0029800019DF80F1001F00F014EF6A6
:100BD0001452CEF200028854FFE704B070470000C0
:100BE00080B540F2026005F0A5FD40F60000C4F2B9
:100BF000010000210322602302F054F980BD0000AF
:100C00002DE9F04190B04FF4A06005F093FD002075
:100C10000F900E900D900C900B900A90099040F25E
:100C2000000EC4F2020E089070460899CDF81CE040
:100C300001F042FC42F24C40C4F2010009900898D5
:100C40008DF83C0040F23C01C2F200010B91012101
:100C50008DF83D104FF4807ECDF828E04FF4806E83
:100C6000CDF830E04FF0040ECDF834E04FF40052F0
:100C70000E928DF83E000A9B099ADDF82CC00C9C60
:100C80000D9D0E9E0F9FE846C8F81070C8F80C60C6
:100C9000C8F80850C8F80440C8F800C00798DDF844
:100CA00020C006916146CDF814E001F051FC079890
:100CB000089901F0E1FB02220798089901F008FD6C
:100CC00007980899059A01F003FD07980899069A74
:100CD00001F024FD10B0BDE8F081000080B586B0C1
:100CE0000146059040F20C00C2F200000078002896
:100CF000049101D0FFE761E0FFF772FFFFF780FF8B
:100D00000B204FF0010E002103917146039ACDF89C
:100D100008E004F0D5FA40F2096005F00BFD02206E
:100D2000019005F0ADF942F20040C4F201000090DC
:100D300000F05AFA039800F0C5FB4FF48071009858
:100D4000029A00F0FDFC00980199039A00F0F8FC6B
:100D50000098039900F02EFA00980299019A00F089
:100D6000E9F9052204230098039900F011FC0622FA
:100D700000980299029B00F00BFC4FF4602200984F
:100D8000029900F0D3FA00980299029A00F086FACC
:100D9000009800F071FA009800F0ACF9009800F0AB
:100DA0005FFA0020C4F20200039901F045FB40F213
:100DB0000C00C2F2000002990170FFE706B080BD8E
:100DC00040F20C00C2F200000078002801D1FFE7D9
:100DD000FFE7704780B582B040F2026005F0AAFCE0
:100DE00040F2046005F0A6FC41F20000C4F20100EC
:100DF0004FF0000E0321302301917146019ACDF886
:100E000000E002F04FF840F60000C4F201000A23AF
:100E10000099019A02F046F802B080BD80B588B012
:100E200040F20D00C2F200000078002801D0FFE778
:100E300097E0FFF7CFFF40F20A6005F07BFC02204D
:100E4000059005F01DF942F60000C4F2010004907F
:100E500000F0CAF90020039000F034FB04980399D5
:100E600000F0A8F94FF480710498039A00F068FC30
:100E700004980599039A00F063FC012004990290FC
:100E800008460299029A00F055F94FF4602204983E
:100E9000029900F04BFA04980299029A00F0FEF9C8
:100EA000049800F0E9F94FF47A700790FFE742F6F2
:100EB0000800C4F201000068002110F0010F019148
:100EC00006D1FFE70798002818BF01200190FFE72F
:100ED0000198C007002804D0FFE707980138079061
:100EE000E5E70798002801D1FFE73AE0012001F08B
:100EF00063FA42F60000C4F2010000F0FBF84CF285
:100F000050300690FFE742F60800C4F20100006886
:100F1000002110F0080F009106D0FFE70698002886
:100F200018BF01200090FFE70098C007002804D0F8
:100F3000FFE7069801380690E5E70698002809D1F2
:100F4000FFE742F60800C4F20100016821F0080141
:100F50000160FFE740F20D00C2F2000001210170C4
:100F6000FFE708B080BD000080B58EB00A4603469A
:100F70008DF835000C9140F20D00C2F200000078AF
:100F800000280692059305D1FFE74FF6FF70ADF8F4
:100F9000360085E042F60400C4F2010000680B90C0
:100FA00042F60800C4F2010000680A9042F6000010
:100FB000C4F20100016809910C9B9DF835200021C5
:100FC000049000F0E5FA0220049903900846039982
:100FD00000F050FA0498039900F05CFA002808D059
:100FE000FFE742F60000C4F20100022100F042FADD
:100FF000FFE742F60000C4F20100012100F07EFB91
:101000009DF82A00400600280ED4FFE742F60000B3
:10101000C4F20100012100F071FB42F60800C4F2A5
:10102000010000680A90FFE748F2A060C0F20100EA
:101030000890FFE742F60000C4F20100022100F030
:1010400029FA00210028029106D1FFE7089800281C
:1010500018BF01200290FFE70298C007002804D0C3
:10106000FFE7089801380890E4E70898002805D1C0
:10107000FFE74FF6FF70ADF8360011E042F60000D2
:10108000C4F20100019000F02FFBADF81E00022118
:10109000019800F0EFF9BDF81E00ADF83600FFE74B
:1010A000BDF836000EB080BD80B582B040F20D00B4
:1010B000C2F200000078002801D1FFE717E00E20FF
:1010C00005210091FFF750FFADF806000F200099B1
:1010D000FFF74AFFADF80400BDF8060040F25C01DE
:1010E000C2F200018880BDF80400C880FFE702B0AA
:1010F00080BD000082B0014601900198826842F0F4
:10110000080282600091FFE70198806810F0080FE4
:1011100001D0FFE7F8E70198816841F004018160A0
:10112000FFE70198806810F0040F01D0FFE7F8E7AF
:1011300002B0704780B587B013468C46864606904D
:101140008DF8171004929DF81700014601280393AB
:10115000CDF808C0CDF804E0009104D0FFE7009876
:10116000022812D023E00698C16A21F47001C162FE
:1011700004980021CFF6F07101EB00503FFA80F0A7
:101180000699CA6A1043C86212E00698816B21F47E
:101190004011816304980021CFF6F07101EB0050FB
:1011A00000F4401006998A6B1043886300E0FFE763
:1011B00007B080BD84B00A460346039002910298AE
:1011C00000280192009306D0FFE70398816841F45C
:1011D0000061816005E00398816821F4006181600D
:1011E000FFE704B07047000080B586B00146059067
:1011F000059842F20042C4F2010290420491039029
:1012000010D0FFE742F60000C4F2010003998142CA
:1012100011D0FFE743F60040C4F201000399814278
:1012200012D01AE040F20930029005F0B3FA0298A9
:1012300005F098FA12E040F20A30019005F0AAFA9F
:10124000019805F08FFA09E040F20F30009005F0A8
:10125000A1FA009805F086FA00E0FFE706B080BD2D
:1012600082B0014601900198826842F480728260E7
:10127000009102B07047000082B0014601900198D1
:10128000806810F0010F009106D1FFE70198816896
:1012900041F001018160FFE702B0704780B585B081
:1012A00013468C46864604908DF80F108DF80E205C
:1012B0009DF80E0000280293CDF804C0CDF800E0A0
:1012C00019D0FFE79DF80F00C007002806D0FFE700
:1012D0000498816841F480118160FFE79DF80F0058
:1012E0008007002806D5FFE70498816841F4004193
:1012F0008160FFE718E09DF80F00C007002806D0C6
:10130000FFE70498816821F480118160FFE79DF870
:101310000F008007002806D5FFE70498816821F4B4
:1013200000418160FFE7FFE705B080BD80B587B071
:1013300013468C46864606908DF8171004929DF849
:101340001700014601280393CDF808C0CDF804E04A
:10135000009104D0FFE7009802280BD015E0069812
:10136000816821F460218160049806998A6810439D
:1013700088600BE00698816821F4E0418160049860
:1013800006998A681043886000E0FFE707B080BDD7
:1013900080B582B0022004F00DFF019041F20400FC
:1013A000C4F20200006810F4E06F04D0FFE7019877
:1013B0004000009002E001980090FFE7009802B022
:1013C00080BD000080B58CB040F2027005F0B2F92B
:1013D00040F60000C4F2000005F054FEFFF7D8FF0D
:1013E0000B900B9841F2597ECDF2B71EA0FB0E0E6A
:1013F0004FEA5E3ECDF828E0DDF828E0BEF1000FB0
:10140000059003D1FFE701200A90FFE70A98002822
:1014100004D0FFE70A9801380A90FFE706A8049075
:1014200006F000F80020ADF81800ADF81C00DDF85B
:1014300028E0CDF820E0ADF8240040F6000EC4F21C
:10144000000E039070460499CDF808E005F0F0FE18
:101450000120029901900846019905F06FFF1E20B6
:101460000199039A03F02CFF029805F099FE0CB045
:1014700080BD000084B00A460346039002910298A2
:101480000399D1F800C02CEA000008600192009393
:1014900004B0704785B00A460346049003910020CB
:1014A0008DF80B000498006803990842019200939C
:1014B00004D0FFE701208DF80B00FFE79DF80B003B
:1014C00005B0704782B00146019042F20440C4F278
:1014D0000100026822F470220260019A03681A4334
:1014E0000260009102B0704782B040F25C00C2F22C
:1014F00000000188ADF800104188ADF80210818825
:10150000ADF80410C088ADF8060040F20E00C2F23B
:101510000000009901600199416002B0704700002D
:1015200080B582B00146019001980091FFF7D6FB8B
:1015300002B080BD80B5FFF7B7FD80BD80B5FFF775
:101540003FFCFFF76BFC80BD82B001460190019823
:10155000028840F25C03C2F200031A80408858807F
:10156000009102B07047000080B540F20C00C2F25A
:1015700000000078002801D1FFE707E042F20040B8
:10158000C4F20100012100F0B9F8FFE780BD0000BE
:10159000B0B589B09C4696460C46054608908DF835
:1015A0001F108DF81E2006939DF81F000528CDF80A
:1015B0000CC0CDF808E00194009518D8FFE7089812
:1015C000406B05909DF81F0000EB80001F218140BB
:1015D000059A22EA010105919DF81E1001FA00F01A
:1015E0000599084305900598089948633EE09DF8E1
:1015F0001F000B2819D8FFE70898006B05909DF88D
:101600001F0000EB80001E381F218140059A22EA4E
:10161000010105919DF81E1001FA00F0059908439B
:1016200005900598089908631FE09DF81F000F2892
:1016300019D8FFE70898C06A05909DF81F0000EBD5
:1016400080003C381F218140059A22EA0101059162
:101650009DF81E1001FA00F00599084305900598C1
:101660000899C86200E0FFE7FFE7FFE79DF81E006A
:10167000092817D8FFE70898006904909DF81E0014
:1016800000EB400007218140049A22EA0101049105
:10169000069901FA00F00499084304900498089907
:1016A00008611EE09DF81E00112818D8FFE7089871
:1016B000C06804909DF81E0000EB40001E38072112
:1016C0008140049A22EA01010491069901FA00F08E
:1016D00004990843049004980899C86000E0FFE763
:1016E000FFE709B0B0BD000082B00146019001984B
:1016F000C06C80B2009102B07047000084B00A460E
:10170000034603908DF80B109DF80B00C0070028CE
:101710000192009306D0FFE70398816841F48001AD
:101720008160FFE79DF80B008007002806D5FFE7E2
:101730000398816841F400118160FFE704B07047AD
:1017400080B586B013468C468646059004918DF888
:101750000F209DF80F0000280293CDF804C0CDF8AB
:1017600000E022D0FFE70498C005002806D5FFE777
:101770000598416841F480714160FFE70498400595
:10178000002806D5FFE70598416841F48061416073
:10179000FFE704988007002806D5FFE705988168D1
:1017A00041F002018160FFE721E00498C0050028B4
:1017B00006D5FFE70598416821F480714160FFE795
:1017C00004984005002806D5FFE70598416821F4F4
:1017D00080614160FFE704988007002806D5FFE795
:1017E0000598816821F002018160FFE7FFE706B0FC
:1017F00080BD000080B588B002A800210691ADF838
:101800001610ADF814100090FFE7BDF8140007287B
:1018100022D8FFE70E200521FFF7A6FBADF8120046
:10182000BDF812004FF6FF7188420BD0FFE7BDF8FC
:101830001200069908440690BDF816000130ADF874
:101840001600FFE7022000F0B7FDFFE7BDF8140027
:101850000130ADF81400D8E7BDF81600002804D117
:10186000FFE700208DF81F006EE0009890ED040A5D
:10187000B8EE400ABDF8161001EE101AB8EE411A83
:1018800080EE010A80ED010A90ED010AB6EE001A21
:1018900030EE010ABDEEC00A10EE101A9FED2C0AC0
:1018A000DFED2C0A084600F079FA009880ED000A76
:1018B00090ED000A9FED281AB4EEC10AF1EE10FA7D
:1018C0000BDBFFE7009890ED000A9FED241AB4EEC1
:1018D000C10AF1EE10FA04DDFFE700208DF81F00C9
:1018E00032E000208DF80700FFE79DF8070002288E
:1018F0000ED8FFE7FFF71EFEFFF7F6FD012000F010
:101900005BFDFFE79DF8070001308DF80700ECE76D
:1019100040F20E00C2F2000000884FF6FF718842CC
:101920000AD0FFE740F20E00C2F2000040884FF6F6
:10193000FF71884204D1FFE700208DF81F0003E00B
:1019400001208DF81F00FFE79DF81F0008B080BD43
:1019500000609F4500401C46333333406666664056
:1019600085B0B0EE401A0146ADF812008DED030AC5
:10197000BDF8120000EE100AB8EEC00A9FED0A2A68
:1019800020EE020A9FED092A80EE020A8DED020A7E
:101990009DED020A9DED032A20EE020A8DED011A4B
:1019A000009105B0704700BF3333534000F07F45CE
:1019B00080B594B00A460346129011911198002800
:1019C0000992089304D1FFE700208DF84F00E5E06D
:1019D0001198FEF7A6FD41EC100B9FED731B51EC27
:1019E000110B53EC102BFEF72DFD41EC100B8DED80
:1019F0000E0B1298FEF795FD41EC100B9DED0E1BA2
:101A000051EC100B53EC112BFEF71CFD41EC100BAD
:101A100051EC100B9FED660B53EC102BFEF7F9FB0E
:101A200041EC100B51EC100BFEF788FD0D900D985A
:101A30007F2804D8FFE70D988DF84F00AEE012988C
:101A4000FEF76FFD41EC100B9DED0E1B51EC110BE1
:101A500007900691079A069B8DED040BFEF7D9FBC4
:101A600041EC100B9DED041B51EC110B53EC102BB2
:101A7000FEF7E8FC41EC100B51EC100B9FED4C0B0A
:101A800053EC102BFEF7C5FB41EC100B51EC100B87
:101A9000FEF754FD0C900C98402809D3FFE70C98F2
:101AA0007F2805D8FFE70C9840308DF84F0075E08F
:101AB0001298FEF736FD41EC100B9DED0E1B51EC1C
:101AC000110B9FED3D1B53EC112B8DED020BFEF71F
:101AD00047FC41EC100B53EC102B9DED020B51EC2D
:101AE000100BFEF7AFFC41EC100B51EC100B9FED0F
:101AF000300B53EC102BFEF78CFB41EC100B51EC30
:101B0000100BFEF71BFD0B900B98202809D3FFE765
:101B10000B983F2805D8FFE70B98A0308DF84F00B1
:101B20003CE01298FEF7FDFC41EC100B9DED0E1B06
:101B300051EC110B9FED221B53EC112B8DED000B83
:101B4000FEF70EFC41EC100B53EC102B9DED000B3F
:101B500051EC100BFEF776FC41EC100B51EC100B26
:101B60009FED130B53EC102BFEF753FB41EC100BC6
:101B700051EC100BFEF7E2FC0A900A98202809D3DA
:101B8000FFE70A983F2805D8FFE70A98C0308DF88C
:101B90004F0003E000208DF84F00FFE79DF84F0055
:101BA00014B080BD00BF00BF0000000065CDCD4176
:101BB000000000000000E03F0000000000002040A6
:101BC000000000000000304088B0B0EE412AB0EEC6
:101BD000603AB0EE404A8DED070ACDED060A8DED74
:101BE000051A9DED070A9DED061AB4EEC10AF1EE45
:101BF00010FA8DED042A8DED033A8DED024A05DAD7
:101C0000FFE79DED060A8DED010A18E09DED070A3C
:101C10009DED051AB4EEC10AF1EE10FA05DDFFE7FD
:101C20009DED050A8DED000A04E09DED070A8DED9E
:101C3000000AFFE79DED000A8DED010AFFE79DED2B
:101C4000010A08B07047000088B0B0EE412AB0EE3B
:101C5000603AB0EE404A8DED070ACDED060A8DEDF3
:101C6000051A9DED070A9DED061AB4EEC10AF1EEC4
:101C700010FA8DED042A8DED033A8DED024A05DA56
:101C8000FFE79DED060A8DED010A18E09DED070ABC
:101C90009DED051AB4EEC10AF1EE10FA05DDFFE77D
:101CA0009DED050A8DED000A04E09DED070A8DED1E
:101CB000000AFFE79DED000A8DED010AFFE79DEDAB
:101CC000010A08B07047000080B5FFF733FC03F04D
:101CD000D5FE01F0F1FA80BD84B00146ADF80E00EA
:101CE000BDF80E0000EE100AB8EEC00A9FED0D1A06
:101CF00020EE010A9FED0C1A80EE010A8DED020A1A
:101D00009DED020A9FED091A30EE010A8DED010AE0
:101D10009DED010A9FED061A80EE010A009104B0C4
:101D2000704700BF3333534000F07F457B142EBE15
:101D300039B4C83D87B0B0EE601AB0EE402A014613
:101D4000ADF81A008DED050ACDED040ABDF81A00B4
:101D500000EE100AB8EEC00ADFED0E0A20EE200AEF
:101D6000DFED0D0A80EE200A8DED030A9DED030ADA
:101D7000DDED050A9DED043A70EE830A20EE200A9F
:101D800080EE030A8DED021A8DED012A009107B055
:101D9000704700BF3333534000F07F4587B0B0EE4B
:101DA000601AB0EE402A0146ADF81A008DED050A22
:101DB000CDED040ABDF81A0000EE100AB8EE400A94
:101DC000DFED0B0A20EE200ADFED0A0A80EE200A82
:101DD0008DED030A9DED030AF7EE080A20EE200AB6
:101DE0008DED021A8DED012A009107B0704700BFFA
:101DF0003333534000F07F4580B572B60020C4F203
:101E000002000121022200F0A3FC002817D0FFE706
:101E10000020C4F202000121022200F07FFC40F603
:101E2000F420C2F20000002180F8041200F00AFA47
:101E3000012803DBFFE700F0D5F8FFE7FFE762B614
:101E400080BD000083B080B585B0099308920791EA
:101E50000146049007A803900498039A0191114643
:101E600000F02CFA0290029805B0BDE8804003B063
:101E700070470000F0B595B0014614901498002802
:101E80000C9104D1FFE74FF461201490FFE740F676
:101E9000F420C2F200000021A0F80012A0F8021203
:101EA00080F80412A0F8861240F203600B9104F04F
:101EB00041FC4FF4C06004F03DFC40F2127004F0AD
:101EC00039FC40F60040C4F2010018214FF0030E27
:101ED0004FF480630A907246CDF824E000F0E2FFF0
:101EE00004204FF400630A99089008460899099A5B
:101EF00000F0D8FF44F60000C4F20000079005F09F
:101F000011FB1499079805F0A3FA07980B9905F0AF
:101F100021FC07980B9905F0EDFB07980B9905F04C
:101F2000B9FB07980B9905F09BFB07980B9905F0F7
:101F30007DFB0798089905F0C3FB0821079805F079
:101F4000EFFB079805F066FB4FF4A06004F0F2FB8E
:101F50000020C4F2020001210690059100F0ACFAC5
:101F600005988DF84E008DF84D000B998DF84C10AA
:101F700010910E91129111910D910F910E9B0D9A4E
:101F8000DDF83CE0DDF840C0119C129D139E6F46C9
:101F90003E61FD60BC60C7F804C0C7F800E0069869
:101FA000059900F0D5FA0C200B990B9A03F088F9EB
:101FB00015B0F0BD80B584B001468DF80F009DF8D6
:101FC0000F000A28029105D1FFE70D2000F06AF901
:101FD0000190FFE79DF80F0000F064F9009004B055
:101FE00080BD000080B588B040F6F420C2F2000049
:101FF00090F80402002805D1FFE700F023F900283B
:1020000001D1FFE78DE000F01DF9ADF81E00BDF82D
:102010001E00812803D3FFE78020059003E0BDF870
:102020001E000590FFE70598ADF81C000020ADF8F4
:102030001A00FFE7BDF81A00BDF81C1088421ADA32
:10204000FFE70DF1190000F0A1F800280CD0FFE720
:102050009DF81900BDF81A1040F6F422C2F20002F1
:10206000114481F80502FFE7FFE7BDF81A000130CF
:10207000ADF81A00DEE70020C4F20200012104904E
:10208000039100F0B9F940F6F420C2F2000000F22A
:102090000522049902900846039900F0C7FB00202E
:1020A0000499019008460399019A00F003FC0498F2
:1020B000039900F0DFFB44F60400C4F2000002685C
:1020C0000498039900F02AFC04980399019A00F0FF
:1020D0008BFC0498039900F067FCBDF81C20049861
:1020E000039900F0E9FC04980399019A00F0B0FC10
:1020F00002220498039900F0EBFA0498039900F087
:102100009BF944F60000C4F20000802105F068FA53
:102110000398029981F80402BDF81C20A1F88622D8
:10212000FFE708B080BD000080B500F001F880BD79
:1021300082B072B640F6F420C2F20000B0F800128D
:10214000ADF80410B0F80202ADF8020062B6BDF8B6
:102150000400BDF8021088420BDBFFE7BDF8040065
:10216000BDF80210401A40F2FF11081AADF806003F
:1021700008E0BDF80200BDF80410401A0138ADF8BF
:102180000600FFE7BDF8060002B0704783B00146C5
:10219000019072B640F6F420C2F20000B0F80022BE
:1021A000B0F802028242009104D1FFE762B600203B
:1021B000029013E040F6F420C2F20000B0F80212E0
:1021C000415C019A1170B0F8021201316FF35F2186
:1021D000A0F8021262B601200290FFE7029803B055
:1021E0007047000083B001468DF8070072B640F6D4
:1021F000F420C2F20000B0F8002201326FF35F2237
:10220000ADF80420BDF80420B0F80202824200912B
:1022100004D1FFE762B60020029010E09DF80700AD
:1022200040F6F421C2F20001B1F800228854BDF852
:102230000400A1F8000262B601200290FFE70298B4
:1022400003B0704782B072B640F6F420C2F20000CC
:10225000B0F80012ADF80410B0F80202ADF80200B8
:1022600062B6BDF80400BDF80210884208DBFFE743
:10227000BDF80400BDF80210401AADF8060009E0F0
:10228000BDF80200BDF80410401AC0F50070ADF8AA
:102290000600FFE7BDF8060002B0704780B5FFF703
:1022A000A1FE80BD80B582B001468DF807009DF883
:1022B00007000091FFF796FF02B080BD80B5ACB07B
:1022C0000A4603462A91299029982A990DF1240C4F
:1022D0004FF0800E0590604604917146DDF814C001
:1022E00003926246DDF810E00293734605F048FA67
:1022F00008900898B0F1FF3F03DCFFE708982B90A7
:1023000039E008987F2803DCFFE70898019002E095
:102310007F200190FFE701980790FFF709FFADF8D4
:102320001A00BDF81A00DDF81CE070450BD2FFE77B
:10233000BDF81A00079040F25400C2F20000016894
:1023400001310160FFE70798002805D0FFE70799F2
:1023500009A800F013F8FFE70898802808DBFFE7DA
:1023600048F29830C0F60000032100F007F8FFE7BC
:1023700008982B90FFE72B982CB080BD80B586B0D5
:102380000A460346059004910020039002920193AF
:10239000FFE70398049988420AD2FFE7059803995A
:1023A000405CFFF707FEFFE7039801300390F0E77A
:1023B000FFF774FF06B080BD83B00146029002981B
:1023C0000028009101D1FFE713E040F21800C2F2AB
:1023D000000000680190FFE740F21800C2F2000020
:1023E00000680199401A0299884202D2FFE700BFB3
:1023F000F2E703B07047000080B584B00A46034698
:1024000003908DF80B1003989DF80B100192009328
:1024100000F0A8FA002802D1FFE7FFE7FEE70398E3
:102420009DF80B1001EB810100EB8100816821F028
:102430000101816004B080BD80B584B00A460346C6
:1024400003908DF80B1003989DF80B1001920093E8
:1024500000F088FA002802D1FFE7FFE7FEE70398C3
:102460009DF80B1001EB810100EB8100816841F0C8
:102470000101816004B080BD80B584B00A46034686
:1024800003908DF80B1003989DF80B1001920093A8
:1024900000F068FA002802D1FFE7FFE7FEE70398A3
:1024A0009DF80B1001EB810100EB8100816841F088
:1024B0002001816004B080BD80B584B00A46034627
:1024C00003908DF80B1003989DF80B100192009368
:1024D00000F048FA002802D1FFE7FFE7FEE7039883
:1024E0009DF80B1001EB810100EB8100816821F068
:1024F0000101816003989DF80B1001EB810100EB55
:1025000081000021816003989DF80B2002EB82027C
:1025100000EB8200C16003989DF80B2002EB820261
:1025200000EB8200016103989DF80B2002EB820210
:1025300000EB820041619DF80B0080000F2101FA41
:1025400000F003994A681043486004B080BD000061
:102550002DE9F0478EB0DDF868C0DDF864E0189C26
:10256000179D169E1F46904689468246CDF834C078
:10257000CDF830E00B940A950996089307920690DF
:102580008DF8171006989DF817100397CDF808805E
:10259000CDF804A0CDF8009000F0E4F9002802D1B5
:1025A000FFE7FFE7FEE7079806999DF8172002EB83
:1025B000820201EB82010861099806999DF81720B3
:1025C00002EB820201EB82014861BDF82C00069902
:1025D0009DF8172002EB820201EB8201C860069889
:1025E0009DF8171001EB810100EB810080680490D9
:1025F000049820F47C50049008980A990C9A084397
:102600001043049908430490049806999DF81720F4
:1026100002EB820201EB820188609DF83400012800
:102620000CD1FFE706989DF8171001EB810100EB34
:102630008100816841F0400181600BE006989DF8BF
:10264000171001EB810100EB8100816821F040014E
:102650008160FFE79DF8350001280CD1FFE706985F
:102660009DF8171001EB810100EB8100816841F0BA
:10267000800181600BE006989DF8171001EB810145
:1026800000EB8100816821F080018160FFE79DF807
:10269000360000280CD1FFE706989DF8171001EBD3
:1026A000810100EB8100816821F0100181600BE065
:1026B00006989DF8171001EB810100EB81008168FD
:1026C00041F010018160FFE70EB0BDE8F087000027
:1026D00080B586B013468C46864605908DF813105B
:1026E000039205989DF813100293CDF804C0CDF81D
:1026F00000E000F037F9002802D1FFE7FFE7FEE72E
:10270000039805999DF8132002EB820201EB8201E8
:102710008A681043886006B080BD000080B586B02E
:1027200013468C46864605908DF813100392039845
:102730009DF813108900884005994A681043486045
:102740000293CDF804C0CDF800E006B080BD0000D3
:1027500080B58AB013468C46864608908DF81F10C7
:102760000692002005900490069802280393CDF865
:1027700008C0CDF804E0009008D0FFE700980428D6
:1027800017D0FFE70098082826D038E0089800689E
:1027900006999DF81F2093009940084004900898DE
:1027A00002EB820100EB8100806800F002000590DE
:1027B00027E00898006806999DF81F20930099402B
:1027C00008400490089802EB820100EB81008068C9
:1027D00000F00400059014E00898006806999DF840
:1027E0001F209300994008400490089802EB820152
:1027F00000EB8100806800F00800059001E0FFE731
:10280000FEE70498002808D0FFE70598002804D0C8
:10281000FFE701208DF8270003E000208DF8270056
:10282000FFE79DF827000AB080BD000080B586B0A4
:1028300013468C46864605908DF813100392059832
:102840009DF813100293CDF804C0CDF800E000F01D
:1028500089F8002802D1FFE7FFE7FEE70398059912
:102860009DF8132002EB820201EB8201486106B061
:1028700080BD000080B584B00A46034603908DF801
:102880000B1003989DF80B100192009300F06AF86A
:10289000002802D1FFE7FFE7FEE703989DF80B1041
:1028A00001EB810100EB8100816841F080018160D2
:1028B00004B080BD80B588B013468C46864607902C
:1028C0008DF81B10059207989DF81B100393CDF807
:1028D00008C0CDF804E000F045F8002802D1FFE779
:1028E000FFE7FEE707989DF81B1001EB810100EB65
:1028F000810080680490049820F44060049005985A
:10290000049908430490049807999DF81B2002EB52
:10291000820201EB8201886008B080BD80B586B07C
:1029200013468C46864605908DF813100392059841
:102930009DF813100293CDF804C0CDF800E000F02C
:1029400011F8002802D1FFE7FFE7FEE70398059999
:102950009DF8132002EB820201EB8201086106B0B0
:1029600080BD000084B00A46034603908DF80B102A
:1029700001208DF80A00039840F20041C4F20201E0
:102980008842019200930AD1FFE79DF80B000528C9
:1029900004DBFFE700208DF80A00FFE7FFE79DF862
:1029A0000A0004B07047000080B584B00A460346B0
:1029B00003908DF80B1003989DF80B100192009373
:1029C000FFF7D0FF002802D1FFE7FFE7FEE70398FB
:1029D0009DF80B1001EB810100EB8100816821F073
:1029E0004001816004B080BD80B588B013468C463C
:1029F000864607908DF81B10059207989DF81B10CE
:102A00000393CDF808C0CDF804E0FFF7ABFF002832
:102A100002D1FFE7FFE7FEE707989DF81B1001EBE7
:102A2000810100EB810080680490049820F44070DC
:102A300004900598049908430490049807999DF818
:102A40001B2002EB820201EB8201886008B080BD8E
:102A500080B588B013468C46864607908DF81B10CB
:102A6000059207989DF81B100393CDF808C0CDF888
:102A700004E0FFF777FF002802D1FFE7FFE7FEE75A
:102A800007989DF81B1001EB810100EB8100806825
:102A90000490049820F44050049005980499084349
:102AA0000490049807999DF81B2002EB820201EB29
:102AB0008201886008B080BD80B586B013468C4620
:102AC000864605908DF81310039205989DF8131013
:102AD0000293CDF804C0CDF800E0FFF743FF0028D3
:102AE00002D1FFE7FFE7FEE7BDF80C0005999DF86E
:102AF000132002EB820201EB8201C86006B080BDA8
:102B000080B588B0B0EE401A8DED060A9DED060A3C
:102B1000DFED280A9FED282A8DED011AB0EE421A4A
:102B2000FFF752F88DED050A42F62C4EC4F2010E65
:102B3000DEF800E0CDF810E0DDF810E0BEF1000FA7
:102B40000CD1FFE79DED050A0020B5EEC00AF1EEBD
:102B500010FAC8BF0120ADF81E0027E0049801302C
:102B600003909DED050A039801EE100AB8EE411A94
:102B7000B6EE002A00EE012ABCEEC20A10EE101AD0
:102B800002910299814204D3FFE703980138029031
:102B9000FFE70298B0F5803F04D3FFE74FF6FF70E0
:102BA0000290FFE70298ADF81E00FFE7BDF81E0097
:102BB00008B080BD00000000A4707D3F80B584B0E7
:102BC000B0EE401A8DED020A9DED020AB5EEC00A84
:102BD000F1EE10FA8DED011A03DCFFE700200390FF
:102BE00020E09DED020AB7EE001AB4EEC10AF1EE44
:102BF00010FA04DBFFE74FF07E50039012E09DEDEA
:102C0000020A9FED0A1A20EE010A04F0D7FDB7EE82
:102C1000001A31EE400AB6EE001A20EE010A8DEDE0
:102C2000030AFFE79DED030A04B080BDC3F54840E9
:102C300080B586B00A4603460490039103980028A5
:102C40000292019304D1FFE701208DF8170013E0F1
:102C50000498002804D1FFE700208DF817000BE04E
:102C6000049800F035F8DDF80CE00021704528BF2D
:102C700001218DF81710FFE79DF8170006B080BD01
:102C800080B586B00A460346049003910398002855
:102C90000292019304D1FFE701208DF8170013E0A1
:102CA0000498002804D1FFE700208DF817000BE0FE
:102CB000049800F025F8DDF80CE00021704528BFED
:102CC00001218DF81710FFE79DF8170006B080BDB1
:102CD00083B00146029002980028019103D1FFE7DA
:102CE0000020009008E040F21800C2F200000068E6
:102CF0000299401A0090FFE7009803B07047000067
:102D000083B00146029002980028019103D1FFE7A9
:102D10000020009008E040F21800C2F200000068B5
:102D20000299401A0090FFE7009803B07047000036
:102D300088B0B0EE412AB0EE603AB0EE404A8DED78
:102D4000070ACDED060A8DED051A9DED070A9DEDEA
:102D5000061AB4EEC10AF1EE10FA8DED042A8DEDDB
:102D6000033A8DED024A05DAFFE79DED060A8DED87
:102D7000010A18E09DED070A9DED051AB4EEC10A9F
:102D8000F1EE10FA05DDFFE79DED050A8DED000A75
:102D900004E09DED070A8DED000AFFE79DED000AB6
:102DA0008DED010AFFE79DED010A08B070470000B4
:102DB00088B0B0EE412AB0EE603AB0EE404A8DEDF8
:102DC000070ACDED060A8DED051A9DED070A9DED6A
:102DD000061AB4EEC10AF1EE10FA8DED042A8DED5B
:102DE000033A8DED024A05DAFFE79DED060A8DED07
:102DF000010A18E09DED070A9DED051AB4EEC10A1F
:102E0000F1EE10FA05DDFFE79DED050A8DED000AF4
:102E100004E09DED070A8DED000AFFE79DED000A35
:102E20008DED010AFFE79DED010A08B07047000033
:102E300080B582B0B0EE401A8DED010A9DED010A19
:102E40008DED001A04F0B2FC02B080BD83B00146E3
:102E5000029042F20000C4F2020002680192019A5C
:102E600022F007020192019A029B1A43026000912C
:102E700003B0704784B00A4603460390029102985B
:102E8000039948610192009304B0704784B00A46E8
:102E900003460390029102980399086101920093FE
:102EA00004B07047B0B58BB09C4696460C460546BC
:102EB0000A900991089207930020059004900998C0
:102EC00000F00F01059110F0100FCDF80CC0CDF8F7
:102ED00008E00194009514D0FFE7089804280AD16F
:102EE000FFE7059840F00300059007980A99CA6B20
:102EF0001043C86304E00898059908430590FFE76C
:102F0000FFE70020ADF81A00FFE7BDF81A00072818
:102F100037D8FFE7BDF81A00012101FA00F0079940
:102F2000084227D0FFE70A9800680490BDF81A000D
:102F300080000F218140049A22EA01010491059941
:102F400001FA00F00499084304900998282804D154
:102F5000FFE707980A99486108E00998482804D1D2
:102F6000FFE707980A990861FFE7FFE704980A99C5
:102F70000860FFE7FFE7BDF81A000130ADF81A005E
:102F8000C3E70820ADF81A00FFE7BDF81A000F28C4
:102F90003AD8FFE7BDF81A00012101FA00F00799BD
:102FA00008422AD0FFE70A9840680490BDF81A004A
:102FB0006FF01F0101EB80000F218140049A22EA8B
:102FC00001010491059901FA00F004990843049065
:102FD0000998282804D1FFE707980A99486108E072
:102FE0000998482804D1FFE707980A990861FFE784
:102FF000FFE704980A994860FFE7FFE7BDF81A0069
:103000000130ADF81A00C0E70BB0B0BD85B00A467C
:103010000346039002910398806802990842019246
:10302000009304D0FFE701208DF8130003E0002097
:103030008DF81300FFE79DF8130005B070470000FE
:1030400083B00A4603468DF80B008DF80A109DF8F0
:103050000B009DF80A1001F0030141EA8000C0B2A4
:103060000192009303B0704780B596B001F0B0F9BB
:1030700001F038FF40F2000EC4F2382ECDF80CE01B
:103080000020049048F20001C4F2ED4105910021B6
:10309000C4F29011069107900021C4F240010891FA
:1030A0004CF6CD41C3F64C5109910A900B904DF26C
:1030B0000A71C3F6A3410C9141F26F21C3F683213B
:1030C0000D910E9047F60041C4F292710F9145F2B6
:1030D0000001C4F64301109145F20001C4F2C3712E
:1030E0001191129148F20002C4F23B5213921490D3
:1030F000159040F26402C2F2000203AB4FF04C0C98
:1031000002901046019119466246CDF800E0FDF7A5
:103110005CF840F2B000C2F20000029980F8301072
:10312000C162012280F831204163009B8363C16347
:103130000164DDF804C0C0F844C080F848200846A7
:1031400001F0DEFB16B080BD80B584B040F2B00067
:10315000C2F20000007804280CD0FFE740F67C5053
:10316000C2F200000021017040F67D50C2F2000062
:10317000017097E040F20E00C2F2000000889FED5F
:103180004A0ADFED4A0AFEF7D5FD8DED010A40F649
:103190007D50C2F20000007800280FD1FFE79DEDBE
:1031A000010A40F22000C2F2000080ED000A40F661
:1031B0007D50C2F2000001210170FFE740F22000C3
:1031C000C2F2000090ED000A9FED391AB4EEC10A78
:1031D000F1EE10FA07DAFFE7019840F22001C2F29F
:1031E00000010860FFE79DED010A40F22000C2F2F5
:1031F000000090ED001A30EE410A9FED2E2A00EEFD
:10320000021A80ED001A006840F26401C2F2000167
:10321000486091ED000A91ED011A30EE410A8DED02
:10322000030A40F67C50C2F2000001780131CAB2B4
:103230000170052A13D3FFE740F67C50C2F200006C
:10324000002101709DED030A009100F0F1FB8DED6E
:10325000020A9DED020A009801F008F8FFE740F22B
:103260001C00C2F20000017801310170C8B20528CB
:1032700018DBFFE740F21C00C2F2000000210170E1
:1032800040F20E00C2F2000040F26401C2F20001FE
:10329000DDED030A91ED010A91ED0E1A008801F0AF
:1032A00031FEFFE704B080BD0038C74700609F458E
:1032B0006F12833A0AD7A33D80B58CB001F000FFAE
:1032C00002F08EFA8DF82F009DF82F0000F001001B
:1032D00000F09EFD8DF82E0040F2B000C2F200001A
:1032E0000078002800F00583FFE740F2B000C2F24A
:1032F00000000078082800F0FC82FFE700F044FDA1
:10330000002803D0FFE700F039FDF2E240F2B00000
:10331000C2F20000007801460828059100F2E5821B
:103320000599DFE811F0090019003C007C00E3007A
:103330003E01CC02AB02E1029DF82E00C00700283E
:1033400009D0FFE700F09CFD002804D0FFE7012032
:1033500001F0D6FAFFE7C9E29DF82F00C007002868
:1033600004D1FFE7062001F0CBFABFE200F088FDB0
:10337000002804D1FFE7062001F0C2FAB6E240F2CD
:10338000B000C2F2000040686421FFF779FC002819
:1033900001D1FFE7AAE2022001F0B2FAA6E201F0B1
:1033A00045F99DF82FE04FEACE7EBEF1000F05D023
:1033B000FFE700F065FD002804D1FFE7062001F0DB
:1033C0009FFA93E240F2B000C2F2000080694FF42D
:1033D000AF71FFF755FC002820D0FFE740F2B000A6
:1033E000C2F2000090ED030A9FEDD71A30EE010AF9
:1033F0008DED0A0A9DED0A0AFFF71AFD8DED090A07
:1034000001F086F800F0FAFF40F26400C2F200001A
:1034100080ED0E0A032001F073FA67E266E29DF880
:103420002F00C007002805D0FFE700F029FD002885
:1034300004D1FFE7062001F063FA57E240F2B00042
:10344000C2F2000090ED030A9FEDBF1A30EE010AB0
:103450008DED080A9DED080AFFF7EAFCB1EE041AAB
:10346000B4EEC10AF1EE10FA11DCFFE740F2B00051
:10347000C2F20000806A012808D8FFE740F2B000DD
:10348000C2F20000816A01318162FFE706E040F28A
:10349000B000C2F2000000218162FFE740F2B000FC
:1034A000C2F20000406A1421FFF7EAFB00280CD0AA
:1034B000FFE740F2B000C2F20000806A022804D3A5
:1034C000FFE7042001F01CFA10E240F2B000C2F263
:1034D0000000406A4FF4C871FFF7D2FB002804D007
:1034E000FFE7062001F00CFA00E2FFE19DF82F0053
:1034F000C00700280ED0FFE740F2B000C2F2000083
:1035000090ED020A9FED911AB4EEC10AF1EE10FAA5
:1035100004DAFFE7062001F0F3F9E7E140F2B0003A
:10352000C2F2000090ED040AB7EE081AB4EEC10A28
:10353000F1EE10FA2DDAFFE740F2B000C2F200001F
:10354000C06B00280BD1FFE740F21800C2F2000068
:10355000006840F2B001C2F20001C86318E040F216
:10356000B000C2F20000C06B4FF47A71FFF788FB25
:1035700000280CD0FFE740F2B000C2F200000021AA
:10358000C16301F04FFB052001F0BAF9AEE1FFE79E
:1035900006E040F2B000C2F200000021C163FFE784
:1035A000A4E140F2B000C2F20000C1680791816B53
:1035B000069190F83100002829D1FFE740F2B000D1
:1035C000C2F20000406B0321FFF75AFB00281DD018
:1035D000FFE740F2B000C2F2000090F8311080F82E
:1035E0003210012180F8311040F21802C2F20002BC
:1035F00012684263049101F059FB002000F034FD91
:103600009FEDBE0A049800F031FEFFE7D6E040F2DD
:10361000B000C2F2000090F83100012855D1FFE758
:103620009DED070A9DED061ABFEE002A31EE021A43
:10363000B4EEC10AF1EE10FA23DAFFE740F2B0006F
:10364000C2F20000406B0421FFF71AFB002817D0DC
:10365000FFE740F2B000C2F20000022180F8311012
:1036600040F21801C2F20001096841639FEDA30A0C
:103670000120039000F0FAFD039800F0F5FCFFE74D
:1036800022E040F2B000C2F20000406B3221FFF7AE
:10369000F7FA002817D0FFE740F2B000C2F20000AE
:1036A000022180F8311040F21801C2F200010968CD
:1036B00041639FED920A0120029000F0D7FD02982D
:1036C00000F0D2FCFFE7FFE777E040F2B000C2F283
:1036D000000090F8310003281DD1FFE740F2B00050
:1036E000C2F20000406B0121FFF7CAFA002811D096
:1036F000FFE740F2B000C2F20000012180F8311073
:1037000040F21801C2F2000109684163002000F094
:10371000ABFCFFE750E09DED070A9DED061AB7EE02
:10372000002A31EE021AB4EEC10AF1EE10FA23DDDE
:10373000FFE740F2B000C2F20000406B0221FFF749
:103740009FFA002817D003E0000038C20080AC4385
:1037500040F2B000C2F20000032180F8311040F2C4
:103760001801C2F20001096841639FED630A01205C
:1037700000F07CFDFFE71EE040F2B000C2F2000066
:10378000406B1421FFF77CFA002813D0FFE740F2CA
:10379000B000C2F20000032180F8311040F218019D
:1037A000C2F20001096841639FED530A012000F055
:1037B0005DFDFFE7FFE7FFE7FFE7FFE740F2B0004F
:1037C000C2F2000090ED040AB0EE041AB4EEC10A91
:1037D000F1EE10FA3BDDFFE740F2B000C2F200006C
:1037E000006C00280BD1FFE740F21800C2F2000085
:1037F000006840F2B001C2F20001086426E040F225
:10380000B000C2F20000006C3221FFF739FA002844
:103810001BD0FFE740F2B000C2F2000000210164BB
:1038200001F022FA012000F01FFCDDED070A40F252
:103830006400C2F2000090ED0E1A9FED310A00F014
:1038400061F8042001F05CF8FFE7FFE706E040F2D2
:10385000B000C2F2000000210164FFE79DF82F00D4
:10386000C007002805D0FFE700F08EFA002804D03A
:10387000FFE7062001F044F8FFE737E001F030F8F9
:1038800000F004FF002819D0FFE7002000F0ECFB57
:1038900000F018FF40F2B000C2F20000C0694FF41F
:1038A0002F71FFF7EDF9002807D0FFE7002000F0A7
:1038B00009FA012001F024F8FFE7FFE716E001F024
:1038C0000FF800F0E3FE00280DD0FFE70020019084
:1038D00000F0CAFB019800F0F5F900F0F3FE019842
:1038E00001F00EF8FFE701E000E0FFE701F0FCF96E
:1038F000FFE70CB080BD00BF0050434800C82F4810
:103900000000384280B58EB0B0EE412AB0EE603A89
:10391000B0EE404A8DED0D0ACDED0C0A8DED0B1A7F
:1039200040F26400C2F2000090ED020A90ED0D1A20
:103930008DED0A0A016B09918DED081AC06B079095
:103940009DED070A9DED091AB4EEC10AF1EE10FAD9
:103950008DED032A8DED023A8DED014A0ADBFFE77A
:103960009DED070A9DED081AB4EEC10AF1EE10FABA
:103970000BDDFFE79DED0B0ADDED090A9DED081A51
:10398000FFF716FA8DED070AFFE79DED0D0A9DED95
:103990000C1A30EE410A8DED060A9DED070A9DEDE9
:1039A0000B1A30EE410A9DED0A1A9DED062A01EE32
:1039B000420A8DED050A9DED080A9DED091A30EECB
:1039C000410A8DED040A9DED050A9DED041AB4EE41
:1039D000C10AF1EE10FA03DDFFE70498059013E049
:1039E0009DED050A9DED041AB1EE411AB4EEC10A2F
:1039F000F1EE10FA07DAFFE79DED040AB1EE400A96
:103A00008DED050AFFE7FFE7059840F26401C2F279
:103A1000000108619DED0B0ADDED090A9DED081A14
:103A20000091FFF7C5F9009880ED0E0A0EB080BD39
:103A300080B590B0B0EE401A8DED0F0A40F26400F0
:103A4000C2F2000081680E9190ED030A8DED0D0A1F
:103A5000016B0C9190ED0D0A8DED0B0A006C0A9034
:103A60009DED0C0AB5EEC00AF1EE10FA8DED021ACA
:103A70000ADDFFE79DED0C0A9DED0B1AB4EEC10ABD
:103A8000F1EE10FA0BDBFFE747F60040C4F292704C
:103A90000C9047F60040C4F612000B90FFE79DED36
:103AA0000A0AB5EEC00AF1EE10FA05DCFFE70020C5
:103AB000C4F27A400A90FFE79DED0E0AB5EEC00A07
:103AC000F1EE10FA05DCFFE70020C4F220100E90A2
:103AD000FFE79DED0D0AB5EEC00AF1EE10FA03DA2C
:103AE000FFE700200D90FFE740F26400C2F2000003
:103AF000C06B09909DED090A9DED0C1AB4EEC10A48
:103B0000F1EE10FA0ADBFFE79DED090A9DED0B1AB5
:103B1000B4EEC10AF1EE10FA0FDDFFE740F26400E7
:103B2000C2F2000090ED0E0ADDED0C0A9DED0B1ABD
:103B3000FFF73EF98DED090AFFE740F26400C2F29B
:103B40000000806B08909DED080A9DED0C1AB4EE04
:103B5000C10AF1EE10FA0ADBFFE79DED080A9DEDC0
:103B60000B1AB4EEC10AF1EE10FA03DDFFE7099873
:103B70000890FFE740F26400C2F2000090ED040AF2
:103B80009DED0D1A9DED0F2A01EE020A8DED070A3B
:103B90009DED0E0A9DED071A00EE021A8DED061A34
:103BA0009DED090A9DED061A30EE410A8DED050ADC
:103BB0009DED050ADDED0C0A9DED0B1AFFF7F8F8F7
:103BC0008DED040A9DED050A9DED041A30EE410AC3
:103BD000FFF72EF99FED3A1AB4EEC10AF1EE10FA92
:103BE00013DDFFE79DED090A9DED041A30EE410A51
:103BF0009DED0E1A9DED0F2A01EE420A40F264007F
:103C0000C2F2000080ED040A06E0079840F2640169
:103C1000C2F200010861FFE79DED040A9DED081A5C
:103C200030EE410A8DED030A9DED030A9DED0A1A5F
:103C3000B4EEC10AF1EE10FA0DDDFFE79DED080AC2
:103C40009DED0A1A30EE010A40F26400C2F2000053
:103C500080ED0E0A20E09DED030A9DED0A1AB1EEFB
:103C6000411AB4EEC10AF1EE10FA0DDAFFE79DED4C
:103C7000080A9DED0A1A30EE410A40F26400C2F2D1
:103C8000000080ED0E0A06E0049840F26401C2F2E2
:103C900000018863FFE7FFE740F26400C2F2000022
:103CA00090ED0E0ADDED0C0A9DED0B1A0190FFF769
:103CB0007FF8019880ED0E0A90ED0E0A10B080BDDD
:103CC000BD37863580B584B001468DF80F0040F2CF
:103CD0002400C2F200000078C007002802911DD124
:103CE000FFE740F2046002F025FD41F20000C4F25B
:103CF0000100102103224FF4006E01907346CDF8AD
:103D000000E0FFF7CFF801980099FFF7B3F840F211
:103D10002400C2F2000001210170FFE740F22500FB
:103D2000C2F20000007800F001009DF80F1001F0D1
:103D30000101884201D1FFE71DE09DF80F0000F06E
:103D4000010040F22501C2F200010870002809D0EC
:103D5000FFE741F20000C4F201004FF40061FFF7F9
:103D600095F808E041F20000C4F201004FF4006150
:103D7000FFF780F8FFE704B080BD000080B50820A1
:103D800000F0BEFD80BD000081B040F2B000C2F284
:103D9000000090ED030A9FED1C1AB4EEC10AF1EE8B
:103DA00010FA04DDFFE701208DF8030027E040F260
:103DB000B000C2F2000090ED040AB2EE0E1AB4EEAA
:103DC000C10AF1EE10FA04DDFFE701208DF80300CF
:103DD00015E040F2B000C2F2000090ED020A9FED43
:103DE0000B1AB4EEC10AF1EE10FA04DAFFE7012073
:103DF0008DF8030003E000208DF80300FFE79DF835
:103E0000030001B0704700BF000068420080AC436F
:103E100080B582B001468DF806009DF80600C00707
:103E20000028009109D1FFE740F2B000C2F2000083
:103E3000002141618DF807101DE040F2B000C2F290
:103E40000000406900280BD1FFE740F21800C2F2E1
:103E50000000006840F2B001C2F200014861FFE7D3
:103E600040F2B000C2F2000040693221FEF708FFC4
:103E70008DF80700FFE79DF8070002B080BD000045
:103E800040F2B000C2F2000090ED020A9FED041A69
:103E90000020B4EEC10AF1EE10FAA8BF012070476D
:103EA0000000B44380B588B001468DF81F0042F68B
:103EB0000040C4F2010000220690059111460492D0
:103EC00003F094FA06980499049A03F05BF89DF8BD
:103ED0001F00202110F0010F18BF10210698049A2E
:103EE00003911146039A02F0FDFF4FF0010006997D
:103EF00002900846029903F071F90698029903F0BE
:103F00005BF9FFE742F60040C4F20100012103F033
:103F100075F9002801D1FFE7F4E742F60040C4F24A
:103F2000010001210190009103F058F942F624406C
:103F3000C4F20100002101600198009903F056FAD3
:103F400008B080BD80B594B0014613901398026804
:103F50004368806840F2440CC2F2000CCCF80020A8
:103F6000CCF80430CCF808000491CDF80CC001F076
:103F7000ABFF40F20B6002F0DDFB02F0F7FD0E90AC
:103F80000E9803990A68B0FBF2F0013840F6A422BB
:103F9000C2F2000210600020ADF83C00ADF83E0017
:103FA000ADF8400012681192ADF848008DF84A0053
:103FB00042F60042C4F201020FA90290104601929B
:103FC00003F036F901200A900420ADF82C00029885
:103FD000ADF82E00ADF83000ADF83200ADF8340089
:103FE0000AAA0198029902F00BFE60200199009044
:103FF00008460299009A02F075FF01980299029A08
:1040000002F0C0FF08220198029902F0E7FF4FF486
:104010000060ADF814004FF4806006900298ADF88F
:104020002200039948680E99FDF7C2FCADF81C0008
:104030004FF48050ADF824000298ADF81E00ADF8A2
:10404000200005A9019802F0B7FD0198009903F03E
:10405000B7F9019802F0A4FD019803F0A1F80298C5
:1040600000F002F814B080BD80B584B001468DF830
:104070000F009DF80F00C0070028029106D0FFE74F
:104080000120FFF70FFF00F013F80EE042F60040AA
:10409000C4F2010000210190009103F0A7F90198FA
:1040A0000099009A02F06EFFFFE704B080BD0000A7
:1040B00080B586B042F60040C4F2010000210490B1
:1040C000039103F093F960220498039902F00AFF28
:1040D00040F24400C2F2000090ED020AFEF710FD2B
:1040E000ADF81600BDF816200498039902F04AFFB7
:1040F0000120049902900846029903F06FF8049891
:10410000029903F059F8FFE742F60040C4F20100BB
:10411000012103F073F8002801D1FFE7F4E742F62C
:104120000040C4F2010001210190009103F056F813
:1041300042F62440C4F20100002101600198009978
:1041400003F054F906B080BD80B586B004A8B0EE87
:10415000401A80ED010A90ED010ADFED120A9FED91
:10416000122A8DED021AB0EE421A0190FDF72CFDD5
:10417000019880ED000A90ED000A40F2440EC2F270
:10418000000E8EED020AFEF7BBFCADF80E00BDF886
:104190000E2042F60040C4F20100002102F0F2FEBF
:1041A00006B080BD00000000A4707D3F80B588B0DF
:1041B0000A46034607908DF81B10079800280292C4
:1041C000019301D1FFE74EE002F0D0FC0590059885
:1041D000002801D1FFE746E005980799B0FBF1F010
:1041E00004900498012803D8FFE702200490FFE719
:1041F0000498B0F1011F04D3FFE74FF4803004901E
:10420000FFE70498411E40F6A422C2F200021160AA
:104210000599B1FBF0F040F24401C2F200010860E0
:10422000106842F62C42C4F20102106091ED020ABD
:10423000FEF766FCADF80E00BDF80E2042F6004019
:10424000C4F20100002102F09DFE9DF81B00C00792
:10425000002808D0FFE742F60040C4F20100012127
:1042600002F0AAFFFFE708B080BD000080B586B06D
:104270000146B0EE401A8DED050A8DF813009DED54
:10428000050A40F26400C2F20000D0ED0C0A90ED85
:104290000D2A8DED021AB0EE421A01910090FEF740
:1042A00087FD8DED030A9DED030A009880ED0E0A4F
:1042B000BCEEC00A10EE101A9DF813E00EF0010ECD
:1042C00008467146FFF772FF06B080BD80B582B028
:1042D00040F2FC00C2F20000002141708170416098
:1042E000DFED060A9FED060A8DED010A9DED011A2C
:1042F000FEF71EFD02F0E2FA02B080BD007C92479C
:104300000050434880B588B0B0EE401A8DED070AE2
:1043100040F2FC00C2F200004FF49671C1609FEDC4
:104320002A0A9FED2A2A8DED040AB0EE420ADDED3D
:10433000040A8DED031AB0EE421A8DED022A0190A7
:10434000FEF7F6FC8DED060A9DED070ADDED040A89
:104350009DED021AFEF7ECFC8DED050A0020019997
:10436000887048609DED060A81ED040A0598486151
:10437000C86800280AD0FFE79DED060A9DED051AE2
:10438000B4EE410AF1EE10FA0BD1FFE740F2FC0067
:10439000C2F20000002141709DED050A02F08EFA84
:1043A00010E040F2FC00C2F200000121417040F236
:1043B0001801C2F20001096881609DED060A02F051
:1043C0007DFAFFE708B080BD007C9247005043486B
:1043D00080B540F2FC00C2F200000078C00700285F
:1043E0000AD1FFE700F042F840F2FC0EC2F2000EE4
:1043F00001208EF80000FFE780BD000080B582B08C
:1044000040F2FC00C2F200000078C00700280BD187
:10441000FFE79FED0B0ADFED0B0A9FED0B1AFEF78E
:1044200087FC8DED010A06E040F2FC00C2F20000BC
:1044300080690190FFE79DED010A02B080BD00BFD9
:104440000050C347007C92470050434880B540F27B
:10445000FC00C2F200000078C007002801D1FFE78D
:1044600002E0FFF733FFFFE780BD000080B584B0B6
:1044700040F2FC00C2F200000021417081704160F6
:1044800081604FF49671C1609FED110A9FED111A82
:104490008DED030AB0EE410ADDED030A8DED021A3F
:1044A0000190FEF745FC019880ED040A9FED0A0A91
:1044B000DDED030A9DED021AFEF73AFC019880ED4E
:1044C000050A90ED040A02F0F9F904B080BD00BFBE
:1044D000007C9247005043480050C34780B582B0EB
:1044E000B0EE401A8DED010A40F2FC00C2F200006D
:1044F0000078C00700288DED001A03D1FFE7FFF711
:1045000067FFFFE79DED010AFFF7FCFE02B080BDEB
:1045100040F2FC00C2F200000078C007002801D180
:10452000FFE708E040F2FC00C2F200000021417009
:1045300081704160FFE7704780B586B040F2FC00B3
:10454000C2F200004078C007002801D1FFE76AE00E
:1045500040F2FC00C2F200008078C007002809D0B9
:10456000FFE740F2FC00C2F2000090ED060A02F004
:10457000A5F958E040F21800C2F20000006840F2CD
:10458000FC01C2F200018A68C968801A059005988A
:1045900088420BD3FFE740F2FC00C2F2000000218A
:1045A000417090ED050A02F089F93CE040F2FC0010
:1045B000C2F20000C068002811D0FFE79DED050A97
:1045C000B8EE400A40F2FC00C2F2000090ED031A7F
:1045D000B8EE411A80EE010A8DED010A04E0B7EE53
:1045E000000A8DED010AFFE79DED010A8DED040A39
:1045F0009DED040AFEF7E2FA8DED030A40F2FC0E8F
:10460000C2F2000E9EED040A9EED051A31EE401A2C
:104610009DED032A01EE020A8DED020A9DED020ACC
:1046200002F04CF9FFE706B080BD000080B540F213
:10463000FC00C2F200000078C007002803D1FFE7A9
:10464000FFF7C6FEFFE7FFF777FF80BD40F21810C7
:10465000C2F200000078C007002816D1FFE740F240
:104660001810C2F200000021417081704160816029
:10467000C822C26045F20002C4F6430202614261F0
:104680008261017701210170FFE7704781B040F23C
:104690001810C2F200000078C007002804D1FFE71C
:1046A00001208DF8030009E040F21810C2F200006A
:1046B000007F00F001008DF80300FFE79DF8030084
:1046C00001B0704740F21810C2F2000000214170A2
:1046D000817041608160017745F20001C4F64301B9
:1046E0008161704780B588B0B0EE401A8DED070A41
:1046F00040F21810C2F200000078C00700288DEDCB
:10470000041A03D1FFE7FFF7A1FFFFE740F21810FB
:10471000C2F200004078C007002801D0FFE75DE04A
:1047200040F21810C2F20000C821C1609DED070AD6
:104730009FED2B1A9FED2B2AF0EE410A8DED031A07
:10474000B0EE421A02908DED012AFEF7F1FA8DEDDE
:10475000060A9DED010ADDED030A9DED011AFEF743
:10476000E7FA8DED050A00200299887048609DEDFA
:10477000060A81ED040A9DED050A81ED050A087718
:10478000C86800280AD0FFE79DED060A9DED051ACE
:10479000B4EEC10AF1EE10FA0FDBFFE740F2181099
:1047A000C2F2000000214170012101770599816169
:1047B0009DED050A02F082F810E040F21810C2F2F6
:1047C00000000121417040F21801C2F200010968A5
:1047D00081609DED060A02F071F8FFE708B080BD28
:1047E000007C92470050434880B586B040F21810D4
:1047F000C2F200004078C007002801D1FFE76CE05A
:1048000040F21810C2F200008078C007002809D0DA
:10481000FFE740F21810C2F2000090ED060A02F025
:104820004DF85AE040F21800C2F20000006840F271
:104830001811C2F200018A68C968801A05900598AB
:1048400088420DD3FFE740F21810C2F200000021A9
:1048500041700121017790ED050A02F02FF83CE04C
:1048600040F21810C2F20000C068002811D0FFE723
:104870009DED050AB8EE400A40F21810C2F20000A1
:1048800090ED031AB8EE411A80EE010A8DED010A8F
:1048900004E0B7EE000A8DED010AFFE79DED010A85
:1048A0008DED040A9DED040AFEF788F98DED030AEB
:1048B00040F2181EC2F2000E9EED040A9EED051A8B
:1048C00031EE401A9DED032A01EE020A8DED020A37
:1048D0009DED020A01F0F2FFFFE706B080BD000087
:1048E00080B540F21810C2F200000078C00700281E
:1048F00003D1FFE7FFF7AAFEFFE7FFF775FF80BDD3
:1049000080B58EB001468DF8370040F2B000C2F29B
:10491000000000789DF8372090420C9101D1FFE70C
:104920004EE19DF8370040F2B001C2F2000108707C
:1049300040F21802C2F2000212684A6001460828DA
:104940000B9100F224810B99DFE811F009003D0082
:104950004E0064008400E000B400CA000901FFF7C3
:1049600075FDFFF7AFFE4FF0000E7046CDF828E062
:10497000FFF77AFB0A98FFF7A5F940F26400C2F24C
:10498000000090ED0D0A01200990FFF76FFC40F246
:10499000B000C2F20000DDF828E0C0F818E0C0F86E
:1049A0001CE0C0F820E0C0F814E0C0F824E0C0F833
:1049B00028E0C0F82CE0099980F83110C0F834E004
:1049C00080F84810FCE001200890FFF77BF90020F8
:1049D000FFF74AFB40F26400C2F2000090ED0D0ABE
:1049E0000898FFF743FCEBE040F21800C2F2000029
:1049F000006840F2B001C2F2000188610120079016
:104A0000FFF760F90798FFF72FFB9FED700AFFF79C
:104A100065FDD5E001200690FFF754F940F218003B
:104A2000C2F20000006840F2B00EC2F2000ECEF8F2
:104A300024000020CEF82800FFF7E0FC40F26400DC
:104A4000C2F2000080ED0E0A90ED0E0A0698FFF704
:104A50000DFCB5E00120FFF735F940F21800C2F275
:104A60000000006840F2B00EC2F2000ECEF8200046
:104A700040F26400C2F20000D0ED0C0A90ED0D1A75
:104A800090ED0E0ACDF814E00490FEF791F9049829
:104A900080ED0F0A4FF0000E0599C1F83CE0C1F817
:104AA00040E0D1ED030A90ED0E1A9FED470AFEF7A4
:104AB00029FF85E040F21800C2F20000006840F2D1
:104AC000B001C2F20001C8610120FFF7FBF840F21B
:104AD0006400C2F2000090ED0E0AFFF703FE6FE0E3
:104AE00040F21800C2F20000006840F2B001C2F2C9
:104AF0000001C8610120FFF7E5F840F26400C2F24E
:104B0000000090ED0E0AFFF7EDFD59E00120039043
:104B1000FFF7D8F840F2B000C2F2000040F2000EF9
:104B2000C4F2382EC0F838E04FF0000E80F831E0C3
:104B300080F848E0DDF80CE002907046FFF794FA48
:104B40009FED200A0398FFF791FB40F21800C2F294
:104B500000000068DDF808E0CEF8340030E0FFF730
:104B600075FCFFF7AFFD4FF0000E7046CDF804E086
:104B7000FFF77AFA0198FFF7A5F840F26400C2F255
:104B8000000090ED0D0A0120FFF770FB18E0FFF721
:104B90005DFC4FF0000E7046CDF800E000F094FD93
:104BA0000098FFF761FA0098FFF78CF840F2640074
:104BB000C2F2000090ED0D0A0120FFF757FBFFE75E
:104BC0000EB080BD00504348000038420050C3473B
:104BD00082B00146ADF80600BDF80600002800913D
:104BE00004D1FFE7C820ADF80600FFE7BDF80600D6
:104BF000652804D3FFE76420ADF80600FFE740F620
:104C00009820C2F2000001210170002141708170E2
:104C1000C1708180C180BDF806200281418102B04F
:104C20007047000080B584B040F2B000C2F20000CE
:104C3000016903900846FBF79AFC41EC100B0398BE
:104C40000178EE46CEF8001053EC102B48F2F0300D
:104C5000C0F60000FDF7F6F8322102900846FFF793
:104C6000B7FF04B080BD000080B584B040F2B00052
:104C7000C2F20000016903900846FBF778FC41ECA2
:104C8000100B03980178EE46CEF8001053EC102B71
:104C900048F21440C0F60000FDF7D4F81E2102903F
:104CA0000846FFF795FF04B080BD000080B582B0D4
:104CB00040F2B000C2F2000090F8312090F83210BB
:104CC00040F21803C2F200031B68406B1B1A48F243
:104CD0008740C0F60000FDF7B5F8142101900846A2
:104CE000FFF776FF02B080BD2DE9F0418EB040F2B3
:104CF0001800C2F20000006840F22C01C2F200016C
:104D00000968401A092801D8FFE7E7E040F21800D7
:104D1000C2F20000006840F22C01C2F200010860FB
:104D200040F69820C2F200008078002831D0FFE7DA
:104D300040F69820C2F20000C078002829D1FFE791
:104D4000FDF7F2F9652823DBFFE740F69820C2F271
:104D500000000121C1700021418140F21801C2F21E
:104D60000001096840F22802C2F200021160C18805
:104D700048F2A940C0F60000FDF764F848F2374158
:104D8000C0F600010B900846FDF75CF80A90FFE7BB
:104D9000FFE740F69820C2F20000C078002801D159
:104DA000FFE79BE0FDF7C0F948F21F5EC5F2EB1E7E
:104DB00050FB0EF04FEA101E0EEBD070ADF836002F
:104DC000BDF836000B2804DBFFE70A20ADF83600FB
:104DD000FFE7BDF83600002801DCFFE77EE0002099
:104DE000ADF83400FFE740F69820C2F20000418998
:104DF000C0880022814209920ADAFFE7BDF8340038
:104E0000BDF8361000228842B8BF01220992FFE7A0
:104E10000998C007002841D0FFE740F69820C2F269
:104E200000004189ADF83210BDF8321001EB4102AB
:104E300040F23813C2F2000303EBC20C33F8322005
:104E4000DCF80430DCF808E0DCF80C40BCF9105069
:104E50009CF812609CF81370BCF814C0E846C8F8BF
:104E600014C0C8F81070C8F80C60C8F80850C8F82A
:104E70000440C8F800E048F2D04CC0F6000C08909E
:104E80006046FCF7DFFF08994A8901324A81BDF884
:104E900034200132ADF834200790A4E740F6982082
:104EA000C2F200004189C088814217DBFFE748F267
:104EB000DF30C0F60000FCF7C5FF40F6982EC2F2C6
:104EC000000E00218EF803108EF80210AEF80610C6
:104ED000AEF80410AEF80A100690FFE70EB0BDE879
:104EE000F081000040F69820C2F20000002101701D
:104EF00041708170C1708180C180642202814181D2
:104F0000704700008AB006A9B0EE412AB0EE603AC0
:104F1000B0EE404A0246ADF8260081ED020AC1ED2E
:104F2000010A81ED001A40F69820C2F200000078D4
:104F3000002804918DED032A8DED023A8DED014A92
:104F4000009209D0FFE740F69820C2F2000000214D
:104F5000017001214170FFE740F69820C2F2000085
:104F60004078002808D0FFE740F69820C2F2000001
:104F70008078002801D0FFE79DE040F69820C2F23B
:104F800000008188ADF81610BDF816100089814226
:104F90000BDBFFE740F69820C2F2000000214170D1
:104FA000012181700189C18085E0BDF82600BDF82E
:104FB000161001EB410140F23812C2F2000222F851
:104FC0003100049890ED020A9FED3C1A20EE010A90
:104FD000BDEEC00A10EE101ABDF8163003EB430305
:104FE00002EBC303596090ED010A20EE010ABDEE09
:104FF000C00A10EE101ABDF8163003EB430302EBA3
:10500000C303996090ED000ABCEEC00A10EE101ABE
:10501000BDF8163003EB430302EBC303D96040F243
:10502000B001C2F2000191ED040A20EE010ABDEECA
:10503000C00A10EE103ABDF816C00CEB4C0C02EB97
:10504000CC0CACF8103091F83130BDF816C00CEB38
:105050004C0C02EBCC0C8CF812300B78BDF816C05F
:105060000CEB4C0C02EBCC0C8CF8133040F2180318
:10507000C2F200031B68496B591ABDF8163003EBE6
:10508000430302EBC302918240F69821C2F2000171
:105090008A8801328A808A8809898A420BDBFFE785
:1050A00040F69820C2F20000002141700121817079
:1050B0000189C180FFE70AB0704700BF00007A4451
:1050C00080B582B040F20E00C2F2000001889FED70
:1050D000130ADFED130A01900846FCF72BFE40F29D
:1050E000B000C2F2000080ED030A0199B1F802E0BD
:1050F00000907046FCF7F0FD009880ED040A00F087
:10510000B9FA009880ED020AC16840F2640EC2F25A
:10511000000ECEF8041002B080BD00BF0038C747B3
:1051200000609F4580B588B000200790FBF7A4FB86
:105130004FF4A06000F060F94FF46120FCF79AFE94
:1051400001F0AAFC48F28C30C0F60000D0F800E074
:105150004168806806900591CDF810E004A8FEF73C
:10516000F1FEB6EE000A00F0BDF94FF46020FCF746
:10517000D7F9FCF7E3F9FCF7F7F9FCF723F9FBF7AC
:105180004DFE00F0F9FE00F02DFF002808D1FFE7EA
:1051900000F036FF002803D0FFE700F0E1FEFFE754
:1051A00000F04EFF8DF80F00FCF724FB8DF80E0089
:1051B0009DF80F00C007002806D0FFE79DF80E00FD
:1051C000C00700280AD1FFE748F29C30C0F6000073
:1051D000FCF738FE0090FFE700BFFDE700F0D4FACF
:1051E000FDF742FF4FF47A70FDF7E6F800F046FA5B
:1051F000FFE700200290019072B640F25000C2F228
:1052000000000068002809D0FFE740F25000C2F219
:1052100000000168029100210160FFE740F23800C0
:10522000C2F200000068002809D0FFE740F2380011
:10523000C2F200000168019100210160FFE762B63F
:10524000FFE70198411E0191002819D0FFE7FCF704
:105250004BF9FDF779FFFCF787F9DDF804E0BEF1C3
:10526000150F0CD3FFE7019840F23401C2F20001A0
:105270000A6810441438086014200190FFE7E0E742
:10528000FFE70298411E0291002815D0FFE7FCF7C6
:105290001BFDDDF808E0BEF1060F0CD3FFE7029816
:1052A00040F6F021C2F200010A6810440538086097
:1052B00005200290FFE7E4E7FCF7F0FF99E7000024
:1052C00080B587B013468C4686468DF81B008DF856
:1052D0001A108DF8192000200590049003904EF6C6
:1052E0000C50CEF20000006800F4E060B0F5E06F12
:1052F0000293CDF804C0CDF800E005D1FFE700200F
:1053000004900420039043E04EF60C50CEF20000CF
:10531000006800F4E060B0F5C06F05D1FFE7012040
:1053200004900320039032E04EF60C50CEF20000C1
:10533000006800F4E060B0F5A06F04D1FFE7022040
:105340000490039022E04EF60C50CEF2000000686C
:1053500000F4E060B0F5806F05D1FFE70320049012
:105360000120039011E04EF60C50CEF200000068D0
:1053700000F4E060B0F5407F05D1FFE70420049021
:105380000020039000E0FFE7FFE7FFE7FFE7FFE70C
:105390009DF81A000499C1F10401884005909DF818
:1053A00019000399C1F104010F2222FA01F108400A
:1053B00005990843059005980001059005989DF80A
:1053C0001B104EF20042CEF2000288549DF81B00E2
:1053D00000F01F01012202FA01F14EF20012CEF29A
:1053E000000242EAD0004EF21C12CEF2000210403F
:1053F000016007B080BD000082B0014601900198B5
:105400000022C0F2FA5210434EF60C52CEF20002C5
:105410001060009102B0704780B590B001460F90C7
:105420000F980028059101D1FFE759E040F2036091
:1054300001F080F940F60040C4F201001821032277
:105440004FF0010E7346CDF810E0FDF72BFD40F252
:10545000017001F06FF901F011FE0A900A980F999E
:10546000B0FBF1F0013840F6A821C2F2000108605B
:105470000020ADF82C00ADF82E00ADF83000096822
:105480000D91ADF838008DF83A0040F20041C4F2B9
:1054900000010BAA039008460291114601F0C8FED4
:1054A000049806900399ADF81E10ADF82210022260
:1054B00006AB0298114601921A4601F0A1FB602248
:1054C0000298019901F00EFD02980199039A01F0EA
:1054D00059FD029801F064FB029801F061FEFFE7BC
:1054E00010B080BD80B582B0B0EE401A8DED010ADB
:1054F0009DED010ADFED120A9FED122A8DED001AD3
:10550000B0EE421AFCF7A0FB8DED010A9DED010AF9
:1055100040F6A82EC2F2000E9EED001AB8EE411A17
:1055200020EE010ABDEEC00A10EE10EA40F2004083
:10553000C4F200000221724601F024FD02B080BDD9
:1055400000000000A4707D3F80B582B000F032F80A
:10555000002809D0FFE740F6AC20C2F2000000218D
:1055600001628DF8071020E040F6AC20C2F2000086
:10557000006A00280ED1FFE740F21800C2F20000D6
:10558000006840F6AC21C2F20001086200208DF8EC
:1055900007000AE040F6AC20C2F20000006AC82111
:1055A000FDF746FB8DF80700FFE79DF8070002B006
:1055B00080BD000082B040F6AC20C2F20000406B1B
:1055C00001909DED010A00209FED0D1AB4EEC10A75
:1055D000F1EE10FA00900DDBFFE79DED010A9FED63
:1055E000091A0020B4EEC10AF1EE10FAD8BF01206A
:1055F0000090FFE7009800F0010002B0704700BF84
:105600000000AA420080854380B582B0FFF7D2FF38
:10561000002809D1FFE740F6AC20C2F200000021CB
:10562000C1618DF8071020E040F6AC20C2F2000006
:10563000C06900280ED1FFE740F21800C2F2000056
:10564000006840F6AC21C2F20001C86100208DF86C
:1056500007000AE040F6AC20C2F20000C069C82191
:10566000FDF7E6FA8DF80700FFE79DF8070002B0A6
:1056700080BD000080B500F013F880BD40F6AC207E
:10568000C2F20000012101720078002807D1FFE773
:1056900040F6AC20C2F200000021C160FFE7704775
:1056A00040F6AC20C2F2000090ED0F0A70470000F7
:1056B00080B582B001460190009100F09BF8032074
:1056C00000F076F902B080BD80B582B001468DF859
:1056D000070040F23000C2F200000078012222EA06
:1056E00000008DF806009DF80600C0070028009114
:1056F00015D0FFE740F2046001F01CF841F2000011
:10570000C4F20100102103224FF48063FDF7CAFBAD
:1057100040F23000C2F2000001210170FFE79DF865
:105720000600C00700280FD1FFE740F23100C2F2A7
:105730000000007800F001009DF8071001F0010161
:10574000884201D1FFE71DE09DF8070000F001004D
:1057500040F23101C2F200010870002809D0FFE7D1
:1057600041F20000C4F201004FF48061FDF78EFBAE
:1057700008E041F20000C4F201004FF48061FDF73F
:1057800079FBFFE702B080BD80B596B005A8442143
:1057900004900391FAF732FD00208DF8140040F6D2
:1057A000AC21C2F2000102900846DDF810E0019140
:1057B0007146039AFAF709FD44F62060FFF72CFEC4
:1057C0009FED060AFFF78EFEFBF728FB0298019972
:1057D000087000F00FF816B080BD00BF0000000098
:1057E00040F6AC20C2F2000000780238B0FA80F037
:1057F0004009704780B582B09FED0B0A00F016F8A3
:105800004FF0000E7046CDF804E0FFF75DFF40F664
:10581000AC20C2F20000DDF804E080F831E0C0F80E
:1058200010E002B080BD00BF0000000080B582B073
:10583000B0EE401A8DED010A9DED010AB5EEC00AE9
:10584000F1EE10FA8DED001A03DCFFE70020019065
:10585000FFE79DED010AFFF745FE02B080BD0000A5
:1058600040F6AC20C2F200000021C160416101613C
:105870007047000080B588B0032006210291FBF735
:1058800073FB40F6AC21C2F20001A1F842000120F6
:10589000DDF808E001917146FBF766FB0199A1F87C
:1058A0004000B1F840009FED3D0AFCF759F89FED2C
:1058B0003C1A30EE010A8DED070A0198B0F842005B
:1058C0009FED380AFCF74CF88DED060A9DED070AAE
:1058D000019880ED0D0A0699C16300218DF817101B
:1058E000416B04919DED040AB2EE041AB4EEC10AB4
:1058F000F1EE10FA1ADDFFE79DED040A9FED2A1A7A
:1059000020EE010A9FED291A20EE010A8DED030A0F
:105910009DED060A9DED031A0020B4EEC10AF1EEDA
:1059200010FAA8BF01208DF81700FFE79DF81700B7
:10593000C007002827D0FFE740F6AC20C2F20000E5
:10594000406A00280BD1FFE740F21800C2F20000C5
:10595000006840F6AC21C2F200014862FFE740F661
:10596000AC20C2F20000406A3221FDF761F9002844
:1059700008D0FFE740F6AC20C2F20000012180F819
:105980002810FFE708E040F6AC20C2F2000000213A
:10599000416280F82810FFE708B080BD71FDB84370
:1059A00066664E415C0F2F43F4FDB43F3333733FC3
:1059B00080B582B001468DF8070040F6AC20C2F2F7
:1059C000000000789DF807209042009101D1FFE788
:1059D00052E09DF8070040F6AC21C2F200010870C9
:1059E00040F21802C2F2000212684A6000280ED18A
:1059F000FFE740F6AC20C2F200000021C160416127
:105A00008161016280F83010FFF7F4FE34E09DF808
:105A10000700012809D1FFE740F6AC20C2F20000E0
:105A2000002141618161016225E09DF807000228A3
:105A300008D1FFE740F6AC20C2F2000000218161EE
:105A4000016217E09DF80700032812D1FFE740F23A
:105A50001800C2F20000006840F6AC21C2F200015A
:105A6000C86201204872002081F83000FFF7C2FEB2
:105A7000FFE7FFE7FFE7FFE702B080BD80B58AB030
:105A800009A80790FFF7F6FE40F6AC20C2F200002E
:105A9000C06B0990079890ED000A9FEDD41AB4EE00
:105AA000C10AF1EE10FA07DBFFE748F2D730C0F683
:105AB0000000FFF7FDFDFCE140F6AC20C2F2000063
:105AC000007801460328069100F2ED810699DFE88F
:105AD00011F0040082002D01A20140F6AC20C2F2B8
