:020000040800F2
:100000004018002045010008E5080008D508000850
:10001000E108000861070008F10B0008000000007B
:10002000000000000000000000000000ED080008D3
:10003000D108000800000000E9080008F1080008E5
:100040005F0100085F0100085F0100085F01000810
:100050005F0100085F0100085F0100085F01000800
:100060005F0100085F0100085F010008F507000854
:10007000690800085F0100085F0100085F010008CF
:100080005F0100085F0100085F0100085F010008D0
:100090005F0100085F0100085F0100085F010008C0
:1000A000D90A00085F0100085F0100085F0100082D
:1000B0005F0100085F010008050B00085F010008F0
:1000C0005F0100085F0100085F0100085F01000890
:1000D0005F0100085F0100085F0100085F01000880
:1000E0005F0100085F0100085F0100085F01000870
:1000F0005F0100085F0100085F0100085F01000860
:100100005F0100085F0100085F0100085F0100084F
:100110005F0100085F0100083D0B0008950B000817
:100120005F0100085F0100085F0100085F0100082F
:10013000DFF80CD000F002FB0048004761500008D7
:10014000401800200648804706480047FEE7FEE7C3
:10015000FEE7FEE7FEE7FEE7FEE7FEE7FEE7FEE777
:10016000750A0008310100082DE9F05F05460020FE
:1001700092469B4688460646814640241BE0284618
:1001800041464746224600F02AFA53465A46C01ACC
:10019000914110D311461846224600F011FA2D1A4B
:1001A00067EB01084F4622460120002100F008FAC3
:1001B00017EB00094E41201EA4F10104DFDC484684
:1001C00031462A464346BDE8F09F40EA01039B07BB
:1001D00003D009E008C9121F08C0042AFAD203E0BC
:1001E00011F8013B00F8013B521EF9D27047D2B220
:1001F00001E000F8012B491EFBD270470022F6E710
:1002000010B513460A4604461946FFF7F0FF20468C
:1002100010BD2DE9FE4F804681EA0300C00F0C4659
:10022000009021F0004123F00045B8EB0200A94105
:1002300005D24046214690461C460B46024623F016
:100240000040104347D0270DC7F30A00C3F30A51FB
:100250000290401A019040286BDAC3F3130040F477
:10026000801B0098924620B10023D2EB030A63EB77
:100270000B0B01985946C0F14002504600F0A0F91E
:1002800006460D4650465946019A00F0B8F910EB63
:1002900008006141002487EA115284EAE7731A4397
:1002A00040D0009A62B3019A012A4FEA075215DC46
:1002B000001B61EB02014FF0004202EA0752CDE958
:1002C0000042001C41F5801132462B4600F0B8F97F
:1002D00003B0BDE8F08F40462146F9E7001B61EB13
:1002E0000201001C41F5801300185B412018A2F5A3
:1002F000001747EB030140EAD570B6196D4111E0D4
:100300006D084FEA360645EAC0754FEA0752001BF2
:1003100061EB0201001C41F5801149084FEA3000F1
:100320000019514132462B4603B0BDE8F04F00F0B2
:1003300078B90098012240000023D0EB020263EB61
:10034000E073009821464FEAE074B8EB000061EBDF
:100350000401E9E783F000435BE781F0004158E7DF
:100360002DE9FE4F81EA030404F0004421F000412E
:1003700000944FF0000B23F0004350EA01045ED0DC
:1003800052EA03045BD0C3F30A54C1F30A552C4468
:10039000A4F2F3340194A0FB0254C1F3130141F41D
:1003A0008011C3F3130343F4801301FB024400FBE9
:1003B000034E840A970A44EA815447EA8357A4FB10
:1003C000076802958D0A05FB07854FEA932C04FB0D
:1003D0000C542705029D4FEA065847EA1637B5EB3D
:1003E00008056EEB070C870E920E47EA811742EA6A
:1003F0008312A7FB0201B6EB0B0164EB00042B0D8B
:1004000043EA0C335E1844EB1C50DA465146E7FBD6
:100410000201C5F313044FEA0B3343EA14534FEAC6
:100420000432019C43EA0603A4F10C040294009CEC
:10043000CDE900B400F004F903B0BDE8F08F00206E
:100440000146F9E72DE9F04D81EA030404F0004B81
:1004500021F0004514464FF0000A23F0004150EA15
:10046000050220D054EA01021DD0C5F30A57024606
:10047000C5F31303C1F31300C1F30A5640F480150A
:1004800043F48013A7EB0608101BD64608F2FD388C
:1004900073EB050002D308F1010801E092185B41FB
:1004A000B8F1000F03DA00200146BDE8F08D00200E
:1004B0004FF48011064684460EE0171B73EB0507C8
:1004C00005D3121B63EB050306434CEA010C4908F4
:1004D0004FEA300092185B4150EA0107EDD152EA31
:1004E000030012D082EA040083EA0501084305D024
:1004F000101BAB4106D20122002306E000224FF080
:10050000004302E06FF0010253101AEB06004CEBBF
:10051000085110EB0A0041EB0B01BDE8F04D00F073
:1005200080B80EB540F2334102910021CDE90011AF
:100530000A460B4600F084F803B000BDC1F30A522E
:1005400010B5C1F3130140F2FF3341F480119A4218
:1005500001DA002010BD40F233439A42A2F2334246
:1005600003DC524200F03BF810BD904010BD00F09B
:10057000004230F000400AD0C10D01F56071C0F3B7
:10058000160042EA0151C20840071143704700209B
:100590000146704730B50B46014600202022012459
:1005A00009E021FA02F59D4205D303FA02F5491B41
:1005B00004FA02F52844151EA2F10102F1DC30BD57
:1005C000202A04DB203A00FA02F100207047914013
:1005D000C2F1200320FA03F3194390407047202A08
:1005E00004DB203A21FA02F00021704721FA02F3DD
:1005F000D040C2F120029140084319467047202A9A
:1006000006DBCB17203A41FA02F043EAE07306E03A
:1006100041FA02F3D040C2F120029140084319464A
:10062000704710B5141E73F1000408DA401C41F144
:10063000000192185B411A4301D120F0010010BD66
:100640002DE9F04D92469B4611B1B1FA81F202E0DC
:10065000B0FA80F220329046FFF7B2FF04460F4610
:1006600040EA0A0041EA0B0153465A46084313D0B8
:10067000114653EA010019D0C8F140025046FFF775
:10068000AEFF05460E46504659464246FFF798FFD4
:10069000084305D0012004E020463946BDE8F08D2E
:1006A0000020054346EAE0762C4337430A98630569
:1006B000E40AA0EB08000022FD0A44EA47540A308D
:1006C00002D500200146E9E7010510196941DDE97D
:1006D000084500196941BDE8F04DA2E7C1F30A528F
:1006E000C1F3130140F2FF3341F480119A4202DA60
:1006F00000200146704740F233439A42A2F233424F
:1007000002DC5242FFF76BBFFFF75ABF30B5041E41
:1007100071F1000404DB4FF00044404264EB01013E
:10072000141E73F1000405DB1C464FF000435242D7
:1007300063EB0403994208BF904230BD064C074D5D
:1007400006E0E06840F0010394E8070098471034A1
:10075000AC42F6D3FFF7F0FCD8830008F88300081A
:10076000FFE7FEE780B584B005F0E8FD4FF0100E1E
:100770007046CDF808E005F043FE029805F058FEFB
:100780008DF80F009DF80F00012830D1FFE70220FF
:1007900002F064FA0020019005F096FC019805F043
:1007A000BBFC4FF4806005F0A3FC019805F0F6FF58
:1007B000019806F00BF84FF480304FF4501105F01B
:1007C000C7FF182005F01CFEFFE7192005F0F4FD17
:1007D000002801D1FFE7F8E7022006F019F8FFE74B
:1007E00006F02AF8002801D1FFE7F9E7FFE704B097
:1007F00080BD000080B50020C4F202000021042268
:1008000001F08EFF00280ED0FFE70020C4F20200A6
:100810000021042201F06AFF40F2B820C2F2000079
:1008200000F0C2FEFFE70020C4F202000021022215
:1008300001F076FF00280FD0FFE70020C4F202008D
:100840000021022201F052FF40F2B820C2F2000063
:10085000043000F0A9FEFFE70020C4F202000021EE
:10086000012201F043FF80BD80B50020C4F20200E8
:100870000121082201F054FF00280FD0FFE70020DB
:10088000C4F202000121082201F030FF40F21600FC
:10089000C2F20000002180F88012FFE70020C4F2BD
:1008A00002000121022201F03BFF00280FD0FFE7E8
:1008B0000020C4F202000121022201F017FF40F2E1
:1008C0001600C2F20000002180F88012FFE780BD10
:1008D00070470000FFE7FEE780B5FFF743FF80BDEC
:1008E000FFE7FEE770470000704700007047000018
:1008F00040F29C20C2F2000001680131016040F228
:10090000CC20C2F200000168013101607047000094
:1009100087B041F20400C4F202000068C0F3810015
:10092000069006980028009008D0FFE7009801285C
:100930000ED0FFE70098022814D08EE040F20400A9
:10094000C2F2000041F20021C0F27A0101608EE0A3
:1009500040F20400C2F2000041F20021C0F27A012C
:10096000016084E041F20400C4F20200006800F477
:10097000803005900598B0F5803F2CD1FFE741F21B
:100980002C00C4F20200006800F08040049004983B
:10099000002806D1FFE741F20020C0F27A00019062
:1009A00005E046F60040C0F2DC200190FFE741F28E
:1009B0000400C4F20200006800F4003003900398C1
:1009C000B0F5003F06D1FFE740F60010C0F23D0051
:1009D0000190FFE705E040F60010C0F23D000190F5
:1009E000FFE741F20400C4F202000168C1F3834151
:1009F0000291006810F0006F05D0FFE7029840F008
:100A000010000290FFE741F20400C4F20200006807
:100A100010F0804F05D0FFE7029840F020000290D0
:100A2000FFE702980F2804D3FFE7029801300290F5
:100A300003E0029802300290FFE702983E2803D3B9
:100A4000FFE73F200290FFE701980299484340F2F8
:100A50000401C2F20001086009E040F20400C2F2A1
:100A6000000041F20021C0F27A010160FFE707B007
:100A70007047000080B54EF68850CEF20000016845
:100A800041F47001016041F20000C4F2020001680B
:100A900041F00101016041F20401C4F202010022AF
:100AA0000A6041F22C01C4F202010A6001684FF6AB
:100AB000FF72CFF6F6621140016041F20801C4F204
:100AC00002014FF41F020A60016821F480210160D5
:100AD00005F0A4FF80BD000080B542F60040C4F2DE
:100AE0000100802106F010FC00280AD0FFE705F085
:100AF00057FA42F60040C4F20100802106F0F4FBF0
:100B0000FFE780BD80B540F60000C4F2000001217F
:100B100006F0FAFB01280FD1FFE740F60000C4F20F
:100B20000000012106F0E0FB40F2B420C2F2000018
:100B3000016801310160FFE780BD000080B541F22E
:100B40000000C4F20000012106F0DEFB012808D1FC
:100B5000FFE741F20000C4F20000012106F0C4FBEF
:100B6000FFE740F20800C2F2000001880131018075
:100B7000008814280DDBFFE740F20800C2F20000F5
:100B80000021018041F20F30C2F20000012101700A
:100B9000FFE780BD80B541F20040C4F200000121B2
:100BA00006F0B2FB012808D1FFE741F20040C4F291
:100BB0000000012106F098FBFFE740F20A00C2F2B4
:100BC0000000018801310180B0F90000B0F57A7FA2
:100BD0000DDBFFE740F20A00C2F2000000210180B5
:100BE00041F20E30C2F2000001210170FFE780BD2A
:100BF000FFE7FEE784B00A4603468DF80F00029136
:100C00009DF90F000028019200930ADBFFE702988C
:100C100000019DF90F104EF20042CEF200028854FE
:100C20000BE0029800019DF80F1001F00F014EF645
:100C30001452CEF200028854FFE704B0704700005F
:100C400080B540F2026005F03BFD40F60000C4F2C2
:100C5000010000210322602302F02CF880BD000077
:100C60002DE9F04190B04FF4A06005F029FD00207F
:100C70000F900E900D900C900B900A90099040F2FE
:100C8000000EC4F2020E089070460899CDF81CE0E0
:100C900001F0FAFB42F24C40C4F2010009900898BE
:100CA0008DF83C0040F2B821C2F200010B91012105
:100CB0008DF83D104FF4807ECDF828E04FF4806E23
:100CC000CDF830E04FF0040ECDF834E04FF4005290
:100CD0000E928DF83E000A9B099ADDF82CC00C9C00
:100CE0000D9D0E9E0F9FE846C8F81070C8F80C6066
:100CF000C8F80850C8F80440C8F800C00798DDF8E4
:100D000020C006916146CDF814E001F009FC079877
:100D1000089901F099FB02220798089901F0C0FC9C
:100D200007980899059A01F0BBFC07980899069A5C
:100D300001F0DCFC10B0BDE8F081000080B586B0A9
:100D40000146059040F20C00C2F200000078002835
:100D5000049101D0FFE761E0FFF772FFFFF780FF2A
:100D60000B204FF0010E002103917146039ACDF83C
:100D700008E004F06BFA40F2096005F0A1FC0220E3
:100D8000019005F043F942F20040C4F201000090E6
:100D900000F05AFA039800F0C5FB4FF480710098F8
:100DA000029A00F0FDFC00980199039A00F0F8FC0B
:100DB0000098039900F02EFA00980299019A00F029
:100DC000E9F9052204230098039900F011FC06229A
:100DD00000980299029B00F00BFC4FF460220098EF
:100DE000029900F0D3FA00980299029A00F086FA6C
:100DF000009800F071FA009800F0ACF9009800F04B
:100E00005FFA0020C4F20200039901F0DDFA40F21B
:100E10000C00C2F2000002990170FFE706B080BD2D
:100E200040F20C00C2F200000078002801D1FFE778
:100E3000FFE7704780B582B040F2026005F040FCE9
:100E400040F2046005F03CFC41F20000C4F20100F5
:100E50004FF0000E0321302301917146019ACDF825
:100E600000E001F027FF40F60000C4F201000A2371
:100E70000099019A01F01EFF02B080BD80B588B0D4
:100E800040F20D00C2F200000078002801D0FFE718
:100E900097E0FFF7CFFF40F20A6005F011FC022057
:100EA000059005F0B3F842F60000C4F2010004908A
:100EB00000F0CAF90020039000F034FB0498039975
:100EC00000F0A8F94FF480710498039A00F068FCD0
:100ED00004980599039A00F063FC0120049902909C
:100EE00008460299029A00F055F94FF460220498DE
:100EF000029900F04BFA04980299029A00F0FEF968
:100F0000049800F0E9F94FF47A700790FFE742F691
:100F10000800C4F201000068002110F0010F0191E7
:100F200006D1FFE70798002818BF01200190FFE7CE
:100F30000198C007002804D0FFE707980138079000
:100F4000E5E70798002801D1FFE73AE0012001F02A
:100F5000FBF942F60000C4F2010000F0FBF84CF28D
:100F600050300690FFE742F60800C4F20100006826
:100F7000002110F0080F009106D0FFE70698002826
:100F800018BF01200090FFE70098C007002804D098
:100F9000FFE7069801380690E5E70698002809D192
:100FA000FFE742F60800C4F20100016821F00801E1
:100FB0000160FFE740F20D00C2F200000121017064
:100FC000FFE708B080BD000080B58EB00A4603463A
:100FD0008DF835000C9140F20D00C2F2000000784F
:100FE00000280692059305D1FFE74FF6FF70ADF894
:100FF000360085E042F60400C4F2010000680B9060
:1010000042F60800C4F2010000680A9042F60000AF
:10101000C4F20100016809910C9B9DF83520002164
:10102000049000F0E5FA0220049903900846039921
:1010300000F050FA0498039900F05CFA002808D0F8
:10104000FFE742F60000C4F20100022100F042FA7C
:10105000FFE742F60000C4F20100012100F07EFB30
:101060009DF82A00400600280ED4FFE742F6000053
:10107000C4F20100012100F071FB42F60800C4F245
:10108000010000680A90FFE748F2A060C0F201008A
:101090000890FFE742F60000C4F20100022100F0D0
:1010A00029FA00210028029106D1FFE708980028BC
:1010B00018BF01200290FFE70298C007002804D063
:1010C000FFE7089801380890E4E70898002805D160
:1010D000FFE74FF6FF70ADF8360011E042F6000072
:1010E000C4F20100019000F02FFBADF81E000221B8
:1010F000019800F0EFF9BDF81E00ADF83600FFE7EB
:10110000BDF836000EB080BD80B582B040F20D0053
:10111000C2F200000078002801D1FFE717E00E209E
:1011200005210091FFF750FFADF806000F20009950
:10113000FFF74AFFADF80400BDF8060041F2103198
:10114000C2F200018880BDF80400C880FFE702B049
:1011500080BD000082B0014601900198826842F093
:10116000080282600091FFE70198806810F0080F84
:1011700001D0FFE7F8E70198816841F00401816040
:10118000FFE70198806810F0040F01D0FFE7F8E74F
:1011900002B0704780B587B013468C4686460690ED
:1011A0008DF8171004929DF817000146012803934B
:1011B000CDF808C0CDF804E0009104D0FFE7009816
:1011C000022812D023E00698C16A21F47001C1629E
:1011D00004980021CFF6F07101EB00503FFA80F047
:1011E0000699CA6A1043C86212E00698816B21F41E
:1011F0004011816304980021CFF6F07101EB00509B
:1012000000F4401006998A6B1043886300E0FFE702
:1012100007B080BD84B00A4603460390029102984D
:1012200000280192009306D0FFE70398816841F4FB
:101230000061816005E00398816821F400618160AC
:10124000FFE704B07047000080B586B00146059006
:10125000059842F20042C4F20102904204910390C8
:1012600010D0FFE742F60000C4F20100039981426A
:1012700011D0FFE743F60040C4F201000399814218
:1012800012D01AE040F20930029005F049FA0298B3
:1012900005F02EFA12E040F20A30019005F040FA13
:1012A000019805F025FA09E040F20F30009005F0B2
:1012B00037FA009805F01CFA00E0FFE706B080BDA1
:1012C00082B0014601900198826842F48072826087
:1012D000009102B07047000082B001460190019871
:1012E000806810F0010F009106D1FFE70198816836
:1012F00041F001018160FFE702B0704780B585B021
:1013000013468C46864604908DF80F108DF80E20FB
:101310009DF80E0000280293CDF804C0CDF800E03F
:1013200019D0FFE79DF80F00C007002806D0FFE79F
:101330000498816841F480118160FFE79DF80F00F7
:101340008007002806D5FFE70498816841F4004132
:101350008160FFE718E09DF80F00C007002806D065
:10136000FFE70498816821F480118160FFE79DF810
:101370000F008007002806D5FFE70498816821F454
:1013800000418160FFE7FFE705B080BD80B587B011
:1013900013468C46864606908DF8171004929DF8E9
:1013A0001700014601280393CDF808C0CDF804E0EA
:1013B000009104D0FFE7009802280BD015E00698B2
:1013C000816821F460218160049806998A6810433D
:1013D00088600BE00698816821F4E0418160049800
:1013E00006998A681043886000E0FFE707B080BD77
:1013F00080B582B0022004F0A3FE019041F2040007
:10140000C4F20200006810F4E06F04D0FFE7019816
:101410004000009002E001980090FFE7009802B0C1
:1014200080BD000080B58CB040F2027005F048F934
:1014300040F60000C4F2000005F0EAFDFFF7D8FF17
:101440000B900B9841F2597ECDF2B71EA0FB0E0E09
:101450004FEA5E3ECDF828E0DDF828E0BEF1000F4F
:10146000059003D1FFE701200A90FFE70A980028C2
:1014700004D0FFE70A9801380A90FFE706A8049015
:1014800005F096FF0020ADF81800ADF81C00DDF85F
:1014900028E0CDF820E0ADF8240040F6000EC4F2BC
:1014A000000E039070460499CDF808E005F086FE22
:1014B0000120029901900846019905F005FF1E20C0
:1014C0000199039A03F0C2FE029805F02FFE0CB0BA
:1014D00080BD000084B00A46034603900291029842
:1014E0000399D1F800C02CEA000008600192009333
:1014F00004B0704785B00A4603460490039100206B
:101500008DF80B000498006803990842019200933B
:1015100004D0FFE701208DF80B00FFE79DF80B00DA
:1015200005B0704782B00146019042F20440C4F217
:101530000100026822F470220260019A03681A43D3
:101540000260009102B0704782B041F21030C2F2E6
:1015500000000188ADF800104188ADF802108188C4
:10156000ADF80410C088ADF8060040F20E00C2F2DB
:101570000000009901600199416002B070470000CD
:1015800080B582B00146019001980091FFF7D6FB2B
:1015900002B080BD80B5FFF7B7FD80BD80B5FFF715
:1015A0003FFCFFF76BFC80BD82B0014601900198C3
:1015B000028841F21033C2F200031A80408858803A
:1015C000009102B07047000080B540F20C00C2F2FA
:1015D00000000078002801D1FFE707E042F2004058
:1015E000C4F20100012100F0B9F8FFE780BD00005E
:1015F000B0B589B09C4696460C46054608908DF8D5
:101600001F108DF81E2006939DF81F000528CDF8A9
:101610000CC0CDF808E00194009518D8FFE70898B1
:10162000406B05909DF81F0000EB80001F2181405A
:10163000059A22EA010105919DF81E1001FA00F0B9
:101640000599084305900598089948633EE09DF880
:101650001F000B2819D8FFE70898006B05909DF82C
:101660001F0000EB80001E381F218140059A22EAEE
:10167000010105919DF81E1001FA00F0059908433B
:1016800005900598089908631FE09DF81F000F2832
:1016900019D8FFE70898C06A05909DF81F0000EB75
:1016A00080003C381F218140059A22EA0101059102
:1016B0009DF81E1001FA00F0059908430590059861
:1016C0000899C86200E0FFE7FFE7FFE79DF81E000A
:1016D000092817D8FFE70898006904909DF81E00B4
:1016E00000EB400007218140049A22EA01010491A5
:1016F000069901FA00F004990843049004980899A7
:1017000008611EE09DF81E00112818D8FFE7089810
:10171000C06804909DF81E0000EB40001E380721B1
:101720008140049A22EA01010491069901FA00F02D
:1017300004990843049004980899C86000E0FFE702
:10174000FFE709B0B0BD000082B0014601900198EA
:10175000C06C80B2009102B07047000084B00A46AD
:10176000034603908DF80B109DF80B00C00700286E
:101770000192009306D0FFE70398816841F480014D
:101780008160FFE79DF80B008007002806D5FFE782
:101790000398816841F400118160FFE704B070474D
:1017A00080B586B013468C468646059004918DF828
:1017B0000F209DF80F0000280293CDF804C0CDF84B
:1017C00000E022D0FFE70498C005002806D5FFE717
:1017D0000598416841F480714160FFE70498400535
:1017E000002806D5FFE70598416841F48061416013
:1017F000FFE704988007002806D5FFE70598816871
:1018000041F002018160FFE721E00498C005002853
:1018100006D5FFE70598416821F480714160FFE734
:1018200004984005002806D5FFE70598416821F493
:1018300080614160FFE704988007002806D5FFE734
:101840000598816821F002018160FFE7FFE706B09B
:1018500080BD000080B588B002A800210691ADF8D7
:101860001610ADF814100090FFE7BDF8140007281B
:1018700022D8FFE70E200521FFF7A6FBADF81200E6
:10188000BDF812004FF6FF7188420BD0FFE7BDF89C
:101890001200069908440690BDF816000130ADF814
:1018A0001600FFE7022000F04FFDFFE7BDF814002F
:1018B0000130ADF81400D8E7BDF81600002804D1B7
:1018C000FFE700208DF81F006EE0009890ED040AFD
:1018D000B8EE400ABDF8161001EE101AB8EE411A23
:1018E00080EE010A80ED010A90ED010AB6EE001AC1
:1018F00030EE010ABDEEC00A10EE101A9FED2C0A60
:10190000DFED2C0A084600F079FA009880ED000A15
:1019100090ED000A9FED281AB4EEC10AF1EE10FA1C
:101920000BDBFFE7009890ED000A9FED241AB4EE60
:10193000C10AF1EE10FA04DDFFE700208DF81F0068
:1019400032E000208DF80700FFE79DF8070002282D
:101950000ED8FFE7FFF71EFEFFF7F6FD012000F0AF
:10196000F3FCFFE79DF8070001308DF80700ECE776
:1019700040F20E00C2F2000000884FF6FF7188426C
:101980000AD0FFE740F20E00C2F2000040884FF696
:10199000FF71884204D1FFE700208DF81F0003E0AB
:1019A00001208DF81F00FFE79DF81F0008B080BDE3
:1019B00000609F4500401C463333334066666640F6
:1019C00085B0B0EE401A0146ADF812008DED030A65
:1019D000BDF8120000EE100AB8EEC00A9FED0A2A08
:1019E00020EE020A9FED092A80EE020A8DED020A1E
:1019F0009DED020A9DED032A20EE020A8DED011AEB
:101A0000009105B0704700BF3333534000F07F456D
:101A100080B594B00A46034612901191119800289F
:101A20000992089304D1FFE700208DF84F00E5E00C
:101A30001198FEF776FD41EC100B9FED731B51ECF6
:101A4000110B53EC102BFEF7FDFC41EC100B8DED50
:101A50000E0B1298FEF765FD41EC100B9DED0E1B71
:101A600051EC100B53EC112BFEF7ECFC41EC100B7E
:101A700051EC100B9FED660B53EC102BFEF7C9FBDE
:101A800041EC100B51EC100BFEF758FD0D900D982A
:101A90007F2804D8FFE70D988DF84F00AEE012982C
:101AA000FEF73FFD41EC100B9DED0E1B51EC110BB1
:101AB00007900691079A069B8DED040BFEF7A9FB94
:101AC00041EC100B9DED041B51EC110B53EC102B52
:101AD000FEF7B8FC41EC100B51EC100B9FED4C0BDA
:101AE00053EC102BFEF795FB41EC100B51EC100B57
:101AF000FEF724FD0C900C98402809D3FFE70C98C2
:101B00007F2805D8FFE70C9840308DF84F0075E02E
:101B10001298FEF706FD41EC100B9DED0E1B51ECEB
:101B2000110B9FED3D1B53EC112B8DED020BFEF7BE
:101B300017FC41EC100B53EC102B9DED020B51ECFC
:101B4000100BFEF77FFC41EC100B51EC100B9FEDDE
:101B5000300B53EC102BFEF75CFB41EC100B51ECFF
:101B6000100BFEF7EBFC0B900B98202809D3FFE736
:101B70000B983F2805D8FFE70B98A0308DF84F0051
:101B80003CE01298FEF7CDFC41EC100B9DED0E1BD6
:101B900051EC110B9FED221B53EC112B8DED000B23
:101BA000FEF7DEFB41EC100B53EC102B9DED000B10
:101BB00051EC100BFEF746FC41EC100B51EC100BF6
:101BC0009FED130B53EC102BFEF723FB41EC100B96
:101BD00051EC100BFEF7B2FC0A900A98202809D3AA
:101BE000FFE70A983F2805D8FFE70A98C0308DF82C
:101BF0004F0003E000208DF84F00FFE79DF84F00F5
:101C000014B080BD00BF00BF0000000065CDCD4115
:101C1000000000000000E03F000000000000204045
:101C2000000000000000304088B0B0EE412AB0EE65
:101C3000603AB0EE404A8DED070ACDED060A8DED13
:101C4000051A9DED070A9DED061AB4EEC10AF1EEE4
:101C500010FA8DED042A8DED033A8DED024A05DA76
:101C6000FFE79DED060A8DED010A18E09DED070ADC
:101C70009DED051AB4EEC10AF1EE10FA05DDFFE79D
:101C80009DED050A8DED000A04E09DED070A8DED3E
:101C9000000AFFE79DED000A8DED010AFFE79DEDCB
:101CA000010A08B07047000088B0B0EE412AB0EEDB
:101CB000603AB0EE404A8DED070ACDED060A8DED93
:101CC000051A9DED070A9DED061AB4EEC10AF1EE64
:101CD00010FA8DED042A8DED033A8DED024A05DAF6
:101CE000FFE79DED060A8DED010A18E09DED070A5C
:101CF0009DED051AB4EEC10AF1EE10FA05DDFFE71D
:101D00009DED050A8DED000A04E09DED070A8DEDBD
:101D1000000AFFE79DED000A8DED010AFFE79DED4A
:101D2000010A08B07047000080B5FFF733FC03F0EC
:101D30006BFE01F0B7F980BD84B00146ADF80E002E
:101D4000BDF80E0000EE100AB8EEC00A9FED0D1AA5
:101D500020EE010A9FED0C1A80EE010A8DED020AB9
:101D60009DED020A9FED091A30EE010A8DED010A80
:101D70009DED010A9FED061A80EE010A009104B064
:101D8000704700BF3333534000F07F457B142EBEB5
:101D900039B4C83D87B0B0EE601AB0EE402A0146B3
:101DA000ADF81A008DED050ACDED040ABDF81A0054
:101DB00000EE100AB8EEC00ADFED0E0A20EE200A8F
:101DC000DFED0D0A80EE200A8DED030A9DED030A7A
:101DD000DDED050A9DED043A70EE830A20EE200A3F
:101DE00080EE030A8DED021A8DED012A009107B0F5
:101DF000704700BF3333534000F07F4587B0B0EEEB
:101E0000601AB0EE402A0146ADF81A008DED050AC1
:101E1000CDED040ABDF81A0000EE100AB8EE400A33
:101E2000DFED0B0A20EE200ADFED0A0A80EE200A21
:101E30008DED030A9DED030AF7EE080A20EE200A55
:101E40008DED021A8DED012A009107B0704700BF99
:101E50003333534000F07F4583B00146019072B6A2
:101E600040F21600C2F20000B0F88122B0F88302FE
:101E70008242009104D1FFE762B60020029013E095
:101E800040F21600C2F20000B0F88312415C019AE1
:101E90001170B0F8831201316FF35F21A0F8831243
:101EA00062B601200290FFE7029803B0704700007D
:101EB00083B001468DF8070072B640F21600C2F2F8
:101EC0000000B0F8812201326FF35F22ADF80420E8
:101ED000BDF80420B0F883028242009104D1FFE7EC
:101EE00062B60020029010E09DF8070040F2160153
:101EF000C2F20001B1F881228854BDF80400A1F8B3
:101F0000810262B601200290FFE7029803B0704799
:101F100082B072B640F21600C2F20000B0F8811230
:101F2000ADF80410B0F88302ADF8020062B6BDF857
:101F30000400BDF80210884208DBFFE7BDF804008A
:101F4000BDF80210401AADF8060009E0BDF8020025
:101F5000BDF80410401AC0F50070ADF80600FFE7A8
:101F6000BDF8060002B07047F0B58FB04FF4A06026
:101F700004F0A6FB0020C4F202004FF0010E07900F
:101F80007146CDF818E000F07FFA44F60400C4F280
:101F900000000890002009908DF838000A900B90FE
:101FA00006998DF839100C908DF83A104FF4405E78
:101FB000CDF834E0099B089ADDF828E0DDF82CC064
:101FC0000C9C0D9D0E9E6F463E61FD60BC60C7F887
:101FD00004C0C7F800E0DDF81CC00590604600F0C2
:101FE0009FFA0798069900F00FFA0798069900F0F3
:101FF00029FC44F60000C4F20000802105F0B6FA86
:102000000C200221059A03F021F90A22079806996B
:1020100000F046FB40F21600C2F20000059980F87D
:1020200080120FB0F0BD000080B58AB00A460346AA
:102030000990ADF82210BDF82200002807920693FF
:102040000ED0FFE7BDF82200802809DCFFE740F250
:102050001600C2F2000090F88002012801D1FFE7CB
:102060002FE00999BDF8222040F21600C2F20000CC
:1020700000F50073059018460493FEF7A6F80121B9
:10208000059A82F880120023C4F2020303901846D6
:102090000291019300F078F901980299029A00F0F8
:1020A00025FB01980299049A00F0A8FBBDF82220B4
:1020B0000198029900F008FC0198029900F084F957
:1020C000FFE70AB080BD000083B080B585B00993FA
:1020D000089207910146049007A803900498039A78
:1020E0000191114600F0CAF80290029805B0BDE8CF
:1020F000804003B07047000080B584B00146039073
:1021000003980028029104D1FFE74FF46120039067
:10211000FFE740F21600C2F200000021A0F8811291
:10212000A0F8831280F8801240F20360019104F05D
:10213000C7FA4FF4C06004F0C3FA40F2127004F022
:10214000BFFA40F60040C4F20100182103224FF408
:10215000806300F0AFFD44F60000C4F20000009080
:1021600005F0A6F90399009805F038F9009801994F
:1021700005F0B6FA0098019905F082FA00980199E5
:1021800005F04EFA0098019905F030FA009801998F
:1021900005F012FA0098019905F058FA0821009804
:1021A00005F084FA009805F0FBF9FFF7DDFE04B0B6
:1021B00080BD000080B584B001468DF80F009DF809
:1021C0000F000A28029105D1FFE70D20FFF770FEEE
:1021D0000190FFE79DF80F00FFF76AFE009004B042
:1021E00080BD000080B5A4B0FFF792FEADF88E0070
:1021F000BDF88E0001283EDBFFE740F21600C2F278
:10220000000090F88002002835D1FFE7BDF88E006D
:10221000812803DBFFE78020019003E0BDF88E00FA
:102220000190FFE70198ADF88C000020ADF80A009E
:10223000FFE7BDF80A00BDF88C10884215DAFFE709
:102240000DF10900FFF708FE002807D0FFE79DF811
:102250000900BDF80A1003AA5054FFE7FFE7BDF8D4
:102260000A000130ADF80A00E3E7BDF88C1003A8BE
:10227000FFF7DAFEFFE724B080BD000080B5AAB00A
:102280000A46034628912790279828990DF11C0C9F
:102290004FF0800E0490604603917146DDF810C047
:1022A00002926246DDF80CE00193734605F02EFAC7
:1022B00006900698B0F1FF3F03DCFFE706982990EF
:1022C00023E006987F2803DCFFE70698009002E0F1
:1022D0007F200090FFE7009805900598002805D022
:1022E000FFE7059907A800F013F8FFE70698802894
:1022F00008DBFFE748F22430C0F60000032100F0BD
:1023000007F8FFE706982990FFE729982AB080BDD3
:1023100080B586B00A4603460590049100200390DC
:1023200002920193FFE70398049988420AD2FFE7DB
:1023300005980399405CFFF73DFFFFE703980130E4
:102340000390F0E706B080BD83B00146029002988A
:102350000028009101D1FFE713E040F29C20C2F277
:10236000000000680190FFE740F29C20C2F20000EC
:1023700000680199401A0299884202D2FFE700BF23
:10238000F2E703B07047000080B584B00A46034608
:1023900003908DF80B1003989DF80B100192009399
:1023A00000F070FA002802D1FFE7FFE7FEE703988C
:1023B0009DF80B1001EB810100EB8100816821F099
:1023C0000101816004B080BD80B584B00A46034637
:1023D00003908DF80B1003989DF80B100192009359
:1023E00000F050FA002802D1FFE7FFE7FEE703986C
:1023F0009DF80B1001EB810100EB8100816841F039
:102400000101816004B080BD80B584B00A460346F6
:1024100003908DF80B1003989DF80B100192009318
:1024200000F030FA002802D1FFE7FFE7FEE703984B
:102430009DF80B1001EB810100EB8100816821F018
:102440002001816004B080BD80B584B00A46034697
:1024500003908DF80B1003989DF80B1001920093D8
:1024600000F010FA002802D1FFE7FFE7FEE703982B
:102470009DF80B1001EB810100EB8100816841F0B8
:102480002001816004B080BD80B584B00A46034657
:1024900003908DF80B1003989DF80B100192009398
:1024A00000F0F0F9002802D1FFE7FFE7FEE703980C
:1024B0009DF80B1001EB810100EB8100816821F098
:1024C0000101816003989DF80B1001EB810100EB85
:1024D00081000021816003989DF80B2002EB8202AD
:1024E00000EB8200C16003989DF80B2002EB820292
:1024F00000EB8200016103989DF80B2002EB820241
:1025000000EB820041619DF80B0080000F2101FA71
:1025100000F003994A681043486004B080BD000091
:102520002DE9F0478EB0DDF868C0DDF864E0189C56
:10253000179D169E1F46904689468246CDF834C0A8
:10254000CDF830E00B940A9509960893079206900F
:102550008DF8171006989DF817100397CDF808808E
:10256000CDF804A0CDF8009000F08CF9002802D13D
:10257000FFE7FFE7FEE7079806999DF8172002EBB3
:10258000820201EB82010861099806999DF81720E3
:1025900002EB820201EB82014861BDF82C00069932
:1025A0009DF8172002EB820201EB8201C8600698B9
:1025B0009DF8171001EB810100EB81008068049009
:1025C000049820F47C50049008980A990C9A0843C7
:1025D0001043049908430490049806999DF8172025
:1025E00002EB820201EB820188609DF83400012831
:1025F0000CD1FFE706989DF8171001EB810100EB65
:102600008100816841F0400181600BE006989DF8EF
:10261000171001EB810100EB8100816821F040017E
:102620008160FFE79DF8350001280CD1FFE706988F
:102630009DF8171001EB810100EB8100816841F0EA
:10264000800181600BE006989DF8171001EB810175
:1026500000EB8100816821F080018160FFE79DF837
:10266000360000280CD1FFE706989DF8171001EB03
:10267000810100EB8100816821F0100181600BE095
:1026800006989DF8171001EB810100EB810081682D
:1026900041F010018160FFE70EB0BDE8F087000057
:1026A00080B586B013468C46864605908DF813108B
:1026B000039205989DF813100293CDF804C0CDF84D
:1026C00000E000F0DFF8002802D1FFE7FFE7FEE7B7
:1026D000039805999DF8132002EB820201EB820119
:1026E0008A681043886006B080BD000080B586B05F
:1026F00013468C46864605908DF813100392039876
:102700009DF813108900884005994A681043486075
:102710000293CDF804C0CDF800E006B080BD000003
:1027200080B58AB013468C46864608908DF81F10F7
:102730000692002005900490069802280393CDF895
:1027400008C0CDF804E0009008D0FFE70098042806
:1027500017D0FFE70098082826D038E008980068CE
:1027600006999DF81F20930099400840049008980E
:1027700002EB820100EB8100806800F0020005900E
:1027800027E00898006806999DF81F20930099405B
:1027900008400490089802EB820100EB81008068F9
:1027A00000F00400059014E00898006806999DF870
:1027B0001F209300994008400490089802EB820182
:1027C00000EB8100806800F00800059001E0FFE761
:1027D000FEE70498002808D0FFE70598002804D0F9
:1027E000FFE701208DF8270003E000208DF8270087
:1027F000FFE79DF827000AB080BD000080B586B0D5
:1028000013468C46864605908DF813100392059862
:102810009DF813100293CDF804C0CDF800E000F04D
:1028200031F8002802D1FFE7FFE7FEE7039805999A
:102830009DF8132002EB820201EB8201486106B091
:1028400080BD000080B584B00A46034603908DF831
:102850000B1003989DF80B100192009300F012F8F2
:10286000002802D1FFE7FFE7FEE703989DF80B1071
:1028700001EB810100EB8100816821F480418160DE
:1028800004B080BD84B00A46034603908DF80B1057
:1028900001208DF80A00039840F20041C4F20201C1
:1028A0008842019200930AD1FFE79DF80B000528AA
:1028B00004DBFFE700208DF80A00FFE7FFE79DF843
:1028C0000A0004B07047000080B586B013468C46FD
:1028D000864605908DF81310039205989DF8131005
:1028E0000293CDF804C0CDF800E0FFF7CBFF00283D
:1028F00002D1FFE7FFE7FEE7BDF80C0005999DF860
:10290000132002EB820201EB8201C86006B080BD99
:1029100080B588B0B0EE401A8DED060A9DED060A2E
:10292000DFED280A9FED282A8DED011AB0EE421A3C
:10293000FFF77AF98DED050A42F62C4EC4F2010E2E
:10294000DEF800E0CDF810E0DDF810E0BEF1000F99
:102950000CD1FFE79DED050A0020B5EEC00AF1EEAF
:1029600010FAC8BF0120ADF81E0027E0049801301E
:1029700003909DED050A039801EE100AB8EE411A86
:10298000B6EE002A00EE012ABCEEC20A10EE101AC2
:1029900002910299814204D3FFE703980138029023
:1029A000FFE70298B0F5803F04D3FFE74FF6FF70D2
:1029B0000290FFE70298ADF81E00FFE7BDF81E0089
:1029C00008B080BD00000000A4707D3F80B584B0D9
:1029D000B0EE401A8DED020A9DED020AB5EEC00A76
:1029E000F1EE10FA8DED011A03DCFFE700200390F1
:1029F00020E09DED020AB7EE001AB4EEC10AF1EE36
:102A000010FA04DBFFE74FF07E50039012E09DEDDB
:102A1000020A9FED0A1A20EE010A04F095FEB7EEB5
:102A2000001A31EE400AB6EE001A20EE010A8DEDD2
:102A3000030AFFE79DED030A04B080BDC3F54840DB
:102A400080B586B00A460346049003910398002897
:102A50000292019304D1FFE701208DF8170013E0E3
:102A60000498002804D1FFE700208DF817000BE040
:102A7000049800F035F8DDF80CE00021704528BF1F
:102A800001218DF81710FFE79DF8170006B080BDF3
:102A900080B586B00A460346049003910398002847
:102AA0000292019304D1FFE701208DF8170013E093
:102AB0000498002804D1FFE700208DF817000BE0F0
:102AC000049800F025F8DDF80CE00021704528BFDF
:102AD00001218DF81710FFE79DF8170006B080BDA3
:102AE00083B00146029002980028019103D1FFE7CC
:102AF0000020009008E040F29C20C2F20000006834
:102B00000299401A0090FFE7009803B07047000058
:102B100083B00146029002980028019103D1FFE79B
:102B20000020009008E040F29C20C2F20000006803
:102B30000299401A0090FFE7009803B07047000028
:102B400088B0B0EE412AB0EE603AB0EE404A8DED6A
:102B5000070ACDED060A8DED051A9DED070A9DEDDC
:102B6000061AB4EEC10AF1EE10FA8DED042A8DEDCD
:102B7000033A8DED024A05DAFFE79DED060A8DED79
:102B8000010A18E09DED070A9DED051AB4EEC10A91
:102B9000F1EE10FA05DDFFE79DED050A8DED000A67
:102BA00004E09DED070A8DED000AFFE79DED000AA8
:102BB0008DED010AFFE79DED010A08B070470000A6
:102BC00088B0B0EE412AB0EE603AB0EE404A8DEDEA
:102BD000070ACDED060A8DED051A9DED070A9DED5C
:102BE000061AB4EEC10AF1EE10FA8DED042A8DED4D
:102BF000033A8DED024A05DAFFE79DED060A8DEDF9
:102C0000010A18E09DED070A9DED051AB4EEC10A10
:102C1000F1EE10FA05DDFFE79DED050A8DED000AE6
:102C200004E09DED070A8DED000AFFE79DED000A27
:102C30008DED010AFFE79DED010A08B07047000025
:102C400080B582B0B0EE401A8DED010A9DED010A0B
:102C50008DED001A04F070FD02B080BD83B0014616
:102C6000029042F20000C4F2020002680192019A4E
:102C700022F007020192019A029B1A43026000911E
:102C800003B0704784B00A4603460390029102984D
:102C9000039948610192009304B0704784B00A46DA
:102CA00003460390029102980399086101920093F0
:102CB00004B07047B0B58BB09C4696460C460546AE
:102CC0000A900991089207930020059004900998B2
:102CD00000F00F01059110F0100FCDF80CC0CDF8E9
:102CE00008E00194009514D0FFE7089804280AD161
:102CF000FFE7059840F00300059007980A99CA6B12
:102D00001043C86304E00898059908430590FFE75D
:102D1000FFE70020ADF81A00FFE7BDF81A0007280A
:102D200037D8FFE7BDF81A00012101FA00F0079932
:102D3000084227D0FFE70A9800680490BDF81A00FF
:102D400080000F218140049A22EA01010491059933
:102D500001FA00F00499084304900998282804D146
:102D6000FFE707980A99486108E00998482804D1C4
:102D7000FFE707980A990861FFE7FFE704980A99B7
:102D80000860FFE7FFE7BDF81A000130ADF81A0050
:102D9000C3E70820ADF81A00FFE7BDF81A000F28B6
:102DA0003AD8FFE7BDF81A00012101FA00F00799AF
:102DB00008422AD0FFE70A9840680490BDF81A003C
:102DC0006FF01F0101EB80000F218140049A22EA7D
:102DD00001010491059901FA00F004990843049057
:102DE0000998282804D1FFE707980A99486108E064
:102DF0000998482804D1FFE707980A990861FFE776
:102E0000FFE704980A994860FFE7FFE7BDF81A005A
:102E10000130ADF81A00C0E70BB0B0BD85B00A466E
:102E20000346039002910398806802990842019238
:102E3000009304D0FFE701208DF8130003E0002089
:102E40008DF81300FFE79DF8130005B070470000F0
:102E500083B00A4603468DF80B008DF80A109DF8E2
:102E60000B009DF80A1001F0030141EA8000C0B296
:102E70000192009303B0704780B596B001F0B0FCAA
:102E800040F2000EC4F2302ECDF80CE00020049089
:102E900048F20001C4F2ED4105910021C4F2901105
:102EA000069107900021C4F2400108914CF6CD41F3
:102EB000C3F64C5109910A900B900C900D900E9016
:102EC00047F60041C4F292710F9145F20001C4F639
:102ED0004301109145F20001C4F2C37111911291A6
:102EE00048F20002C4F23B5213921490159041F242
:102EF0001832C2F2000203AB4FF04C0C02901046A5
:102F0000019119466246CDF800E0FDF75EF941F205
:102F10006430C2F20000029980F83010C1620122D0
:102F200080F831204163009B8363C1630164DDF855
:102F300004C0C0F844C080F84820084601F0E8FE0C
:102F400016B080BD80B584B041F26430C2F200009A
:102F50000078042814D0FFE741F26430C2F2000088
:102F6000007805280CD0FFE741F23C40C2F2000097
:102F70000021017041F23D40C2F20000017087E083
:102F800040F20E00C2F2000000889FED420ADFED21
:102F9000420AFEF7FFFE8DED010A41F23D40C2F20A
:102FA0000000007800280FD1FFE79DED010A40F2F4
:102FB000A020C2F2000080ED000A41F23D40C2F2C2
:102FC000000001210170FFE740F2A020C2F20000E2
:102FD00090ED000A9FED311AB4EEC10AF1EE10FA3D
:102FE00007DAFFE7019840F2A021C2F20001086071
:102FF000FFE79DED010A40F2A020C2F2000090ED33
:10300000001A30EE410A9FED262A00EE021A80EDEA
:10301000001A006841F21831C2F20001486041F222
:103020006430C2F200000078052807D1FFE741F2C2
:103030003C40C2F200000021017029E041F218304A
:10304000C2F2000090ED000A90ED011A30EE410A44
:103050008DED030A41F23C40C2F2000001780131DB
:10306000CAB20170052A13D3FFE741F23C40C2F215
:103070000000002101709DED030A009100F0DEFECA
:103080008DED020A9DED020A009801F0F7FAFFE7C4
:1030900004B080BD0038C74700609F456F12833A77
:1030A0000AD7A33D80B58EB001F0A8FF00F088FCE0
:1030B00041F2D22EC2F2000E9EF800E0BEF1000FE7
:1030C00003D0FFE700F0DAFAFFE702F04FFB8DF8DC
:1030D00037009DF8370000F0010001F0A1F88DF8ED
:1030E000360041F26430C2F200000078002811D0AE
:1030F000FFE741F26430C2F200000078082809D0EE
:10310000FFE701F047F8002803D0FFE701F03CF8A3
:10311000A9E2FFE741F26430C2F200000078014604
:103120000828069100F29E820699DFE811F0090056
:1031300019003C007C00E300FC00850264029A0256
:103140009DF83600C007002809D0FFE701F0A0F87D
:10315000002804D0FFE7012001F0DAFDFFE782E25A
:103160009DF83700C007002804D1FFE7062001F0D2
:10317000CFFD78E201F08CF8002804D1FFE70620AB
:1031800001F0C6FD6FE241F26430C2F20000406817
:103190006421FFF77DFC002801D1FFE763E20220F4
:1031A00001F0B6FD5FE201F049FC9DF837E04FEA1F
:1031B000CE7EBEF1000F05D0FFE701F069F80028D0
:1031C00004D1FFE7062001F0A3FD4CE241F2643098
:1031D000C2F2000080694FF4AF71FFF759FC00287C
:1031E00020D0FFE741F26430C2F2000090ED030A04
:1031F0009FEDD91A30EE010A8DED0C0A9DED0C0AF7
:10320000FFF71EFD8DED0B0A01F08AFB01F0FEFABF
:1032100041F21830C2F2000080ED0E0A032001F0E6
:1032200077FD20E21FE29DF83700C007002805D097
:10323000FFE701F02DF8002804D1FFE7062001F098
:1032400067FD10E241F26430C2F2000090ED030A23
:103250009FEDC11A30EE010A8DED0A0A9DED0A0AB2
:10326000FFF7EEFCB1EE081AB4EEC10AF1EE10FA67
:1032700011DCFFE741F26430C2F20000806A0128ED
:1032800008D8FFE741F26430C2F20000816A0131E0
:103290008162FFE706E041F26430C2F200000021E3
:1032A0008162FFE741F26430C2F20000406A1421FB
:1032B000FFF7EEFB00280CD0FFE741F26430C2F2CA
:1032C0000000806A022804D3FFE7042001F020FDFB
:1032D000C9E141F26430C2F20000406A4FF4C871A3
:1032E000FFF7D6FB002804D0FFE7062001F010FD11
:1032F000B9E1B8E19DF83700C00700280ED0FFE71C
:1033000041F26430C2F2000090ED020A9FEDDA1A39
:10331000B4EEC10AF1EE10FA04DAFFE7062001F07C
:10332000F7FCA0E19FE141F26430C2F20000C16805
:103330000991816B089190F83100002823D1FFE7B3
:1033400041F26430C2F20000406B0321FFF7A0FBA2
:10335000002817D0FFE741F26430C2F200000121DB
:1033600080F8311040F29C22C2F2000212684263DF
:103370000020059101F080F89FEDBD0A059801F04D
:103380007DF9FFE7D2E041F26430C2F2000090F82C
:103390003100012855D1FFE79DED090A9DED081A7E
:1033A000BFEE002A31EE021AB4EEC10AF1EE10FAB5
:1033B00023DAFFE741F26430C2F20000406B0421DF
:1033C000FFF766FB002817D0FFE741F26430C2F236
:1033D0000000022180F8311040F29C21C2F200016D
:1033E000096841639FEDA20A0120049001F046F9AB
:1033F000049801F041F8FFE722E041F26430C2F2A4
:103400000000406B3221FFF743FB002817D0FFE795
:1034100041F26430C2F20000022180F8311040F223
:103420009C21C2F20001096841639FED910A0120CD
:10343000039001F023F9039801F01EF8FFE7FFE77E
:1034400073E041F26430C2F2000090F831000328CA
:103450001DD1FFE741F26430C2F20000406B012150
:10346000FFF716FB002811D0FFE741F26430C2F2EB
:103470000000012180F8311040F29C21C2F20001CD
:1034800009684163002000F0F7FFFFE74CE09DED85
:10349000090A9DED081AB7EE002A31EE021AB4EEC1
:1034A000C10AF1EE10FA1FDDFFE741F26430C2F20B
:1034B0000000406B0221FFF7EBFA002813D0FFE772
:1034C00041F26430C2F20000032180F8311040F272
:1034D0009C21C2F20001096841639FED640A01204A
:1034E00001F0CCF8FFE71EE041F26430C2F20000C8
:1034F000406B1421FFF7CCFA002813D0FFE741F20C
:103500006430C2F20000032180F8311040F29C21A7
:10351000C2F20001096841639FED540A012001F0E5
:10352000ADF8FFE7FFE7FFE7FFE7FFE741F26430B1
:10353000C2F2000090ED040AB0EE041AB4EEC10A23
:10354000F1EE10FA4FDDFFE741F26430C2F2000005
:10355000006C00280DD101E0000030C240F29C2038
:10356000C2F20000006841F26431C2F20001086456
:1035700038E041F26430C2F20000006C3221FFF703
:1035800087FA00282DD0FFE741F26430C2F2000034
:103590000021016490ED110A41F21830C2F20000DE
:1035A000D0ED0C0A90ED0D1A0290FFF709FB8DED9E
:1035B000070A0120019000F05FFF9DED070A0198C6
:1035C00001F05CF8DDED090A9DED071A9FED290A6F
:1035D00000F09EFB079802998863042001F098FB95
:1035E000FFE7FFE706E041F26430C2F2000000218D
:1035F0000164FFE737E001F07BFB01F04FFA0028A0
:1036000019D0FFE7002000F037FF01F063FA41F224
:103610006430C2F20000C0694FF42F71FFF738FA2E
:10362000002807D0FFE7002000F052FD012001F044
:103630006FFBFFE7FFE716E001F05AFB01F02EFAFF
:1036400000280DD0FFE70020009000F015FF009843
:1036500000F03EFD01F03EFA009801F059FBFFE753
:1036600001E000E0FFE70EB080BD00BF005043481E
:1036700000C82F48000030420080AC43B0B5BAB05B
:10368000FFE7EFF3108037903798269072B641F23B
:10369000D020C2F20000008800280CD1FFE741F2E0
:1036A000D220C2F20000002101702698389038988C
:1036B00080F31088FBE041F2D420C2F200000188C0
:1036C00040F2D022C2F2000202EB8113890151586C
:1036D0005A68D3F808C0D3F80CE01C695D692C95D2
:1036E0002B94CDF8A8E0CDF8A4C028922791996931
:1036F000DA69D3F820C0D3F824E09C6ADD6A3295F9
:103700003194CDF8C0E0CDF8BCC02E922D91196B4C
:103710005A6BD3F838C0DB6B349233913693CDF8C3
:10372000D4C00188013101F03F01018041F2D02075
:10373000C2F200000188013901800088002818BF0A
:10374000012041F2D221C2F200010870269839907E
:10375000399880F310889DF89C0001460028259137
:1037600008D0FFE7259801283CD0FFE725980228DC
:1037700065D09AE028992D982E9A2F9B2491239317
:103780002292FCF7F4FE41EC100B22988DED200BF9
:10379000FCF7EDFE41EC100B23988DED1E0BFCF7B2
:1037A000E6FE41EC100B30988DED1C0BFCF7DFFEB4
:1037B00041EC100B684680ED040B9DED1C0B80ED79
:1037C000020B9DED1E0B80ED000B9DED200B53ECCD
:1037D000102B48F27D30C0F600002499FEF774FCEF
:1037E0001B9063E029993198329A339B1A9119936F
:1037F0001892FCF7BCFE41EC100B18988DED160BDF
:10380000FCF7B5FE41EC100B19988DED140BFCF78D
:10381000AEFE41EC100B684680ED020B9DED140BE3
:1038200080ED000B9DED160B53EC102B48F29B30F6
:10383000C0F600001A99FEF747FC139036E029996C
:103840009DF8A8202B9B2C98DDF8D0C012906046E4
:10385000119110920F93FCF78AFE41EC100B3598F2
:103860008DED0C0BFCF783FE41EC100B36988DEDC3
:103870000A0BFCF77CFE41EC100B684680ED060B52
:103880009DED0A0B80ED040B9DED0C0B80ED020B02
:103890001299016048F2B430C0F600001199109AF4
:1038A0000F9BFEF711FC099000E0FFE7E9E63AB054
:1038B000B0BD00002DE9F04186B0014603900398A9
:1038C0000028009101D1FFE777E0EFF3108004902A
:1038D0000498019072B641F2D620C2F2000001882D
:1038E000ADF80A10BDF80A1040F2D022C2F2000270
:1038F00002EB81138901DDF80CC0DCF810E0DCF884
:103900001440DCF80050DCF80460DCF80870DCF8E7
:103910000C8055505C61C3F810E0C3F80C809F60C8
:103920005E60DCF81810DCF81C20DCF820E0DCF825
:103930002440DCF82850DCF82C60DE629D625C627A
:10394000C3F820E0DA619961DCF83010DCF834204B
:10395000DCF838E0DCF83CC0C3F83CC0C3F838E021
:103960005A6319630188013101F03F01018041F27E
:10397000D020C2F2000000883F2808D8FFE741F2BB
:10398000D020C2F2000001880131018009E041F23B
:10399000D420C2F200000188013101F03F01018012
:1039A000FFE741F2D220C2F200000121017001982C
:1039B0000590059880F31088FFE706B0BDE8F08118
:1039C00080B5BCB041F26430C2F20000C168026947
:1039D0003B923A9141F21831C2F2000191ED000A96
:1039E0009DED3A1A30EE410A8DED390A9DED3B0A04
:1039F00041F2D821C2F2000191ED041A30EE410AE1
:103A00000590FFF71DF98DED380A05980178042916
:103A100011D0FFE79DED3B0A41F2D820C2F2000031
:103A200080ED040A40F29C21C2F20001096801F510
:103A30007A71016369E140F29C20C2F200000068E3
:103A400041F2D821C2F20001096B88422BD3FFE773
:103A500000208DF8A00040F29C20C2F20000016816
:103A600029919DED3A0A8DED2E0A9DED3B0A8DEDD3
:103A70002F0A9DED390A8DED300A41F21831C2F25C
:103A80000001896B319128A904900846FFF712FFC5
:103A90000498016801F57A7141F2D82EC2F2000E45
:103AA000CEF83010FFE741F2D820C2F200000078D3
:103AB00000284AD1FFE79DED380AB7EE081AB4EEA8
:103AC000C10AF1EE10FA40DBFFE741F2D820C2F262
:103AD00000000121017042680132426040F29C22E4
:103AE000C2F20002126882600022C26090ED040AF5
:103AF00080ED050A9DED3B0A80ED060A9DED3A0A30
:103B000080ED070A80ED080A3A9B43629DED390A71
:103B1000039002910192FFF793F8039880ED0A0A4F
:103B200001998185029A8DF8602043681A9390ED7F
:103B3000050A8DED220A90ED060A8DED230AC36970
:103B4000249318A8FFF7B6FEFFE741F2D820C2F28F
:103B500000000078002800F0D180FFE79DED3A0AD0
:103B600041F2D820C2F2000090ED081AB4EEC10A6A
:103B7000F1EE10FA07DAFFE73A9841F2D821C2F2E3
:103B800000010862FFE79DED3A0A41F2D820C2F237
:103B9000000090ED091AB4EEC10AF1EE10FA07DD4B
:103BA000FFE73A9841F2D821C2F200014862FFE7EC
:103BB0009DED390AFFF744F841F2D82EC2F2000E0B
:103BC0009EED0A1AB4EEC10AF1EE10FA0BDDFFE722
:103BD0009DED390AFFF734F841F2D82EC2F2000EFB
:103BE0008EED0A0AFFE79DED390AFFF729F8B7EED7
:103BF000001AB4EEC10AF1EE10FA2EDCFFE741F232
:103C0000D820C2F20000808D042808D8FFE741F2D6
:103C1000D820C2F20000818D01318185FFE741F299
:103C2000D820C2F20000808D052815D3FFE741F2AD
:103C3000D820C2F20000C06800280DD1FFE740F292
:103C40009C20C2F20000006841F2D821C2F20001BB
:103C50008A68801AC860FFE706E041F2D820C2F205
:103C6000000000218185FFE741F2D820C2F2000068
:103C7000C06800280CD1FFE741F2D820C2F2000052
:103C800080684FF49671FEF703FF002835D0FFE7F8
:103C900040F29C20C2F20000006841F2D821C2F23A
:103CA00000014A688B68C01A1790C868002803464C
:103CB00018BF01238DF85B304FF002038DF81830E8
:103CC00008929DF85B208DF82420179A0A920B9099
:103CD00091ED080A8DED130A91ED090A8DED140A94
:103CE000886A159006A80091FFF7E4FD4FF00000E8
:103CF000009908708885C860FFE7FFE73B9841F2AC
:103D0000D821C2F200010861FFE73CB080BD00008D
:103D100080B58EB0B0EE412AB0EE603AB0EE404AC7
:103D20008DED0D0ACDED0C0A8DED0B1A41F2183018
:103D3000C2F2000090ED020A90ED0D1A8DED0A0A14
:103D4000016B09918DED081AC06B07909DED070A74
:103D50009DED091AB4EEC10AF1EE10FA8DED032AB9
:103D60008DED023A8DED014A0ADBFFE79DED070A72
:103D70009DED081AB4EEC10AF1EE10FA0BDDFFE773
:103D80009DED0B0ADDED090A9DED081AFEF718FFFF
:103D90008DED070AFFE79DED0D0A9DED0C1A30EE43
:103DA000410A8DED060A9DED070A9DED0B1A30EED6
:103DB000410A9DED0A1A9DED062A01EE420A8DED9B
:103DC000050A9DED080A9DED091A30EE410A8DEDB8
:103DD000040A9DED050A9DED041AB4EEC10AF1EE48
:103DE00010FA03DDFFE70498059013E09DED050A46
:103DF0009DED041AB1EE411AB4EEC10AF1EE10FACB
:103E000007DAFFE79DED040AB1EE400A8DED050AE1
:103E1000FFE7FFE7059841F21831C2F2000108619F
:103E20009DED0B0ADDED090A9DED081A0091FEF7E4
:103E3000C7FE009880ED0E0A0EB080BD80B590B030
:103E4000B0EE401A8DED0F0A41F21830C2F20000B8
:103E500081680E9190ED030A8DED0D0A016B0C91B6
:103E600090ED0D0A8DED0B0A006C0A909DED0C0A89
:103E7000B5EEC00AF1EE10FA8DED021A0ADDFFE789
:103E80009DED0C0A9DED0B1AB4EEC10AF1EE10FA8D
:103E90000BDBFFE747F60040C4F292700C9047F648
:103EA0000040C4F612000B90FFE79DED0A0AB5EE44
:103EB000C00AF1EE10FA05DCFFE70020C4F27A40F8
:103EC0000A90FFE79DED0E0AB5EEC00AF1EE10FA7A
:103ED00005DCFFE70020C4F220100E90FFE79DED07
:103EE0000D0AB5EEC00AF1EE10FA03DAFFE7002082
:103EF0000D90FFE741F21830C2F20000C06B09904C
:103F00009DED090A9DED0C1AB4EEC10AF1EE10FA0E
:103F10000ADBFFE79DED090A9DED0B1AB4EEC10A1D
:103F2000F1EE10FA0FDDFFE741F21830C2F20000A7
:103F300090ED0E0ADDED0C0A9DED0B1AFEF740FE2A
:103F40008DED090AFFE741F21830C2F20000806BE4
:103F500008909DED080A9DED0C1AB4EEC10AF1EE31
:103F600010FA0ADBFFE79DED080A9DED0B1AB4EE8F
:103F7000C10AF1EE10FA03DDFFE709980890FFE7A8
:103F800041F21830C2F2000090ED040A9DED0D1AC6
:103F90009DED0F2A01EE020A8DED070A9DED0E0A36
:103FA0009DED071A00EE021A8DED061A9DED090A25
:103FB0009DED061A30EE410A8DED050A9DED050ACC
:103FC000DDED0C0A9DED0B1AFEF7FAFD8DED040AEE
:103FD0009DED050A9DED041A30EE410AFEF730FE14
:103FE0009FED3A1AB4EEC10AF1EE10FA13DDFFE7C5
:103FF0009DED090A9DED041A30EE410A9DED0E1A61
:104000009DED0F2A01EE420A41F21830C2F2000083
:1040100080ED040A06E0079841F21831C2F200016F
:104020000861FFE79DED040A9DED081A30EE410A94
:104030008DED030A9DED030A9DED0A1AB4EEC10A47
:10404000F1EE10FA0DDDFFE79DED080A9DED0A1A6D
:1040500030EE010A41F21830C2F2000080ED0E0A83
:1040600020E09DED030A9DED0A1AB1EE411AB4EE6F
:10407000C10AF1EE10FA0DDAFFE79DED080A9DED99
:104080000A1A30EE410A41F21830C2F2000080ED07
:104090000E0A06E0049841F21831C2F2000188636A
:1040A000FFE7FFE741F21830C2F2000090ED0E0A80
:1040B000DDED0C0A9DED0B1A0190FEF781FD0198D4
:1040C00080ED0E0A90ED0E0A10B080BDBD3786352A
:1040D00080B584B001468DF80F0040F2A420C2F2F2
:1040E00000000078C007002802911DD1FFE740F2D0
:1040F000046002F0E5FA41F20000C4F20100102170
:1041000003224FF4006E01907346CDF800E0FEF7F5
:10411000D1FD01980099FEF7B5FD40F2A420C2F24E
:10412000000001210170FFE740F2A520C2F200006B
:10413000007800F001009DF80F1001F001018842A5
:1041400001D1FFE71DE09DF80F0000F0010040F2F3
:10415000A521C2F200010870002809D0FFE741F252
:104160000000C4F201004FF40061FEF797FD08E083
:1041700041F20000C4F201004FF40061FEF782FD3D
:10418000FFE704B080BD000080B5082000F0C0FD4E
:1041900080BD000081B041F26430C2F2000090EDB9
:1041A000030A9FED1C1AB4EEC10AF1EE10FA04DD09
:1041B000FFE701208DF8030027E041F26430C2F2EE
:1041C000000090ED040A9FED141AB4EEC10AF1EE5E
:1041D00010FA04DDFFE701208DF8030015E041F23D
:1041E0006430C2F2000090ED020A9FED0C1AB4EEAA
:1041F000C10AF1EE10FA04DAFFE701208DF803009E
:1042000003E000208DF80300FFE79DF8030001B0F4
:10421000704700BF00006842000024420080AC43A9
:1042200080B582B001468DF806009DF80600C007F3
:104230000028009109D1FFE741F26430C2F200008A
:10424000002141618DF807101DE041F26430C2F297
:104250000000406900280BD1FFE740F29C20C2F229
:104260000000006841F26431C2F200014861FFE7DA
:1042700041F26430C2F2000040693221FEF708FCCE
:104280008DF80700FFE79DF8070002B080BD000031
:1042900041F26430C2F2000090ED020A9FED041A70
:1042A0000020B4EEC10AF1EE10FAA8BF0120704759
:1042B0000000B44380B588B001468DF81F0042F677
:1042C0000040C4F2010000220690059111460492BC
:1042D00003F052F806980499049A02F019FE9DF82A
:1042E0001F00202110F0010F18BF10210698049A1A
:1042F00003911146039A02F0BBFD4FF001000699AD
:1043000002900846029902F02FFF0698029902F0E7
:1043100019FFFFE742F60040C4F20100012102F05C
:1043200033FF002801D1FFE7F4E742F60040C4F272
:10433000010001210190009102F016FF42F6244095
:10434000C4F20100002101600198009903F014F803
:1043500008B080BD80B594B00146139013980268F0
:104360004368806840F2C02CC2F2000CCCF80020F8
:10437000CCF80430CCF808000491CDF80CC001F062
:1043800069FD40F20B6002F09BF902F0B5FB0E9064
:104390000E9803990A68B0FBF2F0013841F2EC3252
:1043A000C2F2000210600020ADF83C00ADF83E0003
:1043B000ADF8400012681192ADF848008DF84A003F
:1043C00042F60042C4F201020FA902901046019287
:1043D00002F0F4FE01200A900420ADF82C000298AF
:1043E000ADF82E00ADF83000ADF83200ADF8340075
:1043F0000AAA0198029902F0C9FB60200199009075
:1044000008460299009A02F033FD01980299029A37
:1044100002F07EFD08220198029902F0A5FD4FF4FA
:104420000060ADF814004FF4806006900298ADF87B
:104430002200039948680E99FDF7EAFAADF81C00CE
:104440004FF48050ADF824000298ADF81E00ADF88E
:10445000200005A9019802F075FB0198009902F06F
:1044600075FF019802F062FB019802F05FFE02986E
:1044700000F002F814B080BD80B584B001468DF81C
:104480000F009DF80F00C0070028029106D0FFE73B
:104490000120FFF70FFF00F013F80EE042F6004096
:1044A000C4F2010000210190009102F065FF019823
:1044B0000099009A02F02CFDFFE704B080BD0000D7
:1044C00080B586B042F60040C4F20100002104909D
:1044D000039102F051FF60220498039902F0C8FC96
:1044E00040F2C020C2F2000090ED020AFEF710FA7E
:1044F000ADF81600BDF816200498039902F008FDE7
:104500000120049902900846029902F02DFE0498B9
:10451000029902F017FEFFE742F60040C4F20100E4
:10452000012102F031FE002801D1FFE7F4E742F655
:104530000040C4F2010001210190009102F014FE3C
:1045400042F62440C4F20100002101600198009964
:1045500002F012FF06B080BD80B586B004A8B0EEB0
:10456000401A80ED010A90ED010ADFED120A9FED7D
:10457000122A8DED021AB0EE421A0190FDF754FB9B
:10458000019880ED000A90ED000A40F2C02EC2F2C0
:10459000000E8EED020AFEF7BBF9ADF80E00BDF875
:1045A0000E2042F60040C4F20100002102F0B0FCEF
:1045B00006B080BD00000000A4707D3F80B588B0CB
:1045C0000A46034607908DF81B10079800280292B0
:1045D000019301D1FFE74EE002F08EFA05900598B5
:1045E000002801D1FFE746E005980799B0FBF1F0FC
:1045F00004900498012803D8FFE702200490FFE705
:104600000498B0F1011F04D3FFE74FF48030049009
:10461000FFE70498411E41F2EC32C2F20002116041
:104620000599B1FBF0F040F2C021C2F20001086030
:10463000106842F62C42C4F20102106091ED020AA9
:10464000FEF766F9ADF80E00BDF80E2042F6004008
:10465000C4F20100002102F05BFC9DF81B00C007C2
:10466000002808D0FFE742F60040C4F20100012113
:1046700002F068FDFFE708B080BD000080B586B09D
:104680000146B0EE401A8DED050A8DF813009DED40
:10469000050A41F21830C2F20000D0ED0C0A90ED8C
:1046A0000D2A8DED021AB0EE421A01910090FEF72C
:1046B00087FA8DED030A9DED030A009880ED0E0A3E
:1046C000BCEEC00A10EE101A9DF813E00EF0010EB9
:1046D00008467146FFF772FF06B080BD80B582B014
:1046E00041F2B030C2F2000000214170817041609F
:1046F000DFED060A9FED060A8DED010A9DED011A18
:10470000FEF71EFA02F0A0F802B080BD007C9247CE
:104710000050434880B588B0B0EE401A8DED070ACE
:1047200041F2B030C2F200004FF49671C1609FEDCB
:104730002A0A9FED2A2A8DED040AB0EE420ADDED29
:10474000040A8DED031AB0EE421A8DED022A019093
:10475000FEF7F6F98DED060A9DED070ADDED040A78
:104760009DED021AFEF7ECF98DED050A0020019986
:10477000887048609DED060A81ED040A059848613D
:10478000C86800280AD0FFE79DED060A9DED051ACE
:10479000B4EE410AF1EE10FA0BD1FFE741F2B0306E
:1047A000C2F20000002141709DED050A02F04CF8B4
:1047B00010E041F2B030C2F200000121417040F23D
:1047C0009C21C2F20001096881609DED060A02F099
:1047D0003BF8FFE708B080BD007C9247005043489B
:1047E00080B541F2B030C2F200000078C007002866
:1047F0000AD1FFE700F042F841F2B03EC2F2000EEB
:1048000001208EF80000FFE780BD000080B582B077
:1048100041F2B030C2F200000078C00700280BD18E
:10482000FFE79FED0B0ADFED0B0A9FED0B1AFEF77A
:1048300087F98DED010A06E041F2B030C2F20000C6
:1048400080690190FFE79DED010A02B080BD00BFC5
:104850000050C347007C92470050434880B541F266
:10486000B030C2F200000078C007002801D1FFE795
:1048700002E0FFF733FFFFE780BD000080B584B0A2
:1048800041F2B030C2F200000021417081704160FD
:1048900081604FF49671C1609FED110A9FED111A6E
:1048A0008DED030AB0EE410ADDED030A8DED021A2B
:1048B0000190FEF745F9019880ED040A9FED0A0A80
:1048C000DDED030A9DED021AFEF73AF9019880ED3D
:1048D000050A90ED040A01F0B7FF04B080BD00BFE7
:1048E000007C9247005043480050C34780B582B0D7
:1048F000B0EE401A8DED010A41F2B030C2F2000074
:104900000078C00700288DED001A03D1FFE7FFF7FC
:1049100067FFFFE79DED010AFFF7FCFE02B080BDD7
:1049200041F2B030C2F200000078C007002801D187
:10493000FFE708E041F2B030C2F200000021417010
:1049400081704160FFE7704780B586B041F2B030BA
:10495000C2F200004078C007002801D1FFE76AE0FA
:1049600041F2B030C2F200008078C007002809D0C0
:10497000FFE741F2B030C2F2000090ED060A01F00C
:1049800063FF58E040F29C20C2F20000006841F250
:10499000B031C2F200018A68C968801A0590059892
:1049A00088420BD3FFE741F2B030C2F20000002191
:1049B000417090ED050A01F047FF3CE041F2B03054
:1049C000C2F20000C068002811D0FFE79DED050A83
:1049D000B8EE400A41F2B030C2F2000090ED031A86
:1049E000B8EE411A80EE010A8DED010A04E0B7EE3F
:1049F000000A8DED010AFFE79DED010A8DED040A25
:104A00009DED040AFDF7E2FF8DED030A41F2B03E91
:104A1000C2F2000E9EED040A9EED051A31EE401A18
:104A20009DED032A01EE020A8DED020A9DED020AB8
:104A300001F00AFFFFE706B080BD000080B541F23B
:104A4000B030C2F200000078C007002803D1FFE7B1
:104A5000FFF7C6FEFFE7FFF777FF80BD41F2CC30DE
:104A6000C2F200000078C007002816D1FFE741F22B
:104A7000CC30C2F200000021417081704160816041
:104A8000C822C26045F20002C4F6430202614261DC
:104A90008261017701210170FFE7704781B041F227
:104AA000CC30C2F200000078C007002804D1FFE734
:104AB00001208DF8030009E041F2CC30C2F2000081
:104AC000007F00F001008DF80300FFE79DF8030070
:104AD00001B0704741F2CC30C2F2000000214170B9
:104AE000817041608160017745F20001C4F64301A5
:104AF0008161704780B588B0B0EE401A8DED070A2D
:104B000041F2CC30C2F200000078C00700288DEDE1
:104B1000041A03D1FFE7FFF7A1FFFFE741F2CC3012
:104B2000C2F200004078C007002801D0FFE75DE036
:104B300041F2CC30C2F20000C821C1609DED070AED
:104B40009FED2B1A9FED2B2AF0EE410A8DED031AF3
:104B5000B0EE421A02908DED012AFDF7F1FF8DEDC6
:104B6000060A9DED010ADDED030A9DED011AFDF730
:104B7000E7FF8DED050A00200299887048609DEDE1
:104B8000060A81ED040A9DED050A81ED050A087704
:104B9000C86800280AD0FFE79DED060A9DED051ABA
:104BA000B4EEC10AF1EE10FA0FDBFFE741F2CC30B0
:104BB000C2F2000000214170012101770599816155
:104BC0009DED050A01F040FE10E041F2CC30C2F24A
:104BD00000000121417040F29C21C2F200010968ED
:104BE00081609DED060A01F02FFEFFE708B080BD51
:104BF000007C92470050434880B586B041F2CC30EB
:104C0000C2F200004078C007002801D1FFE76CE045
:104C100041F2CC30C2F200008078C007002809D0F1
:104C2000FFE741F2CC30C2F2000090ED060A01F03D
:104C30000BFE5AE040F29C20C2F20000006841F2F4
:104C4000CC31C2F200018A68C968801A05900598C3
:104C500088420DD3FFE741F2CC30C2F200000021C0
:104C600041700121017790ED050A01F0EDFD3CE076
:104C700041F2CC30C2F20000C068002811D0FFE73A
:104C80009DED050AB8EE400A41F2CC30C2F20000B8
:104C900090ED031AB8EE411A80EE010A8DED010A7B
:104CA00004E0B7EE000A8DED010AFFE79DED010A71
:104CB0008DED040A9DED040AFDF788FE8DED030AD3
:104CC00041F2CC3EC2F2000E9EED040A9EED051AA2
:104CD00031EE401A9DED032A01EE020A8DED020A23
:104CE0009DED020A01F0B0FDFFE706B080BD0000B7
:104CF00080B541F2CC30C2F200000078C007002835
:104D000003D1FFE7FFF7AAFEFFE7FFF775FF80BDBE
:104D100080B58EB001468DF8370041F26430C2F2A2
:104D2000000000789DF8372090420C9101D1FFE7F8
:104D30005BE19DF8370041F26431C2F20001087076
:104D400040F29C22C2F2000212684A600146082822
:104D50000B9100F231810B99DFE811F009003D0061
:104D60004E0064008400E000B400CA001601FFF7A2
:104D700075FDFFF7AFFE4FF0000E7046CDF828E04E
:104D8000FFF77AFB0A98FFF7A3F941F21830C2F255
:104D9000000090ED0D0A01200990FFF76FFC41F231
:104DA0006430C2F20000DDF828E0C0F818E0C0F876
:104DB0001CE0C0F820E0C0F814E0C0F824E0C0F81F
:104DC00028E0C0F82CE0099980F83110C0F834E0F0
:104DD00080F8481009E101200890FFF779F90020D8
:104DE000FFF74AFB41F21830C2F2000090ED0D0AC5
:104DF0000898FFF743FCF8E040F29C20C2F2000064
:104E0000006841F26431C2F200018861012007901C
:104E1000FFF75EF90798FFF72FFB9FED770AFFF783
:104E200065FDE2E001200690FFF752F940F29C2078
:104E3000C2F20000006841F2643EC2F2000ECEF8F9
:104E400024000020CEF82800FFF7E0FC41F21830E3
:104E5000C2F2000080ED0E0A90ED0E0A0698FFF7F0
:104E60000DFCC2E00120FFF733F940F29C20C2F2B2
:104E70000000006841F2643EC2F2000ECEF820004D
:104E800041F21830C2F20000D0ED0C0A90ED0D1A7C
:104E900090ED0E0ACDF814E00490FDF791FE049811
:104EA00080ED0F0A4FF0000E0599C1F83CE0C1F803
:104EB00040E0D1ED030A90ED0E1A9FED4E0AFEF789
:104EC00027FF92E040F29C20C2F20000006841F20D
:104ED0006431C2F20001C8610120FFF7F9F841F224
:104EE0001830C2F2000090ED0E0AFFF703FE7CE0DE
:104EF00040F29C20C2F20000006841F26431C2F22C
:104F00000001C8610120FFF7E3F841F21830C2F256
:104F1000000090ED0E0AFFF7EDFD66E00120039022
:104F2000FFF7D6F841F26430C2F2000040F2000E02
:104F3000C4F2302EC0F838E041F2183EC2F2000E42
:104F4000DEED0C0A9EED0D1A9EED0E0A0290FDF7A5
:104F500037FE029880ED110A4FF0000E80F831E024
:104F600080F848E00398FFF787FA9FED210A03983D
:104F7000FFF784FB40F29C20C2F200000068DDF8DD
:104F800008E0CEF8340030E0FFF768FCFFF7A2FD40
:104F90004FF0000E7046CDF804E0FFF76DFA01986F
:104FA000FFF796F841F21830C2F2000090ED0D0ABA
:104FB0000120FFF763FB18E0FFF750FC4FF0000EF5
:104FC0007046CDF800E000F045FB0098FFF754FA7A
:104FD0000098FFF77DF841F21830C2F2000090ED22
:104FE0000D0A0120FFF74AFBFFE70EB080BD00BFAE
:104FF00000504348000030420050C34780B582B0A3
:1050000040F20E00C2F2000001889FED130ADFEDAE
:10501000130A01900846FCF7BDFE41F26430C2F26B
:10502000000080ED030A0199B1F802E0009070469B
:10503000FCF782FE009880ED040A00F0E1FA009887
:1050400080ED020AC16841F2183EC2F2000ECEF8AD
:10505000041002B080BD00BF0038C74700609F4504
:1050600080B58AB000200990FBF736FC4FF4A060B1
:1050700000F088F94FF46120FDF73EF801F0D2FC12
:1050800048F21830C0F60000D0F800E041688068AF
:1050900008900791CDF818E006A8FFF75BF9B6EE87
:1050A000000A00F0E5F94FF46020FCF769FAFCF71C
:1050B00075FAFCF789FAFCF7B5F9FBF7DFFE00F0AB
:1050C00021FF00F055FF002808D1FFE700F05EFF48
:1050D000002803D0FFE700F009FFFFE700F076FFAC
:1050E0008DF81700FCF7B6FB8DF816009DF8170039
:1050F000C007002806D0FFE79DF81600C00700286B
:105100000AD1FFE748F23A30C0F60000FCF7DCFFB6
:105110000290FFE700BFFDE700F0FCFAFDF7ACFEF0
:105120004FF47A70FDF710F900F06EFAFFE70020F7
:105130000490039072B640F2CC20C2F200000068E6
:10514000002809D0FFE740F2CC20C2F2000001683D
:10515000049100210160FFE740F2B420C2F2000098
:105160000068002809D0FFE740F2B420C2F2000036
:105170000168039100210160FFE762B6FFE7039831
:10518000411E0391002819D0FFE7FCF7DDF9FDF778
:10519000D9FEFCF719FADDF80CE0BEF1150F0CD3BF
:1051A000FFE7039840F2B021C2F200010A68104400
:1051B0001438086014200390FFE7E0E7FFE7049845
:1051C000411E0491002815D0FFE7FCF7ADFDDDF886
:1051D00010E0BEF1060F0CD3FFE7049841F238410E
:1051E000C2F200010A6810440538086005200490E6
:1051F000FFE7E4E740F29C20C2F20000006840F2C2
:10520000A821C2F200010968401AB0F57A7F13D3D1
:10521000FFE740F29C20C2F20000016840F2A822A1
:10522000C2F200021160016848F22830C0F60000A6
:10523000FCF74AFF0190FFE7FCF76AFE002803D065
:10524000FFE7FCF7CFFFFFE771E7000080B587B00D
:1052500013468C4686468DF81B008DF81A108DF883
:10526000192000200590049003904EF60C50CEF2C9
:105270000000006800F4E060B0F5E06F0293CDF844
:1052800004C0CDF800E005D1FFE700200490042021
:10529000039043E04EF60C50CEF20000006800F49C
:1052A000E060B0F5C06F05D1FFE701200490032056
:1052B000039032E04EF60C50CEF20000006800F48D
:1052C000E060B0F5A06F04D1FFE7022004900390E6
:1052D00022E04EF60C50CEF20000006800F4E060D0
:1052E000B0F5806F05D1FFE7032004900120039003
:1052F00011E04EF60C50CEF20000006800F4E060C1
:10530000B0F5407F05D1FFE7042004900020039012
:1053100000E0FFE7FFE7FFE7FFE7FFE79DF81A0080
:105320000499C1F10401884005909DF81900039982
:10533000C1F104010F2222FA01F108400599084346
:10534000059005980001059005989DF81B104EF2F8
:105350000042CEF2000288549DF81B0000F01F01AD
:10536000012202FA01F14EF20012CEF2000242EAEC
:10537000D0004EF21C12CEF200021040016007B0C5
:1053800080BD000082B00146019001980022C0F269
:10539000FA5210434EF60C52CEF200021060009109
:1053A00002B0704780B590B001460F900F9800286A
:1053B000059101D1FFE759E040F2036001F080F967
:1053C00040F60040C4F20100182103224FF0010E04
:1053D0007346CDF810E0FDF76DFC40F2017001F06E
:1053E0006FF901F011FE0A900A980F99B0FBF1F0E5
:1053F000013841F2F031C2F2000108600020ADF83E
:105400002C00ADF82E00ADF8300009680D91ADF814
:1054100038008DF83A0040F20041C4F200010BAAB6
:10542000039008460291114601F0C8FE04980690C8
:105430000399ADF81E10ADF82210022206AB0298B7
:10544000114601921A4601F0A1FB602202980199CF
:1054500001F00EFD02980199039A01F059FD02989E
:1054600001F064FB029801F061FEFFE710B080BD1F
:1054700080B582B0B0EE401A8DED010A9DED010AB3
:10548000DFED120A9FED122A8DED001AB0EE421ADE
:10549000FCF70AFC8DED010A9DED010A41F2F03E98
:1054A000C2F2000E9EED001AB8EE411A20EE010A7B
:1054B000BDEEC00A10EE10EA40F20040C4F2000057
:1054C0000221724601F024FD02B080BD0000000000
:1054D000A4707D3F80B582B000F032F8002809D07A
:1054E000FFE741F2F430C2F20000002101628DF8C2
:1054F000071020E041F2F430C2F20000006A0028F8
:105500000ED1FFE740F29C20C2F20000006841F299
:10551000F431C2F20001086200208DF807000AE0B1
:1055200041F2F430C2F20000006AC821FDF788FAA7
:105530008DF80700FFE79DF8070002B080BD00006E
:1055400082B041F2F430C2F20000406B01909DED58
:10555000010A00209FED0D1AB4EEC10AF1EE10FA17
:1055600000900DDBFFE79DED010A9FED091A002079
:10557000B4EEC10AF1EE10FAD8BF01200090FFE7A7
:10558000009800F0010002B0704700BF0000AA427E
:105590000080854380B582B0FFF7D2FF002809D193
:1055A000FFE741F2F430C2F200000021C1618DF842
:1055B000071020E041F2F430C2F20000C069002878
:1055C0000ED1FFE740F29C20C2F20000006841F2D9
:1055D000F431C2F20001C86100208DF807000AE032
:1055E00041F2F430C2F20000C069C821FDF728FA88
:1055F0008DF80700FFE79DF8070002B080BD0000AE
:1056000080B500F013F880BD41F2F430C2F2000022
:10561000012101720078002807D1FFE741F2F43040
:10562000C2F200000021C160FFE7704741F2F43090
:10563000C2F2000090ED0F0A7047000080B582B002
:1056400001460190009100F09BF8032000F076F9EC
:1056500002B080BD80B582B001468DF8070040F2EF
:10566000AC20C2F200000078012222EA00008DF88E
:1056700006009DF80600C0070028009115D0FFE73E
:1056800040F2046001F01CF841F20000C4F2010095
:10569000102103224FF48063FDF70CFB40F2AC2095
:1056A000C2F2000001210170FFE79DF80600C0076B
:1056B00000280FD1FFE740F2AD20C2F200000078D1
:1056C00000F001009DF8071001F00101884201D1AE
:1056D000FFE71DE09DF8070000F0010040F2AD215A
:1056E000C2F200010870002809D0FFE741F2000073
:1056F000C4F201004FF48061FDF7D0FA08E041F2F6
:105700000000C4F201004FF48061FDF7BBFAFFE72F
:1057100002B080BD80B596B005A8442104900391E5
:10572000FAF76CFD00208DF8140041F2F431C2F25A
:10573000000102900846DDF810E001917146039ADD
:10574000FAF743FD44F62060FFF72CFE9FED060AB2
:10575000FFF78EFEFBF792FB02980199087000F0AC
:105760000FF816B080BD00BF0000000041F2F43019
:10577000C2F2000000780238B0FA80F040097047A9
:1057800080B582B09FED0B0A00F016F84FF0000EC6
:105790007046CDF804E0FFF75DFF41F2F430C2F24D
:1057A0000000DDF804E080F831E0C0F810E002B05D
:1057B00080BD00BF0000000080B582B0B0EE401A8E
:1057C0008DED010A9DED010AB5EEC00AF1EE10FA69
:1057D0008DED001A03DCFFE700200190FFE79DED4F
:1057E000010AFFF745FE02B080BD000041F2F4302F
:1057F000C2F200000021C1604161016170470000F8
:1058000080B588B0032006210291FBF7DDFB41F251
:10581000F431C2F20001A1F842000120DDF808E0F5
:1058200001917146FBF7D0FB0199A1F84000B1F856
:1058300040009FED3D0AFCF7C3F89FED3C1A30EEA7
:10584000010A8DED070A0198B0F842009FED380A71
:10585000FCF7B6F88DED060A9DED070A019880ED7C
:105860000D0A0699C16300218DF81710416B049150
:105870009DED040AB2EE041AB4EEC10AF1EE10FA7C
:105880001ADDFFE79DED040A9FED2A1A20EE010ABA
:105890009FED291A20EE010A8DED030A9DED060AFF
:1058A0009DED031A0020B4EEC10AF1EE10FAA8BF74
:1058B00001208DF81700FFE79DF81700C0070028AA
:1058C00027D0FFE741F2F430C2F20000406A00281E
:1058D0000BD1FFE740F29C20C2F20000006841F2C9
:1058E000F431C2F200014862FFE741F2F430C2F243
:1058F0000000406A3221FDF7A3F8002808D0FFE736
:1059000041F2F430C2F20000012180F82810FFE7D4
:1059100008E041F2F430C2F200000021416280F858
:105920002810FFE708B080BD71FDB84366664E41A0
:105930005C0F2F43F4FDB43F3333733F80B582B027
:1059400001468DF8070041F2F430C2F20000007801
:105950009DF807209042009101D1FFE752E09DF8A9
:10596000070041F2F431C2F20001087040F29C22BB
:10597000C2F2000212684A6000280ED1FFE741F22D
:10598000F430C2F200000021C16041618161016216
:1059900080F83010FFF7F4FE34E09DF8070001288E
:1059A00009D1FFE741F2F430C2F200000021416169
:1059B0008161016225E09DF80700022808D1FFE718
:1059C00041F2F430C2F2000000218161016217E06F
:1059D0009DF80700032812D1FFE740F29C20C2F295
:1059E0000000006841F2F431C2F20001C8620120F7
:1059F0004872002081F83000FFF7C2FEFFE7FFE7A2
:105A0000FFE7FFE702B080BD80B58AB009A8079024
:105A1000FFF7F6FE41F2F430C2F20000C06B0990CD
:105A2000079890ED000A9FEDD41AB4EEC10AF1EE8A
:105A300010FA07DBFFE748F27530C0F60000FFF709
:105A4000FDFDFCE141F2F430C2F2000000780146B5
:105A50000328069100F2ED810699DFE811F00400B9
:105A600082002D01A20141F2F430C2F20000007A5E
:105A7000C00700280ED1FFE7FFF782FE41F2F43E97
:105A8000C2F2000E0020CEF80C00CEF81400CEF8C2
:105A90001C00D4E1FFF77EFD002805D1FFE7FFF7EA
:105AA0006FFEFFF7A3FECAE141F2F430C2F200003C
:105AB00090F83100C00700280FD1FFE741F2F43021
:105AC000C2F2000090F82800C007002805D1FFE7C7
:105AD000FFF756FEFFF78AFEB1E141F2F430C2F261
