:020000040800F2
:1000000070080020450100086D0900085D0900081E
:1000100069090008E9070008790C000800000000E1
:10002000000000000000000000000000750900084A
:10003000590900080000000071090008790900084A
:100040005F0100085F0100085F0100085F01000810
:100050005F0100085F0100085F0100085F01000800
:100060005F0100085F0100085F0100087D080008CB
:10007000F10800085F0100085F0100085F01000847
:100080005F0100085F0100085F0100085F010008D0
:100090005F0100085F0100085F0100085F010008C0
:1000A000610B00085F0100085F0100085F010008A4
:1000B0005F0100085F0100088D0B00085F01000868
:1000C0005F0100085F0100085F0100085F01000890
:1000D0005F0100085F0100085F0100085F01000880
:1000E0005F0100085F0100085F0100085F01000870
:1000F0005F0100085F0100085F0100085F01000860
:100100005F0100085F0100085F0100085F0100084F
:100110005F0100085F010008C50B00081D0C000806
:100120005F0100085F0100085F0100085F0100082F
:10013000DFF80CD000F00EFB0048004749500008E3
:10014000700800200648804706480047FEE7FEE7A3
:10015000FEE7FEE7FEE7FEE7FEE7FEE7FEE7FEE777
:10016000FD0A0008310100082DE9F05F0546002076
:1001700092469B4688460646814640241BE0284618
:1001800041464746224600F017FA53465A46C01ADF
:10019000914110D311461846224600F0FEF92D1A5F
:1001A00067EB01084F4622460120002100F0F5F9D7
:1001B00017EB00094E41201EA4F10104DFDC484684
:1001C00031462A464346BDE8F09F40EA01039B07BB
:1001D00003D009E008C9121F08C0042AFAD203E0BC
:1001E00011F8013B00F8013B521EF9D27047D2B220
:1001F00001E000F8012B491EFBD270470022F6E710
:1002000010B513460A4604461946FFF7F0FF20468C
:1002100010BD2DE9FE4F804681EA0300C00F0C4659
:10022000009021F0004123F00045B8EB0200A94105
:1002300005D24046214690461C460B46024623F016
:100240000040104347D0270DC7F30A00C3F30A51FB
:100250000290401A019040286BDAC3F3130040F477
:10026000801B0098924620B10023D2EB030A63EB77
:100270000B0B01985946C0F14002504600F08DF931
:1002800006460D4650465946019A00F0A5F910EB76
:1002900008006141002487EA115284EAE7731A4397
:1002A00040D0009A62B3019A012A4FEA075215DC46
:1002B000001B61EB02014FF0004202EA0752CDE958
:1002C0000042001C41F5801132462B4600F0C3F974
:1002D00003B0BDE8F08F40462146F9E7001B61EB13
:1002E0000201001C41F5801300185B412018A2F5A3
:1002F000001747EB030140EAD570B6196D4111E0D4
:100300006D084FEA360645EAC0754FEA0752001BF2
:1003100061EB0201001C41F5801149084FEA3000F1
:100320000019514132462B4603B0BDE8F04F00F0B2
:1003300083B90098012240000023D0EB020263EB56
:10034000E073009821464FEAE074B8EB000061EBDF
:100350000401E9E783F000435BE781F0004158E7DF
:100360002DE9FE4F81EA030404F0004421F000412E
:1003700000944FF0000B23F0004350EA01045ED0DC
:1003800052EA03045BD0C3F30A54C1F30A552C4468
:10039000A4F2F3340194A0FB0254C1F3130141F41D
:1003A0008011C3F3130343F4801301FB024400FBE9
:1003B000034E840A970A44EA815447EA8357A4FB10
:1003C000076802958D0A05FB07854FEA932C04FB0D
:1003D0000C542705029D4FEA065847EA1637B5EB3D
:1003E00008056EEB070C870E920E47EA811742EA6A
:1003F0008312A7FB0201B6EB0B0164EB00042B0D8B
:1004000043EA0C335E1844EB1C50DA465146E7FBD6
:100410000201C5F313044FEA0B3343EA14534FEAC6
:100420000432019C43EA0603A4F10C040294009CEC
:10043000CDE900B400F00FF903B0BDE8F08F002063
:100440000146F9E72DE9F04D81EA030404F0004B81
:1004500021F0004514464FF0000A23F0004150EA15
:10046000050220D054EA01021DD0C5F30A57024606
:10047000C5F31303C1F31300C1F30A5640F480150A
:1004800043F48013A7EB0608101BD64608F2FD388C
:1004900073EB050002D308F1010801E092185B41FB
:1004A000B8F1000F03DA00200146BDE8F08D00200E
:1004B0004FF48011064684460EE0171B73EB0507C8
:1004C00005D3121B63EB050306434CEA010C4908F4
:1004D0004FEA300092185B4150EA0107EDD152EA31
:1004E000030012D082EA040083EA0501084305D024
:1004F000101BAB4106D20122002306E000224FF080
:10050000004302E06FF0010253101AEB06004CEBBF
:10051000085110EB0A0041EB0B01BDE8F04D00F073
:100520008BB80EB540F2334102910021CDE90011A4
:100530000A460B4600F08FF803B000BDC1F30A5223
:1005400010B5C1F3130140F2FF3341F480119A4218
:1005500001DA002010BD40F233439A42A2F2334246
:1005600003DC524200F028F810BD904010BD30B5B9
:100570000B46014600202022012409E021FA02F561
:100580009D4205D303FA02F5491B04FA02F52844FB
:10059000151EA2F10102F1DC30BD202A04DB203A55
:1005A00000FA02F1002070479140C2F1200320FAC6
:1005B00003F3194390407047202A04DB203A21FAC4
:1005C00002F00021704721FA02F3D040C2F120026C
:1005D0009140084319467047202A06DBCB17203A82
:1005E00041FA02F043EAE07306E041FA02F3D04038
:1005F000C2F12002914008431946704710B54100EE
:100600000CD0C0F3C751962908DC7E2909DC06DB33
:10061000410204D000F0004040F07E5010BD0020A8
:1006200010BDC1F19604C4F1200100FA01F1E040CF
:1006300000F0A2F8A04010BD10B5141E73F1000424
:1006400008DA401C41F1000192185B411A4301D1C4
:1006500020F0010010BD2DE9F04D92469B4611B1EE
:10066000B1FA81F202E0B0FA80F220329046FFF750
:1006700094FF04460F4640EA0A0041EA0B01534644
:100680005A46084313D0114653EA010019D0C8F165
:1006900040025046FFF790FF05460E465046594629
:1006A0004246FFF77AFF084305D0012004E02046C8
:1006B0003946BDE8F08D0020054346EAE0762C433C
:1006C00037430A986305E40AA0EB08000022FD0AFC
:1006D00044EA47540A3002D500200146E9E7010503
:1006E00010196941DDE9084500196941BDE8F04D7F
:1006F000A2E7C1F30A52C1F3130140F2FF3341F400
:1007000080119A4202DA00200146704740F23343DA
:100710009A42A2F2334202DC5242FFF74DBFFFF78A
:100720003CBF000030B5041E71F1000404DB4FF043
:100730000044404264EB0101141E73F1000405DB28
:100740001C464FF00043524263EB0403994208BF3A
:10075000904230BD064C074D06E0E06840F00103D2
:1007600094E8070098471034AC42F6D3FFF7E4FC56
:1007700044830008648300080029A8BF7047401C18
:10078000490008BF20F00100704710B4B0FA80FCA7
:1007900000FA0CF050EA010404BF10BC704749B1E4
:1007A000CCF1200421FA04F411FA0CF118BF012154
:1007B00021430843A3EB0C01CB1D4FEA00614FEA34
:1007C000102042BF002010BC704700EBC350104403
:1007D0000029A4BF10BC7047401C490008BF20F08E
:1007E000010010BC70470000FFE7FEE780B584B051
:1007F00005F02EFD4FF0100E7046CDF808E005F024
:1008000089FD029805F09EFD8DF80F009DF80F0000
:10081000012830D1FFE7022002F00AFB00200190FE
:1008200005F0DCFB019805F001FC4FF4806005F059
:10083000E9FB019805F03CFF019805F051FF4FF4EA
:1008400080304FF4501105F00DFF182005F062FDC7
:10085000FFE7192005F03AFD002801D1FFE7F8E78E
:10086000022005F05FFFFFE705F070FF002801D1CF
:10087000FFE7F9E7FFE704B080BD000080B5002086
:10088000C4F202000021042202F034F800280ED045
:10089000FFE70020C4F202000021042202F010F859
:1008A00040F2C020C2F2000000F0E4FEFFE70020AA
:1008B000C4F202000021022202F01CF800280FD02E
:1008C000FFE70020C4F202000021022201F0F8FF3D
:1008D00040F2C020C2F20000043000F0CBFEFFE77F
:1008E0000020C4F202000021012201F0E9FF80BDD6
:1008F00080B50020C4F202000121082201F0FAFFB5
:1009000000280FD0FFE70020C4F2020001210822D6
:1009100001F0D6FF40F22200C2F20000002180F870
:100920008012FFE70020C4F202000121022201F040
:10093000E1FF00280FD0FFE70020C4F202000121F0
:10094000022201F0BDFF40F22200C2F200000021AD
:1009500080F88012FFE780BD70470000FFE7FEE7E8
:1009600080B5FFF743FF80BDFFE7FEE7704700005B
:10097000704700007047000040F2A820C2F200005B
:1009800001680131016040F2D420C2F20000016828
:10099000013101607047000087B041F20400C4F2E9
:1009A00002000068C0F381000690069800280090BD
:1009B00008D0FFE7009801280ED0FFE70098022832
:1009C00014D08EE040F20400C2F2000041F2002197
:1009D000C0F27A0101608EE040F20400C2F2000031
:1009E00041F20021C0F27A01016084E041F204008A
:1009F000C4F20200006800F4803005900598B0F55C
:100A0000803F2CD1FFE741F22C00C4F202000068C5
:100A100000F0804004900498002806D1FFE741F2DE
:100A20000020C0F27A00019005E046F60040C0F2D6
:100A3000DC200190FFE741F20400C4F202000068EC
:100A400000F4003003900398B0F5003F06D1FFE7B3
:100A500040F60010C0F23D000190FFE705E040F6CF
:100A60000010C0F23D000190FFE741F20400C4F223
:100A700002000168C1F383410291006810F0006F29
:100A800005D0FFE7029840F010000290FFE741F226
:100A90000400C4F20200006810F0804F05D0FFE7A8
:100AA000029840F020000290FFE702980F2804D33C
:100AB000FFE702980130029003E0029802300290B2
:100AC000FFE702983E2803D3FFE73F200290FFE7AD
:100AD00001980299484340F20401C2F20001086003
:100AE00009E040F20400C2F2000041F20021C0F22D
:100AF0007A010160FFE707B07047000080B54EF64D
:100B00008850CEF20000016841F47001016041F2AA
:100B10000000C4F20200016841F00101016041F2ED
:100B20000401C4F2020100220A6041F22C01C4F265
:100B300002010A6001684FF6FF72CFF6F6621140BB
:100B4000016041F20801C4F202014FF41F020A6081
:100B5000016821F48021016005F0EAFE80BD0000FB
:100B600080B542F60040C4F20100802106F06CFB23
:100B700000280AD0FFE705F09DF942F60040C4F2D4
:100B80000100802106F050FBFFE780BD80B540F6F4
:100B90000000C4F20000012106F056FB01280FD12D
:100BA000FFE740F60000C4F20000012106F03CFB24
:100BB00040F2BC20C2F20000016801310160FFE791
:100BC00080BD000080B541F20000C4F200000121A8
:100BD00006F03AFB012808D1FFE741F20000C4F219
:100BE0000000012106F020FBFFE740F21000C2F2F6
:100BF0000000018801310180008814280DDBFFE727
:100C000040F21000C2F200000021018040F2DB201F
:100C1000C2F2000001210170FFE780BD80B541F202
:100C20000040C4F20000012106F00EFB012808D1AB
:100C3000FFE741F20040C4F20000012106F0F4FA9F
:100C4000FFE740F21200C2F200000188013101808A
:100C5000B0F90000B0F57A7F0DDBFFE740F212003B
:100C6000C2F200000021018040F2DA20C2F200004E
:100C700001210170FFE780BDFFE7FEE784B00A466F
:100C800003468DF80F0002919DF90F000028019294
:100C900000930ADBFFE7029800019DF90F104EF266
:100CA0000042CEF2000288540BE0029800019DF849
:100CB0000F1001F00F014EF61452CEF200028854CC
:100CC000FFE704B07047000080B540F2026005F015
:100CD00081FC40F60000C4F20100002103226023E1
:100CE00002F0D2F880BD00002DE9F04190B04FF441
:100CF000A06005F06FFC00200F900E900D900C90FE
:100D00000B900A90099040F2000EC4F2020E089077
:100D100070460899CDF81CE001F0A0FC42F24C406E
:100D2000C4F20100099008988DF83C0040F2C021FF
:100D3000C2F200010B9101218DF83D104FF4807E2D
:100D4000CDF828E04FF4806ECDF830E04FF0040E7F
:100D5000CDF834E04FF400520E928DF83E000A9B1D
:100D6000099ADDF82CC00C9C0D9D0E9E0F9FE84645
:100D7000C8F81070C8F80C60C8F80850C8F80440EB
:100D8000C8F800C00798DDF820C006916146CDF88C
:100D900014E001F0AFFC0798089901F03FFC022233
:100DA0000798089901F066FD07980899059A01F0DF
:100DB00061FD07980899069A01F082FD10B0BDE820
:100DC000F081000080B586B00146059040F2140025
:100DD000C2F2000000780028049101D0FFE761E032
:100DE000FFF772FFFFF780FF0B204FF0010E00218D
:100DF00003917146039ACDF808E004F0F7F940F248
:100E0000096005F0E7FB0220019005F089F842F245
:100E10000040C4F20100009000F07AFA039800F05C
:100E2000E5FB4FF480710098029A00F01FFD0098D6
:100E30000199039A00F01AFD0098039900F04EFA08
:100E400000980299019A00F009FA052204230098FB
:100E5000039900F033FC062200980299029B00F0EF
:100E60002DFC4FF460220098029900F0F3FA0098EC
:100E70000299029A00F0A6FA009800F091FA009800
:100E800000F0CCF9009800F07FFA0020C4F20200D4
:100E9000039901F083FB40F21400C2F200000299B2
:100EA0000170FFE706B080BD40F21400C2F20000FE
:100EB0000078002801D1FFE7FFE7704780B584B0D4
:100EC00040F20260039005F085FB039805F082FB79
:100ED00040F2046005F07EFB41F20000C4F2010024
:100EE0004FF0000E0321302302917146029ACDF893
:100EF00004E001F0C9FF40F60000C4F201008A23BB
:100F00000199029A01F0C0FF40F60040C4F20100CE
:100F100002230199029A01F0B7FF04B080BD0000DE
:100F200080B588B040F21500C2F2000000780028B9
:100F300001D0FFE797E0FFF7C1FF40F20A6005F03C
:100F400049FB0220059004F0EBFF42F60000C4F2DA
:100F50000100049000F0DCF90020039000F046FB53
:100F60000498039900F0BAF94FF480710498039A39
:100F700000F07CFC04980599039A00F077FC0120AE
:100F80000499029008460299029A00F067F94FF41A
:100F900060220498029900F05DFA04980299029A7E
:100FA00000F010FA049800F0FBF94FF47A70079003
:100FB000FFE742F60800C4F201000068002110F0CB
:100FC000010F019106D1FFE70798002818BF012003
:100FD0000190FFE70198C007002804D0FFE70798B9
:100FE00001380790E5E70798002801D1FFE73AE0CC
:100FF000012001F093FA42F60000C4F2010000F073
:101000000DF94CF250300690FFE742F60800C4F2AA
:1010100001000068002110F0080F009106D0FFE7E2
:101020000698002818BF01200090FFE70098C0072D
:10103000002804D0FFE7069801380690E5E70698F7
:10104000002809D1FFE742F60800C4F20100016858
:1010500021F008010160FFE740F21500C2F2000034
:1010600001210170FFE708B080BD000080B58EB09F
:101070000A4603468DF835000C9140F21500C2F285
:101080000000007800280692059305D1FFE74FF68F
:10109000FF70ADF8360085E042F60400C4F20100AE
:1010A00000680B9042F60800C4F2010000680A9044
:1010B00042F60000C4F20100016809910C9B9DF802
:1010C00035200021049000F0F9FA022004990390E1
:1010D0000846039900F062FA0498039900F06EFA4A
:1010E000002808D0FFE742F60000C4F20100022108
:1010F00000F054FAFFE742F60000C4F201000121BB
:1011000000F092FB9DF82A00400600280ED4FFE76D
:1011100042F60000C4F20100012100F085FB42F616
:101120000800C4F2010000680A90FFE748F2A060DE
:10113000C0F201000890FFE742F60000C4F201008F
:10114000022100F03BFA00210028029106D1FFE7BE
:101150000898002818BF01200290FFE70298C007F6
:10116000002804D0FFE7089801380890E4E70898C1
:10117000002805D1FFE74FF6FF70ADF8360011E00B
:1011800042F60000C4F20100019000F043FBADF80C
:101190001E000221019800F001FABDF81E00ADF812
:1011A0003600FFE7BDF836000EB080BD80B584B0D4
:1011B00040F21500C2F200000078002801D1FFE7DC
:1011C00029E00E2005210191FFF750FFADF80E0038
:1011D0000F200199FFF74AFFADF80C000720019995
:1011E000FFF744FFADF80A0009200199FFF73EFF21
:1011F000ADF80800BDF80E0040F2DC21C2F200019B
:10120000C880BDF80C000881BDF80A008880BDF8D0
:1012100008004881FFE704B080BD000082B00146AD
:1012200001900198826842F0080282600091FFE715
:101230000198806810F0080F01D0FFE7F8E70198E7
:10124000816841F004018160FFE70198806810F037
:10125000040F01D0FFE7F8E702B0704780B587B010
:1012600013468C46864606908DF8171004929DF81A
:101270001700014601280393CDF808C0CDF804E01B
:10128000009104D0FFE70098022812D023E00698CE
:10129000C16A21F47001C16204980021CFF6F07197
:1012A00001EB00503FFA80F00699CA6A1043C86209
:1012B00012E00698816B21F44011816304980021AB
:1012C000CFF6F07101EB005000F4401006998A6BE4
:1012D0001043886300E0FFE707B080BD84B00A4692
:1012E000034603900291029800280192009306D0D1
:1012F000FFE70398816841F40061816005E003988D
:10130000816821F400618160FFE704B0704700004C
:1013100080B586B001460590059842F20042C4F2BD
:10132000010290420491039010D0FFE742F60000C2
:10133000C4F201000399814211D0FFE743F6004057
:10134000C4F201000399814212D01AE040F2093040
:10135000029005F06FF9029805F054F912E040F29E
:101360000A30019005F066F9019805F04BF909E0A3
:1013700040F20F30009005F05DF9009805F042F959
:1013800000E0FFE706B080BD82B001460190019801
:10139000826842F480728260009102B0704700005F
:1013A00082B0014601900198806810F0010F009111
:1013B00006D1FFE70198816841F001018160FFE7F4
:1013C00002B0704780B585B013468C4686460490BF
:1013D0008DF80F108DF80E209DF80E000028029356
:1013E000CDF804C0CDF800E019D0FFE79DF80F005C
:1013F000C007002806D0FFE70498816841F48011F7
:101400008160FFE79DF80F008007002806D5FFE701
:101410000498816841F400418160FFE718E09DF87D
:101420000F00C007002806D0FFE70498816821F468
:1014300080118160FFE79DF80F008007002806D526
:10144000FFE70498816821F400418160FFE7FFE72E
:1014500005B080BD80B587B013468C4686460690A1
:101460008DF8171004929DF8170001460128039388
:10147000CDF808C0CDF804E0009104D0FFE7009853
:1014800002280BD015E00698816821F46021816064
:10149000049806998A68104388600BE00698816872
:1014A00021F4E0418160049806998A6810438860BD
:1014B00000E0FFE707B080BD80B582B0022004F0F5
:1014C000C9FD019041F20400C4F20200006810F46A
:1014D000E06F04D0FFE701984000009002E001981F
:1014E0000090FFE7009802B080BD000080B58CB08E
:1014F00040F2027005F06EF840F60000C4F2000001
:1015000005F026FDFFF7D8FF0B900B9841F2597EAE
:10151000CDF2B71EA0FB0E0E4FEA5E3ECDF828E0DE
:10152000DDF828E0BEF1000F059003D1FFE70120B0
:101530000A90FFE70A98002804D0FFE70A980138CC
:101540000A90FFE706A8049005F0D2FE0020ADF84F
:101550001800ADF81C00DDF828E0CDF820E0ADF86B
:10156000240040F6000EC4F2000E03907046049969
:10157000CDF808E005F0C2FD01200299019008466F
:10158000019905F041FE1E200199039A03F02EFEF9
:10159000029805F06BFD0CB080BD000084B00A46D7
:1015A00003460390029102980399D1F800C02CEAF7
:1015B000000008600192009304B0704785B00A46AD
:1015C00003460490039100208DF80B0004980068F6
:1015D000039908420192009304D0FFE701208DF89F
:1015E0000B00FFE79DF80B0005B0704782B0014685
:1015F000019042F20440C4F20100026822F4702219
:101600000260019A03681A430260009102B07047B9
:1016100083B040F2DC20C2F200000188ADF8001077
:101620004188ADF80210C188ADF806100089ADF808
:10163000080040F21600C2F20000019941600099D2
:1016400001600299816003B07047000080B582B0EC
:101650000146019001980091FFF7B4FB02B080BDF4
:1016600080B5FFF7A3FD80BD80B5FFF71DFCFFF738
:1016700057FC80BD82B0014601900198028840F27B
:10168000DC23C2F200031A8040885880009102B027
:101690007047000080B540F21400C2F200000078EC
:1016A000002801D1FFE707E042F20040C4F2010048
:1016B000012100F0B9F8FFE780BD0000B0B589B0A6
:1016C0009C4696460C46054608908DF81F108DF8EE
:1016D0001E2006939DF81F000528CDF80CC0CDF8FC
:1016E00008E00194009518D8FFE70898406B059032
:1016F0009DF81F0000EB80001F218140059A22EA1F
:10170000010105919DF81E1001FA00F005990843AA
:1017100005900598089948633EE09DF81F000B2846
:1017200019D8FFE70898006B05909DF81F0000EBA3
:1017300080001E381F218140059A22EA010105918F
:101740009DF81E1001FA00F00599084305900598D0
:10175000089908631FE09DF81F000F2819D8FFE7BC
:101760000898C06A05909DF81F0000EB80003C3887
:101770001F218140059A22EA010105919DF81E1062
:1017800001FA00F005990843059005980899C86288
:1017900000E0FFE7FFE7FFE79DF81E00092817D8E4
:1017A000FFE70898006904909DF81E0000EB4000D8
:1017B00007218140049A22EA01010491069901FA65
:1017C00000F00499084304900498089908611EE009
:1017D0009DF81E00112818D8FFE70898C0680490EB
:1017E0009DF81E0000EB40001E3807218140049A3E
:1017F00022EA01010491069901FA00F004990843D4
:10180000049004980899C86000E0FFE7FFE709B07A
:10181000B0BD000082B0014601900198C06C80B25A
:10182000009102B07047000084B00A46034603905E
:101830008DF80B109DF80B00C00700280192009353
:1018400006D0FFE70398816841F480018160FFE7DB
:101850009DF80B008007002806D5FFE703988168F4
:1018600041F400118160FFE704B0704780B586B095
:1018700013468C468646059004918DF80F209DF8FE
:101880000F0000280293CDF804C0CDF800E022D06C
:10189000FFE70498C005002806D5FFE705984168D2
:1018A00041F480714160FFE704984005002806D5A7
:1018B000FFE70598416841F480614160FFE70498C3
:1018C0008007002806D5FFE70598816841F00201EE
:1018D0008160FFE721E00498C005002806D5FFE7F6
:1018E0000598416821F480714160FFE70498400544
:1018F000002806D5FFE70598416821F48061416022
:10190000FFE704988007002806D5FFE7059881685F
:1019100021F002018160FFE7FFE706B080BD000013
:1019200080B588B002A800210691ADF81610ADF878
:1019300014100090FFE7BDF81400072822D8FFE735
:101940000E200521FFF792FBADF81200BDF8120042
:101950004FF6FF7188420BD0FFE7BDF812000699E1
:1019600008440690BDF816000130ADF81600FFE7F8
:10197000022000F0D3FDFFE7BDF814000130ADF800
:101980001400D8E7BDF81600002804D1FFE70020B6
:101990008DF81F006EE0009890ED040AB8EE400A42
:1019A000BDF8161001EE101AB8EE411A80EE010AC9
:1019B00080ED010A90ED010AB6EE001A30EE010A40
:1019C000BDEEC00A10EE101A9FED2C0ADFED2C0AB6
:1019D000084600F059FA009880ED000A90ED000AE0
:1019E0009FED281AB4EEC10AF1EE10FA0BDBFFE707
:1019F000009890ED000A9FED241AB4EEC10AF1EEB2
:101A000010FA04DDFFE700208DF81F0032E000200F
:101A10008DF80700FFE79DF8070002280ED8FFE7C2
:101A2000FFF71EFEFFF7F4FD012000F077FDFFE752
:101A30009DF8070001308DF80700ECE740F2160032
:101A4000C2F2000000884FF6FF7188420AD0FFE71B
:101A500040F21600C2F2000040884FF6FF71884243
:101A600004D1FFE700208DF81F0003E001208DF86E
:101A70001F00FFE79DF81F0008B080BD00609F4574
:101A800000401C46333333406666664085B0B0EE96
:101A9000401A0146ADF812008DED030ABDF81200A0
:101AA00000EE100AB8EEC00A9FED0A2A20EE020AE4
:101AB0009FED092A80EE020A8DED020A9DED020AD1
:101AC0009DED032A20EE020A8DED011A009105B06A
:101AD000704700BF3333534000F07F4500000000E3
:101AE00080B594B00A4603461290119111980028CF
:101AF0000992089304D1FFE700208DF84F00E5E03C
:101B00001198FEF70EFD41EC100B9FED731B51EC8D
:101B1000110B53EC102BFEF795FC41EC100B8DEDE7
:101B20000E0B1298FEF7FDFC41EC100B9DED0E1B09
:101B300051EC100B53EC112BFEF784FC41EC100B15
:101B400051EC100B9FED660B53EC102BFEF761FB75
:101B500041EC100B51EC100BFEF7F0FC0D900D98C2
:101B60007F2804D8FFE70D988DF84F00AEE012985B
:101B7000FEF7D7FC41EC100B9DED0E1B51EC110B49
:101B800007900691079A069B8DED040BFEF741FB2B
:101B900041EC100B9DED041B51EC110B53EC102B81
:101BA000FEF750FC41EC100B51EC100B9FED4C0B71
:101BB00053EC102BFEF72DFB41EC100B51EC100BEE
:101BC000FEF7BCFC0C900C98402809D3FFE70C985A
:101BD0007F2805D8FFE70C9840308DF84F0075E05E
:101BE0001298FEF79EFC41EC100B9DED0E1B51EC84
:101BF000110B9FED3D1B53EC112B8DED020BFEF7EE
:101C0000AFFB41EC100B53EC102B9DED020B51EC94
:101C1000100BFEF717FC41EC100B51EC100B9FED75
:101C2000300B53EC102BFEF7F4FA41EC100B51EC97
:101C3000100BFEF783FC0B900B98202809D3FFE7CD
:101C40000B983F2805D8FFE70B98A0308DF84F0080
:101C50003CE01298FEF765FC41EC100B9DED0E1B6D
:101C600051EC110B9FED221B53EC112B8DED000B52
:101C7000FEF776FB41EC100B53EC102B9DED000BA7
:101C800051EC100BFEF7DEFB41EC100B51EC100B8E
:101C90009FED130B53EC102BFEF7BBFA41EC100B2E
:101CA00051EC100BFEF74AFC0A900A98202809D341
:101CB000FFE70A983F2805D8FFE70A98C0308DF85B
:101CC0004F0003E000208DF84F00FFE79DF84F0024
:101CD00014B080BD00BF00BF0000000065CDCD4145
:101CE000000000000000E03F000000000000204075
:101CF000000000000000304088B005A90246B0EEA8
:101D0000412AB0EE603AB0EE404A81ED020AC1EDE0
:101D1000010A81ED001A8DF8130003928DED024A3D
:101D20008DED012A8DED003A08B0704780B503F0C3
:101D300009FB80BD88B0B0EE412AB0EE603AB0EE4B
:101D4000404A8DED070ACDED060A8DED051A9DED91
:101D5000070A9DED061AB4EEC10AF1EE10FA8DEDF8
:101D6000042A8DED033A8DED024A05DAFFE79DED79
:101D7000060A8DED010A18E09DED070A9DED051A92
:101D8000B4EEC10AF1EE10FA05DDFFE79DED050A9C
:101D90008DED000A04E09DED070A8DED000AFFE7D6
:101DA0009DED000A8DED010AFFE79DED010A08B0E7
:101DB0007047000080B5FFF753FC03F0AFFD01F062
:101DC000CFFA80BD84B00146ADF80E00BDF80E001C
:101DD00000EE100AB8EEC00A9FED0D1A20EE010ABF
:101DE0009FED0C1A80EE010A8DED020A9DED020AAC
:101DF0009FED091A30EE010A8DED010A9DED010AF1
:101E00009FED061A80EE010A009104B0704700BFF2
:101E10003333534000F07F458B6CA7BEF92A873DD2
:101E200087B0B0EE601AB0EE402A0146ADF81A0055
:101E30008DED050ACDED040ABDF81A0000EE100A7A
:101E4000B8EEC00ADFED0E0A20EE200ADFED0D0A23
:101E500080EE200A8DED030A9DED030ADDED050AF3
:101E60009DED043A70EE830A20EE200A80EE030A0C
:101E70008DED021A8DED012A009107B0704700BF69
:101E80003333534000F07F4587B0B0EE601AB0EEB8
:101E9000402A0146ADF81A008DED050ACDED040A81
:101EA000BDF81A0000EE100AB8EE400ADFED0B0A8A
:101EB00020EE200ADFED0A0A80EE200A8DED030AEB
:101EC0009DED030AF7EE080A20EE200A8DED021AB6
:101ED0008DED012A009107B0704700BF33335340A6
:101EE00000F07F4584B00A460346ADF80C00ADF81B
:101EF0000A10BDF80C00BDF80A1088420192009348
:101F00000BDBFFE7BDF80C00BDF80A10401A40F2E9
:101F1000FF11081AADF80E0008E0BDF80A00BDF880
:101F20000C10401A0138ADF80E00FFE7BDF80E00A6
:101F300004B0704783B00146019072B640F22200AF
:101F4000C2F20000B0F88122B0F883028242009110
:101F500004D1FFE762B60020029013E040F22200B5
:101F6000C2F20000B0F88312415C019A1170B0F81F
:101F7000831201316FF35F21A0F8831262B6012052
:101F80000290FFE7029803B07047000080B58CB064
:101F900013468C4686460A900991089209980028B3
:101FA0000393CDF808C0CDF804E007D0FFE70A9806
:101FB000002803D1FFE700200B9074E00A980999EC
:101FC000089A00F04FF907900798002805D0FFE71E
:101FD0000798B0F5007F03D3FFE700200B9062E085
:101FE00072B640F22200C2F20000B0F88112ADF8E1
:101FF0001A10B0F88302ADF81800BDF81A00BDF849
:102000001810FFF76FFFADF816000798BDF816100F
:10201000884204D9FFE762B600200B9043E000201D
:102020000490FFE704980999884230D2FFE70898A6
:10203000002816D0FFE70A980499405C0A2810D1BE
:10204000FFE7BDF81A0040F22201C2F200010D22A2
:102050000A54BDF81A0001306FF35F20ADF81A0082
:10206000FFE70A980499405CBDF81A1040F222027A
:10207000C2F200025054BDF81A0001306FF35F2025
:10208000ADF81A00FFE7049801300490CAE7BDF8E4
:102090001A0040F22201C2F20001A1F8810262B6E8
:1020A00001200B90FFE70B980CB080BD82B072B698
:1020B00040F22200C2F20000B0F88112ADF8041024
:1020C000B0F88302ADF8020062B6BDF80400BDF8B6
:1020D0000210884208DBFFE7BDF80400BDF80210DB
:1020E000401AADF8060009E0BDF80200BDF8041082
:1020F000401AC0F50070ADF80600FFE7BDF8060015
:1021000002B07047F0B58FB04FF4A06004F062FAEF
:102110000020C4F202004FF0010E07907146CDF886
:1021200018E000F09BFA44F60400C4F200000890A6
:10213000002009908DF838000A900B9006998DF8D0
:1021400039100C908DF83A104FF4405ECDF834E021
:10215000099B089ADDF828E0DDF82CC00C9C0D9D49
:102160000E9E6F463E61FD60BC60C7F804C0C7F8B4
:1021700000E0DDF81CC00590604600F0BBFA07984F
:10218000069900F02BFA0798069900F045FC44F6F2
:102190000000C4F20000802105F088F90C20022123
:1021A000059A03F023F80A220798069900F062FBCB
:1021B00040F22200C2F20000059980F880120FB0B0
:1021C000F0BD000080B58AB00A4603460990ADF81C
:1021D0002210BDF822000028079206930ED0FFE7D8
:1021E000BDF82200802809DCFFE740F22200C2F29D
:1021F000000090F88002012801D1FFE72FE0099943
:10220000BDF8222040F22200C2F2000000F5007367
:10221000059018460493FDF7D8FF0121059A82F82E
:1022200080120023C4F20203039018460291019326
:1022300000F094F901980299029A00F041FB01988C
:102240000299049A00F0C4FBBDF82220019802997B
:1022500000F024FC0198029900F0A0F9FFE70AB011
:1022600080BD000080B588B013468C468646079036
:102270000691059206980490059800280293CDF8DF
:1022800004C0CDF800E01CD0FFE70798002818D064
:10229000FFE700200390FFE70398069988420FD2DA
:1022A000FFE707980399405C0A2804D1FFE70498E8
:1022B00001300490FFE7FFE7039801300390EBE75C
:1022C000FFE7049808B080BD83B080B585B009935E
:1022D000089207910146049007A803900498039A76
:1022E0000191114600F0BEF80290029805B0BDE8D9
:1022F000804003B07047000080B584B00146039071
:1023000003980028029104D1FFE74FF46130039055
:10231000FFE740F22200C2F200000021A0F8811283
:10232000A0F8831280F8801240F20360019104F05B
:1023300051F94FF4C06004F04DF940F2127004F00E
:1023400049F940F60040C4F20100182103224FF47D
:10235000806300F099FD44F60000C4F20000009094
:1023600005F046F80399009804F0D8FF0098019909
:1023700005F056F90098019905F022F900980199A5
:1023800005F0EEF80098019905F0D0F80098019951
:1023900005F0B2F80098019905F0F8F808210098C6
:1023A00005F024F9009805F09BF8FFF7ABFE04B0A8
:1023B00080BD000080B5A4B0FFF778FEADF88E00B8
:1023C000BDF88E0000284AD0FFE740F22200C2F29A
:1023D000000090F88002002841D1FFE7BDF88E0090
:1023E000812803DBFFE78020009003E0BDF88E002A
:1023F0000090FFE70098ADF88C000020ADF80A00CF
:10240000ADF80800FFE7BDF80800BDF88C10884261
:1024100019DAFFE70DF10700FFF78CFD00280AD05D
:10242000FFE79DF80700BDF80A104A1CADF80A2026
:1024300003AA505400E006E0FFE7BDF808000130B1
:10244000ADF80800DFE7BDF80A00002806D0FFE776
:10245000BDF80A1003A8FFF7B5FEFFE7FFE724B0B9
:1024600080BD000080B5AAB00A4603462891279097
:10247000279828990DF11C0C4FF0800E04906046AF
:1024800003917146DDF810C002926246DDF80CE05F
:102490000193734605F0DAF806900698B0F1FF3F15
:1024A00003DCFFE70698299023E006987F2803DCE9
:1024B000FFE70698009002E07F200090FFE7009879
:1024C00005900598002805D0FFE7059907A800F0BA
:1024D00013F8FFE70698802808DBFFE748F2FC20A6
:1024E000C0F60000032100F007F8FFE706982990E6
:1024F000FFE729982AB080BD80B586B00A4603461A
:1025000005900491059804994FF0010C03926246DE
:102510000293FFF73BFD019006B080BD83B00146FA
:10252000029002980028009101D1FFE713E040F2E9
:10253000A820C2F2000000680190FFE740F2A82046
:10254000C2F2000000680199401A0299884202D242
:10255000FFE700BFF2E703B07047000080B584B02A
:102560000A46034603908DF80B1003989DF80B1054
:102570000192009300F070FA002802D1FFE7FFE714
:10258000FEE703989DF80B1001EB810100EB810041
:10259000816821F00101816004B080BD80B584B004
:1025A0000A46034603908DF80B1003989DF80B1014
:1025B0000192009300F050FA002802D1FFE7FFE7F4
:1025C000FEE703989DF80B1001EB810100EB810001
:1025D000816841F00101816004B080BD80B584B0A4
:1025E0000A46034603908DF80B1003989DF80B10D4
:1025F0000192009300F030FA002802D1FFE7FFE7D4
:10260000FEE703989DF80B1001EB810100EB8100C0
:10261000816821F02001816004B080BD80B584B064
:102620000A46034603908DF80B1003989DF80B1093
:102630000192009300F010FA002802D1FFE7FFE7B3
:10264000FEE703989DF80B1001EB810100EB810080
:10265000816841F02001816004B080BD80B584B004
:102660000A46034603908DF80B1003989DF80B1053
:102670000192009300F0F0F9002802D1FFE7FFE794
:10268000FEE703989DF80B1001EB810100EB810040
:10269000816821F00101816003989DF80B1001EB26
:1026A000810100EB81000021816003989DF80B20DF
:1026B00002EB820200EB8200C16003989DF80B20C0
:1026C00002EB820200EB8200016103989DF80B206F
:1026D00002EB820200EB820041619DF80B0080005A
:1026E0000F2101FA00F003994A681043486004B0D2
:1026F00080BD00002DE9F0478EB0DDF868C0DDF840
:1027000064E0189C179D169E1F4690468946824697
:10271000CDF834C0CDF830E00B940A9509960893B3
:10272000079206908DF8171006989DF817100397DA
:10273000CDF80880CDF804A0CDF8009000F08CF919
:10274000002802D1FFE7FFE7FEE7079806999DF80A
:10275000172002EB820201EB8201086109980699B9
:102760009DF8172002EB820201EB82014861BDF85F
:102770002C0006999DF8172002EB820201EB8201E2
:10278000C86006989DF8171001EB810100EB8100ED
:1027900080680490049820F47C50049008980A996A
:1027A0000C9A08431043049908430490049806992E
:1027B0009DF8172002EB820201EB820188609DF8F0
:1027C000340001280CD1FFE706989DF8171001EBA3
:1027D000810100EB8100816841F0400181600BE0E4
:1027E00006989DF8171001EB810100EB81008168CC
:1027F00021F040018160FFE79DF8350001280CD1F0
:10280000FFE706989DF8171001EB810100EB8100AE
:10281000816841F0800181600BE006989DF81710F7
:1028200001EB810100EB8100816821F08001816072
:10283000FFE79DF8360000280CD1FFE706989DF8C9
:10284000171001EB810100EB8100816821F010017C
:1028500081600BE006989DF8171001EB810100EBF9
:102860008100816841F010018160FFE70EB0BDE892
:10287000F087000080B586B013468C4686460590EA
:102880008DF81310039205989DF813100293CDF85C
:1028900004C0CDF800E000F0DFF8002802D1FFE727
:1028A000FFE7FEE7039805999DF8132002EB8202EB
:1028B00001EB82018A681043886006B080BD000089
:1028C00080B586B013468C46864605908DF8131069
:1028D000039203989DF813108900884005994A686F
:1028E000104348600293CDF804C0CDF800E006B074
:1028F00080BD000080B58AB013468C46864608909D
:102900008DF81F100692002005900490069802286A
:102910000393CDF808C0CDF804E0009008D0FFE79D
:102920000098042817D0FFE70098082826D038E040
:102930000898006806999DF81F2093009940084068
:102940000490089802EB820100EB8100806800F09F
:102950000200059027E00898006806999DF81F205E
:102960009300994008400490089802EB820100EB24
:102970008100806800F00400059014E00898006869
:1029800006999DF81F2093009940084004900898EC
:1029900002EB820100EB8100806800F008000590E6
:1029A00001E0FFE7FEE70498002808D0FFE705985C
:1029B000002804D0FFE701208DF8270003E0002065
:1029C0008DF82700FFE79DF827000AB080BD0000C2
:1029D00080B586B013468C46864605908DF8131058
:1029E000039205989DF813100293CDF804C0CDF81A
:1029F00000E000F031F8002802D1FFE7FFE7FEE732
:102A0000039805999DF8132002EB820201EB8201E5
:102A1000486106B080BD000080B584B00A46034618
:102A200003908DF80B1003989DF80B100192009302
:102A300000F012F8002802D1FFE7FFE7FEE7039855
:102A40009DF80B1001EB810100EB8100816821F4FE
:102A50008041816004B080BD84B00A460346039083
:102A60008DF80B1001208DF80A00039840F2004108
:102A7000C4F202018842019200930AD1FFE79DF857
:102A80000B00052804DBFFE700208DF80A00FFE7B4
:102A9000FFE79DF80A0004B07047000080B586B0DB
:102AA00013468C46864605908DF8131003920598C0
:102AB0009DF813100293CDF804C0CDF800E0FFF7A5
:102AC000CBFF002802D1FFE7FFE7FEE7BDF80C00CF
:102AD00005999DF8132002EB820201EB8201C86088
:102AE00006B080BD80B588B0B0EE401A8DED060A04
:102AF0009DED060ADFED280A9FED282A8DED011ACB
:102B0000B0EE421AFFF716F98DED050A42F62C4E8B
:102B1000C4F2010EDEF800E0CDF810E0DDF810E0C0
:102B2000BEF1000F0CD1FFE79DED050A0020B5EEC8
:102B3000C00AF1EE10FAC8BF0120ADF81E0027E070
:102B40000498013003909DED050A039801EE100AE8
:102B5000B8EE411AB6EE002A00EE012ABCEEC20A17
:102B600010EE101A02910299814204D3FFE70398F4
:102B700001380290FFE70298B0F5803F04D3FFE7E9
:102B80004FF6FF700290FFE70298ADF81E00FFE7D6
:102B9000BDF81E0008B080BD00000000A4707D3F9D
:102BA00080B584B0B0EE401A8DED020A9DED020AA8
:102BB000B5EEC00AF1EE10FA8DED011A03DCFFE765
:102BC0000020039020E09DED020AB7EE001AB4EE5B
:102BD000C10AF1EE10FA04DBFFE74FF07E500390DC
:102BE00012E09DED020A9FED0A1A20EE010A04F0A0
:102BF0004BFDB7EE001A31EE400AB6EE001A20EE99
:102C0000010A8DED030AFFE79DED030A04B080BDC4
:102C1000C3F5484080B586B00A4603460490039148
:102C2000039800280292019304D1FFE701208DF858
:102C3000170013E00498002804D1FFE700208DF866
:102C400017000BE0049800F035F8DDF80CE00021E7
:102C5000704528BF01218DF81710FFE79DF8170078
:102C600006B080BD80B586B00A4603460490039145
:102C7000039800280292019304D1FFE701208DF808
:102C8000170013E00498002804D1FFE700208DF816
:102C900017000BE0049800F025F8DDF80CE00021A7
:102CA000704528BF01218DF81710FFE79DF8170028
:102CB00006B080BD83B001460290029800280191C1
:102CC00003D1FFE70020009008E040F2A820C2F204
:102CD000000000680299401A0090FFE7009803B0D6
:102CE0007047000083B001460290029800280191CD
:102CF00003D1FFE70020009008E040F2A820C2F2D4
:102D0000000000680299401A0090FFE7009803B0A5
:102D10007047000088B0B0EE412AB0EE603AB0EEE5
:102D2000404A8DED070ACDED060A8DED051A9DEDA1
:102D3000070A9DED061AB4EEC10AF1EE10FA8DED08
:102D4000042A8DED033A8DED024A05DAFFE79DED89
:102D5000060A8DED010A18E09DED070A9DED051AA2
:102D6000B4EEC10AF1EE10FA05DDFFE79DED050AAC
:102D70008DED000A04E09DED070A8DED000AFFE7E6
:102D80009DED000A8DED010AFFE79DED010A08B0F7
:102D90007047000088B0B0EE412AB0EE603AB0EE65
:102DA000404A8DED070ACDED060A8DED051A9DED21
:102DB000070A9DED061AB4EEC10AF1EE10FA8DED88
:102DC000042A8DED033A8DED024A05DAFFE79DED09
:102DD000060A8DED010A18E09DED070A9DED051A22
:102DE000B4EEC10AF1EE10FA05DDFFE79DED050A2C
:102DF0008DED000A04E09DED070A8DED000AFFE766
:102E00009DED000A8DED010AFFE79DED010A08B076
:102E10007047000080B582B0B0EE401A8DED010A17
:102E20009DED010A8DED001A04F026FC02B080BD74
:102E300083B00146029042F20000C4F20200026830
:102E40000192019A22F007020192019A029B1A4311
:102E50000260009103B0704784B00A4603460390B5
:102E600002910298039948610192009304B070475F
:102E700084B00A46034603900291029803990861C0
:102E80000192009304B07047B0B58BB09C46964653
:102E90000C4605460A900991089207930020059078
:102EA0000490099800F00F01059110F0100FCDF873
:102EB0000CC0CDF808E00194009514D0FFE7089805
:102EC00004280AD1FFE7059840F003000590079811
:102ED0000A99CA6B1043C86304E00898059908432F
:102EE0000590FFE7FFE70020ADF81A00FFE7BDF807
:102EF0001A00072837D8FFE7BDF81A00012101FAA8
:102F000000F00799084227D0FFE70A98006804906C
:102F1000BDF81A0080000F218140049A22EA0101C5
:102F20000491059901FA00F0049908430490099866
:102F3000282804D1FFE707980A99486108E0099812
:102F4000482804D1FFE707980A990861FFE7FFE7DF
:102F500004980A990860FFE7FFE7BDF81A000130FE
:102F6000ADF81A00C3E70820ADF81A00FFE7BDF876
:102F70001A000F283AD8FFE7BDF81A00012101FA1C
:102F800000F0079908422AD0FFE70A9840680490A9
:102F9000BDF81A006FF01F0101EB80000F21814086
:102FA000049A22EA01010491059901FA00F00499BA
:102FB000084304900998282804D1FFE707980A9944
:102FC000486108E00998482804D1FFE707980A9962
:102FD0000861FFE7FFE704980A994860FFE7FFE709
:102FE000BDF81A000130ADF81A00C0E70BB0B0BD53
:102FF00085B00A46034603900291039880680299BF
:1030000008420192009304D0FFE701208DF81300DD
:1030100003E000208DF81300FFE79DF8130005B0D2
:103020007047000083B00A4603468DF80B008DF808
:103030000A109DF80B009DF80A1001F0030141EA07
:103040008000C0B20192009303B0704710B5AAB0DF
:1030500001F0A8FB40F2000EC4F25C2ECDF854E063
:103060004FF0000ECDF858E048F20000C4F2ED40F9
:1030700017900020C4F290101890CDF864E0CDF8BD
:1030800068E0CDF86CE0CDF870E0CDF874E0CDF8F4
:1030900078E0CDF87CE0CDF880E04EF60000C4F298
:1030A0007D70219042F20041C4F67401229147F6EE
:1030B0000042C4F292722392249248F20003C4F2B6
:1030C0003B532593CDF898E0CDF89CE0CDF8A0E0F7
:1030D000CDF8A4E040F2E823C2F200030DF1540C55
:1030E0005424039018460291614601922246CDF87D
:1030F00000E0FDF76AF80020C4F2A01004900590EB
:10310000009806900021C4F2A00107910021C4F2AA
:10311000C831089149F69A11C3F6997109910A903C
:1031200003990B91029A0C92019B0D9340F2010CB2
:10313000C4F27A4CCDF838C00F9040F2000CC4F2C3
:10314000A41CCDF840C040F2000CC4F2981CCDF88D
:1031500044C0129013908DF8500040F23C30C2F2FF
:10316000000004A94422FDF730F800F043FE40F2CD
:103170008030C2F20000009980F8381041630846A0
:1031800001F0A8FD2AB010BD80B58EB040F28030AD
:10319000C2F20000007804280CD0FFE740F268403B
:1031A000C2F200000021017040F26940C2F200004A
:1031B0000170CAE040F21600C2F2000000889FEDE4
:1031C000640ADFED640AFEF72BFE8DED0B0A40F278
:1031D0006940C2F20000007800280FD1FFE79DEDA2
:1031E0000B0A40F2AC20C2F2000080ED000A40F26F
:1031F0006940C2F2000001210170FFE740F2AC20FB
:10320000C2F2000090ED000A9FED531AB4EEC10A1D
:10321000F1EE10FA07DAFFE70B9840F2AC21C2F2A8
:1032200000010860FFE79DED0B0A40F2AC20C2F2FE
:10323000000090ED001A30EE410A9FED482A00EEA2
:10324000021A80ED001A006840F2E821C2F2000183
:10325000486091ED000A91ED011A30EE410A8DEDC2
:103260000D0A886B0A9040F28030C2F2000090EDA7
:10327000040A8DED040A01F081FE9DED040A00F0C0
:103280001FFE40F26840C2F20000017801315FFA8F
:1032900081FE0170BEF1050F57D3FFE740F2684091
:1032A000C2F200000021017040F28030C2F2000042
:1032B00090ED040A01200390029100F029FC8DEDAD
:1032C000090A40F2E820C2F2000090ED0C0A9DEDE0
:1032D000091A30EE010A8DED080AB7EE000AB4EEC5
:1032E000C01AF1EE10FA0298C8BF01208DF81F0035
:1032F0009DED0D0A9DF81F00DDED0A0A9DED081AEF
:1033000000F00101039800F011FA8DED060A9DED21
:10331000080A9DED061AB4EEC10AF1EE10FA05DDB9
:10332000FFE79DED080A8DED010A04E09DED060A18
:103330008DED010AFFE79DED010A8DED050A9DED7A
:10334000050A002001F07CF9FFE70EB080BD00BF48
:103350000038C74700609F456F12833A0AD7A33DE4
:1033600080B58AB001F02EFE40F2E82EC2F2000EC7
:103370009EED000A40F2803EC2F2000E9EED021A5F
:10338000DEED030A4FF0000E8DED070A8DED061AF3
:10339000CDED050ACDF810E002F072F9002804988E
:1033A000039015D0FFE740F28030C2F200000078B1
:1033B0000021002803910BD0FFE740F28030C2F2D9
:1033C00000000078C11F072818BF01210391FFE703
:1033D000039800F001009DED070ADDED050A9DED63
:1033E000061AFEF789FC02F04BF98DF827009DF8CC
:1033F000270000F0010000F0F5FE8DF8260040F2F5
:103400008030C2F200000078002811D0FFE740F2BF
:103410008030C2F200000078072809D0FFE700F0F2
:103420006DFE002803D0FFE700F062FE2EE1FFE70B
:1034300040F28030C2F20000007801460728029175
:1034400000F223810299DFE811F0080018003B0028
:103450006900D0000A01E9001F019DF82600C0079D
:10346000002809D0FFE700F0F5FE002804D0FFE7B0
:10347000012001F02FFCFFE708E19DF82700C007BD
:10348000002804D1FFE7052001F024FCFEE000F055
:10349000E1FE002804D1FFE7052001F01BFCF5E068
:1034A00040F28030C2F2000040686421FFF7DAFB8E
:1034B000002801D1FFE7E9E0022001F00BFCE5E084
:1034C00001F09EFA9DF827E04FEACE7EBEF1000F94
:1034D00005D0FFE700F0BEFE002804D1FFE705207D
:1034E00001F0F8FBD2E040F28030C2F20000006A46
:1034F0004FF4AF71FFF7B6FB00280ED0FFE701F0E5
:10350000F1F901F065F940F2E82EC2F2000E8EEDFD
:103510000E0A032001F0DEFBB8E0B7E09DF82700BB
:10352000C007002805D0FFE700F094FE002804D172
:10353000FFE7052001F0CEFBA8E040F28030C2F2A8
:10354000000090ED030A9FED531A30EE010A8DED55
:10355000080A9DED080AFFF75DFCB1EE081AB4EE0B
:10356000C10AF1EE10FA11DCFFE740F28030C2F23E
:103570000000006B012808D8FFE740F28030C2F25B
:103580000000016B01310163FFE706E040F280308B
:10359000C2F2000000210163FFE740F28030C2F276
:1035A0000000C06A1421FFF75DFB00280CD0FFE784
:1035B00040F28030C2F20000006B022804D3FFE723
:1035C000042001F087FB61E040F28030C2F200008D
:1035D000C06A4FF4C871FFF745FB002804D0FFE72D
:1035E000052001F077FB51E050E09DF82700C0076F
:1035F00000280ED0FFE740F28030C2F2000090EDCC
:10360000020A9FED231AB4EEC10AF1EE10FA04DAB1
:10361000FFE7052001F05EFB38E037E001F04AFBF0
:1036200001F01EFA002819D0FFE7002000F006FF85
:1036300001F032FA40F28030C2F20000406A4FF4EA
:103640002F71FFF70FFB002807D0FFE7002000F0E5
:10365000F3FC012001F03EFBFFE7FFE716E001F07D
:1036600029FB01F0FDF900280DD0FFE700200190B3
:1036700000F0E4FE019800F0DFFC01F00DFA019883
:1036800001F028FBFFE701E000E0FFE70AB080BDA2
:103690000080A24300005CC280B590B0B0EE623AF8
:1036A000B0EE424AB0EE615AB0EE416AB0EE607AD6
:1036B000F0EE403A8DED0F0ACDED0E0A8DED0D1AAC
:1036C000CDED0C1A8DED0B2ACDED0A2A9DED0C0ADD
:1036D0009DED0F1A30EE410A8DED090A9DED090AA4
:1036E0009DED0D1A9DED0E2A01EE420A8DED080AA0
:1036F0009DED0A0A9DED0B1A30EE410A8DED070A89
:103700009DED080A9DED071AF1EE410A8DED063A8E
:103710008DED054A8DED045A8DED036A8DED027A2B
:10372000CDED013AFFF736FB10B080BD80B59EB0FD
:10373000B0EE412AB0EE603A0A460346B0EE404A87
:103740008DED1C0A8DF86F008DF86E10CDED1A0A04
:103750008DED191A40F2E820C2F2000090ED020A45
:1037600090ED0C1AD0ED100A8DED180AC168179172
:103770008DED161A416B1591CDED140AC16B1391A5
:1037800090ED110A8DED120A806C11909DED160AD4
:10379000B5EEC00AF1EE10FA8DED082A8DED073A6C
:1037A000069205938DED044A0ADDFFE79DED160AAA
:1037B0009DED151AB4EEC10AF1EE10FA0BDBFFE72E
:1037C00047F60040C4F29270169047F60040C4F6E7
:1037D00012001590FFE79DED140AB5EEC00AF1EE58
:1037E00010FA05DCFFE70020C4F27A401490FFE7EE
:1037F0009DED180AB5EEC00AF1EE10FA05DCFFE700
:103800000020C4F220101890FFE79DED170AB5EED6
:10381000C00AF1EE10FA03DAFFE700201790FFE785
:103820009DED130AB5EEC00AF1EE10FA0DDCFFE7CC
:103830009DED160A9DED151A30EE010AB6EE001A3E
:1038400020EE010A8DED130AFFE79DED110AB5EE9A
:10385000C00AF1EE10FA03DAFFE700201190FFE74B
:103860009DF86F00C007002810D1FFE740F2E82064
:10387000C2F20000002101611A9A826340F2B02274
:10388000C2F200021170806B1D9038E19DED1C0AA0
:10389000FFF7C0FA9DED121AB4EEC10AF1EE10FA6C
:1038A00005DAFFE79FED980A8DED030A04E09DED30
:1038B0001C0A8DED030AFFE79DED030A8DED100A4A
:1038C00040F2B020C2F200000078C007002820D1EA
:1038D000FFE79DED1A0A40F2E820C2F2000080EDF9
:1038E0000E0ADDED100A9DED181ADDED131A9DED9F
:1038F000162ADDED152A0290FFF7CEFE029880ED24
:10390000040A40F2B02EC2F2000E01218EF800101F
:10391000FFE740F2E820C2F2000090ED0E0A8DEDC4
:103920000F0A0F980E909DF86E00C007002821D056
:10393000FFE79DED190ADDED160A9DED151AFFF75B
:1039400029FA8DED0D0A9DED130A9DED0D1A30EE4D
:10395000410A9DED181ADDED100A01EE600A40F2F1
:10396000E82EC2F2000E8EED040ADDF834E0CDF848
:1039700038E052E040F2E820C2F2000090ED040A84
:103980009DED171A9DED102A01EE020A8DED0C0A2D
:103990009DED180A9DED0C1A00EE021A8DED0B1A22
:1039A0009DED130A9DED0B1A30EE410A8DED0A0ACA
:1039B0009DED0A0ADDED160A9DED151AFFF7EAF9ED
:1039C0008DED0E0A9DED0A0A9DED0E1A30EE410AAC
:1039D000FFF720FA9FED4D1AB4EEC10AF1EE10FA8E
:1039E00013DDFFE79DED130A9DED0E1A30EE410A3F
:1039F0009DED181A9DED102A01EE420A40F2E820D2
:103A0000C2F2000080ED040A06E00C9840F2E821C2
:103A1000C2F200010861FFE7FFE79DED0E0A9DED90
:103A20000F1A30EE410A8DED090A9DED090A9DED50
:103A3000141AB4EEC10AF1EE10FA0DDDFFE79DEDA8
:103A40000F0A9DED141A30EE010A40F2E820C2F28E
:103A5000000080ED0E0A20E09DED090A9DED141A8C
:103A6000B1EE411AB4EEC10AF1EE10FA0DDAFFE739
:103A70009DED0F0A9DED141A30EE410A40F2E82048
:103A8000C2F2000080ED0E0A06E00E9840F2E82136
:103A9000C2F200018863FFE7FFE79DED110AB5EE72
:103AA000C00AF1EE10FA15DDFFE740F2E820C2F29D
:103AB000000090ED0E0A9DED111A80EE010A0190B2
:103AC00003F08AFE9DED111A20EE010A019880EDA7
:103AD0000E0AFFE740F2E820C2F2000090ED0E0A65
:103AE000DDED160A9DED151A0090FFF753F90098C9
:103AF00080ED0E0AD0F838E0CDF874E0FFE79DEDD8
:103B00001D0A1EB080BD00BF00000000BD37863515
:103B100080B592B00146B0EE401A8DED100A8DF8D6
:103B20003F0040F23C30C2F2000090ED010A90EDFF
:103B3000042A90ED093A8DED0E0AC2680D928DEDC2
:103B40000C2A42690B928DED0A3A806A09909DF821
:103B50003F00C007002802918DED011A0BD1FFE74D
:103B600040F23C30C2F2000000218161C16280F865
:103B70004010119135E1109840F23C31C2F2000141
:103B8000886091F84000C007002817D1FFE79DED3D
:103B9000100A40F23C30C2F2000090ED0C1AB4EE74
:103BA000C10AF1EE10FA08DBFFE740F23C30C2F246
:103BB0000000012180F84010FFE716E09DED100A9B
:103BC00040F23C30C2F2000090ED0D1AB4EEC10A92
:103BD000F1EE10FA08DCFFE740F23C30C2F20000E0
:103BE000002180F84010FFE7FFE70020089040F236
:103BF0003C30C2F2000090F84000C007002808D115
:103C0000FFE740F23C30C2F20000002181610891E0
:103C100091E09DED100A9DED0E1A30EE410A8DEDFA
:103C2000070A9DED070A9DED0D1AB4EEC10AF1EEEB
:103C300010FA03DDFFE70D98079013E09DED070AEA
:103C40009DED0D1AB1EE411AB4EEC10AF1EE10FA73
:103C500007DAFFE79DED0D0AB1EE400A8DED070A88
:103C6000FFE7FFE740F23C30C2F2000090ED060AA9
:103C70009DED0B1A9DED072A01EE020A8DED060A55
:103C80009DED0C0A9DED061A00EE021A8DED051A47
:103C90009DED050A9DED0A1AB4EEC10AF1EE10FA87
:103CA00003DDFFE70A9808900EE09DED050AB5EEEA
:103CB000C00AF1EE10FA03DAFFE70020089002E0F4
:103CC00005980890FFE7FFE79DED050A9DED081AAE
:103CD00030EE410AFFF79EF89FED441AB4EEC10A98
:103CE000F1EE10FA0FDDFFE79DED080A9DED0C1ACD
:103CF0009DED072A01EE420A40F23C30C2F200007C
:103D000080ED060A06E0069840F23C31C2F200015E
:103D10008861FFE740F23C30C2F2000090ED060AF5
:103D20009DED0A1AF1EE410A0090FFF733F8009872
:103D300080ED060AFFE79DED080A40F23C30C2F232
:103D4000000090ED0B1A30EE410A8DED040A089840
:103D500003909DED040A9DED091AB4EEC10AF1EE3F
:103D600010FA0DDDFFE740F23C30C2F2000090EDAA
:103D70000B0A9DED091A30EE010A8DED030A19E0D8
:103D80009DED040A9DED091AB1EE411AB4EEC10A87
:103D9000F1EE10FA0DDAFFE740F23C30C2F200001B
:103DA00090ED0B0A9DED091A30EE410A8DED030AE4
:103DB000FFE7FFE79DED030A9DED0A1ADFED0C0A10
:103DC000FEF7E8FF8DED030A9DED030A40F23C3E4D
:103DD000C2F2000E8EED0B0ADDF80CE0CDF844E0E7
:103DE000FFE79DED110A12B080BD00BFBD378635DB
:103DF0000000000082B040F23C30C2F2000090EDC2
:103E0000010AB6EE001A30EE011A8DED011ABFEE6E
:103E1000001A30EE010A8DED000A9DED010AB5EEA3
:103E2000C00AF1EE10FA03DAFFE700200190FFE785
:103E30009DED000AB5EEC00AF1EE10FA03DAFFE7D5
:103E400000200090FFE79DED000A9DED011AB4EE01
:103E5000C10AF1EE10FA14DBFFE79DED010A9FEDB8
:103E60000F1A30EE010A8DED000A9DED000AB5EE45
:103E7000C00AF1EE10FA03DAFFE700200090FFE736
:103E8000FFE79DED010A40F23C30C2F2000080EDF8
:103E90000C0A0099416302B0704700BFCDCCCCBD85
:103EA00080B540F23C30C2F2000090ED000A80ED97
:103EB000010A00218163C163FFF79CFF80BD000000
:103EC00080B586B005A90246B0EE401A81ED000A21
:103ED0008DF813009DF81300C0070028039102928B
:103EE0008DED011A03D1FFE7FFF7DAFFA1E040F201
:103EF0003C30C2F20000806B00280BD1FFE740F29B
:103F0000A820C2F20000006840F23C31C2F2000179
:103F10008863FFE740F23C30C2F20000C06B00282B
:103F20000BD1FFE740F2A820C2F20000006840F287
:103F30003C31C2F20001C863FFE700208DF8120097
:103F4000039890ED000A40F23C31C2F2000191ED7D
:103F50000C1AB4EEC10AF1EE10FA21DBFFE740F2D1
:103F60003C30C2F20000806B6421FEF77BFE00282B
:103F700016D0FFE740F23C30C2F2000090ED010A9B
:103F8000BEEE001A30EE010A80ED010A40F2A821CF
:103F9000C2F200010968816301208DF81200FFE779
:103FA000039890ED000A40F23C31C2F2000191ED1D
:103FB0000D1AB4EEC10AF1EE10FA21DCFFE740F26F
:103FC0003C30C2F20000C06BC821FEF74BFE002857
:103FD00016D0FFE740F23C30C2F2000090ED010A3B
:103FE000B6EE001A30EE010A80ED010A40F2A82177
:103FF000C2F200010968C16301208DF81200FFE7D9
:104000009DF81200C007002813D0FFE740F23C30B3
:10401000C2F2000090ED001A90ED010AF2EE040ADF
:104020000090FEF7B7FE009880ED010AFFF7E2FE70
:10403000FFE706B080BD000080B584B001468DF872
:104040000F0040F2B120C2F200000078C007002843
:1040500002911DD1FFE740F2046002F0BBFA41F289
:104060000000C4F20100102103224FF4006E019001
:104070007346CDF800E0FEF707FF01980099FEF7C0
:10408000EBFE40F2B120C2F2000001210170FFE717
:1040900040F2B220C2F20000007800F001009DF86A
:1040A0000F1001F00101884201D1FFE71DE09DF8EA
:1040B0000F0000F0010040F2B221C2F200010870CE
:1040C000002809D0FFE741F20000C4F201004FF4DC
:1040D0000061FEF7CDFE08E041F20000C4F20100ED
:1040E0004FF40061FEF7B8FEFFE704B080BD0000AA
:1040F00080B5072000F0EEFD80BD000080B582B0E5
:1041000040F28030C2F2000090ED030A9FED201AC9
:10411000B4EEC10AF1EE10FA04DDFFE701208DF8DC
:10412000070030E040F28030C2F2000090ED040A57
:104130009FED181AB4EEC10AF1EE10FA04DDFFE7A4
:1041400001208DF807001EE040F28030C2F200002E
:1041500090ED020A9FED101AB4EEC10AF1EE10FACA
:1041600004DAFFE701208DF807000CE000F016F8F4
:10417000002804D0FFE701208DF8070003E00020AD
:104180008DF80700FFE79DF8070002B080BD00BF73
:1041900000006842000028420080A24381B040F243
:1041A0008030C2F20000007E0021C007002800918C
:1041B00011D0FFE740F28030C2F2000090ED050A16
:1041C0009FED071A0020B4EEC10AF1EE10FAA8BF65
:1041D00001200090FFE7009800F0010001B0704757
:1041E0000000D24280B582B001468DF806009DF8ED
:1041F0000600C0070028009109D1FFE740F2803097
:10420000C2F200000021C1618DF807101DE040F2EC
:104210008030C2F20000C06900280BD1FFE740F2F5
:10422000A820C2F20000006840F28031C2F2000112
:10423000C861FFE740F28030C2F20000C06932215D
:10424000FEF710FD8DF80700FFE79DF8070002B0AC
:1042500080BD000040F28030C2F2000090ED020A02
:104260009FED041A0020B4EEC10AF1EE10FAA8BFC7
:10427000012070470000AA4380B588B001468DF840
:104280001F0042F60040C4F2010000220690059192
:104290001146049203F010F806980499049A02F06B
:1042A000DBFD9DF81F00202110F0010F18BF102129
:1042B0000698049A03911146039A02F07DFD4FF08F
:1042C0000100069902900846029902F0EDFE069858
:1042D000029902F0D7FEFFE742F60040C4F2010067
:1042E000012102F0F1FE002801D1FFE7F4E742F6D8
:1042F0000040C4F2010001210190009102F0D4FEBF
:1043000042F62440C4F201000021016001980099A6
:1043100002F0D2FF08B080BD80B594B00146139082
:10432000139802684368806840F2C82CC2F2000CFF
:10433000CCF80020CCF80430CCF808000491CDF87B
:104340000CC001F011FD40F20B6002F043F902F0E5
:1043500077FB0E900E9803990A68B0FBF2F00138D3
:1043600040F20C42C2F2000210600020ADF83C00A6
:10437000ADF83E00ADF8400012681192ADF848006B
:104380008DF84A0042F60042C4F201020FA90290E1
:104390001046019202F0B2FE01200A900420ADF80E
:1043A0002C000298ADF82E00ADF83000ADF83200C8
:1043B000ADF834000AAA0198029902F08BFB602044
:1043C0000199009008460299009A02F0F5FC0198C4
:1043D0000299029A02F040FD08220198029902F027
:1043E00067FD4FF40060ADF814004FF48060069054
:1043F0000298ADF82200039948680E99FDF770FB0A
:10440000ADF81C004FF48050ADF824000298ADF8D0
:104410001E00ADF8200005A9019802F037FB0198B5
:10442000009902F033FF019802F024FB019802F09A
:104430001DFE029800F002F814B080BD80B584B073
:1044400001468DF80F009DF80F00C007002802916B
:1044500006D0FFE70120FFF70FFF00F013F80EE092
:1044600042F60040C4F2010000210190009102F0E8
:1044700023FF01980099009A02F0EEFCFFE704B0D8
:1044800080BD000080B586B042F60040C4F2010055
:1044900000210490039102F00FFF60220498039919
:1044A00002F08AFC40F2C820C2F2000090ED020A3D
:1044B000FEF718FBADF81600BDF816200498039916
:1044C00002F0CAFC0120049902900846029902F009
:1044D000EBFD0498029902F0D5FDFFE742F600409B
:1044E000C4F20100012102F0EFFD002801D1FFE735
:1044F000F4E742F60040C4F201000121019000916E
:1045000002F0D2FD42F62440C4F201000021016015
:104510000198009902F0D0FE06B080BD80B586B04B
:1045200004A8B0EE401A80ED010A90ED010ADFED1B
:10453000120A9FED122A8DED021AB0EE421A019076
:10454000FDF7F8FB019880ED000A90ED000A40F2BB
:10455000C82EC2F2000E8EED020AFEF7C3FAADF8C5
:104560000E00BDF80E2042F60040C4F2010000210A
:1045700002F072FC06B080BD00000000A4707D3F18
:1045800080B588B00A46034607908DF81B1007983F
:1045900000280292019301D1FFE74EE002F050FAA9
:1045A00005900598002801D1FFE746E00598079996
:1045B000B0FBF1F004900498012803D8FFE7022033
:1045C0000490FFE70498B0F1011F04D3FFE74FF414
:1045D00080300490FFE70498411E40F20C42C2F282
:1045E000000211600599B1FBF0F040F2C821C2F25F
:1045F00000010860106842F62C42C4F2010210600B
:1046000091ED020AFEF76EFAADF80E00BDF80E202D
:1046100042F60040C4F20100002102F01DFC9DF8AA
:104620001B00C007002808D0FFE742F60040C4F294
:104630000100012102F026FDFFE708B080BD000067
:1046400080B586B00146B0EE401A8DED050A8DF8B2
:1046500013009DED050A40F2E820C2F20000D0ED03
:104660000C0A90ED0D2A8DED021AB0EE421A01915E
:104670000090FEF78FFB8DED030A9DED030A009875
:1046800080ED0E0ABCEEC00A10EE101A9DF813E081
:104690000EF0010E08467146FFF772FF06B080BDAE
:1046A00080B582B040F2BC30C2F2000000214170FF
:1046B00081704160DFED060A9FED060A8DED010A6B
:1046C0009DED011AFEF726FB02F048F802B080BD0E
:1046D00000E87D470024744880B588B0B0EE401AE9
:1046E0008DED070A40F2BC30C2F200004FF4967123
:1046F000C1609FED2A0A9FED2A2A8DED040AB0EED3
:10470000420ADDED040A8DED031AB0EE421A8DED7A
:10471000022A0190FEF7FEFA8DED060A9DED070ACA
:10472000DDED040A9DED021AFEF7F4FA8DED050A9F
:1047300000200199887048609DED060A81ED040A09
:1047400005984861C86800280AD0FFE79DED060A71
:104750009DED051AB4EE410AF1EE10FA0BD1FFE718
:1047600040F2BC30C2F20000002141709DED050A0C
:1047700001F0F4FF10E040F2BC30C2F20000012171
:10478000417040F2A821C2F20001096881609DEDEC
:10479000060A01F0E3FFFFE708B080BD00E87D47AF
:1047A0000024744880B540F2BC30C2F200000078AA
:1047B000C00700280AD1FFE700F042F840F2BC3EF3
:1047C000C2F2000E01208EF80000FFE780BD00005D
:1047D00080B582B040F2BC30C2F200000078C00761
:1047E00000280BD1FFE79FED0B0ADFED0B0A9FEDD1
:1047F0000B1AFEF78FFA8DED010A06E040F2BC308D
:10480000C2F2000080690190FFE79DED010A02B04D
:1048100080BD00BF007C924700E87D4700247448BB
:1048200080B540F2BC30C2F200000078C00700281A
:1048300001D1FFE702E0FFF733FFFFE780BD000093
:1048400080B584B040F2BC30C2F20000002141705B
:104850008170416081604FF49671C1609FED110AD3
:104860009FED111A8DED030AB0EE410ADDED030A4A
:104870008DED021A0190FEF74DFA019880ED040AC1
:104880009FED0A0ADDED030A9DED021AFEF742FADA
:10489000019880ED050A90ED040A01F05FFF04B075
:1048A00080BD00BF00E87D4700247448007C92472B
:1048B00080B582B0B0EE401A8DED010A40F2BC30F6
:1048C000C2F200000078C00700288DED001A03D165
:1048D000FFE7FFF767FFFFE79DED010AFFF7FCFE2B
:1048E00002B080BD40F2BC30C2F200000078C007C8
:1048F000002801D1FFE708E040F2BC30C2F200001E
:104900000021417081704160FFE7704780B586B03B
:1049100040F2BC30C2F200004078C007002801D14C
:10492000FFE76AE040F2BC30C2F200008078C007C6
:10493000002809D0FFE740F2BC30C2F2000090ED41
:10494000060A01F00BFF58E040F2A820C2F2000076
:10495000006840F2BC31C2F200018A68C968801A5E
:104960000590059888420BD3FFE740F2BC30C2F2B5
:1049700000000021417090ED050A01F0EFFE3CE0DF
:1049800040F2BC30C2F20000C068002811D0FFE73E
:104990009DED050AB8EE400A40F2BC30C2F20000BC
:1049A00090ED031AB8EE411A80EE010A8DED010A6E
:1049B00004E0B7EE000A8DED010AFFE79DED010A64
:1049C0008DED040A9DED040AFEF7EAF88DED030A69
:1049D00040F2BC3EC2F2000E9EED040A9EED051AA6
:1049E00031EE401A9DED032A01EE020A8DED020A16
:1049F0009DED020A01F0B2FEFFE706B080BD0000A7
:104A000080B540F2BC30C2F200000078C007002838
:104A100003D1FFE7FFF7C6FEFFE7FFF777FF80BD93
:104A200040F2D830C2F200000078C007002816D14A
:104A3000FFE740F2D830C2F20000002141708170DF
:104A400041608160C822C26042F20042C4F6740232
:104A5000026142618261017701210170FFE77047C5
:104A600081B040F2D830C2F200000078C0070028C0
:104A700004D1FFE701208DF8030009E040F2D830AF
:104A8000C2F20000007F00F001008DF80300FFE794
:104A90009DF8030001B0704740F2D830C2F2000028
:104AA00000214170817041608160017742F20041D4
:104AB000C4F674018161704780B588B0B0EE401AC9
:104AC0008DED070A40F2D830C2F200000078C0072E
:104AD00000288DED041A03D1FFE7FFF7A1FFFFE7E0
:104AE00040F2D830C2F200004078C007002801D060
:104AF000FFE75DE040F2D830C2F20000C821C1609B
:104B00009DED070A9FED2B1A9FED2B2AF0EE410A2F
:104B10008DED031AB0EE421A02908DED012AFEF7D8
:104B2000F9F88DED060A9DED010ADDED030A9DED14
:104B3000011AFEF7EFF88DED050A00200299887042
:104B400048609DED060A81ED040A9DED050A81EDA0
:104B5000050A0877C86800280AD0FFE79DED060A15
:104B60009DED051AB4EEC10AF1EE10FA0FDBFFE776
:104B700040F2D830C2F200000021417001210177DB
:104B8000059981619DED050A01F0E8FD10E040F214
:104B9000D830C2F200000121417040F2A821C2F2D7
:104BA0000001096881609DED060A01F0D7FDFFE76D
:104BB00008B080BD00E87D470024744880B586B009
:104BC00040F2D830C2F200004078C007002801D17E
:104BD000FFE76CE040F2D830C2F200008078C007F6
:104BE000002809D0FFE740F2D830C2F2000090ED73
:104BF000060A01F0B3FD5AE040F2A820C2F200001C
:104C0000006840F2D831C2F200018A68C968801A8F
:104C10000590059888420DD3FFE740F2D830C2F2E4
:104C20000000002141700121017790ED050A01F09B
:104C300095FD3CE040F2D830C2F20000C068002888
:104C400011D0FFE79DED050AB8EE400A40F2D830DA
:104C5000C2F2000090ED031AB8EE411A80EE010A8C
:104C60008DED010A04E0B7EE000A8DED010AFFE7C1
:104C70009DED010A8DED040A9DED040AFDF790FFFC
:104C80008DED030A40F2D83EC2F2000E9EED040AFA
:104C90009EED051A31EE401A9DED032A01EE020A3F
:104CA0008DED020A9DED020A01F058FDFFE706B006
:104CB00080BD000080B540F2D830C2F2000000781C
:104CC000C007002803D1FFE7FFF7AAFEFFE7FFF7C1
:104CD00075FF80BD80B590B001468DF83F0040F271
:104CE0008030C2F2000000789DF83F2090420E9183
:104CF00001D1FFE73CE19DF83F0040F28031C2F274
:104D00000001087040F2A822C2F2000212684A6054
:104D1000042827D0FFE740F2E820C2F2000090ED1F
:104D20000E0A9FED941A00208DED0D0AB0EE410A97
:104D30000C900C99DDED0D0A9DED0D2A8DED0B1AF1
:104D4000B0EE421AFEF7F2FC9DED0B1A8DED0A0A49
:104D5000B0EE410A0C98FEF7DBFE8DED090AFFF775
:104D60009FF8FFE79DF83F0001460728089100F2F1
:104D7000E6800899DFE801F004304157779FB5CB12
:104D8000FFF74EFDFFF788FE4FF0000E7046CDF89E
:104D90001CE0FFF753FB0798FFF74EF940F2E820BD
:104DA000C2F2000090ED0D0A0120FFF749FC40F22D
:104DB0008030C2F20000DDF81CE0C0F820E0C0F84E
:104DC00024E0C0F828E0C0F81CE0C0F82CE0C0F8EF
:104DD00030E0C0F834E0CBE001200690FFF72CF97A
:104DE0000020FFF72BFB40F2E820C2F2000090ED1C
:104DF0000D0A0698FFF724FCBAE040F2A820C2F2A0
:104E00000000006840F28031C2F200010862012017
:104E10000590FFF711F90598FFF710FB9FED560A73
:104E2000FFF746FDA4E001200490FFF705F940F2EA
:104E3000A820C2F20000006840F2803EC2F2000EDC
:104E4000CEF82C000020CEF83000FFF7C1FC40F275
:104E5000E820C2F2000080ED0E0A90ED0E0A0498E0
:104E6000FFF7EEFB84E00120FFF7E6F840F2A82010
:104E7000C2F20000006840F2803EC2F2000ECEF89E
:104E8000280040F2E820C2F20000D0ED0C0A90EDBC
:104E90000D1A90ED0E0A0390FDF77CFF039880ED4C
:104EA0000F0A40F23C3EC2F2000E0021CEF82C1058
:104EB0008EF840105CE040F2A820C2F200000068CA
:104EC00040F28031C2F2000148620120FFF7B4F8DD
:104ED00040F2E820C2F2000090ED0E0AFFF7ECFD70
:104EE00046E040F2A820C2F20000006840F28031A3
:104EF000C2F2000148620120FFF79EF840F2E8206C
:104F0000C2F2000090ED0E0AFFF7D6FD30E0FFF789
:104F100087FCFFF7C1FD4FF0000E7046CDF808E0AA
:104F2000FFF78CFA0298FFF787F840F2E820C2F208
:104F3000000090ED0D0A0120FFF782FB18E0FFF75B
:104F40006FFC4FF0000E7046CDF804E000F014FB4B
:104F50000198FFF773FA0198FFF76EF840F2E82026
:104F6000C2F2000090ED0D0A0120FFF769FBFFE798
:104F700010B080BD00000000007C924781B040F27C
:104F80008030C2F20000007E0021C007002800919E
:104F900011D0FFE740F28030C2F2000090ED050A28
:104FA0009FED071A0020B4EEC10AF1EE10FAA8BF77
:104FB00001200090FFE7009800F0010001B0704769
:104FC0000000BE4280B586B000200590049003909A
:104FD000029002A801F000FD9DF8140000F001000D
:104FE00040F2803EC2F2000E8EF818000498CEF80F
:104FF000140040F21600C2F2000001889FED100A72
:10500000DFED100A01900846CDF800E0FCF708FF3C
:10501000009880ED030A01994888FCF7D3FE0098B8
:1050200080ED040A00F07EFA009880ED020AC16863
:1050300040F2E82EC2F2000ECEF8041006B080BD99
:105040000038C74700609F4580B588B000200790B2
:10505000FBF786FC4FF4A06000F064F94FF4613078
:10506000FDF74AF901F068FC48F2F020C0F60000B4
:10507000D0F800E04168806806900591CDF810E016
:1050800004A8FFF749F94FF46020FCF7DFFAFCF7BA
:10509000EBFAFCF7FFFAFCF729FAFBF741FF01F006
:1050A000B5FC00F0B9FE00F0EDFE002808D1FFE7E6
:1050B00000F0F6FE002803D0FFE700F0A1FEFFE7B6
:1050C00000F00EFF8DF80F00FCF72AFC8DF80E00A3
:1050D0009DF80F00C007002806D0FFE79DF80E00DE
:1050E000C00700280AD1FFE748F20030C0F60000F0
:1050F000FDF7EAF80090FFE700BFFDE700F09CFA3B
:10510000FDF7A4FF4FF47A70FDF708FA00F00EFAED
:10511000FFE700200290019072B640F2D420C2F264
:1051200000000068002809D0FFE740F2D420C2F256
:1051300000000168029100210160FFE740F2BC20FD
:10514000C2F200000068002809D0FFE740F2BC204E
:10515000C2F200000168019100210160FFE762B620
:10516000FFE70198411E0191002819D0FFE7FCF7E5
:105170004FFAFEF709F8FCF78DFADDF804E0BEF10E
:10518000150F0CD3FFE7019840F2B821C2F20001DD
:105190000A6810441438086014200190FFE7E0E723
:1051A000FFE70298411E0291002815D0FFE7FCF7A7
:1051B00001FEDDF808E0BEF1060F0CD3FFE7029810
:1051C00040F26441C2F200010A68104405380860E8
:1051D00005200290FFE7E4E7FCF768FF002803D012
:1051E000FFE7FDF7E7F8FFE793E7000080B587B03A
:1051F00013468C4686468DF81B008DF81A108DF8E4
:10520000192000200590049003904EF60C50CEF229
:105210000000006800F4E060B0F5E06F0293CDF8A4
:1052200004C0CDF800E005D1FFE700200490042081
:10523000039043E04EF60C50CEF20000006800F4FC
:10524000E060B0F5C06F05D1FFE7012004900320B6
:10525000039032E04EF60C50CEF20000006800F4ED
:10526000E060B0F5A06F04D1FFE702200490039046
:1052700022E04EF60C50CEF20000006800F4E06030
:10528000B0F5806F05D1FFE7032004900120039063
:1052900011E04EF60C50CEF20000006800F4E06021
:1052A000B0F5407F05D1FFE7042004900020039073
:1052B00000E0FFE7FFE7FFE7FFE7FFE79DF81A00E1
:1052C0000499C1F10401884005909DF819000399E3
:1052D000C1F104010F2222FA01F1084005990843A7
:1052E000059005980001059005989DF81B104EF259
:1052F0000042CEF2000288549DF81B0000F01F010E
:10530000012202FA01F14EF20012CEF2000242EA4C
:10531000D0004EF21C12CEF200021040016007B025
:1053200080BD000082B00146019001980022C0F2C9
:10533000FA5210434EF60C52CEF200021060009169
:1053400002B0704780B582B000F024F840F2080E39
:10535000C2F2000E9EF800E0BEF1010F0FD0FFE791
:1053600040F60040C4F2010001210191FDF780FDEB
:1053700040F20800C2F200000199017007E040F617
:105380000040C4F201000121FDF772FDFFE702B009
:1053900080BD000080B582B040F20840C2F200003B
:1053A0000078C007002818D1FFE740F2036001F041
:1053B00011F940F60040C4F20100102103224FF021
:1053C000010E7346CDF804E0FDF75EFD40F20840A3
:1053D000C2F2000001990170FFE702B080BD000039
:1053E00080B582B0B0EE401A8DED010A8DED001A45
:1053F000FFF7A8FF02B080BD80B582B000F032F8A0
:10540000002809D0FFE740F21040C2F2000000215E
:1054100001628DF8071020E040F21040C2F2000057
:10542000006A00280ED1FFE740F2A820C2F2000077
:10543000006840F21041C2F20001086200208DF8BD
:1054400007000AE040F21040C2F20000006AC821E2
:10545000FDF7E0FB8DF80700FFE79DF8070002B0BD
:1054600080BD000082B040F21040C2F20000406BEC
:1054700001909DED010A00209FED0D1AB4EEC10AC6
:10548000F1EE10FA00900DDBFFE79DED010A9FEDB4
:10549000091A0020B4EEC10AF1EE10FAD8BF0120BB
:1054A0000090FFE7009800F0010002B0704700BFD5
:1054B0000000AA420080854380B582B0FFF7D2FF8A
:1054C000002809D1FFE740F21040C2F2000000219D
:1054D000C1618DF8071020E040F21040C2F20000D8
:1054E000C06900280ED1FFE740F2A820C2F20000F8
:1054F000006840F21041C2F20001C86100208DF83E
:1055000007000AE040F21040C2F20000C069C82162
:10551000FDF780FB8DF80700FFE79DF8070002B05C
:1055200080BD000080B500F013F880BD40F210404F
:10553000C2F20000012101720078002807D1FFE7C4
:1055400040F21040C2F200000021C160FFE7704746
:1055500040F21040C2F2000090ED0F0A70470000C8
:1055600080B582B001460190009100F093F80320CD
:1055700000F06EF902B080BD80B582B001468DF8B2
:10558000070040F2B320C2F200000078012222EAB4
:1055900000008DF806009DF80600C0070028009165
:1055A00015D0FFE740F2046001F014F841F200006A
:1055B000C4F20100102103224FF48063FDF764FC64
:1055C00040F2B320C2F2000001210170FFE79DF814
:1055D0000600C00700280FD1FFE740F2B420C2F256
:1055E0000000007800F001009DF8071001F00101B3
:1055F000884201D1FFE71DE09DF8070000F001009F
:1056000040F2B421C2F200010870002809D0FFE77F
:1056100041F20000C4F201004FF48061FDF728FC64
:1056200008E041F20000C4F201004FF48061FDF790
:1056300013FCFFE702B080BD80B596B005A84421F9
:1056400004900391FAF7DAFD00208DF8140040F27F
:105650001041C2F2000102900846DDF810E001910D
:105660007146039AFAF7B1FDFCF760FBFBF758FCB3
:1056700002980199087000F00DF816B080BD000086
:1056800040F21040C2F2000000780238B0FA80F018
:105690004009704780B582B09FED0B0A00F016F804
:1056A0004FF0000E7046CDF804E0FFF765FF40F2C2
:1056B0001040C2F20000DDF804E080F831E0C0F8EC
:1056C00010E002B080BD00BF0000000080B582B0D5
:1056D000B0EE401A8DED010A9DED010AB5EEC00A4B
:1056E000F1EE10FA8DED001A03DCFFE700200190C7
:1056F000FFE79DED010AFFF773FE02B080BD0000D9
:1057000040F21040C2F200000021C160416101611D
:105710007047000080B588B0032006210291FBF796
:10572000A5FC40F21041C2F20001A1F842000120A4
:10573000DDF808E001917146FBF798FC0199A1F8AA
:105740004000B1F840009FED3D0AFCF79FF99FED46
:105750003C1A30EE010A8DED070A0198B0F84200BC
:105760009FED380AFCF792F98DED060A9DED070AC8
:10577000019880ED0D0A0699C16300218DF817107C
:10578000416B04919DED040AB2EE041AB4EEC10A15
:10579000F1EE10FA1ADDFFE79DED040A9FED2A1ADB
:1057A00020EE010A9FED291A20EE010A8DED030A71
:1057B0009DED060A9DED031A0020B4EEC10AF1EE3C
:1057C00010FAA8BF01208DF81700FFE79DF8170019
:1057D000C007002827D0FFE740F21040C2F20000C7
:1057E000406A00280BD1FFE740F2A820C2F2000077
:1057F000006840F21041C2F200014862FFE740F247
:105800001040C2F20000406A3221FDF703FA00287E
:1058100008D0FFE740F21040C2F20000012180F8FA
:105820002810FFE708E040F21040C2F2000000211B
:10583000416280F82810FFE708B080BD71FDB843D1
:1058400066664E415C0F2F43F4FDB43F3333733F24
:1058500080B582B001468DF8070040F21040C2F2D8
:10586000000000789DF807209042009101D1FFE7E9
:1058700052E09DF8070040F21041C2F200010870AA
:1058800040F2A822C2F2000212684A6000280ED13B
:10589000FFE740F21040C2F200000021C160416108
:1058A0008161016280F83010FFF7F4FE34E09DF86A
:1058B0000700012809D1FFE740F21040C2F20000C2
:1058C000002141618161016225E09DF80700022805
:1058D00008D1FFE740F21040C2F2000000218161D0
:1058E000016217E09DF80700032812D1FFE740F29C
:1058F000A820C2F20000006840F21041C2F200018C
:10590000C86201204872002081F83000FFF7C2FE13
:10591000FFE7FFE7FFE7FFE702B080BD80B58AB091
:1059200009A80790FFF7F6FE40F21040C2F200000F
:10593000C06B0990079890ED000A9FEDD41AB4EE61
:10594000C10AF1EE10FA07DBFFE748F23B30C0F680
:105950000000FFF705FEFCE140F21040C2F200003B
:10596000007801460328069100F2ED810699DFE8F0
:1059700011F0040082002D01A20140F21040C2F299
:105980000000007AC00700280ED1FFE7FFF782FE73
:1059900040F2104EC2F2000E0020CEF80C00CEF8FD
:1059A0001400CEF81C00D4E1FFF786FD002805D1D5
:1059B000FFE7FFF76FFEFFF7A3FECAE140F21040DA
:1059C000C2F2000090F83100C00700280FD1FFE7B5
:1059D00040F21040C2F2000090F82800C0070028F2
:1059E00005D1FFE7FFF756FEFFF78AFEB1E140F26F
:1059F0001040C2F20000C06800280BD1FFE740F25F
:105A0000A820C2F20000006840F21041C2F200017A
:105A1000C860FFE740F21040C2F2000090F8310089
:105A2000C007002826D1FFE740F21040C2F2000074
:105A3000C0684FF47A71FDF7EDF800281AD0FFE73F
:105A400001200590FFF798FD40F21040C2F20000DF
:105A5000DDF814E080F831E040F2A821C2F2000144
:105A6000096801619FEDBC0AFFF730FE0598FFF75A
:105A7000EFFEFFE76DE140F21040C2F20000007A55
:105A8000C007002804D1FFE70020FFF7E1FE60E136
:105A9000FFF7B2FC002804D0FFE70020FFF7D8FE94
:105AA00057E140F21040C2F2000090F83100C00708
:105AB000002813D1FFE701200490FFF75DFD40F2BD
:105AC0001040C2F20000DDF810E080F831E040F252
:105AD000A821C2F2000109680161FFE79FED9E0A5B
