:020000040800F2
:10000000B005002045010008290900081909000869
:10001000250900080D080008790C00080000000000
:10002000000000000000000000000000310900088E
:1000300015090008000000002D0900083509000816
:100040005F0100085F0100085F0100085F01000810
:100050005F0100085F0100085F0100085F01000800
:100060005F0100085F0100085F010008A1080008A7
:100070005F0100085F0100085F0100085F010008E0
:100080005F0100085F0100085F0100085F010008D0
:10009000290C00085F0100085F0100085F010008EB
:1000A0001D0B00085F0100085F0100085F010008E8
:1000B0005F0100085F010008490B00085F010008AC
:1000C0005F0100085F0100085F0100085F01000890
:1000D0005F0100085F0100085F0100085F01000880
:1000E0005F0100085F0100085F0100085F01000870
:1000F0005F0100085F0100085F0100085F01000860
:100100005F0100085F0100085F0100085F0100084F
:100110005F0100085F010008750B0008CD0B0008A7
:100120005F0100085F0100085F0100085F0100082F
:10013000DFF80CD000F020FB00480047B545000870
:10014000B00500200648804706480047FEE7FEE766
:10015000FEE7FEE7FEE7FEE7FEE7FEE7FEE7FEE777
:10016000B90A0008310100082DE9F05F05460020BA
:1001700092469B4688460646814640241BE0284618
:1001800041464746224600F02AFA53465A46C01ACC
:10019000914110D311461846224600F011FA2D1A4B
:1001A00067EB01084F4622460120002100F008FAC3
:1001B00017EB00094E41201EA4F10104DFDC484684
:1001C00031462A464346BDE8F09F40EA01039B07BB
:1001D00003D009E008C9121F08C0042AFAD203E0BC
:1001E00011F8013B00F8013B521EF9D27047D2B220
:1001F00001E000F8012B491EFBD270470022F6E710
:1002000010B513460A4604461946FFF7F0FF20468C
:1002100010BD2DE9FE4F804681EA0300C00F0C4659
:10022000009021F0004123F00045B8EB0200A94105
:1002300005D24046214690461C460B46024623F016
:100240000040104347D0270DC7F30A00C3F30A51FB
:100250000290401A019040286BDAC3F3130040F477
:10026000801B0098924620B10023D2EB030A63EB77
:100270000B0B01985946C0F14002504600F0A0F91E
:1002800006460D4650465946019A00F0B8F910EB63
:1002900008006141002487EA115284EAE7731A4397
:1002A00040D0009A62B3019A012A4FEA075215DC46
:1002B000001B61EB02014FF0004202EA0752CDE958
:1002C0000042001C41F5801132462B4600F0D6F961
:1002D00003B0BDE8F08F40462146F9E7001B61EB13
:1002E0000201001C41F5801300185B412018A2F5A3
:1002F000001747EB030140EAD570B6196D4111E0D4
:100300006D084FEA360645EAC0754FEA0752001BF2
:1003100061EB0201001C41F5801149084FEA3000F1
:100320000019514132462B4603B0BDE8F04F00F0B2
:1003300096B90098012240000023D0EB020263EB43
:10034000E073009821464FEAE074B8EB000061EBDF
:100350000401E9E783F000435BE781F0004158E7DF
:100360002DE9FE4F81EA030404F0004421F000412E
:1003700000944FF0000B23F0004350EA01045ED0DC
:1003800052EA03045BD0C3F30A54C1F30A552C4468
:10039000A4F2F3340194A0FB0254C1F3130141F41D
:1003A0008011C3F3130343F4801301FB024400FBE9
:1003B000034E840A970A44EA815447EA8357A4FB10
:1003C000076802958D0A05FB07854FEA932C04FB0D
:1003D0000C542705029D4FEA065847EA1637B5EB3D
:1003E00008056EEB070C870E920E47EA811742EA6A
:1003F0008312A7FB0201B6EB0B0164EB00042B0D8B
:1004000043EA0C335E1844EB1C50DA465146E7FBD6
:100410000201C5F313044FEA0B3343EA14534FEAC6
:100420000432019C43EA0603A4F10C040294009CEC
:10043000CDE900B400F022F903B0BDE8F08F002050
:100440000146F9E72DE9F04D81EA030404F0004B81
:1004500021F0004514464FF0000A23F0004150EA15
:10046000050220D054EA01021DD0C5F30A57024606
:10047000C5F31303C1F31300C1F30A5640F480150A
:1004800043F48013A7EB0608101BD64608F2FD388C
:1004900073EB050002D308F1010801E092185B41FB
:1004A000B8F1000F03DA00200146BDE8F08D00200E
:1004B0004FF48011064684460EE0171B73EB0507C8
:1004C00005D3121B63EB050306434CEA010C4908F4
:1004D0004FEA300092185B4150EA0107EDD152EA31
:1004E000030012D082EA040083EA0501084305D024
:1004F000101BAB4106D20122002306E000224FF080
:10050000004302E06FF0010253101AEB06004CEBBF
:10051000085110EB0A0041EB0B01BDE8F04D00F073
:100520009EB80EB540F2334102910021CDE9001191
:100530000A460B4600F0A2F803B000BDC1F30A5210
:1005400010B5C1F3130140F2FF3341F480119A4218
:1005500001DA002010BD40F233439A42A2F2334246
:1005600003DC524200F03BF810BD904010BD00F09B
:10057000004230F000400AD0C10D01F56071C0F3B7
:10058000160042EA0151C20840071143704700209B
:100590000146704730B50B46014600202022012459
:1005A00009E021FA02F59D4205D303FA02F5491B41
:1005B00004FA02F52844151EA2F10102F1DC30BD57
:1005C000202A04DB203A00FA02F100207047914013
:1005D000C2F1200320FA03F3194390407047202A08
:1005E00004DB203A21FA02F00021704721FA02F3DD
:1005F000D040C2F120029140084319467047202A9A
:1006000006DBCB17203A41FA02F043EAE07306E03A
:1006100041FA02F3D040C2F120029140084319464A
:10062000704710B541000CD0C0F3C751962908DCC3
:100630007E2909DC06DB410204D000F0004040F0D6
:100640007E5010BD002010BDC1F19604C4F1200100
:1006500000FA01F1E04000F0A1F8A04010BD10B593
:10066000141E73F1000408DA401C41F100019218D5
:100670005B411A4301D120F0010010BD2DE9F04D7E
:1006800092469B4611B1B1FA81F202E0B0FA80F2D3
:1006900020329046FFF794FF04460F4640EA0A00D6
:1006A00041EA0B0153465A46084313D0114653EA18
:1006B000010019D0C8F140025046FFF790FF0546EF
:1006C0000E46504659464246FFF77AFF084305D08A
:1006D000012004E020463946BDE8F08D00200543A6
:1006E00046EAE0762C4337430A986305E40AA0EB18
:1006F00008000022FD0A44EA47540A3002D50020CF
:100700000146E9E7010510196941DDE908450019CD
:100710006941BDE8F04DA2E7C1F30A52C1F31301EC
:1007200040F2FF3341F480119A4202DA0020014680
:10073000704740F233439A42A2F2334202DC524203
:10074000FFF74DBFFFF73CBF30B5041E71F1000449
:1007500004DB4FF00044404264EB0101141E73F1CE
:10076000000405DB1C464FF00043524263EB0403D8
:10077000994208BF904230BD064C074D06E0E06844
:1007800040F0010394E8070098471034AC42F6D3D8
:10079000FFF7D2FCDC720008FC7200080029A8BF39
:1007A0007047401C490008BF20F00100704710B49A
:1007B000B0FA80FC00FA0CF050EA010404BF10BC4F
:1007C000704749B1CCF1200421FA04F411FA0CF17C
:1007D00018BF012121430843A3EB0C01CB1D4FEAB5
:1007E00000614FEA102042BF002010BC704700EBB0
:1007F000C35010440029A4BF10BC7047401C4900DE
:1008000008BF20F0010010BC70470000FFE7FEE7C2
:1008100080B584B004F0F6FC4FF0100E7046CDF8B1
:1008200008E004F051FD029804F066FD8DF80F0019
:100830009DF80F00012830D1FFE7022002F0AAFC4A
:100840000020019004F0A4FB019804F0C9FB4FF4D0
:10085000806004F0B1FB019804F004FF019804F0FB
:1008600019FF4FF480304FF4501104F0D5FE1820DA
:1008700004F02AFDFFE7192004F002FD002801D151
:10088000FFE7F8E7022004F027FFFFE704F038FF56
:10089000002801D1FFE7F9E7FFE704B080BD0000C1
:1008A00080B50020C4F202000021042202F0F6FA12
:1008B00000280ED0FFE70020C4F20200002104222D
:1008C00002F0D2FA40F22A00C2F2000000F0DCFE90
:1008D000FFE70020C4F202000021022202F0DEFA4B
:1008E00000280FD0FFE70020C4F2020000210222FE
:1008F00002F0BAFA40F22A00C2F20000043000F01E
:10090000C3FEFFE70020C4F202000021012202F032
:10091000ABFA80BD70470000FFE7FEE780B5FFF748
:1009200077FF80BDFFE7FEE77047000070470000DB
:100930007047000040F22000C2F20000016801315F
:10094000016040F26000C2F2000001680131016004
:100950007047000087B041F20400C4F20200006852
:10096000C0F38100069006980028009008D0FFE7A9
:10097000009801280ED0FFE70098022814D08EE0DE
:1009800040F20000C2F2000041F20021C0F27A0100
:1009900001608EE040F20000C2F2000041F200214E
:1009A000C0F27A01016084E041F20400C4F2020066
:1009B000006800F4803005900598B0F5803F2CD198
:1009C000FFE741F22C00C4F20200006800F0804012
:1009D00004900498002806D1FFE741F20020C0F2FD
:1009E0007A00019005E046F60040C0F2DC2001905C
:1009F000FFE741F20400C4F20200006800F4003096
:100A000003900398B0F5003F06D1FFE740F60010D1
:100A1000C0F23D000190FFE705E040F60010C0F293
:100A20003D000190FFE741F20400C4F202000168BA
:100A3000C1F383410291006810F0006F05D0FFE719
:100A4000029840F010000290FFE741F20400C4F267
:100A50000200006810F0804F05D0FFE7029840F0D8
:100A600020000290FFE702980F2804D3FFE70298C6
:100A70000130029003E0029802300290FFE70298F2
:100A80003E2803D3FFE73F200290FFE70198029939
:100A9000484340F20001C2F20001086009E040F260
:100AA0000000C2F2000041F20021C0F27A010160B0
:100AB000FFE707B07047000080B54EF68850CEF2D1
:100AC0000000016841F47001016041F20000C4F2CD
:100AD0000200016841F00101016041F20401C4F229
:100AE000020100220A6041F22C01C4F202010A60F4
:100AF00001684FF6FF72CFF6F6621140016041F2D5
:100B00000801C4F202014FF41F020A60016821F4D7
:100B10008021016004F0E6FE80BD000080B542F651
:100B20000040C4F20100802105F0F6FB00280AD045
:100B3000FFE704F099F942F60040C4F20100802179
:100B400005F0DAFBFFE780BD80B540F60000C4F297
:100B50000000012105F0E0FB01280AD1FFE740F683
:100B60000000C4F20000012105F0C6FB00F0A4FC67
:100B7000FFE780BD80B541F20000C4F20000012112
:100B800005F0CAFB012808D1FFE741F20000C4F2DA
:100B90000000012105F0B0FBFFE740F20800C2F2BF
:100BA0000000018801310180008814280DDBFFE777
:100BB00040F20800C2F200000021018040F267000C
:100BC000C2F2000001210170FFE780BD80B541F253
:100BD0000040C4F20000012105F09EFB012808D16D
:100BE000FFE741F20040C4F20000012105F084FB60
:100BF000FFE740F20A00C2F20000018801310180E3
:100C0000B0F90000B0F57A7F0DDBFFE740F20A0093
:100C1000C2F200000021018040F26600C2F2000032
:100C200001210170FFE780BD80B586B0FFE701A814
:100C3000002101F0C7F800281CD0FFE701980299B5
:100C4000039A049BDDF814C040F2340EC2F2000E89
:100C5000CEF810C0CEF80C30CEF80820CEF8041034
:100C6000CEF8000040F24800C2F2000001680131F5
:100C70000160DCE706B080BDFFE7FEE784B00A460E
:100C800003468DF80F0002919DF90F000028019294
:100C900000930ADBFFE7029800019DF90F104EF266
:100CA0000042CEF2000288540BE0029800019DF849
:100CB0000F1001F00F014EF61452CEF200028854CC
:100CC000FFE704B07047000080B540F2026004F016
:100CD0005BFC40F60000C4F2010000210322602307
:100CE00002F084FA80BD00002DE9F04190B04FF48D
:100CF000A06004F049FC00200F900E900D900C9025
:100D00000B900A90099040F2000EC4F2020E089077
:100D100070460899CDF81CE001F074FF42F24C4097
:100D2000C4F20100099008988DF83C0040F22A01B5
:100D3000C2F200010B9101218DF83D104FF4807E2D
:100D4000CDF828E04FF4806ECDF830E04FF0040E7F
:100D5000CDF834E04FF400520E928DF83E000A9B1D
:100D6000099ADDF82CC00C9C0D9D0E9E0F9FE84645
:100D7000C8F81070C8F80C60C8F80850C8F80440EB
:100D8000C8F800C00798DDF820C006916146CDF88C
:100D900014E001F083FF0798089901F013FF022285
:100DA0000798089902F03AF807980899059A02F00E
:100DB00035F807980899069A02F056F810B0BDE881
:100DC000F081000080B586B00146059040F20C002D
:100DD000C2F2000000780028049101D0FFE761E032
:100DE000FFF772FFFFF780FF0B204FF0010E00218D
:100DF00003917146039ACDF808E003F077FD40F2C5
:100E0000096004F0C1FB0220019004F063F842F293
:100E10000040C4F20100009000F07AFA039800F05C
:100E2000E9FB4FF480710098029A00F029FD0098C8
:100E30000199039A00F024FD0098039900F04EFAFE
:100E400000980299019A00F009FA052204230098FB
:100E5000039900F03DFC062200980299029B00F0E5
:100E600037FC4FF460220098029900F0F3FA0098E2
:100E70000299029A00F0A6FA009800F091FA009800
:100E800000F0CCF9009800F07FFA0020C4F20200D4
:100E9000039901F077FE40F20C00C2F200000299C3
:100EA0000170FFE706B080BD40F20C00C2F2000006
:100EB0000078002801D1FFE7FFE7704780B584B0D4
:100EC00040F20260039004F05FFB039804F05CFBC7
:100ED00040F2046004F058FB41F20000C4F201004B
:100EE0004FF0000E0321302302917146029ACDF893
:100EF00004E002F07BF940F60000C4F201008A230E
:100F00000199029A02F072F940F60040C4F2010021
:100F100002230199029A02F069F904B080BD000031
:100F200080B588B040F20D00C2F2000000780028C1
:100F300001D0FFE797E0FFF7C1FF40F20A6004F03D
:100F400023FB0220059003F0C5FF42F60000C4F227
:100F50000100049000F0DCF90020039000F04AFB4F
:100F60000498039900F0BAF94FF480710498039A39
:100F700000F086FC04980599039A00F081FC01209A
:100F80000499029008460299029A00F067F94FF41A
:100F900060220498029900F05DFA04980299029A7E
:100FA00000F010FA049800F0FBF94FF47A70079003
:100FB000FFE742F60800C4F201000068002110F0CB
:100FC000010F019106D1FFE70798002818BF012003
:100FD0000190FFE70198C007002804D0FFE70798B9
:100FE00001380790E5E70798002801D1FFE73AE0CC
:100FF000012001F0A7FD42F60000C4F2010000F05C
:101000000DF94CF250300690FFE742F60800C4F2AA
:1010100001000068002110F0080F009106D0FFE7E2
:101020000698002818BF01200090FFE70098C0072D
:10103000002804D0FFE7069801380690E5E70698F7
:10104000002809D1FFE742F60800C4F20100016858
:1010500021F008010160FFE740F20D00C2F200003C
:1010600001210170FFE708B080BD000080B58EB09F
:101070000A4603468DF835000C9140F20D00C2F28D
:101080000000007800280692059305D1FFE74FF68F
:10109000FF70ADF8360085E042F60400C4F20100AE
:1010A00000680B9042F60800C4F2010000680A9044
:1010B00042F60000C4F20100016809910C9B9DF802
:1010C00035200021049000F003FB022004990390D6
:1010D0000846039900F066FA0498039900F072FA42
:1010E000002808D0FFE742F60000C4F20100022108
:1010F00000F058FAFFE742F60000C4F201000121B7
:1011000000F09CFB9DF82A00400600280ED4FFE763
:1011100042F60000C4F20100012100F08FFB42F60C
:101120000800C4F2010000680A90FFE748F2A060DE
:10113000C0F201000890FFE742F60000C4F201008F
:10114000022100F03FFA00210028029106D1FFE7BA
:101150000898002818BF01200290FFE70298C007F6
:10116000002804D0FFE7089801380890E4E70898C1
:10117000002805D1FFE74FF6FF70ADF8360011E00B
:1011800042F60000C4F20100019000F04DFBADF802
:101190001E000221019800F005FABDF81E00ADF80E
:1011A0003600FFE7BDF836000EB080BD80B584B0D4
:1011B00040F20D00C2F200000078002801D1FFE7E4
:1011C00029E00E2005210191FFF750FFADF80E0038
:1011D0000F200199FFF74AFFADF80C000720019995
:1011E000FFF744FFADF80A0009200199FFF73EFF21
:1011F000ADF80800BDF80E0040F26801C2F200012F
:10120000C880BDF80C000881BDF80A008880BDF8D0
:1012100008004881FFE704B080BD000082B00146AD
:1012200001900198826842F0080282600091FFE715
:101230000198806810F0080F01D0FFE7F8E70198E7
:10124000816841F004018160FFE70198806810F037
:10125000040F01D0FFE7F8E702B0704780B587B010
:1012600013468C46864606908DF8171004929DF81A
:101270001700014601280393CDF808C0CDF804E01B
:10128000009104D0FFE70098022812D023E00698CE
:10129000C16A21F47001C16204980021CFF6F07197
:1012A00001EB00503FFA80F00699CA6A1043C86209
:1012B00012E00698816B21F44011816304980021AB
:1012C000CFF6F07101EB005000F4401006998A6BE4
:1012D0001043886300E0FFE707B080BD84B00A4692
:1012E000034603900291029800280192009306D0D1
:1012F000FFE70398816841F40061816005E003988D
:10130000816821F400618160FFE704B0704700004C
:1013100080B586B001460590059842F20042C4F2BD
:10132000010290420491039010D0FFE742F60000C2
:10133000C4F201000399814211D0FFE743F6004057
:10134000C4F201000399814212D01AE040F2093040
:10135000029004F049F9029804F02EF912E040F2EC
:101360000A30019004F040F9019804F025F909E0F1
:1013700040F20F30009004F037F9009804F01CF9A7
:1013800000E0FFE706B080BD82B001460190019801
:10139000826842F480728260009102B0704700005F
:1013A00082B0014601900198806810F0010F009111
:1013B00006D1FFE70198816841F001018160FFE7F4
:1013C00002B0704780B585B013468C4686460490BF
:1013D0008DF80F108DF80E209DF80E000028029356
:1013E000CDF804C0CDF800E019D0FFE79DF80F005C
:1013F000C007002806D0FFE70498816841F48011F7
:101400008160FFE79DF80F008007002806D5FFE701
:101410000498816841F400418160FFE718E09DF87D
:101420000F00C007002806D0FFE70498816821F468
:1014300080118160FFE79DF80F008007002806D526
:10144000FFE70498816821F400418160FFE7FFE72E
:1014500005B080BD80B587B013468C4686460690A1
:101460008DF8171004929DF8170001460128039388
:10147000CDF808C0CDF804E0009104D0FFE7009853
:1014800002280BD015E00698816821F46021816064
:10149000049806998A68104388600BE00698816872
:1014A00021F4E0418160049806998A6810438860BD
:1014B00000E0FFE707B080BD80B500F0F5F880BD23
:1014C00080B582B0022003F09FFD019041F204003C
:1014D000C4F20200006810F4E06F04D0FFE7019846
:1014E0004000009002E001980090FFE7009802B0F1
:1014F00080BD000080B58CB040F2027004F044F86A
:1015000040F60000C4F2000004F08AFDFFF7D8FFA7
:101510000B900B9841F2597ECDF2B71EA0FB0E0E38
:101520004FEA5E3ECDF828E0DDF828E0BEF1000F7E
:10153000059003D1FFE701200A90FFE70A980028F1
:1015400004D0FFE70A9801380A90FFE706A8049044
:1015500004F036FF0020ADF81800ADF81C00DDF8EF
:1015600028E0CDF820E0ADF8240040F6000EC4F2EB
:10157000000E039070460499CDF808E004F026FEB2
:101580000120029901900846019904F0A5FE1E2051
:101590000199039A03F0AAF9029804F0CFFD0CB068
:1015A00080BD000084B00A46034603900291029871
:1015B0000399D1F800C02CEA000008600192009362
:1015C00004B0704785B00A4603460490039100209A
:1015D0008DF80B000498006803990842019200936B
:1015E00004D0FFE701208DF80B00FFE79DF80B000A
:1015F00005B0704782B00146019042F20440C4F247
:101600000100026822F470220260019A03681A4302
:101610000260009102B0704783B040F26800C2F2ED
:1016200000000188ADF800104188ADF802108188F3
:10163000ADF80410C188ADF806100189ADF80810A6
:101640004089ADF80A0040F21400C2F2000001998E
:101650004160009901600299816003B07047000009
:1016600080B582B00146019001980091FFF7AAFB76
:1016700002B080BD80B5FFF799FD80BD80B5FFF752
:1016800013FCFFF74DFC80BD82B00146019001982C
:10169000028840F26803C2F200031A804088588032
:1016A000009102B07047000080B540F20C00C2F219
:1016B00000000078002801D1FFE707E042F2004077
:1016C000C4F20100012100F0B9F8FFE780BD00007D
:1016D000B0B589B09C4696460C46054608908DF8F4
:1016E0001F108DF81E2006939DF81F000528CDF8C9
:1016F0000CC0CDF808E00194009518D8FFE70898D1
:10170000406B05909DF81F0000EB80001F21814079
:10171000059A22EA010105919DF81E1001FA00F0D8
:101720000599084305900598089948633EE09DF89F
:101730001F000B2819D8FFE70898006B05909DF84B
:101740001F0000EB80001E381F218140059A22EA0D
:10175000010105919DF81E1001FA00F0059908435A
:1017600005900598089908631FE09DF81F000F2851
:1017700019D8FFE70898C06A05909DF81F0000EB94
:1017800080003C381F218140059A22EA0101059121
:101790009DF81E1001FA00F0059908430590059880
:1017A0000899C86200E0FFE7FFE7FFE79DF81E0029
:1017B000092817D8FFE70898006904909DF81E00D3
:1017C00000EB400007218140049A22EA01010491C4
:1017D000069901FA00F004990843049004980899C6
:1017E00008611EE09DF81E00112818D8FFE7089830
:1017F000C06804909DF81E0000EB40001E380721D1
:101800008140049A22EA01010491069901FA00F04C
:1018100004990843049004980899C86000E0FFE721
:10182000FFE709B0B0BD000082B001460190019809
:10183000C06C80B2009102B07047000084B00A46CC
:10184000034603908DF80B109DF80B00C00700288D
:101850000192009306D0FFE70398816841F480016C
:101860008160FFE79DF80B008007002806D5FFE7A1
:101870000398816841F400118160FFE704B070476C
:1018800080B586B013468C468646059004918DF847
:101890000F209DF80F0000280293CDF804C0CDF86A
:1018A00000E022D0FFE70498C005002806D5FFE736
:1018B0000598416841F480714160FFE70498400554
:1018C000002806D5FFE70598416841F48061416032
:1018D000FFE704988007002806D5FFE70598816890
:1018E00041F002018160FFE721E00498C005002873
:1018F00006D5FFE70598416821F480714160FFE754
:1019000004984005002806D5FFE70598416821F4B2
:1019100080614160FFE704988007002806D5FFE753
:101920000598816821F002018160FFE7FFE706B0BA
:1019300080BD000080B588B002A800210691ADF8F6
:101940001610ADF814100090FFE7BDF8140007283A
:1019500022D8FFE70E200521FFF788FBADF8120023
:10196000BDF812004FF6FF7188420BD0FFE7BDF8BB
:101970001200069908440690BDF816000130ADF833
:101980001600FFE7022001F0DDF8FFE7BDF81400C4
:101990000130ADF81400D8E7BDF81600002804D1D6
:1019A000FFE700208DF81F006EE0009890ED040A1C
:1019B000B8EE400ABDF8161001EE101AB8EE411A42
:1019C00080EE010A80ED010A90ED010AB6EE001AE0
:1019D00030EE010ABDEEC00A10EE101A9FED2C0A7F
:1019E000DFED2C0A084600F071FF009880ED000A38
:1019F00090ED000A9FED281AB4EEC10AF1EE10FA3C
:101A00000BDBFFE7009890ED000A9FED241AB4EE7F
:101A1000C10AF1EE10FA04DDFFE700208DF81F0087
:101A200032E000208DF80700FFE79DF8070002284C
:101A30000ED8FFE7FFF71EFEFFF7EEFD012001F0D5
:101A400081F8FFE79DF8070001308DF80700ECE70B
:101A500040F21400C2F2000000884FF6FF71884285
:101A60000AD0FFE740F21400C2F2000040884FF6AF
:101A7000FF71884204D1FFE700208DF81F0003E0CA
:101A800001208DF81F00FFE79DF81F0008B080BD02
:101A900000609F4500401C46333333406666664015
:101AA00080B594B00A46034612901191119800280F
:101AB0000992089304D1FFE700208DF84F00E5E07C
:101AC0001198FEF72EFD41EC100B9FED731B51ECAE
:101AD000110B53EC102BFEF7B5FC41EC100B8DED08
:101AE0000E0B1298FEF71DFD41EC100B9DED0E1B29
:101AF00051EC100B53EC112BFEF7A4FC41EC100B36
:101B000051EC100B9FED660B53EC102BFEF781FB95
:101B100041EC100B51EC100BFEF710FD0D900D98E1
:101B20007F2804D8FFE70D988DF84F00AEE012989B
:101B3000FEF7F7FC41EC100B9DED0E1B51EC110B69
:101B400007900691079A069B8DED040BFEF761FB4B
:101B500041EC100B9DED041B51EC110B53EC102BC1
:101B6000FEF770FC41EC100B51EC100B9FED4C0B91
:101B700053EC102BFEF74DFB41EC100B51EC100B0E
:101B8000FEF7DCFC0C900C98402809D3FFE70C987A
:101B90007F2805D8FFE70C9840308DF84F0075E09E
:101BA0001298FEF7BEFC41EC100B9DED0E1B51ECA4
:101BB000110B9FED3D1B53EC112B8DED020BFEF72E
:101BC000CFFB41EC100B53EC102B9DED020B51ECB5
:101BD000100BFEF737FC41EC100B51EC100B9FED96
:101BE000300B53EC102BFEF714FB41EC100B51ECB7
:101BF000100BFEF7A3FC0B900B98202809D3FFE7EE
:101C00000B983F2805D8FFE70B98A0308DF84F00C0
:101C10003CE01298FEF785FC41EC100B9DED0E1B8D
:101C200051EC110B9FED221B53EC112B8DED000B92
:101C3000FEF796FB41EC100B53EC102B9DED000BC7
:101C400051EC100BFEF7FEFB41EC100B51EC100BAE
:101C50009FED130B53EC102BFEF7DBFA41EC100B4E
:101C600051EC100BFEF76AFC0A900A98202809D361
:101C7000FFE70A983F2805D8FFE70A98C0308DF89B
:101C80004F0003E000208DF84F00FFE79DF84F0064
:101C900014B080BD00BF00BF0000000065CDCD4185
:101CA000000000000000E03F0000000000002040B5
:101CB000000000000000304080B584B00146039071
:101CC000039846F20042C4F200029042029109D108
:101CD000FFE740F21940019003F086FC019803F001
:101CE0006BFCFFE704B080BD80B586B00020ADF886
:101CF0000E00ADF810000121ADF81210ADF804008F
:101D0000ADF80600ADF80800ADF80A00ADF80C001B
:101D10008DF8141001A800F023F906B080BD000072
:101D200080B582B040F2026003F02EFC40F6000065
:101D3000C4F2010018214FF0030E4FF480530190BC
:101D40007246CDF800E001F051FA04214FF400632F
:101D50000198009A01F04AFA02B080BD80B586B0C1
:101D6000FFF7DEFF40F2197003F00EFC46F2004070
:101D7000C4F200000290FFF79FFF00208DF80C00D6
:101D80008DF80D004FF00B0E8DF80EE04FF0010EA8
:101D90008DF80FE08DF810008DF811E08DF812002D
:101DA0008DF813E08DF814008DF815000820ADF8BB
:101DB000160003A9029800F085F90190FFF794FF3F
:101DC00006B080BD80B586B00A46034604908DF803
:101DD0000F10049800280292019304D1FFE700201D
:101DE0008DF817001BE09DF80F1046F20040C4F27A
:101DF000000000F0C1FB002804D1FFE700208DF8AF
:101E000017000CE0049A9DF80F1046F20040C4F24F
:101E1000000000F053FA01208DF81700FFE79DF84D
:101E2000170006B080BD000080B592B013468C4606
:101E3000864610900F918DF83B204FF6FF7007906B
:101E40000F9800280593CDF810C0CDF80CE005D010
:101E5000FFE79DF83B00092804D3FFE700208DF839
:101E6000470078E010986FF3DF20099000200A9077
:101E70008DF82C008DF82D009DF83B108DF82E105C
:101E80008DF81B00FFE79DF81B0007281DD8FFE712
:101E90009DF81B009DF83B10884206DAFFE70F987B
:101EA0009DF81B10405C029002E000200290FFE7CA
:101EB00002989DF81B1009AA1144C872FFE79DF80B
:101EC0001B0001308DF81B00DDE746F20040C4F234
:101ED000000009A900F0A8FA8DF823009DF823005E
:101EE000032804D1FFE700208DF8470033E0FFE727
:101EF0009DF8231046F20040C4F2000000F0FCFB05
:101F000000210228019106D1FFE70798002818BF99
:101F100001200190FFE70198C007002804D0FFE7E7
:101F2000079801380790E3E70798002804D1FFE7F6
:101F300000208DF847000EE09DF8231046F2004087
:101F4000C4F2000000F0D8FB0138B0FA80F040097C
:101F50008DF84700FFE79DF8470012B080BD0000F4
:101F600083B001460290002001900298408901222E
:101F700002FA00F0019046F20060C4F2000002682C
:101F800042F001020260019846F21C62C4F20002B3
:101F9000136823EA000010600298C08900280091AD
:101FA00022D1FFE7019846F20C61C4F200010A68F1
:101FB00022EA000008600298C188428842EA014192
:101FC000408946F24062C4F2000242F830100298A2
:101FD0008188028842EA0141408946F24462C4F2A3
:101FE000000242F83010FFE70298C089012821D191
:101FF000FFE7019846F20C61C4F200010A68104341
:10200000086002980188428842EA0141408946F20C
:102010004062C4F2000242F8301002988188C288FF
:1020200042EA0141408946F24462C4F2000242F8A9
:102030003010FFE70298808900280AD1FFE7019855
:1020400046F20461C4F200010A6822EA0000086056
:1020500008E0019846F20461C4F200010A681043E6
:102060000860FFE70298008900280AD1FFE701987D
:1020700046F21461C4F200010A6822EA0000086016
:1020800008E0019846F21461C4F200010A681043A6
:102090000860FFE70298007C012809D1FFE701985A
:1020A00046F21C61C4F200010A6810430860FFE7B1
:1020B00046F20060C4F20000016821F001010160F5
:1020C00003B0704780B588B00A4603460790069172
:1020D0004FF6FF70059000208DF8130007980168F7
:1020E00021F0020101600798016841F001010160DF
:1020F00003920293FFE707984068002110F0010F58
:10210000019106D1FFE70598002818BF0120019032
:10211000FFE70198C007002804D0FFE705980138C1
:102120000590E8E70798406810F0010F04D1FFE739
:1021300000208DF81300ADE006980178427883788E
:1021400090F803C04FF0407E0EEA026242EA8171CD
:102150004FF4702202EA034211434FF4E00202EA14
:102160000C521143408901386FF39F2008430799AF
:10217000C86106980079012806D1FFE70798016831
:1021800041F08001016005E00798016821F08001BD
:102190000160FFE706984079012806D1FFE707981C
:1021A000016841F04001016005E00798016821F0F5
:1021B00040010160FFE706988079012806D1FFE71A
:1021C0000798016841F02001016005E00798016867
:1021D00021F020010160FFE70698C079012806D1AF
:1021E000FFE70798016841F01001016005E00798DA
:1021F000016821F010010160FFE70698007A0128CC
:1022000006D1FFE70798016841F00801016005E089
:102210000798016821F008010160FFE70698407AFD
:10222000012806D1FFE70798016841F00401016029
:1022300005E00798016821F004010160FFE70798B5
:10224000016821F0010101604FF6FF700590FFE782
:1022500007984068002110F0010F009106D0FFE7B9
:102260000598002818BF01200090FFE70098C007DC
:10227000002804D0FFE7059801380590E8E70798A3
:10228000406810F0010F04D0FFE701208DF8130023
:10229000FFE7FFE79DF8130008B080BD84B00A4651
:1022A00003460390029102980399D1F814C040EAC2
:1022B0000C0048610192009304B0704780B586B06D
:1022C00013468C46864605908DF8131003920598A8
:1022D0009DF8131000EB0110D0F8B00100F00400DD
:1022E000039908720398007A00280293CDF804C07D
:1022F000CDF800E00BD1FFE705989DF8131000EB37
:102300000110D0F8B001400D039908600AE005986B
:102310009DF8131000EB0110D0F8B001C00803992C
:102320004860FFE705989DF8131000EB0110D0F806
:10233000B00100F002000399487205989DF813104F
:1023400000EB0110D0F8B40100F00F00039988727F
:1023500005989DF8131000EB0110D0F8B401000AA5
:102360000399C87405989DF8131000EB0110D0F87C
:10237000B8010399C87205989DF8131000EB01107D
:10238000D0F8B801000A0399087305989DF8131056
:1023900000EB0110D0F8B801000C039948730598C0
:1023A0009DF8131000EB0110D0F8B801000E03994E
:1023B000887305989DF8131000EB0110D0F8BC014C
:1023C0000399C87305989DF8131000EB0110D0F81D
:1023D000BC01000A0399087405989DF8131000EBDE
:1023E0000110D0F8BC01000C0399487405989DF8C1
:1023F000131000EB0110D0F8BC01000E0399887493
:102400009DF81300002806D1FFE70598C16841F048
:102410002001C16005E00598016941F020010161DA
:10242000FFE706B080BD000086B00A460346049070
:10243000039100208DF80B000498806810F0806FE5
:102440000192009304D0FFE700208DF80B0019E003
:102450000498806810F0006F04D0FFE701208DF829
:102460000B000EE00498806810F0805F04D0FFE756
:1024700002208DF80B0003E003208DF80B00FFE72E
:10248000FFE7FFE79DF80B00032804D1FFE70320D7
:102490008DF817006CE004989DF80B1000EB01100C
:1024A000D0F8801101F00101C0F880110398007A82
:1024B000002810D1FFE703980168407A40EA4150B4
:1024C00004999DF80B2001EB0211D1F880211043F3
:1024D000C1F8800111E003984168027A42EAC10123
:1024E000407A084304999DF80B2001EB0211D1F8C2
:1024F00080211043C1F88001FFE704989DF80B107C
:1025000000EB0110D0F8841121F00F01C0F8841104
:102510000398807A04999DF80B2001EB0211D1F801
:1025200084211043C1F884010398D0F80B0004996A
:102530009DF80B2001EB0211C1F888010398D0F837
:102540000F0004999DF80B2001EB0211C1F88C01DA
:1025500004989DF80B1000EB0110D0F8801141F0A9
:102560000101C0F880119DF80B008DF81700FFE7FE
:102570009DF8170006B0704784B00A4603460390E2
:102580008DF80B1000208DF80A009DF80B00002834
:102590000192009307D1FFE70398C06800F00300A1
:1025A0008DF80A000DE09DF80B00012807D1FFE728
:1025B0000398006900F003008DF80A0000E0FFE7CF
:1025C000FFE79DF80A0004B07047000080B582B0B4
:1025D000FFF7C4FB00F00AF847F29020C0F60000B5
:1025E00000F0A2F9019002B080BD000080B582B079
:1025F00046F20040C4F200000221FFF74FFE032024
:102600000021019100F0D4FE1421009008460099A9
:10261000019A02F06BF902B080BD000084B00A4656
:10262000034603900291039800280192009301D180
:10263000FFE722E00298039908700298000A0399C4
:102640004870BDF80A00039988709DF80B00039943
:10265000C87040F24800C2F200000168039A11718C
:102660000168090A039A51710168090C039A917172
:102670000068000E0399C871FFE704B070470000BE
:1026800080B584B000200390029040F21000C2F2A6
:1026900000000168013101600068C0087C2801D891
:1026A000FFE727E040F21000C2F2000000210160C5
:1026B00040F24C00C2F20000016802A80190FFF74E
:1026C000ADFF40F2213008220199FFF7ADFB012850
:1026D00008D1FFE740F24C00C2F20000016801316E
:1026E000016007E040F25000C2F2000001680131D1
:1026F0000160FFE704B080BD87B00A46034606903C
:102700008DF8171000208DF8160004909DF8170022
:102710000146002803920293019108D0FFE7019837
:1027200001280CD0FFE70198022811D018E0069884
:1027300080680321C0F200410840049013E006982D
:10274000806840F20031C0F60001084004900AE0C1
:10275000069880680021C1F203010840049002E05D
:1027600000200490FFE704980028009016D0FFE7AF
:102770000320C0F200400099814213D0FFE740F2ED
:102780000030C0F60000009981420FD0FFE7002022
:10279000C1F20300009981420CD00FE002208DF8B5
:1027A00016000FE001208DF816000BE001208DF8D7
:1027B000160007E001208DF8160003E000208DF8D8
:1027C0001600FFE79DF8160007B0704788B0B0EE1E
:1027D000412AB0EE603AB0EE404A8DED070ACDEDE9
:1027E000060A8DED051A9DED070A9DED061AB4EE59
:1027F000C10AF1EE10FA8DED042A8DED033A8DED4C
:10280000024A05DAFFE79DED060A8DED010A18E0A0
:102810009DED070A9DED051AB4EEC10AF1EE10FA1E
:1028200005DDFFE79DED050A8DED000A04E09DED55
:10283000070A8DED000AFFE79DED000A8DED010A04
:10284000FFE79DED010A08B07047000088B0B0EEC8
:10285000412AB0EE603AB0EE404A8DED070ACDED68
:10286000060A8DED051A9DED070A9DED061AB4EED8
:10287000C10AF1EE10FA8DED042A8DED033A8DEDCB
:10288000024A05DAFFE79DED060A8DED010A18E020
:102890009DED070A9DED051AB4EEC10AF1EE10FA9E
:1028A00005DDFFE79DED050A8DED000A04E09DEDD5
:1028B000070A8DED000AFFE79DED000A8DED010A84
:1028C000FFE79DED010A08B07047000087B0B0EE49
:1028D000601AB0EE402A0146ADF81A008DED050AE7
:1028E000CDED040ABDF81A0000EE100AB8EE400A59
:1028F000DFED0B0A20EE200ADFED0A0A80EE200A47
:102900008DED030A9DED030AF7EE080A20EE200A7A
:102910008DED021A8DED012A009107B0704700BFBE
:102920003333534000F07F4583B080B585B00993C1
:10293000089207910146049007A803900498039A0F
:102940000191114600F09CF80290029805B0BDE894
:10295000804003B07047000080B588B00146079002
:1029600007980028069104D1FFE74FF461300790E3
:10297000FFE740F2036002F007FE4FF4C06002F090
:1029800003FE40F2127002F0FFFD40F60040C4F278
:10299000010018214FF0030E4FF48063059072463A
:1029A000CDF810E000F022FC04204FF400630599FC
:1029B000039008460399049A00F018FC44F60000BE
:1029C000C4F20000029003F089FD0799029803F019
:1029D0000DFD0020029901900846019903F0A0FE28
:1029E0000298019903F06CFE0298019903F038FEF9
:1029F0000298019903F01AFE0298019903F0FCFD78
:102A00000298039903F042FE0821029803F06EFE3B
:102A1000029803F0C1FD08B080BD000080B582B00F
:102A200001468DF807009DF807000A28009104D19F
:102A3000FFE70D2000F008F8FFE79DF8070000F021
:102A400003F802B080BD000080B582B001468DF869
:102A500007000091FFE744F60000C4F200000721E0
:102A600003F0A6FD002801D1FFE7F4E79DF8071069
:102A700044F60000C4F2000003F022FD02B080BD65
:102A800080B5AAB00A46034628912790279828992E
:102A90000DF11C0C4FF0800E0490604603917146BE
:102AA000DDF810C002926246DDF80CE00193734637
:102AB00003F04CFE06900698B0F1FF3F03DCFFE701
:102AC000069829901EE006987F2803DCFFE7069809
:102AD000009002E07F200090FFE7009805900599A4
:102AE00007A800F013F80698802808DBFFE747F2F4
:102AF0001410C0F60000032100F008F8FFE7069864
:102B00002990FFE729982AB080BD000080B586B0E3
:102B10000A46034605900491002003900292019317
:102B2000FFE70398049988420AD2FFE705980399C2
:102B3000405CFFF773FFFFE7039801300390F0E775
:102B400006B080BD83B00146029002980028009133
:102B500001D1FFE713E040F22000C2F2000000685C
:102B60000190FFE740F22000C2F2000000680199E6
:102B7000401A0299884202D2FFE700BFF2E703B091
:102B80007047000080B584B00A46034603908DF874
:102B90000B1003989DF80B100192009300F0ECF9D4
:102BA000002802D1FFE7FFE7FEE703989DF80B102E
:102BB00001EB810100EB8100816841F0010181603E
:102BC00004B080BD80B584B00A46034603908DF8FA
:102BD0000B1003989DF80B100192009300F0CCF9B4
:102BE000002802D1FFE7FFE7FEE703989DF80B10EE
:102BF00001EB810100EB8100816841F020018160DF
:102C000004B080BD80B584B00A46034603908DF8B9
:102C10000B1003989DF80B100192009300F0ACF993
:102C2000002802D1FFE7FFE7FEE703989DF80B10AD
:102C300001EB810100EB8100816821F001018160DD
:102C400003989DF80B1001EB810100EB810000213E
:102C5000816003989DF80B2002EB820200EB82005A
:102C6000C16003989DF80B2002EB820200EB82000A
:102C7000016103989DF80B2002EB820200EB8200B9
:102C800041619DF80B0080000F2101FA00F00399CB
:102C90004A681043486004B080BD00002DE9F04749
:102CA0008EB0DDF868C0DDF864E0189C179D169EB4
:102CB0001F46904689468246CDF834C0CDF830E0B4
:102CC0000B940A9509960893079206908DF81710B1
:102CD00006989DF817100397CDF80880CDF804A04A
:102CE000CDF8009000F048F9002802D1FFE7FFE797
:102CF000FEE7079806999DF8172002EB820201EB88
:102D000082010861099806999DF8172002EB82025A
:102D100001EB82014861BDF82C0006999DF817204F
:102D200002EB820201EB8201C86006989DF8171041
:102D300001EB810100EB810080680490049820F48D
:102D40007C50049008980A990C9A084310430499FF
:102D500008430490049806999DF8172002EB82021C
:102D600001EB820188609DF8340001280CD1FFE757
:102D700006989DF8171001EB810100EB8100816836
:102D800041F0400181600BE006989DF8171001EBBF
:102D9000810100EB8100816821F040018160FFE743
:102DA0009DF8350001280CD1FFE706989DF8171013
:102DB00001EB810100EB8100816841F080018160BD
:102DC0000BE006989DF8171001EB810100EB8100E4
:102DD000816821F080018160FFE79DF836000028BE
:102DE0000CD1FFE706989DF8171001EB810100EB6D
:102DF0008100816821F0100181600BE006989DF848
:102E0000171001EB810100EB8100816841F0100196
:102E10008160FFE70EB0BDE8F087000080B586B0A6
:102E200013468C46864605908DF81310039205983C
:102E30009DF813100293CDF804C0CDF800E000F027
:102E40009BF8002802D1FFE7FFE7FEE7039805990A
:102E50009DF8132002EB820201EB82018A68104385
:102E6000886006B080BD000080B586B013468C46F1
:102E7000864605908DF81310039203989DF8131061
:102E80008900884005994A68104348600293CDF84C
:102E900004C0CDF800E006B080BD000080B58AB067
:102EA00013468C46864608908DF81F100692002027
:102EB00005900490069802280393CDF808C0CDF839
:102EC00004E0009008D0FFE70098042817D0FFE73F
:102ED0000098082826D038E00898006806999DF8E0
:102EE0001F209300994008400490089802EB82014B
:102EF00000EB8100806800F00200059027E0089850
:102F0000006806999DF81F2093009940084004909E
:102F1000089802EB820100EB8100806800F0040059
:102F2000059014E00898006806999DF81F2093000A
:102F3000994008400490089802EB820100EB810060
:102F4000806800F00800059001E0FFE7FEE70498C4
:102F5000002808D0FFE70598002804D0FFE70120EB
:102F60008DF8270003E000208DF82700FFE79DF88B
:102F700027000AB080BD000084B00A4603460390D3
:102F80008DF80B1001208DF80A00039840F20041E3
:102F9000C4F202018842019200930AD1FFE79DF832
:102FA0000B00052804DBFFE700208DF80A00FFE78F
:102FB000FFE79DF80A0004B07047000080B588B0B4
:102FC000B0EE401A8DED060A9DED060ADFED280AE7
:102FD0009FED282A8DED011AB0EE421AFFF7F6FB9D
:102FE0008DED050A42F62C4EC4F2010EDEF800E02B
:102FF000CDF810E0DDF810E0BEF1000F0CD1FFE7D6
:103000009DED050A0020B5EEC00AF1EE10FAC8BF2A
:103010000120ADF81E0027E00498013003909DEDDB
:10302000050A039801EE100AB8EE411AB6EE002A1E
:1030300000EE012ABCEEC20A10EE101A02910299AB
:10304000814204D3FFE7039801380290FFE702981A
:10305000B0F5803F04D3FFE74FF6FF700290FFE723
:103060000298ADF81E00FFE7BDF81E0008B080BD55
:1030700000000000A4707D3F88B0B0EE412AB0EEA1
:10308000603AB0EE404A8DED070ACDED060A8DEDAF
:10309000051A9DED070A9DED061AB4EEC10AF1EE80
:1030A00010FA8DED042A8DED033A8DED024A05DA12
:1030B000FFE79DED060A8DED010A18E09DED070A78
:1030C0009DED051AB4EEC10AF1EE10FA05DDFFE739
:1030D0009DED050A8DED000A04E09DED070A8DEDDA
:1030E000000AFFE79DED000A8DED010AFFE79DED67
:1030F000010A08B07047000088B0B0EE412AB0EE77
:10310000603AB0EE404A8DED070ACDED060A8DED2E
:10311000051A9DED070A9DED061AB4EEC10AF1EEFF
:1031200010FA8DED042A8DED033A8DED024A05DA91
:10313000FFE79DED060A8DED010A18E09DED070AF7
:103140009DED051AB4EEC10AF1EE10FA05DDFFE7B8
:103150009DED050A8DED000A04E09DED070A8DED59
:10316000000AFFE79DED000A8DED010AFFE79DEDE6
:10317000010A08B07047000080B582B0B0EE401A76
:103180008DED010A9DED010A8DED001A03F0F4FAB0
:1031900002B080BD83B00146029042F20000C4F24A
:1031A000020002680192019A22F007020192019A3C
:1031B000029B1A430260009103B0704784B00A4634
:1031C000034603900291029803994861019200938B
:1031D00004B0704784B00A460346039002910298F7
:1031E000039908610192009304B07047B0B58BB0A9
:1031F0009C4696460C4605460A900991089207930C
:10320000002005900490099800F00F01059110F03E
:10321000100FCDF80CC0CDF808E00194009514D043
:10322000FFE7089804280AD1FFE7059840F003005B
:10323000059007980A99CA6B1043C86304E0089880
:10324000059908430590FFE7FFE70020ADF81A0055
:10325000FFE7BDF81A00072837D8FFE7BDF81A00C6
:10326000012101FA00F00799084227D0FFE70A98E8
:1032700000680490BDF81A0080000F218140049A74
:1032800022EA01010491059901FA00F0049908432A
:1032900004900998282804D1FFE707980A99486103
:1032A00008E00998482804D1FFE707980A990861BF
:1032B000FFE7FFE704980A990860FFE7FFE7BDF81A
:1032C0001A000130ADF81A00C3E70820ADF81A0063
:1032D000FFE7BDF81A000F283AD8FFE7BDF81A003B
:1032E000012101FA00F0079908422AD0FFE70A9865
:1032F00040680490BDF81A006FF01F0101EB8000D8
:103300000F218140049A22EA01010491059901FAF2
:1033100000F00499084304900998282804D1FFE795
:1033200007980A99486108E00998482804D1FFE7FE
:1033300007980A990861FFE7FFE704980A9948602F
:10334000FFE7FFE7BDF81A000130ADF81A00C0E74B
:103350000BB0B0BD85B00A460346039002910398B6
:103360008068029908420192009304D0FFE701208F
:103370008DF8130003E000208DF81300FFE79DF89F
:10338000130005B07047000083B00A4603468DF86D
:103390000B008DF80A109DF80B009DF80A1001F043
:1033A000030141EA8000C0B20192009303B070476C
:1033B00083B00A4603468DF80B008DF80A109DF87D
:1033C0000B009DF80A1001F0030141EA8000C0B231
:1033D0000192009303B07047F0B5A5B000F02AFF4A
:1033E00040F2000EC4F2382ECDF848E04FF0000E47
:1033F000CDF84CE00020C4F2AF4014900020C4F29D
:10340000C8201590CDF858E0CDF85CE0CDF860E02C
:10341000CDF864E0CDF868E0CDF86CE047F6004107
:10342000C4F292711C9145F20002C4F643021D924F
:1034300045F20003C4F2C3731E9340F2000CC4F2C1
:103440007A4CCDF87CC0209349F69A13C3F61963E1
:1034500021932290CDF88CE0CDF890E040F27400FA
:10346000C2F2000012AB4FF04C0C039119460292CD
:103470006246CDF804E0FCF7A8FE0020C4F2A010DC
:103480000490019805900021C4F2A001069100214A
:10349000C4F2C831079149F69A11C3F6997108919F
:1034A000099003990A91029A0B920C910123C4F29C
:1034B0007A430D930E900023C4F2A4130F930023BC
:1034C000C4F2981310938DF84400049BDDF814C0E7
:1034D000DDF818E0079C089D099E40F2C007C2F283
:1034E00000077E613D61FC60C7F808E0C7F804C0D2
:1034F0003B600A9BDDF82CC0DDF830E00D9C0E9D92
:103500000F9EFE62BD627C62C7F820E0C7F81CC057
:10351000BB61109BDDF844C0C7F834C03B6300F0CA
:1035200029FF25B0F0BD000080B590B0B0EE623A42
:10353000B0EE424AB0EE615AB0EE416AB0EE607A47
:10354000F0EE403A8DED0F0ACDED0E0A8DED0D1A1D
:10355000CDED0C1A8DED0B2ACDED0A2A9DED0C0A4E
:103560009DED0F1A30EE410A8DED090A9DED090A15
:103570009DED0D1A9DED0E2A01EE420A8DED080A11
:103580009DED0A0A9DED0B1A30EE410A8DED070AFA
:103590009DED080A9DED071AF1EE410A8DED063A00
:1035A0008DED054A8DED045A8DED036A8DED027A9D
:1035B000CDED013AFFF7A0FD10B080BD80B59EB003
:1035C000B0EE412AB0EE603A0A460346B0EE404AF9
:1035D0008DED1C0A8DF86F008DF86E10CDED1A0A76
:1035E0008DED191A40F27400C2F2000090ED020A4B
:1035F00090ED0A1A8DED180AC16817918DED161A13
:10360000C16A159190ED0D0A8DED140A816B13912D
:1036100090ED0F0A8DED120A006C11909DED160AC7
:10362000B5EEC00AF1EE10FA8DED082A8DED073ADD
:10363000069205938DED044A0ADDFFE79DED160A1B
:103640009DED151AB4EEC10AF1EE10FA0BDBFFE79F
:1036500047F60040C4F29270169047F60040C4F658
:1036600012001590FFE79DED140AB5EEC00AF1EEC9
:1036700010FA05DCFFE70020C4F27A401490FFE75F
:103680009DED180AB5EEC00AF1EE10FA05DCFFE771
:103690000020C4F220101890FFE79DED170AB5EE48
:1036A000C00AF1EE10FA03DAFFE700201790FFE7F7
:1036B0009DED130AB5EEC00AF1EE10FA0DDCFFE73E
:1036C0009DED160A9DED151A30EE010AB6EE001AB0
:1036D00020EE010A8DED130AFFE79DED110AB5EE0C
:1036E000C00AF1EE10FA03DAFFE700201190FFE7BD
:1036F0009DF86F00C007002810D1FFE740F274006A
:10370000C2F20000002101611A9A026340F2240211
:10371000C2F200021170006B1D9038E19DED1C0A91
:10372000FFF72AFD9DED121AB4EEC10AF1EE10FA70
:1037300005DAFFE79FED980A8DED030A04E09DEDA1
:103740001C0A8DED030AFFE79DED030A8DED100ABB
:1037500040F22400C2F200000078C007002820D107
:10376000FFE79DED1A0A40F27400C2F2000080EDFE
:103770000C0ADDED100A9DED181ADDED131A9DED12
:10378000162ADDED152A0290FFF7CEFE029880ED95
:10379000040A40F2240EC2F2000E01218EF800103D
:1037A000FFE740F27400C2F2000090ED0C0A8DEDCC
:1037B0000F0A0F980E909DF86E00C007002821D0C8
:1037C000FFE79DED190ADDED160A9DED151AFFF7CD
:1037D00093FC8DED0D0A9DED130A9DED0D1A30EE53
:1037E000410A9DED181ADDED100A01EE600A40F263
:1037F000740EC2F2000E8EED040ADDF834E0CDF84E
:1038000038E052E040F27400C2F2000090ED040A89
:103810009DED171A9DED102A01EE020A8DED0C0A9E
:103820009DED180A9DED0C1A00EE021A8DED0B1A93
:103830009DED130A9DED0B1A30EE410A8DED0A0A3B
:103840009DED0A0ADDED160A9DED151AFFF754FCF1
:103850008DED0E0A9DED0A0A9DED0E1A30EE410A1D
:10386000FFF78AFC9FED4D1AB4EEC10AF1EE10FA93
:1038700013DDFFE79DED130A9DED0E1A30EE410AB0
:103880009DED181A9DED102A01EE420A40F27400D7
:10389000C2F2000080ED040A06E00C9840F27401C8
:1038A000C2F200010861FFE7FFE79DED0E0A9DED02
:1038B0000F1A30EE410A8DED090A9DED090A9DEDC2
:1038C000141AB4EEC10AF1EE10FA0DDDFFE79DED1A
:1038D0000F0A9DED141A30EE010A40F27400C2F294
:1038E000000080ED0C0A20E09DED090A9DED141A00
:1038F000B1EE411AB4EEC10AF1EE10FA0DDAFFE7AB
:103900009DED0F0A9DED141A30EE410A40F274004D
:10391000C2F2000080ED0C0A06E00E9840F274013D
:10392000C2F200010863FFE7FFE79DED110AB5EE63
:10393000C00AF1EE10FA15DDFFE740F27400C2F2A2
:10394000000090ED0C0A9DED111A80EE010A019025
:1039500002F019FF9DED111A20EE010A019880ED89
:103960000C0AFFE740F27400C2F2000090ED0C0A6E
:10397000DDED160A9DED151A0090FFF7BDFB0098CE
:1039800080ED0C0AD0F830E0CDF874E0FFE79DED53
:103990001D0A1EB080BD00BF00000000BD37863587
:1039A00080B592B00146B0EE401A8DED100A8DF848
:1039B0003F0040F2C000C2F2000090ED000A90ED1E
:1039C000032A90ED083A8DED0E0A82680D928DED76
:1039D0000C2A02690B928DED0A3A406A09909DF813
:1039E0003F00C007002802918DED011A0BD1FFE7BF
:1039F00040F2C000C2F2000000214161816280F803
:103A00003410119135E1109840F2C001C2F200016A
:103A1000486091F83400C007002817D1FFE79DEDFA
:103A2000100A40F2C000C2F2000090ED0B1AB4EE92
:103A3000C10AF1EE10FA08DBFFE740F2C000C2F263
:103A40000000012180F83410FFE716E09DED100A18
:103A500040F2C000C2F2000090ED0C1AB4EEC10AB0
:103A6000F1EE10FA08DCFFE740F2C000C2F20000FD
:103A7000002180F83410FFE7FFE70020089040F2B3
:103A8000C000C2F2000090F83400C007002808D13E
:103A9000FFE740F2C000C2F200000021416108913E
:103AA00091E09DED100A9DED0E1A30EE410A8DED6C
:103AB000070A9DED070A9DED0D1AB4EEC10AF1EE5D
:103AC00010FA03DDFFE70D98079013E09DED070A5C
:103AD0009DED0D1AB1EE411AB4EEC10AF1EE10FAE5
:103AE00007DAFFE79DED0D0AB1EE400A8DED070AFA
:103AF000FFE7FFE740F2C000C2F2000090ED050AC8
:103B00009DED0B1A9DED072A01EE020A8DED060AC6
:103B10009DED0C0A9DED061A00EE021A8DED051AB8
:103B20009DED050A9DED0A1AB4EEC10AF1EE10FAF8
:103B300003DDFFE70A9808900EE09DED050AB5EE5B
:103B4000C00AF1EE10FA03DAFFE70020089002E065
:103B500005980890FFE7FFE79DED050A9DED081A1F
:103B600030EE410AFFF708FB9FED441AB4EEC10A9C
:103B7000F1EE10FA0FDDFFE79DED080A9DED0C1A3E
:103B80009DED072A01EE420A40F2C000C2F2000099
:103B900080ED050A06E0069840F2C001C2F200017D
:103BA0004861FFE740F2C000C2F2000090ED050A54
:103BB0009DED0A1AF1EE410A0090FFF79DFA009878
:103BC00080ED050AFFE79DED080A40F2C000C2F251
:103BD000000090ED0A1A30EE410A8DED040A0898B3
:103BE00003909DED040A9DED091AB4EEC10AF1EEB1
:103BF00010FA0DDDFFE740F2C000C2F2000090EDC8
:103C00000A0A9DED091A30EE010A8DED030A19E04A
:103C10009DED040A9DED091AB1EE411AB4EEC10AF8
:103C2000F1EE10FA0DDAFFE740F2C000C2F2000038
:103C300090ED0A0A9DED091A30EE410A8DED030A56
:103C4000FFE7FFE79DED030A9DED0A1ADFED0C0A81
:103C5000FFF752FA8DED030A9DED030A40F2C00E04
:103C6000C2F2000E8EED0A0ADDF80CE0CDF844E059
:103C7000FFE79DED110A12B080BD00BFBD3786354C
:103C80000000000080B584B001468DF80F0040F2BE
:103C90002500C2F200000078C007002802911DD163
:103CA000FFE740F2046001F06FFC41F20000C4F253
:103CB0000100102103224FF4006E01907346CDF8ED
:103CC00000E0FFF793FA01980099FFF777FA40F2C6
:103CD0002500C2F2000001210170FFE740F226003A
:103CE000C2F20000007800F001009DF80F1001F012
:103CF0000101884201D1FFE71DE09DF80F0000F0AF
:103D0000010040F22601C2F200010870002809D02B
:103D1000FFE741F20000C4F201004FF40061FFF739
:103D200059FA08E041F20000C4F201004FF40061CA
:103D3000FFF744FAFFE704B080BD000080B588B00B
:103D400001468DF81F0042F60040C4F20100002237
:103D5000069005911146049202F016FB069804990C
:103D6000049A02F0DDF89DF81F00202110F0010FE9
:103D700018BF10210698049A03911146039A02F085
:103D80007FF84FF00100069902900846029902F070
:103D9000F3F90698029902F0DDF9FFE742F60040D8
:103DA000C4F20100012102F0F7F9002801D1FFE778
:103DB000F4E742F60040C4F20100012101900091B5
:103DC00002F0DAF942F62440C4F201000021016059
:103DD0000198009902F0D8FA08B080BD80B594B07F
:103DE00001461390139802684368806840F2540CAF
:103DF000C2F2000CCCF80020CCF80430CCF808005B
:103E00000491CDF80CC000F089FF40F20B6001F086
:103E1000BBFB01F079FE0E900E9803990A68B0FB87
:103E2000F2F0013840F25012C2F20002106000209D
:103E3000ADF83C00ADF83E00ADF8400012681192BC
:103E4000ADF848008DF84A0042F60042C4F2010283
:103E50000FA902901046019202F0B8F901200A90D1
:103E60000420ADF82C000298ADF82E00ADF830001B
:103E7000ADF83200ADF834000AAA0198029901F0B9
:103E80008DFE60200199009008460299009A01F089
:103E9000F7FF01980299029A02F042F8082201986D
:103EA000029902F069F84FF40060ADF814004FF485
:103EB000806006900298ADF82200039948680E9938
:103EC000FDF7EEFDADF81C004FF48050ADF8240076
:103ED0000298ADF81E00ADF8200005A9019801F088
:103EE00039FE0198009902F039FA019801F026FE96
:103EF000019802F023F9029800F002F814B080BD96
:103F000080B584B001468DF80F009DF80F00C00702
:103F10000028029106D0FFE70120FFF70FFF00F015
:103F200013F80EE042F60040C4F2010000210190B7
:103F3000009102F029FA01980099009A01F0F0FF2F
:103F4000FFE704B080BD000080B586B042F60040B7
:103F5000C4F2010000210490039102F015FA6022DE
:103F60000498039901F08CFF40F25400C2F2000063
:103F700090ED020AFFF722F8ADF81600BDF8162002
:103F80000498039901F0CCFF01200499029008469F
:103F9000029902F0F1F80498029902F0DBF8FFE7C9
:103FA00042F60040C4F20100012102F0F5F80028B9
:103FB00001D1FFE7F4E742F60040C4F2010001211D
:103FC0000190009102F0D8F842F62440C4F20100BA
:103FD000002101600198009902F0D6F906B080BD79
:103FE00080B586B004A8B0EE401A80ED010A90EDCD
:103FF000010ADFED120A9FED122A8DED021AB0EED2
:10400000421A0190FEF7E2FB019880ED000A90ED64
:10401000000A40F2540EC2F2000E8EED020AFEF7C4
:10402000CDFFADF80E00BDF80E2042F60040C4F200
:104030000100002101F074FF06B080BD0000000007
:10404000A4707D3F80B586B0014605900598002894
:10405000019101D1FFE741E001F056FD0490049881
:10406000002801D1FFE739E004980599B0FBF1F091
:1040700003900398012803D8FFE702200390FFE78D
:104080000398B0F1011F04D3FFE74FF48030039091
:10409000FFE70398411E40F25012C2F20002116085
:1040A0000499B1FBF0F040F25401C2F20001086043
:1040B000106842F62C42C4F20102106091ED020A2F
:1040C000FEF77CFFADF80A00BDF80A2042F600407A
:1040D000C4F20100002101F023FFFFE706B080BD1C
:1040E00080B584B0B0EE401A8DED030A9DED030A51
:1040F00040F27400C2F20000D0ED0A0A90ED0B2AE3
:104100008DED011AB0EE421A0090FEF7F5FF8DED2D
:10411000020A9DED020A009880ED0C0ABCEEC00A6E
:1041200010EE10EA7046FFF78DFF04B080BD00006E
:1041300080B582B040F22410C2F20000002141702C
:1041400081704160DFED060A9FED060A8DED010AE0
:104150009DED011AFEF790FF01F0DAFA02B080BD82
:10416000007C92470050434880B588B0B0EE401ABA
:104170008DED070A40F22410C2F200004FF4967150
:10418000C1609FED2A0A9FED2A2A8DED040AB0EE48
:10419000420ADDED040A8DED031AB0EE421A8DEDF0
:1041A000022A0190FEF768FF8DED060A9DED070AD1
:1041B000DDED040A9DED021AFEF75EFF8DED050AA6
:1041C00000200199887048609DED060A81ED040A7F
:1041D00005984861C86800280AD0FFE79DED060AE7
:1041E0009DED051AB4EE410AF1EE10FA0BD1FFE78E
:1041F00040F22410C2F20000002141709DED050A3A
:1042000001F086FA10E040F22410C2F20000012111
:10421000417040F22001C2F20001096881609DED09
:10422000060A01F075FAFFE708B080BD007C9247EE
:104230000050434880B540F22410C2F200000078DC
:10424000C00700280AD1FFE700F042F840F2241E20
:10425000C2F2000E01208EF80000FFE780BD0000D2
:1042600080B582B040F22410C2F200000078C0078E
:1042700000280BD1FFE79FED0B0ADFED0B0A9FED46
:104280000B1AFEF7F9FE8DED010A06E040F224104C
:10429000C2F2000080690190FFE79DED010A02B0C3
:1042A00080BD00BF0050C347007C92470050434888
:1042B00080B540F22410C2F200000078C007002848
:1042C00001D1FFE702E0FFF733FFFFE780BD000009
:1042D00080B584B040F22410C2F200000021417089
:1042E0008170416081604FF49671C1609FED110A49
:1042F0009FED111A8DED030AB0EE410ADDED030AC0
:104300008DED021A0190FEF7B7FE019880ED040AC8
:104310009FED0A0ADDED030A9DED021AFEF7ACFEE1
:10432000019880ED050A90ED040A01F0F1F904B05E
:1043300080BD00BF007C9247005043480050C347F7
:1043400080B582B0B0EE401A8DED010A40F2241023
:10435000C2F200000078C00700288DED001A03D1DA
:10436000FFE7FFF767FFFFE79DED010AFFF7FCFEA0
:1043700002B080BD80B58CB001468DF82F0040F2B0
:10438000F800C2F2000000789DF82F2090420A91B8
:1043900001D1FFE708E19DF82F0040F2F801C2F2D9
:1043A0000001087040F22002C2F2000212684A6066
:1043B000042825D0FFE740F27400C2F2000090ED1F
:1043C0000C0A9FED7A1A00208DED090AB0EE410A21
:1043D00008900899DDED090A9DED092A8DED071A6F
:1043E000B0EE421AFFF7EAF89DED071A8DED060AC6
:1043F000B0EE410A0898FFF7D3FA8DED050AFFE702
:104400009DF82F0001460628049100F2B58004991A
:10441000DFE801F0042B3A506E879D00FFF748FF5C
:104420004FF0000E7046CDF80CE0FFF769FD0398E1
:10443000FFF728FC40F27400C2F2000090ED0B0A76
:10444000FFF74EFE40F2F800C2F20000DDF80CE08B
:10445000C0F818E0C0F81CE0C0F820E0C0F814E094
:10446000C0F824E0C0F828E09EE00120FFF70AFC35
:104470000020FFF745FD40F27400C2F2000090ED0D
:104480000B0AFFF72DFE8FE040F22000C2F2000081
:10449000006840F2F801C2F2000188610120029038
:1044A000FFF7F0FB9FED420AFFF74AFF0298FFF784
:1044B00027FD79E00120FFF7E5FB40F22000C2F282
:1044C0000000006840F2F80EC2F2000ECEF82400A0
:1044D0000020CEF82800FFF7C3FE40F27400C2F2BD
:1044E000000080ED0C0A90ED0C0AFFF7F9FD5BE08F
:1044F0000120FFF7C7FB40F22000C2F20000006875
:1045000040F2F80EC2F2000ECEF8200040F2C000D9
:10451000C2F200004FF0000EC0F828E080F834E04E
:1045200042E040F22000C2F20000006840F2F801D0
:10453000C2F20001C8610120FFF7A4FB40F2740041
:10454000C2F2000090ED0B0AFFF7CAFD2CE0FFF766
:10455000AFFE4FF0000E7046CDF804E0FFF7D0FC40
:104560000198FFF78FFB40F27400C2F2000090ED5B
:104570000B0AFFF7B5FD17E0FFF79AFE4FF0000EAC
:104580007046CDF800E000F007FB0098FFF7B8FC9C
:104590000098FFF777FB40F27400C2F2000090ED44
:1045A0000B0AFFF79DFDFFE70CB080BD0000000087
:1045B0000050C34780B586B000200590FCF7AEF9E7
:1045C0004FF4A06000F02EFA4FF46130FEF7C4F90A
:1045D000FDF7FCFF01F08AF947F20810C0F6000071
:1045E000D0F800E04168806804900391CDF808E0BD
:1045F00002A8FFF7F3FBB6EE000A00F089FA4FF4C9
:104600006020FDF72DF8FDF739F8FCF773FFFCF794
:1046100087FC01F0BBF900F0D9FB00F00DFC00288D
:1046200008D1FFE700F016FC002803D0FFE700F0F8
:10463000C1FBFFE700F02EFC8DF80700FDF77AF9CB
:104640008DF806009DF80700C007002806D0FFE798
:104650009DF80600C007002803D1FFE7FFE700BF71
:10466000FDE700F0F9FAFEF7B7FE4FF47A70FEF7B7
:1046700069FA00F07FFAFFE70020009072B640F27E
:104680006000C2F200000068002809D0FFE740F295
:104690006000C2F200000168009100210160FFE7A4
:1046A00062B6FFE70098411E0091002817D0FFE78F
:1046B000FDF7E6FF01F084F9DDF800E0BEF1060F3A
:1046C0000CD3FFE7009840F2AC11C2F200010A6877
:1046D00010440538086005200090FFE7E2E7CBE7CB
:1046E00085B00A460346ADF810000391BDF81000EE
:1046F0004FF6FF7188420192009304D1FFE700203A
:104700008DF8130038E0BDF8100000EE100AB8EE86
:10471000400A9FED1B1A20EE010A9FED1A1A80EE47
:10472000010A8DED020A9DED020AB5EEC00AF1EE16
:1047300010FA0ADDFFE79DED020A9FED131AB4EEB1
:10474000C10AF1EE10FA04DBFFE700208DF8130038
:1047500012E09DED020A9FED0D1A20EE011A9FED69
:10476000082A32EE400A81EE000A039880ED000A22
:1047700001208DF81300FFE79DF8130005B0704786
:104780003333534000F07F45D122534000401C4654
:104790008AB0B0EE401A8DED080A2F2007909DEDEB
:1047A000080A47F21810C0F6000090ED012AB4EE96
:1047B000C20AF1EE10FA8DED001A0DDBFFE747F2A9
:1047C0001810C0F6000090F9000000EE100AB8EED4
:1047D000C00A8DED090A85E09DED080A47F2181020
:1047E000C0F6000090ED5D1AB4EEC10AF1EE10FAC9
:1047F0000DDCFFE747F21810C0F6000090F97001D9
:1048000000EE100AB8EEC00A8DED090A6AE0002039
:104810000690FFE7069801302E2856D8FFE7069845
:1048200047F21811C0F6000101EBC0004168059184
:10483000C06804909DED080A9DED051AB4EEC10A0A
:10484000F1EE10FA3CDCFFE79DED080A9DED041A3D
:10485000B4EEC10AF1EE10FA32DBFFE7069847F238
:104860001811C0F6000101EBC00211F9300000EE92
:10487000100AB8EEC00A8DED030A92F9080000EEA6
:10488000100AB8EEC00A8DED020A9DED050A9DEDF5
:10489000081A30EE411A9DED042A30EE420A81EEEC
:1048A000000A8DED010A9DED030A9DED021A31EE1D
:1048B000401A9DED012A01EE020A8DED090A11E070
:1048C000FFE7069801300690A4E747F21810C0F6FB
:1048D000000090F9700100EE100AB8EEC00A8DEDEC
:1048E000090AFFE79DED090A0AB0704780B587B055
:1048F00013468C4686468DF81B008DF81A108DF8ED
:10490000192000200590049003904EF60C50CEF232
:104910000000006800F4E060B0F5E06F0293CDF8AD
:1049200004C0CDF800E005D1FFE70020049004208A
:10493000039043E04EF60C50CEF20000006800F405
:10494000E060B0F5C06F05D1FFE7012004900320BF
:10495000039032E04EF60C50CEF20000006800F4F6
:10496000E060B0F5A06F04D1FFE70220049003904F
:1049700022E04EF60C50CEF20000006800F4E06039
:10498000B0F5806F05D1FFE703200490012003906C
:1049900011E04EF60C50CEF20000006800F4E0602A
:1049A000B0F5407F05D1FFE704200490002003907C
:1049B00000E0FFE7FFE7FFE7FFE7FFE79DF81A00EA
:1049C0000499C1F10401884005909DF819000399EC
:1049D000C1F104010F2222FA01F1084005990843B0
:1049E000059005980001059005989DF81B104EF262
:1049F0000042CEF2000288549DF81B0000F01F0117
:104A0000012202FA01F14EF20012CEF2000242EA55
:104A1000D0004EF21C12CEF200021040016007B02E
:104A200080BD000082B00146019001980022C0F2D2
:104A3000FA5210434EF60C52CEF200021060009172
:104A400002B0704780B590B001460F900F980028D3
:104A5000059101D1FFE759E040F2036000F094FDB9
:104A600040F60040C4F20100182103224FF0010E6D
:104A70007346CDF810E0FEF7B9FB40F2017000F08C
:104A800083FD01F0C9FA0A900A980F99B0FBF1F082
:104A9000013840F25411C2F2000108600020ADF864
:104AA0002C00ADF82E00ADF8300009680D91ADF87E
:104AB00038008DF83A0040F20041C4F200010BAA20
:104AC000039008460291114601F080FB049806907D
:104AD0000399ADF81E10ADF82210022206AB029821
:104AE000114601921A4601F059F860220298019984
:104AF00001F0C6F902980199039A01F011FA02989F
:104B000001F01CF8029801F019FBFFE710B080BD1E
:104B100080B582B0B0EE401A8DED010A9DED010A1C
:104B2000DFED120A9FED122A8DED001AB0EE421A47
:104B3000FDF78CFE8DED010A9DED010A40F2541E39
:104B4000C2F2000E9EED001AB8EE411A20EE010AE4
:104B5000BDEEC00A10EE10EA40F20040C4F20000C0
:104B60000221724601F0DCF902B080BD00000000B5
:104B7000A4707D3F40F25810C2F200000121017282
:104B80000078002807D1FFE740F25810C2F2000079
:104B90000021C160FFE7704780B582B001468DF803
:104BA000070040F22700C2F200000078012222EA4A
:104BB00000008DF806009DF80600C007002800914F
:104BC00015D0FFE740F2046000F0DEFC41F2000087
:104BD000C4F20100102103224FF48063FEF706FBAC
:104BE00040F22700C2F2000001210170FFE79DF8AA
:104BF0000600C00700280FD1FFE740F22800C2F2EC
:104C00000000007800F001009DF8071001F001019C
:104C1000884201D1FFE71DE09DF8070000F0010088
:104C200040F22801C2F200010870002809D0FFE715
:104C300041F20000C4F201004FF48061FEF7CAFAAD
:104C400008E041F20000C4F201004FF48061FEF779
:104C5000B5FAFFE702B080BD80B596B005A8442143
:104C600004900391FBF7CAFA00208DF8140040F27B
:104C70005811C2F2000102900846DDF810E00191DF
:104C80007146039AFBF7A1FA44F62060FFF7DAFEBB
:104C90009FED060AFFF73CFFFCF742F902980199E5
:104CA000087000F005F816B080BD00BF00000000DD
:104CB00080B582B09FED0B0A00F016F84FF0000EA1
:104CC0007046CDF804E0FFF767FF40F25810C2F2DB
:104CD0000000DDF804E080F831E0C0F810E002B038
:104CE00080BD00BF0000000080B582B0B0EE401A69
:104CF0008DED010A9DED010AB5EEC00AF1EE10FA44
:104D00008DED001A03DCFFE700200190FFE79DED29
:104D1000010AFFF7FDFE02B080BD000080B588B03B
:104D200040F2026000F030FC40F2036000F02CFC26
:104D300040F60000C4F201004FF0100E03214FF4C2
:104D40008072079006917146069B05921A46059B54
:104D5000CDF810E0FEF74AFA07980599FEF72EFA0B
:104D600040F60040C4F201004FF400510390049A51
:104D700002911146069A029BFEF738FA03980299AF
:104D8000FEF71CFA18200799019008460199069A27
:104D9000059BFEF72BFA03980199069A029BFEF7F2
:104DA00025FA48214FF480530398069AFEF71EFA1D
:104DB00008B080BD40F26400C2F200000021017022
:104DC00040F26500C2F200000170704780B584B007
:104DD00040F2046000F0D8FB40F2036000F0D4FB26
:104DE0004FF4C06000F0D0FB40F60040C4F2010078
:104DF000042103224FF48053FEF7F8F942F60040F5
:104E0000C4F2010080210390029101F075FA18208C
:104E100000210191019AFFF769FD0398029901F0C1
:104E20005BFA00F009F8002803D0FFE700F01CF857
:104E3000FFE704B080BD000080B540F60040C4F23A
:104E400001004FF48051FEF785FAB0FA80F0400976
:104E500080BD000040F26400C2F20000007800282B
:104E600018BF01207047000080B540F26400C2F214
:104E7000000001210170FFF7DFFF002818BF0120AB
:104E800040F26501C2F2000108704FF00000FFF728
:104E900037F880BD80B582B0FFF7CEFF002804D080
:104EA000FFE700208DF807000FE0FFF7D3FF002891
:104EB00003D0FFE7FFF77EFFFFE7FFF7BDFFB0FA84
:104EC00080F040098DF80700FFE79DF8070002B069
:104ED00080BD000085B00146049041F20400C4F298
:104EE000020000680390039843F6FF72CEF6FF724B
:104EF0001040039041F22C00C4F2020000680290BE
:104F0000029820F00050029004980428019100902B
:104F10000ED3FFE70098052810D0FFE70098072878
:104F20000CD0FFE70098A0F10801042912D31FE07C
:104F30000498039941EA803003901AE0049820F025
:104F4000040004900498039941EA803040F08050B6
:104F500003900EE0049820F00C000490049803994C
:104F600041EA80300390029840F00050029000E047
:104F7000FFE7039841F20401C4F2020108600298BD
:104F800041F22C01C4F20201086005B07047000034
:104F900083B00146029041F20400C4F202000268AC
:104FA0000192019A22F0F0020192019A029B1A43A7
:104FB0000260009103B0704783B00146029041F255
:104FC0000400C4F2020002680192019A22F4E06235
:104FD0000192019A029B1A430260009103B070474C
:104FE00083B00146029041F20400C4F2020002685C
:104FF0000192019A22F460520192019A029B1A4393
:105000000260009103B0704799B001468DF86300CB
:105010000020169040F20672C0F608120A9240F282
:105020000122C0F20342099208900790069205906F
:105030000492039041F20400C4F202000068C0F33D
:1050400081001790179800280291019008D0FFE77F
:10505000019801280AD0FFE7019802280CD087E0C8
:1050600041F20020C0F27A00159087E041F2002062
:10507000C0F27A00159081E041F20400C4F202000F
:10508000006800F4803011901198B0F5803F2CD169
:10509000FFE741F22C00C4F20200006800F08040FB
:1050A00010901098002806D1FFE741F20020C0F2CE
:1050B0007A000D9005E046F60040C0F2DC200D902D
:1050C000FFE741F20400C4F20200006800F400307F
:1050D0000F900F98B0F5003F06D1FFE740F60010A3
:1050E000C0F23D000D90FFE705E040F60010C0F271
:1050F0003D000D90FFE741F20400C4F20200016898
:10510000C1F383410E91006810F0006F05D0FFE7F6
:105110000E9840F010000E90FFE741F20400C4F238
:105120000200006810F0804F05D0FFE70E9840F0B5
:1051300020000E90FFE70E980E2804D8FFE70E9887
:1051400002300E900FE00E980F2808D3FFE70E985C
:105150003E2804D8FFE70E9801300E9002E03F2071
:105160000E90FFE7FFE70D980E994843159005E074
:1051700041F20020C0F27A001590FFE741F20400EE
:10518000C4F202000168C1F303110C910C9907AA43
:10519000515C0B9115990B9AD14014910168C1F3A0
:1051A00002210C910C9905AA515C0B9114990B9A50
:1051B000D14013910068C0F3C2200C900C9803A951
:1051C000085C0B9014980B99C84012909DF86300EE
:1051D00001460328009110D80099DFE801F002058C
:1051E000080B1598169009E01498169006E013988D
:1051F000169003E01298169000E0FFE7169819B099
:105200007047000080B582B041F20000C4F2020095
:10521000016841F00101016000210190084600F0A1
:105220006BF841F20401C4F20201D1F800E00C2253
:10523000C2F2000202EA0E020A6001990A684FF601
:10524000FF7ECFF6F66E02EA0E020A600A6822F4CA
:1052500080220A6041F20802C4F202024FF41F0EDB
:10526000C2F800E041F22C02C4F20202D2F800E0DF
:105270002EF0C04EC2F800E0009002B080BD0000E9
:1052800082B00146ADF80400BDF80400800941F287
:105290000002C4F202028058BDF8042002F01F028E
:1052A000012303FA02F21042009104D0FFE701202B
:1052B0008DF8070003E000208DF80700FFE79DF858
:1052C000070002B07047000082B00146ADF806004A
:1052D000BDF8060000F01F02012303FA02F2800964
:1052E00041F20003C4F2020350F803C042EA0C0288
:1052F000C250009102B0704780B58CB00146ADF845
:105300002E0000200A908DF827008DF82600BDF8A9
:105310002E00024600280891079274D0FFE70798F4
:10532000102817D0FFE70798182800F0F880FFE74B
:105330000798B0F5006F37D0FFE70798B0F5106F0A
:1053400000F0BC80FFE743F210000799814200F0B3
:10535000848013E1FFE79DF82600002100280691D4
:1053600009D1FFE70A98A0F50061B0F5006F18BFFA
:1053700001210691FFE70698C007002809D0FFE742
:105380001120FFF77DFF8DF826000A9801300A9062
:10539000E1E71120FFF774FF002804D0FFE70120A8
:1053A0008DF82700FFE7EAE0FFE79DF826000021DF
:1053B000002805910CD1FFE70A980121CFF60041A2
:1053C00001446FF07C42904218BF01210591FFE734
:1053D0000598C00700280AD0FFE740F60100FFF754
:1053E0004FFF8DF826000A9801300A90DDE740F65D
:1053F0000100FFF745FF002804D0FFE701208DF8EA
:105400002700FFE7BBE0FFE79DF82600002100280A
:10541000049109D1FFE70A98A0F5A061B0F5A06F4B
:1054200018BF01210491FFE70498C007002809D0A4
:10543000FFE70120FFF724FF8DF826000A980130CE
:105440000A90E1E70120FFF71BFF002804D0FFE7E7
:1054500001208DF82700FFE791E0FFE79DF8260087
:105460000021002803910ED1FFE70A980121CFF611
:10547000F07101444FF6FF72C0F20F02904218BF64
:1054800001210391FFE70398C00700280AD0FFE736
:1054900043F21100FFF7F4FE8DF826000A98013060
:1054A0000A90DBE743F21100FFF7EAFE002804D080
:1054B000FFE701208DF82700FFE760E0FFE79DF898
:1054C00026000021002802910ED1FFE70A98012151
:1054D000CFF6F07101444FF6FF72C0F20F02904216
:1054E00018BF01210291FFE70298C00700280AD0E7
:1054F000FFE740F60110FFF7C3FE8DF826000A987B
:1055000001300A90DBE740F60110FFF7B9FE0028F2
:1055100004D0FFE701208DF82700FFE72FE0FFE729
:105520009DF826000021002801910ED1FFE70A987E
:105530000121CFF6F07101444FF6FF72C0F20F0265
:10554000904218BF01210191FFE70198C007002890
:1055500009D0FFE71920FFF793FE8DF826000A987F
:1055600001300A90DCE71920FFF78AFE002804D0FA
:10557000FFE701208DF82700FFE700E0FFE79DF837
:1055800027000CB080BD000082B00146ADF80600D7
:10559000BDF8060000F01F02012303FA02F28009A1
:1055A00041F20003C4F2020350F803C042EA0C02C5
:1055B000C250009102B0704782B00146ADF80600BB
:1055C000BDF8060000F01F02012303FA02F2800971
:1055D00041F20003C4F2020350F803C02CEA0202B5
:1055E000C250009102B0704782B00146ADF806008B
:1055F000BDF8060000F01F02012303FA02F2800941
:1056000041F20003C4F2020350F803C042EA0C0264
:10561000C250009102B0704785B00A46034604901C
:1056200003910020029041F20400C4F202000168DC
:10563000029102994FF6FF7CCBF2C27C01EA0C0189
:1056400002910499DDF80CC041EA0C01DDF808C0B4
:1056500041EA0C010291029901600192009305B0A8
:105660007047000083B0014602900020019041F293
:105670002C00C4F2020002680192019A22F08042DA
:105680000192029A019B1A430192019A02600091D1
:1056900003B0704783B0014602900020019041F2B0
:1056A0000400C4F2020000680190019820F4003068
:1056B000019002980128009105D1FFE7019840F47C
:1056C00000300190FFE7019841F20401C4F20201A9
:1056D000086003B07047000083B00146029041F2B9
:1056E0000400C4F2020002680192019A22F003024F
:1056F0000192019A029B1A430260009103B0704725
:1057000041F20400C4F20200006800F00C0070478F
:1057100080B584B0B0EE401A8DED030A9DED030A0A
:10572000DFED100A9FED102A8DED011AB0EE421A3E
:10573000FDF7A2FC8DED020A9DED020A40F2241E47
:10574000C2F2000E8EED060ABCEEC00A10EE10EAA0
:105750007046FEF777FCB6EE000AFEF741FC04B097
:1057600080BD00BF007C92470050434883B00020BA
:105770000290019041F20000C4F20200016841F47D
:1057800080310160FFE702980130029041F2000091
:10579000C4F20200006800F400300190FFE70198B5
:1057A00000210028009109D1FFE70298A0F50061CF
:1057B000B0F5006F18BF01210091FFE70098C00706
:1057C0000028E0D1FFE741F20000C4F202000068C7
:1057D00010F4003F02D1FFE7FFE7FEE741F21C00B3
:1057E000C4F20200016841F08051016047F20000FC
:1057F000C4F20000016841F44041016041F204003C
:10580000C4F202000168016001680160016841F4AE
:1058100080610160016821F440310160016841F458
:105820004031016001684FF6FF72CBF2C372114044
:10583000016001680022C0F634021143016041F2A8
:105840000000C4F20200016841F080710160FFE7CE
:1058500041F20000C4F20200006810F0007F01D1A4
:10586000FFE7F5E747F20000C4F20000016841F4E9
:1058700080310160FFE747F20400C4F200000068D5
:1058800010F4803F01D1FFE7F5E747F20000C4F2D2
:105890000000016841F400310160FFE747F20400B5
:1058A000C4F20000006810F4003F01D1FFE7F5E703
:1058B00041F20400C4F20200016821F0030101601A
:1058C000016841F002010160FFE741F20400C4F207
:1058D0000200006810F0080F01D1FFE7F5E703B000
:1058E0007047000080B5FFF741FF80BD80B584B0F0
:1058F000FBF730F840F2000EC2F2000EDEF800E0D6
:1059000044F6D350C1F26200AEFB000E4FEA9E1E79
:10591000CDF80CE0DDF80CE0BEF1000F029005D0F0
:10592000FFE70398B0F1807F01D3FFE7FFE703981B
:10593000013803900398B0F1807F04D3FFE76FF044
:105940007F400390FFE74EF21000CEF200000021EE
:105950000160039A4EF21403CEF200031A604EF275
:105960001802CEF200021160022201901046FDF7EB
:105970000BFD4FF0FF31009008460099FBF77EF9D0
:1059800007200199086004B080BD000040F29C101F
:10599000C2F200004FF6FF7101800021416081607A
:1059A00001734173016840F24012C2F200021160BB
:1059B00041685160C168D1608068906070470000A4
:1059C00080B582B040F21400C2F20000818840F23B
:1059D0009C12C2F200020190104600F00BF80198F0
:1059E000418940F24010C2F2000000F003F802B01A
:1059F00080BD000080B58CB00A4603460B90ADF820
:105A00002A10BDF82A000B9908800B98011DBDF8DB
:105A10002A0009920893FEF763FE0B990873BDF8FC
:105A20002A100B98027B02F001024068079106924F
:105A3000FAF79DFD41EC100B684680ED000B47F234
:105A4000BB20C0F600000799069AFCF76DFF0B9982
:105A5000097BC9070029059019D0FFE70B9890ED45
:105A6000010AFEF795FE0B9880ED020A0B9890ED67
:105A7000020A9FED171A4FF0000EB4EEC10AF1EEC4
:105A800010FAC8BF4FF0010E80F80DE005E00B984A
:105A9000002181600B984173FFE70B9881680490A7
:105AA0000846FAF764FD41EC100B0498417B01F0C5
:105AB0000101EE46CEF8001053EC102B47F2A62061
:105AC000C0F60000FCF730FF03900CB080BD00BFB3
:105AD0000000B44280B582B00220FFF795FA019031
