:020000040800F2
:100000005808002045010008C1080008B108000890
:10001000BD0800083D070008CD0B000800000000E7
:10002000000000000000000000000000C9080008F7
:10003000AD08000800000000C5080008CD08000851
:100040005F0100085F0100085F0100085F01000810
:100050005F0100085F0100085F0100085F01000800
:100060005F0100085F0100085F010008D107000878
:10007000450800085F0100085F0100085F010008F3
:100080005F0100085F0100085F0100085F010008D0
:100090005F0100085F0100085F0100085F010008C0
:1000A000B50A00085F0100085F0100085F01000851
:1000B0005F0100085F010008E10A00085F01000815
:1000C0005F0100085F0100085F0100085F01000890
:1000D0005F0100085F0100085F0100085F01000880
:1000E0005F0100085F0100085F0100085F01000870
:1000F0005F0100085F0100085F0100085F01000860
:100100005F0100085F0100085F0100085F0100084F
:100110005F0100085F010008190B0008710B00085F
:100120005F0100085F0100085F0100085F0100082F
:10013000DFF80CD000F0F0FA00480047D951000871
:10014000580800200648804706480047FEE7FEE7BB
:10015000FEE7FEE7FEE7FEE7FEE7FEE7FEE7FEE777
:10016000510A0008310100082DE9F05F0546002022
:1001700092469B4688460646814640241BE0284618
:1001800041464746224600F017FA53465A46C01ADF
:10019000914110D311461846224600F0FEF92D1A5F
:1001A00067EB01084F4622460120002100F0F5F9D7
:1001B00017EB00094E41201EA4F10104DFDC484684
:1001C00031462A464346BDE8F09F40EA01039B07BB
:1001D00003D009E008C9121F08C0042AFAD203E0BC
:1001E00011F8013B00F8013B521EF9D27047D2B220
:1001F00001E000F8012B491EFBD270470022F6E710
:1002000010B513460A4604461946FFF7F0FF20468C
:1002100010BD2DE9FE4F804681EA0300C00F0C4659
:10022000009021F0004123F00045B8EB0200A94105
:1002300005D24046214690461C460B46024623F016
:100240000040104347D0270DC7F30A00C3F30A51FB
:100250000290401A019040286BDAC3F3130040F477
:10026000801B0098924620B10023D2EB030A63EB77
:100270000B0B01985946C0F14002504600F08DF931
:1002800006460D4650465946019A00F0A5F910EB76
:1002900008006141002487EA115284EAE7731A4397
:1002A00040D0009A62B3019A012A4FEA075215DC46
:1002B000001B61EB02014FF0004202EA0752CDE958
:1002C0000042001C41F5801132462B4600F0A5F992
:1002D00003B0BDE8F08F40462146F9E7001B61EB13
:1002E0000201001C41F5801300185B412018A2F5A3
:1002F000001747EB030140EAD570B6196D4111E0D4
:100300006D084FEA360645EAC0754FEA0752001BF2
:1003100061EB0201001C41F5801149084FEA3000F1
:100320000019514132462B4603B0BDE8F04F00F0B2
:1003300065B90098012240000023D0EB020263EB74
:10034000E073009821464FEAE074B8EB000061EBDF
:100350000401E9E783F000435BE781F0004158E7DF
:100360002DE9FE4F81EA030404F0004421F000412E
:1003700000944FF0000B23F0004350EA01045ED0DC
:1003800052EA03045BD0C3F30A54C1F30A552C4468
:10039000A4F2F3340194A0FB0254C1F3130141F41D
:1003A0008011C3F3130343F4801301FB024400FBE9
:1003B000034E840A970A44EA815447EA8357A4FB10
:1003C000076802958D0A05FB07854FEA932C04FB0D
:1003D0000C542705029D4FEA065847EA1637B5EB3D
:1003E00008056EEB070C870E920E47EA811742EA6A
:1003F0008312A7FB0201B6EB0B0164EB00042B0D8B
:1004000043EA0C335E1844EB1C50DA465146E7FBD6
:100410000201C5F313044FEA0B3343EA14534FEAC6
:100420000432019C43EA0603A4F10C040294009CEC
:10043000CDE900B400F0F1F803B0BDE8F08F002082
:100440000146F9E72DE9F04D81EA030404F0004B81
:1004500021F0004514464FF0000A23F0004150EA15
:10046000050220D054EA01021DD0C5F30A57024606
:10047000C5F31303C1F31300C1F30A5640F480150A
:1004800043F48013A7EB0608101BD64608F2FD388C
:1004900073EB050002D308F1010801E092185B41FB
:1004A000B8F1000F03DA00200146BDE8F08D00200E
:1004B0004FF48011064684460EE0171B73EB0507C8
:1004C00005D3121B63EB050306434CEA010C4908F4
:1004D0004FEA300092185B4150EA0107EDD152EA31
:1004E000030012D082EA040083EA0501084305D024
:1004F000101BAB4106D20122002306E000224FF080
:10050000004302E06FF0010253101AEB06004CEBBF
:10051000085110EB0A0041EB0B01BDE8F04D00F073
:100520006DB80EB540F2334102910021CDE90011C2
:100530000A460B4600F071F803B000BDC1F30A5241
:1005400010B5C1F3130140F2FF3341F480119A4218
:1005500001DA002010BD40F233439A42A2F2334246
:1005600003DC524200F028F810BD904010BD30B5B9
:100570000B46014600202022012409E021FA02F561
:100580009D4205D303FA02F5491B04FA02F52844FB
:10059000151EA2F10102F1DC30BD202A04DB203A55
:1005A00000FA02F1002070479140C2F1200320FAC6
:1005B00003F3194390407047202A04DB203A21FAC4
:1005C00002F00021704721FA02F3D040C2F120026C
:1005D0009140084319467047202A06DBCB17203A82
:1005E00041FA02F043EAE07306E041FA02F3D04038
:1005F000C2F12002914008431946704710B5141EFD
:1006000073F1000408DA401C41F1000192185B41CB
:100610001A4301D120F0010010BD2DE9F04D9246A2
:100620009B4611B1B1FA81F202E0B0FA80F22032B9
:100630009046FFF7B2FF04460F4640EA0A0041EA3F
:100640000B0153465A46084313D0114653EA0100A2
:1006500019D0C8F140025046FFF7AEFF05460E46DE
:10066000504659464246FFF798FF084305D00120FF
:1006700004E020463946BDE8F08D0020054346EAF7
:10068000E0762C4337430A986305E40AA0EB0800A0
:100690000022FD0A44EA47540A3002D500200146F0
:1006A000E9E7010510196941DDE9084500196941CB
:1006B000BDE8F04DA2E7C1F30A52C1F3130140F2C5
:1006C000FF3341F480119A4202DA0020014670475C
:1006D00040F233439A42A2F2334202DC5242FFF725
:1006E0006BBFFFF75ABF000030B5041E71F1000464
:1006F00004DB4FF00044404264EB0101141E73F12F
:10070000000405DB1C464FF00043524263EB040338
:10071000994208BF904230BD064C074D06E0E068A4
:1007200040F0010394E8070098471034AC42F6D338
:10073000FFF702FD4085000860850008FFE7FEE73F
:1007400080B584B005F0B0FE4FF0100E7046CDF8C5
:1007500008E005F00BFF029805F020FF8DF80F0070
:100760009DF80F00012830D1FFE7022002F01CFDA8
:100770000020019005F05EFD019805F083FD4FF427
:10078000806005F06BFD019806F0BEF8019806F058
:10079000D3F84FF480304FF4501106F08FF8182042
:1007A00005F0E4FEFFE7192005F0BCFE002801D1AA
:1007B000FFE7F8E7022006F0E1F8FFE706F0F2F8BD
:1007C000002801D1FFE7F9E7FFE704B080BD000092
:1007D00080B50020C4F202000021042202F046FA93
:1007E00000280ED0FFE70020C4F2020000210422FE
:1007F00002F022FA40F2BC20C2F2000000F0E4FE57
:10080000FFE70020C4F202000021022202F02EFACB
:1008100000280FD0FFE70020C4F2020000210222CE
:1008200002F00AFA40F2BC20C2F20000043000F0EC
:10083000CBFEFFE70020C4F202000021012202F0FB
:10084000FBF980BD80B50020C4F20200012108221E
:1008500002F00CFA00280FD0FFE70020C4F20200DB
:100860000121082202F0E8F940F21A00C2F2000069
:10087000002180F88012FFE70020C4F2020001216D
:10088000022202F0F3F900280FD0FFE70020C4F2A3
:1008900002000121022202F0CFF940F21A00C2F256
:1008A0000000002180F88012FFE780BD7047000043
:1008B000FFE7FEE780B5FFF743FF80BDFFE7FEE7F8
:1008C00070470000704700007047000040F2A02011
:1008D000C2F2000001680131016040F2F020C2F272
:1008E00000000168013101607047000087B041F2EB
:1008F0000400C4F202000068C0F38100069006986C
:100900000028009008D0FFE7009801280ED0FFE7EC
:100910000098022814D08EE040F20400C2F20000D9
:1009200041F20021C0F27A0101608EE040F2040041
:10093000C2F2000041F20021C0F27A01016084E0BD
:1009400041F20400C4F20200006800F48030059017
:100950000598B0F5803F2CD1FFE741F22C00C4F29E
:100960000200006800F0804004900498002806D13E
:10097000FFE741F20020C0F27A00019005E046F660
:100980000040C0F2DC200190FFE741F20400C4F215
:100990000200006800F4003003900398B0F5003FB7
:1009A00006D1FFE740F60010C0F23D000190FFE7DE
:1009B00005E040F60010C0F23D000190FFE741F273
:1009C0000400C4F202000168C1F38341029100688F
:1009D00010F0006F05D0FFE7029840F01000029081
:1009E000FFE741F20400C4F20200006810F0804FFB
:1009F00005D0FFE7029840F020000290FFE7029840
:100A00000F2804D3FFE702980130029003E0029818
:100A100002300290FFE702983E2803D3FFE73F2011
:100A20000290FFE701980299484340F20401C2F2A4
:100A30000001086009E040F20400C2F2000041F247
:100A40000021C0F27A010160FFE707B070470000A3
:100A500080B54EF68850CEF20000016841F4700176
:100A6000016041F20000C4F20200016841F001019E
:100A7000016041F20401C4F2020100220A6041F265
:100A80002C01C4F202010A6001684FF6FF72CFF632
:100A9000F6621140016041F20801C4F202014FF414
:100AA0001F020A60016821F48021016006F06CF8E1
:100AB00080BD000080B542F60040C4F201008021F4
:100AC00006F00CFD00280AD0FFE705F01FFB42F6F8
:100AD0000040C4F20100802106F0F0FCFFE780BD79
:100AE00080B540F60000C4F20000012106F0F6FCDB
:100AF00001280FD1FFE740F60000C4F200000121F9
:100B000006F0DCFC40F2B820C2F2000001680131BE
:100B10000160FFE780BD000080B541F20000C4F233
:100B20000000012106F0DAFC012808D1FFE741F2BC
:100B30000000C4F20000012106F0C0FCFFE740F213
:100B40000800C2F2000001880131018000881428E9
:100B50000DDBFFE740F20800C2F200000021018037
:100B600040F2FA20C2F2000001210170FFE780BDCF
:100B700080B541F20040C4F20000012106F0AEFC55
:100B8000012808D1FFE741F20040C4F20000012132
:100B900006F094FCFFE740F20A00C2F20000018870
:100BA00001310180B0F90000B0F57A7F0DDBFFE77D
:100BB00040F20A00C2F200000021018040F2F92058
:100BC000C2F2000001210170FFE780BDFFE7FEE7F0
:100BD00084B00A4603468DF80F0002919DF90F007C
:100BE0000028019200930ADBFFE7029800019DF9BB
:100BF0000F104EF20042CEF2000288540BE0029831
:100C000000019DF80F1001F00F014EF61452CEF2C4
:100C100000028854FFE704B07047000080B540F23E
:100C2000026005F003FE40F60000C4F2010000215E
:100C30000322602302F0E4FA80BD00002DE9F041B8
:100C400090B04FF4A06005F0F1FD00200F900E90E1
:100C50000D900C900B900A90099040F2000EC4F297
:100C6000020E089070460899CDF81CE001F0B2FE23
:100C700042F24C40C4F20100099008988DF83C0003
:100C800040F2BC21C2F200010B9101218DF83D1010
:100C90004FF4807ECDF828E04FF4806ECDF830E040
:100CA0004FF0040ECDF834E04FF400520E928DF860
:100CB0003E000A9B099ADDF82CC00C9C0D9D0E9EEF
:100CC0000F9FE846C8F81070C8F80C60C8F80850C4
:100CD000C8F80440C8F800C00798DDF820C00691A5
:100CE0006146CDF814E001F0C1FE0798089901F0C3
:100CF00051FE02220798089901F078FF0798089999
:100D0000059A01F073FF07980899069A01F094FF7D
:100D100010B0BDE8F081000080B586B001460590B6
:100D200040F20C00C2F2000000780028049101D0CB
:100D3000FFE761E0FFF772FFFFF780FF0B204FF046
:100D4000010E002103917146039ACDF808E004F0EA
:100D500015FB40F2096005F069FD0220019005F0E5
:100D60000BFA42F20040C4F20100009000F07AFA5F
:100D7000039800F0E5FB4FF480710098029A00F0B0
:100D80001FFD00980199039A00F01AFD009803993D
:100D900000F04EFA00980299019A00F009FA052233
:100DA00004230098039900F033FC0622009802996E
:100DB000029B00F02DFC4FF460220098029900F095
:100DC000F3FA00980299029A00F0A6FA009800F04F
:100DD00091FA009800F0CCF9009800F07FFA00201A
:100DE000C4F20200039901F095FD40F20C00C2F23A
:100DF000000002990170FFE706B080BD40F20C00D0
:100E0000C2F200000078002801D1FFE7FFE7704739
:100E100080B584B040F20260039005F007FD0398AE
:100E200005F004FD40F2046005F000FD41F2000011
:100E3000C4F201004FF0000E0321302302917146ED
:100E4000029ACDF804E002F0DBF940F60000C4F2AB
:100E500001008A230199029A02F0D2F940F600407B
:100E6000C4F2010002230199029A02F0C9F904B008
:100E700080BD000080B588B040F20D00C2F20000D5
:100E80000078002801D0FFE797E0FFF7C1FF40F2AC
:100E90000A6005F0CBFC0220059005F06DF942F6E2
:100EA0000000C4F20100049000F0DCF9002003907F
:100EB00000F046FB0498039900F0BAF94FF48071F2
:100EC0000498039A00F07CFC04980599039A00F0BA
:100ED00077FC01200499029008460299029A00F0DA
:100EE00067F94FF460220498029900F05DFA0498C3
:100EF0000299029A00F010FA049800F0FBF94FF4FE
:100F00007A700790FFE742F60800C4F2010000681B
:100F1000002110F0010F019106D1FFE7079800288A
:100F200018BF01200190FFE70198C007002804D0F6
:100F3000FFE7079801380790E5E70798002801D1F7
:100F4000FFE73AE0012001F0A5FC42F60000C4F200
:100F5000010000F00DF94CF250300690FFE742F628
:100F60000800C4F201000068002110F0080F009191
:100F700006D0FFE70698002818BF01200090FFE781
:100F80000098C007002804D0FFE7069801380690B3
:100F9000E5E70698002809D1FFE742F60800C4F209
:100FA0000100016821F008010160FFE740F20D0037
:100FB000C2F2000001210170FFE708B080BD00000F
:100FC00080B58EB00A4603468DF835000C9140F28C
:100FD0000D00C2F20000007800280692059305D1AA
:100FE000FFE74FF6FF70ADF8360085E042F60400EB
:100FF000C4F2010000680B9042F60800C4F2010040
:1010000000680A9042F60000C4F2010001680991EC
:101010000C9B9DF835200021049000F0F9FA022085
:10102000049903900846039900F062FA0498039922
:1010300000F06EFA002808D0FFE742F60000C4F284
:101040000100022100F054FAFFE742F60000C4F26A
:101050000100012100F092FB9DF82A0040060028C3
:101060000ED4FFE742F60000C4F20100012100F0B7
:1010700085FB42F60800C4F2010000680A90FFE711
:1010800048F2A060C0F201000890FFE742F60000BD
:10109000C4F20100022100F03BFA00210028029175
:1010A00006D1FFE70898002818BF01200290FFE74B
:1010B0000298C007002804D0FFE70898013808907C
:1010C000E4E70898002805D1FFE74FF6FF70ADF878
:1010D000360011E042F60000C4F20100019000F079
:1010E00043FBADF81E000221019800F001FABDF8A3
:1010F0001E00ADF83600FFE7BDF836000EB080BD2B
:1011000080B584B040F20D00C2F2000000780028E3
:1011100001D1FFE729E00E2005210191FFF750FFE3
:10112000ADF80E000F200199FFF74AFFADF80C0053
:1011300007200199FFF744FFADF80A000920019943
:10114000FFF73EFFADF80800BDF80E0040F2FC21AD
:10115000C2F20001C880BDF80C000881BDF80A0089
:101160008880BDF808004881FFE704B080BD00001A
:1011700082B0014601900198826842F008028260C4
:101180000091FFE70198806810F0080F01D0FFE799
:10119000F8E70198816841F004018160FFE7019858
:1011A000806810F0040F01D0FFE7F8E702B0704745
:1011B00080B587B013468C46864606908DF817108A
:1011C00004929DF81700014601280393CDF808C04A
:1011D000CDF804E0009104D0FFE70098022812D077
:1011E00023E00698C16A21F47001C16204980021CD
:1011F000CFF6F07101EB00503FFA80F00699CA6A11
:101200001043C86212E00698816B21F4401181639B
:1012100004980021CFF6F07101EB005000F440106B
:1012200006998A6B1043886300E0FFE707B080BD32
:1012300084B00A4603460390029102980028019266
:10124000009306D0FFE70398816841F40061816054
:1012500005E00398816821F400618160FFE704B034
:101260007047000080B586B001460590059842F2AF
:101270000042C4F2010290420491039010D0FFE7B3
:1012800042F60000C4F201000399814211D0FFE749
:1012900043F60040C4F201000399814212D01AE0E3
:1012A00040F20930029005F0F1FA029805F0D6FA02
:1012B00012E040F20A30019005F0E8FA019805F0DA
:1012C000CDFA09E040F20F30009005F0DFFA009807
:1012D00005F0C4FA00E0FFE706B080BD82B0014629
:1012E00001900198826842F480728260009102B09D
:1012F0007047000082B0014601900198806810F0AC
:10130000010F009106D1FFE70198816841F00101CA
:101310008160FFE702B0704780B585B013468C4608
:10132000864604908DF80F108DF80E209DF80E0063
:1013300000280293CDF804C0CDF800E019D0FFE7F3
:101340009DF80F00C007002806D0FFE704988168C9
:1013500041F480118160FFE79DF80F0080070028AD
:1013600006D5FFE70498816841F400418160FFE7FA
:1013700018E09DF80F00C007002806D0FFE704988A
:10138000816821F480118160FFE79DF80F008007DC
:10139000002806D5FFE70498816821F400418160A8
:1013A000FFE7FFE705B080BD80B587B013468C46E8
:1013B000864606908DF8171004929DF81700014696
:1013C00001280393CDF808C0CDF804E0009104D0C3
:1013D000FFE7009802280BD015E00698816821F4F9
:1013E00060218160049806998A68104388600BE048
:1013F0000698816821F4E0418160049806998A6822
:101400001043886000E0FFE707B080BD80B582B080
:10141000022004F04BFF019041F20400C4F20200EC
:10142000006810F4E06F04D0FFE7019840000090DE
:1014300002E001980090FFE7009802B080BD000034
:1014400080B58CB040F2027005F0F0F940F6000073
:10145000C4F2000005F0C6FEFFF7D8FF0B900B9812
:1014600041F2597ECDF2B71EA0FB0E0E4FEA5E3E52
:10147000CDF828E0DDF828E0BEF1000F059003D19B
:10148000FFE701200A90FFE70A98002804D0FFE751
:101490000A9801380A90FFE706A8049006F072F84F
:1014A0000020ADF81800ADF81C00DDF828E0CDF8FC
:1014B00020E0ADF8240040F6000EC4F2000E0390C8
:1014C00070460499CDF808E005F062FF012002990A
:1014D00001900846019905F0E1FF1E200199039A49
:1014E00003F04CFF029805F00BFF0CB080BD00002C
:1014F00084B00A4603460390029102980399D1F8FA
:1015000000C02CEA000008600192009304B070470C
:1015100085B00A4603460490039100208DF80B0025
:1015200004980068039908420192009304D0FFE7F1
:1015300001208DF80B00FFE79DF80B0005B0704708
:1015400082B00146019042F20440C4F201000268F8
:1015500022F470220260019A03681A43026000912B
:1015600002B0704783B040F2FC20C2F20000018854
:10157000ADF800104188ADF80210C188ADF8061032
:101580000089ADF8080040F20E00C2F20000019997
:101590004160009901600299816003B070470000CA
:1015A00080B582B00146019001980091FFF7B4FB2D
:1015B00002B080BD80B5FFF7A3FD80BD80B5FFF709
:1015C0001DFCFFF757FC80BD82B0014601900198D9
:1015D000028840F2FC23C2F200031A80408858803F
:1015E000009102B07047000080B540F20C00C2F2DA
:1015F00000000078002801D1FFE707E042F2004038
:10160000C4F20100012100F0B9F8FFE780BD00003D
:10161000B0B589B09C4696460C46054608908DF8B4
:101620001F108DF81E2006939DF81F000528CDF889
:101630000CC0CDF808E00194009518D8FFE7089891
:10164000406B05909DF81F0000EB80001F2181403A
:10165000059A22EA010105919DF81E1001FA00F099
:101660000599084305900598089948633EE09DF860
:101670001F000B2819D8FFE70898006B05909DF80C
:101680001F0000EB80001E381F218140059A22EACE
:10169000010105919DF81E1001FA00F0059908431B
:1016A00005900598089908631FE09DF81F000F2812
:1016B00019D8FFE70898C06A05909DF81F0000EB55
:1016C00080003C381F218140059A22EA01010591E2
:1016D0009DF81E1001FA00F0059908430590059841
:1016E0000899C86200E0FFE7FFE7FFE79DF81E00EA
:1016F000092817D8FFE70898006904909DF81E0094
:1017000000EB400007218140049A22EA0101049184
:10171000069901FA00F00499084304900498089986
:1017200008611EE09DF81E00112818D8FFE70898F0
:10173000C06804909DF81E0000EB40001E38072191
:101740008140049A22EA01010491069901FA00F00D
:1017500004990843049004980899C86000E0FFE7E2
:10176000FFE709B0B0BD000082B0014601900198CA
:10177000C06C80B2009102B07047000084B00A468D
:10178000034603908DF80B109DF80B00C00700284E
:101790000192009306D0FFE70398816841F480012D
:1017A0008160FFE79DF80B008007002806D5FFE762
:1017B0000398816841F400118160FFE704B070472D
:1017C00080B586B013468C468646059004918DF808
:1017D0000F209DF80F0000280293CDF804C0CDF82B
:1017E00000E022D0FFE70498C005002806D5FFE7F7
:1017F0000598416841F480714160FFE70498400515
:10180000002806D5FFE70598416841F480614160F2
:10181000FFE704988007002806D5FFE70598816850
:1018200041F002018160FFE721E00498C005002833
:1018300006D5FFE70598416821F480714160FFE714
:1018400004984005002806D5FFE70598416821F473
:1018500080614160FFE704988007002806D5FFE714
:101860000598816821F002018160FFE7FFE706B07B
:1018700080BD000080B588B002A800210691ADF8B7
:101880001610ADF814100090FFE7BDF814000728FB
:1018900022D8FFE70E200521FFF792FBADF81200DA
:1018A000BDF812004FF6FF7188420BD0FFE7BDF87C
:1018B0001200069908440690BDF816000130ADF8F4
:1018C0001600FFE7022000F0E5FFFFE7BDF8140077
:1018D0000130ADF81400D8E7BDF81600002804D197
:1018E000FFE700208DF81F006EE0009890ED040ADD
:1018F000B8EE400ABDF8161001EE101AB8EE411A03
:1019000080EE010A80ED010A90ED010AB6EE001AA0
:1019100030EE010ABDEEC00A10EE101A9FED2C0A3F
:10192000DFED2C0A084600F06BFC009880ED000A01
:1019300090ED000A9FED281AB4EEC10AF1EE10FAFC
:101940000BDBFFE7009890ED000A9FED241AB4EE40
:10195000C10AF1EE10FA04DDFFE700208DF81F0048
:1019600032E000208DF80700FFE79DF8070002280D
:101970000ED8FFE7FFF71EFEFFF7F4FD012000F091
:1019800089FFFFE79DF8070001308DF80700ECE7BD
:1019900040F20E00C2F2000000884FF6FF7188424C
:1019A0000AD0FFE740F20E00C2F2000040884FF676
:1019B000FF71884204D1FFE700208DF81F0003E08B
:1019C00001208DF81F00FFE79DF81F0008B080BDC3
:1019D00000609F4500401C463333334066666640D6
:1019E00085B0B0EE401A0146ADF812008DED030A45
:1019F000BDF8120000EE100AB8EEC00A9FED0A2AE8
:101A000020EE020A9FED092A80EE020A8DED020AFD
:101A10009DED020A9DED032A20EE020A8DED011ACA
:101A2000009105B0704700BF3333534000F07F454D
:101A300080B594B00A46034612901191119800287F
:101A40000992089304D1FFE700208DF84F00E5E0EC
:101A50001198FEF766FD41EC100B9FED731B51ECE6
:101A6000110B53EC102BFEF7EDFC41EC100B8DED40
:101A70000E0B1298FEF755FD41EC100B9DED0E1B61
:101A800051EC100B53EC112BFEF7DCFC41EC100B6E
:101A900051EC100B9FED660B53EC102BFEF7B9FBCE
:101AA00041EC100B51EC100BFEF748FD0D900D981A
:101AB0007F2804D8FFE70D988DF84F00AEE012980C
:101AC000FEF72FFD41EC100B9DED0E1B51EC110BA1
:101AD00007900691079A069B8DED040BFEF799FB84
:101AE00041EC100B9DED041B51EC110B53EC102B32
:101AF000FEF7A8FC41EC100B51EC100B9FED4C0BCA
:101B000053EC102BFEF785FB41EC100B51EC100B46
:101B1000FEF714FD0C900C98402809D3FFE70C98B1
:101B20007F2805D8FFE70C9840308DF84F0075E00E
:101B30001298FEF7F6FC41EC100B9DED0E1B51ECDC
:101B4000110B9FED3D1B53EC112B8DED020BFEF79E
:101B500007FC41EC100B53EC102B9DED020B51ECEC
:101B6000100BFEF76FFC41EC100B51EC100B9FEDCE
:101B7000300B53EC102BFEF74CFB41EC100B51ECEF
:101B8000100BFEF7DBFC0B900B98202809D3FFE726
:101B90000B983F2805D8FFE70B98A0308DF84F0031
:101BA0003CE01298FEF7BDFC41EC100B9DED0E1BC6
:101BB00051EC110B9FED221B53EC112B8DED000B03
:101BC000FEF7CEFB41EC100B53EC102B9DED000B00
:101BD00051EC100BFEF736FC41EC100B51EC100BE6
:101BE0009FED130B53EC102BFEF713FB41EC100B86
:101BF00051EC100BFEF7A2FC0A900A98202809D39A
:101C0000FFE70A983F2805D8FFE70A98C0308DF80B
:101C10004F0003E000208DF84F00FFE79DF84F00D4
:101C200014B080BD00BF00BF0000000065CDCD41F5
:101C3000000000000000E03F000000000000204025
:101C4000000000000000304080B58AB00146B0EED0
:101C5000412AB0EE603AB0EE404A8DED090ACDED72
:101C6000080A8DED071A8DF81B009DED090A9FEDFE
:101C7000361AB4EEC10AF1EE10FA04918DED032A82
:101C80008DED023A8DED014A27DBFFE79DED090A54
:101C90009FED2E1AB4EEC10AF1EE10FA1DDCFFE73B
:101CA00040F2C420C2F2000090ED070A9FED2A1A0C
:101CB000B4EE410AF1EE10FA0ED0FFE740F2C42074
:101CC000C2F2000047F2A401C3F67D71C16190ED3C
:101CD000070A03F065FCFFE733E09DED090A00F019
:101CE0008BF88DED050A9DED090A9FED191AB4EEEA
:101CF000C10AF1EE10FA17DCFFE79DED080A9DED31
:101D0000091A9FED142A31EE021AB4EEC10AF1EE5F
:101D100010FA09DAFFE79DED050AB2EE001A30EE7F
:101D2000010A8DED050AFFE79DED050A00F046F872
:101D30009DED070A9DF81BE00EF0010000F0C4F8CD
:101D4000FFE70AB080BD00BF0000304200005842EB
:101D5000000016429A9919BFA4707D3F80B540F2E9
:101D6000C420C2F200000021C4F2C331016000218E
:101D7000416081600161416147F2A401C3F67D7158
:101D8000816100F001F880BD80B582B040F2C420CE
:101D9000C2F200000021C16090ED040AD0ED050AF6
:101DA00090ED061A019000F081F9019880ED070A84
:101DB00090ED070A03F0F4FB02B080BD80B582B05D
:101DC000B0EE401A8DED010A9DED010ADFED080A23
:101DD0009FED082A8DED001AB0EE421A00F066F968
:101DE00040F2C42EC2F2000E8EED000A02B080BD99
:101DF0000000B8430000C34380B586B0B0EE401A7F
:101E00008DED050A059804909DED040A9FED272AA3
:101E1000B4EEC20AF1EE10FA8DED011A05DAFFE711
:101E20000020C4F214200490FFE79DED040A9FED0A
:101E3000201AB4EEC10AF1EE10FA06DCFFE748F210
:101E40000000C4F2B830039026E09DED040A9FED37
:101E5000191AB4EEC10AF1EE10FA05DBFFE7002013
:101E6000C4F2C330039016E09DED040A9FED121AF0
:101E700030EE010AB0EE081A80EE010A8DED020A7A
:101E80009DED020AB3EE051A9FED0C2A00EE012A21
:101E90008DED032AFFE7FFE79DED030ADFED080A5A
:101EA0009FED081A00F002F906B080BD0000144250
:101EB0000000244200003042000024C20080B843E9
:101EC0000000B8430000C34380B58AB00146B0EEBD
:101ED000401A8DED090A8DF823009DF82300C007F4
:101EE000002804918DED031A26D1FFE740F2C420AB
:101EF000C2F2000090ED040AD0ED050A90ED061A3A
:101F0000029000F0D3F88DED070A9DED070A0298C4
:101F100090ED071AB4EE410AF1EE10FA0BD0FFE78C
:101F2000079840F2C421C2F20001C86191ED070A8E
:101F300003F036FBFFE76FE040F2C420C2F200007E
:101F400090ED000AD0ED050A90ED061A9FED332AB8
:101F500030EE020A9FED322A80EE020A8DED060A6B
:101F60009DED060A019000F0A1F88DED050A9DEDAA
:101F7000050A019890ED071A9FED2A2A31EE021A00
:101F8000B4EEC10AF1EE10FA0DDDFFE740F2C42015
:101F9000C2F2000090ED070A9FED221A30EE010A0E
:101FA0008DED050A1FE09DED050A40F2C420C2F246
:101FB000000090ED071A9FED1C2A31EE021AB4EED4
:101FC000C10AF1EE10FA0DDAFFE740F2C420C2F2C6
:101FD000000090ED070A9FED141A30EE010A8DED16
:101FE000050AFFE7FFE79DED050A40F2C420C2F2B3
:101FF000000090ED071AB4EE410AF1EE10FA0BD092
:10200000FFE7059840F2C421C2F20001C86191EDDA
:10201000070A03F0C5FAFFE70AB080BDC355B7C38E
:10202000D7A3BA418FC2753C8FC275BC88B0B0EEE1
:10203000412AB0EE603AB0EE404A8DED070ACDED90
:10204000060A8DED051A9DED070A9DED061AB4EE00
:10205000C10AF1EE10FA8DED042A8DED033A8DEDF3
:10206000024A05DAFFE79DED060A8DED010A18E048
:102070009DED070A9DED051AB4EEC10AF1EE10FAC6
:1020800005DDFFE79DED050A8DED000A04E09DEDFD
:10209000070A8DED000AFFE79DED000A8DED010AAC
:1020A000FFE79DED010A08B07047000088B0B0EE70
:1020B000412AB0EE603AB0EE404A8DED070ACDED10
:1020C000060A8DED051A9DED070A9DED061AB4EE80
:1020D000C10AF1EE10FA8DED042A8DED033A8DED73
:1020E000024A05DAFFE79DED060A8DED010A18E0C8
:1020F0009DED070A9DED051AB4EEC10AF1EE10FA46
:1021000005DDFFE79DED050A8DED000A04E09DED7C
:10211000070A8DED000AFFE79DED000A8DED010A2B
:10212000FFE79DED010A08B07047000080B5FFF79A
:1021300041FA03F0FDFC01F061FA80BD84B0014674
:10214000ADF80E00BDF80E0000EE100AB8EEC00AA1
:102150009FED0D1A20EE010A9FED0C1A80EE010A88
:102160008DED020A9DED020A9FED091A30EE010A7B
:102170008DED010A9DED010A9FED061A80EE010A20
:10218000009104B0704700BF3333534000F07F45E7
:102190008B6CA7BEF92A873D87B0B0EE601AB0EE0F
:1021A000402A0146ADF81A008DED050ACDED040A6E
:1021B000BDF81A0000EE100AB8EEC00ADFED0E0AF4
:1021C00020EE200ADFED0D0A80EE200A8DED030AD5
:1021D0009DED030ADDED050A9DED043A70EE830ADC
:1021E00020EE200A80EE030A8DED021A8DED012A01
:1021F000009107B0704700BF3333534000F07F4574
:1022000087B0B0EE601AB0EE402A0146ADF81A0071
:102210008DED050ACDED040ABDF81A0000EE100A96
:10222000B8EE400ADFED0B0A20EE200ADFED0A0AC5
:1022300080EE200A8DED030A9DED030AF7EE080AF1
:1022400020EE200A8DED021A8DED012A009107B0D3
:10225000704700BF3333534000F07F4584B00A46D7
:102260000346ADF80C00ADF80A10BDF80C00BDF83F
:102270000A108842019200930BDBFFE7BDF80C00C7
:10228000BDF80A10401A40F2FF11081AADF80E000E
:1022900008E0BDF80A00BDF80C10401A0138ADF88E
:1022A0000E00FFE7BDF80E0004B0704783B0014692
:1022B000019072B640F21A00C2F20000B0F881221A
:1022C000B0F883028242009104D1FFE762B6002099
:1022D000029013E040F21A00C2F20000B0F883123C
:1022E000415C019A1170B0F8831201316FF35F21E4
:1022F000A0F8831262B601200290FFE7029803B0B3
:102300007047000080B58CB013468C4686460A9014
:1023100009910892099800280393CDF808C0CDF8D8
:1023200004E007D0FFE70A98002803D1FFE7002068
:102330000B9074E00A980999089A00F04FF90790F9
:102340000798002805D0FFE70798B0F5007F03D372
:10235000FFE700200B9062E072B640F21A00C2F272
:102360000000B0F88112ADF81A10B0F88302ADF891
:102370001800BDF81A00BDF81810FFF76FFFADF890
:1023800016000798BDF81610884204D9FFE762B618
:1023900000200B9043E000200490FFE70498099987
:1023A000884230D2FFE70898002816D0FFE70A9845
:1023B0000499405C0A2810D1FFE7BDF81A0040F2EA
:1023C0001A01C2F200010D220A54BDF81A000130B0
:1023D0006FF35F20ADF81A00FFE70A980499405C9C
:1023E000BDF81A1040F21A02C2F200025054BDF8B1
:1023F0001A0001306FF35F20ADF81A00FFE7049870
:1024000001300490CAE7BDF81A0040F21A01C2F286
:102410000001A1F8810262B601200B90FFE70B9842
:102420000CB080BD82B072B640F21A00C2F2000059
:10243000B0F88112ADF80410B0F88302ADF80200D4
:1024400062B6BDF80400BDF80210884208DBFFE761
:10245000BDF80400BDF80210401AADF8060009E00E
:10246000BDF80200BDF80410401AC0F50070ADF8C8
:102470000600FFE7BDF8060002B07047F0B58FB068
:102480004FF4A06004F0D2F90020C4F202004FF033
:10249000010E07907146CDF818E000F09BFA44F663
:1024A0000400C4F200000890002009908DF8380064
:1024B0000A900B9006998DF839100C908DF83A100F
:1024C0004FF4405ECDF834E0099B089ADDF828E02F
:1024D000DDF82CC00C9C0D9D0E9E6F463E61FD608C
:1024E000BC60C7F804C0C7F800E0DDF81CC0059068
:1024F000604600F0BBFA0798069900F02BFA07989F
:10250000069900F045FC44F60000C4F2000080216A
:1025100005F016F90C200221059A02F02FFF0A227D
:102520000798069900F062FB40F21A00C2F2000020
:10253000059980F880120FB0F0BD000080B58AB018
:102540000A4603460990ADF82210BDF82200002883
:10255000079206930ED0FFE7BDF82200802809DC21
:10256000FFE740F21A00C2F2000090F88002012852
:1025700001D1FFE72FE00999BDF8222040F21A00AF
:10258000C2F2000000F50073059018460493FDF7B1
:102590001CFE0121059A82F880120023C4F2020376
:1025A000039018460291019300F094F90198029962
:1025B000029A00F041FB01980299049A00F0C4FBD2
:1025C000BDF822200198029900F024FC019802999C
:1025D00000F0A0F9FFE70AB080BD000080B588B028
:1025E00013468C46864607900691059206980490FD
:1025F000059800280293CDF804C0CDF800E01CD067
:10260000FFE70798002818D0FFE700200390FFE7B6
:102610000398069988420FD2FFE707980399405C18
:102620000A2804D1FFE7049801300490FFE7FFE790
:10263000039801300390EBE7FFE7049808B080BDF2
:1026400083B080B585B00993089207910146049044
:1026500007A803900498039A0191114600F0BEF870
:102660000290029805B0BDE8804003B070470000BA
:1026700080B584B00146039003980028029104D1EC
:10268000FFE74FF461300390FFE740F21A00C2F217
:1026900000000021A0F88112A0F8831280F88012B7
:1026A00040F20360019104F0C1F84FF4C06004F0FF
:1026B000BDF840F2127004F0B9F840F60040C4F2E0
:1026C0000100182103224FF4806300F099FD44F6C5
:1026D0000000C4F20000009004F0D4FF03990098B9
:1026E00004F066FF0098019905F0E4F8009801995C
:1026F00005F0B0F80098019905F07CF80098019970
:1027000005F05EF80098019905F040F800980199ED
:1027100005F086F80821009805F0B2F8009805F059
:1027200029F8FFF7ABFE04B080BD000080B5A4B06F
:10273000FFF778FEADF88E00BDF88E0000284AD075
:10274000FFE740F21A00C2F2000090F88002002871
:1027500041D1FFE7BDF88E00812803DBFFE7802031
:10276000009003E0BDF88E000090FFE70098ADF800
:102770008C000020ADF80A00ADF80800FFE7BDF8B6
:102780000800BDF88C10884219DAFFE70DF1070048
:10279000FFF78CFD00280AD0FFE79DF80700BDF881
:1027A0000A104A1CADF80A2003AA505400E006E0C3
:1027B000FFE7BDF808000130ADF80800DFE7BDF81D
:1027C0000A00002806D0FFE7BDF80A1003A8FFF7AB
:1027D000B5FEFFE7FFE724B080BD000080B5AAB0DA
:1027E0000A46034628912790279828990DF11C0C3A
:1027F0004FF0800E0490604603917146DDF810C0E2
:1028000002926246DDF80CE00193734605F068F829
:1028100006900698B0F1FF3F03DCFFE70698299089
:1028200023E006987F2803DCFFE70698009002E08B
:102830007F200090FFE7009805900598002805D0BC
:10284000FFE7059907A800F013F8FFE7069880282E
:1028500008DBFFE748F2F840C0F60000032100F073
:1028600007F8FFE706982990FFE729982AB080BD6E
:1028700080B586B00A4603460590049105980499F0
:102880004FF0010C039262460293FFF73BFD01906B
:1028900006B080BD83B001460290029800280091E6
:1028A00001D1FFE713E040F2A020C2F2000000686F
:1028B0000190FFE740F2A020C2F2000000680199F9
:1028C000401A0299884202D2FFE700BFF2E703B044
:1028D0007047000080B584B00A46034603908DF827
:1028E0000B1003989DF80B100192009300F070FA02
:1028F000002802D1FFE7FFE7FEE703989DF80B10E1
:1029000001EB810100EB8100816821F00101816010
:1029100004B080BD80B584B00A46034603908DF8AC
:102920000B1003989DF80B100192009300F050FAE1
:10293000002802D1FFE7FFE7FEE703989DF80B10A0
:1029400001EB810100EB8100816841F001018160B0
:1029500004B080BD80B584B00A46034603908DF86C
:102960000B1003989DF80B100192009300F030FAC1
:10297000002802D1FFE7FFE7FEE703989DF80B1060
:1029800001EB810100EB8100816821F02001816071
:1029900004B080BD80B584B00A46034603908DF82C
:1029A0000B1003989DF80B100192009300F010FAA1
:1029B000002802D1FFE7FFE7FEE703989DF80B1020
:1029C00001EB810100EB8100816841F02001816011
:1029D00004B080BD80B584B00A46034603908DF8EC
:1029E0000B1003989DF80B100192009300F0F0F982
:1029F000002802D1FFE7FFE7FEE703989DF80B10E0
:102A000001EB810100EB8100816821F0010181600F
:102A100003989DF80B1001EB810100EB8100002170
:102A2000816003989DF80B2002EB820200EB82008C
:102A3000C16003989DF80B2002EB820200EB82003C
:102A4000016103989DF80B2002EB820200EB8200EB
:102A500041619DF80B0080000F2101FA00F00399FD
:102A60004A681043486004B080BD00002DE9F0477B
:102A70008EB0DDF868C0DDF864E0189C179D169EE6
:102A80001F46904689468246CDF834C0CDF830E0E6
:102A90000B940A9509960893079206908DF81710E3
:102AA00006989DF817100397CDF80880CDF804A07C
:102AB000CDF8009000F08CF9002802D1FFE7FFE785
:102AC000FEE7079806999DF8172002EB820201EBBA
:102AD00082010861099806999DF8172002EB82028D
:102AE00001EB82014861BDF82C0006999DF8172082
:102AF00002EB820201EB8201C86006989DF8171074
:102B000001EB810100EB810080680490049820F4BF
:102B10007C50049008980A990C9A08431043049931
:102B200008430490049806999DF8172002EB82024E
:102B300001EB820188609DF8340001280CD1FFE789
:102B400006989DF8171001EB810100EB8100816868
:102B500041F0400181600BE006989DF8171001EBF1
:102B6000810100EB8100816821F040018160FFE775
:102B70009DF8350001280CD1FFE706989DF8171045
:102B800001EB810100EB8100816841F080018160EF
:102B90000BE006989DF8171001EB810100EB810016
:102BA000816821F080018160FFE79DF836000028F0
:102BB0000CD1FFE706989DF8171001EB810100EB9F
:102BC0008100816821F0100181600BE006989DF87A
:102BD000171001EB810100EB8100816841F01001C9
:102BE0008160FFE70EB0BDE8F087000080B586B0D9
:102BF00013468C46864605908DF81310039205986F
:102C00009DF813100293CDF804C0CDF800E000F059
:102C1000DFF8002802D1FFE7FFE7FEE703980599F8
:102C20009DF8132002EB820201EB82018A681043B7
:102C3000886006B080BD000080B586B013468C4623
:102C4000864605908DF81310039203989DF8131093
:102C50008900884005994A68104348600293CDF87E
:102C600004C0CDF800E006B080BD000080B58AB099
:102C700013468C46864608908DF81F100692002059
:102C800005900490069802280393CDF808C0CDF86B
:102C900004E0009008D0FFE70098042817D0FFE771
:102CA0000098082826D038E00898006806999DF812
:102CB0001F209300994008400490089802EB82017D
:102CC00000EB8100806800F00200059027E0089882
:102CD000006806999DF81F209300994008400490D1
:102CE000089802EB820100EB8100806800F004008C
:102CF000059014E00898006806999DF81F2093003D
:102D0000994008400490089802EB820100EB810092
:102D1000806800F00800059001E0FFE7FEE70498F6
:102D2000002808D0FFE70598002804D0FFE701201D
:102D30008DF8270003E000208DF82700FFE79DF8BD
:102D400027000AB080BD000080B586B013468C46CF
:102D5000864605908DF81310039205989DF8131080
:102D60000293CDF804C0CDF800E000F031F800285F
:102D700002D1FFE7FFE7FEE7039805999DF81320CE
:102D800002EB820201EB8201486106B080BD0000C7
:102D900080B584B00A46034603908DF80B10039863
:102DA0009DF80B100192009300F012F8002802D158
:102DB000FFE7FFE7FEE703989DF80B1001EB8101A9
:102DC00000EB8100816821F48041816004B080BD06
:102DD00084B00A46034603908DF80B1001208DF84D
:102DE0000A00039840F20041C4F2020188420192B5
:102DF00000930AD1FFE79DF80B00052804DBFFE7ED
:102E000000208DF80A00FFE7FFE79DF80A0004B0F4
:102E10007047000080B586B013468C468646059004
:102E20008DF81310039205989DF813100293CDF8B6
:102E300004C0CDF800E0FFF7CBFF002802D1FFE788
:102E4000FFE7FEE7BDF80C0005999DF8132002EBA3
:102E5000820201EB8201C86006B080BD80B588B0F7
:102E6000B0EE401A8DED060A9DED060ADFED280A48
:102E70009FED282A8DED011AB0EE421AFFF7D6F821
:102E80008DED050A42F62C4EC4F2010EDEF800E08C
:102E9000CDF810E0DDF810E0BEF1000F0CD1FFE737
:102EA0009DED050A0020B5EEC00AF1EE10FAC8BF8C
:102EB0000120ADF81E0027E00498013003909DED3D
:102EC000050A039801EE100AB8EE411AB6EE002A80
:102ED00000EE012ABCEEC20A10EE101A029102990D
:102EE000814204D3FFE7039801380290FFE702987C
:102EF000B0F5803F04D3FFE74FF6FF700290FFE785
:102F00000298ADF81E00FFE7BDF81E0008B080BDB6
:102F100000000000A4707D3F80B584B0B0EE401A80
:102F20008DED020A9DED020AB5EEC00AF1EE10FA2F
:102F30008DED011A03DCFFE70020039020E09DEDFA
:102F4000020AB7EE001AB4EEC10AF1EE10FA04DB81
:102F5000FFE74FF07E50039012E09DED020A9FEDD7
:102F60000A1A20EE010A04F0D9FCB7EE001A31EE7D
:102F7000400AB6EE001A20EE010A8DED030AFFE7C3
:102F80009DED030A04B080BDC3F5484080B586B00E
:102F90000A46034604900391039800280292019385
:102FA00004D1FFE701208DF8170013E004980028F2
:102FB00004D1FFE700208DF817000BE0049800F023
:102FC00035F8DDF80CE00021704528BF01218DF8AF
:102FD0001710FFE79DF8170006B080BD80B586B0DA
:102FE0000A46034604900391039800280292019335
:102FF00004D1FFE701208DF8170013E004980028A2
:1030000004D1FFE700208DF817000BE0049800F0D2
:1030100025F8DDF80CE00021704528BF01218DF86E
:103020001710FFE79DF8170006B080BD83B001467A
:10303000029002980028019103D1FFE70020009040
:1030400008E040F2A020C2F2000000680299401A95
:103050000090FFE7009803B07047000083B001467E
:10306000029002980028019103D1FFE70020009010
:1030700008E040F2A020C2F2000000680299401A65
:103080000090FFE7009803B07047000088B0B0EEF2
:10309000412AB0EE603AB0EE404A8DED070ACDED20
:1030A000060A8DED051A9DED070A9DED061AB4EE90
:1030B000C10AF1EE10FA8DED042A8DED033A8DED83
:1030C000024A05DAFFE79DED060A8DED010A18E0D8
:1030D0009DED070A9DED051AB4EEC10AF1EE10FA56
:1030E00005DDFFE79DED050A8DED000A04E09DED8D
:1030F000070A8DED000AFFE79DED000A8DED010A3C
:10310000FFE79DED010A08B07047000088B0B0EEFF
:10311000412AB0EE603AB0EE404A8DED070ACDED9F
:10312000060A8DED051A9DED070A9DED061AB4EE0F
:10313000C10AF1EE10FA8DED042A8DED033A8DED02
:10314000024A05DAFFE79DED060A8DED010A18E057
:103150009DED070A9DED051AB4EEC10AF1EE10FAD5
:1031600005DDFFE79DED050A8DED000A04E09DED0C
:10317000070A8DED000AFFE79DED000A8DED010ABB
:10318000FFE79DED010A08B07047000080B582B0EE
:10319000B0EE401A8DED010A9DED010A8DED001A89
:1031A00004F0B4FB02B080BD83B00146029042F24D
:1031B0000000C4F2020002680192019A22F00702A4
:1031C0000192019A029B1A430260009103B070477A
:1031D00084B00A460346039002910298039948611D
:1031E0000192009304B0704784B00A4603460390EE
:1031F00002910298039908610192009304B070470C
:10320000B0B58BB09C4696460C4605460A9009918F
:1032100008920793002005900490099800F00F0190
:10322000059110F0100FCDF80CC0CDF808E0019416
:10323000009514D0FFE7089804280AD1FFE7059805
:1032400040F00300059007980A99CA6B1043C863C1
:1032500004E00898059908430590FFE7FFE7002080
:10326000ADF81A00FFE7BDF81A00072837D8FFE7C6
:10327000BDF81A00012101FA00F00799084227D091
:10328000FFE70A9800680490BDF81A0080000F213B
:103290008140049A22EA01010491059901FA00F0A3
:1032A0000499084304900998282804D1FFE7079857
:1032B0000A99486108E00998482804D1FFE707986F
:1032C0000A990861FFE7FFE704980A990860FFE799
:1032D000FFE7BDF81A000130ADF81A00C3E7082077
:1032E000ADF81A00FFE7BDF81A000F283AD8FFE73B
:1032F000BDF81A00012101FA00F0079908422AD00E
:10330000FFE70A9840680490BDF81A006FF01F01AB
:1033100001EB80000F218140049A22EA010104910F
:10332000059901FA00F004990843049009982828A7
:1033300004D1FFE707980A99486108E009984828EE
:1033400004D1FFE707980A990861FFE7FFE70498AF
:103350000A994860FFE7FFE7BDF81A000130ADF8B1
:103360001A00C0E70BB0B0BD85B00A460346039013
:10337000029103988068029908420192009304D058
:10338000FFE701208DF8130003E000208DF8130003
:10339000FFE79DF8130005B07047000083B00A46B0
:1033A00003468DF80B008DF80A109DF80B009DF870
:1033B0000A1001F0030141EA8000C0B201920093BB
:1033C00003B0704780B596B001F0B6FA40F2000E37
:1033D000C4F2302ECDF80CE00020049048F2000139
:1033E000C4F2ED4105910021C4F2901106910790BD
:1033F0000021C4F2400108914CF6CD41C3F64C5176
:1034000009910A900B900C900D900E9047F6004198
:10341000C4F292710F9142F20041C4F6740110910E
:1034200045F20001C4F2C3711191129148F20001FA
:10343000C4F23B5113911490159040F20831C2F23E
:10344000000103AA4C230290084611461A46CDF803
:1034500004E0FCF7BAFE40F25430C2F200000299D8
:1034600080F838104163012280F83920C163019B44
:1034700003644164816448F6004EC4F2B97EC0F82A
:103480004CE080F85020084601F0EEFC16B080BDFC
:1034900080B584B040F25430C2F2000000780428B5
:1034A00016D0FFE740F25430C2F200000078052841
:1034B0000ED0FFE740F25440C2F20000002101703C
:1034C00040F25540C2F20000017000F061FC8BE058
:1034D00040F20E00C2F2000000889FED440ADFEDCA
:1034E000440AFEF759FE8DED010A40F25540C2F242
:1034F0000000007800280FD1FFE79DED010A40F29F
:10350000A420C2F2000080ED000A40F25540C2F251
:10351000000001210170FFE740F2A420C2F2000088
:1035200090ED000A9FED331AB4EEC10AF1EE10FAE5
:1035300007DAFFE7019840F2A421C2F20001086017
:10354000FFE79DED010A40F2A420C2F2000090EDD9
:10355000001A30EE410A9FED282A00EE021A80ED93
:10356000001A006840F20831C2F20001486040F2DF
:103570005430C2F200000078052809D1FFE740F27C
:103580005440C2F200000021017000F001FC2BE069
:1035900040F20830C2F2000090ED000A90ED011AEE
:1035A00030EE410A8DED030A40F25440C2F20000B1
:1035B00001780131CAB20170052A15D3FFE740F244
:1035C0005440C2F20000002101709DED030A0091F9
:1035D00000F076FC8DED020A9DED020A009801F0E4
:1035E000F9F800F0D5FBFFE704B080BD0038C7470D
:1035F00000609F456F12833A0AD7A33D80B596B00D
:1036000001F0A8FD40F2083EC2F2000E9EED000A55
:1036100040F2543EC2F2000E9EED021ADEED030AA5
:103620004FF0000E8DED0D0A8DED0C1ACDED0B0A4D
:10363000CDF828E002F02EF900280A98099016D05B
:10364000FFE740F25430C2F2000000780021002869
:1036500009910CD0FFE740F25430C2F2000000782C
:10366000A0F10801082818BF01210991FFE7099876
:1036700000F001009DED0D0ADDED0B0A9DED0C1A29
:10368000FEF7E2FA00F076FB40F25430C2F200009E
:1036900000780438B0FA80F040098DF8570040F205
:1036A000F620C2F20000007800287ED0FFE740F24A
:1036B000A820C2F200000068002812D0FFE740F204
:1036C000A820C2F2000000689DF85710052211F0F2
:1036D000010F18BF02221146FFF780FC002864D0BA
:1036E000FFE701208DF8560004208DF855009DF865
:1036F0005700C007002835D0FFE740F2AC20C2F2E7
:10370000000000680121002808910AD0FFE740F27C
:10371000AC20C2F2000000686421FFF75FFC089053
:10372000FFE7089800F001008DF856009DF856005C
:1037300000280BD0FFE740F2A020C2F20000006892
:1037400040F2AC21C2F200010860FFE740F2F42031
:10375000C2F2000000880621802888BF0C218DF865
:10376000551011E002F056FC00280CD0FFE740F2A3
:10377000F420C2F2000000880521802888BF0A21B9
:103780008DF85510FFE7FFE740F2A020C2F20000DD
:10379000006840F2A821C2F2000108609DF85610AE
:1037A0009DF8550000F0E8FAFFE7012000F0DAFA92
:1037B00002F070F88DF854009DF8540000F00100FC
:1037C00000F0DAFD8DF8530040F25430C2F20000F0
:1037D0000078002811D0FFE740F25430C2F2000018
:1037E0000078082809D0FFE700F016FD002803D074
:1037F000FFE700F00BFDAAE2FFE740F25430C2F20F
:103800000000007801460828079100F29F8207997E
:10381000DFE811F0090019003C007C00E300FC0027
:10382000860265029B029DF85300C007002809D05C
:10383000FFE700F0D9FD002804D0FFE7012001F0E8
:1038400013FBFFE783E29DF85400C007002804D172
:10385000FFE7062001F008FB79E200F0C5FD002833
:1038600004D1FFE7062001F0FFFA70E240F2543085
:10387000C2F2000040686421FFF7B0FB002801D1CC
:10388000FFE764E2022001F0EFFA60E201F082F962
:103890009DF854E04FEACE7EBEF1000F05D0FFE761
:1038A00000F0A2FD002804D1FFE7062001F0DCFAB9
:1038B0004DE240F25430C2F20000006A4FF4AF71A2
:1038C000FFF78CFB002820D0FFE740F25430C2F213
:1038D000000090ED030A9FEDDA1A30EE010A8DED3B
:1038E000130A9DED130AFFF751FC8DED120A01F04A
:1038F000C3F801F037F840F20830C2F2000080ED62
:103900000E0A032001F0B0FA21E220E29DF85400F3
:10391000C007002805D0FFE700F066FD002804D1AD
:10392000FFE7062001F0A0FA11E240F25430C2F2A3
:10393000000090ED030A9FEDC21A30EE010A8DEDF2
:10394000110A9DED110AFFF721FCB1EE081AB4EE41
:10395000C10AF1EE10FA11DCFFE740F25430C2F276
:103960000000006B012808D8FFE740F25430C2F293
:103970000000016B01310163FFE706E040F25430C3
:10398000C2F2000000210163FFE740F25430C2F2AE
:103990000000C06A1421FFF721FB00280CD0FFE7CC
:1039A00040F25430C2F20000006B022804D3FFE75B
:1039B000042001F059FACAE140F25430C2F200008A
:1039C000C06A4FF4C871FFF709FB002804D0FFE775
:1039D000062001F049FABAE1B9E19DF85400C007A8
:1039E00000280ED0FFE740F25430C2F2000090ED04
:1039F000020A9FEDDB1AB4EEC10AF1EE10FA04DA06
:103A0000FFE7062001F030FAA1E1A0E140F25430D6
:103A1000C2F20000C1681091016C0F9190F839005A
:103A2000002823D1FFE740F25430C2F20000C06BFF
:103A30000321FFF7D3FA002817D0FFE740F25430F4
:103A4000C2F20000012180F8391040F2A022C2F237
:103A500000021268C2630020069100F0B9FD9FEDDC
:103A6000BE0A069800F0B6FEFFE7D2E040F25430FE
:103A7000C2F2000090F83900012855D1FFE79DED12
:103A8000100A9DED0F1ABFEE002A31EE021AB4EEB5
:103A9000C10AF1EE10FA23DAFFE740F25430C2F225
:103AA0000000C06B0421FFF799FA002817D0FFE748
:103AB00040F25430C2F20000022180F8391040F286
:103AC000A021C2F200010968C1639FEDA30A012091
:103AD000059000F07FFE059800F07AFDFFE722E0F8
:103AE00040F25430C2F20000C06B3221FFF776FA88
:103AF000002817D0FFE740F25430C2F20000022144
:103B000080F8391040F2A021C2F200010968C163B7
:103B10009FED910A0120049000F05CFE049800F0F3
:103B200057FDFFE7FFE773E040F25430C2F20000B8
:103B300090F8390003281DD1FFE740F25430C2F25B
:103B40000000C06B0121FFF749FA002811D0FFE700
:103B500040F25430C2F20000012180F8391040F2E6
:103B6000A021C2F200010968C163002000F030FD0D
:103B7000FFE74CE09DED100A9DED0F1AB7EE002A0D
:103B800031EE021AB4EEC10AF1EE10FA1FDDFFE7C2
:103B900040F25430C2F20000C06B0221FFF71EFA5F
:103BA000002813D0FFE740F25430C2F20000032196
:103BB00080F8391040F2A021C2F200010968C16307
:103BC0009FED640A012000F005FEFFE71EE040F2D1
:103BD0005430C2F20000C06B1421FFF7FFF9002837
:103BE00013D0FFE740F25430C2F20000032180F806
:103BF000391040F2A021C2F200010968C1639FEDB3
:103C0000550A012000F0E6FDFFE7FFE7FFE7FFE7C9
:103C1000FFE740F25430C2F2000090ED040AB0EE2B
:103C2000041AB4EEC10AF1EE10FA50DDFFE740F2DB
:103C30005430C2F20000806C00280ED102E000BFB8
:103C4000000030C240F2A020C2F20000006840F242
:103C50005431C2F20001886438E040F25430C2F2BC
:103C60000000806C3221FFF7B9F900282DD0FFE762
:103C700040F25430C2F200000021816490ED130A3A
:103C800040F20830C2F20000D0ED0C0A90ED0D1A9F
:103C90000390FFF73BFA8DED0E0A0120029000F031
:103CA00097FC9DED0E0A029800F094FDDDED100AE0
:103CB0009DED0E1A9FED290A00F06CF80E980399FD
:103CC0008863042001F0D0F8FFE7FFE706E040F248
:103CD0005430C2F2000000218164FFE737E001F0B8
:103CE000B3F800F087FF002819D0FFE7002000F0AC
:103CF0006FFC00F09BFF40F25430C2F20000406ABB
:103D00004FF42F71FFF76AF9002807D0FFE7002072
:103D100000F020FA012001F0A7F8FFE7FFE716E026
:103D200001F092F800F066FF00280DD0FFE70020B8
:103D3000019000F04DFC019800F00CFA00F076FFC5
:103D4000019801F091F8FFE701E000E0FFE716B00D
:103D500080BD00BF0024744800C82F4800003042D6
:103D60000080A24382B001468DF80700009102B0A6
:103D7000704700007047000083B00A4603468DF884
:103D80000B008DF80A100192009303B070470000F9
:103D90007047000080B58EB0B0EE412AB0EE603AB8
:103DA000B0EE404A8DED0D0ACDED0C0A8DED0B1AEB
:103DB00040F20830C2F2000090ED020A90ED0D1AB8
:103DC0008DED0A0A016B09918DED081AC06B079001
:103DD0009DED070A9DED091AB4EEC10AF1EE10FA45
:103DE0008DED032A8DED023A8DED014A0ADBFFE7E6
:103DF0009DED070A9DED081AB4EEC10AF1EE10FA26
:103E00000BDDFFE79DED0B0ADDED090A9DED081ABC
:103E1000FFF77CF98DED070AFFE79DED0D0A9DED9B
:103E20000C1A30EE410A8DED060A9DED070A9DED54
:103E30000B1A30EE410A9DED0A1A9DED062A01EE9D
:103E4000420A8DED050A9DED080A9DED091A30EE36
:103E5000410A8DED040A9DED050A9DED041AB4EEAC
:103E6000C10AF1EE10FA03DDFFE70498059013E0B4
:103E70009DED050A9DED041AB1EE411AB4EEC10A9A
:103E8000F1EE10FA07DAFFE79DED040AB1EE400A01
:103E90008DED050AFFE7FFE7059840F20831C2F211
:103EA000000108619DED0B0ADDED090A9DED081A80
:103EB0000091FFF72BF9009880ED0E0A0EB080BD3F
:103EC00080B590B0B0EE401A8DED0F0A40F2083088
:103ED000C2F2000081680E9190ED030A8DED0D0A8B
:103EE000016B0C9190ED0D0A8DED0B0A006C0A90A0
:103EF0009DED0C0AB5EEC00AF1EE10FA8DED021A36
:103F00000ADDFFE79DED0C0A9DED0B1AB4EEC10A28
:103F1000F1EE10FA0BDBFFE747F60040C4F29270B7
:103F20000C9047F60040C4F612000B90FFE79DEDA1
:103F30000A0AB5EEC00AF1EE10FA05DCFFE7002030
:103F4000C4F27A400A90FFE79DED0E0AB5EEC00A72
:103F5000F1EE10FA05DCFFE70020C4F220100E900D
:103F6000FFE79DED0D0AB5EEC00AF1EE10FA03DA97
:103F7000FFE700200D90FFE740F20830C2F200009A
:103F8000C06B09909DED090A9DED0C1AB4EEC10AB3
:103F9000F1EE10FA0ADBFFE79DED090A9DED0B1A21
:103FA000B4EEC10AF1EE10FA0FDDFFE740F208307F
:103FB000C2F2000090ED0E0ADDED0C0A9DED0B1A29
:103FC000FFF7A4F88DED090AFFE740F20830C2F2CE
:103FD0000000806B08909DED080A9DED0C1AB4EE70
:103FE000C10AF1EE10FA0ADBFFE79DED080A9DED2C
:103FF0000B1AB4EEC10AF1EE10FA03DDFFE70998DF
:104000000890FFE740F20830C2F2000090ED040A89
:104010009DED0D1A9DED0F2A01EE020A8DED070AA6
:104020009DED0E0A9DED071A00EE021A8DED061A9F
:104030009DED090A9DED061A30EE410A8DED050A47
:104040009DED050ADDED0C0A9DED0B1AFFF75EF8FC
:104050008DED040A9DED050A9DED041A30EE410A2E
:10406000FFF794F89FED3A1AB4EEC10AF1EE10FA98
:1040700013DDFFE79DED090A9DED041A30EE410ABC
:104080009DED0E1A9DED0F2A01EE420A40F2083016
:10409000C2F2000080ED040A06E0079840F2083101
:1040A000C2F200010861FFE79DED040A9DED081AC8
:1040B00030EE410A8DED030A9DED030A9DED0A1ACB
:1040C000B4EEC10AF1EE10FA0DDDFFE79DED080A2E
:1040D0009DED0A1A30EE010A40F20830C2F20000EB
:1040E00080ED0E0A20E09DED030A9DED0A1AB1EE67
:1040F000411AB4EEC10AF1EE10FA0DDAFFE79DEDB8
:10410000080A9DED0A1A30EE410A40F20830C2F268
:10411000000080ED0E0A06E0049840F20831C2F279
:1041200000018863FFE7FFE740F20830C2F20000B9
:1041300090ED0E0ADDED0C0A9DED0B1A0190FEF7D5
:10414000E5FF019880ED0E0A90ED0E0A10B080BDDB
:10415000BD37863580B584B001468DF80F0040F23A
:10416000B020C2F200000078C007002802911DD1E3
:10417000FFE740F2046002F059FB41F20000C4F294
:104180000100102103224FF4006E01907346CDF818
:1041900000E0FFF735F801980099FFF719F840F2B1
:1041A000B020C2F2000001210170FFE740F2B1200F
:1041B000C2F20000007800F001009DF80F1001F03D
:1041C0000101884201D1FFE71DE09DF80F0000F0DA
:1041D000010040F2B121C2F200010870002809D0AC
:1041E000FFE741F20000C4F201004FF40061FEF766
:1041F000FBFF08E041F20000C4F201004FF400614F
:10420000FEF7E6FFFFE704B080BD000080B50820A0
:1042100000F02AFE80BD000080B582B040F254302C
:10422000C2F2000090ED030A9FED201AB4EEC10A1D
:10423000F1EE10FA04DDFFE701208DF8070030E011
:1042400040F25430C2F2000090ED040A9FED181ABB
:10425000B4EEC10AF1EE10FA04DDFFE701208DF89B
:1042600007001EE040F25430C2F2000090ED020A56
:104270009FED101AB4EEC10AF1EE10FA04DAFFE76E
:1042800001208DF807000CE000F052F8002804D05F
:10429000FFE701208DF8070003E000208DF80700FC
:1042A000FFE79DF8070002B080BD00BF0000684234
:1042B000000048420080A24383B001468DF80B0005
:1042C0009DF80B0001220128019100922BD0FFE7FD
:1042D0009DF80B0001210228009124D0FFE79DF8F2
:1042E0000B000121032800911DD0FFE79DF80B0072
:1042F00001210428009116D0FFE79DF80B00012151
:10430000052800910FD0FFE79DF80B000121072839
:10431000009108D0FFE79DF80B000638B0FA80F056
:1043200040090090FFE7009800F0010003B07047DB
:1043300081B040F25430C2F20000007E0021C0077C
:104340000028009111D0FFE740F25430C2F2000083
:1043500090ED050A9FED071A0020B4EEC10AF1EEB8
:1043600010FAA8BF01200090FFE7009800F00100BC
:1043700001B070470000D24280B582B001468DF88E
:1043800006009DF80600C0070028009109D1FFE74C
:1043900040F25430C2F200000021C1618DF80710D4
:1043A0001DE040F25430C2F20000C06900280BD179
:1043B000FFE740F2A020C2F20000006840F2543152
:1043C000C2F20001C861FFE740F25430C2F20000BF
:1043D000C0693221FEF702FE8DF80700FFE79DF865
:1043E000070002B080BD000040F25430C2F200006D
:1043F00090ED020A9FED041A0020B4EEC10AF1EE1E
:1044000010FAA8BF012070470000AA4380B588B009
:1044100001468DF81F0042F60040C4F20100002260
:10442000069005911146049203F090F806980499BD
:10443000049A02F057FE9DF81F00202110F0010F92
:1044400018BF10210698049A03911146039A02F0AE
:10445000F9FD4FF00100069902900846029902F01A
:104460006DFF0698029902F057FFFFE742F6004001
:10447000C4F20100012102F071FF002801D1FFE721
:10448000F4E742F60040C4F20100012101900091DE
:1044900002F054FF42F62440C4F201000021016002
:1044A0000198009903F052F808B080BD80B594B02F
:1044B00001461390139802684368806840F2E42C28
:1044C000C2F2000CCCF80020CCF80430CCF8080084
:1044D0000491CDF80CC001F051FD40F20B6002F0E8
:1044E000A5F902F0F3FB0E900E9803990A68B0FB51
:1044F000F2F0013840F2F432C2F200021060002003
:10450000ADF83C00ADF83E00ADF8400012681192E5
:10451000ADF848008DF84A0042F60042C4F20102AC
:104520000FA902901046019202F032FF01200A907A
:104530000420ADF82C000298ADF82E00ADF8300044
:10454000ADF83200ADF834000AAA0198029902F0E1
:1045500007FC60200199009008460299009A02F039
:1045600071FD01980299029A02F0BCFD082201989F
:10457000029902F0E3FD4FF40060ADF814004FF42F
:10458000806006900298ADF82200039948680E9961
:10459000FDF74EFAADF81C004FF48050ADF8240042
:1045A0000298ADF81E00ADF8200005A9019802F0B0
:1045B000B3FB0198009902F0B3FF019802F0A0FB51
:1045C000019802F09DFE029800F002F814B080BD40
:1045D00080B584B001468DF80F009DF80F00C0072C
:1045E0000028029106D0FFE70120FFF70FFF00F03F
:1045F00013F80EE042F60040C4F2010000210190E1
:10460000009102F0A3FF01980099009A02F06AFD60
:10461000FFE704B080BD000080B586B042F60040E0
:10462000C4F2010000210490039102F08FFF602288
:104630000498039902F006FD40F2E420C2F2000063
:1046400090ED020AFEF70AFCADF81600BDF8162040
:104650000498039902F046FD01200499029008464F
:10466000029902F06BFE0498029902F055FEFFE7F2
:1046700042F60040C4F20100012102F06FFE002862
:1046800001D1FFE7F4E742F60040C4F20100012146
:104690000190009102F052FE42F62440C4F2010063
:1046A000002101600198009902F050FF06B080BD22
:1046B00080B586B004A8B0EE401A80ED010A90EDF6
:1046C000010ADFED120A9FED122A8DED021AB0EEFB
:1046D000421A0190FDF7AAFC019880ED000A90EDC6
:1046E000000A40F2E42EC2F2000E8EED020AFEF73E
:1046F000B5FBADF80E00BDF80E2042F60040C4F246
:104700000100002102F0EEFC06B080BD00000000B8
:10471000A4707D3F80B588B00A46034607908DF8A7
:104720001B10079800280292019301D1FFE74EE089
:1047300002F0CCFA05900598002801D1FFE746E089
:1047400005980799B0FBF1F004900498012803D86C
:10475000FFE702200490FFE70498B0F1011F04D3A3
:10476000FFE74FF480300490FFE70498411E40F2C9
:10477000F432C2F2000211600599B1FBF0F040F290
:10478000E421C2F200010860106842F62C42C4F233
:104790000102106091ED020AFEF760FBADF80E0019
:1047A000BDF80E2042F60040C4F20100002102F0E4
:1047B00099FC9DF81B00C007002808D0FFE742F6CF
:1047C0000040C4F20100012102F0A6FDFFE708B09D
:1047D00080BD000080B586B00146B0EE401A8DED78
:1047E000050A8DF813009DED050A40F20830C2F26B
:1047F0000000D0ED0C0A90ED0D2A8DED021AB0EEFE
:10480000421A01910090FEF781FC8DED030A9DEDA7
:10481000030A009880ED0E0ABCEEC00A10EE101AD2
:104820009DF813E00EF0010E08467146FFF772FF87
:1048300006B080BD80B582B040F2A830C2F2000060
:104840000021417081704160DFED060A9FED060A8C
:104850008DED010A9DED011AFEF718FC02F0AAF891
:1048600002B080BD007C92470024744880B588B0B7
:10487000B0EE401A8DED070A40F2A830C2F20000F7
:104880004FF49671C1609FED2A0A9FED2A2A8DEDA3
:10489000040AB0EE420ADDED040A8DED031AB0EE13
:1048A000421A8DED022A0190FEF7F0FB8DED060A0B
:1048B0009DED070ADDED040A9DED021AFEF7E6FB09
:1048C0008DED050A00200199887048609DED060A6B
:1048D00081ED040A05984861C86800280AD0FFE7FE
:1048E0009DED060A9DED051AB4EE410AF1EE10FAAF
:1048F0000BD1FFE740F2A830C2F200000021417066
:104900009DED050A02F056F810E040F2A830C2F220
:1049100000000121417040F2A021C2F200010968AB
:1049200081609DED060A02F045F8FFE708B080BD02
:10493000007C92470024744880B540F2A830C2F24F
:1049400000000078C00700280AD1FFE700F042F815
:1049500040F2A83EC2F2000E01208EF80000FFE7F0
:1049600080BD000080B582B040F2A830C2F20000E5
:104970000078C00700280BD1FFE79FED0B0ADFEDA1
:104980000B0A9FED0B1AFEF781FB8DED010A06E085
:1049900040F2A830C2F2000080690190FFE79DED6F
:1049A000010A02B080BD00BF0050C347007C92479F
:1049B0000024744880B540F2A830C2F200000078AC
:1049C000C007002801D1FFE702E0FFF733FFFFE750
:1049D00080BD000080B584B040F2A830C2F2000073
:1049E000002141708170416081604FF49671C16017
:1049F0009FED110A9FED111A8DED030AB0EE410AE9
:104A0000DDED030A8DED021A0190FEF73FFB0198E0
:104A100080ED040A9FED0A0ADDED030A9DED021AFE
:104A2000FEF734FB019880ED050A90ED040A01F0D1
:104A3000C1FF04B080BD00BF007C924700247448D1
:104A4000008CB94780B582B0B0EE401A8DED010AF6
:104A500040F2A830C2F200000078C00700288DEDB7
:104A6000001A03D1FFE7FFF767FFFFE79DED010A9B
:104A7000FFF7FCFE02B080BD40F2A830C2F2000099
:104A80000078C007002801D1FFE708E040F2A83015
:104A9000C2F200000021417081704160FFE7704761
:104AA00080B586B040F2A830C2F200004078C0075E
:104AB000002801D1FFE76AE040F2A830C2F200000E
:104AC0008078C007002809D0FFE740F2A830C2F282
:104AD000000090ED060A01F06DFF58E040F2A020C2
:104AE000C2F20000006840F2A831C2F200018A68F8
:104AF000C968801A0590059888420BD3FFE740F2F9
:104B0000A830C2F200000021417090ED050A01F0CA
:104B100051FF3CE040F2A830C2F20000C06800281B
:104B200011D0FFE79DED050AB8EE400A40F2A8302B
:104B3000C2F2000090ED031AB8EE411A80EE010AAD
:104B40008DED010A04E0B7EE000A8DED010AFFE7E2
:104B50009DED010A8DED040A9DED040AFEF7DCF9D6
:104B60008DED030A40F2A83EC2F2000E9EED040A4B
:104B70009EED051A31EE401A9DED032A01EE020A60
:104B80008DED020A9DED020A01F014FFFFE706B069
:104B900080BD000080B540F2A830C2F2000000786D
:104BA000C007002803D1FFE7FFF7C6FEFFE7FFF7C6
:104BB00077FF80BD40F2C430C2F200000078C00729
:104BC000002816D1FFE740F2C430C2F200000021F5
:104BD0004170817041608160C822C26042F200422F
:104BE000C4F67402026142618261017701210170A1
:104BF000FFE7704781B040F2C430C2F20000007895
:104C0000C007002804D1FFE701208DF8030009E068
:104C100040F2C430C2F20000007F00F001008DF8C5
:104C20000300FFE79DF8030001B0704740F2C43075
:104C3000C2F2000000214170817041608160017703
:104C400042F20041C4F674018161704780B588B0BA
:104C5000B0EE401A8DED070A40F2C430C2F20000F7
:104C60000078C00700288DED041A03D1FFE7FFF795
:104C7000A1FFFFE740F2C430C2F200004078C00755
:104C8000002801D0FFE75DE040F2C430C2F200002E
:104C9000C821C1609DED070A9FED2B1A9FED2B2ABD
:104CA000F0EE410A8DED031AB0EE421A02908DED3E
:104CB000012AFEF7EBF98DED060A9DED010ADDED07
:104CC000030A9DED011AFEF7E1F98DED050A0020BA
:104CD0000299887048609DED060A81ED040A9DEDF9
:104CE000050A81ED050A0877C86800280AD0FFE7A1
:104CF0009DED060A9DED051AB4EEC10AF1EE10FA1B
:104D00000FDBFFE740F2C430C2F200000021417027
:104D100001210177059981619DED050A01F04AFEA7
:104D200010E040F2C430C2F200000121417040F2B4
:104D3000A021C2F20001096881609DED060A01F020
:104D400039FEFFE708B080BD007C9247002474481C
:104D500080B586B040F2C430C2F200004078C0078F
:104D6000002801D1FFE76CE040F2C430C2F200003D
:104D70008078C007002809D0FFE740F2C430C2F2B3
:104D8000000090ED060A01F015FE5AE040F2A02066
:104D9000C2F20000006840F2C431C2F200018A6829
:104DA000C968801A0590059888420DD3FFE740F244
:104DB000C430C2F20000002141700121017790ED62
:104DC000050A01F0F7FD3CE040F2C430C2F20000F9
:104DD000C068002811D0FFE79DED050AB8EE400A33
:104DE00040F2C430C2F2000090ED031AB8EE411A4E
:104DF00080EE010A8DED010A04E0B7EE000A8DEDA8
:104E0000010AFFE79DED010A8DED040A9DED040AFC
:104E1000FEF782F88DED030A40F2C43EC2F2000EA6
:104E20009EED040A9EED051A31EE401A9DED032A0F
:104E300001EE020A8DED020A9DED020A01F0BAFDB3
:104E4000FFE706B080BD000080B540F2C430C2F27A
:104E500000000078C007002803D1FFE7FFF7AAFE93
:104E6000FFE7FFF775FF80BD80B58EB001468DF876
:104E7000370040F25430C2F2000000789DF837202D
:104E800090420C9101D1FFE75BE19DF8370040F2C1
:104E90005431C2F20001087040F2A022C2F20002B6
:104EA00012684A60014608280B9100F231810B9983
:104EB000DFE811F009003D004E0064008400E000CE
:104EC000B400CA001601FFF775FDFFF7AFFE4FF003
:104ED000000E7046CDF828E0FFF77AFB0A98FFF73E
:104EE00039F940F20830C2F2000090ED0D0A0120BD
:104EF0000990FFF76FFC40F25430C2F20000DDF879
:104F000028E0C0F820E0C0F824E0C0F828E0C0F8AD
:104F10001CE0C0F82CE0C0F830E0C0F834E009999B
:104F200080F83910C0F83CE080F8501009E1012009
:104F30000890FFF70FF90020FFF74AFB40F2083016
:104F4000C2F2000090ED0D0A0898FFF743FCF8E06C
:104F500040F2A020C2F20000006840F25431C2F2D8
:104F60000001086201200790FFF7F4F80798FFF7A7
:104F70002FFB9FED770AFFF765FDE2E00120069029
:104F8000FFF7E8F840F2A020C2F20000006840F20B
:104F9000543EC2F2000ECEF82C000020CEF83000B5
:104FA000FFF7E0FC40F20830C2F2000080ED0E0A8C
:104FB00090ED0E0A0698FFF70DFCC2E00120FFF706
:104FC000C9F840F2A020C2F20000006840F2543E4E
:104FD000C2F2000ECEF8280040F20830C2F2000003
:104FE000D0ED0C0A90ED0D1A90ED0E0ACDF814E0FC
:104FF0000490FEF78BF8049880ED0F0A4FF0000E36
:105000000599C1F844E0C1F848E0D1ED030A90EDFC
:105010000E1A9FED4E0AFEF7BDFE92E040F2A02070
:10502000C2F20000006840F25431C2F2000148624E
:105030000120FFF78FF840F20830C2F2000090ED37
:105040000E0AFFF703FE7CE040F2A020C2F200004F
:10505000006840F25431C2F2000148620120FFF7BB
:1050600079F840F20830C2F2000090ED0E0AFFF726
:10507000EDFD66E001200390FFF76CF840F254303C
:10508000C2F2000040F2000EC4F2302EC0F840E040
:1050900040F2083EC2F2000EDEED0C0A9EED0D1A43
:1050A0009EED0E0A0290FEF731F8029880ED130A89
:1050B0004FF0000E80F839E080F850E00398FFF7D9
:1050C00087FA9FED210A0398FFF784FB40F2A020A6
:1050D000C2F200000068DDF808E0CEF83C0030E0E5
:1050E000FFF768FCFFF7A2FD4FF0000E7046CDF809
:1050F00004E0FFF76DFA0198FFF72CF840F2083052
:10510000C2F2000090ED0D0A0120FFF763FB18E0EA
:10511000FFF750FC4FF0000E7046CDF800E000F0B5
:1051200031FB0098FFF754FA0098FFF713F840F2AC
:105130000830C2F2000090ED0D0A0120FFF74AFB93
:10514000FFE70EB080BD00BF00247448000030426D
:10515000008CB94780B586B000200590049003907C
:10516000029002A801F064FD9DF8140000F0010017
:1051700040F2543EC2F2000E8EF818000498CEF8A9
:10518000140040F20E00C2F2000001889FED100AE8
:10519000DFED100A01900846CDF800E0FCF7FCFFB7
:1051A000009880ED030A01994888FCF7C7FF009832
:1051B00080ED040A00F0BCFA009880ED020AC16894
:1051C00040F2083EC2F2000ECEF8041006B080BDD8
:1051D0000038C74700609F4580B588B00020079021
:1051E000FBF768FB4FF4A06000F064F94FF4613006
:1051F000FDF73EFA01F0CCFC48F2EC40C0F60000AE
:10520000D0F800E04168806806900591CDF810E084
:1052100004A8FFF74BF94FF46020FCF7C1F9FCF745
:10522000CDF9FCF7E1F9FCF70BF9FBF723FE01F0F0
:1052300019FD00F01DFF00F051FF002808D1FFE725
:1052400000F05AFF002803D0FFE700F005FFFFE75A
:1052500000F072FF8DF80F00FCF70CFB8DF80E00CC
:105260009DF80F00C007002806D0FFE79DF80E004C
:10527000C00700280AD1FFE748F2FC40C0F6000052
:10528000FDF7DEF90090FFE700BFFDE700F0DAFA76
:10529000FEF798F84FF47A70FDF7FCFA00F04CFA3C
:1052A000FFE700200290019072B640F2F020C2F2B7
:1052B00000000068002809D0FFE740F2F020C2F2A9
:1052C00000000168029100210160FFE740F2B82070
:1052D000C2F200000068002809D0FFE740F2B820C1
:1052E000C2F200000168019100210160FFE762B68F
:1052F000FFE70198411E0191002819D0FFE7FCF754
:1053000031F9FEF7C5F8FCF76FF9DDF804E0BEF1FE
:10531000150F0CD3FFE7019840F2B421C2F200014F
:105320000A6810441438086014200190FFE7E0E791
:10533000FFE70298411E0291002815D0FFE7FCF715
:10534000F5FEDDF808E0BEF1060F0CD3FFE702988A
:1053500040F25041C2F200010A681044053808606A
:1053600005200290FFE7E4E7FDF75CF8002803D092
:10537000FFE7FDF7DBF9FFE793E7000080B587B0B3
:1053800013468C4686468DF81B008DF81A108DF852
:10539000192000200590049003904EF60C50CEF298
:1053A0000000006800F4E060B0F5E06F0293CDF813
:1053B00004C0CDF800E005D1FFE7002004900420F0
:1053C000039043E04EF60C50CEF20000006800F46B
:1053D000E060B0F5C06F05D1FFE701200490032025
:1053E000039032E04EF60C50CEF20000006800F45C
:1053F000E060B0F5A06F04D1FFE7022004900390B5
:1054000022E04EF60C50CEF20000006800F4E0609E
:10541000B0F5806F05D1FFE70320049001200390D1
:1054200011E04EF60C50CEF20000006800F4E0608F
:10543000B0F5407F05D1FFE70420049000200390E1
:1054400000E0FFE7FFE7FFE7FFE7FFE79DF81A004F
:105450000499C1F10401884005909DF81900039951
:10546000C1F104010F2222FA01F108400599084315
:10547000059005980001059005989DF81B104EF2C7
:105480000042CEF2000288549DF81B0000F01F017C
:10549000012202FA01F14EF20012CEF2000242EABB
:1054A000D0004EF21C12CEF200021040016007B094
:1054B00080BD000082B00146019001980022C0F238
:1054C000FA5210434EF60C52CEF2000210600091D8
:1054D00002B0704780B590B001460F900F98002839
:1054E000059101D1FFE759E040F2036001F09EF918
:1054F00040F60040C4F20100182103224FF0010ED3
:105500007346CDF810E0FDF77BFE40F2017001F02C
:105510008DF901F063FE0A900A980F99B0FBF1F043
:10552000013840F2F831C2F2000108600020ADF805
:105530002C00ADF82E00ADF8300009680D91ADF8E3
:1055400038008DF83A0040F20041C4F200010BAA85
:10555000039008460291114601F01AFF0498069044
:105560000399ADF81E10ADF82210022206AB029886
:10557000114601921A4601F0F3FB6022029801994C
:1055800001F060FD02980199039A01F0ABFD0298C9
:1055900001F0B6FB029801F0B3FEFFE710B080BD4A
:1055A00080B582B0B0EE401A8DED010A9DED010A82
:1055B000DFED120A9FED122A8DED001AB0EE421AAD
:1055C000FCF774FD8DED010A9DED010A40F2F83EF5
:1055D000C2F2000E9EED001AB8EE411A20EE010A4A
:1055E000BDEEC00A10EE10EA40F20040C4F2000026
:1055F0000221724601F076FD02B080BD000000007D
:10560000A4707D3F80B582B000F032F8002809D048
:10561000FFE740F2FC30C2F20000002101628DF889
:10562000071020E040F2FC30C2F20000006A0028BF
:105630000ED1FFE740F2A020C2F20000006840F265
:10564000FC31C2F20001086200208DF807000AE078
:1056500040F2FC30C2F20000006AC821FDF796FC5F
:105660008DF80700FFE79DF8070002B080BD00003D
:1056700082B040F2FC30C2F20000406B01909DED20
:10568000010A00209FED0D1AB4EEC10AF1EE10FAE6
:1056900000900DDBFFE79DED010A9FED091A002048
:1056A000B4EEC10AF1EE10FAD8BF01200090FFE776
:1056B000009800F0010002B0704700BF0000AA424D
:1056C0000080854380B582B0FFF7D2FF002809D162
:1056D000FFE740F2FC30C2F200000021C1618DF80A
:1056E000071020E040F2FC30C2F20000C069002840
:1056F0000ED1FFE740F2A020C2F20000006840F2A5
:10570000FC31C2F20001C86100208DF807000AE0F8
:1057100040F2FC30C2F20000C069C821FDF736FC3F
:105720008DF80700FFE79DF8070002B080BD00007C
:1057300080B500F013F880BD40F2FC30C2F20000EA
:10574000012101720078002807D1FFE740F2FC3008
:10575000C2F200000021C160FFE7704740F2FC3058
:10576000C2F2000090ED0F0A7047000080B582B0D1
:1057700001460190009100F097F8032000F072F9C3
:1057800002B080BD80B582B001468DF8070040F2BE
:10579000B220C2F200000078012222EA00008DF857
:1057A00006009DF80600C0070028009115D0FFE70D
:1057B00040F2046001F03AF841F20000C4F2010046
:1057C000102103224FF48063FDF71AFD40F2B2204E
:1057D000C2F2000001210170FFE79DF80600C0073A
:1057E00000280FD1FFE740F2B320C2F2000000789A
:1057F00000F001009DF8071001F00101884201D17D
:10580000FFE71DE09DF8070000F0010040F2B32122
:10581000C2F200010870002809D0FFE741F2000041
:10582000C4F201004FF48061FDF7DEFC08E041F2B4
:105830000000C4F201004FF48061FDF7C9FCFFE7EE
:1058400002B080BD80B596B005A8442104900391B4
:10585000FAF7D4FC00208DF8140040F2FC31C2F2BB
:10586000000102900846DDF810E001917146039AAC
:10587000FAF7ABFC4FF4FA60FFF72CFEFCF76EFA78
:10588000FBF7F8FA02980199087000F00DF816B0CD
:1058900080BD000040F2FC30C2F200000078023807
:1058A000B0FA80F04009704780B582B09FED0B0AD6
:1058B00000F016F84FF0000E7046CDF804E0FFF748
:1058C00061FF40F2FC30C2F20000DDF804E080F835
:1058D00031E0C0F810E002B080BD00BF0000000061
:1058E00080B582B0B0EE401A8DED010A9DED010A3F
:1058F000B5EEC00AF1EE10FA8DED001A03DCFFE7F9
:1059000000200190FFE79DED010AFFF749FE02B07C
:1059100080BD000040F2FC30C2F200000021C160F6
:10592000416101617047000080B588B00320062105
:105930000291FBF745FB40F2FC31C2F20001A1F8F5
:1059400042000120DDF808E001917146FBF738FBC9
:105950000199A1F84000B1F840009FED3D0AFCF725
:105960003FF89FED3C1A30EE010A8DED070A0198D1
:10597000B0F842009FED380AFCF732F88DED060AC8
:105980009DED070A019880ED0D0A0699C16300217B
:105990008DF81710416B04919DED040AB2EE041AC4
:1059A000B4EEC10AF1EE10FA1ADDFFE79DED040A2C
:1059B0009FED2A1A20EE010A9FED291A20EE010A16
:1059C0008DED030A9DED060A9DED031A0020B4EE4D
:1059D000C10AF1EE10FAA8BF01208DF81700FFE709
:1059E0009DF81700C007002827D0FFE740F2FC30E1
:1059F000C2F20000406A00280BD1FFE740F2A0206D
:105A0000C2F20000006840F2FC31C2F200014862BC
:105A1000FFE740F2FC30C2F20000406A3221FDF79D
:105A2000B5FA002808D0FFE740F2FC30C2F20000CF
:105A3000012180F82810FFE708E040F2FC30C2F2B4
:105A400000000021416280F82810FFE708B080BD07
:105A500071FDB84366664E415C0F2F43F4FDB43FC1
:105A60003333733F80B582B001468DF8070040F2B2
:105A7000FC30C2F2000000789DF8072090420091AF
:105A800001D1FFE752E09DF8070040F2FC31C2F27D
:105A90000001087040F2A022C2F2000212684A60BF
:105AA00000280ED1FFE740F2FC30C2F200000021D6
:105AB000C16041618161016280F83010FFF7F4FE3E
:105AC00034E09DF80700012809D1FFE740F2FC30DF
:105AD000C2F20000002141618161016225E09DF870
