:020000040800F2
:10000000D804002045010008E90700087B07000824
:10001000E707000819070008A90A00080000000007
:10002000000000000000000000000000ED070008D4
:100030007907000800000000EB070008F10700083E
:100040005F0100085F0100085F0100085F01000810
:100050005F0100085F0100085F0100085F01000800
:100060005F0100085F0100085F0100081D0700082C
:100070005F0100085F0100085F0100085F010008E0
:100080005F0100085F0100085F0100085F010008D0
:100090005F0100085F0100085F0100085F010008C0
:1000A0008D0900085F0100085F0100085F0100087A
:1000B000B10900085F0100085F0100085F01000846
:1000C0005F0100085F0100085F0100085F01000890
:1000D0005F0100085F0100085F0100085F01000880
:1000E0005F0100085F0100085F0100085F01000870
:1000F0005F0100085F0100085F0100085F01000860
:100100005F0100085F0100085F0100085F0100084F
:100110005F0100085F010008350A00086D0A000849
:100120005F0100085F0100085F0100085F0100082F
:10013000DFF80CD000F0DEFA004800474D19000847
:10014000D80400200648804706480047FEE7FEE73F
:10015000FEE7FEE7FEE7FEE7FEE7FEE7FEE7FEE777
:1001600089080008310100082DE9F05F05460020EC
:1001700092469B4688460646814640241BE0284618
:1001800041464746224600F006FA53465A46C01AF0
:10019000914110D311461846224600F0EDF92D1A70
:1001A00067EB01084F4622460120002100F0E4F9E8
:1001B00017EB00094E41201EA4F10104DFDC484684
:1001C00031462A464346BDE8F09F2DE9FE4F804662
:1001D00081EA0300C00F0C46009021F0004123F09B
:1001E0000045B8EB0200A94105D2404621469046A1
:1001F0001C460B46024623F00040104347D0270D13
:10020000C7F30A00C3F30A510290401A0190402834
:100210006BDAC3F3130040F4801B0098924620B1C0
:100220000023D2EB030A63EB0B0B01985946C0F194
:100230004002504600F0A0F906460D465046594689
:10024000019A00F0B8F910EB08006141002487EA38
:10025000115284EAE7731A4340D0009A62B3019ABC
:10026000012A4FEA075215DC001B61EB02014FF037
:10027000004202EA0752CDE90042001C41F580111C
:1002800032462B4600F0B8F903B0BDE8F08F404687
:100290002146F9E7001B61EB0201001C41F58013C8
:1002A00000185B412018A2F5001747EB030140EA54
:1002B000D570B6196D4111E06D084FEA360645EA72
:1002C000C0754FEA0752001B61EB0201001C41F5AB
:1002D000801149084FEA30000019514132462B463F
:1002E00003B0BDE8F04F00F078B90098012240005B
:1002F0000023D0EB020263EBE073009821464FEA43
:10030000E074B8EB000061EB0401E9E783F000431F
:100310005BE781F0004158E72DE9FE4F81EA0304D5
:1003200004F0004421F0004100944FF0000B23F052
:10033000004350EA01045ED052EA03045BD0C3F3E9
:100340000A54C1F30A552C44A4F2F3340194A0FBDF
:100350000254C1F3130141F48011C3F3130343F4B6
:10036000801301FB024400FB034E840A970A44EA0F
:10037000815447EA8357A4FB076802958D0A05FB61
:1003800007854FEA932C04FB0C542705029D4FEA86
:10039000065847EA1637B5EB08056EEB070C870ED3
:1003A000920E47EA811742EA8312A7FB0201B6EBDD
:1003B0000B0164EB00042B0D43EA0C335E1844EB95
:1003C0001C50DA465146E7FB0201C5F313044FEA1D
:1003D0000B3343EA14534FEA0432019C43EA060309
:1003E000A4F10C040294009CCDE900B400F004F9DF
:1003F00003B0BDE8F08F00200146F9E72DE9F04D8C
:1004000081EA030404F0004B21F0004514464FF04C
:10041000000A23F0004150EA050220D054EA01020C
:100420001DD0C5F30A570246C5F31303C1F31300E9
:10043000C1F30A5640F4801543F48013A7EB060875
:10044000101BD64608F2FD3873EB050002D308F105
:10045000010801E092185B41B8F1000F03DA0020B7
:100460000146BDE8F08D00204FF480110646844619
:100470000EE0171B73EB050705D3121B63EB050397
:1004800006434CEA010C49084FEA300092185B41E0
:1004900050EA0107EDD152EA030012D082EA0400CB
:1004A00083EA0501084305D0101BAB4106D20122A7
:1004B000002306E000224FF0004302E06FF001024B
:1004C00053101AEB06004CEB085110EB0A0041EBFD
:1004D0000B01BDE8F04D00F080B80EB540F233419D
:1004E00002910021CDE900110A460B4600F084F884
:1004F00003B000BDC1F30A5210B5C1F3130140F2BD
:10050000FF3341F480119A4201DA002010BD40F21D
:1005100033439A42A2F2334203DC524200F03BF8EA
:1005200010BD904010BD00F0004230F000400AD0F5
:10053000C10D01F56071C0F3160042EA0151C20815
:1005400040071143704700200146704730B50B4605
:10055000014600202022012409E021FA02F59D42F3
:1005600005D303FA02F5491B04FA02F52844151EC7
:10057000A2F10102F1DC30BD202A04DB203A00FAAE
:1005800002F1002070479140C2F1200320FA03F3EA
:10059000194390407047202A04DB203A21FA02F0E8
:1005A0000021704721FA02F3D040C2F120029140AD
:1005B000084319467047202A06DBCB17203A41FA38
:1005C00002F043EAE07306E041FA02F3D040C2F1E0
:1005D0002002914008431946704710B5141E73F16C
:1005E000000408DA401C41F1000192185B411A43F3
:1005F00001D120F0010010BD2DE9F04D92469B463F
:1006000011B1B1FA81F202E0B0FA80F220329046E4
:10061000FFF7B2FF04460F4640EA0A0041EA0B0129
:1006200053465A46084313D0114653EA010019D0E5
:10063000C8F140025046FFF7AEFF05460E46504651
:1006400059464246FFF798FF084305D0012004E0D1
:1006500020463946BDE8F08D0020054346EAE076A5
:100660002C4337430A986305E40AA0EB08000022F4
:10067000FD0A44EA47540A3002D500200146E9E762
:10068000010510196941DDE9084500196941BDE816
:10069000F04DA2E7C1F30A52C1F3130140F2FF3358
:1006A00041F480119A4202DA00200146704740F27C
:1006B00033439A42A2F2334202DC5242FFF76BBF4D
:1006C000FFF75ABF30B5041E71F1000404DB4FF090
:1006D0000044404264EB0101141E73F1000405DB89
:1006E0001C464FF00043524263EB0403994208BF9B
:1006F000904230BD064C074D06E0E06840F0010333
:1007000094E8070098471034AC42F6D3FFF714FD85
:10071000182E0008382E0008FEE7000010B5144C13
:1007200000210422204600F056FE48B12046002158
:10073000042200F049FE0F4801880181418841816F
:1007400020460021022200F046FE48B1204600214A
:10075000022200F039FE074881880181C188418169
:10076000204600210122BDE8104000F02DBE00BF50
:1007700000000240400000207047FEE780B501F015
:10078000FDFA102001F028FB102001F031FB0128B8
:1007900018BF80BD022000F075FE002001F074FA41
:1007A000002001F081FA4FF4806001F075FA00201A
:1007B00001F0BEFB002001F0C5FB4FF480304FF488
:1007C000501101F0ABFB182001F006FB192001F0DD
:1007D000F7FA0028FAD0022001F0BEFB01F0C4FBBA
:1007E0000028FBD080BDFEE77047704770470000CF
:1007F000044801680131016003488168013181606A
:10080000704700BFC8000020100000205B491A4A52
:10081000086800F00C0008282AD110B50B681748AA
:1008200013F4803F0AD08B6A154C13F0804F08BF39
:1008300014460A6812F4003F08BF20460A680B6895
:100840001024C2F3834204EAD35309681A4311F017
:10085000804FBDE8104003D10E2A03D8911C05E05B
:1008600042F02002511C3D2988BF3F2101FB00F2CC
:1008700004480260704700BF00127A0000093D0082
:10088000006CDC020000002010B53A484FF4D03272
:100890003A4C3B4B016841F470010160364988587D
:1008A00040F00100885000202060A0628858184065
:1008B00040F2FF7388504FF41F006060885820F4A6
:1008C00080208850885840F480308850885823B160
:1008D00010F40030A3F10103F8D04FF4D03288585F
:1008E00010F4003F00D1FEE7A069264B40F0805095
:1008F000A061086840F440400860206820602068DB
:100900002060206840F480602060206820F440303F
:100910002060206840F440302060206818401A4B66
:100920002060206818432060885840F0807088500C
:10093000885810F0007FFBD0086840F480300860D1
:10094000486810F4803FFBD0086840F4003008602D
:10095000486810F4003FFBD0206820F003002060BE
:10096000206840F002002060206810F0080FFBD0E3
:1009700010BD00BF88ED00E0007000400410024090
:10098000FFFFF6FEFFFFC3B70000340810B5074CA9
:100990008021204601F0B9FC38B101F02FF9204642
:1009A0008021BDE8104001F0ABBC10BD002C01401F
:1009B000B0B54FF08040012101F0A7FC012816D10D
:1009C0004FF08040012101F09BFC1848184A016853
:1009D0000446013144F8281B02C8126842EA014566
:1009E000294600F0B3FB2046294600F0AFFB0F4C30
:1009F0006068E16801F089FC012806D1201D00F043
:100A00002FFB6068E16801F07BFCA06A216B01F0BC
:100A10007CFC012818BFB0BD04F1280000F020FBC9
:100A2000A06A216BBDE8B04001F06ABC70000020F4
:100A30002400004010B50C4C0121204601F065FC5B
:100A4000012803D12046012101F05AFC15484188B4
:100A50000131418089B2142938BF10BD01210170D4
:100A60000021418010BD00BF0010004010B50C4CAB
:100A70000121204601F049FC012803D12046012133
:100A800001F03EFC074881880131818009B2B1F54F
:100A90007A7FB8BF10BD012141700021818010BD57
:100AA0000014004034000020FEE7816841F0080196
:100AB0008160816811F0080FFBD1816841F0040169
:100AC0008160816811F0040FFBD17047B0B5022935
:100AD00007D0012918BFB0BD0A4D4FF470012C2377
:100AE00003E0074D4FF4401138231C5801EB02522C
:100AF000114025401D501D5829431950B0BD00BF5D
:100B0000FFFFCFFFFFFF0FFF8268002942F4006361
:100B100008BF22F4006383607047000080B5144969
:100B2000884210D0C949884217D01249884218BF5C
:100B300080BD40F2093001F0E3F940F20930BDE830
:100B4000804001F0CFB940F20F3001F0D9F940F206
:100B50000F30BDE8804001F0C5B940F20A3001F025
:100B6000CFF940F20A30BDE8804001F0BBB900BFC8
:100B7000003C014000240140816841F480718160A3
:100B80007047816811F0010F02BF816841F00101D7
:100B90008160704701F0010352B11BB1826842F4D9
:100BA0008012826089070FD5816841F400410AE014
:100BB0001BB1826822F480128260890758BF704797
:100BC000816821F40041816070470000022904D04F
:100BD000012918BF7047064900E00449836819409D
:100BE0008160816811438160704700BFFF8FFFFF04
:100BF000FFFFF1FF026822EA01010160704700680F
:100C0000084018BF0120704704490A6822F4702286
:100C10000A600A6810430860704700BF042401405E
:100C200083B08B480189ADF80A1008494089BDF8A6
:100C30000A200A80ADF80800BDF808004880009836
:100C4000019A8A60486003B0704700BFBC00002072
:100C50002DE9F04186B0DFF87C8F044640F2026057
:100C6000C04740F20360C04740F20460C047604E96
:100C7000604D00210322E0233046A84706F580603E
:100C8000002103220223A84706F500600021032269
:100C90003023A8474FF4A060C047574D0021284695
:100CA00000F028FB4FF48070544A00214FF4807309
:100CB00004904FF4005003904FF4806001900420A2
:100CC000029063480090284600F030FB284600213F
:100CD00000F000FB28460021022200F065FB2846B8
:100CE0000021042200F060FB28460021012200F0D0
:100CF0006BFB0B200121002200F09AFE40F20960FC
:100D0000C047022000F090FF06F5E0563046FFF79E
:100D100005FF0020FFF778FF394F30464FF4807110
:100D20000122B847304602210022B8473046002150
:100D3000FFF7EAFE304601210222FFF7C7FE3046E8
:100D400000210522042300F08BF830460121062201
:100D5000012300F085F8304601212246FFF736FFD7
:100D600028483A4C0122215841F4806121503046F4
:100D70000121FFF70FFF3046FFF703FF3046FFF773
:100D800094FE3046FFF7F8FE2846002100F092FA64
:100D900040F20A60C0472046FFF7C0FE0020FFF780
:100DA00033FF20460021FFF7AFFE20464FF480714D
:100DB0000022B847204602210022B84720460121E0
:100DC0000122FFF783FE204601214FF46022FFF746
:100DD000FDFE204601210022FFF7DCFE2046FFF742
:100DE000D0FE204606B0BDE8F041FFF75EBE00BF72
:100DF00000080140A1140008000002404C240140FA
:100E0000FB0E000808FCFFFFB0B5104C00210E22BD
:100E10000523204600F024F820460221FFF7EAFED1
:100E20002046012100F05BF820460221FFF7E7FE93
:100E30000028F9D0204600F04FF805462046022150
:100E4000FFF7D8FE0248C581B0BD00BF00280140B1
:100E5000400000200148012101F003BA002C0140AC
:100E6000B0B5052904D801EB810E00F1340C10E077
:100E70000B2906D801EB810100F1300CA1F11E0E07
:100E800007E0102910D201EB810100F12C0CA1F137
:100E90003C0E1F24DCF8001002FA0EF504FA0EF4E2
:100EA000A1432943CCF80010092A03D802EB4201E0
:100EB000103006E0112A88BFB0BD02EB42010C30B1
:100EC0001E3903FA01F2072303FA01F1036823EA4A
:100ED000010111430160B0BDC06C80B2704711F0D8
:100EE000010F1EBF826842F480028260890742BF00
:100EF000816841F400118160704701F4807382B110
:100F00001BB1426842F4807242604A0542BF4268A7
:100F100042F480624260890715D5816841F0020180
:100F200010E01BB1426822F4807242604A0542BF61
:100F3000426822F480624260890758BF7047816826
:100F400021F00201816070472DE9F8430D46044607
:100F50002846FFF7C2FA9FED3A0B02460B4651ECCA
:100F6000100BFFF74BFA06460F46002D60D02046C7
:100F7000FFF7B3FA32463B4680468946FFF73EFA12
:100F80009FED310B54EC105B2A462346FFF71DF909
:100F9000FFF7B0FA7F284CD93046394632463B46F7
:100FA000FFF713F902460B4640464946FFF726FA7B
:100FB0002A462346FFF709F9FFF79CFA20F03F0184
:100FC000402901D1403034E09FED210B30463946B5
:100FD00053EC102BFFF7A0F902460B46404649465A
:100FE000FFF70CFA2A462346FFF7EFF8FFF782FADD
:100FF00020F01F01202901D1A0301AE09FED160B2F
:101000003046394653EC102BFFF786F902460B4663
:1010100040464946FFF7F2F92A462346FFF7D5F83E
:10102000FFF768FA20F01F01202901D1C03000E04D
:101030000020C0B201B0BDE8F08300BF00BF00BF18
:101040000000000065CDCD41000000000000E03F41
:1010500000000000000020400000000000003040C0
:1010600010B504462068A18800F0C8FF216880B24E
:10107000B1F1804F11BF002132490968090441EAEA
:10108000000C94F8201011B3002184F8201021687E
:10109000E2681AB10B6A23EA02020A6221696269F4
:1010A00052B3ACEB010194ED050A01EE101AB8EE53
:1010B000411AB8EE400A81EE000AB7EE001AB4EE0B
:1010C000C10AF1EE10FAC8BFB0EE410A16E094F87A
:1010D000211019B12169ACEB010161610121C4F852
:1010E00010C084F8211084F820102168E26852B101
:1010F0000B6A1A430A6206E09FED130A012184ED90
:10110000070A84F8221062699100002A0CBF4FF48C
:101110008021920FB1F5803372F1000302D24FF4B7
:1011200080310BE0B1F1FF304FF0000372F10000AD
:1011300038BF0123002B08BF4FF0FF3101EB0C003B
:10114000A06110BD700000200000000090F8212078
:101150006AB18269891A002909DB002180F821100F
:1011600080F820104161C161012180F82210704790
:1011700083B0C0B50DF10C0CACE80E0003A90091D2
:1011800000F06EF8BDE8884003B0704770B5244C9D
:10119000054640F20360A0474FF4C060A04740F20C
:1011A0001270A0472D4C182103224FF4806304F5E0
:1011B0004446304600F074F93046042103224FF4CF
:1011C000006300F06DF9204601F002F9002D204681
:1011D00008BF4FF46135294601F0D4F820460021BC
:1011E00001F07CF92046002101F06AF92046002137
:1011F00001F058F92046002101F04EF92046002167
:1012000001F044F92046042101F054F92046082158
:1012100001F05EF92046BDE8704001F027B900BF3B
:10122000CD1E000810B504460A2C02D10D2000F096
:1012300005F82046BDE81040AFF30080B0B5074D7B
:1012400004462846072101F016F90028F9D028465F
:101250002146BDE8B04001F0B7B800BF00480040EB
:1012600010B5A0B00B4602466846802101F03EF959
:101270000446002C0CDB7F2C21466846A8BF7F214A
:1012800000F00CF8802C03DB0348032100F006F883
:10129000204620B010BD00BF142E0008B0B50C468B
:1012A000054604E015F8010BFFF7BCFF013C002CDC
:1012B000F8D1B0BD434A904202D1052900D3FEE7E0
:1012C00001EB810100EB8100816841F00101816047
:1012D000704700BF3B4A904202D1052900D3FEE788
:1012E00001EB810100EB8100816841F02001816008
:1012F000704700BF334A904202D1052900D3FEE770
:1013000001EB8102890000EB8202936823F0010364
:10131000936000239360D360136153610F2202FA3C
:1013200001F1426811434160704700BF70B5254C20
:10133000A04202D1052900D3FEE7DDE9064E01EB0C
:101340008101DDE90465DDF820C000EB8100A1B278
:1013500002614661C16043EA05015FFA8CF382686D
:1013600041EA0E01012B0CF47F4322F47C5241EA46
:1013700002018160816821F0400208BF41F0400213
:10138000B3F5807F8260816821F0800208BF41F060
:1013900080021CF47F0F8260816841F0100208BF58
:1013A00021F01002826070BD064B984202D10529DF
:1013B00000D3FEE701EB810100EB8100816811435E
:1013C0008160704700040240890002FA01F142681E
:1013D000114341607047022A944607D0042A03D083
:1013E000082A944602D0FEE74FF0040C8B0001EB74
:1013F00081019A40036800EB81001A4018BF012266
:10140000806810EA0C0018BF0120104070470000EF
:101410009FED192A19489FED1A1AB4EEC20AF1EE8F
:1014200010FAC8BFB0EE420A0068B5EEC00AF1EE8D
:1014300010FAA8BFB0EE401AA8B1411CB6EE000ADF
:1014400002EE101AB8EE422A01EE020ABCEEC00A01
:1014500010EE102A91424FF6FF7188BF1046884265
:1014600028BF084606E0B5EEC01A0020F1EE10FADB
:10147000C8BF012080B27047A4707D3F2C2C014072
:101480000000000003490A6822F0070210430860C8
:10149000704700BF00200240416170470161704702
:1014A00001F00F0C11F0100F09D0042A05D1C26B06
:1014B0004CF0030C1A43C26301E04CEA020C2DE924
:1014C000F04100224FF0010E4FF00F08002517E009
:1014D0000EFA05F61E4211D0046808FA02F70CFA5B
:1014E00002F6482924EA070446EA040603D028291C
:1014F00003D1142700E010273B5006600432013569
:10150000082DE5D108224FF0000E01244FF00F08FE
:10151000102A08BFBDE8F08104FA02F61E4211D07D
:10152000456808FA0EF70CFA0EF6482925EA070571
:1015300046EA050603D0282903D1142700E0102726
:101540003B5046600EF1040E0132E1E7806808402E
:1015500018BF01207047022000F084B9B0B500F038
:1015600047FB10B900F038FB48B137480078042831
:1015700000D1B0BD0420BDE8B04000F073B9FFF762
:101580004FFBFFF741FC31489FED310A9FED312AB7
:101590009FED313A9FED314ADA4C018801EE101A85
:1015A000B8EE411A21EE000A80EE020A20EE030A8C
:1015B00080EE040A84ED050AC1880089224800787B
:1015C000032812D2206920B9CD4800680028206184
:1015D000CFD0CB490968081A42F210718842C8D3AB
:1015E0000320BDE8B04000F03DB909D194ED080AF0
:1015F000BCEEC00A10EE100ABDE8B04000F0FEB824
:1016000000F0EAFA0028B4D120690028B1D0BC4922
:101610000968081AB0F57A7F38BFB0BD00F0E8FA63
:1016200008B100F0A3FA207820B90A2000F0EEFA01
:10163000012020700020002500F084FA002000F036
:1016400011F92570B0BD00BFD0000020BC00002003
:101650003333534000F07F4500144D4800401C4692
:101660002DE9F04391B0D0E900128068DFF8EC91E9
:101670005B4FC9E90112C9F80C0040F20260B8479B
:1016800040F20360B847574C574E102103224FF4E5
:1016900080732046B04720464FF48071FFF7FCFE70
:1016A00004F58065102103224FF400532846B0470B
:1016B00028464FF40051FFF7EFFE20461821032281
:1016C0004FF48073B0472846182103224FF400538B
:1016D000B0472846482103224FF480534FF48058E6
:1016E000B04740F20B60B84700F066FC0546D9F8F9
:1016F0000400002704F510540DA90D97ADF83870BB
:10170000ADF840708DF84270B5FBF0F00138C9F8C3
:1017100000000F90204600F0A9FD0420CDF82E70A7
:10172000CDF82A7009AA0021ADF8280001200990FF
:10173000204600F06BFC20460021602200F04EFDA8
:1017400020460021002200F065FD204600210822ED
:1017500000F066FD0AAA07CACDE90570CDE90712B7
:1017600005AA20460221ADF8187000F04FFC204673
:101770000221602200F032FD20460221002200F00A
:1017800049FD20460221082200F04AFD4FF4806006
:10179000294601904FF40060ADF80000D9F8080028
:1017A000ADF80E70FFF7D0FBADF808006946204693
:1017B000ADF81080CDF80A7000F011FC20466021D1
:1017C00000F0ADFD204600F005FC204600F044FD91
:1017D00000F0B6FD002000F009F811B0BDE8F0837C
:1017E000CD1E000800080140A114000801461C4855
:1017F000002918BF012100F09ABD00BFB0B5044612
:1018000054B300F0D9FB014631B3B1FBF4F0134DF2
:10181000134C022898BF0220B0F5803F28BF4FF438
:101820008030421EB1FBF0F02A60E2626860A86876
:10183000FFF78AFB616C21F0FF010843606495EDBE
:10184000030AFFF7E5FD02462046002100F0E2FC16
:10185000BDE8B04000F074BDB0BD00BF5400002032
:10186000002C014010B52549264C03280870244956
:101870000A68226103D8DFE800F00F02021EB048B8
:1018800001220270086808680868002000F05AF910
:101890000020FFF7ABFF0BE0A948012202700868A7
:1018A000086808680020FFF7A1FF002000F04AF94F
:1018B000E069206210BD9FED140A94ED072A94EDB3
:1018C000061A0120B4EEC02AF1EE10FAB4EEC01AE6
:1018D000B8BFB0EE420AF1EE10FAC8BFB0EE410A4E
:1018E00084ED080AFFF782FF206AFEF71CFE02461D
:1018F00006A00B46BDE81040FFF73ABCD000002020
:10190000C80000201000002000E6AA475B4C4C43B2
:101910005D205374617274696E67206F70656E200C
:101920006C6F6F7020636F6E74726F6C2E20496ED7
:10193000697469616C206672657175656E63793A68
:1019400020252E316620487A0A000000FEB5FEF7F9
:1019500015FF4FF4A06000F0B9F84FF46130FFF7C5
:1019600015FC25A04FF46131FFF702FC00F002FBEB
:101970002B48D0E90012806802906846CDE9001239
:10198000FFF76EFE4FF48020FFF762F9FFF762FA6F
:1019900000F0F0F800F020F938B900F029F920B192
:1019A00000F0E4F80A2000F031F96F4C1D481E49A0
:1019B0001E4A0025C4E90550C4E9071200F090F85A
:1019C000FFF7C9FD012000F0BDF872B6A06800283D
:1019D0001ABFA668A560002662B608E0FFF7BEFD44
:1019E000062E04D3E068052638440638E060374602
:1019F0007E1E002FF2D1E8E7446562756720636FB1
:101A00006E736F6C6520696E697469616C697A6563
:101A1000642040256C7520626175640A0000000036
:101A2000002E00080004A64700E8FD4700E6AA478C
:101A300010B52A4C236803F4E063B3F5E06F03D1DB
:101A40004FF0000C042328E0236803F4E063B3F5AF
:101A5000C06F03D14FF0010C03231EE0236803F491
:101A6000E063B3F5A06F03D102234FF0020C14E042
:101A7000236803F4E063B3F5806F03D14FF0030CE8
:101A800001230AE023684FF0040C03F4E063B3F58C
:101A9000407F4FF0040308BF002399400F2323FA2F
:101AA0000CF31A401143084A090140EA020383F883
:101AB00000131C21012301EAD00100F01F0003FAEA
:101AC00000F0885010BD00BF00E100E0024908436B
:101AD00002490860704700BF0000FA050CED00E005
:101AE000B0B540F2046000F0F1F9404C102103223F
:101AF0004FF4806304F580652846FFF7D1FC284643
:101B00004FF48061FFF7C8FC40F2036000F0DEF99B
:101B10002046102103224FF48043FFF7C1FC2046EA
:101B20004FF48041FFF7B8FC0F480021416041703D
:101B30000348012101703B48016801680068B0BD9D
:101B4000D400002008494A78824208BF7047487094
:101B5000264920B108464FF48041FFF79FBC084654
:101B60004FF48041FFF798BC100000202648002168
:101B700001707047B0B5174C40F20460A04740F2C6
:101B80000360A0474FF4C060A047254C802104F5B6
:101B9000E055284600F0B4FB2846802100F0ACFB5D
:101BA000182000210022FFF743FF204610210322C6
:101BB0004FF40063FFF774FC20464FF40061FFF719
:101BC0006BFC00F009F8002814BFBDE8B040B0BDC0
:101BD00000F014B8CD1E000880B504484FF48051C1
:101BE000FFF7B4FCB0FA80F0400980BD000C014062
:101BF00005480078002818BF0120704702480121DD
:101C000001700020FFF7F2BDCC00002080B5044831
:101C10004FF40061FFF742FC0248006880BD00BF3E
:101C200000100140C800002070B5E94E134A0B288F
:101C3000316802EA0102B16A21F000531BD8012485
:101C40008440250709D114F4706F09D00C4B03EAC6
:101C5000803041F0005302430DE042EA80320AE056
:101C60000121814011F0A00F1FBF064901EA803019
:101C7000104340F080523260B36270BDFF3FFFEF0F
:101C800000C0FCFF00C0FEEFD1490A6822F0F0025C
:101C900010430860704700BFCD490A6822F4E06233
:101CA00010430860704700BFC9490A6822F46052B7
:101CB00010430860704700BFB0B5274A1168C1F3F0
:101CC00081032649022B27D11368254C13F4803F4A
:101CD0000AD0936A234D13F0804F08BF0D46116858
:101CE00011F4003F08BF2C4611681368102505EA5F
:101CF000D353C1F383411943136813F0804F03D1C9
:101D00000E2903D88B1C05E041F020013F233F2919
:101D100038BF4B1C03FB04F1136815680328C5F397
:101D2000022CC3F3031312680AD810A50E4CEB5C07
:101D300021FA03F3DFE800F00E020609194609E074
:101D4000002107E014F80C0002E0C2F3C220205C7E
:101D500023FA00F10846B0BD0410024000127A00D8
:101D600000093D00006CDC020C2E000800000000A1
:101D700000000000010203040607080910B5664CC4
:101D8000206840F001002060002000F031F8606819
:101D900009490840094960602068084020602068BF
:101DA00020F4802020604FF41F00A060E06A20F043
:101DB000C040E06210BD00BF0C000020FFFFF6FE37
:101DC000554A810900F01F008958012202FA00F0EB
:101DD000084018BF0120704710B54F4C810900F032
:101DE0001F00012202FA00F00B591843085110BDE0
:101DF000F0B110282BD043F21001884236D0B0F554
:101E0000006F42D0B0F5106F4DD018281CBF0020D5
:101E100070472C49404B002218680029C0F34060ED
:101E200008BF70471206A1F101010246F4D047E055
:101E3000394B00224FF4A06118680029C0F340001C
:101E40003ED01206A1F101010246F5D038E0324B36
:101E500000224FF4006118680029C0F340402FD0E1
:101E60001206A1F101010246F5D029E015492A4BDD
:101E70000022D3F8C0000029C0F3404020D0120651
:101E8000A1F101010246F4D01AE00F49224B0022D1
:101E9000186A0029C0F3400012D01206A1F1010116
:101EA0000246F5D00CE007491B4B0022586A002976
:101EB000C0F3400004D01206A1F101010246F5D0A2
:101EC000704700BFFFFF0F00FFFFFF0310B5124C6C
:101ED000810900F01F00012202FA00F00B5918439B
:101EE000085110BD10B50C4C810900F01F000122F3
:101EF00002FA00F00B5923EA0000085110BD00BFA0
:101F000010B5054C810900F01F00012202FA00F013
:101F10000B591843085110BD0010024008432C49CA
:101F2000024B0A681A40104308607047FFFFC2B7AF
:101F300003490A6822F0804210430860704700BFDE
:101F40002C100240224901280A6822F4003308BFFD
:101F500042F400330B6070471D490A6822F0030207
:101F600010430860704700BF1948006800F00C007B
:101F7000704700BF80B5FEF749FC0B484FF47A73F9
:101F80000A49002200680A60B0FBF3F0084B0138F0
:101F9000984238BF034607484B608A60802202702F
:101FA0000720086080BD00BF0000002010E000E0B6
:101FB000FFFFFF0023ED00E080B50320FFF77CFE6C
:101FC0000349096811F4605118BF0121884080BDA0
:101FD00004100240016841F08001016070470A88E6
:101FE0004B681A430B891A434B891A438B891A434E
:101FF000CB89098A1A4311434164704703298EBF74
:10200000002000EB8100406B70470000032988BF6F
:102010007047DFE801F0023C7ABA016A21F0010161
:1020200001621168036A19430162016A21F0020129
:102030000162D188036A19430162AD49884202D026
:10204000CF4988421FD1016A21F0040101629188C1
:10205000036A19430162016A21F0080101621189D2
:10206000036A19430162416821F48071416051891A
:10207000436819434160416821F4007141609189CE
:102080004268114341606FF003021821A0E0016A29
:1020900021F0100101621168036A43EA0111016233
:1020A000016A21F020010162D188036A43EA01112B
:1020B00001628F49884202D0B149884223D1016A26
:1020C00021F0400101629188036A43EA0111016233
:1020D000016A21F0800101621189036A43EA01115A
:1020E0000162416821F4806141605189436843EA9B
:1020F00081014160416821F4006141609189426839
:1021000042EA81014160182161E0016A21F4807195
:1021100001621168036A43EA01210162016A21F444
:1021200000710162D188036A43EA012101627049AA
:10213000884202D09249884223D1016A21F4806109
:1021400001629188036A43EA01210162016A21F474
:10215000006101621189036A43EA01210162416859
:1021600021F4805141605189436843EA0111416083
:10217000416821F4005141609189426842EA0111AD
:1021800041606FF003021C2122E0016A21F48051BA
:1021900001621168036A43EA01310162016A21F4B4
:1021A00000510162D188036A43EA0131016250495A
:1021B000884202D07249884208D1416821F48041A6
:1021C00041605189426842EA811141601C21024A02
:1021D0000B581A400A507047FFFCFFFF032988BFC5
:1021E0007047DFE801F0020D050A50F8181F01E002
:1021F00050F81C1F21F0700107E050F81C1F01E08F
:1022000050F8181F21F4E0411202016001681143E7
:102210000160704703299CBF00EB81004263704757
:10222000032988BF7047DFE801F0020D050A50F866
:10223000181F01E050F81C1F21F0080107E050F8BA
:102240001C1F01E050F8181F21F400611202016008
:102250000168114301607047016841F001010160AC
:102260007047426911434161704700000A88B0F12C
:10227000804F82620ED01B4A90420BD01A4A904285
:1022800008D01A4A904205D0194A904202D03C4ADE
:1022900090420BD1026822F0700202604A88036803
:1022A0001A4302608A8803681A4302608A68114BE5
:1022B000C26240F480629A4207D0026822F44072FF
:1022C00002608A8903681A430260094A904202D078
:1022D0002B4A904201D1897B0163416941F00101A0
:1022E000416170470004004000080040000C0040BD
:1022F0000034014000140040C2681143C1607047BF
:10230000026922EA010101617047C2680A4018BFF0
:1023100001220069084018BF012010407047426840
:1023200022F0700242604268114341607047426C83
:10233000012922F4004308BF42F40043436470477C
:102340000F48C16AC1B14A1CB6EE000A01EE102A5C
:102350004FF6FF72B8EE411A01EE000ABCEEC00A59
:1023600010EE103A002B08BF01238B4228BF8B18B8
:1023700002219AB2FFF74EBF02210022FFF74ABFA7
:10238000002C0140B0B50D463349044602208C4272
:102390000CD032498C4209D031498C4206D03149A7
:1023A0008C4203D0304884420CD10320C0B2FFF7E6
:1023B00083FC00EB5500A168B0FBF5F080B2084348
:1023C000A060B0BD0020F4E76FF35F21416070476B
:1023D00080B52149884216D0204988421DD0204925
:1023E000884224D01F4988422BD01F49884218BFF9
:1023F00080BD40F20E30FFF783FD40F20E30BDE8A5
:102400008040FFF76FBD40F21140FFF779FD40F2C9
:102410001140BDE88040FFF765BD40F21240FFF774
:102420006FFD40F21240BDE88040FFF75BBD40F217
:102430001340FFF765FD40F21340BDE88040FFF711
:1024400051BD40F21440FFF75BFD40F21440BDE87F
:102450008040FFF747BD00BF0044004000480040F7
:10246000004C00400050004000380140C16841F479
:102470000051C16070478A0901F01F011058012204
:1024800002FA01F1084018BF01207047426922F4A6
:102490000072114341617047426922F48072114316
:1024A00041617047C26822F4C062C260C2681143D1
:1024B000C1607047C26822F004021143C1607047D6
:1024C000026922F4405202610269114301617047BE
:1024D000C26822F008021143C1607047C26822F44A
:1024E0008052C260C2681143C16070477CB5044627
:1024F00000201D46164600290BD0491ECDE900419B
:10250000044B6A462946304600F0D8F8009A00216C
:1025100011707CBDEB2D000802E008C8121F08C135
:10252000002AFAD170477047002001E001C1121F54
:10253000002AFBD1704700002DE9FF5F82B0002127
:10254000DDE90430020DDDF840B0034318D044F655
:102550001050A2F2FF3242431514119801281FD0E7
:10256000A5EB0B00401C5FEA000A4FF000064E4F3F
:10257000DFF83891B046504615D5CAF1000413E093
:10258000119801244AA3012801D16FEA0B01029896
:10259000119AC0E90031C0E9024206B0BDE8F09FDF
:1025A000CBF10000DFE704460021404A491842EB26
:1025B0000450CDE9001012E0E00707D032463B4658
:1025C00040464946FDF7A8FE8046894632463B46CE
:1025D00010461946FDF7A0FE06460F466410002C73
:1025E000EAD1DDE90401DDE90023BAF1000F06DAE2
:1025F000FDF792FE42464B46FDF78EFE05E0FDF7E5
:10260000FDFE42464B46FDF7F9FE04460E4600220B
:10261000284BFEF757F803D84FF0FF30014607E08C
:102620000022254B20463146FDF7CFFDFEF732F85C
:10263000102409E0002C0ADB0A220023FDF794FD98
:10264000039B30321A55641E50EA0102F2D1641C19
:10265000039AC4F111031444119A012A03D00122F0
:1026600008430DD10AE0084304D000204FF0110BBD
:10267000119072E7A3EB0B056D1E0DE05B4504DDC9
:102680004FF0000205F1010504E003DA4FF000020B
:10269000A5F10105002AECD002981199C0E9023198
:1026A000C0E9004579E70000000014400000F03F59
:1026B000300000000000F0430000E03F2DE9FF4F34
:1026C00095B09B468946064600250FE2252877D11E
:1026D00000242746F84A0121059400E0044316F837
:1026E000013F203B01FA03F01042F7D130782A284D
:1026F00011D06FF02F033078A0F13002092A16D8DC
:10270000059A44F0020402EB820203EB42021044F9
:10271000761C0590EFE759F8042B0592002A03DA9E
:10272000504244F40054059044F00204761C307882
:102730002E2816D116F8010F44F004042A280DD0D3
:102740006FF02F023078A0F13003092B09D807EB86
:10275000870302EB4303C718761CF3E759F8047BA1
:10276000761C30786C280FD006DC4C2817D06828EF
:102770000DD06A2814D104E0742810D07A280FD123
:102780000DE044F400140AE044F4801401E044F441
:1027900040147278824202D104F58014761C761CB3
:1027A000307866280BD013DC582877D009DC002855
:1027B00075D04528F6D04628F4D047281AD19DE197
:1027C00018E0632835D0642879D0652812D195E1C6
:1027D000702873D008DC6728F1D069286FD06E2884
:1027E0000DD06F2806D1B5E073282CD0752875D090
:1027F000782874D05A46179990476D1C75E1C4F338
:102800000250022809D003280DD0D9F8001004285E
:102810000DD00D6009F1040967E1D9F80010EA173D
:10282000C1E90052F6E7D9F800100D80F2E70D700B
:10283000F0E719F8041B8DF8001000208DF8010056
:10284000EA46012003E059F804AB4FF0FF3061077E
:102850004FF0000102D40DE008F101018846B942B1
:102860000FDA8045F8DB1AF808100029F4D108E0E7
:1028700008F1010188468142FADB1AF808100029A4
:10288000F6D105985B46A0EB080721463846179A13
:1028900000F094FA284400EB080507E04DE029E138
:1028A0000DE01AF8010B5A4617999047B8F1010844
:1028B000F7D25B4621463846179A13E142E00A22D6
:1028C0000092C4F302524FF0000A022A08D059F8CD
:1028D00004CB032A4FEAEC710AD00DE029E02AE08C
:1028E00009F1070121F00702F2E802C1914609E06F
:1028F0000FFA8CFC4FEAEC71042A03D14FFA8CFCDE
:102900004FEAEC71002907DA0A460021DCF1000CDD
:1029100061EB02012D2202E0220504D52B228DF865
:102920000420012203E0E20701D02022F7E79046CD
:1029300059E00A2102E010220DE010214FF0000AB8
:1029400000910BE010224FF0000A44F00404082725
:10295000009203E008224FF0000A0092C4F30252F2
:10296000022A05D059F804CB0021032A08D009E037
:1029700009F1070121F00702F2E802C1914605E0E2
:102980001FFA8CFC042A01D10CF0FF0C4FF0000858
:10299000220728D5702806D0009B83F0100353EA45
:1029A0000A0305D00EE040228DF80420012208E041
:1029B0005CEA010206D030228DF804208DF8050073
:1029C00002229046009B83F0080353EA0A030AD1CF
:1029D0005CEA010201D1620705D530228DF804209E
:1029E0004FF001087F1E582804D034A003900EA891
:1029F00002900DE036A0F9E753466046009AFDF7D5
:102A0000B3FB84460398825C0298401E02900270D9
:102A10005CEA0100F0D1029806A9081A00F1200A28
:102A2000600702D524F4803400E00127574502DD19
:102A3000A7EB0A0000E0002000EB0A0100900598D7
:102A40004144401A0590E00306D45B462146179A9C
:102A5000059800F0B3F90544002706E001A85A469E
:102A6000C05D179990476D1C7F1C4745F6DBE0035E
:102A70000CD55B462146179A059800F09FF905444E
:102A800004E030205A46179990476D1C0099481E63
:102A900000900029F5DC08E0029802995A46007877
:102AA000491C0291179990476D1CBAF10001AAF1D7
:102AB000010AF1DC65E10000092801003031323300
:102AC000343536373839616263646566000000006A
:102AD0003031323334353637383941424344454654
:102AE0000000000000F058F90544761C30780028FA
:102AF0007FF4ECAD19B02846BDE8F08F620700D432
:102B0000062709F1070222F0070CFCE80223E14640
:102B100003F000485FEA080C02D00FF2702C0DE0C1
:102B20005FEA045C02D50FF2682C07E05FEAC47C20
:102B300002D00FF2602C01E0AFF2700C4FF0FF38C2
:102B400023F00043CDF850C065280CD006DC4528A2
:102B500009D046281DD047283DD13DE0662818D031
:102B600067287ED138E00021112F01DB112000E021
:102B7000781CCDE9000106A90EA8FFF7DDFCDDE910
:102B80000F010E9A03910021009207F1010A0491AE
:102B90004DE04FF000400097CDE9011006A90EA8C6
:102BA000FFF7CAFCDDE90F0203920E9B1199002288
:102BB000DDF80CA00093049211B9791C00EB010A16
:102BC000B7EB0A0004D4C0F1FF3007F1010A04900A
:102BD000AAEB0700019044E0012F00DA0127002151
:102BE000112F01DD112000E03846CDE9000106A9D2
:102BF0000EA8FFF7A1FCDDE90F010E9A0391002159
:102C000004910092BA4621070CD40399514500DA89
:102C10008A46BAF1010F05DD009AAAF10101515C63
:102C2000302908D0B84202DA10F1040F06DA012187
:102C3000CDE9011015E0AAF10101E9E7002805DC62
:102C4000049901440491AAEB000102E0411C5145A2
:102C500000DD8A460499401A401C01904FF0004064
:102C60000290200704D40198504501DBCDF8048080
:102C700000208DF84F0002980DF14F07B0F1004F82
:102C800025D02B200E9002984FF0020800280CDA75
:102C9000404202902D200E9007E00A210298FDF795
:102CA00055FC3031029007F8011DB8F10001A8F180
:102CB0000108F2DC02980028EFD1791E0E98087006
:102CC000307800F0200040F0450007F8020D12A80F
:102CD000C01B00F107081498007800B1012000EB38
:102CE0000A01019801EBE07105984144401A401E29
:102CF0000590E00306D45B462146179A059800F03C
:102D00005DF805441498007818B15A461799904711
:102D10006D1CE00324D55B462146179A059800F008
:102D20004DF805441CE00498002807DBDDE90301A9
:102D3000884203DD0098405C179901E01799302024
:102D40005A469047049805F10105401C04900198EB
:102D5000401E019004D12E205A46179990476D1CB1
:102D6000BAF10001AAF1010ADDDC05E017F8010B58
:102D70005A46179990476D1CB8F10001A8F1010857
:102D8000F4DC5B462146179A0598ABE62D0000005F
:102D90002B000000200000002DE9F0410446002532
:102DA0001E461746880404D405E039462020B04763
:102DB0006D1C641EF9D52846BDE8F0812DE9F0416F
:102DC000044600251E469046C80301D5302700E082
:102DD0002027880404D505E041463846B0476D1CDD
:102DE000641EF9D52846BDE8F0814A68002A06D05D
:102DF0000A68531C0B6010704868401E486070479A
:102E000030560100F40100000000003F0000000007
:102E1000010203042E2E2E00402E00080000002088
:102E20001000000018250008502E00081000002097
:102E3000C804000028250008000000000000000071
:102E4000000E270700000000000000000000000046
:0400000508000131BD
:00000001FF
