:020000040800F2
:100000000805002045010008F306000885060008E1
:10001000F1060008050600086D0900080000000050
:10002000000000000000000000000000F7060008CB
:100030006506000800000000F5060008F906000843
:100040005F0100085F0100085F0100085F01000810
:100050005F0100085F0100085F0100085F01000800
:100060005F0100085F0100085F0100080906000841
:100070005F0100085F0100085F0100085F010008E0
:100080005F0100085F0100085F0100085F010008D0
:100090005F0100085F0100085F0100085F010008C0
:1000A000950800085F0100085F0100085F01000873
:1000B000B50800085F0100085F0100085F01000843
:1000C0005F0100085F0100085F0100085F01000890
:1000D0005F0100085F0100085F0100085F01000880
:1000E000670600085F0100085F0100085F01000863
:1000F0005F0100085F0100085F0100085F01000860
:100100005F0100085F0100085F0100085F0100084F
:100110005F0100085F010008F908000831090008C4
:100120005F0100085F0100085F0100085F0100082F
:10013000DFF80CD000F054FA0048004749180008D6
:10014000080500200648804706480047FEE7FEE70E
:10015000FEE7FEE7FEE7FEE7FEE7FEE7FEE7FEE777
:1001600091070008310100082DE9FE4F804681EA21
:100170000300C00F0C46009021F0004123F0004521
:10018000B8EB0200A94105D24046214690461C46E4
:100190000B46024623F00040104347D0270DC7F31B
:1001A0000A00C3F30A510290401A019040286BDA0A
:1001B000C3F3130040F4801B0098924620B1002343
:1001C000D2EB030A63EB0B0B01985946C0F14002D6
:1001D000504600F077F906460D4650465946019ABA
:1001E00000F08FF910EB08006141002487EA1152FA
:1001F00084EAE7731A4340D0009A62B3019A012A55
:100200004FEA075215DC001B61EB02014FF0004280
:1002100002EA0752CDE90042001C41F58011324646
:100220002B4600F08FF903B0BDE8F08F4046214621
:10023000F9E7001B61EB0201001C41F58013001877
:100240005B412018A2F5001747EB030140EAD57087
:10025000B6196D4111E06D084FEA360645EAC075E2
:100260004FEA0752001B61EB0201001C41F58011AF
:1002700049084FEA30000019514132462B4603B07D
:10028000BDE8F04F00F04FB9009801224000002374
:10029000D0EB020263EBE073009821464FEAE07472
:1002A000B8EB000061EB0401E9E783F000435BE792
:1002B00081F0004158E72DE9FE4F81EA030404F084
:1002C000004421F0004100944FF0000B23F0004364
:1002D00050EA01045ED052EA03045BD0C3F30A542F
:1002E000C1F30A552C44A4F2F3340194A0FB025448
:1002F000C1F3130141F48011C3F3130343F48013DA
:1003000001FB024400FB034E840A970A44EA81542D
:1003100047EA8357A4FB076802958D0A05FB07850A
:100320004FEA932C04FB0C542705029D4FEA065814
:1003300047EA1637B5EB08056EEB070C870E920EF1
:1003400047EA811742EA8312A7FB0201B6EB0B01D1
:1003500064EB00042B0D43EA0C335E1844EB1C5095
:10036000DA465146E7FB0201C5F313044FEA0B33AB
:1003700043EA14534FEA0432019C43EA0603A4F112
:100380000C040294009CCDE900B400F0DBF803B04B
:10039000BDE8F08F00200146F9E72DE9F04D81EA34
:1003A000030404F0004B21F0004514464FF0000A0E
:1003B00023F0004150EA050220D054EA01021DD08A
:1003C000C5F30A570246C5F31303C1F31300C1F383
:1003D0000A5640F4801543F48013A7EB0608101B5F
:1003E000D64608F2FD3873EB050002D308F1010888
:1003F00001E092185B41B8F1000F03DA00200146DA
:10040000BDE8F08D00204FF48011064684460EE0D2
:10041000171B73EB050705D3121B63EB050306439C
:100420004CEA010C49084FEA300092185B4150EA4F
:100430000107EDD152EA030012D082EA040083EAF8
:100440000501084305D0101BAB4106D20122002351
:1004500006E000224FF0004302E06FF0010253106B
:100460001AEB06004CEB085110EB0A0041EB0B01B4
:10047000BDE8F04D00F057B80EB540F2334102919F
:100480000021CDE900110A460B4600F05BF803B0ED
:1004900000BDC1F30A5210B5C1F3130140F2FF339E
:1004A00041F480119A4201DA002010BD40F233433A
:1004B0009A42A2F2334203DC524200F012F810BD1D
:1004C000904010BD202A04DB203A00FA02F10020FF
:1004D00070479140C2F1200320FA03F31943904082
:1004E0007047202A04DB203A21FA02F000217047ED
:1004F00021FA02F3D040C2F120029140084319468C
:100500007047202A06DBCB17203A41FA02F043EA73
:10051000E07306E041FA02F3D040C2F120029140BC
:1005200008431946704710B5141E73F1000408DA29
:10053000401C41F1000192185B411A4301D120F0A7
:10054000010010BD2DE9F04D92469B4611B1B1FA64
:1005500081F202E0B0FA80F220329046FFF7B2FF5B
:1005600004460F4640EA0A0041EA0B0153465A4648
:10057000084313D0114653EA010019D0C8F14002D4
:100580005046FFF7AEFF05460E46504659464246D6
:10059000FFF798FF084305D0012004E020463946C4
:1005A000BDE8F08D0020054346EAE0762C43374352
:1005B0000A986305E40AA0EB08000022FD0A44EA59
:1005C00047540A3002D500200146E9E70105101919
:1005D0006941DDE9084500196941BDE8F04DA2E730
:1005E000064C074D06E0E06840F0010394E8070080
:1005F00098471034AC42F6D3FFF79EFDB0270008B1
:10060000D0270008FEE7000010B5144C002104229A
:10061000204600F0FEFC48B120460021042200F0F4
:10062000F1FC0F4801880181418841812046002169
:10063000022200F0EEFC48B120460021022200F028
:10064000E1FC074881880181C18841812046002161
:100650000122BDE8104000F0D5BC00BF0000024000
:1006600020000020704780B54FF4006000F050FD7E
:1006700038B101F015FC4FF40060BDE8804000F097
:1006800041BD80BDFEE780B501F0BCFC102001F04B
:10069000E7FC102001F0F0FC012818BF80BD02200B
:1006A00000F044FD002001F033FC002001F040FC8C
:1006B0004FF4806001F034FC002001F07DFD00204B
:1006C00001F084FD4FF480304FF4501101F06AFDC9
:1006D000182001F0C5FC192001F0B6FC0028FAD062
:1006E000022001F07DFD01F083FD0028FBD080BDDC
:1006F000FEE77047704770470448016801310160A8
:100700000348816801318160704700BF000000200C
:10071000500000205B491A4A086800F00C000828C5
:100720002AD110B50B68174813F4803F0AD08B6AA2
:10073000154C13F0804F08BF14460A6812F4003FAE
:1007400008BF20460A680B681024C2F3834204EAFB
:10075000D35309681A4311F0804FBDE8104003D10C
:100760000E2A03D8911C05E042F02002511C3D29BD
:1007700088BF3F2101FB00F204480260704700BFC0
:1007800000127A0000093D00006CDC020800002025
:1007900010B53A484FF4D0323A4C3B4B016841F423
:1007A000700101603649885840F0010088500020EF
:1007B0002060A0628858184040F2FF7388504FF4C0
:1007C0001F006060885820F480208850885840F4CA
:1007D00080308850885823B110F40030A3F1010311
:1007E000F8D04FF4D032885810F4003F00D1FEE723
:1007F000A069264B40F08050A061086840F440405A
:1008000008602068206020682060206840F48060D4
:100810002060206820F440302060206840F44030A0
:100820002060206818401A4B206020681843206020
:10083000885840F080708850885810F0007FFBD0B6
:10084000086840F480300860486810F4803FFBD0AE
:10085000086840F400300860486810F4003FFBD09E
:10086000206820F003002060206840F00200206033
:10087000206810F0080FFBD010BD00BF88ED00E02D
:100880000070004004100240FFFFF6FEFFFFC3B7F8
:100890000000340810B5F04C8021204601F02BFFF9
:1008A00038B101F0FDFA20468021BDE8104001F08A
:1008B0001DBF10BD10B50F4C2068A16801F01BFFD3
:1008C000012806D1204600F02DFA2068A16801F029
:1008D0000DFF206AA16A01F00EFF012818BF10BDAC
:1008E00004F1200000F01EFA206AA16ABDE8104061
:1008F00001F0FCBEAC00002010B50C4C01212046DC
:1009000001F0F9FE012803D12046012101F0EEFE9D
:10091000154841880131418089B2142938BF10BD82
:10092000012101700021418010BD00BF0010004076
:1009300010B50C4C0121204601F0DDFE012803D149
:100940002046012101F0D2FE0748818801318180D3
:1009500009B2B1F57A7FB8BF10BD01214170002105
:10096000818010BD0014004010000020FEE7816867
:1009700041F008018160816811F0080FFBD18168A6
:1009800041F004018160816811F0040FFBD17047D0
:10099000B0B5022907D0012918BFB0BD0A4D4FF4E8
:1009A00070012C2303E0074D4FF4401138231C58ED
:1009B00001EB0252114025401D501D58294319508A
:1009C000B0BD00BFFFFFCFFFFFFF0FFF8268002910
:1009D00042F4006308BF22F40063836070470000A4
:1009E00080B51449884210D01349884217D0134962
:1009F000884218BF80BD40F2093001F0C5FB40F2CB
:100A00000930BDE8804001F0B1BB40F20F3001F089
:100A1000BBFB40F20F30BDE8804001F0A7BB40F2C5
:100A20000A3001F0B1FB40F20A30BDE8804001F02D
:100A30009DBB00BF003C0140002801400024014054
:100A4000816841F4807181607047816811F0010F05
:100A500002BF816841F001018160704701F001032C
:100A600052B11BB1826842F48012826089070FD5AF
:100A7000816841F400410AE01BB1826822F48012CF
:100A80008260890758BF7047816821F40041816006
:100A900070470000022904D0012918BF7047064999
:100AA00000E00449836819408160816811438160D6
:100AB000704700BFFF8FFFFFFFFFF1FF04490A6887
:100AC00022F470220A600A6810430860704700BF71
:100AD0000424014083B05C480189ADF80A1008493C
:100AE0004089BDF80A200A80ADF80800BDF808006A
:100AF00048800098019A8A60486003B0704700BF40
:100B0000A0000020F0B585B04D4F044640F20260D1
:100B1000B84740F20360B84740F20460B847E54E7A
:100B2000484D00210322E0233046A84706F58060A7
:100B3000002103220223A84706F5006000210322BA
:100B40003023A8474FF4A060B84706F57845002148
:100B5000284600F0EDF94FF480703C4A00214FF434
:100B6000807304904FF4005003904FF48060019024
:100B70000420029034480090284600F0F5F92846F9
:100B8000002100F0C5F928460021022200F02AFACF
:100B900028460021042200F025FA284600210122DF
:100BA00000F030FA0B200121002200F053FF40F248
:100BB0000960B847022001F07BF906F5E05630469F
:100BC000FFF70EFF0020FFF779FF30464FF48071EA
:100BD000012200F07FF830460221002200F07AF86E
:100BE00030460021FFF7F2FE304601210622FFF7D2
:100BF000CFFE304600210522052300F02FF83046B5
:100C000001210622052300F029F830460121224661
:100C1000FFF740FF304601210122FFF71FFF30465A
:100C2000FFF713FF3046FFF7A2FE3046FFF708FF3D
:100C30002846002105B0BDE8F04000F059B900BFDA
:100C40005521000891110008200000204C2401408B
:100C50000148022101F065BC002C0140B0B5052916
:100C600004D801EB810E00F1340C10E00B2906D8FA
:100C700001EB810100F1300CA1F11E0E07E01029FB
:100C800010D201EB810100F12C0CA1F13C0E1F24CC
:100C9000DCF8001002FA0EF504FA0EF4A143294321
:100CA000CCF80010092A03D802EB4201103006E00C
:100CB000112A88BFB0BD02EB42010C301E3903FA85
:100CC00001F2072303FA01F1036823EA010111434A
:100CD0000160B0BD01F4807382B11BB1426842F47F
:100CE000807242604A0542BF426842F480624260BC
:100CF000890715D5816841F0020110E01BB14268F7
:100D000022F4807242604A0542BF426822F4806247
:100D10004260890758BF7047816821F002018160F5
:100D20007047000010B504462068A18801F0AAFAB7
:100D3000217F11B30022D4F810C022772268E36823
:100D400013B1116A99431162616939B3A0EB0C00C8
:100D500094ED050A80B201EE100AB8EE411AB8EE21
:100D6000400A81EE000AB7EE001AB4EEC10AF1EEB5
:100D700010FAC8BFB0EE410A12E0617F19B12169D3
:100D8000411A89B261612061012060772077206873
:100D9000E16811B1026A1143016210BD9FED030ABF
:100DA000012084ED060AA07710BD00BF00000000FE
:100DB0004FF0804303290360818082604FF000037D
:100DC0004FF000029EBF09B205A353F82130C36063
:100DD000026142618261027742778277704700BF89
:100DE00002000000200000000002000000200000BF
:100DF000B0B586B040F2026001F0ACF92D4C042190
:100E000003220823204600F0C3F9204604210322D0
:100E1000022300F0BDF94FF4E06001F09BF902AC51
:100E2000204601F083FC00254FF6FF702146ADF807
:100E30000C50029504904FF08040ADF814508DF89E
:100E4000165001F073FB4FF480306C460321CDE95E
:100E500000054FF08040224601F0B0FB4FF080408B
:100E60000121224601F0AAFB4FF08040552101F0FC
:100E70003DFC1C200221002200F0ECFD4FF08040E0
:100E8000102101F02FFC4FF08040042101F02AFCDA
:100E90004FF0804001F040FB144C0321102220460B
:100EA000FFF786FF04F1200001210422FFF780FFF5
:100EB00006B0B0BD000801400C4A01460020937FF7
:100EC000002B08BF70479077906908600120704739
:100ED000064A0146002092F83E30002B08BF7047BA
:100EE00082F83E00906B086001207047AC00002043
:100EF000434A904202D1052900D3FEE701EB81016C
:100F000000EB8100816841F001018160704700BF02
:100F10003B4A904202D1052900D3FEE701EB810153
:100F200000EB8100816841F020018160704700BFC3
:100F3000334A904202D1052900D3FEE701EB81023A
:100F4000890000EB8202936823F001039360002381
:100F50009360D360136153610F2202FA01F142687A
:100F600011434160704700BF70B5254CA04202D1CB
:100F7000052900D3FEE7DDE9064E01EB8101DDE93D
:100F80000465DDF820C000EB8100A1B2026146617A
:100F9000C16043EA05015FFA8CF3826841EA0E0101
:100FA000012B0CF47F4322F47C5241EA0201816060
:100FB000816821F0400208BF41F04002B3F5807F14
:100FC0008260816821F0800208BF41F080021CF439
:100FD0007F0F8260816841F0100208BF21F010028B
:100FE000826070BD064B984202D1052900D3FEE70E
:100FF00001EB810100EB8100816811438160704742
:1010000000040240890002FA01F142681143416084
:101010007047022A944607D0042A03D0082A94462F
:1010200002D0FEE74FF0040C8B0001EB81019A40E7
:10103000036800EB81001A4018BF0122806810EAA3
:101040000C0018BF01201040704700009FED0F1AE0
:101050000D489FED0F2AB4EEC10A90ED003AF1EE73
:1010600010FAC8BFB0EE410AB5EEC00AF1EE10FAB0
:10107000A8BFB0EE402AB8EE430A22EE000ABDEE49
:10108000C00A10EE100A704734000020A4707D3FA3
:101090000000000010B5244C0029236823EA000357
:1010A0002360636823EA00036360A36823EA000304
:1010B000A360E36823EA0003E36003D0012905D1BC
:1010C000211D00E021460B6803430B60022A09D072
:1010D000C143012A09D072B9A2681043A060E06838
:1010E000084007E0A168014301E0A2681140A16047
:1010F000E1680843E06010BD0B490A6810430860CE
:10110000704700BF01490860704700BF14040140E8
:1011100005494A69024018BF01220968084018BF02
:1011200001201040704700BF0004014003490A68D5
:1011300022F0070210430860704700BF0020024001
:1011400041617047016170470C22104B032902EA8C
:10115000810C4FF00F0202FA0CF201D8196803E07B
:10116000072903D853F8041F914308E00B296FEABD
:1011700002028CBF53F80C1F53F8081F114019606E
:1011800000FA0CF019680843186070470800014025
:1011900001F00F0C11F0100F09D0042A05D1C26B19
:1011A0004CF0030C1A43C26301E04CEA020C2DE937
:1011B000F04100224FF0010E4FF00F08002517E01C
:1011C0000EFA05F61E4211D0046808FA02F70CFA6E
:1011D00002F6482924EA070446EA040603D028292F
:1011E00003D1142700E010273B500660043201357C
:1011F000082DE5D108224FF0000E01244FF00F0812
:10120000102A08BFBDE8F08104FA02F61E4211D090
:10121000456808FA0EF70CFA0EF6482925EA070584
:1012200046EA050603D0282903D1142700E0102739
:101230003B5046600EF1040E0132E1E78068084041
:1012400018BF01207047012000F092BA80B500F06D
:1012500021FE30B900F012FE18B9234801780229A6
:1012600004D10320BDE8804000F082BA1F48007816
:10127000022803D001280ED060B922E001291DD137
:101280001B489FED1C1A90ED070AB4EEC10AF1EE5F
:1012900010FA13DB80BD1648012917D190ED070A1B
:1012A0009FED151AB4EEC10AF1EE10FA0EDB002123
:1012B00081610020BDE8804000F066BD002000F0A4
:1012C00063FD0120BDE8804000F052BA816911B988
:1012D0000A4909688161012000F056FD0220BDE83D
:1012E000804000F045BA00BF00010020F00000205F
:1012F000500000200000B9430000BE430000002061
:1013000078B142686AB18168013191420BD2002202
:10131000427581600261090102685158C160012172
:101320000BE0002109E00021013A01618182826025
:10133000036803EB02125268C2600846704700005F
:1013400068B161B10023002A80E80E0014BF91ED5E
:10135000000A9FED030A036180ED030A8382704750
:101360000000000020B1007D002818BF0120704758
:101370000020704748B1416839B10021816002689E
:101380001268016101218182C260704780B1002131
:1013900001618182426832B1026822B1002181601C
:1013A00092ED000A02E09FED030A816080ED030ADE
:1013B000704700BF00000000F8B52DED0A8B044611
:1013C000002C54D0207D002851D0606800284ED0D9
:1013D0009FED298A0125002601203EE06068002853
:1013E00045D0627D2068A1683AB100EB0110C06869
:1013F00070B3216981422BD232E000EB011797EDE7
:1014000002AA97ED019AB5EEC0AAF1EE10FA16DD28
:1014100094ED03BA39EE4BCAB5EEC0CAF1EE10FA3C
:1014200012DD3CEE4A0A01F08AF9B4EECACAF1EEC6
:1014300010FA04DDB4EEC80AF1EE10FA13DA65759D
:1014400084ED039A266101E026616575F86870B93C
:101450002046FFF755FF50B1207D0006BED106E0C3
:10146000481C206103E03BEE0A0A84ED030ABDEC50
:101470000A8B01B0F0BD00BFBD378635000000000B
:101480002DE9F04F8DB0D0E900128068AC4E864C4B
:10149000C6E90112F06040F20260A04740F203602A
:1014A000A0478248824F182103224FF48073804660
:1014B000B84708F58065182103224FF400532846E9
:1014C000B8472846482103224FF480534FF4805AEE
:1014D000B84740F20B60A04700F0B2FE05467068C6
:1014E0004FF4C001002708F510540991ADF8287099
:1014F000ADF830708DF8327009A94000B5FBF0F0FE
:10150000013830600B90204601F010F80420CDF82F
:101510001E70CDF81A7005AA0021ADF81800012040
:101520000590204600F0D2FE20460021602200F007
:10153000B5FF20460021002200F0CCFF204600210C
:10154000082200F0CDFF2846FEF796FF9FED4E0BD8
:1015500002460B4651EC100BFEF71FFF80468946F2
:10156000002D0197ADF80070ADF80E7067D0B0682F
:10157000FEF782FF42464B4606460D46FEF70DFF3C
:101580009FED430B5AEC10BB5A465346FEF7ECFD59
:10159000FEF77FFF07467F2F4ED940464946424619
:1015A0004B46FEF7E1FD02460B4630462946FEF764
:1015B000F4FE5A465346FEF7D7FDFEF76AFF20F0C9
:1015C0003F01402902D100F1400735E09FED320B89
:1015D0004046494653EC102BFEF76DFE02460B4683
:1015E00030462946FEF7D9FE5A465346FEF7BCFD63
:1015F000FEF74FFF20F01F01202902D100F1A007C4
:101600001AE09FED270B4046494653EC102BFEF79E
:1016100052FE02460B4630462946FEF7BEFE5A46AB
:101620005346FEF7A1FDFEF734FF20F01F012029ED
:101630000CBF00F1C0070027414E4FF4805A4FF015
:101640008040ADF810A06946CDF80A00F8B2ADF8B8
:101650000800204600F007FE2046302101F055F832
:10166000204600F0FBFD2046012101F056F82046FF
:1016700000F052FF96ED030A00F024F80DB0BDE82B
:10168000F08F00BF00BF00BF0000000065CDCD415E
:10169000000000000000E03F0000000000002040CB
:1016A0000000000000003040552100080008014003
:1016B0009111000801461648002918BF012101F0C8
:1016C0002CB800BF80B59FED101AB0EE403A9FEDE8
:1016D0000F2A1B48B4EEC10AF1EE10FAC8BFB0EEF3
:1016E000413AB5EEC03AF1EE10FAA8BFB0EE432A87
:1016F00080ED032AFFF7AAFC024605480021BDE859
:10170000804000F0E7BE00BFA4707D3F00000000F5
:10171000002C014090B1B0B5094C4500606000F06C
:101720008FFDB0FBF5F0074D01382060286094ED87
:10173000030AFFF78BFCA860BDE8B040704700BF0C
:10174000340000202C2C0140C04A0021064801230F
:101750009FED060A1170BE4A2C301370034A4FF0F9
:101760007C530EC0FFF7AEBF50000020CDCC4C3DE7
:10177000B0B52E492E4D2F4C022808702968A16162
:101780001FD0012809D018B904F13800FFF7FEFD79
:10179000FFF7DAFF00F028FA0DE004F13800FFF758
:1017A000F5FDFFF7D1FF264801210170254800789B
:1017B00008B12868E0600020FFF77CFF206AA06283
:1017C000B0BD607808B1281D05E004F13800FFF7CE
:1017D000D1FD04F1440090ED001A94ED092A94ED36
:1017E000080A1548994B01214FF07C52B4EEC21AF9
:1017F000F1EE10FAB4EEC01AC8BFB0EE421AF1EE24
:1018000010FAB8BFB0EE401A017019709FED0B0AC4
:101810000A482968C4E90B10626384ED0A1AFFF7CD
:1018200051FF0120BDE8B040FFF744BFF0000020A9
:101830000000002050000020F8000020CDCC4C3DDE
:1018400004010020000100202DE9F84F2DED105B70
:10185000FEF719FF7148D0E900128068059003A8CF
:10186000CDE90312FFF70CFE44F6206000F042F9C8
:10187000B6EE000A00F08EF900200026FFF742F9CC
:10188000FFF7E6F9FFF7B4FA00F0B6FA644D6548E1
:1018900065490322C5E90760C5E9091105F1380466
:1018A00062492046FFF74CFD95ED091A95ED112A86
:1018B00095ED080ADFF878B1B4EEC12AF1EE10FA1E
:1018C000B4EEC02AC8BFB0EE412AF1EE10FAB8BF9C
:1018D000B0EE402A6E708BED012A00F091F9FFF70F
:1018E000B2FC00F08BFC584F524E9FED538A9FED97
:1018F000539A9FED53AA9FED53BADFF85081DFF85A
:10190000509172B6A86800280FBF4FF0000AD5F8B2
:1019100008A00020A86062B66FE0FFF7DBF830880F
:1019200000EE100AB8EE400A20EE080A80EE090A1E
:1019300020EE0A0A80EE0B0A85ED070A00F096F900
:10194000AAF1010AFFF782FC387802284DD198F8F5
:101950000000012826D1E86ADBF8001099F8002081
:10196000081A002A114618BFC821884213D292B122
:1019700001EE101A95ED0C0A95ED0D2A03EE100AF2
:10198000B8EE411AB8EE433A83EE011A32EE402A1D
:1019900001EE020A04E0002095ED0D0A88F800002F
:1019A000FFF790FE687800BB2046FFF705FD95ED38
:1019B000091A95ED11CA95ED080A2046B4EEC1CA80
:1019C000F1EE10FAB4EEC0CAC8BFB0EE41CAF1EEF3
:1019D00010FAB8BFB0EE40CA85ED0ACAFFF7C2FCE4
:1019E00018B901208BED01CA687095ED0A0ABCEEAA
:1019F000C00A10EE100AFFF78DFEBAF1000F8CD16D
:101A000002A8FFF759FA01A8FFF762FA387803280D
:101A100002D10020FFF74EFE00BF72E76C270008DE
:101A2000500000200004A64700E8FD47802700087A
:101A300000000020A00000203333534000F07F4519
:101A400000144D4800401C46F0000020F400002027
:101A5000F800002010B5254C236803F4E063B3F5CB
:101A6000E06F03D14FF0000C042328E0236803F457
:101A7000E063B3F5C06F03D14FF0010C03231EE008
:101A8000236803F4E063B3F5A06F03D102234FF0A2
:101A9000020C14E0236803F4E063B3F5806F03D114
:101AA0004FF0030C01230AE023684FF0040C03F409
:101AB000E063B3F5407F4FF0040308BF0023994073
:101AC0000F2323FA0CF31A401143094A090140EA93
:101AD000020383F800131C21012301EAD00100F066
:101AE0001F0003FA00F0885010BD00BF0CED00E0AD
:101AF00000E100E070B588B00546002D46D040F208
:101B0000036000F027FB374C182103220123012634
:101B100004F58430FFF73CFB40F2017000F01AFB43
:101B2000022000F00DFA1A49096811F4E06118BFAB
:101B3000012188402849B0FBF5F0002501380495C3
:101B4000ADF81450ADF81C508DF81E50086006908A
:101B500004A9204600F0EAFC6A4620460221ADF8BE
:101B600006500096ADF80A5000F0B0FB2046022166
:101B7000602200F093FC20460221002200F0AAFC23
:101B8000204600F06BFB204600F0C6FC08B070BD9C
:101B9000041002409FED111A0F489FED112A0221F7
:101BA000B4EEC10A0068F1EE10FAC8BFB0EE410A07
:101BB000B5EEC00AF1EE10FAA8BFB0EE402A00EE72
:101BC000100A0848B8EE400A22EE000ABDEEC00A2C
:101BD00010EE102A00F07EBCFC000020A4707D3FB7
:101BE00000000000000400408248002101707E488F
:101BF0000078002814BF0020704700F0D9B800BF5B
:101C000010B540F2026000F0A5FA684C10210322E2
:101C10004FF480632046FFF7BBFA20464FF4806103
:101C2000FFF78EFA40F2026000F094FA204610218D
:101C300003224FF48053FFF7ABFA20464FF4805154
:101C4000FFF77EFA684A002168481170694A81707E
:101C5000017041601170664A1268C0E90321416158
:101C60000020BDE8104000F07DB800BF10B52DED9C
:101C7000028B364CB0EE408A84ED018A00F00AF9FE
:101C800010B900F0FBF8E0B13148007802280DD11E
:101C900001203049097859B1002853D12F49E06813
:101CA0000968081AB0F57A7F04D24BE0022002E0FE
:101CB000002847D10020BDEC028BBDE8104000F0A9
:101CC00077B82348007801281ED080BB21492078AE
:101CD000097871B340B92149E0680968081A1428E5
:101CE00030D3012000F03EF89FED1D0AB4EEC08A0B
:101CF000F1EE10FA21DB194800682169F1B1401AB0
:101D0000C8281FD30120D6E7124800780028D1D078
:101D10009FED110AB4EEC08AF1EE10FA10DA0F4806
:101D20000068616969B1401A6428C3D20AE00020E2
:101D3000AFE710B1002000F015F80020206101E0AD
:101D400000206061BDEC028B10BD00BF5000002080
:101D500000010020040100200000AF43000000202B
:101D60000000B44321490A78824208BF70470870D6
:101D70000E4920B108464FF48061FFF7E3B90846E9
:101D80004FF48061FFF7DCB918498A78824208BFB6
:101D900070478870054920B108464FF48051FFF71D
:101DA000D1B908464FF48051FFF7CAB90008014085
:101DB000B0B50D490E4D0D4C012808704FF00001D3
:101DC0002A68C4E90321616108D0002812BF0020FD
:101DD00008480078BDE8B040FFF7C4BF0120FFF716
:101DE000C1FF28682061B0BD000100205000002024
:101DF000000000200401002010B540F2046000F053
:101E0000A9F91D4C482103224FF40063A4F5E050CA
:101E1000FFF7BEF94FF4C06000F09CF902200B21DF
:101E2000FFF792F94FF4006000210122FFF732F929
:101E30004FF40060FFF766F9282001210022FFF728
:101E400009FE4FF40060FFF757F92046802100F0AB
:101E50004DFC2046802100F045FC18200121002285
:101E6000FFF7F8FD00F00AF8002814BFBDE81040A5
:101E700010BD00F015B800BF002C014080B504482B
:101E80004FF40061FFF7DAF9B0FA80F0400980BD45
:101E90000010014005480078002818BF0120704755
:101EA0000248012101700020FFF704BCEC00002073
:101EB00070B5E94E134A0B28316802EA0102B16A93
:101EC00021F000531BD801248440250709D114F4C4
:101ED000706F09D00C4B03EA803041F0005302438D
:101EE0000DE042EA80320AE00121814011F0A00FAA
:101EF0001FBF064901EA8030104340F08052326033
:101F0000B36270BDFF3FFFEF00C0FCFF00C0FEEFFB
:101F1000D1490A6822F0F00210430860704700BF00
:101F2000CD490A6822F4E06210430860704700BFA0
:101F3000C9490A6822F4605210430860704700BF24
:101F4000B0B5274A1168C1F381032649022B27D176
:101F50001368254C13F4803F0AD0936A234D13F085
:101F6000804F08BF0D46116811F4003F08BF2C4692
:101F700011681368102505EAD353C1F3834119434F
:101F8000136813F0804F03D10E2903D88B1C05E092
:101F900041F020013F233F2938BF4B1C03FB04F1D4
:101FA000136815680328C5F3022CC3F303131268E2
:101FB0000AD810A50E4CEB5C21FA03F3DFE800F021
:101FC0000E020609194609E0002107E014F80C008A
:101FD00002E0C2F3C220205C23FA00F10846B0BD43
:101FE0000410024000127A0000093D00006CDC027F
:101FF0007827000800000000000000000102030430
:102000000607080910B5664C206840F00100206002
:10201000002000F031F86068094908400949606013
:10202000206808402060206820F4802020604FF461
:102030001F00A060E06A20F0C040E06210BD00BF59
:102040000C000020FFFFF6FE554A810900F01F003A
:102050008958012202FA00F0084018BF0120704799
:1020600010B54F4C810900F01F00012202FA00F068
:102070000B591843085110BDF0B110282BD043F272
:102080001001884236D0B0F5006F42D0B0F5106F25
:102090004DD018281CBF002070472C49404B00220F
:1020A00018680029C0F3406008BF70471206A1F10C
:1020B00001010246F4D047E0394B00224FF4A06101
:1020C00018680029C0F340003ED01206A1F10101BA
:1020D0000246F5D038E0324B00224FF40061186818
:1020E0000029C0F340402FD01206A1F101010246A1
:1020F000F5D029E015492A4B0022D3F8C000002969
:10210000C0F3404020D01206A1F101010246F4D0F4
:102110001AE00F49224B0022186A0029C0F3400040
:1021200012D01206A1F101010246F5D00CE00749D8
:102130001B4B0022586A0029C0F3400004D012064D
:10214000A1F101010246F5D0704700BFFFFF0F006B
:10215000FFFFFF0310B5124C810900F01F000122A0
:1021600002FA00F00B591843085110BD10B50C4C81
:10217000810900F01F00012202FA00F00B5923EA46
:102180000000085110BD00BF10B5054C810900F0DA
:102190001F00012202FA00F00B591843085110BD2C
:1021A0000010024008432C49024B0A681A401043B1
:1021B00008607047FFFFC2B703490A6822F08042F7
:1021C00010430860704700BF2C10024022490128CC
:1021D0000A6822F4003308BF42F400330B607047F2
:1021E0001D490A6822F0030210430860704700BFCF
:1021F0001948006800F00C00704700BF80B5FEF77A
:1022000089FA0B484FF47A730A49002200680A6081
:10221000B0FBF3F0084B0138984238BF034607483B
:102220004B608A60F02202700720086080BD00BF0A
:102230000800002010E000E0FFFFFF0023ED00E0B9
:1022400080B50320FFF77CFE0349096811F4605153
:1022500018BF0121884080BD04100240016841F090
:102260008001016070470A884B681A430B891A4342
:102270004B891A438B891A43CB89098A1A43114324
:102280004164704703298EBF002000EB8100406B42
:1022900070470000032988BF7047DFE801F0020D96
:1022A000050A50F8181F01E050F81C1F21F00C011E
:1022B00007E050F81C1F01E050F8181F21F440619E
:1022C000120201600168114301607047032988BF51
:1022D0007047DFE801F0023C7ABA016A21F001019F
:1022E00001621168036A19430162016A21F0020167
:1022F0000162D188036A19430162AD49884202D064
:10230000AC4988421FD1016A21F004010162918821
:10231000036A19430162016A21F00801016211890F
:10232000036A19430162416821F480714160518957
:10233000436819434160416821F40071416091890B
:102340004268114341606FF003021821A0E0016A66
:1023500021F0100101621168036A43EA0111016270
:10236000016A21F020010162D188036A43EA011168
:1023700001628F49884202D08E49884223D1016A86
:1023800021F0400101629188036A43EA0111016270
:10239000016A21F0800101621189036A43EA011197
:1023A0000162416821F4806141605189436843EAD8
:1023B00081014160416821F4006141609189426876
:1023C00042EA81014160182161E0016A21F48071D3
:1023D00001621168036A43EA01210162016A21F482
:1023E00000710162D188036A43EA012101627049E8
:1023F000884202D06F49884223D1016A21F480616A
:1024000001629188036A43EA01210162016A21F4B1
:10241000006101621189036A43EA01210162416896
:1024200021F4805141605189436843EA01114160C0
:10243000416821F4005141609189426842EA0111EA
:1024400041606FF003021C2122E0016A21F48051F7
:1024500001621168036A43EA01310162016A21F4F1
:1024600000510162D188036A43EA01310162504997
:10247000884202D04F49884208D1416821F4804106
:1024800041605189426842EA811141601C21024A3F
:102490000B581A400A507047FFFCFFFF032988BF02
:1024A0007047DFE801F0020D050A50F8181F01E03F
:1024B00050F81C1F21F0700107E050F81C1F01E0CC
:1024C00050F8181F21F4E041120201600168114325
:1024D0000160704703299CBF00EB81004263704795
:1024E000032988BF7047DFE801F0020D050A50F8A4
:1024F000181F01E050F81C1F21F0080107E050F8F8
:102500001C1F01E050F8181F21F400611202016045
:102510000168114301607047016841F001010160E9
:102520007047426911434161704700000A88B0F169
:10253000804F82620ED01B4A90420BD01A4A9042C2
:1025400008D01A4A904205D0194A904202D0194A3E
:1025500090420BD1026822F0700202604A88036840
:102560001A4302608A8803681A4302608A68124B21
:10257000C26240F480629A4207D0026822F440723C
:1025800002608A8903681A430260094A904202D0B5
:10259000084A904201D1897B0163416941F0010100
:1025A000416170470004004000080040000C0040FA
:1025B00000340140002C014000140040032900F2C7
:1025C0008C80F0B5DFE801F0021B355684464FF0F1
:1025D000010E5CF8203F23F00103CCF80030DCF85A
:1025E000003023F00A03CCF800301388DCF80060D8
:1025F0003343CCF80030034653F8186F32E084467A
:102600004FF0100E5CF8203F23F01003CCF80030A0
:10261000DCF8003023F0A003CCF800301388DCF89D
:10262000006046EA0313CCF80030034653F8186FF5
:1026300039E084464FF4807E5CF8203F23F48073B9
:10264000CCF80030DCF8003023F42063CCF8003004
:102650001388DCF8006046EA0323CCF80030034618
:1026600053F81C6F26F003061E60548804256FF093
:10267000F0061FE084464FF4805E5CF8203F23F4B0
:102680008053CCF80030DCF8003023F40053CCF851
:1026900000301388DCF8006046EA0333CCF80030E1
:1026A000034653F81C6F26F440761E6056883402A9
:1026B0000B4E0C251F683C431C601C6834401C609A
:1026C000D488AC401D682C431C60DCF8003043EA21
:1026D0000E03CCF80030BDE8F0409288FFF7DABD79
:1026E000FF0FFFFFC2681143C1607047026922EA11
:1026F000010101617047C2680A4018BF01220069E8
:10270000084018BF012010407047426822F0700254
:1027100042604268114341607047426C012922F4D3
:10272000004308BF42F400434364704700214FF662
:10273000FF7281800160826081818173704710EE39
:10274000100A20F0004000EE100A704702E008C8AE
:10275000121F08C1002AFAD170477047002001E01B
:1027600001C1121F002AFBD170470000C181010086
:10277000F40100000000003F00000000010203041B
:102780000004A64700E8FD4700007A44C8000000A6
:1027900000E8FD4700E8FD470000FA43C8000000DC
:1027A00000E8FD4700E8FD470000FA430000000094
:1027B000D027000800000020100000004C2700086F
:1027C000E027000810000020F80400005C27000843
:1027D0000000000000E8FD47000E27070000000091
:0400000508000131BD
:00000001FF
