:020000040800F2
:10000000F804002045010008E90700087B07000804
:10001000E707000819070008A50A0008000000000B
:10002000000000000000000000000000ED070008D4
:100030007907000800000000EB070008F10700083E
:100040005F0100085F0100085F0100085F01000810
:100050005F0100085F0100085F0100085F01000800
:100060005F0100085F0100085F0100081D0700082C
:100070005F0100085F0100085F0100085F010008E0
:100080005F0100085F0100085F0100085F010008D0
:100090005F0100085F0100085F0100085F010008C0
:1000A0008D0900085F0100085F0100085F0100087A
:1000B000AD0900085F0100085F0100085F0100084A
:1000C0005F0100085F0100085F0100085F01000890
:1000D0005F0100085F0100085F0100085F01000880
:1000E0005F0100085F0100085F0100085F01000870
:1000F0005F0100085F0100085F0100085F01000860
:100100005F0100085F0100085F0100085F0100084F
:100110005F0100085F010008310A0008690A000851
:100120005F0100085F0100085F0100085F0100082F
:10013000DFF80CD000F0DEFA00480047BD190008D7
:10014000F80400200648804706480047FEE7FEE71F
:10015000FEE7FEE7FEE7FEE7FEE7FEE7FEE7FEE777
:1001600089080008310100082DE9F05F05460020EC
:1001700092469B4688460646814640241BE0284618
:1001800041464746224600F006FA53465A46C01AF0
:10019000914110D311461846224600F0EDF92D1A70
:1001A00067EB01084F4622460120002100F0E4F9E8
:1001B00017EB00094E41201EA4F10104DFDC484684
:1001C00031462A464346BDE8F09F2DE9FE4F804662
:1001D00081EA0300C00F0C46009021F0004123F09B
:1001E0000045B8EB0200A94105D2404621469046A1
:1001F0001C460B46024623F00040104347D0270D13
:10020000C7F30A00C3F30A510290401A0190402834
:100210006BDAC3F3130040F4801B0098924620B1C0
:100220000023D2EB030A63EB0B0B01985946C0F194
:100230004002504600F0A0F906460D465046594689
:10024000019A00F0B8F910EB08006141002487EA38
:10025000115284EAE7731A4340D0009A62B3019ABC
:10026000012A4FEA075215DC001B61EB02014FF037
:10027000004202EA0752CDE90042001C41F580111C
:1002800032462B4600F0B8F903B0BDE8F08F404687
:100290002146F9E7001B61EB0201001C41F58013C8
:1002A00000185B412018A2F5001747EB030140EA54
:1002B000D570B6196D4111E06D084FEA360645EA72
:1002C000C0754FEA0752001B61EB0201001C41F5AB
:1002D000801149084FEA30000019514132462B463F
:1002E00003B0BDE8F04F00F078B90098012240005B
:1002F0000023D0EB020263EBE073009821464FEA43
:10030000E074B8EB000061EB0401E9E783F000431F
:100310005BE781F0004158E72DE9FE4F81EA0304D5
:1003200004F0004421F0004100944FF0000B23F052
:10033000004350EA01045ED052EA03045BD0C3F3E9
:100340000A54C1F30A552C44A4F2F3340194A0FBDF
:100350000254C1F3130141F48011C3F3130343F4B6
:10036000801301FB024400FB034E840A970A44EA0F
:10037000815447EA8357A4FB076802958D0A05FB61
:1003800007854FEA932C04FB0C542705029D4FEA86
:10039000065847EA1637B5EB08056EEB070C870ED3
:1003A000920E47EA811742EA8312A7FB0201B6EBDD
:1003B0000B0164EB00042B0D43EA0C335E1844EB95
:1003C0001C50DA465146E7FB0201C5F313044FEA1D
:1003D0000B3343EA14534FEA0432019C43EA060309
:1003E000A4F10C040294009CCDE900B400F004F9DF
:1003F00003B0BDE8F08F00200146F9E72DE9F04D8C
:1004000081EA030404F0004B21F0004514464FF04C
:10041000000A23F0004150EA050220D054EA01020C
:100420001DD0C5F30A570246C5F31303C1F31300E9
:10043000C1F30A5640F4801543F48013A7EB060875
:10044000101BD64608F2FD3873EB050002D308F105
:10045000010801E092185B41B8F1000F03DA0020B7
:100460000146BDE8F08D00204FF480110646844619
:100470000EE0171B73EB050705D3121B63EB050397
:1004800006434CEA010C49084FEA300092185B41E0
:1004900050EA0107EDD152EA030012D082EA0400CB
:1004A00083EA0501084305D0101BAB4106D20122A7
:1004B000002306E000224FF0004302E06FF001024B
:1004C00053101AEB06004CEB085110EB0A0041EBFD
:1004D0000B01BDE8F04D00F080B80EB540F233419D
:1004E00002910021CDE900110A460B4600F084F884
:1004F00003B000BDC1F30A5210B5C1F3130140F2BD
:10050000FF3341F480119A4201DA002010BD40F21D
:1005100033439A42A2F2334203DC524200F03BF8EA
:1005200010BD904010BD00F0004230F000400AD0F5
:10053000C10D01F56071C0F3160042EA0151C20815
:1005400040071143704700200146704730B50B4605
:10055000014600202022012409E021FA02F59D42F3
:1005600005D303FA02F5491B04FA02F52844151EC7
:10057000A2F10102F1DC30BD202A04DB203A00FAAE
:1005800002F1002070479140C2F1200320FA03F3EA
:10059000194390407047202A04DB203A21FA02F0E8
:1005A0000021704721FA02F3D040C2F120029140AD
:1005B000084319467047202A06DBCB17203A41FA38
:1005C00002F043EAE07306E041FA02F3D040C2F1E0
:1005D0002002914008431946704710B5141E73F16C
:1005E000000408DA401C41F1000192185B411A43F3
:1005F00001D120F0010010BD2DE9F04D92469B463F
:1006000011B1B1FA81F202E0B0FA80F220329046E4
:10061000FFF7B2FF04460F4640EA0A0041EA0B0129
:1006200053465A46084313D0114653EA010019D0E5
:10063000C8F140025046FFF7AEFF05460E46504651
:1006400059464246FFF798FF084305D0012004E0D1
:1006500020463946BDE8F08D0020054346EAE076A5
:100660002C4337430A986305E40AA0EB08000022F4
:10067000FD0A44EA47540A3002D500200146E9E762
:10068000010510196941DDE9084500196941BDE816
:10069000F04DA2E7C1F30A52C1F3130140F2FF3358
:1006A00041F480119A4202DA00200146704740F27C
:1006B00033439A42A2F2334202DC5242FFF76BBF4D
:1006C000FFF75ABF30B5041E71F1000404DB4FF090
:1006D0000044404264EB0101141E73F1000405DB89
:1006E0001C464FF00043524263EB0403994208BF9B
:1006F000904230BD064C074D06E0E06840F0010333
:1007000094E8070098471034AC42F6D3FFF714FD85
:100710007C2E00089C2E0008FEE7000010B5144C4B
:1007200000210422204600F064FE48B1204600214A
:10073000042200F057FE0F48418841818188818161
:1007400020460021022200F054FE48B1204600213C
:10075000022200F047FE0748C1884181018981815A
:10076000204600210122BDE8104000F03BBE00BF42
:1007700000000240600000207047FEE780B501F0F5
:1007800029FB102001F054FB102001F05DFB012833
:1007900018BF80BD022000F083FE002001F0A0FA07
:1007A000002001F0ADFA4FF4806001F0A1FA0020C2
:1007B00001F0EAFB002001F0F1FB4FF480304FF430
:1007C000501101F0D7FB182001F032FB192001F085
:1007D00023FB0028FAD0022001F0EAFB01F0F0FB35
:1007E0000028FBD080BDFEE77047704770470000CF
:1007F000044801680131016003488168013181606A
:10080000704700BFEC000020100000205B491A4A2E
:10081000086800F00C0008282AD110B50B681748AA
:1008200013F4803F0AD08B6A154C13F0804F08BF39
:1008300014460A6812F4003F08BF20460A680B6895
:100840001024C2F3834204EAD35309681A4311F017
:10085000804FBDE8104003D10E2A03D8911C05E05B
:1008600042F02002511C3D2988BF3F2101FB00F2CC
:1008700004480260704700BF00127A0000093D0082
:10088000006CDC020000002010B53A484FF4D03272
:100890003A4C3B4B016841F470010160364988587D
:1008A00040F00100885000202060A0628858184065
:1008B00040F2FF7388504FF41F006060885820F4A6
:1008C00080208850885840F480308850885823B160
:1008D00010F40030A3F10103F8D04FF4D03288585F
:1008E00010F4003F00D1FEE7A069264B40F0805095
:1008F000A061086840F440400860206820602068DB
:100900002060206840F480602060206820F440303F
:100910002060206840F440302060206818401A4B66
:100920002060206818432060885840F0807088500C
:10093000885810F0007FFBD0086840F480300860D1
:10094000486810F4803FFBD0086840F4003008602D
:10095000486810F4003FFBD0206820F003002060BE
:10096000206840F002002060206810F0080FFBD0E3
:1009700010BD00BF88ED00E0007000400410024090
:10098000FFFFF6FEFFFFC3B70000340810B5A04C10
:100990008021204601F0EBFC38B101F069F92046D6
:1009A0008021BDE8104001F0DDBC10BDB0B54FF0B6
:1009B0008040012101F0DBFC012816D14FF080407E
:1009C000012101F0CFFC1848184A016804460131A2
:1009D00044F8281B02C8126842EA0145294600F083
:1009E000B9FB2046294600F0B5FB0F4C6068E16872
:1009F00001F0BDFC012806D1201D00F035FB606828
:100A0000E16801F0AFFCA06A216B01F0B0FC0128A5
:100A100018BFB0BD04F1280000F026FBA06A216BCE
:100A2000BDE8B04001F09EBC9000002024000040D2
:100A300010B50C4C0121204601F099FC012803D18E
:100A40002046012101F08EFC15484188013141808A
:100A500089B2142938BF10BD0121017000214180E5
:100A600010BD00BF0010004010B50C4C0121204605
:100A700001F07DFC012803D12046012101F072FC28
:100A8000074881880131818009B2B1F57A7FB8BF0A
:100A900010BD012141700021818010BD0014004073
:100AA0004C000020FEE700002DE9F04385B0DFF8A0
:100AB0005C91044699F80000002840F094804B4F68
:100AC00040F20260B84740F20360B847484E002148
:100AD0000322E023304600F0F1FC06F5806000219F
:100AE0000322022300F0EAFC4FF4A060B84706F5A9
:100AF00078450021284600F00BFC4FF400504FF4DD
:100B000080713C4A4FF4807303904FF480600491ED
:100B100004210190D648029100210230009028461D
:100B200000F012FC2846002100F0E2FB28460021DC
:100B3000022200F047FC28460021042200F042FC7B
:100B40002846002101224FF0010800F04BFC0B2049
:100B50000121002201F01EF840F20960B84702208E
:100B600001F08EF806F5E056304600F0F1F800206E
:100B700000F05CF930464FF48071012200F0C1F9B9
:100B800030460221002200F0BCF93046002100F07E
:100B9000D5F830460121022200F0B2F8304600219B
:100BA0000522042300F071F93046012106220123B9
:100BB00000F06BF930460121224600F023F930465F
:100BC0000121012200F002F9304600F0F6F830462B
:100BD00000F084F8304600F0EBF82846002100F0E1
:100BE00077FB89F8008005B0BDE8F083251F000879
:100BF000000801404C24014004480078012818BF37
:100C000070470348082101F058BB00BFDC000020FA
:100C1000002C014070B5964D2878002858D140F23C
:100C2000046001F07FF9604C002103223023A4F519
:100C3000C05000F043FC40F20A6001F073F902205A
:100C400001F01EF8204600F083F8002000F0EEF8D6
:100C50002046002100F072F820464FF480710022F7
:100C600000F04FF920460221002200F04AF9204608
:100C70000121012200F044F8204601214FF46022B6
:100C800000F0C0F820460121012200F09FF8204624
:100C900000F093F80F4E40F2E9303168013802D08D
:100CA00011F00101F9D098B1012000F007FB2046B6
:100CB00000F014F808483168013018BF11F008013D
:100CC000F9D118B9306820F0080030600120287090
:100CD00070BD00BF08280140AF3CFFFF816841F0B4
:100CE00008018160816811F0080FFBD1816841F033
:100CF00004018160816811F0040FFBD1704700008E
:100D0000B0B5022907D0012918BFB0BD0A4D4FF474
:100D100070012C2303E0074D4FF4401138231C5879
:100D200001EB0252114025401D501D582943195016
:100D3000B0BD00BFFFFFCFFFFFFF0FFF826800299C
:100D400042F4006308BF22F4006383607047000030
:100D500080B51449884210D01349884217D01349EE
:100D6000884218BF80BD40F2093001F0F5F840F22A
:100D70000930BDE8804001F0E1B840F20F3001F0E9
:100D8000EBF840F20F30BDE8804001F0D7B840F2F8
:100D90000A3001F0E1F840F20A30BDE8804001F08D
:100DA000CDB800BF003C01400028014000240140B4
:100DB000816841F4807181607047816811F0010F92
:100DC00002BF816841F001018160704701F00103B9
:100DD00052B11BB1826842F48012826089070FD53C
:100DE000816841F400410AE01BB1826822F480125C
:100DF0008260890758BF7047816821F40041816093
:100E000070470000022904D0012918BF7047064925
:100E100000E0044983681940816081681143816062
:100E2000704700BFFF8FFFFFFFFFF1FF04490A6813
:100E300022F470220A600A6810430860704700BFFD
:100E40000424014083B00A484189ADF80A100949D9
:100E50008089BDF80A200A80ADF80800BDF80800B6
:100E600048800098019A8A60486003B0704700BFCC
:100E700060000020E0000020FFF716BE80B5FFF7FD
:100E8000BBFEBDE88040FFF7C5BEB0B5052904D85C
:100E900001EB810E00F1340C10E00B2906D801EBB8
:100EA000810100F1300CA1F11E0E07E0102910D2D3
:100EB00001EB810100F12C0CA1F13C0E1F24DCF8A8
:100EC000001002FA0EF504FA0EF4A1432943CCF8FF
:100ED0000010092A03D802EB4201103006E0112A63
:100EE00088BFB0BD02EB42010C301E3903FA01F29B
:100EF000072303FA01F1036823EA010111430160AA
:100F0000B0BD01F4807382B11BB1426842F48072BB
:100F100042604A0542BF426842F4806242608907EB
:100F200015D5816841F0020110E01BB1426822F43E
:100F3000807242604A0542BF426822F48062426089
:100F4000890758BF7047816821F0020181607047AE
:100F50002DE9F8430D4604462846FFF7BEFA9FEDFB
:100F60003A0B02460B4651EC100BFFF747FA0646C8
:100F70000F46002D60D02046FFF7AFFA32463B46C1
:100F800080468946FFF73AFA9FED310B54EC105B2F
:100F90002A462346FFF719F9FFF7ACFA7F284CD908
:100FA0003046394632463B46FFF70FF902460B46BC
:100FB00040464946FFF722FA2A462346FFF705F93D
:100FC000FFF798FA20F03F01402901D1403034E08A
:100FD0009FED210B3046394653EC102BFFF79CF95F
:100FE00002460B4640464946FFF708FA2A46234682
:100FF000FFF7EBF8FFF77EFA20F01F01202901D15F
:10100000A0301AE09FED160B3046394653EC102BFA
:10101000FFF782F902460B4640464946FFF7EEF9D4
:101020002A462346FFF7D1F8FFF764FA20F01F01A4
:10103000202901D1C03000E00020C0B201B0BDE8DD
:10104000F08300BF00BF00BF0000000065CDCD41B0
:10105000000000000000E03F000000000000204011
:10106000000000000000304010B504462068A18850
:1010700000F0F0FF216880B2B1F1804F11BF002174
:1010800032490968090441EA000C94F8201011B3B0
:10109000002184F820102168E2681AB10B6A23EA63
:1010A00002020A622169626952B3ACEB010194ED5C
:1010B000050A01EE101AB8EE411AB8EE400A81EEA8
:1010C000000AB7EE001AB4EEC10AF1EE10FAC8BF7A
:1010D000B0EE410A16E094F8211019B12169ACEB89
:1010E000010161610121C4F810C084F8211084F865
:1010F00020102168E26852B10B6A1A430A6206E0C6
:101100009FED130A012184ED070A84F82210626919
:101110009100002A0CBF4FF48021920FB1F580336B
:1011200072F1000302D24FF480310BE0B1F1FF30D5
:101130004FF0000372F1000038BF0123002B08BFFD
:101140004FF0FF3101EB0C00A06110BD90000020BA
:101150000000000090F821206AB18269891A0029F4
:1011600009DB002180F8211080F820104161C16165
:10117000012180F82210704783B0C0B50DF10C0C2E
:10118000ACE80E0003A9009100F06EF8BDE88840BD
:1011900003B0704770B5244C054640F20360A04789
:1011A0004FF4C060A04740F21270A0472D4C1821A8
:1011B00003224FF4806304F54446304600F07EF984
:1011C0003046042103224FF4006300F077F92046F3
:1011D00001F030F9002D204608BF4FF4E1352946D3
:1011E00001F002F92046002101F0AAF92046002171
:1011F00001F098F92046002101F086F920460021EF
:1012000001F07CF92046002101F072F9204604210A
:1012100001F082F92046082101F08CF92046BDE852
:10122000704001F055B900BF251F000810B50446F5
:101230000A2C02D10D2000F005F82046BDE8104030
:10124000AFF30080B0B5074D04462846072101F0F2
:1012500044F90028F9D028462146BDE8B04001F005
:10126000E5B800BF0048004010B5A0B00B460246EC
:101270006846802101F06CF90446002C0CDB7F2CC1
:1012800021466846A8BF7F2100F00CF8802C03DBC4
:101290000348032100F006F8204620B010BD00BF2F
:1012A000782E0008B0B50C46054604E015F8010B91
:1012B000FFF7BCFF013C002CF8D1B0BD38B1B849F4
:1012C0000A6800E000BF0B689B1A8342FAD370479C
:1012D000434A904202D1052900D3FEE701EB810188
:1012E00000EB8100816841F001018160704700BF1F
:1012F0003B4A904202D1052900D3FEE701EB810170
:1013000000EB8100816841F020018160704700BFDF
:10131000334A904202D1052900D3FEE701EB810256
:10132000890000EB8202936823F00103936000239D
:101330009360D360136153610F2202FA01F1426896
:1013400011434160704700BF70B5254CA04202D1E7
:10135000052900D3FEE7DDE9064E01EB8101DDE959
:101360000465DDF820C000EB8100A1B20261466196
:10137000C16043EA05015FFA8CF3826841EA0E011D
:10138000012B0CF47F4322F47C5241EA020181607C
:10139000816821F0400208BF41F04002B3F5807F30
:1013A0008260816821F0800208BF41F080021CF455
:1013B0007F0F8260816841F0100208BF21F01002A7
:1013C000826070BD064B984202D1052900D3FEE72A
:1013D00001EB810100EB810081681143816070475E
:1013E00000040240890002FA01F1426811434160A1
:1013F0007047022A944607D0042A03D0082A94464C
:1014000002D0FEE74FF0040C8B0001EB81019A4003
:10141000036800EB81001A4018BF0122806810EABF
:101420000C0018BF01201040704700009FED192AE2
:1014300019489FED1A1AB4EEC20AF1EE10FAC8BFAD
:10144000B0EE420A0068B5EEC00AF1EE10FAA8BF8D
:10145000B0EE401AA8B1411CB6EE000A02EE101A16
:10146000B8EE422A01EE020ABCEEC00A10EE102AC3
:1014700091424FF6FF7188BF1046884228BF084648
:1014800006E0B5EEC01A0020F1EE10FAC8BF012048
:1014900080B27047A4707D3F2C2C014000000000FA
:1014A00003490A6822F0070210430860704700BF32
:1014B00000200240416170470161704701F00F0C4C
:1014C00011F0100F09D0042A05D1C26B4CF0030CA7
:1014D0001A43C26301E04CEA020C2DE9F0410022FC
:1014E0004FF0010E4FF00F08002517E00EFA05F639
:1014F0001E4211D0046808FA02F70CFA02F64829D5
:1015000024EA070446EA040603D0282903D1142755
:1015100000E010273B50066004320135082DE5D16C
:1015200008224FF0000E01244FF00F08102A08BFC8
:10153000BDE8F08104FA02F61E4211D0456808FAAF
:101540000EF70CFA0EF6482925EA070546EA0506C5
:1015500003D0282903D1142700E010273B50466010
:101560000EF1040E0132E1E7022000F087B900001D
:10157000DB480078022812D8DA49486928B9DA48E5
:1015800000680028486108BF7047D7490968081AF1
:1015900042F21071884202D3032000F06FB9704705
:1015A000EC0000202DE9F04192B0D0E900128068F3
:1015B000DFF8C0825A4FC8E90112C8F80C0040F2A7
:1015C0000260B84740F20360B847564C564E1021AF
:1015D00003224FF480732046B04720464FF48071B9
:1015E000FFF768FF04F58065102103224FF40053D4
:1015F0002846B04728464FF40051FFF75BFF2046CE
:10160000182103224FF48073B04728461821032283
:101610004FF40053B0472846482103224FF480532B
:10162000B04740F20B60B84700F0F2FC0546D8F82E
:101630000400002704F510540EA90E97ADF83C7075
:10164000ADF844708DF84670B5FBF0F00138C8F87D
:1016500000001090204600F03FFE0420CDF83270CC
:10166000CDF82E7001260AAA0021ADF82C002046E4
:101670000A9600F0F7FC20460021602200F0DAFD17
:1016800020460021002200F0F1FD20460021082222
:1016900000F0F2FD0BAA07CACDE90660CDE90812F9
:1016A00006AA20460221ADF81C7000F0DBFC2046A3
:1016B0000221602200F0BEFD20460221002200F03F
:1016C000D5FD20460221082200F0D6FD4FF48060AF
:1016D000294602904FF40060ADF80400D8F80800E5
:1016E000ADF81270FFF734FCADF80C0001A92046EC
:1016F000ADF81470CDF80E7000F09DFC204660210E
:1017000000F03FFE204600F091FC204600F0D0FDA6
:1017100000F048FE002000F009F812B0BDE8F081AA
:10172000251F000800080140BD140008F8B5524C00
:1017300005460021204600F02CFE20460021002214
:1017400000F094FD002D5ED020460021102200F014
:1017500071FD2046012100F0B4FD2046012100F07A
:10176000ACFD2046012100F0B1FD0028F9D0204653
:10177000012100F0A6FD002001216062204600F05A
:1017800008FE2046002100F004FE204600216022D1
:1017900000F050FD374D95ED030AFFF747FE024676
:1017A0002046002100F062FD2046012100F089FD65
:1017B0002046012100F081FD2046012100F086FD38
:1017C0000028F9D02046012100F07BFD0E4F0026B5
:1017D000204601216662B84720460021B8472046CE
:1017E0000021002200F042FD204601216662B84738
:1017F00095ED030AFFF71AFE024620460021BDE8D8
:10180000F84000F033BDF8BD93230008B0B504469E
:1018100074B300F0FDFB014651B3B1FBF4F0154D7C
:10182000154C022898BF0220B0F5803F28BF4FF426
:101830008030421EB1FBF0F02A60E2626860A86866
:10184000FFF786FB616C21F0FF010843606495EDB2
:10185000030AFFF7EBFD02462046002100F006FDDB
:1018600000F0A0FD20460121BDE8B04000F025BDFC
:10187000B0BD00BF78000020002C014010B5184911
:10188000184C022808704FF00001A162164909683F
:10189000616138BF10BD032807D002284FF0000057
:1018A000FFF744FF206B606310BD9FED100A94EDBD
:1018B0000C2A94ED0B1A0120B4EEC02AF1EE10FAB6
:1018C000B4EEC01AB8BFB0EE420AF1EE10FAC8BFCB
:1018D000B0EE410A84ED0D0ABDE81040FFF726BFC7
:1018E000F400002010000020EC00002000E6AA47D1
:1018F00090ED002A90ED013A90ED051A90ED060A60
:1019000090ED034A90ED046A32EE432A30EE413AFC
:1019100004EE026AB1EE437AB4EEC76AB0EE464A0C
:10192000F1EE10FAB8BFB0EE474AB4EEC34AB0EEDB
:10193000445AF1EE10FAB4EEC76AC8BFB0EE435A8B
:10194000F1EE10FA80ED046A07DBB4EEC34AF1EE63
:1019500010FAC8BF80ED045A01E080ED045A90ED02
:10196000026A90ED073A90ED084A02EE065A30EE10
:10197000452AB4EEC12AF1EE10FAB8BFB0EE412A02
:10198000B4EEC02AF1EE10FAC8BFB0EE402A32EE33
:10199000430AB0EEC01AB4EEC41AF1EE10FA0ADD32
:1019A000B5EEC00AB1EE441AF1EE10FAC8BFB0EEBF
:1019B000441A33EE012A80ED072A70472DE9F84FCB
:1019C0002DED182BFEF7DAFE4FF4A06000F030F991
:1019D0004FF4E130FFF7DEFB00F0F8FA5148D0E9B0
:1019E000001280680B9009A8CDE90912FFF7DAFD13
:1019F0004FF48020FFF740FAFFF740FA4A4F4B4878
:101A000000264B494B4A4C4B4C4C4D4DC7E9060602
:101A100007F1200046C007F12C0038C04948B863E0
:101A2000FFF7A2FD012000F00DF9474C9FED478A1A
:101A30009FED479A9FED47AA9FED47BA474D07F1A3
:101A4000180872B6B86800280FBF4FF0000AD7F820
:101A500008A00020B86062B65EE0A9F1010AFFF7B5
:101A6000F1F9208800EE100AB8EE400A20EE080ACC
:101A700080EE090A20EE0A0A80EE0B0A87ED070ABB
:101A8000FFF776FD287803283DD14046FFF730FF69
:101A900097ED0D0ABCEEC00A10EE100AFFF7B6FE75
:101AA00038690130642838612DD397ED070A97ED26
:101AB00006CA0020386110EE100A3CEE40DAFEF74C
:101AC00032FDCDE907101CEE100AFEF72CFD05468D
:101AD0001DEE100A0C46FEF726FD0646786B8B4677
:101AE000FEF721FD44EC115B41EC100B4BEC126B4B
:101AF0001A4D154C1AA08DEC041B8DED040BDDE97D
:101B00000732FFF739FBBAF1060F05D3F8684FF03B
:101B1000050A48440638F860D146B9F1000F9CD157
:101B200000BF8EE7642E000810000020000058421D
:101B30000000FA44000020410004A64700E8FD47E9
:101B400000E6AA470000FA43E00000203333534088
:101B500000F07F4500144D4800401C46F400002072
:101B6000566F75743D252E326620562C20567265B0
:101B7000663D252E326620562C20653D252E326688
:101B800020562C20665F636D643D252E316620480B
:101B90007A0D0A0010B52A4C236803F4E063B3F50C
:101BA000E06F03D14FF0000C042328E0236803F416
:101BB000E063B3F5C06F03D14FF0010C03231EE0C7
:101BC000236803F4E063B3F5A06F03D102234FF061
:101BD000020C14E0236803F4E063B3F5806F03D1D3
:101BE0004FF0030C01230AE023684FF0040C03F4C8
:101BF000E063B3F5407F4FF0040308BF0023994032
:101C00000F2323FA0CF31A401143084A090140EA52
:101C1000020383F800131C21012301EAD00100F024
:101C20001F0003FA00F0885010BD00BF00E100E083
:101C30000249084302490860704700BF0000FA05E6
:101C40000CED00E008490A78824208BF704708702E
:101C5000064920B108464FF48041FFF72DBC0846E5
:101C60004FF48041FFF726BC10000020000C01401B
:101C70000248012101700020FFF758BDF00000204C
:101C800070B5E94E134A0B28316802EA0102B16AC5
:101C900021F000531BD801248440250709D114F4F6
:101CA000706F09D00C4B03EA803041F000530243BF
:101CB0000DE042EA80320AE00121814011F0A00FDC
:101CC0001FBF064901EA8030104340F08052326065
:101CD000B36270BDFF3FFFEF00C0FCFF00C0FEEF2E
:101CE000D1490A6822F0F00210430860704700BF33
:101CF000CD490A6822F4E06210430860704700BFD3
:101D0000C9490A6822F4605210430860704700BF56
:101D1000B0B5274A1168C1F381032649022B27D1A8
:101D20001368254C13F4803F0AD0936A234D13F0B7
:101D3000804F08BF0D46116811F4003F08BF2C46C4
:101D400011681368102505EAD353C1F38341194381
:101D5000136813F0804F03D10E2903D88B1C05E0C4
:101D600041F020013F233F2938BF4B1C03FB04F106
:101D7000136815680328C5F3022CC3F30313126814
:101D80000AD810A50E4CEB5C21FA03F3DFE800F053
:101D90000E020609194609E0002107E014F80C00BC
:101DA00002E0C2F3C220205C23FA00F10846B0BD75
:101DB0000410024000127A0000093D00006CDC02B1
:101DC000702E000800000000000000000102030463
:101DD0000607080910B5664C206840F00100206035
:101DE000002000F031F86068094908400949606046
:101DF000206808402060206820F4802020604FF494
:101E00001F00A060E06A20F0C040E06210BD00BF8B
:101E10000C000020FFFFF6FE554A810900F01F006C
:101E20008958012202FA00F0084018BF01207047CB
:101E300010B54F4C810900F01F00012202FA00F09A
:101E40000B591843085110BDF0B110282BD043F2A4
:101E50001001884236D0B0F5006F42D0B0F5106F57
:101E60004DD018281CBF002070472C49404B002241
:101E700018680029C0F3406008BF70471206A1F13E
:101E800001010246F4D047E0394B00224FF4A06133
:101E900018680029C0F340003ED01206A1F10101EC
:101EA0000246F5D038E0324B00224FF4006118684A
:101EB0000029C0F340402FD01206A1F101010246D3
:101EC000F5D029E015492A4B0022D3F8C00000299B
:101ED000C0F3404020D01206A1F101010246F4D027
:101EE0001AE00F49224B0022186A0029C0F3400073
:101EF00012D01206A1F101010246F5D00CE007490B
:101F00001B4B0022586A0029C0F3400004D012067F
:101F1000A1F101010246F5D0704700BFFFFF0F009D
:101F2000FFFFFF0310B5124C810900F01F000122D2
:101F300002FA00F00B591843085110BD10B50C4CB3
:101F4000810900F01F00012202FA00F00B5923EA78
:101F50000000085110BD00BF10B5054C810900F00C
:101F60001F00012202FA00F00B591843085110BD5E
:101F70000010024008432C49024B0A681A401043E3
:101F800008607047FFFFC2B703490A6822F0804229
:101F900010430860704700BF2C10024022490128FE
:101FA0000A6822F4003308BF42F400330B60704724
:101FB0001D490A6822F0030210430860704700BF01
:101FC0001948006800F00C00704700BF80B5FEF7AC
:101FD0001DFC0B484FF47A730A49002200680A601E
:101FE000B0FBF3F0084B0138984238BF034607486E
:101FF0004B608A60802202700720086080BD00BFAD
:102000000000002010E000E0FFFFFF0023ED00E0F3
:1020100080B50320FFF77CFE0349096811F4605185
:1020200018BF0121884080BD04100240016841F0C2
:102030008001016070470A884B681A430B891A4374
:102040004B891A438B891A43CB89098A1A43114356
:102050004164704703298EBF002000EB8100406B74
:1020600070470000032988BF7047DFE801F0023C99
:102070007ABA016A21F0010101621168036A194309
:102080000162016A21F002010162D188036A1943E9
:102090000162B249884202D0D24988421FD1016A06
:1020A00021F0040101629188036A19430162016A07
:1020B00021F0080101621189036A19430162416834
:1020C00021F480714160518943681943416041683E
:1020D00021F40071416091894268114341606FF0C1
:1020E00003021821A0E0016A21F0100101621168C9
:1020F000036A43EA01110162016A21F020010162D1
:10210000D188036A43EA011101629449884202D0EE
:10211000B449884223D1016A21F0400101629188CB
:10212000036A43EA01110162016A21F08001016240
:102130001189036A43EA01110162416821F4806157
:1021400041605189436843EA81014160416821F45B
:10215000006141609189426842EA81014160182131
:1021600061E0016A21F4807101621168036A43EA47
:1021700001210162016A21F400710162D188036AC0
:1021800043EA012101627549884202D0954988429B
:1021900023D1016A21F4806101629188036A43EAD4
:1021A00001210162016A21F4006101621189036A5F
:1021B00043EA01210162416821F480514160518963
:1021C000436843EA01114160416821F400514160D4
:1021D0009189426842EA011141606FF003021C21BB
:1021E00022E0016A21F4805101621168036A43EA26
:1021F00001310162016A21F400510162D188036A50
:1022000043EA013101625549884202D0754988424A
:1022100008D1416821F4804141605189426842EA15
:10222000811141601C21024A0B581A400A50704724
:10223000FFFCFFFF032988BF7047DFE801F0020DB4
:10224000050A50F8181F01E050F81C1F21F070011A
:1022500007E050F81C1F01E050F8181F21F4E0417E
:1022600012020160016811430160704703299CBF9D
:1022700000EB810042637047032988BF7047DFE8A5
:1022800001F0020D050A50F8181F01E050F81C1F5C
:1022900021F0080107E050F81C1F01E050F8181F5A
:1022A00021F400611202016001681143016070476E
:1022B000016841F0010101607047426911434161C9
:1022C0007047026922EA0101016170470069084014
:1022D00018BF0120704700000A88B0F1804F826269
:1022E0000ED01B4A90420BD01A4A904208D01A4A8C
:1022F000904205D0194A904202D03A4A90420BD1FE
:10230000026822F0700202604A8803681A43026081
:102310008A8803681A4302608A68114BC26240F4DB
:1023200080629A4207D0026822F4407202608A8971
:1023300003681A430260094A904202D0294A904237
:1023400001D1897B0163416941F00101416170471D
:102350000004004000080040000C00400034014030
:1023600000140040026922EA010101617047C2685D
:102370000A4018BF01220069084018BF0120104020
:102380007047426822F07002426042681143416027
:102390007047426C012922F4004308BF42F4004315
:1023A000436470470F48C16AC1B14A1CB6EE000AC7
:1023B00001EE102A4FF6FF72B8EE411A01EE000A44
:1023C000BCEEC00A10EE103A002B08BF01238B426E
:1023D00028BF8B1802219AB2FFF748BF02210022C2
:1023E000FFF744BF002C0140B0B50D463349044609
:1023F00002208C420CD032498C4209D031498C42A7
:1024000006D031498C4203D0304884420CD103209D
:10241000C0B2FFF77DFC00EB5500A168B0FBF5F002
:1024200080B20843A060B0BD0020F4E76FF35F21E5
:102430004160704780B52149884216D020498842C2
:102440001DD02049884224D01F4988422BD01F49E3
:10245000884218BF80BD40F20E30FFF77DFD40F28C
:102460000E30BDE88040FFF769BD40F21140FFF734
:1024700073FD40F21140BDE88040FFF75FBD40F2C0
:102480001240FFF769FD40F21240BDE88040FFF7BF
:1024900055BD40F21340FFF75FFD40F21340BDE829
:1024A0008040FFF74BBD40F21440FFF755FD40F26E
:1024B0001440BDE88040FFF741BD00BF004400402C
:1024C00000480040004C00400050004000380140EF
:1024D000C16841F40051C16070478A0901F01F01D1
:1024E0001058012202FA01F1084018BF012070477C
:1024F000426922F40072114341617047426922F43B
:102500008072114341617047C26822F4C062C260A8
:10251000C2681143C1607047C26822F004021143CF
:10252000C1607047026922F440520261026911439E
:1025300001617047C26822F008021143C160704710
:10254000C26822F48052C260C2681143C160704701
:102550007CB5044600201D46164600290BD0491EB6
:10256000CDE90041044B6A462946304600F0D8F8D0
:10257000009A002111707CBD4F2E000802E008C8AF
:10258000121F08C1002AFAD170477047002001E0ED
:1025900001C1121F002AFBD1704700002DE9FF5F27
:1025A00082B00021DDE90430020DDDF840B00343C4
:1025B00018D044F61050A2F2FF324243151411987D
:1025C00001281FD0A5EB0B00401C5FEA000A4FF06A
:1025D00000064E4FDFF83891B046504615D5CAF187
:1025E000000413E0119801244AA3012801D16FEAE5
:1025F0000B010298119AC0E90031C0E9024206B00D
:10260000BDE8F09FCBF10000DFE704460021404A1F
:10261000491842EB0450CDE9001012E0E00707D062
:1026200032463B4640464946FDF776FE804689469F
:1026300032463B4610461946FDF76EFE06460F46EB
:102640006410002CEAD1DDE90401DDE90023BAF1D0
:10265000000F06DAFDF760FE42464B46FDF75CFED2
:1026600005E0FDF7CBFE42464B46FDF7C7FE0446AC
:102670000E460022284BFEF725F803D84FF0FF3016
:10268000014607E00022254B20463146FDF79DFD1F
:10269000FEF700F8102409E0002C0ADB0A220023D0
:1026A000FDF762FD039B30321A55641E50EA0102A9
:1026B000F2D1641C039AC4F111031444119A012A43
:1026C00003D0012208430DD10AE0084304D00020C2
:1026D0004FF0110B119072E7A3EB0B056D1E0DE08F
:1026E0005B4504DD4FF0000205F1010504E003DA6B
:1026F0004FF00002A5F10105002AECD002981199D3
:10270000C0E90231C0E9004579E70000000014404B
:102710000000F03F300000000000F0430000E03F08
:102720002DE9FF4F95B09B468946064600250FE2EE
:10273000252877D100242746F84A0121059400E096
:10274000044316F8013F203B01FA03F01042F7D191
:1027500030782A2811D06FF02F033078A0F13002A2
:10276000092A16D8059A44F0020402EB820203EB10
:1027700042021044761C0590EFE759F8042B0592AD
:10278000002A03DA504244F40054059044F0020455
:10279000761C30782E2816D116F8010F44F0040468
:1027A0002A280DD06FF02F023078A0F13003092BCA
:1027B00009D807EB870302EB4303C718761CF3E73E
:1027C00059F8047B761C30786C280FD006DC4C2836
:1027D00017D068280DD06A2814D104E0742810D0CE
:1027E0007A280FD10DE044F400140AE044F4801478
:1027F00001E044F440147278824202D104F580145E
:10280000761C761C307866280BD013DC582877D0DD
:1028100009DC002875D04528F6D04628F4D0472892
:102820001AD19DE118E0632835D0642879D0652855
:1028300012D195E1702873D008DC6728F1D069289F
:102840006FD06E280DD06F2806D1B5E073282CD03C
:10285000752875D0782874D05A46179990476D1C02
:1028600075E1C4F30250022809D003280DD0D9F82D
:10287000001004280DD00D6009F1040967E1D9F8B2
:102880000010EA17C1E90052F6E7D9F800100D80F0
:10289000F2E70D70F0E719F8041B8DF80010002026
:1028A0008DF80100EA46012003E059F804AB4FF02F
:1028B000FF3061074FF0000102D40DE008F1010183
:1028C0008846B9420FDA8045F8DB1AF8081000296B
:1028D000F4D108E008F1010188468142FADB1AF8D8
:1028E00008100029F6D105985B46A0EB08072146A1
:1028F0003846179A00F094FA284400EB080507E0E0
:102900004DE029E10DE01AF8010B5A46179990475E
:10291000B8F10108F7D25B4621463846179A13E111
:1029200042E00A220092C4F302524FF0000A022A47
:1029300008D059F804CB032A4FEAEC710AD00DE015
:1029400029E02AE009F1070121F00702F2E802C1BB
:10295000914609E00FFA8CFC4FEAEC71042A03D18E
:102960004FFA8CFC4FEAEC71002907DA0A46002185
:10297000DCF1000C61EB02012D2202E0220504D5FE
:102980002B228DF80420012203E0E20701D020224F
:10299000F7E7904659E00A2102E010220DE01021ED
:1029A0004FF0000A00910BE010224FF0000A44F0B3
:1029B00004040827009203E008224FF0000A009266
:1029C000C4F30252022A05D059F804CB0021032A8D
:1029D00008D009E009F1070121F00702F2E802C17D
:1029E000914605E01FFA8CFC042A01D10CF0FF0C83
:1029F0004FF00008220728D5702806D0009B83F0EE
:102A0000100353EA0A0305D00EE040228DF804209B
:102A1000012208E05CEA010206D030228DF8042091
:102A20008DF8050002229046009B83F0080353EACC
:102A30000A030AD15CEA010201D1620705D53022FE
:102A40008DF804204FF001087F1E582804D034A0D0
:102A500003900EA802900DE036A0F9E753466046B9
:102A6000009AFDF781FB84460398825C0298401E21
:102A7000029002705CEA0100F0D1029806A9081ADF
:102A800000F1200A600702D524F4803400E0012719
:102A9000574502DDA7EB0A0000E0002000EB0A0129
:102AA000009005984144401A0590E00306D45B4627
:102AB0002146179A059800F0B3F90544002706E06F
:102AC00001A85A46C05D179990476D1C7F1C474569
:102AD000F6DBE0030CD55B462146179A059800F01B
:102AE0009FF9054404E030205A46179990476D1C21
:102AF0000099481E00900029F5DC08E00298029930
:102B00005A460078491C0291179990476D1CBAF1FA
:102B10000001AAF1010AF1DC65E1000009280100C9
:102B20003031323334353637383961626364656643
:102B30000000000030313233343536373839414205
:102B4000434445460000000000F058F90544761C57
:102B5000307800287FF4ECAD19B02846BDE8F08F3E
:102B6000620700D4062709F1070222F0070CFCE8EF
:102B70000223E14603F000485FEA080C02D00FF29E
:102B8000702C0DE05FEA045C02D50FF2682C07E0C0
:102B90005FEAC47C02D00FF2602C01E0AFF2700C4F
:102BA0004FF0FF3823F00043CDF850C065280CD01B
:102BB00006DC452809D046281DD047283DD13DE0F8
:102BC000662818D067287ED138E00021112F01DB5C
:102BD000112000E0781CCDE9000106A90EA8FFF73E
:102BE000DDFCDDE90F010E9A03910021009207F14F
:102BF000010A04914DE04FF000400097CDE901102B
:102C000006A90EA8FFF7CAFCDDE90F0203920E9B8E
:102C100011990022DDF80CA00093049211B9791CDF
:102C200000EB010AB7EB0A0004D4C0F1FF3007F152
:102C3000010A0490AAEB0700019044E0012F00DA9A
:102C400001270021112F01DD112000E03846CDE9D8
:102C5000000106A90EA8FFF7A1FCDDE90F010E9AFD
:102C60000391002104910092BA4621070CD40399E4
:102C7000514500DA8A46BAF1010F05DD009AAAF142
:102C80000101515C302908D0B84202DA10F1040F7A
:102C900006DA0121CDE9011015E0AAF10101E9E709
:102CA000002805DC049901440491AAEB000102E02C
:102CB000411C514500DD8A460499401A401C019090
:102CC0004FF000400290200704D40198504501DBEA
:102CD000CDF8048000208DF84F0002980DF14F07C9
:102CE000B0F1004F25D02B200E9002984FF0020833
:102CF00000280CDA404202902D200E9007E00A21B5
:102D00000298FDF723FC3031029007F8011DB8F15D
:102D10000001A8F10108F2DC02980028EFD1791E29
:102D20000E980870307800F0200040F0450007F859
:102D3000020D12A8C01B00F107081498007800B11A
:102D4000012000EB0A01019801EBE0710598414474
:102D5000401A401E0590E00306D45B462146179AB0
:102D6000059800F05DF805441498007818B15A46AB
:102D7000179990476D1CE00324D55B462146179AAE
:102D8000059800F04DF805441CE00498002807DB86
:102D9000DDE90301884203DD0098405C179901E0FA
:102DA000179930205A469047049805F10105401CB8
:102DB00004900198401E019004D12E205A46179984
:102DC00090476D1CBAF10001AAF1010ADDDC05E0B3
:102DD00017F8010B5A46179990476D1CB8F100017E
:102DE000A8F10108F4DC5B462146179A0598ABE68A
:102DF0002D0000002B000000200000002DE9F04114
:102E0000044600251E461746880404D405E03946CA
:102E10002020B0476D1C641EF9D52846BDE8F0811E
:102E20002DE9F041044600251E469046C80301D511
:102E3000302700E02027880404D505E041463846C5
:102E4000B0476D1C641EF9D52846BDE8F0814A687C
:102E5000002A06D00A68531C0B6010704868401E98
:102E60004860704730560100F40100000000003F48
:102E700000000000010203042E2E2E00A02E0008E8
:102E800000000020100000007C250008B02E000883
:102E900010000020E80400008C250008000000005D
:102EA000000E2707000000000000000000000000E6
:0400000508000131BD
:00000001FF
