:020000040800F2
:10000000B804002045010008390700082907000846
:10001000350700084D060008E5090008000000004B
:100020000000000000000000000000003D07000884
:100030000D070008000000003B070008410700080A
:100040005F0100085F0100085F0100085F01000810
:100050005F0100085F0100085F0100085F01000800
:100060005F0100085F0100085F010008BD0600088D
:100070005F0100085F0100085F0100085F010008E0
:100080005F0100085F0100085F0100085F010008D0
:100090005F0100085F0100085F0100085F010008C0
:1000A0005F0100085F0100085F0100085F010008B0
:1000B000D50800085F0100085F0100085F01000823
:1000C0005F0100085F0100085F0100085F01000890
:1000D0005F0100085F0100085F0100085F01000880
:1000E0000F0700085F0100085F0100085F010008BA
:1000F0005F0100085F0100085F0100085F01000860
:100100005F0100085F0100085F0100085F0100084F
:100110005F0100085F0100085D0900089D090008F3
:100120005F0100085F0100085F0100085F0100082F
:10013000DFF80CD000F078FA004800476D1900088D
:10014000B80400200648804706480047FEE7FEE75F
:10015000FEE7FEE7FEE7FEE7FEE7FEE7FEE7FEE777
:10016000850800083101000840EA01039B0703D01D
:1001700009E008C9121F08C0042AFAD203E011F8E6
:10018000013B00F8013B521EF9D27047D2B201E0A8
:1001900000F8012B491EFBD270470022F6E710B58C
:1001A00013460A4604461946FFF7F0FF204610BDE5
:1001B0002DE9FE4F804681EA0300C00F0C460090F7
:1001C00021F0004123F00045B8EB0200A94105D21F
:1001D0004046214690461C460B46024623F000400E
:1001E000104347D0270DC7F30A00C3F30A5102900A
:1001F000401A019040286BDAC3F3130040F4801BCF
:100200000098924620B10023D2EB030A63EB0B0B5C
:1002100001985946C0F14002504600F077F9064671
:100220000D4650465946019A00F08FF910EB080030
:100230006141002487EA115284EAE7731A4340D0EF
:10024000009A62B3019A012A4FEA075215DC001B9B
:1002500061EB02014FF0004202EA0752CDE9004291
:10026000001C41F5801132462B4600F08FF903B097
:10027000BDE8F08F40462146F9E7001B61EB020123
:10028000001C41F5801300185B412018A2F50017EF
:1002900047EB030140EAD570B6196D4111E06D08D6
:1002A0004FEA360645EAC0754FEA0752001B61EB7C
:1002B0000201001C41F5801149084FEA3000001985
:1002C000514132462B4603B0BDE8F04F00F04FB924
:1002D0000098012240000023D0EB020263EBE073A0
:1002E000009821464FEAE074B8EB000061EB04018E
:1002F000E9E783F000435BE781F0004158E72DE92F
:10030000FE4F81EA030404F0004421F00041009410
:100310004FF0000B23F0004350EA01045ED052EA94
:1003200003045BD0C3F30A54C1F30A552C44A4F26E
:10033000F3340194A0FB0254C1F3130141F4801182
:10034000C3F3130343F4801301FB024400FB034E89
:10035000840A970A44EA815447EA8357A4FB076852
:1003600002958D0A05FB07854FEA932C04FB0C547C
:100370002705029D4FEA065847EA1637B5EB0805F0
:100380006EEB070C870E920E47EA811742EA831242
:10039000A7FB0201B6EB0B0164EB00042B0D43EA53
:1003A0000C335E1844EB1C50DA465146E7FB020161
:1003B000C5F313044FEA0B3343EA14534FEA0432F4
:1003C000019C43EA0603A4F10C040294009CCDE9CD
:1003D00000B400F0DBF803B0BDE8F08F0020014668
:1003E000F9E72DE9F04D81EA030404F0004B21F018
:1003F000004514464FF0000A23F0004150EA050280
:1004000020D054EA01021DD0C5F30A570246C5F3B5
:100410001303C1F31300C1F30A5640F4801543F4EB
:100420008013A7EB0608101BD64608F2FD3873EBC5
:10043000050002D308F1010801E092185B41B8F110
:10044000000F03DA00200146BDE8F08D00204FF4D4
:100450008011064684460EE0171B73EB050705D393
:10046000121B63EB050306434CEA010C49084FEAF3
:10047000300092185B4150EA0107EDD152EA0300C7
:1004800012D082EA040083EA0501084305D0101B5C
:10049000AB4106D20122002306E000224FF00043C8
:1004A00002E06FF0010253101AEB06004CEB08510A
:1004B00010EB0A0041EB0B01BDE8F04D00F057B81E
:1004C0000EB540F2334102910021CDE900110A46F8
:1004D0000B4600F05BF803B000BDC1F30A5210B543
:1004E000C1F3130140F2FF3341F480119A4201DA63
:1004F000002010BD40F233439A42A2F2334203DCA3
:10050000524200F012F810BD904010BD202A04DBCA
:10051000203A00FA02F1002070479140C2F1200316
:1005200020FA03F3194390407047202A04DB203A55
:1005300021FA02F00021704721FA02F3D040C2F103
:1005400020029140084319467047202A06DBCB174A
:10055000203A41FA02F043EAE07306E041FA02F37E
:10056000D040C2F12002914008431946704710B5AF
:10057000141E73F1000408DA401C41F100019218C6
:100580005B411A4301D120F0010010BD2DE9F04D6F
:1005900092469B4611B1B1FA81F202E0B0FA80F2C4
:1005A00020329046FFF7B2FF04460F4640EA0A00A9
:1005B00041EA0B0153465A46084313D0114653EA09
:1005C000010019D0C8F140025046FFF7AEFF0546C2
:1005D0000E46504659464246FFF798FF084305D05D
:1005E000012004E020463946BDE8F08D0020054397
:1005F00046EAE0762C4337430A986305E40AA0EB09
:1006000008000022FD0A44EA47540A3002D50020BF
:100610000146E9E7010510196941DDE908450019BE
:100620006941BDE8F04DA2E7064C074D06E0E068E1
:1006300040F0010394E8070098471034AC42F6D329
:10064000FFF77AFDCC280008EC28000800BFFEE781
:1006500010B501F02BFC102001F064FC102001F01B
:1006600071FC0446012C27D1022000F09FFF0020DE
:1006700001F04CFB002001F061FBA00201F052FBF5
:10068000002001F027FD002001F030FD4FF4501153
:10069000200401F00FFD182001F044FC00BF1920D8
:1006A00001F02EFC0028FAD0022001F02FFD00BF3F
:1006B00001F038FD0028FBD010BD000010B5042269
:1006C0000021104800F07BFE38B1042200210D48C3
:1006D00000F06DFE0C4800F007FB022200210948E3
:1006E00000F06DFE40B102220021064800F05FFEDE
:1006F00005480C3000F0F8FA01220021014800F012
:1007000056FE10BD0000024078000020704710B572
:100710004FF4006000F038FF28B101F0BBFA4FF44D
:10072000006000F02BFF10BD00BFFEE710B5FFF723
:100730008FFF10BD00BFFEE7704770477047000095
:1007400010B52DED028B1A480068401C184908604E
:1007500000F01CFA17490888DFED170A9FED170A09
:1007600001EE900AF8EE611A9FED152A61EE821AE9
:100770009FED142AC1EE822AB0EE621A70EE801A42
:1007800021EE812AC2EE001AB0EE618A0E4880ED99
:10079000018A01F08BF80C4991ED070ABCEEC00A02
:1007A00010EE100A01F05CF8BDEC028B10BD0000E9
:1007B000000000209C0000200024744900E09245C5
:1007C0003333534000F07F4554000020F0B5284EED
:1007D0007668C6F3810525B1012D06D0022D40D1E2
:1007E00007E0244E244F3E603FE0224E224F3E6001
:1007F0003BE01F4E766806F48032B2F5803F10D1A0
:100800001B4EF66A06F080430BB91A4900E01B49FB
:10081000174E766806F40034B4F5003F02D118494B
:1008200000E01749124E7668C6F38340104E766892
:1008300006F000660EB140F010000D4E766806F02E
:1008400080460EB140F020000F2801D3401C00E08C
:10085000801C3D2800D93F2001FB00F6064F3E607A
:1008600003E0044E044F3E6000BF00BFF0BD000037
:100870000010024000127A002C000020006CDC0204
:1008800000093D0010B51048006840F470000E49A2
:1008900008600E48006840F001000C490860002024
:1008A0004860C8620846006809490840074908606E
:1008B0004FF41F0088600846006820F4802008601C
:1008C00001F0C0FC10BD000088ED00E00010024007
:1008D000FFFFF6FE10B51021880601F0B4FF0128D5
:1008E00014D10321800701F009FD04461548006872
:1008F000201A80B21449086012480460012013498C
:1009000008701021800701F09AFF00BF042108073A
:1009100001F099FF012814D10121800701F0EEFCBC
:1009200004460B480068201A80B20A49086008484B
:1009300004600120084908700421800701F07FFF4E
:1009400000BF10BD10000020180000202000002073
:10095000140000201C0000202100002010B50121FF
:100960000B4801F070FF012803D10121084801F074
:1009700066FF08480088401C064908800846008831
:10098000142804DB0020088001200349087010BDF2
:1009900000100040060000200400002010B50121D6
:1009A0000D4801F050FF012803D101210A4801F050
:1009B00046FF0A480088401C00B2084908800846E3
:1009C000B0F90000B0F57A7F04DB00200880012038
:1009D0000349087010BD000000140040080000200A
:1009E0000500002000BFFEE702E008C8121F08C192
:1009F000002AFAD170477047002001E001C1121FA0
:100A0000002AFBD17047816841F00801816000BF76
:100A1000816801F008010029FAD1816841F00401E0
:100A2000816000BF816801F004010029FAD170479C
:100A300030B5012902D002291AD10CE0C36A23F48F
:100A40007003C362C36A541E4FF4700505EA045470
:100A50002343C3620DE0836B23F440138363836BF2
:100A6000541E4FF4401505EA04542343836300E009
:100A700000BF00BF30BD21B1826842F400628260D5
:100A800003E0826822F400628260704710B5044679
:100A90001348204430B1B0F5806F0CD0B0F5C05F82
:100AA0001BD111E040F2093001F0F4FA40F20930B4
:100AB00001F0E0FA12E040F20A3001F0EBFA40F205
:100AC0000A3001F0D7FA09E040F20F3001F0E2FA03
:100AD00040F20F3001F0CEFA00E000BF00BF10BDC1
:100AE00000DCFEBF816841F48071816070478168DD
:100AF00001F0010119B9816841F00101816070477D
:100B000072B101F001031BB1836843F48013836069
:100B100001F0020393B1836843F4004383600DE066
:100B200001F001031BB1836823F48013836001F09B
:100B300002031BB1836823F40043836070470129DB
:100B400002D0022910D107E0836823F46023836078
:100B500083681343836008E0836823F4E043836081
:100B600083681343836000E000BF00BF704700004C
:100B70000549096821F47021034A1160114609688A
:100B80000143116070470000042401400EB500BF0E
:100B9000EFF31081084672B617490988ADF80010C6
:100BA00015494988ADF8021013498988ADF8041039
:100BB0001149C988ADF806100F490989ADF8081028
:100BC0000D494989ADF80A10BDF800100B4A118093
:100BD000BDF802105180BDF804109180BDF80610D8
:100BE000D180BDF808101181BDF80A10518101466D
:100BF00081F3108800BF0EBD900000209C000020F3
:100C000010B5044600F004F900F06AFA0022012150
:100C10000B2000F0EBFE40F2096001F01BFA02200D
:100C200001F03EF82A48FFF731FF0020FFF7A0FF50
:100C300001221102264800F0BDF8002202212448BA
:100C400000F0B8F800212248FFF715FF0622012125
:100C50001F48FFF7EDFE05231A4600211C4800F04F
:100C600053F8052306220121194800F04DF8052309
:100C700007220221164800F047F805230E2203211F
:100C8000134800F041F805230F220421104800F01A
:100C90003BF80523092219460D4800F035F8224695
:100CA00001210B48FFF74BFF012211460848FFF7CF
:100CB00027FF0748FFF71BFF0548FFF7A4FE04487E
:100CC000FFF710FF0021034800F054FA10BD0000A8
:100CD000002401400000024010B50221014801F04B
:100CE000B7FC10BD002C01400188064A11804188E4
:100CF000518081889180C188D18001891181418989
:100D00005181704790000020F0B51D4606290CD295
:100D1000436B01EB81071F26BE40B34301EB810605
:100D200002FA06F63343436322E00C290ED2036B2A
:100D30008E1F06EB86071F26BE40B3438E1F06EBB1
:100D4000860602FA06F63343036311E010290FD238
:100D5000C36AA1F10C0606EB86071F26BE40B3430B
:100D6000A1F10C0606EB860602FA06F63343C362CF
:100D70000A2A0CD2046902EB42070726BE40B4439C
:100D800002EB420605FA06F63443046111E0122A2A
:100D90000FD2C468A2F10A0606EB46070726BE403A
:100DA000B443A2F10A0606EB460605FA06F63443FA
:100DB000C460F0BDAAB101F480731BB1436843F471
:100DC0008073436001F480631BB1436843F4806324
:100DD000436001F00203CBB1836843F002038360F8
:100DE00014E001F480731BB1436823F48073436003
:100DF00001F480631BB1436823F48063436001F016
:100E000002031BB1836823F0020383607047000074
:100E100010B540F2026001F01DF940F2036001F0EC
:100E200019F940F2046001F015F9E02303220021D2
:100E3000074800F013FC022303220021054800F0BC
:100E40000DFC302303220021034800F007FC10BDF5
:100E500000080140000C0140001001402DE9F0475E
:100E60002DED0A8B81460F463846FFF729FB41ECF2
:100E7000190B53EC192B9FED500B51EC100BFFF796
:100E8000B0FA41EC180B4846FFF71AFB41EC1B0B7C
:100E900053EC182BFFF7A5FA41EC1A0B9FED480B0A
:100EA00053EC102BFFF784F941EC190BFFF715FBFE
:100EB0008046B8F17F0F05D808F0FF00BDEC0A8B23
:100EC000BDE8F08753EC182B9FED3F0B51EC100B56
:100ED000FFF715FA41EC1B0B4846FFF7F1FA41EC1E
:100EE0001C0B53EC1B2BFFF77CFA41EC1A0B9FED0C
:100EF000340B53EC102BFFF75BF941EC190BFFF7A8
:100F0000ECFA0446402C05D37F2C03D804F14000B2
:100F1000C0B2D3E753EC182B9FED2D0B51EC100B07
:100F2000FFF7EDF941EC1B0B4846FFF7C9FA41EC1E
:100F30001C0B53EC1B2BFFF754FA41EC1A0B9FEDE3
:100F4000200B53EC102BFFF733F941EC190BFFF793
:100F5000C4FA0546202D05D33F2D03D805F1A00086
:100F6000C0B2ABE753EC182B9FED1B0B51EC100BF1
:100F7000FFF7C5F941EC1B0B4846FFF7A1FA41EC1E
:100F80001C0B53EC1B2BFFF72CFA41EC1A0B9FEDBB
:100F90000C0B53EC102BFFF70BF941EC190BFFF77F
:100FA0009CFA06463046202E04D33F2E02D8C0308D
:100FB000C0B283E700BF81E70000000065CDCD41EE
:100FC000000000000000E03F0000000000000040C2
:100FD0000000000000002040000000000000304041
:100FE00000B587B040F2026001F034F80823032214
:100FF0000421284800F032FB022303220421254863
:1010000000F02CFB4FF4E06001F024F803A801F09D
:101010003AFC0020ADF80C00ADF80E00ADF8100061
:101020004FF6FF7005900020ADF818008DF81A00FB
:1010300003A94FF0804001F00FFB0020ADF8040041
:101040000120ADF806000020ADF80800ADF80A0058
:1010500001AA03214FF0804001F04AFB01AA0121BF
:10106000880701F045FB1521880701F0E8FB002205
:1010700002211C2000F0BAFC1021880601F0DBFBE5
:101080000421080701F0D7FB4FF0804001F0DBFAA4
:1010900007B000BD0008014001460648007838B19D
:1010A0000020044A1070044800680860012070475E
:1010B0000020FCE720000020180000200146064820
:1010C000007838B10020044A1070044800680860B5
:1010D000012070470020FCE7210000201C000020B8
:1010E00000B58DB04FF4A06000F0B4FF1C2106A83D
:1010F000FFF753F800211C4800F06EF81B480690DB
:1011000000208DF830001A48089001208DF8310039
:1011100000020790800009900C200A904FF40050C4
:101120000B9000208DF83200142208A96846FFF7C2
:101130001BF800210C48DDE9062300F085F80021AA
:10114000094800F030F802220021074800F016F9A3
:1011500004220021044800F011F901220021024874
:1011600000F025F90DB000BD000002404C24014004
:101170007800002070B505460C462146284600F050
:101180005FF908B900BFFEE704EB8400810005F1B8
:101190000800405840F0010104EB8400820005F192
:1011A0000800815070BD70B505460C4621462846A2
:1011B00000F046F908B900BFFEE704EB84008100A7
:1011C00005F10800405840F0200104EB8400820043
:1011D00005F10800815070BD70B504460D462946E2
:1011E000204600F02DF908B900BFFEE705EB8500A9
:1011F000810004F10800405820F0010105EB850052
:10120000820004F108008150002105EB8500820076
:1012100004F10800815005EB8500820004F10C0008
:10122000815005EB8500820004F11000815005EB30
:101230008500820004F1140081506068AA000F212B
:1012400091400843606070BD0FB470B504460D4610
:101250002946204600F0F4F808B900BFFEE705EB88
:101260008500820004F110000699815005EB85008D
:10127000820004F11400089981500A9881B205EBAC
:101280008500820004F10C00815005EB850081008F
:1012900004F10800465826F47C560999079808433B
:1012A0000B990843064305EB8500810004F1080013
:1012B00046509DF8300001280ED105EB85008100D5
:1012C00004F10800405840F0400105EB8500820021
:1012D00004F1080081500DE005EB8500810004F168
:1012E0000800405820F0400105EB8500820004F121
:1012F000080081509DF8310001280ED105EB8500D2
:10130000810004F10800405840F0800105EB8500A1
:10131000820004F1080081500DE005EB850081009A
:1013200004F10800405820F0800105EB85008200A0
:1013300004F1080081509DF8320070B905EB85007A
:10134000810004F10800405820F0100105EB8500F1
:10135000820004F1080081500DE005EB850081005A
:1013600004F10800405840F0100105EB85008200B0
:1013700004F10800815070BC5DF814FB70B50446A0
:101380000D4616462946204600F05AF808B900BF17
:10139000FEE705EB8500810004F10800405830436A
:1013A00005EB85018A0004F10801885070BD10B575
:1013B00043688C0002FA04F42343436010BD70B507
:1013C000034600BF00BF022A04D0042A11D0082A15
:1013D0002DD11DE018688E0002FA06F600EA060517
:1013E00001EB8100860003F10800805900F002043F
:1013F0001FE018688E0002FA06F600EA060501EB07
:101400008100860003F10800805900F0040410E018
:1014100018688E0002FA06F600EA060501EB810064
:10142000860003F10800805900F0080401E000BFC5
:10143000FEE700BF15B10CB1012070BD0020FCE734
:1014400002460120034B9A4202D1042900DD00200C
:101450007047000000040240F0EE400A9FED121AAF
:10146000DFED121AF4EEC10AF1EE10FA02D2B0EE7C
:10147000412A09E0F4EEE10AF1EE10FA02DDB0EEE5
:10148000612A01E0B0EE602AB0EE420A0848D0EDD1
:10149000000AF8EE600A60EE200AFCEEE00A10EEA8
:1014A000900A80B27047000000000000A4707D3FE9
:1014B0000C00002010B52C4B1B6883432A4C236082
:1014C000231D1B688343241D2360231D1B68834346
:1014D000241D2360231D1B688343241D236011B139
:1014E00001290ED105E0204B1B6803431E4C2360ED
:1014F00008E01D4B1B1D1B6803431B4C241D236070
:1015000000E000BF00BF22B1012A0FD0022A27D17C
:1015100019E0154B08331B680343134C0834236050
:10152000231D1B688343241D23601AE00E4B0833E0
:101530001B6883430C4C08342360231D1B68034342
:10154000241D23600DE0084B08331B680343064C41
:1015500008342360231D1B680343241D236000E01F
:1015600000BF00BF10BD000000040140024909682F
:101570000143014A116070470004014001490860BD
:10158000704700001404014001460748006800EA63
:10159000010205481438006800EA010312B10BB1DA
:1015A000012070470020FCE714040140044A116840
:1015B00021F0070141EA0002014B1A607047000068
:1015C0000020024010B500228B071C0F0F2303FAE6
:1015D00004F204290EDA204B9B6893431E4CA3604F
:1015E00023469B688C07240F00FA04F423431A4C0B
:1015F000A3602FE008290EDA174BDB689343164CE3
:10160000E3602346DB688C07240F00FA04F42343CD
:10161000114CE3601EE00C290EDA0F4B1B6993435B
:101620000D4C236123461B698C07240F00FA04F438
:101630002343094C23610DE0074B5B699343064C40
:10164000636123465B698C07240F00FA04F423438B
:10165000014C636110BD000000000140F0B50C4674
:1016600016460025002204F00F0504F0100747B1CC
:10167000042E05D145F00305C76B1F43C76300E087
:101680003543002118E001278F401F4097B10268C1
:101690004FEA810C0F2707FA0CF7BA438F0005FABF
:1016A00007F73A43282C01D1436102E0482C00D1CE
:1016B000036102604F1CB9B20829E4D308211CE081
:1016C00001278F401F40B7B14268A1F108074FEAD8
:1016D000870C0F2707FA0CF7BA43A1F10807BF00E0
:1016E00005FA07F73A43282C01D1436102E0482C60
:1016F00000D1036142604F1CB9B21029E0D3F0BDA4
:1017000030B58DB00446424894E80E000EC000F09B
:101710005BFA40F20B6000F09DFC09A801F0B3F801
:1017200000F0C8FD05463A4800684000B5FBF0F0FF
:10173000401E384908600020ADF824006020ADF854
:1017400026000020ADF82800084600680B90002015
:10175000ADF830008DF8320009A92F4800F07CFF69
:10176000012005900420ADF818000020ADF81A0003
:10177000ADF81C00ADF81E00ADF8200005AA002150
:10178000254800F0FDFD60220021234800F0EEFE18
:1017900000221146204800F016FF082200211E48B2
:1017A00000F024FF4FF40060ADF8000040100190FD
:1017B0000020ADF80E00164948682946FFF74EFB99
:1017C000ADF808004FF48050ADF810000020ADF8DF
:1017D0000A004FF48040ADF80C0069460E4800F056
:1017E0007EFD30210C4801F03AF80B4800F072FD04
:1017F0000121094801F03BF8074800F024FF0448A4
:10180000D0ED020AB0EE600A00F016F80DB030BD5F
:10181000A80000200C000020002C014010B5044658
:101820000CB1012000E000200146024801F01FF841
:1018300010BD0000002C014010B52DED028BB0EE64
:10184000408AB0EE480AFFF707FE04462246002110
:10185000024800F0B8FEBDEC028B10BD002C014028
:1018600070B5044604B970BD0D48046000F022FD57
:1018700005466000B5FBF0F0401E0A4908600846C6
:101880000068094908600648D0ED020AB0EE600A17
:10189000FFF7E2FD04490831086000BFE3E70000FC
:1018A000A80000200C0000202C2C014090ED001A14
:1018B00090ED012A31EE421AF0EE411A90ED041A31
:1018C00090ED032A02EE211A80ED041A90ED041A1D
:1018D00090ED022A02EE211A90ED052A31EE021A4D
:1018E000B0EE410A90ED051AB4EEC01AF1EE10FA0E
:1018F00003DD90ED051AB0EE410A90ED061AB4EE44
:10190000C01AF1EE10FA03D290ED061AB0EE410AB9
:1019100090ED071A70EE410AB0EE601AB5EEC01AEB
:10192000F1EE10FA02D2B1EE412A01E0B0EE412A06
:1019300090ED081AB4EEC12AF1EE10FA12DD90ED26
:10194000072AF5EEC00AF1EE10FA02DD90ED081A52
:1019500003E090ED081AB1EE411A32EE011A80ED63
:10196000071A01E080ED070A704700008EB0FEF70D
:10197000DDFE00F06BFC1B4A07CA02AB07C302A8DE
:10198000FFF7BEFE44F6206000F082F8B6EE000AD3
:1019900000F0E0F80020FFF733F9FFF79DF9FFF7BB
:1019A0001FFB00F035F924220E490C3105A8FEF783
:1019B000DBFB242205A90C48FEF7D6FB11E001A8A9
:1019C000FFF76AFB00B100BF6846FFF777FB00B185
:1019D00000BF00F055F910B10020FFF71FFF00BF56
:1019E00000BFECE79C28000854000020F0B50B462F
:1019F000002100240025244E366806F4E066B6F582
:101A0000E06F02D100BF042526E01F4E366806F4C1
:101A1000E066B6F5C06F02D1012403251CE01A4E22
:101A2000366806F4E066B6F5A06F02D102240225FE
:101A300012E0154E366806F4E066B6F5806F02D106
:101A40000324012508E0104E366806F4E066B6F57A
:101A5000407F01D104240025C4F1040603FA06F1F5
:101A6000C5F104070F26FE40164031430901074E19
:101A7000315400F01F070126BE404711BF0007F197
:101A8000E027C7F80061F0BD0CED00E000E400E0E5
:101A900070B588B0054640F2036000F0DBFA012320
:101AA000032218212748FFF7D9FD40F2017000F00A
:101AB000D1FA04A800F0E7FE00BF00BF022000F04A
:101AC00049F906462048406800F4E06008B170001B
:101AD00000E0304600BF0446B4FBF5F0401E1B4951
:101AE00008600020ADF81000ADF81200ADF8140049
:101AF0000846006806900020ADF81C008DF81E0016
:101B000004A9134800F0A8FD012000900020ADF8C2
:101B10000600ADF80A006A4602210D4800F030FCCC
:101B2000602202210A4800F021FD0022022108481B
:101B300000F049FD064800F0CDFB054800F083FDAC
:101B400008B070BD000C01400010024024000020CD
:101B50000004004010B52DED028BB0EE408AB0EECF
:101B6000480ADFED150A9FED151AB4EEE00AF1EE12
:101B700010FA02D2F0EE601A09E0B4EEC10AF1EEFA
:101B800010FA02DDF0EE411A01E0F0EE401AB0EE7C
:101B9000618A0B4890ED000AB8EE400A28EE000A70
:101BA000BCEEC00A10EE100A82B20221054800F015
:101BB0000AFDBDEC028B10BD00000000A4707D3F4B
:101BC000240000200004004010B540F2026000F044
:101BD00041FA40F2036000F03DFA4FF480730322B3
:101BE00018210948FFF73AFD4FF40053032218214A
:101BF0000648FFF733FD4FF4805303224821034882
:101C0000FFF72CFD10BD000000080140000C014052
:101C100010B540F2046000F01DFA4FF40063032297
:101C200048211548FFF71AFD4FF4C06000F012FA82
:101C30000B210220FFF7C6FC01220021D002FFF792
:101C400039FC4FF40060FFF799FC002201212820A5
:101C5000FFF7CCFE4FF40060FFF788FC80210748B7
:101C600000F0EDFD8021054800F0E5FD0022012196
:101C70001820FFF7BBFE10BD00100140002C0140F2
:101C80000348007808B1012070470020FCE70000FD
:101C9000280000200120014908707047280000201A
:101CA000184B5968184B1940164BDA6A22F000524B
:101CB0000C2820D2DFE800F0060708091F0C1F0DD2
:101CC0001516171800BF00BF00BF41EA803113E0AE
:101CD00000BF20F004004FF0805343EA80331943E3
:101CE0000AE000BF00BF00BF20F00C0041EA8031D5
:101CF00042F0005200E000BF00BF024B5960DA62C0
:101D00007047000000100240FF3FFFEF044A516897
:101D100021F0F00141EA0002014B5A6070470000D7
:101D200000100240044A516821F4E06141EA0002D7
:101D3000014B5A607047000000100240044A51688D
:101D400021F4605141EA0002014B5A6070470000E3
:101D5000001002402DE9F04F8CB0074600200A9099
:101D60004AA090E8004CC068CDE905BECDF810A0AF
:101D700007900FF21C1ADAE9000ACDE9020A0FF205
:101D8000101ADAE9000ACDE9000A44484068C0F3B5
:101D900081000B900B9820B1012804D002283FD17C
:101DA00003E03F4A3EE03E4A3CE03C48406800F4E5
:101DB000803CBCF5803F12D13848C06A00F08048B2
:101DC000B8F1000F01D1364C00E0364C3348406882
:101DD00000F40039B9F5003F02D1334C00E0324C39
:101DE0002E484068C0F383412C48406800F00060F2
:101DF00008B141F010012948406800F0804008B166
:101E000041F020010F2901D2891C06E00F2903D3DC
:101E10003E2901D8491C00E03F2104FB01F201E00A
:101E20001F4A00BF00BF1D484068C0F3031504A847
:101E3000465D22FA06F319484068C0F3022502A85D
:101E4000465D23FA06F0099014484068C0F3C225A5
:101E50001DF8056023FA06F0089037B1012F06D06F
:101E6000022F06D0032F0AD106E00A9208E00A9357
:101E700006E009980A9003E008980A9000E000BF85
:101E800000BF0A980CB0BDE8F08F00000000000011
:101E900000000000010203040607080900100240C8
:101EA00000127A00006CDC0200093D0000B5114808
:101EB000006840F001000F490860002000F042F87F
:101EC0000C4840680C4908400A49486008460068C8
:101ED0000A490840074908600846006820F4802045
:101EE00008604FF41F0088600846C06A20F0C040B8
:101EF000C86200BD001002400C000020FFFFF6FE8B
:101F00000146074A02EB9110006801F01F0301220D
:101F10009A40104008B1012070470020FCE7000003
:101F200000100240064A02EB9011096800F01F03FE
:101F300001229A401143024B03EB9012116070474B
:101F400000100240F0B50646002400270025B6F533
:101F5000006F1FD005DC86B3102E0BD0182E72D167
:101F600060E0B6F5106F4BD0A6F540501038002851
:101F700069D133E004E01120FFF7C2FF0546641C7D
:101F800015B9B4F5006FF6D11120FFF7B9FF00B114
:101F9000012759E005E040F60100FFF7B1FF0546D3
:101FA000641C1DB96FF07C408442F4D140F60100FE
:101FB000FFF7A6FF00B1012746E0FFE704E001209C
:101FC000FFF79EFF0546641C15B9B4F5A06FF6D166
:101FD0000120FFF795FF00B1012735E005E043F24E
:101FE0001100FFF78DFF0546641C15B9184884429F
:101FF000F5D143F21100FFF783FF00B1012723E081
:1020000005E040F60110FFF77BFF0546641C15B99B
:102010000F488442F5D140F60110FFF771FF00B17F
:10202000012711E004E01920FFF76AFF0546641C50
:1020300015B907488442F6D11920FFF761FF00B1B6
:10204000012701E0FFE700BF00BF3846F0BD0000F8
:10205000FFFF0F00064A02EB9011096800F01F0312
:1020600001229A401143024B03EB9012116070471A
:1020700000100240064A02EB9011096800F01F03AD
:1020800001229A409143024B03EB9012116070477A
:1020900000100240064A02EB9011096800F01F038D
:1020A00001229A401143024B03EB901211607047DA
:1020B0000010024002460020044B5868044B1840B0
:1020C00042EA01031843014B586070470010024078
:1020D000FFFFC2B701460020034AD06A20F08040CB
:1020E0000843D06270470000001002400146002003
:1020F000054A506820F40030012901D140F4003035
:10210000014A50607047000000100240044A5168C4
:1021100021F0030141EA0002014B5A6070470000C0
:10212000001002400248406800F00C0070470000B8
:1021300000100240002000213E4A126842F4803222
:102140003C4B1A6000BF401C3A4A126802F400314E
:1021500011B9B0F5006FF6D1364A126802F40032B8
:102160000AB900BFFEE7334AD26942F08052314BD0
:10217000DA61314A126842F440422F4B1A602D4A0C
:1021800052682C4B5A601A4652685A601A46526876
:1021900042F480625A601A46526822F440325A6011
:1021A0001A46526842F440325A601A465268234B2B
:1021B0001A40204B5A601A465268214B1A431D4B55
:1021C0005A601A46126842F080721A6000BF194ABB
:1021D000126802F00072002AF9D0174A126842F41D
:1021E0008032154B1A6000BF134A526802F48032E5
:1021F000002AF9D0104A126842F400320E4B1A60DD
:1022000000BF0D4A526802F40032002AF9D0094A90
:10221000526822F00302074B5A601A46526842F095
:1022200002025A6000BF034A526802F00802002A04
:10223000F9D070470010024000700040FFFFC3B7A4
:102240000000340810B5FFF775FF10BD70B5FEF73C
:10225000BDFA154800684FF47A71B0FBF1F4641EC2
:10226000B4F1807F01D36FF07F4400204FF0E02174
:1022700008610846446100208861401E0F21002843
:1022800004DB0A07130E094A135406E00A07150E69
:10229000074A00F00F031B1FD55400BF07204FF063
:1022A000E021086170BD00002C00002000E400E087
:1022B00018ED00E010B50320FFF74CFD044604487C
:1022C000406800F4605008B1600010BD2046FCE793
:1022D00000100240016841F08001016070470A88E7
:1022E0004B681A430B891A434B891A438B891A434B
:1022F000CB891A430B8A1A43426470470246002076
:1023000031B1012906D0022906D0032908D105E000
:10231000506B06E0906B04E0D06B02E0106C00E0C4
:1023200000BF00BF704731B101290CD0022913D082
:10233000032922D118E0836923F00C0383618369A8
:10234000134383611AE0836923F4406383618369E3
:1023500043EA0223836111E0C36923F00C03C361E4
:10236000C3691343C36109E0C36923F44063C361D4
:10237000C36943EA0223C36100E000BF00BF7047A6
:1023800010B531B101293FD002297DD003297CD17C
:10239000BFE0036A23F001030362036A1468234366
:1023A0000362036A23F002030362036AD4882343AF
:1023B00003626C4B984202D06B4B98421FD1036A68
:1023C00023F004030362036A948823430362036ACD
:1023D00023F008030362036A1489234303624368FA
:1023E00023F4807343604368548923434360436804
:1023F00023F40073436043689489234343608369F3
:1024000023F003038361ABE0036A23F0100303624C
:10241000036A146843EA04130362036A23F0200387
:102420000362036AD48843EA041303624D4B984263
:1024300002D04D4B984223D1036A23F0400303623C
:10244000036A948843EA04130362036A23F0800357
:102450000362036A148943EA04130362436823F4A2
:10246000806343604368548943EA8403436043685C
:1024700023F4006343604368948943EA8403436020
:10248000836923F4407301E002E068E0836167E060
:10249000036A23F480730362036A146843EA042323
:1024A0000362036A23F400730362036AD48843EA75
:1024B000042303622B4B984202D02B4B984223D12A
:1024C000036A23F480630362036A948843EA042363
:1024D0000362036A23F400630362036A148943EA14
:1024E00004230362436823F48053436043685489A0
:1024F00043EA04134360436823F400534360436892
:10250000948943EA04134360C36923F00303C3615E
:1025100026E0036A23F480530362036A146843EAE3
:1025200004330362036A23F400530362036AD4880A
:1025300043EA043303620B4B984202D00A4B9842A1
:1025400008D1436823F4804343604368548943EAD5
:1025500084134360C36923F44073C36100E000BF88
:1025600000BF10BD002C01400034014031B10129F1
:102570000CD0022913D0032922D118E0836923F05B
:10258000700383618369134383611AE0836923F4D1
:10259000E0438361836943EA0223836111E0C369F5
:1025A00023F07003C361C3691343C36109E0C369C6
:1025B00023F4E043C361C36943EA0223C36100E03B
:1025C00000BF00BF704731B1012906D0022906D0F3
:1025D000032908D105E0426306E0826304E0C26398
:1025E00002E0026400E000BF00BF704731B1012982
:1025F0000CD0022913D0032922D118E0836923F0DB
:10260000080383618369134383611AE0836923F4B8
:1026100000638361836943EA0223836111E0C36934
:1026200023F00803C361C3691343C36109E0C369AD
:1026300023F40063C361C36943EA0223C36100E07A
:1026400000BF00BF7047016841F0010101607047A1
:1026500042690A43426170470A8882621D4A904279
:102660000ED0B0F1804F0BD01B4A904208D01B4ACD
:10267000904205D01A4A904202D01A4A90420BD199
:10268000026822F07002026002684B881A430260FE
:1026900002688B881A4302608A68C262124A9042BA
:1026A0000AD0124A904207D0026822F440720260B7
:1026B00002688B891A430260064A904202D0094A96
:1026C000904201D18A7B0263426942F00102426179
:1026D00070470000002C014000040040000800404A
:1026E000000C004000340140001000400014004085
:1026F00070B504460E46154636B1012E26D0022E80
:1027000048D0032E7DD168E0206A20F001002062CD
:10271000206A20F00A002062206A2988084320628B
:10272000A06920F00300A061A06969880843A06146
:10273000A06920F0F000A061A069E98840EA0110DA
:10274000A061206A40F0010020626DE0206A20F064
:1027500010002062206A20F0A0002062206A2988F0
:1027600040EA01102062A06920F44070A061A069D5
:10277000698840EA0120A061A06920F47040A0614E
:10278000A069E98840EA0130A061206A40F01000A9
:10279000206249E0206A20F480702062206A20F4E0
:1027A00020602062206A298840EA01202062E069D6
:1027B00020F00300E061E06969880843E061E069B6
:1027C00020F0F000E061E069E98840EA0110E06192
:1027D000206A40F48070206226E0206A20F4805055
:1027E0002062206A20F400502062206A298840EA92
:1027F00001302062E06920F44070E061E06969889E
:1028000000E010E040EA0120E061E06920F470405F
:10281000E061E069E98840EA0130E061206A40F463
:102820008050206200E000BF00BFAA8831462046E9
:10283000FFF779FD70BDC2680A43C2607047026944
:102840008A43026170470246D06800EA01031069BA
:10285000084010B10BB1012070470020FCE742682E
:1028600022F07002426042680A43426070470129C8
:1028700004D1426C42F40042426403E0426C22F410
:1028800000424264704700210180418081804FF600
:10289000FF7181600021818181737047A0860100F2
:1028A000F40100000000003F0000C84300000000E9
:1028B0000AD7233C6F12033A0000000000606A4709
:1028C000007C12480050C34700007A44EC280008FE
:1028D0000000002030000000E80900081C29000862
:1028E0003000002088040000F80900080000000003
:1028F00000000000000000000000000000000000D8
:1029000000000000000000000000000000000000C7
:0C2910000000000000000000000E27077F
:0400000508000131BD
:00000001FF
