:020000040800F2
:10000000D804002045010008EB0600087D06000822
:10001000E906000805060008F90A000800000000CB
:10002000000000000000000000000000EF060008D3
:100030005D06000800000000ED060008F10600085B
:100040005F0100085F0100085F0100085F01000810
:100050005F0100085F0100085F0100085F01000800
:100060005F0100085F0100085F0100080906000841
:100070005F0100085F0100085F0100085F010008E0
:100080005F0100085F0100085F0100085F010008D0
:100090005F0100085F0100085F0100085F010008C0
:1000A0002D0900085F0100085F0100085F010008DA
:1000B000510900085F0100085F0100085F010008A6
:1000C0005F0100085F0100085F0100085F01000890
:1000D0005F0100085F0100085F0100085F01000880
:1000E0005F0600085F0100085F0100085F0100086B
:1000F0005F0100085F0100085F0100085F01000860
:100100005F0100085F0100085F0100085F0100084F
:100110005F0100085F010008850A0008BD0A0008A9
:100120005F0100085F0100085F0100085F0100082F
:10013000DFF80CD000F054FA004800478D18000892
:10014000D80400200648804706480047FEE7FEE73F
:10015000FEE7FEE7FEE7FEE7FEE7FEE7FEE7FEE777
:1001600029080008310100082DE9FE4F804681EA88
:100170000300C00F0C46009021F0004123F0004521
:10018000B8EB0200A94105D24046214690461C46E4
:100190000B46024623F00040104347D0270DC7F31B
:1001A0000A00C3F30A510290401A019040286BDA0A
:1001B000C3F3130040F4801B0098924620B1002343
:1001C000D2EB030A63EB0B0B01985946C0F14002D6
:1001D000504600F077F906460D4650465946019ABA
:1001E00000F08FF910EB08006141002487EA1152FA
:1001F00084EAE7731A4340D0009A62B3019A012A55
:100200004FEA075215DC001B61EB02014FF0004280
:1002100002EA0752CDE90042001C41F58011324646
:100220002B4600F08FF903B0BDE8F08F4046214621
:10023000F9E7001B61EB0201001C41F58013001877
:100240005B412018A2F5001747EB030140EAD57087
:10025000B6196D4111E06D084FEA360645EAC075E2
:100260004FEA0752001B61EB0201001C41F58011AF
:1002700049084FEA30000019514132462B4603B07D
:10028000BDE8F04F00F04FB9009801224000002374
:10029000D0EB020263EBE073009821464FEAE07472
:1002A000B8EB000061EB0401E9E783F000435BE792
:1002B00081F0004158E72DE9FE4F81EA030404F084
:1002C000004421F0004100944FF0000B23F0004364
:1002D00050EA01045ED052EA03045BD0C3F30A542F
:1002E000C1F30A552C44A4F2F3340194A0FB025448
:1002F000C1F3130141F48011C3F3130343F48013DA
:1003000001FB024400FB034E840A970A44EA81542D
:1003100047EA8357A4FB076802958D0A05FB07850A
:100320004FEA932C04FB0C542705029D4FEA065814
:1003300047EA1637B5EB08056EEB070C870E920EF1
:1003400047EA811742EA8312A7FB0201B6EB0B01D1
:1003500064EB00042B0D43EA0C335E1844EB1C5095
:10036000DA465146E7FB0201C5F313044FEA0B33AB
:1003700043EA14534FEA0432019C43EA0603A4F112
:100380000C040294009CCDE900B400F0DBF803B04B
:10039000BDE8F08F00200146F9E72DE9F04D81EA34
:1003A000030404F0004B21F0004514464FF0000A0E
:1003B00023F0004150EA050220D054EA01021DD08A
:1003C000C5F30A570246C5F31303C1F31300C1F383
:1003D0000A5640F4801543F48013A7EB0608101B5F
:1003E000D64608F2FD3873EB050002D308F1010888
:1003F00001E092185B41B8F1000F03DA00200146DA
:10040000BDE8F08D00204FF48011064684460EE0D2
:10041000171B73EB050705D3121B63EB050306439C
:100420004CEA010C49084FEA300092185B4150EA4F
:100430000107EDD152EA030012D082EA040083EAF8
:100440000501084305D0101BAB4106D20122002351
:1004500006E000224FF0004302E06FF0010253106B
:100460001AEB06004CEB085110EB0A0041EB0B01B4
:10047000BDE8F04D00F057B80EB540F2334102919F
:100480000021CDE900110A460B4600F05BF803B0ED
:1004900000BDC1F30A5210B5C1F3130140F2FF339E
:1004A00041F480119A4201DA002010BD40F233433A
:1004B0009A42A2F2334203DC524200F012F810BD1D
:1004C000904010BD202A04DB203A00FA02F10020FF
:1004D00070479140C2F1200320FA03F31943904082
:1004E0007047202A04DB203A21FA02F000217047ED
:1004F00021FA02F3D040C2F120029140084319468C
:100500007047202A06DBCB17203A41FA02F043EA73
:10051000E07306E041FA02F3D040C2F120029140BC
:1005200008431946704710B5141E73F1000408DA29
:10053000401C41F1000192185B411A4301D120F0A7
:10054000010010BD2DE9F04D92469B4611B1B1FA64
:1005500081F202E0B0FA80F220329046FFF7B2FF5B
:1005600004460F4640EA0A0041EA0B0153465A4648
:10057000084313D0114653EA010019D0C8F14002D4
:100580005046FFF7AEFF05460E46504659464246D6
:10059000FFF798FF084305D0012004E020463946C4
:1005A000BDE8F08D0020054346EAE0762C43374352
:1005B0000A986305E40AA0EB08000022FD0A44EA59
:1005C00047540A3002D500200146E9E70105101919
:1005D0006941DDE9084500196941BDE8F04DA2E730
:1005E000064C074D06E0E06840F0010394E8070080
:1005F00098471034AC42F6D3FFF79EFDB0250008B3
:10060000D0250008FEE7000010B5124C002104229E
:10061000204600F09AFD38B120460021042200F067
:100620008DFD0D4800F00EFC20460021022200F056
:100630008CFD40B120460021022200F07FFD0648DB
:100640000C3000F0FFFB204600210122BDE81040E5
:1006500000F074BD00000240A0000020704780B58B
:100660004FF4006000F0F0FD38B101F01FFB4FF4D3
:100670000060BDE8804000F0E1BD80BDFEE780B5D0
:1006800001F0C8FB102001F0F3FB102001F0FCFB8F
:10069000012818BF80BD022000F0E4FD002001F019
:1006A0003DFB002001F04AFB4FF4806001F03EFB6F
:1006B000002001F089FC002001F090FC4FF4803014
:1006C0004FF4501101F076FC182001F0D1FB1920F5
:1006D00001F0C2FB0028FAD0022001F089FC01F0F1
:1006E0008FFC0028FBD080BDFEE770477047704745
:1006F00010B5264801680131016000F0B1FA2448C4
:100700009FED240A9FED242A9FED243A9FED244A71
:10071000244C008801EE100AB8EE411A21EE000ABE
:1007200080EE020A20EE030A80EE040A84ED060A37
:1007300001F0F6F900F026FE1B48007802281AD1D5
:1007400004F1280000F0C8FE94ED082A94ED0D0A8B
:1007500094ED071AB4EEC20AF1EE10FAB4EEC10A33
:10076000C8BFB0EE420AF1EE10FAB8BFB0EE410ACF
:1007700084ED090A01E094ED090ABCEEC00A10EE0E
:10078000100ABDE8104001F025B800BF9C00002011
:10079000900000203333534000F07F45C049754935
:1007A00000E0924510000020C80000205B491A4A72
:1007B000086800F00C0008282AD110B50B6817480B
:1007C00013F4803F0AD08B6A154C13F0804F08BF9A
:1007D00014460A6812F4003F08BF20460A680B68F6
:1007E0001024C2F3834204EAD35309681A4311F078
:1007F000804FBDE8104003D10E2A03D8911C05E0BC
:1008000042F02002511C3D2988BF3F2101FB00F22C
:1008100004480260704700BF00127A0000093D00E2
:10082000006CDC020000002010B53A484FF4D032D2
:100830003A4C3B4B016841F47001016036498858DD
:1008400040F00100885000202060A06288581840C5
:1008500040F2FF7388504FF41F006060885820F406
:1008600080208850885840F480308850885823B1C0
:1008700010F40030A3F10103F8D04FF4D0328858BF
:1008800010F4003F00D1FEE7A069264B40F08050F5
:10089000A061086840F4404008602068206020683B
:1008A0002060206840F480602060206820F44030A0
:1008B0002060206840F440302060206818401A4BC7
:1008C0002060206818432060885840F0807088506D
:1008D000885810F0007FFBD0086840F48030086032
:1008E000486810F4803FFBD0086840F4003008608E
:1008F000486810F4003FFBD0206820F0030020601F
:10090000206840F002002060206810F0080FFBD043
:1009100010BD00BF88ED00E00070004004100240F0
:10092000FFFFF6FEFFFFC3B70000340810B5074C09
:100930008021204601F0E7FD38B101F0B7F92046EB
:100940008021BDE8104001F0D9BD10BD002C014050
:1009500010B54FF08040102101F0D5FD012841D1A4
:100960004FF08040032101F095FB4349434C0B7845
:10097000F3B100228B680A70226822F400522260D0
:100980000A6922B3C01A91ED040A80B201EE100A7E
:10099000B8EE411AB8EE400A81EE000AB7EE001A2E
:1009A000B4EEC10AF1EE10FAC8BFB0EE410A10E091
:1009B0008A781AB18A68821A92B20A618860012024
:1009C00088700870206840F40050206005E09FEDBA
:1009D0002C0A012081ED060A08714FF08040102199
:1009E00001F08CFD4FF08040042101F08CFD0128C6
:1009F00018BF10BD4FF08040012101F04BFB1E4994
:100A00001E4A4B7813B30024CB684C70146824F052
:100A1000200414604A693AB3C01A91ED050AB7EE92
:100A2000002A80B201EE100A0120B8EE411AB8EE99
:100A3000400A81EE000AB4EEC20AF1EE10FAC8BF15
:100A4000B0EE420A81ED070A48710DE0CB781BB188
:100A5000CB68C31A9BB24B61C8600120C870487054
:100A6000106840F0200010604FF080400421BDE885
:100A7000104001F043BD00BF700000202000004086
:100A80000000000010B50C4C0121204601F03BFD98
:100A9000012803D12046012101F030FD154841888D
:100AA0000131418089B2142938BF10BD0121017084
:100AB0000021418010BD00BF0004004010B50C4C67
:100AC0000121204601F01FFD012803D1204601210C
:100AD00001F014FD074881880131818009B2B1F528
:100AE0007A7FB8BF10BD012141700021818010BD07
:100AF0000014004050000020FEE7816841F008012A
:100B00008160816811F0080FFBD1816841F0040118
:100B10008160816811F0040FFBD17047B0B50229E4
:100B200007D0012918BFB0BD0A4D4FF470012C2326
:100B300003E0074D4FF4401138231C5801EB0252DB
:100B4000114025401D501D5829431950B0BD00BF0C
:100B5000FFFFCFFFFFFF0FFF8268002942F4006311
:100B600008BF22F4006383607047000080B5144919
:100B7000884210D01349884217D01349884218BFC1
:100B800080BD40F2093001F007FA40F20930BDE8BB
:100B9000804001F0F3B940F20F3001F0FDF940F26E
:100BA0000F30BDE8804001F0E9B940F20A3001F0B1
:100BB000F3F940F20A30BDE8804001F0DFB900BF30
:100BC000003C01400028014000240140816841F4BC
:100BD000807181607047816811F0010F02BF8168E8
:100BE00041F001018160704701F0010352B11BB176
:100BF000826842F48012826089070FD5816841F4CF
:100C000000410AE01BB1826822F4801282608907E9
:100C100058BF7047816821F400418160704700002F
:100C2000022904D0012918BF7047064900E0044991
:100C3000836819408160816811438160704700BFFB
:100C4000FF8FFFFFFFFFF1FF04490A6822F47022C3
:100C50000A600A6810430860704700BF042401401E
:100C6000BEB57F49EFF3108C72B6154C0A88ADF80B
:100C70000A204A888B88C888B1F808E04989BDF8FD
:100C80000A502580ADF80820BDF808206280ADF834
:100C90000630BDF80620A280ADF80400BDF80400BF
:100CA000E080ADF802E0BDF802002081ADF8001050
:100CB000BDF8000060818CF3108803B0B0BD00BFA8
:100CC00090000020F0B585B0564F044640F2026017
:100CD000B84740F20360B84740F20460B847C44EDA
:100CE000514D00210322E0233046A84706F58060DD
:100CF000002103220223A84706F5006000210322F9
:100D00003023A8474FF4A060B84706F57845002186
:100D1000284600F0A9F94FF40050454A00214FF44D
:100D2000807303900C2002904FF4806001904FF488
:100D3000807004903D480090284600F0B1F92846A4
:100D4000002100F081F928460021022200F0E6F996
:100D500028460021042200F0E1F928460021012262
:100D600000F0ECF90B200121002200F0DFFD40F241
:100D70000960B847022000F0A1FF06F5E0563046B2
:100D8000FFF7F4FE0020FFF75FFF30464FF480715D
:100D9000012200F0A3F830460221002200F09EF864
:100DA00030460021FFF7D8FE304601210622FFF72A
:100DB000B5FE204F3046002105220523B8473046B6
:100DC000012106220523B8473046022107220523C8
:100DD000B847304603210E220523B8473046042188
:100DE0000F220523B8473046052109220523B847BD
:100DF000304601212246FFF713FF30460121012230
:100E0000FFF7F2FE3046FFF7E6FE3046FFF775FECD
:100E10003046FFF7DBFE2846002105B0BDE8F04074
:100E200000F002B9651F0008C9120008A0000020E8
:100E30004C240140650E00080148022101F079BAF6
:100E4000002C01400188064A118041885180818828
:100E50009180C188D180018911814089508170477A
:100E6000BA000020B0B5052904D801EB810E00F1CD
:100E7000340C10E00B2906D801EB810100F1300C95
:100E8000A1F11E0E07E0102910D201EB810100F143
:100E90002C0CA1F13C0E1F24DCF8001002FA0EF518
:100EA00004FA0EF4A1432943CCF80010092A03D810
:100EB00002EB4201103006E0112A88BFB0BD02EB00
:100EC00042010C301E3903FA01F2072303FA01F143
:100ED000036823EA010111430160B0BD01F480738E
:100EE00082B11BB1426842F4807242604A0542BF3F
:100EF000426842F480624260890715D5816841F0FA
:100F0000020110E01BB1426822F4807242604A057F
:100F100042BF426822F480624260890758BF70472E
:100F2000816821F00201816070470000B0B586B091
:100F300040F2026001F016F82D4C04210322082330
:100F4000204600F0C1F9204604210322022300F0CC
:100F5000BBF94FF4E06001F005F802AC204601F067
:100F6000EDFA00254FF6FF702146ADF80C500295C2
:100F700004904FF08040ADF814508DF8165001F0F9
:100F8000DDF94FF480306C460321CDE900054FF0C8
:100F90008040224601F01AFA4FF08040012122469B
:100FA00001F014FA4FF08040552101F0A7FA1C20FF
:100FB0000221002200F0BAFC4FF08040102101F025
:100FC00099FA4FF08040042101F094FA4FF08040EC
:100FD00001F0AAF913488560C56005614561057097
:100FE00045708570C5700571457106B0B0BD00BF14
:100FF000000801400B4A014600201379002B08BF6E
:10100000704710719069086001207047054A0146D9
:1010100000205379002B08BF70475071D0690860D9
:101020000120704770000020434A904202D10529F8
:1010300000D3FEE701EB810100EB8100816841F004
:1010400001018160704700BF3B4A904202D10529EF
:1010500000D3FEE701EB810100EB8100816841F0E4
:1010600020018160704700BF334A904202D10529B8
:1010700000D3FEE701EB8102890000EB8202936856
:1010800023F00103936000239360D36013615361E5
:101090000F2202FA01F1426811434160704700BF1C
:1010A00070B5254CA04202D1052900D3FEE7DDE949
:1010B000064E01EB8101DDE90465DDF820C000EB9F
:1010C0008100A1B202614661C16043EA05015FFA95
:1010D0008CF3826841EA0E01012B0CF47F4322F469
:1010E0007C5241EA02018160816821F0400208BF20
:1010F00041F04002B3F5807F8260816821F0800278
:1011000008BF41F080021CF47F0F8260816841F0CB
:10111000100208BF21F01002826070BD064B984299
:1011200002D1052900D3FEE701EB810100EB81002C
:10113000816811438160704700040240890002FA0F
:1011400001F14268114341607047022A944607D07A
:10115000042A03D0082A944602D0FEE74FF0040C7C
:101160008B0001EB81019A40036800EB81001A407B
:1011700018BF0122806810EA0C0018BF012010403F
:10118000704700009FED0F1A0D489FED0F2AB4EE37
:10119000C10A90ED003AF1EE10FAC8BFB0EE410A74
:1011A000B5EEC00AF1EE10FAA8BFB0EE402AB8EED4
:1011B000430A22EE000ABDEEC00A10EE100A704784
:1011C00058000020A4707D3F0000000010B5244CA2
:1011D0000029236823EA00032360636823EA0003ED
:1011E0006360A36823EA0003A360E36823EA0003C3
:1011F000E36003D0012905D1211D00E021460B68E1
:1012000003430B60022A09D0C143012A09D072B9F5
:10121000A2681043A060E068084007E0A1680143AD
:1012200001E0A2681140A160E1680843E06010BDE0
:101230000B490A6810430860704700BF0149086005
:10124000704700BF1404014005494A69024018BFB5
:1012500001220968084018BF01201040704700BFF4
:101260000004014003490A6822F0070210430860A5
:10127000704700BF00200240416170470161704724
:101280000C22104B032902EA810C4FF00F0202FAE4
:101290000CF201D8196803E0072903D853F8041F9A
:1012A000914308E00B296FEA02028CBF53F80C1F30
:1012B00053F8081F1140196000FA0CF01968084330
:1012C000186070470800014001F00F0C11F0100F7A
:1012D00009D0042A05D1C26B4CF0030C1A43C26337
:1012E00001E04CEA020C2DE9F04100224FF0010E22
:1012F0004FF00F08002517E00EFA05F61E4211D038
:10130000046808FA02F70CFA02F6482924EA0704EE
:1013100046EA040603D0282903D1142700E0102749
:101320003B50066004320135082DE5D108224FF00C
:10133000000E01244FF00F08102A08BFBDE8F0810D
:1013400004FA02F61E4211D0456808FA0EF70CFAAC
:101350000EF6482925EA070546EA050603D028299E
:1013600003D1142700E010273B5046600EF1040E15
:101370000132E1E78068084018BF01207047012072
:1013800000F042BA80B524480078022826D001280F
:1013900005D0F0BB0120BDE8804000F035BA00F078
:1013A0007FFC28BB00F070FC10BB1C480278032AAD
:1013B0001ED01C481A49022A90ED060A096829D154
:1013C0009FED191AB4EEC10AF1EE10FA22DB406962
:1013D000081A642802D3022000F016FA00F060FC1C
:1013E00030B900F051FC18B90C480078032804D13A
:1013F0000320BDE8804000F007BA0228CAD109489E
:101400009FED0A1A90ED060AB4EEC10AF1EE10FA49
:10141000C0DB80BD416180BDC8000020D00000203D
:101420009C000020100000200000BE430000B443D8
:1014300078B142686AB18168013191420BD20022D1
:10144000427581600261090102685158C160012141
:101450000BE0002109E00021013A016181828260F4
:10146000036803EB02125268C2600846704700002E
:1014700070B19FED080A002300290361437580E8DD
:101480000E0002D00AB191ED000A037580ED030A47
:10149000704700BF0000000050B1416841B1002119
:1014A0000122016141758160016809680275C160AE
:1014B0007047000068B1002101618182816041684C
:1014C00000291ABF016891ED000A9FED020A80ED24
:1014D000030A70470000000070B50446E4B3207DA5
:1014E000D0B36068C0B301250026012032E06068F7
:1014F00090B3627D2068A16800EB01102AB1C0683A
:1015000018B32169814220D227E090ED021A90EDB4
:10151000010AB5EEC01AF1EE10FA0DDD94ED032AC2
:1015200030EE423AB5EEC03AF1EE10FA09DDB4EE13
:10153000C13AF1EE10FA13DC657584ED030A2661F9
:1015400001E026616575C06830B92046FFF770FF7D
:1015500010B1207D0006CAD170BD481C206170BD4D
:1015600032EE010A84ED030A70BD000000000000A5
:101570002DE9F04F8DB0D0E900128068A04E884C64
:10158000C6E90112F06040F20260A04740F2036039
:10159000A0478448844F182103224FF4807381466A
:1015A000B84709F58065182103224FF400532846F7
:1015B000B8472846482103224FF480534FF4805AFD
:1015C000B84740F20B60A0470DF12408404600F0F8
:1015D000B5FF00F03DFD054670684FF4C0010027DF
:1015E00009F510540991ADF82870ADF830708DF8F8
:1015F000327041464000B5FBF0F0013830600B908E
:10160000204600F09BFE0420CDF81E70CDF81A7025
:1016100005AA0021ADF8180001200590204600F031
:101620005DFD20460021602200F040FE20460021A2
:10163000002200F057FE20460021082200F058FE4C
:101640002846FEF719FF9FED4E0B02460B4651EC64
:10165000100BFEF7A2FE80468946002D0197ADF8DB
:101660000070ADF80E7067D0B068FEF705FF424617
:101670004B4606460D46FEF790FE9FED430B5AEC97
:1016800010BB5A465346FEF76FFDFEF702FF0746B2
:101690007F2F4ED94046494642464B46FEF764FDF1
:1016A00002460B4630462946FEF777FE5A46534619
:1016B000FEF75AFDFEF7EDFE20F03F01402902D172
:1016C00000F1400735E09FED320B4046494653ECB0
:1016D000102BFEF7F0FD02460B4630462946FEF77A
:1016E0005CFE5A465346FEF73FFDFEF7D2FE20F061
:1016F0001F01202902D100F1A0071AE09FED260B5F
:101700004046494653EC102BFEF7D5FD02460B46EA
:1017100030462946FEF741FE5A465346FEF724FD61
:10172000FEF7B7FE20F01F0120290CBF00F1C00713
:101730000027334E4FF4805A4FF08040ADF810A090
:101740006946CDF80A00F8B2ADF80800204600F06E
:1017500092FC2046302100F0E0FE204600F086FC9E
:101760002046012100F0E1FE204600F0DDFD96ED6F
:10177000030A00F023F80DB0BDE8F08F00BF00BFF2
:101780000000000065CDCD41000000000000E03FFA
:101790000000000000002040000000000000304079
:1017A000651F000800080140C912000801460848EA
:1017B000002918BF012100F0B8BE00BF80B5FFF7B7
:1017C000E1FC024602480021BDE8804000F08ABDED
:1017D000002C014090B1B0B5094C4500606000F0AC
:1017E00037FCB0FBF5F0074D01382060286094ED20
:1017F000030AFFF7C7FCA860BDE8B040704700BF10
:10180000580000202C2C0140B0B54749C34DE04C96
:10181000022808702968616109D0012826D018B90A
:1018200004F12800FFF746FE00F04CF927E004F130
:101830002800FFF731FE94ED081A94ED0D2A94ED7F
:10184000070A0120B4EEC12AF1EE10FAB4EEC02A64
:10185000C8BFB0EE412AF1EE10FAB8BFB0EE402A90
:1018600084ED092ABDE8B040FFF7A0BF04F12800CD
:10187000FFF720FEE048007808B12868A06000204B
:10188000FFF794FFE0696062B0BD00BF70B586B03D
:10189000FEF7F5FE1F48D0E900128068059003A806
:1018A000CDE90312FFF764FE44F6206000F08EF8E5
:1018B000B6EE000A00F0DCF800200024FFF702FA80
:1018C000FFF7BAFAFFF732FB00F09CF9CB48124958
:1018D000124A134BC0E906411249C0E908232830D7
:1018E0000322FFF7C5FD00F0F5F8FFF748FD00F013
:1018F0008DFB0D4E02AC01AD2046FFF77BFB284669
:10190000FFF784FB3078032802D10020FFF74EFF59
:1019100000BFF1E76C25000800606A47007C1248B0
:101920000050C34780250008C800002010B5254C92
:10193000236803F4E063B3F5E06F03D14FF0000CCC
:10194000042328E0236803F4E063B3F5C06F03D1F8
:101950004FF0010C03231EE0236803F4E063B3F5AA
:10196000A06F03D102234FF0020C14E0236803F4AC
:10197000E063B3F5806F03D14FF0030C01230AE05D
:1019800023684FF0040C03F4E063B3F5407F4FF09D
:10199000040308BF002399400F2323FA0CF31A40D5
:1019A0001143094A090140EA020383F800131C218C
:1019B000012301EAD00100F01F0003FA00F0885073
:1019C00010BD00BF0CED00E000E100E0F0B589B013
:1019D0000546002D4AD040F2036000F0C3FA384CAF
:1019E000182103220123012704F58430FFF76CFC42
:1019F00040F2017000F0B6FA05AE304600F09EFDF0
:101A0000022000F0A5F9D149096811F4E06118BF7E
:101A1000012188402749B0FBF5F0002501380595E4
:101A2000ADF81850ADF820508DF82250086007909E
:101A30002046314600F082FC01AA20460221ADF882
:101A40000A500197ADF80E5000F048FB20460221E5
:101A5000602200F02BFC20460221002200F042FC14
:101A6000204600F003FB204600F05EFC09B0F0BD0C
:101A70009FED111A0F489FED112A0221B4EEC10A01
:101A80000068F1EE10FAC8BFB0EE410AB5EEC00A28
:101A9000F1EE10FAA8BFB0EE402A00EE100A084896
:101AA000B8EE400A22EE000ABDEEC00A10EE102A7F
:101AB00000F018BCCC000020A4707D3F00000000A6
:101AC000000400404C480078002814BF00207047F4
:101AD00000F062B8B0B540F2026000F043FA2D4C5D
:101AE000102103224FF480632046FFF7EDFB2046D0
:101AF0004FF48061FFF7C0FB3F4800253F4C057065
:101B00003F4825800068C4E901500020C4E903551E
:101B100000F02CF8607800B16570B0BD9C0000202A
:101B200080B5364880ED010A00F0BAF810B900F02F
:101B3000ABF848B130480078032800D180BD0320BD
:101B400000F02AF8012000E000202B490978002944
:101B500008BF80BD022903D0012918BF0028EDD19C
:101B60000020BDE8804000F017B800BF23490A7884
:101B7000824208BF70470870064920B108464FF4FA
:101B80008061FFF77BBB08464FF48061FFF774BBB1
:101B9000100000200008014070B51749184D174C7F
:101BA000022808704FF000012A68C4E9022121616F
:101BB0000CD0012815D000284FF000004FF0000590
:101BC000FFF7D4FF607858B1657070BD0120012621
:101BD000FFF7CCFF6078012818BF66702868E060C6
:101BE00070BD0120FFF7C2FF6078002808BF70BDFC
:101BF0000020607070BD00BFD000002010000020E9
:101C00009C00002010B540F2046000F0ABF91D4CC0
:101C1000482103224FF40063A4F5E050FFF754FB82
:101C20004FF4C06000F09EF902200B21FFF728FB63
:101C30004FF4006000210122FFF7C8FA4FF4006062
:101C4000FFF7FCFA282001210022FFF76FFE4FF476
:101C50000060FFF7EDFA2046802100F04FFC20469F
:101C6000802100F047FC182001210022FFF75EFED2
:101C700000F00AF8002814BFBDE8104010BD00F0C5
:101C800015B800BF002C014080B504484FF4006136
:101C9000FFF770FBB0FA80F0400980BD00100140F2
:101CA00005480078002818BF01207047024801212C
:101CB00001700020FFF77ABDB800002070B5EA4E31
:101CC000134A0B28316802EA0102B16A21F000537D
:101CD0001BD801248440250709D114F4706F09D062
:101CE0000C4B03EA803041F0005302430DE042EA1E
:101CF00080320AE00121814011F0A00F1FBF064988
:101D000001EA8030104340F080523260B36270BD0F
:101D1000FF3FFFEF00C0FCFF00C0FEEFD2490A68A2
:101D200022F0F00210430860704700BFCE490A68F5
:101D300022F4E06210430860704700BFCA490A6895
:101D400022F4605210430860704700BF0410024044
:101D5000B0B5274A1168C1F381032649022B27D168
:101D60001368254C13F4803F0AD0936A234D13F077
:101D7000804F08BF0D46116811F4003F08BF2C4684
:101D800011681368102505EAD353C1F38341194341
:101D9000136813F0804F03D10E2903D88B1C05E084
:101DA00041F020013F233F2938BF4B1C03FB04F1C6
:101DB000136815680328C5F3022CC3F303131268D4
:101DC0000AD810A50E4CEB5C21FA03F3DFE800F013
:101DD0000E020609194609E0002107E014F80C007C
:101DE00002E0C2F3C220205C23FA00F10846B0BD35
:101DF0000410024000127A0000093D00006CDC0271
:101E00007825000800000000000000000102030423
:101E10000607080910B5664C206840F001002060F4
:101E2000002000F031F86068094908400949606005
:101E3000206808402060206820F4802020604FF453
:101E40001F00A060E06A20F0C040E06210BD00BF4B
:101E50000C000020FFFFF6FE554A810900F01F002C
:101E60008958012202FA00F0084018BF012070478B
:101E700010B54F4C810900F01F00012202FA00F05A
:101E80000B591843085110BDF0B110282BD043F264
:101E90001001884236D0B0F5006F42D0B0F5106F17
:101EA0004DD018281CBF002070472C49404B002201
:101EB00018680029C0F3406008BF70471206A1F1FE
:101EC00001010246F4D047E0394B00224FF4A061F3
:101ED00018680029C0F340003ED01206A1F10101AC
:101EE0000246F5D038E0324B00224FF4006118680A
:101EF0000029C0F340402FD01206A1F10101024693
:101F0000F5D029E015492A4B0022D3F8C00000295A
:101F1000C0F3404020D01206A1F101010246F4D0E6
:101F20001AE00F49224B0022186A0029C0F3400032
:101F300012D01206A1F101010246F5D00CE00749CA
:101F40001B4B0022586A0029C0F3400004D012063F
:101F5000A1F101010246F5D0704700BFFFFF0F005D
:101F6000FFFFFF0310B5124C810900F01F00012292
:101F700002FA00F00B591843085110BD10B50C4C73
:101F8000810900F01F00012202FA00F00B5923EA38
:101F90000000085110BD00BF10B5054C810900F0CC
:101FA0001F00012202FA00F00B591843085110BD1E
:101FB0000010024008432C49024B0A681A401043A3
:101FC00008607047FFFFC2B703490A6822F08042E9
:101FD00010430860704700BF2C10024022490128BE
:101FE0000A6822F4003308BF42F400330B607047E4
:101FF0001D490A6822F0030210430860704700BFC1
:102000001948006800F00C00704700BF80B5FEF76B
:10201000CDFB0B484FF47A730A49002200680A602E
:10202000B0FBF3F0084B0138984238BF034607482D
:102030004B608A60F02202700720086080BD00BFFC
:102040000000002010E000E0FFFFFF0023ED00E0B3
:1020500080B50320FFF77CFE0349096811F4605145
:1020600018BF0121884080BD04100240016841F082
:102070008001016070470A884B681A430B891A4334
:102080004B891A438B891A43CB89098A1A43114316
:102090004164704703298EBF002000EB8100406B34
:1020A00070470000032988BF7047DFE801F0020D88
:1020B000050A50F8181F01E050F81C1F21F00C0110
:1020C00007E050F81C1F01E050F8181F21F4406190
:1020D000120201600168114301607047032988BF43
:1020E0007047DFE801F0023C7ABA016A21F0010191
:1020F00001621168036A19430162016A21F0020159
:102100000162D188036A19430162AD49884202D055
:10211000AC4988421FD1016A21F004010162918813
:10212000036A19430162016A21F008010162118901
:10213000036A19430162416821F480714160518949
:10214000436819434160416821F4007141609189FD
:102150004268114341606FF003021821A0E0016A58
:1021600021F0100101621168036A43EA0111016262
:10217000016A21F020010162D188036A43EA01115A
:1021800001628F49884202D08E49884223D1016A78
:1021900021F0400101629188036A43EA0111016262
:1021A000016A21F0800101621189036A43EA011189
:1021B0000162416821F4806141605189436843EACA
:1021C00081014160416821F4006141609189426868
:1021D00042EA81014160182161E0016A21F48071C5
:1021E00001621168036A43EA01210162016A21F474
:1021F00000710162D188036A43EA012101627049DA
:10220000884202D06F49884223D1016A21F480615B
:1022100001629188036A43EA01210162016A21F4A3
:10222000006101621189036A43EA01210162416888
:1022300021F4805141605189436843EA01114160B2
:10224000416821F4005141609189426842EA0111DC
:1022500041606FF003021C2122E0016A21F48051E9
:1022600001621168036A43EA01310162016A21F4E3
:1022700000510162D188036A43EA01310162504989
:10228000884202D04F49884208D1416821F48041F8
:1022900041605189426842EA811141601C21024A31
:1022A0000B581A400A507047FFFCFFFF032988BFF4
:1022B0007047DFE801F0020D050A50F8181F01E031
:1022C00050F81C1F21F0700107E050F81C1F01E0BE
:1022D00050F8181F21F4E041120201600168114317
:1022E0000160704703299CBF00EB81004263704787
:1022F000032988BF7047DFE801F0020D050A50F896
:10230000181F01E050F81C1F21F0080107E050F8E9
:102310001C1F01E050F8181F21F400611202016037
:102320000168114301607047016841F001010160DB
:102330007047426911434161704700000A88B0F15B
:10234000804F82620ED01B4A90420BD01A4A9042B4
:1023500008D01A4A904205D0194A904202D0194A30
:1023600090420BD1026822F0700202604A88036832
:102370001A4302608A8803681A4302608A68124B13
:10238000C26240F480629A4207D0026822F440722E
:1023900002608A8903681A430260094A904202D0A7
:1023A000084A904201D1897B0163416941F00101F2
:1023B000416170470004004000080040000C0040EC
:1023C00000340140002C014000140040032900F2B9
:1023D0008C80F0B5DFE801F0021B355684464FF0E3
:1023E000010E5CF8203F23F00103CCF80030DCF84C
:1023F000003023F00A03CCF800301388DCF80060CA
:102400003343CCF80030034653F8186F32E084466B
:102410004FF0100E5CF8203F23F01003CCF8003092
:10242000DCF8003023F0A003CCF800301388DCF88F
:10243000006046EA0313CCF80030034653F8186FE7
:1024400039E084464FF4807E5CF8203F23F48073AB
:10245000CCF80030DCF8003023F42063CCF80030F6
:102460001388DCF8006046EA0323CCF8003003460A
:1024700053F81C6F26F003061E60548804256FF085
:10248000F0061FE084464FF4805E5CF8203F23F4A2
:102490008053CCF80030DCF8003023F40053CCF843
:1024A00000301388DCF8006046EA0333CCF80030D3
:1024B000034653F81C6F26F440761E60568834029B
:1024C0000B4E0C251F683C431C601C6834401C608C
:1024D000D488AC401D682C431C60DCF8003043EA13
:1024E0000E03CCF80030BDE8F0409288FFF7DABD6B
:1024F000FF0FFFFFC2681143C1607047026922EA03
:10250000010101617047C2680A4018BF01220069D9
:10251000084018BF012010407047426822F0700246
:1025200042604268114341607047426C012922F4C5
:10253000004308BF42F400434364704700214FF654
:10254000FF7281800160826081818173704702E047
:1025500008C8121F08C1002AFAD17047704700202E
:1025600001E001C1121F002AFBD17047A0860100C3
:10257000F40100000000003F00000000010203041D
:1025800000606A470050C34700007A44C80000005A
:102590000050C347007C12480000FA43C800000006
:1025A000007C12480050C3470000FA4300000000BE
:1025B000D025000800000020100000004E25000873
:1025C000E025000810000020C80400005E25000877
:1025D000000E2707000000000000000000000000BF
:0400000508000131BD
:00000001FF
